{"contracts/KillGame.sol":{"KILLGame":{"abi":[{"inputs":[{"internalType":"address","name":"_tokenAddress","type":"address"},{"internalType":"address","name":"initialOwner","type":"address"}],"stateMutability":"nonpayable","type":"constructor"},{"inputs":[{"internalType":"address","name":"sender","type":"address"},{"internalType":"uint256","name":"balance","type":"uint256"},{"internalType":"uint256","name":"needed","type":"uint256"},{"internalType":"uint256","name":"tokenId","type":"uint256"}],"name":"ERC1155InsufficientBalance","type":"error"},{"inputs":[{"internalType":"address","name":"approver","type":"address"}],"name":"ERC1155InvalidApprover","type":"error"},{"inputs":[{"internalType":"uint256","name":"idsLength","type":"uint256"},{"internalType":"uint256","name":"valuesLength","type":"uint256"}],"name":"ERC1155InvalidArrayLength","type":"error"},{"inputs":[{"internalType":"address","name":"operator","type":"address"}],"name":"ERC1155InvalidOperator","type":"error"},{"inputs":[{"internalType":"address","name":"receiver","type":"address"}],"name":"ERC1155InvalidReceiver","type":"error"},{"inputs":[{"internalType":"address","name":"sender","type":"address"}],"name":"ERC1155InvalidSender","type":"error"},{"inputs":[{"internalType":"address","name":"operator","type":"address"},{"internalType":"address","name":"owner","type":"address"}],"name":"ERC1155MissingApprovalForAll","type":"error"},{"inputs":[{"internalType":"address","name":"owner","type":"address"}],"name":"OwnableInvalidOwner","type":"error"},{"inputs":[{"internalType":"address","name":"account","type":"address"}],"name":"OwnableUnauthorizedAccount","type":"error"},{"inputs":[],"name":"ReentrancyGuardReentrantCall","type":"error"},{"anonymous":false,"inputs":[{"indexed":true,"internalType":"address","name":"account","type":"address"},{"indexed":true,"internalType":"address","name":"operator","type":"address"},{"indexed":false,"internalType":"bool","name":"approved","type":"bool"}],"name":"ApprovalForAll","type":"event"},{"anonymous":false,"inputs":[{"indexed":true,"internalType":"address","name":"attacker","type":"address"},{"indexed":true,"internalType":"address","name":"target","type":"address"},{"indexed":false,"internalType":"uint256","name":"tokenId","type":"uint256"},{"indexed":false,"internalType":"uint256","name":"unitsKilled","type":"uint256"},{"indexed":false,"internalType":"uint256","name":"bountyPaid","type":"uint256"}],"name":"Killed","type":"event"},{"anonymous":false,"inputs":[{"indexed":true,"internalType":"address","name":"agent","type":"address"},{"indexed":false,"internalType":"uint256","name":"fromTokenId","type":"uint256"},{"indexed":false,"internalType":"uint256","name":"toTokenId","type":"uint256"},{"indexed":false,"internalType":"uint256","name":"units","type":"uint256"}],"name":"Moved","type":"event"},{"anonymous":false,"inputs":[{"indexed":true,"internalType":"address","name":"previousOwner","type":"address"},{"indexed":true,"internalType":"address","name":"newOwner","type":"address"}],"name":"OwnershipTransferred","type":"event"},{"anonymous":false,"inputs":[{"indexed":true,"internalType":"address","name":"agent","type":"address"},{"indexed":true,"internalType":"uint256","name":"tokenId","type":"uint256"},{"indexed":false,"internalType":"uint256","name":"units","type":"uint256"}],"name":"Spawned","type":"event"},{"anonymous":false,"inputs":[{"indexed":true,"internalType":"address","name":"operator","type":"address"},{"indexed":true,"internalType":"address","name":"from","type":"address"},{"indexed":true,"internalType":"address","name":"to","type":"address"},{"indexed":false,"internalType":"uint256[]","name":"ids","type":"uint256[]"},{"indexed":false,"internalType":"uint256[]","name":"values","type":"uint256[]"}],"name":"TransferBatch","type":"event"},{"anonymous":false,"inputs":[{"indexed":true,"internalType":"address","name":"operator","type":"address"},{"indexed":true,"internalType":"address","name":"from","type":"address"},{"indexed":true,"internalType":"address","name":"to","type":"address"},{"indexed":false,"internalType":"uint256","name":"id","type":"uint256"},{"indexed":false,"internalType":"uint256","name":"value","type":"uint256"}],"name":"TransferSingle","type":"event"},{"anonymous":false,"inputs":[{"indexed":false,"internalType":"string","name":"value","type":"string"},{"indexed":true,"internalType":"uint256","name":"id","type":"uint256"}],"name":"URI","type":"event"},{"inputs":[],"name":"BOOST_RECOIL","outputs":[{"internalType":"uint256","name":"","type":"uint256"}],"stateMutability":"view","type":"function"},{"inputs":[],"name":"BOOST_REQUIRED","outputs":[{"internalType":"uint256","name":"","type":"uint256"}],"stateMutability":"view","type":"function"},{"inputs":[],"name":"BURN_BPS","outputs":[{"internalType":"uint256","name":"","type":"uint256"}],"stateMutability":"view","type":"function"},{"inputs":[],"name":"SPAWN_COST","outputs":[{"internalType":"uint256","name":"","type":"uint256"}],"stateMutability":"view","type":"function"},{"inputs":[],"name":"TREASURY_BPS","outputs":[{"internalType":"uint256","name":"","type":"uint256"}],"stateMutability":"view","type":"function"},{"inputs":[{"internalType":"uint256","name":"amount","type":"uint256"}],"name":"adminWithdraw","outputs":[],"stateMutability":"nonpayable","type":"function"},{"inputs":[{"internalType":"address","name":"","type":"address"},{"internalType":"uint256","name":"","type":"uint256"}],"name":"agentStacks","outputs":[{"internalType":"uint256","name":"birthBlock","type":"uint256"}],"stateMutability":"view","type":"function"},{"inputs":[{"internalType":"address","name":"account","type":"address"},{"internalType":"uint256","name":"id","type":"uint256"}],"name":"balanceOf","outputs":[{"internalType":"uint256","name":"","type":"uint256"}],"stateMutability":"view","type":"function"},{"inputs":[{"internalType":"address[]","name":"accounts","type":"address[]"},{"internalType":"uint256[]","name":"ids","type":"uint256[]"}],"name":"balanceOfBatch","outputs":[{"internalType":"uint256[]","name":"","type":"uint256[]"}],"stateMutability":"view","type":"function"},{"inputs":[{"internalType":"address","name":"agent","type":"address"},{"internalType":"uint256","name":"tokenId","type":"uint256"}],"name":"getPendingBounty","outputs":[{"internalType":"uint256","name":"","type":"uint256"}],"stateMutability":"view","type":"function"},{"inputs":[{"internalType":"uint16","name":"cube","type":"uint16"},{"internalType":"bool","name":"boosted","type":"bool"}],"name":"getRipeStacks","outputs":[{"internalType":"address[]","name":"agents","type":"address[]"},{"internalType":"uint256[]","name":"ages","type":"uint256[]"}],"stateMutability":"view","type":"function"},{"inputs":[{"internalType":"address","name":"account","type":"address"},{"internalType":"address","name":"operator","type":"address"}],"name":"isApprovedForAll","outputs":[{"internalType":"bool","name":"","type":"bool"}],"stateMutability":"view","type":"function"},{"inputs":[{"internalType":"address","name":"target","type":"address"},{"internalType":"uint16","name":"cube","type":"uint16"},{"internalType":"uint256","name":"amountToKill","type":"uint256"},{"internalType":"bool","name":"boosted","type":"bool"}],"name":"kill","outputs":[{"internalType":"uint256","name":"netBounty","type":"uint256"}],"stateMutability":"nonpayable","type":"function"},{"inputs":[],"name":"killToken","outputs":[{"internalType":"contract IERC20","name":"","type":"address"}],"stateMutability":"view","type":"function"},{"inputs":[{"internalType":"uint16","name":"fromCube","type":"uint16"},{"internalType":"uint16","name":"toCube","type":"uint16"},{"internalType":"uint256","name":"units","type":"uint256"},{"internalType":"bool","name":"boosted","type":"bool"}],"name":"move","outputs":[],"stateMutability":"nonpayable","type":"function"},{"inputs":[],"name":"owner","outputs":[{"internalType":"address","name":"","type":"address"}],"stateMutability":"view","type":"function"},{"inputs":[],"name":"renounceOwnership","outputs":[],"stateMutability":"nonpayable","type":"function"},{"inputs":[{"internalType":"address","name":"from","type":"address"},{"internalType":"address","name":"to","type":"address"},{"internalType":"uint256[]","name":"ids","type":"uint256[]"},{"internalType":"uint256[]","name":"values","type":"uint256[]"},{"internalType":"bytes","name":"data","type":"bytes"}],"name":"safeBatchTransferFrom","outputs":[],"stateMutability":"nonpayable","type":"function"},{"inputs":[{"internalType":"address","name":"from","type":"address"},{"internalType":"address","name":"to","type":"address"},{"internalType":"uint256","name":"id","type":"uint256"},{"internalType":"uint256","name":"value","type":"uint256"},{"internalType":"bytes","name":"data","type":"bytes"}],"name":"safeTransferFrom","outputs":[],"stateMutability":"nonpayable","type":"function"},{"inputs":[{"internalType":"address","name":"operator","type":"address"},{"internalType":"bool","name":"approved","type":"bool"}],"name":"setApprovalForAll","outputs":[],"stateMutability":"nonpayable","type":"function"},{"inputs":[{"internalType":"uint16","name":"cube","type":"uint16"},{"internalType":"uint256","name":"units","type":"uint256"},{"internalType":"bool","name":"boosted","type":"bool"}],"name":"spawn","outputs":[],"stateMutability":"nonpayable","type":"function"},{"inputs":[{"internalType":"bytes4","name":"interfaceId","type":"bytes4"}],"name":"supportsInterface","outputs":[{"internalType":"bool","name":"","type":"bool"}],"stateMutability":"view","type":"function"},{"inputs":[{"internalType":"address","name":"newOwner","type":"address"}],"name":"transferOwnership","outputs":[],"stateMutability":"nonpayable","type":"function"},{"inputs":[],"name":"treasuryBalance","outputs":[{"internalType":"uint256","name":"","type":"uint256"}],"stateMutability":"view","type":"function"},{"inputs":[{"internalType":"uint256","name":"","type":"uint256"}],"name":"uri","outputs":[{"internalType":"string","name":"","type":"string"}],"stateMutability":"view","type":"function"}],"evm":{"bytecode":{"linkReferences":{},"object":"60a06040523480156200001157600080fd5b50604051620027fb380380620027fb83398101604081905262000034916200012f565b806040518060600160405280602a8152602001620027d1602a91396200005a81620000ae565b5060016003556001600160a01b0381166200008f57604051631e4fbdf760e01b81526000600482015260240160405180910390fd5b6200009a81620000c0565b50506001600160a01b0316608052620002da565b6002620000bc82826200020e565b5050565b600480546001600160a01b038381166001600160a01b0319831681179093556040519116919082907f8be0079c531659141344cd1fd0a4f28419497f9722a3daafe3b4186f6b6457e090600090a35050565b80516001600160a01b03811681146200012a57600080fd5b919050565b600080604083850312156200014357600080fd5b6200014e8362000112565b91506200015e6020840162000112565b90509250929050565b634e487b7160e01b600052604160045260246000fd5b600181811c908216806200019257607f821691505b602082108103620001b357634e487b7160e01b600052602260045260246000fd5b50919050565b601f82111562000209576000816000526020600020601f850160051c81016020861015620001e45750805b601f850160051c820191505b818110156200020557828155600101620001f0565b5050505b505050565b81516001600160401b038111156200022a576200022a62000167565b62000242816200023b84546200017d565b84620001b9565b602080601f8311600181146200027a5760008415620002615750858301515b600019600386901b1c1916600185901b17855562000205565b600085815260208120601f198616915b82811015620002ab578886015182559484019460019091019084016200028a565b5085821015620002ca5787850151600019600388901b60f8161c191681555b5050505050600190811b01905550565b6080516124bf62000312600039600081816101e50152818161090801528181610e1b01528181610f57015261102c01526124bf6000f3fe608060405234801561001057600080fd5b50600436106101725760003560e01c80636950ed03116100de578063a37a9fc011610097578063ea075ee111610071578063ea075ee114610332578063edbd5df814610345578063f242432a14610370578063f2fde38b1461038357600080fd5b8063a37a9fc01461024e578063c704c3f114610310578063e985e9c51461031f57600080fd5b80636950ed03146102ab578063715018a6146102be5780637a2b3720146102c65780637c5b4a37146102d95780638da5cb5b146102ec578063a22cb465146102fd57600080fd5b806344b70ac41161013057806344b70ac41461023d5780634c25d197146102455780634cf5317b1461024e5780634e1273f41461025757806355ebad59146102775780635d69a7101461029857600080fd5b8062fdd58e1461017757806301ffc9a71461019d5780630e89341c146101c05780632bd7cd17146101e05780632eb2c2d61461021f578063313dab2014610234575b600080fd5b61018a610185366004611bc7565b610396565b6040519081526020015b60405180910390f35b6101b06101ab366004611c07565b6103be565b6040519015158152602001610194565b6101d36101ce366004611c2b565b6103c9565b6040516101949190611c8a565b6102077f000000000000000000000000000000000000000000000000000000000000000081565b6040516001600160a01b039091168152602001610194565b61023261022d366004611de7565b61045d565b005b61018a60055481565b61018a604281565b61018a61247681565b61018a61029a81565b61026a610265366004611e91565b6104c9565b6040516101949190611f8d565b61028a610285366004611fc0565b610596565b604051610194929190611ff7565b6102326102a6366004612058565b610851565b6102326102b9366004612098565b610a7c565b610232610c40565b61018a6102d43660046120e7565b610c54565b6102326102e7366004611c2b565b610f3a565b6004546001600160a01b0316610207565b61023261030b366004612106565b6110e2565b61018a678ac7230489e8000081565b6101b061032d366004612122565b6110f1565b61018a610340366004611bc7565b61111f565b61018a610353366004611bc7565b600660209081526000928352604080842090915290825290205481565b61023261037e366004612155565b61116d565b6102326103913660046121ba565b6111cc565b6000818152602081815260408083206001600160a01b03861684529091529020545b92915050565b60006103b882611207565b6060600280546103d8906121d5565b80601f0160208091040260200160405190810160405280929190818152602001828054610404906121d5565b80156104515780601f1061042657610100808354040283529160200191610451565b820191906000526020600020905b81548152906001019060200180831161043457829003601f168201915b50505050509050919050565b336001600160a01b038616811480159061047e575061047c86826110f1565b155b156104b45760405163711bec9160e11b81526001600160a01b038083166004830152871660248201526044015b60405180910390fd5b6104c18686868686611257565b505050505050565b606081518351146104fa5781518351604051635b05999160e01b8152600481019290925260248201526044016104ab565b6000835167ffffffffffffffff81111561051657610516611c9d565b60405190808252806020026020018201604052801561053f578160200160208202803683370190505b50905060005b845181101561058e5760208082028601015161056990602080840287010151610396565b82828151811061057b5761057b61220f565b6020908102919091010152600101610545565b509392505050565b6060806000836105aa578461ffff166105b9565b6105b961ffff861660d861223b565b60008181526007602090815260408083208054825181850281018501909352808352949550929390929183018282801561061c57602002820191906000526020600020905b81546001600160a01b031681526001909101906020018083116105fe575b505050505090506000805b82518110156106c7576008600085815260200190815260200160002060008483815181106106575761065761220f565b6020908102919091018101516001600160a01b031682528101919091526040016000205460ff1680156106ac575060006106aa84838151811061069c5761069c61220f565b602002602001015186610396565b115b156106bf57816106bb8161224e565b9250505b600101610627565b508067ffffffffffffffff8111156106e1576106e1611c9d565b60405190808252806020026020018201604052801561070a578160200160208202803683370190505b5094508067ffffffffffffffff81111561072657610726611c9d565b60405190808252806020026020018201604052801561074f578160200160208202803683370190505b5093506000805b83518110156108455760008482815181106107735761077361220f565b60209081029190910181015160008881526008835260408082206001600160a01b0384168352909352919091205490915060ff1680156107bc575060006107ba8288610396565b115b1561083c57808884815181106107d4576107d461220f565b6001600160a01b03928316602091820292909201810191909152908216600090815260068252604080822089835290925220546108119043612267565b8784815181106108235761082361220f565b6020908102919091010152826108388161224e565b9350505b50600101610756565b50505050509250929050565b6108596112be565b60008361ffff16118015610872575060d88361ffff1611155b6108ad5760405162461bcd60e51b815260206004820152600c60248201526b496e76616c6964204375626560a01b60448201526064016104ab565b6000816108be578361ffff166108cd565b6108cd61ffff851660d861223b565b905060006108e3678ac7230489e800008561227a565b6040516323b872dd60e01b8152336004820152306024820152604481018290529091507f00000000000000000000000000000000000000000000000000000000000000006001600160a01b0316906323b872dd906064016020604051808303816000875af1158015610959573d6000803e3d6000fd5b505050506040513d601f19601f8201168201806040525081019061097d9190612291565b6109c05760405162461bcd60e51b815260206004820152601460248201527314dc185ddb8814185e5b595b9d0811985a5b195960621b60448201526064016104ab565b6127106109cf6124768361227a565b6109d991906122c4565b600560008282546109ea919061223b565b92505081905550610a0c338386604051806020016040528060008152506112e8565b3360008181526006602090815260408083208684529091529020439055610a34908390611345565b604051848152829033907fd5fd522cbcc1631fc34044a6a2d3242adb07fb2d862b28f5215ad524dde676349060200160405180910390a35050610a776001600355565b505050565b60008361ffff16118015610a95575060d88361ffff1611155b610ad75760405162461bcd60e51b8152602060048201526013602482015272496e76616c696420546172676574204375626560681b60448201526064016104ab565b610ae184846113cb565b610b3b5760405162461bcd60e51b815260206004820152602560248201527f4d6f76656d656e74207265737472696374656420746f2061646a6163656e7420604482015264637562657360d81b60648201526084016104ab565b600081610b4c578461ffff16610b5b565b610b5b61ffff861660d861223b565b9050600082610b6e578461ffff16610b7d565b610b7d61ffff861660d861223b565b9050610b9b333384876040518060200160405280600081525061152c565b3360008181526006602090815260408083208584529091529020439055610bc29083610396565b600003610beb5760008281526008602090815260408083203384529091529020805460ff191690555b610bf58133611345565b604080518381526020810183905290810185905233907fd90667fc01ab4bc3eacbfafd214b4ec561704309a60f0430b09107ea38702b179060600160405180910390a2505050505050565b610c486115ba565b610c5260006115e7565b565b6000610c5e6112be565b600082610c6f578461ffff16610c7e565b610c7e61ffff861660d861223b565b9050600083610c9757610c9285600261227a565b610ca3565b610ca361029a8661227a565b905080610cb03384610396565b1015610cf35760405162461bcd60e51b8152602060048201526012602482015271496e73756666696369656e7420466f72636560701b60448201526064016104ab565b84610cfe8884610396565b1015610d455760405162461bcd60e51b815260206004820152601660248201527515185c99d95d081cdd1858dac81d1bdbc81cdb585b1b60521b60448201526064016104ab565b6000610d51888461111f565b9050600085610d605786610d6b565b610d6b60428861227a565b9050610d78898589611639565b610d83338583611639565b610d8d8985610396565b600003610dbf5760008481526008602090815260408083206001600160a01b038d1684529091529020805460ff191690555b6000612710610dd061029a8561227a565b610dda91906122c4565b9050610de68184612267565b95508260056000828254610dfa9190612267565b909155505060405163a9059cbb60e01b8152336004820152602481018790527f00000000000000000000000000000000000000000000000000000000000000006001600160a01b03169063a9059cbb906044016020604051808303816000875af1158015610e6c573d6000803e3d6000fd5b505050506040513d601f19601f82011682018060405250810190610e909190612291565b610ed55760405162461bcd60e51b8152602060048201526016602482015275109bdd5b9d1e48151c985b9cd9995c8811985a5b195960521b60448201526064016104ab565b60408051868152602081018a90529081018790526001600160a01b038b169033907f3a0f8ff9630ddea131e18c99eea14235d84cb8eae4e672cce74d13aa37a4b1779060600160405180910390a35050505050610f326001600355565b949350505050565b610f426115ba565b6040516370a0823160e01b81523060048201527f00000000000000000000000000000000000000000000000000000000000000006001600160a01b0316906370a0823190602401602060405180830381865afa158015610fa6573d6000803e3d6000fd5b505050506040513d601f19601f82011682018060405250810190610fca91906122d8565b8111156110105760405162461bcd60e51b8152602060048201526014602482015273496e73756666696369656e742062616c616e636560601b60448201526064016104ab565b60405163a9059cbb60e01b8152336004820152602481018290527f00000000000000000000000000000000000000000000000000000000000000006001600160a01b03169063a9059cbb906044016020604051808303816000875af115801561107d573d6000803e3d6000fd5b505050506040513d601f19601f820116820180604052508101906110a19190612291565b6110df5760405162461bcd60e51b815260206004820152600f60248201526e151c985b9cd9995c8819985a5b1959608a1b60448201526064016104ab565b50565b6110ed3383836116a1565b5050565b6001600160a01b03918216600090815260016020908152604080832093909416825291909152205460ff1690565b6001600160a01b0382166000908152600660209081526040808320848452909152812054819061114f9043612267565b9050620f424081600554611163919061227a565b610f3291906122c4565b336001600160a01b038616811480159061118e575061118c86826110f1565b155b156111bf5760405163711bec9160e11b81526001600160a01b038083166004830152871660248201526044016104ab565b6104c1868686868661152c565b6111d46115ba565b6001600160a01b0381166111fe57604051631e4fbdf760e01b8152600060048201526024016104ab565b6110df816115e7565b60006001600160e01b03198216636cdb3d1360e11b148061123857506001600160e01b031982166303a24d0760e21b145b806103b857506301ffc9a760e01b6001600160e01b03198316146103b8565b6001600160a01b03841661128157604051632bfa23e760e11b8152600060048201526024016104ab565b6001600160a01b0385166112aa57604051626a0d4560e21b8152600060048201526024016104ab565b6112b78585858585611737565b5050505050565b6002600354036112e157604051633ee5aeb560e01b815260040160405180910390fd5b6002600355565b6001600160a01b03841661131257604051632bfa23e760e11b8152600060048201526024016104ab565b604080516001808252602082018690528183019081526060820185905260808201909252906104c1600087848487611737565b60008281526008602090815260408083206001600160a01b038516845290915290205460ff166110ed5760008281526007602090815260408083208054600180820183559185528385200180546001600160a01b0319166001600160a01b039690961695861790559483526008825280832093835292905220805460ff19169091179055565b60008161ffff168361ffff1614806113e5575061ffff8316155b806113f2575061ffff8216155b156113ff575060006103b8565b600061140c6001856122f1565b9050600061141b6001856122f1565b9050600061142a600684612313565b90506000600661143a8186612334565b6114449190612313565b90506000611453602486612334565b90506000611462600686612313565b9050600060066114728188612334565b61147c9190612313565b9050600061148b602488612334565b905060008160010b8560010b136114ab576114a68583612355565b6114b5565b6114b58286612355565b8360010b8760010b136114d1576114cc8785612355565b6114db565b6114db8488612355565b8560010b8960010b136114f7576114f28987612355565b611501565b611501868a612355565b61150b9190612378565b6115159190612378565b61ffff166001149c9b505050505050505050505050565b6001600160a01b03841661155657604051632bfa23e760e11b8152600060048201526024016104ab565b6001600160a01b03851661157f57604051626a0d4560e21b8152600060048201526024016104ab565b604080516001808252602082018690528183019081526060820185905260808201909252906115b18787848487611737565b50505050505050565b6004546001600160a01b03163314610c525760405163118cdaa760e01b81523360048201526024016104ab565b600480546001600160a01b038381166001600160a01b0319831681179093556040519116919082907f8be0079c531659141344cd1fd0a4f28419497f9722a3daafe3b4186f6b6457e090600090a35050565b6001600160a01b03831661166257604051626a0d4560e21b8152600060048201526024016104ab565b604080516001808252602082018590528183019081526060820184905260a082019092526000608082018181529192916112b791879185908590611737565b6001600160a01b0382166116ca5760405162ced3e160e81b8152600060048201526024016104ab565b6001600160a01b03838116600081815260016020908152604080832094871680845294825291829020805460ff191686151590811790915591519182527f17307eab39ab6107e8899845ad3d59bd9653f200f220920489ca2b5937696c31910160405180910390a3505050565b6117438585858561178a565b6001600160a01b038416156112b7578251339060010361177c576020848101519084015161177583898985858961199e565b50506104c1565b6104c1818787878787611ac2565b80518251146117b95781518151604051635b05999160e01b8152600481019290925260248201526044016104ab565b3360005b83518110156118bf576020818102858101820151908501909101516001600160a01b03881615611870576000828152602081815260408083206001600160a01b038c16845290915290205481811015611849576040516303dee4c560e01b81526001600160a01b038a1660048201526024810182905260448101839052606481018490526084016104ab565b6000838152602081815260408083206001600160a01b038d16845290915290209082900390555b6001600160a01b038716156118b5576000828152602081815260408083206001600160a01b038b168452909152812080548392906118af90849061223b565b90915550505b50506001016117bd565b5082516001036119405760208301516000906020840151909150856001600160a01b0316876001600160a01b0316846001600160a01b03167fc3d58168c5ae7397731d063d5bbf3d657854427343f4c083240f7aacaa2d0f628585604051611931929190918252602082015260400190565b60405180910390a450506112b7565b836001600160a01b0316856001600160a01b0316826001600160a01b03167f4a39dc06d4c0dbc64b70af90fd698a233a518aa5d07e595d983b8c0526c8f7fb868660405161198f92919061239b565b60405180910390a45050505050565b6001600160a01b0384163b156104c15760405163f23a6e6160e01b81526001600160a01b0385169063f23a6e61906119e290899089908890889088906004016123c9565b6020604051808303816000875af1925050508015611a1d575060408051601f3d908101601f19168201909252611a1a9181019061240e565b60015b611a86573d808015611a4b576040519150601f19603f3d011682016040523d82523d6000602084013e611a50565b606091505b508051600003611a7e57604051632bfa23e760e11b81526001600160a01b03861660048201526024016104ab565b805160208201fd5b6001600160e01b0319811663f23a6e6160e01b146115b157604051632bfa23e760e11b81526001600160a01b03861660048201526024016104ab565b6001600160a01b0384163b156104c15760405163bc197c8160e01b81526001600160a01b0385169063bc197c8190611b06908990899088908890889060040161242b565b6020604051808303816000875af1925050508015611b41575060408051601f3d908101601f19168201909252611b3e9181019061240e565b60015b611b6f573d808015611a4b576040519150601f19603f3d011682016040523d82523d6000602084013e611a50565b6001600160e01b0319811663bc197c8160e01b146115b157604051632bfa23e760e11b81526001600160a01b03861660048201526024016104ab565b80356001600160a01b0381168114611bc257600080fd5b919050565b60008060408385031215611bda57600080fd5b611be383611bab565b946020939093013593505050565b6001600160e01b0319811681146110df57600080fd5b600060208284031215611c1957600080fd5b8135611c2481611bf1565b9392505050565b600060208284031215611c3d57600080fd5b5035919050565b6000815180845260005b81811015611c6a57602081850181015186830182015201611c4e565b506000602082860101526020601f19601f83011685010191505092915050565b602081526000611c246020830184611c44565b634e487b7160e01b600052604160045260246000fd5b604051601f8201601f1916810167ffffffffffffffff81118282101715611cdc57611cdc611c9d565b604052919050565b600067ffffffffffffffff821115611cfe57611cfe611c9d565b5060051b60200190565b600082601f830112611d1957600080fd5b81356020611d2e611d2983611ce4565b611cb3565b8083825260208201915060208460051b870101935086841115611d5057600080fd5b602086015b84811015611d6c5780358352918301918301611d55565b509695505050505050565b600082601f830112611d8857600080fd5b813567ffffffffffffffff811115611da257611da2611c9d565b611db5601f8201601f1916602001611cb3565b818152846020838601011115611dca57600080fd5b816020850160208301376000918101602001919091529392505050565b600080600080600060a08688031215611dff57600080fd5b611e0886611bab565b9450611e1660208701611bab565b9350604086013567ffffffffffffffff80821115611e3357600080fd5b611e3f89838a01611d08565b94506060880135915080821115611e5557600080fd5b611e6189838a01611d08565b93506080880135915080821115611e7757600080fd5b50611e8488828901611d77565b9150509295509295909350565b60008060408385031215611ea457600080fd5b823567ffffffffffffffff80821115611ebc57600080fd5b818501915085601f830112611ed057600080fd5b81356020611ee0611d2983611ce4565b82815260059290921b84018101918181019089841115611eff57600080fd5b948201945b83861015611f2457611f1586611bab565b82529482019490820190611f04565b96505086013592505080821115611f3a57600080fd5b50611f4785828601611d08565b9150509250929050565b60008151808452602080850194506020840160005b83811015611f8257815187529582019590820190600101611f66565b509495945050505050565b602081526000611c246020830184611f51565b803561ffff81168114611bc257600080fd5b80151581146110df57600080fd5b60008060408385031215611fd357600080fd5b611fdc83611fa0565b91506020830135611fec81611fb2565b809150509250929050565b604080825283519082018190526000906020906060840190828701845b828110156120395781516001600160a01b031684529284019290840190600101612014565b505050838103602085015261204e8186611f51565b9695505050505050565b60008060006060848603121561206d57600080fd5b61207684611fa0565b925060208401359150604084013561208d81611fb2565b809150509250925092565b600080600080608085870312156120ae57600080fd5b6120b785611fa0565b93506120c560208601611fa0565b92506040850135915060608501356120dc81611fb2565b939692955090935050565b600080600080608085870312156120fd57600080fd5b6120b785611bab565b6000806040838503121561211957600080fd5b611fdc83611bab565b6000806040838503121561213557600080fd5b61213e83611bab565b915061214c60208401611bab565b90509250929050565b600080600080600060a0868803121561216d57600080fd5b61217686611bab565b945061218460208701611bab565b93506040860135925060608601359150608086013567ffffffffffffffff8111156121ae57600080fd5b611e8488828901611d77565b6000602082840312156121cc57600080fd5b611c2482611bab565b600181811c908216806121e957607f821691505b60208210810361220957634e487b7160e01b600052602260045260246000fd5b50919050565b634e487b7160e01b600052603260045260246000fd5b634e487b7160e01b600052601160045260246000fd5b808201808211156103b8576103b8612225565b60006001820161226057612260612225565b5060010190565b818103818111156103b8576103b8612225565b80820281158282048414176103b8576103b8612225565b6000602082840312156122a357600080fd5b8151611c2481611fb2565b634e487b7160e01b600052601260045260246000fd5b6000826122d3576122d36122ae565b500490565b6000602082840312156122ea57600080fd5b5051919050565b61ffff82811682821603908082111561230c5761230c612225565b5092915050565b600061ffff80841680612328576123286122ae565b92169190910692915050565b600061ffff80841680612349576123496122ae565b92169190910492915050565b600182810b9082900b03617fff198112617fff821317156103b8576103b8612225565b600181810b9083900b01617fff8113617fff19821217156103b8576103b8612225565b6040815260006123ae6040830185611f51565b82810360208401526123c08185611f51565b95945050505050565b6001600160a01b03868116825285166020820152604081018490526060810183905260a06080820181905260009061240390830184611c44565b979650505050505050565b60006020828403121561242057600080fd5b8151611c2481611bf1565b6001600160a01b0386811682528516602082015260a06040820181905260009061245790830186611f51565b82810360608401526124698186611f51565b9050828103608084015261247d8185611c44565b9897505050505050505056fea26469706673582212209400a99d1db8e0643389713f0f7300402cface9aad0bc61197ca5976bc29828264736f6c6343000818003368747470733a2f2f6170692e6b696c6c67616d652e61692f6d657461646174612f7b69647d2e6a736f6e","opcodes":"PUSH1 0xA0 PUSH1 0x40 MSTORE CALLVALUE DUP1 ISZERO PUSH3 0x11 JUMPI PUSH1 0x0 DUP1 REVERT JUMPDEST POP PUSH1 0x40 MLOAD PUSH3 0x27FB CODESIZE SUB DUP1 PUSH3 0x27FB DUP4 CODECOPY DUP2 ADD PUSH1 0x40 DUP2 SWAP1 MSTORE PUSH3 0x34 SWAP2 PUSH3 0x12F JUMP JUMPDEST DUP1 PUSH1 0x40 MLOAD DUP1 PUSH1 0x60 ADD PUSH1 0x40 MSTORE DUP1 PUSH1 0x2A DUP2 MSTORE PUSH1 0x20 ADD PUSH3 0x27D1 PUSH1 0x2A SWAP2 CODECOPY PUSH3 0x5A DUP2 PUSH3 0xAE JUMP JUMPDEST POP PUSH1 0x1 PUSH1 0x3 SSTORE PUSH1 0x1 PUSH1 0x1 PUSH1 0xA0 SHL SUB DUP2 AND PUSH3 0x8F JUMPI PUSH1 0x40 MLOAD PUSH4 0x1E4FBDF7 PUSH1 0xE0 SHL DUP2 MSTORE PUSH1 0x0 PUSH1 0x4 DUP3 ADD MSTORE PUSH1 0x24 ADD PUSH1 0x40 MLOAD DUP1 SWAP2 SUB SWAP1 REVERT JUMPDEST PUSH3 0x9A DUP2 PUSH3 0xC0 JUMP JUMPDEST POP POP PUSH1 0x1 PUSH1 0x1 PUSH1 0xA0 SHL SUB AND PUSH1 0x80 MSTORE PUSH3 0x2DA JUMP JUMPDEST PUSH1 0x2 PUSH3 0xBC DUP3 DUP3 PUSH3 0x20E JUMP JUMPDEST POP POP JUMP JUMPDEST PUSH1 0x4 DUP1 SLOAD PUSH1 0x1 PUSH1 0x1 PUSH1 0xA0 SHL SUB DUP4 DUP2 AND PUSH1 0x1 PUSH1 0x1 PUSH1 0xA0 SHL SUB NOT DUP4 AND DUP2 OR SWAP1 SWAP4 SSTORE PUSH1 0x40 MLOAD SWAP2 AND SWAP2 SWAP1 DUP3 SWAP1 PUSH32 0x8BE0079C531659141344CD1FD0A4F28419497F9722A3DAAFE3B4186F6B6457E0 SWAP1 PUSH1 0x0 SWAP1 LOG3 POP POP JUMP JUMPDEST DUP1 MLOAD PUSH1 0x1 PUSH1 0x1 PUSH1 0xA0 SHL SUB DUP2 AND DUP2 EQ PUSH3 0x12A JUMPI PUSH1 0x0 DUP1 REVERT JUMPDEST SWAP2 SWAP1 POP JUMP JUMPDEST PUSH1 0x0 DUP1 PUSH1 0x40 DUP4 DUP6 SUB SLT ISZERO PUSH3 0x143 JUMPI PUSH1 0x0 DUP1 REVERT JUMPDEST PUSH3 0x14E DUP4 PUSH3 0x112 JUMP JUMPDEST SWAP2 POP PUSH3 0x15E PUSH1 0x20 DUP5 ADD PUSH3 0x112 JUMP JUMPDEST SWAP1 POP SWAP3 POP SWAP3 SWAP1 POP JUMP JUMPDEST PUSH4 0x4E487B71 PUSH1 0xE0 SHL PUSH1 0x0 MSTORE PUSH1 0x41 PUSH1 0x4 MSTORE PUSH1 0x24 PUSH1 0x0 REVERT JUMPDEST PUSH1 0x1 DUP2 DUP2 SHR SWAP1 DUP3 AND DUP1 PUSH3 0x192 JUMPI PUSH1 0x7F DUP3 AND SWAP2 POP JUMPDEST PUSH1 0x20 DUP3 LT DUP2 SUB PUSH3 0x1B3 JUMPI PUSH4 0x4E487B71 PUSH1 0xE0 SHL PUSH1 0x0 MSTORE PUSH1 0x22 PUSH1 0x4 MSTORE PUSH1 0x24 PUSH1 0x0 REVERT JUMPDEST POP SWAP2 SWAP1 POP JUMP JUMPDEST PUSH1 0x1F DUP3 GT ISZERO PUSH3 0x209 JUMPI PUSH1 0x0 DUP2 PUSH1 0x0 MSTORE PUSH1 0x20 PUSH1 0x0 KECCAK256 PUSH1 0x1F DUP6 ADD PUSH1 0x5 SHR DUP2 ADD PUSH1 0x20 DUP7 LT ISZERO PUSH3 0x1E4 JUMPI POP DUP1 JUMPDEST PUSH1 0x1F DUP6 ADD PUSH1 0x5 SHR DUP3 ADD SWAP2 POP JUMPDEST DUP2 DUP2 LT ISZERO PUSH3 0x205 JUMPI DUP3 DUP2 SSTORE PUSH1 0x1 ADD PUSH3 0x1F0 JUMP JUMPDEST POP POP POP JUMPDEST POP POP POP JUMP JUMPDEST DUP2 MLOAD PUSH1 0x1 PUSH1 0x1 PUSH1 0x40 SHL SUB DUP2 GT ISZERO PUSH3 0x22A JUMPI PUSH3 0x22A PUSH3 0x167 JUMP JUMPDEST PUSH3 0x242 DUP2 PUSH3 0x23B DUP5 SLOAD PUSH3 0x17D JUMP JUMPDEST DUP5 PUSH3 0x1B9 JUMP JUMPDEST PUSH1 0x20 DUP1 PUSH1 0x1F DUP4 GT PUSH1 0x1 DUP2 EQ PUSH3 0x27A JUMPI PUSH1 0x0 DUP5 ISZERO PUSH3 0x261 JUMPI POP DUP6 DUP4 ADD MLOAD JUMPDEST PUSH1 0x0 NOT PUSH1 0x3 DUP7 SWAP1 SHL SHR NOT AND PUSH1 0x1 DUP6 SWAP1 SHL OR DUP6 SSTORE PUSH3 0x205 JUMP JUMPDEST PUSH1 0x0 DUP6 DUP2 MSTORE PUSH1 0x20 DUP2 KECCAK256 PUSH1 0x1F NOT DUP7 AND SWAP2 JUMPDEST DUP3 DUP2 LT ISZERO PUSH3 0x2AB JUMPI DUP9 DUP7 ADD MLOAD DUP3 SSTORE SWAP5 DUP5 ADD SWAP5 PUSH1 0x1 SWAP1 SWAP2 ADD SWAP1 DUP5 ADD PUSH3 0x28A JUMP JUMPDEST POP DUP6 DUP3 LT ISZERO PUSH3 0x2CA JUMPI DUP8 DUP6 ADD MLOAD PUSH1 0x0 NOT PUSH1 0x3 DUP9 SWAP1 SHL PUSH1 0xF8 AND SHR NOT AND DUP2 SSTORE JUMPDEST POP POP POP POP POP PUSH1 0x1 SWAP1 DUP2 SHL ADD SWAP1 SSTORE POP JUMP JUMPDEST PUSH1 0x80 MLOAD PUSH2 0x24BF PUSH3 0x312 PUSH1 0x0 CODECOPY PUSH1 0x0 DUP2 DUP2 PUSH2 0x1E5 ADD MSTORE DUP2 DUP2 PUSH2 0x908 ADD MSTORE DUP2 DUP2 PUSH2 0xE1B ADD MSTORE DUP2 DUP2 PUSH2 0xF57 ADD MSTORE PUSH2 0x102C ADD MSTORE PUSH2 0x24BF PUSH1 0x0 RETURN INVALID PUSH1 0x80 PUSH1 0x40 MSTORE CALLVALUE DUP1 ISZERO PUSH2 0x10 JUMPI PUSH1 0x0 DUP1 REVERT JUMPDEST POP PUSH1 0x4 CALLDATASIZE LT PUSH2 0x172 JUMPI PUSH1 0x0 CALLDATALOAD PUSH1 0xE0 SHR DUP1 PUSH4 0x6950ED03 GT PUSH2 0xDE JUMPI DUP1 PUSH4 0xA37A9FC0 GT PUSH2 0x97 JUMPI DUP1 PUSH4 0xEA075EE1 GT PUSH2 0x71 JUMPI DUP1 PUSH4 0xEA075EE1 EQ PUSH2 0x332 JUMPI DUP1 PUSH4 0xEDBD5DF8 EQ PUSH2 0x345 JUMPI DUP1 PUSH4 0xF242432A EQ PUSH2 0x370 JUMPI DUP1 PUSH4 0xF2FDE38B EQ PUSH2 0x383 JUMPI PUSH1 0x0 DUP1 REVERT JUMPDEST DUP1 PUSH4 0xA37A9FC0 EQ PUSH2 0x24E JUMPI DUP1 PUSH4 0xC704C3F1 EQ PUSH2 0x310 JUMPI DUP1 PUSH4 0xE985E9C5 EQ PUSH2 0x31F JUMPI PUSH1 0x0 DUP1 REVERT JUMPDEST DUP1 PUSH4 0x6950ED03 EQ PUSH2 0x2AB JUMPI DUP1 PUSH4 0x715018A6 EQ PUSH2 0x2BE JUMPI DUP1 PUSH4 0x7A2B3720 EQ PUSH2 0x2C6 JUMPI DUP1 PUSH4 0x7C5B4A37 EQ PUSH2 0x2D9 JUMPI DUP1 PUSH4 0x8DA5CB5B EQ PUSH2 0x2EC JUMPI DUP1 PUSH4 0xA22CB465 EQ PUSH2 0x2FD JUMPI PUSH1 0x0 DUP1 REVERT JUMPDEST DUP1 PUSH4 0x44B70AC4 GT PUSH2 0x130 JUMPI DUP1 PUSH4 0x44B70AC4 EQ PUSH2 0x23D JUMPI DUP1 PUSH4 0x4C25D197 EQ PUSH2 0x245 JUMPI DUP1 PUSH4 0x4CF5317B EQ PUSH2 0x24E JUMPI DUP1 PUSH4 0x4E1273F4 EQ PUSH2 0x257 JUMPI DUP1 PUSH4 0x55EBAD59 EQ PUSH2 0x277 JUMPI DUP1 PUSH4 0x5D69A710 EQ PUSH2 0x298 JUMPI PUSH1 0x0 DUP1 REVERT JUMPDEST DUP1 PUSH3 0xFDD58E EQ PUSH2 0x177 JUMPI DUP1 PUSH4 0x1FFC9A7 EQ PUSH2 0x19D JUMPI DUP1 PUSH4 0xE89341C EQ PUSH2 0x1C0 JUMPI DUP1 PUSH4 0x2BD7CD17 EQ PUSH2 0x1E0 JUMPI DUP1 PUSH4 0x2EB2C2D6 EQ PUSH2 0x21F JUMPI DUP1 PUSH4 0x313DAB20 EQ PUSH2 0x234 JUMPI JUMPDEST PUSH1 0x0 DUP1 REVERT JUMPDEST PUSH2 0x18A PUSH2 0x185 CALLDATASIZE PUSH1 0x4 PUSH2 0x1BC7 JUMP JUMPDEST PUSH2 0x396 JUMP JUMPDEST PUSH1 0x40 MLOAD SWAP1 DUP2 MSTORE PUSH1 0x20 ADD JUMPDEST PUSH1 0x40 MLOAD DUP1 SWAP2 SUB SWAP1 RETURN JUMPDEST PUSH2 0x1B0 PUSH2 0x1AB CALLDATASIZE PUSH1 0x4 PUSH2 0x1C07 JUMP JUMPDEST PUSH2 0x3BE JUMP JUMPDEST PUSH1 0x40 MLOAD SWAP1 ISZERO ISZERO DUP2 MSTORE PUSH1 0x20 ADD PUSH2 0x194 JUMP JUMPDEST PUSH2 0x1D3 PUSH2 0x1CE CALLDATASIZE PUSH1 0x4 PUSH2 0x1C2B JUMP JUMPDEST PUSH2 0x3C9 JUMP JUMPDEST PUSH1 0x40 MLOAD PUSH2 0x194 SWAP2 SWAP1 PUSH2 0x1C8A JUMP JUMPDEST PUSH2 0x207 PUSH32 0x0 DUP2 JUMP JUMPDEST PUSH1 0x40 MLOAD PUSH1 0x1 PUSH1 0x1 PUSH1 0xA0 SHL SUB SWAP1 SWAP2 AND DUP2 MSTORE PUSH1 0x20 ADD PUSH2 0x194 JUMP JUMPDEST PUSH2 0x232 PUSH2 0x22D CALLDATASIZE PUSH1 0x4 PUSH2 0x1DE7 JUMP JUMPDEST PUSH2 0x45D JUMP JUMPDEST STOP JUMPDEST PUSH2 0x18A PUSH1 0x5 SLOAD DUP2 JUMP JUMPDEST PUSH2 0x18A PUSH1 0x42 DUP2 JUMP JUMPDEST PUSH2 0x18A PUSH2 0x2476 DUP2 JUMP JUMPDEST PUSH2 0x18A PUSH2 0x29A DUP2 JUMP JUMPDEST PUSH2 0x26A PUSH2 0x265 CALLDATASIZE PUSH1 0x4 PUSH2 0x1E91 JUMP JUMPDEST PUSH2 0x4C9 JUMP JUMPDEST PUSH1 0x40 MLOAD PUSH2 0x194 SWAP2 SWAP1 PUSH2 0x1F8D JUMP JUMPDEST PUSH2 0x28A PUSH2 0x285 CALLDATASIZE PUSH1 0x4 PUSH2 0x1FC0 JUMP JUMPDEST PUSH2 0x596 JUMP JUMPDEST PUSH1 0x40 MLOAD PUSH2 0x194 SWAP3 SWAP2 SWAP1 PUSH2 0x1FF7 JUMP JUMPDEST PUSH2 0x232 PUSH2 0x2A6 CALLDATASIZE PUSH1 0x4 PUSH2 0x2058 JUMP JUMPDEST PUSH2 0x851 JUMP JUMPDEST PUSH2 0x232 PUSH2 0x2B9 CALLDATASIZE PUSH1 0x4 PUSH2 0x2098 JUMP JUMPDEST PUSH2 0xA7C JUMP JUMPDEST PUSH2 0x232 PUSH2 0xC40 JUMP JUMPDEST PUSH2 0x18A PUSH2 0x2D4 CALLDATASIZE PUSH1 0x4 PUSH2 0x20E7 JUMP JUMPDEST PUSH2 0xC54 JUMP JUMPDEST PUSH2 0x232 PUSH2 0x2E7 CALLDATASIZE PUSH1 0x4 PUSH2 0x1C2B JUMP JUMPDEST PUSH2 0xF3A JUMP JUMPDEST PUSH1 0x4 SLOAD PUSH1 0x1 PUSH1 0x1 PUSH1 0xA0 SHL SUB AND PUSH2 0x207 JUMP JUMPDEST PUSH2 0x232 PUSH2 0x30B CALLDATASIZE PUSH1 0x4 PUSH2 0x2106 JUMP JUMPDEST PUSH2 0x10E2 JUMP JUMPDEST PUSH2 0x18A PUSH8 0x8AC7230489E80000 DUP2 JUMP JUMPDEST PUSH2 0x1B0 PUSH2 0x32D CALLDATASIZE PUSH1 0x4 PUSH2 0x2122 JUMP JUMPDEST PUSH2 0x10F1 JUMP JUMPDEST PUSH2 0x18A PUSH2 0x340 CALLDATASIZE PUSH1 0x4 PUSH2 0x1BC7 JUMP JUMPDEST PUSH2 0x111F JUMP JUMPDEST PUSH2 0x18A PUSH2 0x353 CALLDATASIZE PUSH1 0x4 PUSH2 0x1BC7 JUMP JUMPDEST PUSH1 0x6 PUSH1 0x20 SWAP1 DUP2 MSTORE PUSH1 0x0 SWAP3 DUP4 MSTORE PUSH1 0x40 DUP1 DUP5 KECCAK256 SWAP1 SWAP2 MSTORE SWAP1 DUP3 MSTORE SWAP1 KECCAK256 SLOAD DUP2 JUMP JUMPDEST PUSH2 0x232 PUSH2 0x37E CALLDATASIZE PUSH1 0x4 PUSH2 0x2155 JUMP JUMPDEST PUSH2 0x116D JUMP JUMPDEST PUSH2 0x232 PUSH2 0x391 CALLDATASIZE PUSH1 0x4 PUSH2 0x21BA JUMP JUMPDEST PUSH2 0x11CC JUMP JUMPDEST PUSH1 0x0 DUP2 DUP2 MSTORE PUSH1 0x20 DUP2 DUP2 MSTORE PUSH1 0x40 DUP1 DUP4 KECCAK256 PUSH1 0x1 PUSH1 0x1 PUSH1 0xA0 SHL SUB DUP7 AND DUP5 MSTORE SWAP1 SWAP2 MSTORE SWAP1 KECCAK256 SLOAD JUMPDEST SWAP3 SWAP2 POP POP JUMP JUMPDEST PUSH1 0x0 PUSH2 0x3B8 DUP3 PUSH2 0x1207 JUMP JUMPDEST PUSH1 0x60 PUSH1 0x2 DUP1 SLOAD PUSH2 0x3D8 SWAP1 PUSH2 0x21D5 JUMP JUMPDEST DUP1 PUSH1 0x1F ADD PUSH1 0x20 DUP1 SWAP2 DIV MUL PUSH1 0x20 ADD PUSH1 0x40 MLOAD SWAP1 DUP2 ADD PUSH1 0x40 MSTORE DUP1 SWAP3 SWAP2 SWAP1 DUP2 DUP2 MSTORE PUSH1 0x20 ADD DUP3 DUP1 SLOAD PUSH2 0x404 SWAP1 PUSH2 0x21D5 JUMP JUMPDEST DUP1 ISZERO PUSH2 0x451 JUMPI DUP1 PUSH1 0x1F LT PUSH2 0x426 JUMPI PUSH2 0x100 DUP1 DUP4 SLOAD DIV MUL DUP4 MSTORE SWAP2 PUSH1 0x20 ADD SWAP2 PUSH2 0x451 JUMP JUMPDEST DUP3 ADD SWAP2 SWAP1 PUSH1 0x0 MSTORE PUSH1 0x20 PUSH1 0x0 KECCAK256 SWAP1 JUMPDEST DUP2 SLOAD DUP2 MSTORE SWAP1 PUSH1 0x1 ADD SWAP1 PUSH1 0x20 ADD DUP1 DUP4 GT PUSH2 0x434 JUMPI DUP3 SWAP1 SUB PUSH1 0x1F AND DUP3 ADD SWAP2 JUMPDEST POP POP POP POP POP SWAP1 POP SWAP2 SWAP1 POP JUMP JUMPDEST CALLER PUSH1 0x1 PUSH1 0x1 PUSH1 0xA0 SHL SUB DUP7 AND DUP2 EQ DUP1 ISZERO SWAP1 PUSH2 0x47E JUMPI POP PUSH2 0x47C DUP7 DUP3 PUSH2 0x10F1 JUMP JUMPDEST ISZERO JUMPDEST ISZERO PUSH2 0x4B4 JUMPI PUSH1 0x40 MLOAD PUSH4 0x711BEC91 PUSH1 0xE1 SHL DUP2 MSTORE PUSH1 0x1 PUSH1 0x1 PUSH1 0xA0 SHL SUB DUP1 DUP4 AND PUSH1 0x4 DUP4 ADD MSTORE DUP8 AND PUSH1 0x24 DUP3 ADD MSTORE PUSH1 0x44 ADD JUMPDEST PUSH1 0x40 MLOAD DUP1 SWAP2 SUB SWAP1 REVERT JUMPDEST PUSH2 0x4C1 DUP7 DUP7 DUP7 DUP7 DUP7 PUSH2 0x1257 JUMP JUMPDEST POP POP POP POP POP POP JUMP JUMPDEST PUSH1 0x60 DUP2 MLOAD DUP4 MLOAD EQ PUSH2 0x4FA JUMPI DUP2 MLOAD DUP4 MLOAD PUSH1 0x40 MLOAD PUSH4 0x5B059991 PUSH1 0xE0 SHL DUP2 MSTORE PUSH1 0x4 DUP2 ADD SWAP3 SWAP1 SWAP3 MSTORE PUSH1 0x24 DUP3 ADD MSTORE PUSH1 0x44 ADD PUSH2 0x4AB JUMP JUMPDEST PUSH1 0x0 DUP4 MLOAD PUSH8 0xFFFFFFFFFFFFFFFF DUP2 GT ISZERO PUSH2 0x516 JUMPI PUSH2 0x516 PUSH2 0x1C9D JUMP JUMPDEST PUSH1 0x40 MLOAD SWAP1 DUP1 DUP3 MSTORE DUP1 PUSH1 0x20 MUL PUSH1 0x20 ADD DUP3 ADD PUSH1 0x40 MSTORE DUP1 ISZERO PUSH2 0x53F JUMPI DUP2 PUSH1 0x20 ADD PUSH1 0x20 DUP3 MUL DUP1 CALLDATASIZE DUP4 CALLDATACOPY ADD SWAP1 POP JUMPDEST POP SWAP1 POP PUSH1 0x0 JUMPDEST DUP5 MLOAD DUP2 LT ISZERO PUSH2 0x58E JUMPI PUSH1 0x20 DUP1 DUP3 MUL DUP7 ADD ADD MLOAD PUSH2 0x569 SWAP1 PUSH1 0x20 DUP1 DUP5 MUL DUP8 ADD ADD MLOAD PUSH2 0x396 JUMP JUMPDEST DUP3 DUP3 DUP2 MLOAD DUP2 LT PUSH2 0x57B JUMPI PUSH2 0x57B PUSH2 0x220F JUMP JUMPDEST PUSH1 0x20 SWAP1 DUP2 MUL SWAP2 SWAP1 SWAP2 ADD ADD MSTORE PUSH1 0x1 ADD PUSH2 0x545 JUMP JUMPDEST POP SWAP4 SWAP3 POP POP POP JUMP JUMPDEST PUSH1 0x60 DUP1 PUSH1 0x0 DUP4 PUSH2 0x5AA JUMPI DUP5 PUSH2 0xFFFF AND PUSH2 0x5B9 JUMP JUMPDEST PUSH2 0x5B9 PUSH2 0xFFFF DUP7 AND PUSH1 0xD8 PUSH2 0x223B JUMP JUMPDEST PUSH1 0x0 DUP2 DUP2 MSTORE PUSH1 0x7 PUSH1 0x20 SWAP1 DUP2 MSTORE PUSH1 0x40 DUP1 DUP4 KECCAK256 DUP1 SLOAD DUP3 MLOAD DUP2 DUP6 MUL DUP2 ADD DUP6 ADD SWAP1 SWAP4 MSTORE DUP1 DUP4 MSTORE SWAP5 SWAP6 POP SWAP3 SWAP4 SWAP1 SWAP3 SWAP2 DUP4 ADD DUP3 DUP3 DUP1 ISZERO PUSH2 0x61C JUMPI PUSH1 0x20 MUL DUP3 ADD SWAP2 SWAP1 PUSH1 0x0 MSTORE PUSH1 0x20 PUSH1 0x0 KECCAK256 SWAP1 JUMPDEST DUP2 SLOAD PUSH1 0x1 PUSH1 0x1 PUSH1 0xA0 SHL SUB AND DUP2 MSTORE PUSH1 0x1 SWAP1 SWAP2 ADD SWAP1 PUSH1 0x20 ADD DUP1 DUP4 GT PUSH2 0x5FE JUMPI JUMPDEST POP POP POP POP POP SWAP1 POP PUSH1 0x0 DUP1 JUMPDEST DUP3 MLOAD DUP2 LT ISZERO PUSH2 0x6C7 JUMPI PUSH1 0x8 PUSH1 0x0 DUP6 DUP2 MSTORE PUSH1 0x20 ADD SWAP1 DUP2 MSTORE PUSH1 0x20 ADD PUSH1 0x0 KECCAK256 PUSH1 0x0 DUP5 DUP4 DUP2 MLOAD DUP2 LT PUSH2 0x657 JUMPI PUSH2 0x657 PUSH2 0x220F JUMP JUMPDEST PUSH1 0x20 SWAP1 DUP2 MUL SWAP2 SWAP1 SWAP2 ADD DUP2 ADD MLOAD PUSH1 0x1 PUSH1 0x1 PUSH1 0xA0 SHL SUB AND DUP3 MSTORE DUP2 ADD SWAP2 SWAP1 SWAP2 MSTORE PUSH1 0x40 ADD PUSH1 0x0 KECCAK256 SLOAD PUSH1 0xFF AND DUP1 ISZERO PUSH2 0x6AC JUMPI POP PUSH1 0x0 PUSH2 0x6AA DUP5 DUP4 DUP2 MLOAD DUP2 LT PUSH2 0x69C JUMPI PUSH2 0x69C PUSH2 0x220F JUMP JUMPDEST PUSH1 0x20 MUL PUSH1 0x20 ADD ADD MLOAD DUP7 PUSH2 0x396 JUMP JUMPDEST GT JUMPDEST ISZERO PUSH2 0x6BF JUMPI DUP2 PUSH2 0x6BB DUP2 PUSH2 0x224E JUMP JUMPDEST SWAP3 POP POP JUMPDEST PUSH1 0x1 ADD PUSH2 0x627 JUMP JUMPDEST POP DUP1 PUSH8 0xFFFFFFFFFFFFFFFF DUP2 GT ISZERO PUSH2 0x6E1 JUMPI PUSH2 0x6E1 PUSH2 0x1C9D JUMP JUMPDEST PUSH1 0x40 MLOAD SWAP1 DUP1 DUP3 MSTORE DUP1 PUSH1 0x20 MUL PUSH1 0x20 ADD DUP3 ADD PUSH1 0x40 MSTORE DUP1 ISZERO PUSH2 0x70A JUMPI DUP2 PUSH1 0x20 ADD PUSH1 0x20 DUP3 MUL DUP1 CALLDATASIZE DUP4 CALLDATACOPY ADD SWAP1 POP JUMPDEST POP SWAP5 POP DUP1 PUSH8 0xFFFFFFFFFFFFFFFF DUP2 GT ISZERO PUSH2 0x726 JUMPI PUSH2 0x726 PUSH2 0x1C9D JUMP JUMPDEST PUSH1 0x40 MLOAD SWAP1 DUP1 DUP3 MSTORE DUP1 PUSH1 0x20 MUL PUSH1 0x20 ADD DUP3 ADD PUSH1 0x40 MSTORE DUP1 ISZERO PUSH2 0x74F JUMPI DUP2 PUSH1 0x20 ADD PUSH1 0x20 DUP3 MUL DUP1 CALLDATASIZE DUP4 CALLDATACOPY ADD SWAP1 POP JUMPDEST POP SWAP4 POP PUSH1 0x0 DUP1 JUMPDEST DUP4 MLOAD DUP2 LT ISZERO PUSH2 0x845 JUMPI PUSH1 0x0 DUP5 DUP3 DUP2 MLOAD DUP2 LT PUSH2 0x773 JUMPI PUSH2 0x773 PUSH2 0x220F JUMP JUMPDEST PUSH1 0x20 SWAP1 DUP2 MUL SWAP2 SWAP1 SWAP2 ADD DUP2 ADD MLOAD PUSH1 0x0 DUP9 DUP2 MSTORE PUSH1 0x8 DUP4 MSTORE PUSH1 0x40 DUP1 DUP3 KECCAK256 PUSH1 0x1 PUSH1 0x1 PUSH1 0xA0 SHL SUB DUP5 AND DUP4 MSTORE SWAP1 SWAP4 MSTORE SWAP2 SWAP1 SWAP2 KECCAK256 SLOAD SWAP1 SWAP2 POP PUSH1 0xFF AND DUP1 ISZERO PUSH2 0x7BC JUMPI POP PUSH1 0x0 PUSH2 0x7BA DUP3 DUP9 PUSH2 0x396 JUMP JUMPDEST GT JUMPDEST ISZERO PUSH2 0x83C JUMPI DUP1 DUP9 DUP5 DUP2 MLOAD DUP2 LT PUSH2 0x7D4 JUMPI PUSH2 0x7D4 PUSH2 0x220F JUMP JUMPDEST PUSH1 0x1 PUSH1 0x1 PUSH1 0xA0 SHL SUB SWAP3 DUP4 AND PUSH1 0x20 SWAP2 DUP3 MUL SWAP3 SWAP1 SWAP3 ADD DUP2 ADD SWAP2 SWAP1 SWAP2 MSTORE SWAP1 DUP3 AND PUSH1 0x0 SWAP1 DUP2 MSTORE PUSH1 0x6 DUP3 MSTORE PUSH1 0x40 DUP1 DUP3 KECCAK256 DUP10 DUP4 MSTORE SWAP1 SWAP3 MSTORE KECCAK256 SLOAD PUSH2 0x811 SWAP1 NUMBER PUSH2 0x2267 JUMP JUMPDEST DUP8 DUP5 DUP2 MLOAD DUP2 LT PUSH2 0x823 JUMPI PUSH2 0x823 PUSH2 0x220F JUMP JUMPDEST PUSH1 0x20 SWAP1 DUP2 MUL SWAP2 SWAP1 SWAP2 ADD ADD MSTORE DUP3 PUSH2 0x838 DUP2 PUSH2 0x224E JUMP JUMPDEST SWAP4 POP POP JUMPDEST POP PUSH1 0x1 ADD PUSH2 0x756 JUMP JUMPDEST POP POP POP POP POP SWAP3 POP SWAP3 SWAP1 POP JUMP JUMPDEST PUSH2 0x859 PUSH2 0x12BE JUMP JUMPDEST PUSH1 0x0 DUP4 PUSH2 0xFFFF AND GT DUP1 ISZERO PUSH2 0x872 JUMPI POP PUSH1 0xD8 DUP4 PUSH2 0xFFFF AND GT ISZERO JUMPDEST PUSH2 0x8AD JUMPI PUSH1 0x40 MLOAD PUSH3 0x461BCD PUSH1 0xE5 SHL DUP2 MSTORE PUSH1 0x20 PUSH1 0x4 DUP3 ADD MSTORE PUSH1 0xC PUSH1 0x24 DUP3 ADD MSTORE PUSH12 0x496E76616C69642043756265 PUSH1 0xA0 SHL PUSH1 0x44 DUP3 ADD MSTORE PUSH1 0x64 ADD PUSH2 0x4AB JUMP JUMPDEST PUSH1 0x0 DUP2 PUSH2 0x8BE JUMPI DUP4 PUSH2 0xFFFF AND PUSH2 0x8CD JUMP JUMPDEST PUSH2 0x8CD PUSH2 0xFFFF DUP6 AND PUSH1 0xD8 PUSH2 0x223B JUMP JUMPDEST SWAP1 POP PUSH1 0x0 PUSH2 0x8E3 PUSH8 0x8AC7230489E80000 DUP6 PUSH2 0x227A JUMP JUMPDEST PUSH1 0x40 MLOAD PUSH4 0x23B872DD PUSH1 0xE0 SHL DUP2 MSTORE CALLER PUSH1 0x4 DUP3 ADD MSTORE ADDRESS PUSH1 0x24 DUP3 ADD MSTORE PUSH1 0x44 DUP2 ADD DUP3 SWAP1 MSTORE SWAP1 SWAP2 POP PUSH32 0x0 PUSH1 0x1 PUSH1 0x1 PUSH1 0xA0 SHL SUB AND SWAP1 PUSH4 0x23B872DD SWAP1 PUSH1 0x64 ADD PUSH1 0x20 PUSH1 0x40 MLOAD DUP1 DUP4 SUB DUP2 PUSH1 0x0 DUP8 GAS CALL ISZERO DUP1 ISZERO PUSH2 0x959 JUMPI RETURNDATASIZE PUSH1 0x0 DUP1 RETURNDATACOPY RETURNDATASIZE PUSH1 0x0 REVERT JUMPDEST POP POP POP POP PUSH1 0x40 MLOAD RETURNDATASIZE PUSH1 0x1F NOT PUSH1 0x1F DUP3 ADD AND DUP3 ADD DUP1 PUSH1 0x40 MSTORE POP DUP2 ADD SWAP1 PUSH2 0x97D SWAP2 SWAP1 PUSH2 0x2291 JUMP JUMPDEST PUSH2 0x9C0 JUMPI PUSH1 0x40 MLOAD PUSH3 0x461BCD PUSH1 0xE5 SHL DUP2 MSTORE PUSH1 0x20 PUSH1 0x4 DUP3 ADD MSTORE PUSH1 0x14 PUSH1 0x24 DUP3 ADD MSTORE PUSH20 0x14DC185DDB8814185E5B595B9D0811985A5B1959 PUSH1 0x62 SHL PUSH1 0x44 DUP3 ADD MSTORE PUSH1 0x64 ADD PUSH2 0x4AB JUMP JUMPDEST PUSH2 0x2710 PUSH2 0x9CF PUSH2 0x2476 DUP4 PUSH2 0x227A JUMP JUMPDEST PUSH2 0x9D9 SWAP2 SWAP1 PUSH2 0x22C4 JUMP JUMPDEST PUSH1 0x5 PUSH1 0x0 DUP3 DUP3 SLOAD PUSH2 0x9EA SWAP2 SWAP1 PUSH2 0x223B JUMP JUMPDEST SWAP3 POP POP DUP2 SWAP1 SSTORE POP PUSH2 0xA0C CALLER DUP4 DUP7 PUSH1 0x40 MLOAD DUP1 PUSH1 0x20 ADD PUSH1 0x40 MSTORE DUP1 PUSH1 0x0 DUP2 MSTORE POP PUSH2 0x12E8 JUMP JUMPDEST CALLER PUSH1 0x0 DUP2 DUP2 MSTORE PUSH1 0x6 PUSH1 0x20 SWAP1 DUP2 MSTORE PUSH1 0x40 DUP1 DUP4 KECCAK256 DUP7 DUP5 MSTORE SWAP1 SWAP2 MSTORE SWAP1 KECCAK256 NUMBER SWAP1 SSTORE PUSH2 0xA34 SWAP1 DUP4 SWAP1 PUSH2 0x1345 JUMP JUMPDEST PUSH1 0x40 MLOAD DUP5 DUP2 MSTORE DUP3 SWAP1 CALLER SWAP1 PUSH32 0xD5FD522CBCC1631FC34044A6A2D3242ADB07FB2D862B28F5215AD524DDE67634 SWAP1 PUSH1 0x20 ADD PUSH1 0x40 MLOAD DUP1 SWAP2 SUB SWAP1 LOG3 POP POP PUSH2 0xA77 PUSH1 0x1 PUSH1 0x3 SSTORE JUMP JUMPDEST POP POP POP JUMP JUMPDEST PUSH1 0x0 DUP4 PUSH2 0xFFFF AND GT DUP1 ISZERO PUSH2 0xA95 JUMPI POP PUSH1 0xD8 DUP4 PUSH2 0xFFFF AND GT ISZERO JUMPDEST PUSH2 0xAD7 JUMPI PUSH1 0x40 MLOAD PUSH3 0x461BCD PUSH1 0xE5 SHL DUP2 MSTORE PUSH1 0x20 PUSH1 0x4 DUP3 ADD MSTORE PUSH1 0x13 PUSH1 0x24 DUP3 ADD MSTORE PUSH19 0x496E76616C6964205461726765742043756265 PUSH1 0x68 SHL PUSH1 0x44 DUP3 ADD MSTORE PUSH1 0x64 ADD PUSH2 0x4AB JUMP JUMPDEST PUSH2 0xAE1 DUP5 DUP5 PUSH2 0x13CB JUMP JUMPDEST PUSH2 0xB3B JUMPI PUSH1 0x40 MLOAD PUSH3 0x461BCD PUSH1 0xE5 SHL DUP2 MSTORE PUSH1 0x20 PUSH1 0x4 DUP3 ADD MSTORE PUSH1 0x25 PUSH1 0x24 DUP3 ADD MSTORE PUSH32 0x4D6F76656D656E74207265737472696374656420746F2061646A6163656E7420 PUSH1 0x44 DUP3 ADD MSTORE PUSH5 0x6375626573 PUSH1 0xD8 SHL PUSH1 0x64 DUP3 ADD MSTORE PUSH1 0x84 ADD PUSH2 0x4AB JUMP JUMPDEST PUSH1 0x0 DUP2 PUSH2 0xB4C JUMPI DUP5 PUSH2 0xFFFF AND PUSH2 0xB5B JUMP JUMPDEST PUSH2 0xB5B PUSH2 0xFFFF DUP7 AND PUSH1 0xD8 PUSH2 0x223B JUMP JUMPDEST SWAP1 POP PUSH1 0x0 DUP3 PUSH2 0xB6E JUMPI DUP5 PUSH2 0xFFFF AND PUSH2 0xB7D JUMP JUMPDEST PUSH2 0xB7D PUSH2 0xFFFF DUP7 AND PUSH1 0xD8 PUSH2 0x223B JUMP JUMPDEST SWAP1 POP PUSH2 0xB9B CALLER CALLER DUP5 DUP8 PUSH1 0x40 MLOAD DUP1 PUSH1 0x20 ADD PUSH1 0x40 MSTORE DUP1 PUSH1 0x0 DUP2 MSTORE POP PUSH2 0x152C JUMP JUMPDEST CALLER PUSH1 0x0 DUP2 DUP2 MSTORE PUSH1 0x6 PUSH1 0x20 SWAP1 DUP2 MSTORE PUSH1 0x40 DUP1 DUP4 KECCAK256 DUP6 DUP5 MSTORE SWAP1 SWAP2 MSTORE SWAP1 KECCAK256 NUMBER SWAP1 SSTORE PUSH2 0xBC2 SWAP1 DUP4 PUSH2 0x396 JUMP JUMPDEST PUSH1 0x0 SUB PUSH2 0xBEB JUMPI PUSH1 0x0 DUP3 DUP2 MSTORE PUSH1 0x8 PUSH1 0x20 SWAP1 DUP2 MSTORE PUSH1 0x40 DUP1 DUP4 KECCAK256 CALLER DUP5 MSTORE SWAP1 SWAP2 MSTORE SWAP1 KECCAK256 DUP1 SLOAD PUSH1 0xFF NOT AND SWAP1 SSTORE JUMPDEST PUSH2 0xBF5 DUP2 CALLER PUSH2 0x1345 JUMP JUMPDEST PUSH1 0x40 DUP1 MLOAD DUP4 DUP2 MSTORE PUSH1 0x20 DUP2 ADD DUP4 SWAP1 MSTORE SWAP1 DUP2 ADD DUP6 SWAP1 MSTORE CALLER SWAP1 PUSH32 0xD90667FC01AB4BC3EACBFAFD214B4EC561704309A60F0430B09107EA38702B17 SWAP1 PUSH1 0x60 ADD PUSH1 0x40 MLOAD DUP1 SWAP2 SUB SWAP1 LOG2 POP POP POP POP POP POP JUMP JUMPDEST PUSH2 0xC48 PUSH2 0x15BA JUMP JUMPDEST PUSH2 0xC52 PUSH1 0x0 PUSH2 0x15E7 JUMP JUMPDEST JUMP JUMPDEST PUSH1 0x0 PUSH2 0xC5E PUSH2 0x12BE JUMP JUMPDEST PUSH1 0x0 DUP3 PUSH2 0xC6F JUMPI DUP5 PUSH2 0xFFFF AND PUSH2 0xC7E JUMP JUMPDEST PUSH2 0xC7E PUSH2 0xFFFF DUP7 AND PUSH1 0xD8 PUSH2 0x223B JUMP JUMPDEST SWAP1 POP PUSH1 0x0 DUP4 PUSH2 0xC97 JUMPI PUSH2 0xC92 DUP6 PUSH1 0x2 PUSH2 0x227A JUMP JUMPDEST PUSH2 0xCA3 JUMP JUMPDEST PUSH2 0xCA3 PUSH2 0x29A DUP7 PUSH2 0x227A JUMP JUMPDEST SWAP1 POP DUP1 PUSH2 0xCB0 CALLER DUP5 PUSH2 0x396 JUMP JUMPDEST LT ISZERO PUSH2 0xCF3 JUMPI PUSH1 0x40 MLOAD PUSH3 0x461BCD PUSH1 0xE5 SHL DUP2 MSTORE PUSH1 0x20 PUSH1 0x4 DUP3 ADD MSTORE PUSH1 0x12 PUSH1 0x24 DUP3 ADD MSTORE PUSH18 0x496E73756666696369656E7420466F726365 PUSH1 0x70 SHL PUSH1 0x44 DUP3 ADD MSTORE PUSH1 0x64 ADD PUSH2 0x4AB JUMP JUMPDEST DUP5 PUSH2 0xCFE DUP9 DUP5 PUSH2 0x396 JUMP JUMPDEST LT ISZERO PUSH2 0xD45 JUMPI PUSH1 0x40 MLOAD PUSH3 0x461BCD PUSH1 0xE5 SHL DUP2 MSTORE PUSH1 0x20 PUSH1 0x4 DUP3 ADD MSTORE PUSH1 0x16 PUSH1 0x24 DUP3 ADD MSTORE PUSH22 0x15185C99D95D081CDD1858DAC81D1BDBC81CDB585B1B PUSH1 0x52 SHL PUSH1 0x44 DUP3 ADD MSTORE PUSH1 0x64 ADD PUSH2 0x4AB JUMP JUMPDEST PUSH1 0x0 PUSH2 0xD51 DUP9 DUP5 PUSH2 0x111F JUMP JUMPDEST SWAP1 POP PUSH1 0x0 DUP6 PUSH2 0xD60 JUMPI DUP7 PUSH2 0xD6B JUMP JUMPDEST PUSH2 0xD6B PUSH1 0x42 DUP9 PUSH2 0x227A JUMP JUMPDEST SWAP1 POP PUSH2 0xD78 DUP10 DUP6 DUP10 PUSH2 0x1639 JUMP JUMPDEST PUSH2 0xD83 CALLER DUP6 DUP4 PUSH2 0x1639 JUMP JUMPDEST PUSH2 0xD8D DUP10 DUP6 PUSH2 0x396 JUMP JUMPDEST PUSH1 0x0 SUB PUSH2 0xDBF JUMPI PUSH1 0x0 DUP5 DUP2 MSTORE PUSH1 0x8 PUSH1 0x20 SWAP1 DUP2 MSTORE PUSH1 0x40 DUP1 DUP4 KECCAK256 PUSH1 0x1 PUSH1 0x1 PUSH1 0xA0 SHL SUB DUP14 AND DUP5 MSTORE SWAP1 SWAP2 MSTORE SWAP1 KECCAK256 DUP1 SLOAD PUSH1 0xFF NOT AND SWAP1 SSTORE JUMPDEST PUSH1 0x0 PUSH2 0x2710 PUSH2 0xDD0 PUSH2 0x29A DUP6 PUSH2 0x227A JUMP JUMPDEST PUSH2 0xDDA SWAP2 SWAP1 PUSH2 0x22C4 JUMP JUMPDEST SWAP1 POP PUSH2 0xDE6 DUP2 DUP5 PUSH2 0x2267 JUMP JUMPDEST SWAP6 POP DUP3 PUSH1 0x5 PUSH1 0x0 DUP3 DUP3 SLOAD PUSH2 0xDFA SWAP2 SWAP1 PUSH2 0x2267 JUMP JUMPDEST SWAP1 SWAP2 SSTORE POP POP PUSH1 0x40 MLOAD PUSH4 0xA9059CBB PUSH1 0xE0 SHL DUP2 MSTORE CALLER PUSH1 0x4 DUP3 ADD MSTORE PUSH1 0x24 DUP2 ADD DUP8 SWAP1 MSTORE PUSH32 0x0 PUSH1 0x1 PUSH1 0x1 PUSH1 0xA0 SHL SUB AND SWAP1 PUSH4 0xA9059CBB SWAP1 PUSH1 0x44 ADD PUSH1 0x20 PUSH1 0x40 MLOAD DUP1 DUP4 SUB DUP2 PUSH1 0x0 DUP8 GAS CALL ISZERO DUP1 ISZERO PUSH2 0xE6C JUMPI RETURNDATASIZE PUSH1 0x0 DUP1 RETURNDATACOPY RETURNDATASIZE PUSH1 0x0 REVERT JUMPDEST POP POP POP POP PUSH1 0x40 MLOAD RETURNDATASIZE PUSH1 0x1F NOT PUSH1 0x1F DUP3 ADD AND DUP3 ADD DUP1 PUSH1 0x40 MSTORE POP DUP2 ADD SWAP1 PUSH2 0xE90 SWAP2 SWAP1 PUSH2 0x2291 JUMP JUMPDEST PUSH2 0xED5 JUMPI PUSH1 0x40 MLOAD PUSH3 0x461BCD PUSH1 0xE5 SHL DUP2 MSTORE PUSH1 0x20 PUSH1 0x4 DUP3 ADD MSTORE PUSH1 0x16 PUSH1 0x24 DUP3 ADD MSTORE PUSH22 0x109BDD5B9D1E48151C985B9CD9995C8811985A5B1959 PUSH1 0x52 SHL PUSH1 0x44 DUP3 ADD MSTORE PUSH1 0x64 ADD PUSH2 0x4AB JUMP JUMPDEST PUSH1 0x40 DUP1 MLOAD DUP7 DUP2 MSTORE PUSH1 0x20 DUP2 ADD DUP11 SWAP1 MSTORE SWAP1 DUP2 ADD DUP8 SWAP1 MSTORE PUSH1 0x1 PUSH1 0x1 PUSH1 0xA0 SHL SUB DUP12 AND SWAP1 CALLER SWAP1 PUSH32 0x3A0F8FF9630DDEA131E18C99EEA14235D84CB8EAE4E672CCE74D13AA37A4B177 SWAP1 PUSH1 0x60 ADD PUSH1 0x40 MLOAD DUP1 SWAP2 SUB SWAP1 LOG3 POP POP POP POP POP PUSH2 0xF32 PUSH1 0x1 PUSH1 0x3 SSTORE JUMP JUMPDEST SWAP5 SWAP4 POP POP POP POP JUMP JUMPDEST PUSH2 0xF42 PUSH2 0x15BA JUMP JUMPDEST PUSH1 0x40 MLOAD PUSH4 0x70A08231 PUSH1 0xE0 SHL DUP2 MSTORE ADDRESS PUSH1 0x4 DUP3 ADD MSTORE PUSH32 0x0 PUSH1 0x1 PUSH1 0x1 PUSH1 0xA0 SHL SUB AND SWAP1 PUSH4 0x70A08231 SWAP1 PUSH1 0x24 ADD PUSH1 0x20 PUSH1 0x40 MLOAD DUP1 DUP4 SUB DUP2 DUP7 GAS STATICCALL ISZERO DUP1 ISZERO PUSH2 0xFA6 JUMPI RETURNDATASIZE PUSH1 0x0 DUP1 RETURNDATACOPY RETURNDATASIZE PUSH1 0x0 REVERT JUMPDEST POP POP POP POP PUSH1 0x40 MLOAD RETURNDATASIZE PUSH1 0x1F NOT PUSH1 0x1F DUP3 ADD AND DUP3 ADD DUP1 PUSH1 0x40 MSTORE POP DUP2 ADD SWAP1 PUSH2 0xFCA SWAP2 SWAP1 PUSH2 0x22D8 JUMP JUMPDEST DUP2 GT ISZERO PUSH2 0x1010 JUMPI PUSH1 0x40 MLOAD PUSH3 0x461BCD PUSH1 0xE5 SHL DUP2 MSTORE PUSH1 0x20 PUSH1 0x4 DUP3 ADD MSTORE PUSH1 0x14 PUSH1 0x24 DUP3 ADD MSTORE PUSH20 0x496E73756666696369656E742062616C616E6365 PUSH1 0x60 SHL PUSH1 0x44 DUP3 ADD MSTORE PUSH1 0x64 ADD PUSH2 0x4AB JUMP JUMPDEST PUSH1 0x40 MLOAD PUSH4 0xA9059CBB PUSH1 0xE0 SHL DUP2 MSTORE CALLER PUSH1 0x4 DUP3 ADD MSTORE PUSH1 0x24 DUP2 ADD DUP3 SWAP1 MSTORE PUSH32 0x0 PUSH1 0x1 PUSH1 0x1 PUSH1 0xA0 SHL SUB AND SWAP1 PUSH4 0xA9059CBB SWAP1 PUSH1 0x44 ADD PUSH1 0x20 PUSH1 0x40 MLOAD DUP1 DUP4 SUB DUP2 PUSH1 0x0 DUP8 GAS CALL ISZERO DUP1 ISZERO PUSH2 0x107D JUMPI RETURNDATASIZE PUSH1 0x0 DUP1 RETURNDATACOPY RETURNDATASIZE PUSH1 0x0 REVERT JUMPDEST POP POP POP POP PUSH1 0x40 MLOAD RETURNDATASIZE PUSH1 0x1F NOT PUSH1 0x1F DUP3 ADD AND DUP3 ADD DUP1 PUSH1 0x40 MSTORE POP DUP2 ADD SWAP1 PUSH2 0x10A1 SWAP2 SWAP1 PUSH2 0x2291 JUMP JUMPDEST PUSH2 0x10DF JUMPI PUSH1 0x40 MLOAD PUSH3 0x461BCD PUSH1 0xE5 SHL DUP2 MSTORE PUSH1 0x20 PUSH1 0x4 DUP3 ADD MSTORE PUSH1 0xF PUSH1 0x24 DUP3 ADD MSTORE PUSH15 0x151C985B9CD9995C8819985A5B1959 PUSH1 0x8A SHL PUSH1 0x44 DUP3 ADD MSTORE PUSH1 0x64 ADD PUSH2 0x4AB JUMP JUMPDEST POP JUMP JUMPDEST PUSH2 0x10ED CALLER DUP4 DUP4 PUSH2 0x16A1 JUMP JUMPDEST POP POP JUMP JUMPDEST PUSH1 0x1 PUSH1 0x1 PUSH1 0xA0 SHL SUB SWAP2 DUP3 AND PUSH1 0x0 SWAP1 DUP2 MSTORE PUSH1 0x1 PUSH1 0x20 SWAP1 DUP2 MSTORE PUSH1 0x40 DUP1 DUP4 KECCAK256 SWAP4 SWAP1 SWAP5 AND DUP3 MSTORE SWAP2 SWAP1 SWAP2 MSTORE KECCAK256 SLOAD PUSH1 0xFF AND SWAP1 JUMP JUMPDEST PUSH1 0x1 PUSH1 0x1 PUSH1 0xA0 SHL SUB DUP3 AND PUSH1 0x0 SWAP1 DUP2 MSTORE PUSH1 0x6 PUSH1 0x20 SWAP1 DUP2 MSTORE PUSH1 0x40 DUP1 DUP4 KECCAK256 DUP5 DUP5 MSTORE SWAP1 SWAP2 MSTORE DUP2 KECCAK256 SLOAD DUP2 SWAP1 PUSH2 0x114F SWAP1 NUMBER PUSH2 0x2267 JUMP JUMPDEST SWAP1 POP PUSH3 0xF4240 DUP2 PUSH1 0x5 SLOAD PUSH2 0x1163 SWAP2 SWAP1 PUSH2 0x227A JUMP JUMPDEST PUSH2 0xF32 SWAP2 SWAP1 PUSH2 0x22C4 JUMP JUMPDEST CALLER PUSH1 0x1 PUSH1 0x1 PUSH1 0xA0 SHL SUB DUP7 AND DUP2 EQ DUP1 ISZERO SWAP1 PUSH2 0x118E JUMPI POP PUSH2 0x118C DUP7 DUP3 PUSH2 0x10F1 JUMP JUMPDEST ISZERO JUMPDEST ISZERO PUSH2 0x11BF JUMPI PUSH1 0x40 MLOAD PUSH4 0x711BEC91 PUSH1 0xE1 SHL DUP2 MSTORE PUSH1 0x1 PUSH1 0x1 PUSH1 0xA0 SHL SUB DUP1 DUP4 AND PUSH1 0x4 DUP4 ADD MSTORE DUP8 AND PUSH1 0x24 DUP3 ADD MSTORE PUSH1 0x44 ADD PUSH2 0x4AB JUMP JUMPDEST PUSH2 0x4C1 DUP7 DUP7 DUP7 DUP7 DUP7 PUSH2 0x152C JUMP JUMPDEST PUSH2 0x11D4 PUSH2 0x15BA JUMP JUMPDEST PUSH1 0x1 PUSH1 0x1 PUSH1 0xA0 SHL SUB DUP2 AND PUSH2 0x11FE JUMPI PUSH1 0x40 MLOAD PUSH4 0x1E4FBDF7 PUSH1 0xE0 SHL DUP2 MSTORE PUSH1 0x0 PUSH1 0x4 DUP3 ADD MSTORE PUSH1 0x24 ADD PUSH2 0x4AB JUMP JUMPDEST PUSH2 0x10DF DUP2 PUSH2 0x15E7 JUMP JUMPDEST PUSH1 0x0 PUSH1 0x1 PUSH1 0x1 PUSH1 0xE0 SHL SUB NOT DUP3 AND PUSH4 0x6CDB3D13 PUSH1 0xE1 SHL EQ DUP1 PUSH2 0x1238 JUMPI POP PUSH1 0x1 PUSH1 0x1 PUSH1 0xE0 SHL SUB NOT DUP3 AND PUSH4 0x3A24D07 PUSH1 0xE2 SHL EQ JUMPDEST DUP1 PUSH2 0x3B8 JUMPI POP PUSH4 0x1FFC9A7 PUSH1 0xE0 SHL PUSH1 0x1 PUSH1 0x1 PUSH1 0xE0 SHL SUB NOT DUP4 AND EQ PUSH2 0x3B8 JUMP JUMPDEST PUSH1 0x1 PUSH1 0x1 PUSH1 0xA0 SHL SUB DUP5 AND PUSH2 0x1281 JUMPI PUSH1 0x40 MLOAD PUSH4 0x2BFA23E7 PUSH1 0xE1 SHL DUP2 MSTORE PUSH1 0x0 PUSH1 0x4 DUP3 ADD MSTORE PUSH1 0x24 ADD PUSH2 0x4AB JUMP JUMPDEST PUSH1 0x1 PUSH1 0x1 PUSH1 0xA0 SHL SUB DUP6 AND PUSH2 0x12AA JUMPI PUSH1 0x40 MLOAD PUSH3 0x6A0D45 PUSH1 0xE2 SHL DUP2 MSTORE PUSH1 0x0 PUSH1 0x4 DUP3 ADD MSTORE PUSH1 0x24 ADD PUSH2 0x4AB JUMP JUMPDEST PUSH2 0x12B7 DUP6 DUP6 DUP6 DUP6 DUP6 PUSH2 0x1737 JUMP JUMPDEST POP POP POP POP POP JUMP JUMPDEST PUSH1 0x2 PUSH1 0x3 SLOAD SUB PUSH2 0x12E1 JUMPI PUSH1 0x40 MLOAD PUSH4 0x3EE5AEB5 PUSH1 0xE0 SHL DUP2 MSTORE PUSH1 0x4 ADD PUSH1 0x40 MLOAD DUP1 SWAP2 SUB SWAP1 REVERT JUMPDEST PUSH1 0x2 PUSH1 0x3 SSTORE JUMP JUMPDEST PUSH1 0x1 PUSH1 0x1 PUSH1 0xA0 SHL SUB DUP5 AND PUSH2 0x1312 JUMPI PUSH1 0x40 MLOAD PUSH4 0x2BFA23E7 PUSH1 0xE1 SHL DUP2 MSTORE PUSH1 0x0 PUSH1 0x4 DUP3 ADD MSTORE PUSH1 0x24 ADD PUSH2 0x4AB JUMP JUMPDEST PUSH1 0x40 DUP1 MLOAD PUSH1 0x1 DUP1 DUP3 MSTORE PUSH1 0x20 DUP3 ADD DUP7 SWAP1 MSTORE DUP2 DUP4 ADD SWAP1 DUP2 MSTORE PUSH1 0x60 DUP3 ADD DUP6 SWAP1 MSTORE PUSH1 0x80 DUP3 ADD SWAP1 SWAP3 MSTORE SWAP1 PUSH2 0x4C1 PUSH1 0x0 DUP8 DUP5 DUP5 DUP8 PUSH2 0x1737 JUMP JUMPDEST PUSH1 0x0 DUP3 DUP2 MSTORE PUSH1 0x8 PUSH1 0x20 SWAP1 DUP2 MSTORE PUSH1 0x40 DUP1 DUP4 KECCAK256 PUSH1 0x1 PUSH1 0x1 PUSH1 0xA0 SHL SUB DUP6 AND DUP5 MSTORE SWAP1 SWAP2 MSTORE SWAP1 KECCAK256 SLOAD PUSH1 0xFF AND PUSH2 0x10ED JUMPI PUSH1 0x0 DUP3 DUP2 MSTORE PUSH1 0x7 PUSH1 0x20 SWAP1 DUP2 MSTORE PUSH1 0x40 DUP1 DUP4 KECCAK256 DUP1 SLOAD PUSH1 0x1 DUP1 DUP3 ADD DUP4 SSTORE SWAP2 DUP6 MSTORE DUP4 DUP6 KECCAK256 ADD DUP1 SLOAD PUSH1 0x1 PUSH1 0x1 PUSH1 0xA0 SHL SUB NOT AND PUSH1 0x1 PUSH1 0x1 PUSH1 0xA0 SHL SUB SWAP7 SWAP1 SWAP7 AND SWAP6 DUP7 OR SWAP1 SSTORE SWAP5 DUP4 MSTORE PUSH1 0x8 DUP3 MSTORE DUP1 DUP4 KECCAK256 SWAP4 DUP4 MSTORE SWAP3 SWAP1 MSTORE KECCAK256 DUP1 SLOAD PUSH1 0xFF NOT AND SWAP1 SWAP2 OR SWAP1 SSTORE JUMP JUMPDEST PUSH1 0x0 DUP2 PUSH2 0xFFFF AND DUP4 PUSH2 0xFFFF AND EQ DUP1 PUSH2 0x13E5 JUMPI POP PUSH2 0xFFFF DUP4 AND ISZERO JUMPDEST DUP1 PUSH2 0x13F2 JUMPI POP PUSH2 0xFFFF DUP3 AND ISZERO JUMPDEST ISZERO PUSH2 0x13FF JUMPI POP PUSH1 0x0 PUSH2 0x3B8 JUMP JUMPDEST PUSH1 0x0 PUSH2 0x140C PUSH1 0x1 DUP6 PUSH2 0x22F1 JUMP JUMPDEST SWAP1 POP PUSH1 0x0 PUSH2 0x141B PUSH1 0x1 DUP6 PUSH2 0x22F1 JUMP JUMPDEST SWAP1 POP PUSH1 0x0 PUSH2 0x142A PUSH1 0x6 DUP5 PUSH2 0x2313 JUMP JUMPDEST SWAP1 POP PUSH1 0x0 PUSH1 0x6 PUSH2 0x143A DUP2 DUP7 PUSH2 0x2334 JUMP JUMPDEST PUSH2 0x1444 SWAP2 SWAP1 PUSH2 0x2313 JUMP JUMPDEST SWAP1 POP PUSH1 0x0 PUSH2 0x1453 PUSH1 0x24 DUP7 PUSH2 0x2334 JUMP JUMPDEST SWAP1 POP PUSH1 0x0 PUSH2 0x1462 PUSH1 0x6 DUP7 PUSH2 0x2313 JUMP JUMPDEST SWAP1 POP PUSH1 0x0 PUSH1 0x6 PUSH2 0x1472 DUP2 DUP9 PUSH2 0x2334 JUMP JUMPDEST PUSH2 0x147C SWAP2 SWAP1 PUSH2 0x2313 JUMP JUMPDEST SWAP1 POP PUSH1 0x0 PUSH2 0x148B PUSH1 0x24 DUP9 PUSH2 0x2334 JUMP JUMPDEST SWAP1 POP PUSH1 0x0 DUP2 PUSH1 0x1 SIGNEXTEND DUP6 PUSH1 0x1 SIGNEXTEND SGT PUSH2 0x14AB JUMPI PUSH2 0x14A6 DUP6 DUP4 PUSH2 0x2355 JUMP JUMPDEST PUSH2 0x14B5 JUMP JUMPDEST PUSH2 0x14B5 DUP3 DUP7 PUSH2 0x2355 JUMP JUMPDEST DUP4 PUSH1 0x1 SIGNEXTEND DUP8 PUSH1 0x1 SIGNEXTEND SGT PUSH2 0x14D1 JUMPI PUSH2 0x14CC DUP8 DUP6 PUSH2 0x2355 JUMP JUMPDEST PUSH2 0x14DB JUMP JUMPDEST PUSH2 0x14DB DUP5 DUP9 PUSH2 0x2355 JUMP JUMPDEST DUP6 PUSH1 0x1 SIGNEXTEND DUP10 PUSH1 0x1 SIGNEXTEND SGT PUSH2 0x14F7 JUMPI PUSH2 0x14F2 DUP10 DUP8 PUSH2 0x2355 JUMP JUMPDEST PUSH2 0x1501 JUMP JUMPDEST PUSH2 0x1501 DUP7 DUP11 PUSH2 0x2355 JUMP JUMPDEST PUSH2 0x150B SWAP2 SWAP1 PUSH2 0x2378 JUMP JUMPDEST PUSH2 0x1515 SWAP2 SWAP1 PUSH2 0x2378 JUMP JUMPDEST PUSH2 0xFFFF AND PUSH1 0x1 EQ SWAP13 SWAP12 POP POP POP POP POP POP POP POP POP POP POP POP JUMP JUMPDEST PUSH1 0x1 PUSH1 0x1 PUSH1 0xA0 SHL SUB DUP5 AND PUSH2 0x1556 JUMPI PUSH1 0x40 MLOAD PUSH4 0x2BFA23E7 PUSH1 0xE1 SHL DUP2 MSTORE PUSH1 0x0 PUSH1 0x4 DUP3 ADD MSTORE PUSH1 0x24 ADD PUSH2 0x4AB JUMP JUMPDEST PUSH1 0x1 PUSH1 0x1 PUSH1 0xA0 SHL SUB DUP6 AND PUSH2 0x157F JUMPI PUSH1 0x40 MLOAD PUSH3 0x6A0D45 PUSH1 0xE2 SHL DUP2 MSTORE PUSH1 0x0 PUSH1 0x4 DUP3 ADD MSTORE PUSH1 0x24 ADD PUSH2 0x4AB JUMP JUMPDEST PUSH1 0x40 DUP1 MLOAD PUSH1 0x1 DUP1 DUP3 MSTORE PUSH1 0x20 DUP3 ADD DUP7 SWAP1 MSTORE DUP2 DUP4 ADD SWAP1 DUP2 MSTORE PUSH1 0x60 DUP3 ADD DUP6 SWAP1 MSTORE PUSH1 0x80 DUP3 ADD SWAP1 SWAP3 MSTORE SWAP1 PUSH2 0x15B1 DUP8 DUP8 DUP5 DUP5 DUP8 PUSH2 0x1737 JUMP JUMPDEST POP POP POP POP POP POP POP JUMP JUMPDEST PUSH1 0x4 SLOAD PUSH1 0x1 PUSH1 0x1 PUSH1 0xA0 SHL SUB AND CALLER EQ PUSH2 0xC52 JUMPI PUSH1 0x40 MLOAD PUSH4 0x118CDAA7 PUSH1 0xE0 SHL DUP2 MSTORE CALLER PUSH1 0x4 DUP3 ADD MSTORE PUSH1 0x24 ADD PUSH2 0x4AB JUMP JUMPDEST PUSH1 0x4 DUP1 SLOAD PUSH1 0x1 PUSH1 0x1 PUSH1 0xA0 SHL SUB DUP4 DUP2 AND PUSH1 0x1 PUSH1 0x1 PUSH1 0xA0 SHL SUB NOT DUP4 AND DUP2 OR SWAP1 SWAP4 SSTORE PUSH1 0x40 MLOAD SWAP2 AND SWAP2 SWAP1 DUP3 SWAP1 PUSH32 0x8BE0079C531659141344CD1FD0A4F28419497F9722A3DAAFE3B4186F6B6457E0 SWAP1 PUSH1 0x0 SWAP1 LOG3 POP POP JUMP JUMPDEST PUSH1 0x1 PUSH1 0x1 PUSH1 0xA0 SHL SUB DUP4 AND PUSH2 0x1662 JUMPI PUSH1 0x40 MLOAD PUSH3 0x6A0D45 PUSH1 0xE2 SHL DUP2 MSTORE PUSH1 0x0 PUSH1 0x4 DUP3 ADD MSTORE PUSH1 0x24 ADD PUSH2 0x4AB JUMP JUMPDEST PUSH1 0x40 DUP1 MLOAD PUSH1 0x1 DUP1 DUP3 MSTORE PUSH1 0x20 DUP3 ADD DUP6 SWAP1 MSTORE DUP2 DUP4 ADD SWAP1 DUP2 MSTORE PUSH1 0x60 DUP3 ADD DUP5 SWAP1 MSTORE PUSH1 0xA0 DUP3 ADD SWAP1 SWAP3 MSTORE PUSH1 0x0 PUSH1 0x80 DUP3 ADD DUP2 DUP2 MSTORE SWAP2 SWAP3 SWAP2 PUSH2 0x12B7 SWAP2 DUP8 SWAP2 DUP6 SWAP1 DUP6 SWAP1 PUSH2 0x1737 JUMP JUMPDEST PUSH1 0x1 PUSH1 0x1 PUSH1 0xA0 SHL SUB DUP3 AND PUSH2 0x16CA JUMPI PUSH1 0x40 MLOAD PUSH3 0xCED3E1 PUSH1 0xE8 SHL DUP2 MSTORE PUSH1 0x0 PUSH1 0x4 DUP3 ADD MSTORE PUSH1 0x24 ADD PUSH2 0x4AB JUMP JUMPDEST PUSH1 0x1 PUSH1 0x1 PUSH1 0xA0 SHL SUB DUP4 DUP2 AND PUSH1 0x0 DUP2 DUP2 MSTORE PUSH1 0x1 PUSH1 0x20 SWAP1 DUP2 MSTORE PUSH1 0x40 DUP1 DUP4 KECCAK256 SWAP5 DUP8 AND DUP1 DUP5 MSTORE SWAP5 DUP3 MSTORE SWAP2 DUP3 SWAP1 KECCAK256 DUP1 SLOAD PUSH1 0xFF NOT AND DUP7 ISZERO ISZERO SWAP1 DUP2 OR SWAP1 SWAP2 SSTORE SWAP2 MLOAD SWAP2 DUP3 MSTORE PUSH32 0x17307EAB39AB6107E8899845AD3D59BD9653F200F220920489CA2B5937696C31 SWAP2 ADD PUSH1 0x40 MLOAD DUP1 SWAP2 SUB SWAP1 LOG3 POP POP POP JUMP JUMPDEST PUSH2 0x1743 DUP6 DUP6 DUP6 DUP6 PUSH2 0x178A JUMP JUMPDEST PUSH1 0x1 PUSH1 0x1 PUSH1 0xA0 SHL SUB DUP5 AND ISZERO PUSH2 0x12B7 JUMPI DUP3 MLOAD CALLER SWAP1 PUSH1 0x1 SUB PUSH2 0x177C JUMPI PUSH1 0x20 DUP5 DUP2 ADD MLOAD SWAP1 DUP5 ADD MLOAD PUSH2 0x1775 DUP4 DUP10 DUP10 DUP6 DUP6 DUP10 PUSH2 0x199E JUMP JUMPDEST POP POP PUSH2 0x4C1 JUMP JUMPDEST PUSH2 0x4C1 DUP2 DUP8 DUP8 DUP8 DUP8 DUP8 PUSH2 0x1AC2 JUMP JUMPDEST DUP1 MLOAD DUP3 MLOAD EQ PUSH2 0x17B9 JUMPI DUP2 MLOAD DUP2 MLOAD PUSH1 0x40 MLOAD PUSH4 0x5B059991 PUSH1 0xE0 SHL DUP2 MSTORE PUSH1 0x4 DUP2 ADD SWAP3 SWAP1 SWAP3 MSTORE PUSH1 0x24 DUP3 ADD MSTORE PUSH1 0x44 ADD PUSH2 0x4AB JUMP JUMPDEST CALLER PUSH1 0x0 JUMPDEST DUP4 MLOAD DUP2 LT ISZERO PUSH2 0x18BF JUMPI PUSH1 0x20 DUP2 DUP2 MUL DUP6 DUP2 ADD DUP3 ADD MLOAD SWAP1 DUP6 ADD SWAP1 SWAP2 ADD MLOAD PUSH1 0x1 PUSH1 0x1 PUSH1 0xA0 SHL SUB DUP9 AND ISZERO PUSH2 0x1870 JUMPI PUSH1 0x0 DUP3 DUP2 MSTORE PUSH1 0x20 DUP2 DUP2 MSTORE PUSH1 0x40 DUP1 DUP4 KECCAK256 PUSH1 0x1 PUSH1 0x1 PUSH1 0xA0 SHL SUB DUP13 AND DUP5 MSTORE SWAP1 SWAP2 MSTORE SWAP1 KECCAK256 SLOAD DUP2 DUP2 LT ISZERO PUSH2 0x1849 JUMPI PUSH1 0x40 MLOAD PUSH4 0x3DEE4C5 PUSH1 0xE0 SHL DUP2 MSTORE PUSH1 0x1 PUSH1 0x1 PUSH1 0xA0 SHL SUB DUP11 AND PUSH1 0x4 DUP3 ADD MSTORE PUSH1 0x24 DUP2 ADD DUP3 SWAP1 MSTORE PUSH1 0x44 DUP2 ADD DUP4 SWAP1 MSTORE PUSH1 0x64 DUP2 ADD DUP5 SWAP1 MSTORE PUSH1 0x84 ADD PUSH2 0x4AB JUMP JUMPDEST PUSH1 0x0 DUP4 DUP2 MSTORE PUSH1 0x20 DUP2 DUP2 MSTORE PUSH1 0x40 DUP1 DUP4 KECCAK256 PUSH1 0x1 PUSH1 0x1 PUSH1 0xA0 SHL SUB DUP14 AND DUP5 MSTORE SWAP1 SWAP2 MSTORE SWAP1 KECCAK256 SWAP1 DUP3 SWAP1 SUB SWAP1 SSTORE JUMPDEST PUSH1 0x1 PUSH1 0x1 PUSH1 0xA0 SHL SUB DUP8 AND ISZERO PUSH2 0x18B5 JUMPI PUSH1 0x0 DUP3 DUP2 MSTORE PUSH1 0x20 DUP2 DUP2 MSTORE PUSH1 0x40 DUP1 DUP4 KECCAK256 PUSH1 0x1 PUSH1 0x1 PUSH1 0xA0 SHL SUB DUP12 AND DUP5 MSTORE SWAP1 SWAP2 MSTORE DUP2 KECCAK256 DUP1 SLOAD DUP4 SWAP3 SWAP1 PUSH2 0x18AF SWAP1 DUP5 SWAP1 PUSH2 0x223B JUMP JUMPDEST SWAP1 SWAP2 SSTORE POP POP JUMPDEST POP POP PUSH1 0x1 ADD PUSH2 0x17BD JUMP JUMPDEST POP DUP3 MLOAD PUSH1 0x1 SUB PUSH2 0x1940 JUMPI PUSH1 0x20 DUP4 ADD MLOAD PUSH1 0x0 SWAP1 PUSH1 0x20 DUP5 ADD MLOAD SWAP1 SWAP2 POP DUP6 PUSH1 0x1 PUSH1 0x1 PUSH1 0xA0 SHL SUB AND DUP8 PUSH1 0x1 PUSH1 0x1 PUSH1 0xA0 SHL SUB AND DUP5 PUSH1 0x1 PUSH1 0x1 PUSH1 0xA0 SHL SUB AND PUSH32 0xC3D58168C5AE7397731D063D5BBF3D657854427343F4C083240F7AACAA2D0F62 DUP6 DUP6 PUSH1 0x40 MLOAD PUSH2 0x1931 SWAP3 SWAP2 SWAP1 SWAP2 DUP3 MSTORE PUSH1 0x20 DUP3 ADD MSTORE PUSH1 0x40 ADD SWAP1 JUMP JUMPDEST PUSH1 0x40 MLOAD DUP1 SWAP2 SUB SWAP1 LOG4 POP POP PUSH2 0x12B7 JUMP JUMPDEST DUP4 PUSH1 0x1 PUSH1 0x1 PUSH1 0xA0 SHL SUB AND DUP6 PUSH1 0x1 PUSH1 0x1 PUSH1 0xA0 SHL SUB AND DUP3 PUSH1 0x1 PUSH1 0x1 PUSH1 0xA0 SHL SUB AND PUSH32 0x4A39DC06D4C0DBC64B70AF90FD698A233A518AA5D07E595D983B8C0526C8F7FB DUP7 DUP7 PUSH1 0x40 MLOAD PUSH2 0x198F SWAP3 SWAP2 SWAP1 PUSH2 0x239B JUMP JUMPDEST PUSH1 0x40 MLOAD DUP1 SWAP2 SUB SWAP1 LOG4 POP POP POP POP POP JUMP JUMPDEST PUSH1 0x1 PUSH1 0x1 PUSH1 0xA0 SHL SUB DUP5 AND EXTCODESIZE ISZERO PUSH2 0x4C1 JUMPI PUSH1 0x40 MLOAD PUSH4 0xF23A6E61 PUSH1 0xE0 SHL DUP2 MSTORE PUSH1 0x1 PUSH1 0x1 PUSH1 0xA0 SHL SUB DUP6 AND SWAP1 PUSH4 0xF23A6E61 SWAP1 PUSH2 0x19E2 SWAP1 DUP10 SWAP1 DUP10 SWAP1 DUP9 SWAP1 DUP9 SWAP1 DUP9 SWAP1 PUSH1 0x4 ADD PUSH2 0x23C9 JUMP JUMPDEST PUSH1 0x20 PUSH1 0x40 MLOAD DUP1 DUP4 SUB DUP2 PUSH1 0x0 DUP8 GAS CALL SWAP3 POP POP POP DUP1 ISZERO PUSH2 0x1A1D JUMPI POP PUSH1 0x40 DUP1 MLOAD PUSH1 0x1F RETURNDATASIZE SWAP1 DUP2 ADD PUSH1 0x1F NOT AND DUP3 ADD SWAP1 SWAP3 MSTORE PUSH2 0x1A1A SWAP2 DUP2 ADD SWAP1 PUSH2 0x240E JUMP JUMPDEST PUSH1 0x1 JUMPDEST PUSH2 0x1A86 JUMPI RETURNDATASIZE DUP1 DUP1 ISZERO PUSH2 0x1A4B JUMPI PUSH1 0x40 MLOAD SWAP2 POP PUSH1 0x1F NOT PUSH1 0x3F RETURNDATASIZE ADD AND DUP3 ADD PUSH1 0x40 MSTORE RETURNDATASIZE DUP3 MSTORE RETURNDATASIZE PUSH1 0x0 PUSH1 0x20 DUP5 ADD RETURNDATACOPY PUSH2 0x1A50 JUMP JUMPDEST PUSH1 0x60 SWAP2 POP JUMPDEST POP DUP1 MLOAD PUSH1 0x0 SUB PUSH2 0x1A7E JUMPI PUSH1 0x40 MLOAD PUSH4 0x2BFA23E7 PUSH1 0xE1 SHL DUP2 MSTORE PUSH1 0x1 PUSH1 0x1 PUSH1 0xA0 SHL SUB DUP7 AND PUSH1 0x4 DUP3 ADD MSTORE PUSH1 0x24 ADD PUSH2 0x4AB JUMP JUMPDEST DUP1 MLOAD PUSH1 0x20 DUP3 ADD REVERT JUMPDEST PUSH1 0x1 PUSH1 0x1 PUSH1 0xE0 SHL SUB NOT DUP2 AND PUSH4 0xF23A6E61 PUSH1 0xE0 SHL EQ PUSH2 0x15B1 JUMPI PUSH1 0x40 MLOAD PUSH4 0x2BFA23E7 PUSH1 0xE1 SHL DUP2 MSTORE PUSH1 0x1 PUSH1 0x1 PUSH1 0xA0 SHL SUB DUP7 AND PUSH1 0x4 DUP3 ADD MSTORE PUSH1 0x24 ADD PUSH2 0x4AB JUMP JUMPDEST PUSH1 0x1 PUSH1 0x1 PUSH1 0xA0 SHL SUB DUP5 AND EXTCODESIZE ISZERO PUSH2 0x4C1 JUMPI PUSH1 0x40 MLOAD PUSH4 0xBC197C81 PUSH1 0xE0 SHL DUP2 MSTORE PUSH1 0x1 PUSH1 0x1 PUSH1 0xA0 SHL SUB DUP6 AND SWAP1 PUSH4 0xBC197C81 SWAP1 PUSH2 0x1B06 SWAP1 DUP10 SWAP1 DUP10 SWAP1 DUP9 SWAP1 DUP9 SWAP1 DUP9 SWAP1 PUSH1 0x4 ADD PUSH2 0x242B JUMP JUMPDEST PUSH1 0x20 PUSH1 0x40 MLOAD DUP1 DUP4 SUB DUP2 PUSH1 0x0 DUP8 GAS CALL SWAP3 POP POP POP DUP1 ISZERO PUSH2 0x1B41 JUMPI POP PUSH1 0x40 DUP1 MLOAD PUSH1 0x1F RETURNDATASIZE SWAP1 DUP2 ADD PUSH1 0x1F NOT AND DUP3 ADD SWAP1 SWAP3 MSTORE PUSH2 0x1B3E SWAP2 DUP2 ADD SWAP1 PUSH2 0x240E JUMP JUMPDEST PUSH1 0x1 JUMPDEST PUSH2 0x1B6F JUMPI RETURNDATASIZE DUP1 DUP1 ISZERO PUSH2 0x1A4B JUMPI PUSH1 0x40 MLOAD SWAP2 POP PUSH1 0x1F NOT PUSH1 0x3F RETURNDATASIZE ADD AND DUP3 ADD PUSH1 0x40 MSTORE RETURNDATASIZE DUP3 MSTORE RETURNDATASIZE PUSH1 0x0 PUSH1 0x20 DUP5 ADD RETURNDATACOPY PUSH2 0x1A50 JUMP JUMPDEST PUSH1 0x1 PUSH1 0x1 PUSH1 0xE0 SHL SUB NOT DUP2 AND PUSH4 0xBC197C81 PUSH1 0xE0 SHL EQ PUSH2 0x15B1 JUMPI PUSH1 0x40 MLOAD PUSH4 0x2BFA23E7 PUSH1 0xE1 SHL DUP2 MSTORE PUSH1 0x1 PUSH1 0x1 PUSH1 0xA0 SHL SUB DUP7 AND PUSH1 0x4 DUP3 ADD MSTORE PUSH1 0x24 ADD PUSH2 0x4AB JUMP JUMPDEST DUP1 CALLDATALOAD PUSH1 0x1 PUSH1 0x1 PUSH1 0xA0 SHL SUB DUP2 AND DUP2 EQ PUSH2 0x1BC2 JUMPI PUSH1 0x0 DUP1 REVERT JUMPDEST SWAP2 SWAP1 POP JUMP JUMPDEST PUSH1 0x0 DUP1 PUSH1 0x40 DUP4 DUP6 SUB SLT ISZERO PUSH2 0x1BDA JUMPI PUSH1 0x0 DUP1 REVERT JUMPDEST PUSH2 0x1BE3 DUP4 PUSH2 0x1BAB JUMP JUMPDEST SWAP5 PUSH1 0x20 SWAP4 SWAP1 SWAP4 ADD CALLDATALOAD SWAP4 POP POP POP JUMP JUMPDEST PUSH1 0x1 PUSH1 0x1 PUSH1 0xE0 SHL SUB NOT DUP2 AND DUP2 EQ PUSH2 0x10DF JUMPI PUSH1 0x0 DUP1 REVERT JUMPDEST PUSH1 0x0 PUSH1 0x20 DUP3 DUP5 SUB SLT ISZERO PUSH2 0x1C19 JUMPI PUSH1 0x0 DUP1 REVERT JUMPDEST DUP2 CALLDATALOAD PUSH2 0x1C24 DUP2 PUSH2 0x1BF1 JUMP JUMPDEST SWAP4 SWAP3 POP POP POP JUMP JUMPDEST PUSH1 0x0 PUSH1 0x20 DUP3 DUP5 SUB SLT ISZERO PUSH2 0x1C3D JUMPI PUSH1 0x0 DUP1 REVERT JUMPDEST POP CALLDATALOAD SWAP2 SWAP1 POP JUMP JUMPDEST PUSH1 0x0 DUP2 MLOAD DUP1 DUP5 MSTORE PUSH1 0x0 JUMPDEST DUP2 DUP2 LT ISZERO PUSH2 0x1C6A JUMPI PUSH1 0x20 DUP2 DUP6 ADD DUP2 ADD MLOAD DUP7 DUP4 ADD DUP3 ADD MSTORE ADD PUSH2 0x1C4E JUMP JUMPDEST POP PUSH1 0x0 PUSH1 0x20 DUP3 DUP7 ADD ADD MSTORE PUSH1 0x20 PUSH1 0x1F NOT PUSH1 0x1F DUP4 ADD AND DUP6 ADD ADD SWAP2 POP POP SWAP3 SWAP2 POP POP JUMP JUMPDEST PUSH1 0x20 DUP2 MSTORE PUSH1 0x0 PUSH2 0x1C24 PUSH1 0x20 DUP4 ADD DUP5 PUSH2 0x1C44 JUMP JUMPDEST PUSH4 0x4E487B71 PUSH1 0xE0 SHL PUSH1 0x0 MSTORE PUSH1 0x41 PUSH1 0x4 MSTORE PUSH1 0x24 PUSH1 0x0 REVERT JUMPDEST PUSH1 0x40 MLOAD PUSH1 0x1F DUP3 ADD PUSH1 0x1F NOT AND DUP2 ADD PUSH8 0xFFFFFFFFFFFFFFFF DUP2 GT DUP3 DUP3 LT OR ISZERO PUSH2 0x1CDC JUMPI PUSH2 0x1CDC PUSH2 0x1C9D JUMP JUMPDEST PUSH1 0x40 MSTORE SWAP2 SWAP1 POP JUMP JUMPDEST PUSH1 0x0 PUSH8 0xFFFFFFFFFFFFFFFF DUP3 GT ISZERO PUSH2 0x1CFE JUMPI PUSH2 0x1CFE PUSH2 0x1C9D JUMP JUMPDEST POP PUSH1 0x5 SHL PUSH1 0x20 ADD SWAP1 JUMP JUMPDEST PUSH1 0x0 DUP3 PUSH1 0x1F DUP4 ADD SLT PUSH2 0x1D19 JUMPI PUSH1 0x0 DUP1 REVERT JUMPDEST DUP2 CALLDATALOAD PUSH1 0x20 PUSH2 0x1D2E PUSH2 0x1D29 DUP4 PUSH2 0x1CE4 JUMP JUMPDEST PUSH2 0x1CB3 JUMP JUMPDEST DUP1 DUP4 DUP3 MSTORE PUSH1 0x20 DUP3 ADD SWAP2 POP PUSH1 0x20 DUP5 PUSH1 0x5 SHL DUP8 ADD ADD SWAP4 POP DUP7 DUP5 GT ISZERO PUSH2 0x1D50 JUMPI PUSH1 0x0 DUP1 REVERT JUMPDEST PUSH1 0x20 DUP7 ADD JUMPDEST DUP5 DUP2 LT ISZERO PUSH2 0x1D6C JUMPI DUP1 CALLDATALOAD DUP4 MSTORE SWAP2 DUP4 ADD SWAP2 DUP4 ADD PUSH2 0x1D55 JUMP JUMPDEST POP SWAP7 SWAP6 POP POP POP POP POP POP JUMP JUMPDEST PUSH1 0x0 DUP3 PUSH1 0x1F DUP4 ADD SLT PUSH2 0x1D88 JUMPI PUSH1 0x0 DUP1 REVERT JUMPDEST DUP2 CALLDATALOAD PUSH8 0xFFFFFFFFFFFFFFFF DUP2 GT ISZERO PUSH2 0x1DA2 JUMPI PUSH2 0x1DA2 PUSH2 0x1C9D JUMP JUMPDEST PUSH2 0x1DB5 PUSH1 0x1F DUP3 ADD PUSH1 0x1F NOT AND PUSH1 0x20 ADD PUSH2 0x1CB3 JUMP JUMPDEST DUP2 DUP2 MSTORE DUP5 PUSH1 0x20 DUP4 DUP7 ADD ADD GT ISZERO PUSH2 0x1DCA JUMPI PUSH1 0x0 DUP1 REVERT JUMPDEST DUP2 PUSH1 0x20 DUP6 ADD PUSH1 0x20 DUP4 ADD CALLDATACOPY PUSH1 0x0 SWAP2 DUP2 ADD PUSH1 0x20 ADD SWAP2 SWAP1 SWAP2 MSTORE SWAP4 SWAP3 POP POP POP JUMP JUMPDEST PUSH1 0x0 DUP1 PUSH1 0x0 DUP1 PUSH1 0x0 PUSH1 0xA0 DUP7 DUP9 SUB SLT ISZERO PUSH2 0x1DFF JUMPI PUSH1 0x0 DUP1 REVERT JUMPDEST PUSH2 0x1E08 DUP7 PUSH2 0x1BAB JUMP JUMPDEST SWAP5 POP PUSH2 0x1E16 PUSH1 0x20 DUP8 ADD PUSH2 0x1BAB JUMP JUMPDEST SWAP4 POP PUSH1 0x40 DUP7 ADD CALLDATALOAD PUSH8 0xFFFFFFFFFFFFFFFF DUP1 DUP3 GT ISZERO PUSH2 0x1E33 JUMPI PUSH1 0x0 DUP1 REVERT JUMPDEST PUSH2 0x1E3F DUP10 DUP4 DUP11 ADD PUSH2 0x1D08 JUMP JUMPDEST SWAP5 POP PUSH1 0x60 DUP9 ADD CALLDATALOAD SWAP2 POP DUP1 DUP3 GT ISZERO PUSH2 0x1E55 JUMPI PUSH1 0x0 DUP1 REVERT JUMPDEST PUSH2 0x1E61 DUP10 DUP4 DUP11 ADD PUSH2 0x1D08 JUMP JUMPDEST SWAP4 POP PUSH1 0x80 DUP9 ADD CALLDATALOAD SWAP2 POP DUP1 DUP3 GT ISZERO PUSH2 0x1E77 JUMPI PUSH1 0x0 DUP1 REVERT JUMPDEST POP PUSH2 0x1E84 DUP9 DUP3 DUP10 ADD PUSH2 0x1D77 JUMP JUMPDEST SWAP2 POP POP SWAP3 SWAP6 POP SWAP3 SWAP6 SWAP1 SWAP4 POP JUMP JUMPDEST PUSH1 0x0 DUP1 PUSH1 0x40 DUP4 DUP6 SUB SLT ISZERO PUSH2 0x1EA4 JUMPI PUSH1 0x0 DUP1 REVERT JUMPDEST DUP3 CALLDATALOAD PUSH8 0xFFFFFFFFFFFFFFFF DUP1 DUP3 GT ISZERO PUSH2 0x1EBC JUMPI PUSH1 0x0 DUP1 REVERT JUMPDEST DUP2 DUP6 ADD SWAP2 POP DUP6 PUSH1 0x1F DUP4 ADD SLT PUSH2 0x1ED0 JUMPI PUSH1 0x0 DUP1 REVERT JUMPDEST DUP2 CALLDATALOAD PUSH1 0x20 PUSH2 0x1EE0 PUSH2 0x1D29 DUP4 PUSH2 0x1CE4 JUMP JUMPDEST DUP3 DUP2 MSTORE PUSH1 0x5 SWAP3 SWAP1 SWAP3 SHL DUP5 ADD DUP2 ADD SWAP2 DUP2 DUP2 ADD SWAP1 DUP10 DUP5 GT ISZERO PUSH2 0x1EFF JUMPI PUSH1 0x0 DUP1 REVERT JUMPDEST SWAP5 DUP3 ADD SWAP5 JUMPDEST DUP4 DUP7 LT ISZERO PUSH2 0x1F24 JUMPI PUSH2 0x1F15 DUP7 PUSH2 0x1BAB JUMP JUMPDEST DUP3 MSTORE SWAP5 DUP3 ADD SWAP5 SWAP1 DUP3 ADD SWAP1 PUSH2 0x1F04 JUMP JUMPDEST SWAP7 POP POP DUP7 ADD CALLDATALOAD SWAP3 POP POP DUP1 DUP3 GT ISZERO PUSH2 0x1F3A JUMPI PUSH1 0x0 DUP1 REVERT JUMPDEST POP PUSH2 0x1F47 DUP6 DUP3 DUP7 ADD PUSH2 0x1D08 JUMP JUMPDEST SWAP2 POP POP SWAP3 POP SWAP3 SWAP1 POP JUMP JUMPDEST PUSH1 0x0 DUP2 MLOAD DUP1 DUP5 MSTORE PUSH1 0x20 DUP1 DUP6 ADD SWAP5 POP PUSH1 0x20 DUP5 ADD PUSH1 0x0 JUMPDEST DUP4 DUP2 LT ISZERO PUSH2 0x1F82 JUMPI DUP2 MLOAD DUP8 MSTORE SWAP6 DUP3 ADD SWAP6 SWAP1 DUP3 ADD SWAP1 PUSH1 0x1 ADD PUSH2 0x1F66 JUMP JUMPDEST POP SWAP5 SWAP6 SWAP5 POP POP POP POP POP JUMP JUMPDEST PUSH1 0x20 DUP2 MSTORE PUSH1 0x0 PUSH2 0x1C24 PUSH1 0x20 DUP4 ADD DUP5 PUSH2 0x1F51 JUMP JUMPDEST DUP1 CALLDATALOAD PUSH2 0xFFFF DUP2 AND DUP2 EQ PUSH2 0x1BC2 JUMPI PUSH1 0x0 DUP1 REVERT JUMPDEST DUP1 ISZERO ISZERO DUP2 EQ PUSH2 0x10DF JUMPI PUSH1 0x0 DUP1 REVERT JUMPDEST PUSH1 0x0 DUP1 PUSH1 0x40 DUP4 DUP6 SUB SLT ISZERO PUSH2 0x1FD3 JUMPI PUSH1 0x0 DUP1 REVERT JUMPDEST PUSH2 0x1FDC DUP4 PUSH2 0x1FA0 JUMP JUMPDEST SWAP2 POP PUSH1 0x20 DUP4 ADD CALLDATALOAD PUSH2 0x1FEC DUP2 PUSH2 0x1FB2 JUMP JUMPDEST DUP1 SWAP2 POP POP SWAP3 POP SWAP3 SWAP1 POP JUMP JUMPDEST PUSH1 0x40 DUP1 DUP3 MSTORE DUP4 MLOAD SWAP1 DUP3 ADD DUP2 SWAP1 MSTORE PUSH1 0x0 SWAP1 PUSH1 0x20 SWAP1 PUSH1 0x60 DUP5 ADD SWAP1 DUP3 DUP8 ADD DUP5 JUMPDEST DUP3 DUP2 LT ISZERO PUSH2 0x2039 JUMPI DUP2 MLOAD PUSH1 0x1 PUSH1 0x1 PUSH1 0xA0 SHL SUB AND DUP5 MSTORE SWAP3 DUP5 ADD SWAP3 SWAP1 DUP5 ADD SWAP1 PUSH1 0x1 ADD PUSH2 0x2014 JUMP JUMPDEST POP POP POP DUP4 DUP2 SUB PUSH1 0x20 DUP6 ADD MSTORE PUSH2 0x204E DUP2 DUP7 PUSH2 0x1F51 JUMP JUMPDEST SWAP7 SWAP6 POP POP POP POP POP POP JUMP JUMPDEST PUSH1 0x0 DUP1 PUSH1 0x0 PUSH1 0x60 DUP5 DUP7 SUB SLT ISZERO PUSH2 0x206D JUMPI PUSH1 0x0 DUP1 REVERT JUMPDEST PUSH2 0x2076 DUP5 PUSH2 0x1FA0 JUMP JUMPDEST SWAP3 POP PUSH1 0x20 DUP5 ADD CALLDATALOAD SWAP2 POP PUSH1 0x40 DUP5 ADD CALLDATALOAD PUSH2 0x208D DUP2 PUSH2 0x1FB2 JUMP JUMPDEST DUP1 SWAP2 POP POP SWAP3 POP SWAP3 POP SWAP3 JUMP JUMPDEST PUSH1 0x0 DUP1 PUSH1 0x0 DUP1 PUSH1 0x80 DUP6 DUP8 SUB SLT ISZERO PUSH2 0x20AE JUMPI PUSH1 0x0 DUP1 REVERT JUMPDEST PUSH2 0x20B7 DUP6 PUSH2 0x1FA0 JUMP JUMPDEST SWAP4 POP PUSH2 0x20C5 PUSH1 0x20 DUP7 ADD PUSH2 0x1FA0 JUMP JUMPDEST SWAP3 POP PUSH1 0x40 DUP6 ADD CALLDATALOAD SWAP2 POP PUSH1 0x60 DUP6 ADD CALLDATALOAD PUSH2 0x20DC DUP2 PUSH2 0x1FB2 JUMP JUMPDEST SWAP4 SWAP7 SWAP3 SWAP6 POP SWAP1 SWAP4 POP POP JUMP JUMPDEST PUSH1 0x0 DUP1 PUSH1 0x0 DUP1 PUSH1 0x80 DUP6 DUP8 SUB SLT ISZERO PUSH2 0x20FD JUMPI PUSH1 0x0 DUP1 REVERT JUMPDEST PUSH2 0x20B7 DUP6 PUSH2 0x1BAB JUMP JUMPDEST PUSH1 0x0 DUP1 PUSH1 0x40 DUP4 DUP6 SUB SLT ISZERO PUSH2 0x2119 JUMPI PUSH1 0x0 DUP1 REVERT JUMPDEST PUSH2 0x1FDC DUP4 PUSH2 0x1BAB JUMP JUMPDEST PUSH1 0x0 DUP1 PUSH1 0x40 DUP4 DUP6 SUB SLT ISZERO PUSH2 0x2135 JUMPI PUSH1 0x0 DUP1 REVERT JUMPDEST PUSH2 0x213E DUP4 PUSH2 0x1BAB JUMP JUMPDEST SWAP2 POP PUSH2 0x214C PUSH1 0x20 DUP5 ADD PUSH2 0x1BAB JUMP JUMPDEST SWAP1 POP SWAP3 POP SWAP3 SWAP1 POP JUMP JUMPDEST PUSH1 0x0 DUP1 PUSH1 0x0 DUP1 PUSH1 0x0 PUSH1 0xA0 DUP7 DUP9 SUB SLT ISZERO PUSH2 0x216D JUMPI PUSH1 0x0 DUP1 REVERT JUMPDEST PUSH2 0x2176 DUP7 PUSH2 0x1BAB JUMP JUMPDEST SWAP5 POP PUSH2 0x2184 PUSH1 0x20 DUP8 ADD PUSH2 0x1BAB JUMP JUMPDEST SWAP4 POP PUSH1 0x40 DUP7 ADD CALLDATALOAD SWAP3 POP PUSH1 0x60 DUP7 ADD CALLDATALOAD SWAP2 POP PUSH1 0x80 DUP7 ADD CALLDATALOAD PUSH8 0xFFFFFFFFFFFFFFFF DUP2 GT ISZERO PUSH2 0x21AE JUMPI PUSH1 0x0 DUP1 REVERT JUMPDEST PUSH2 0x1E84 DUP9 DUP3 DUP10 ADD PUSH2 0x1D77 JUMP JUMPDEST PUSH1 0x0 PUSH1 0x20 DUP3 DUP5 SUB SLT ISZERO PUSH2 0x21CC JUMPI PUSH1 0x0 DUP1 REVERT JUMPDEST PUSH2 0x1C24 DUP3 PUSH2 0x1BAB JUMP JUMPDEST PUSH1 0x1 DUP2 DUP2 SHR SWAP1 DUP3 AND DUP1 PUSH2 0x21E9 JUMPI PUSH1 0x7F DUP3 AND SWAP2 POP JUMPDEST PUSH1 0x20 DUP3 LT DUP2 SUB PUSH2 0x2209 JUMPI PUSH4 0x4E487B71 PUSH1 0xE0 SHL PUSH1 0x0 MSTORE PUSH1 0x22 PUSH1 0x4 MSTORE PUSH1 0x24 PUSH1 0x0 REVERT JUMPDEST POP SWAP2 SWAP1 POP JUMP JUMPDEST PUSH4 0x4E487B71 PUSH1 0xE0 SHL PUSH1 0x0 MSTORE PUSH1 0x32 PUSH1 0x4 MSTORE PUSH1 0x24 PUSH1 0x0 REVERT JUMPDEST PUSH4 0x4E487B71 PUSH1 0xE0 SHL PUSH1 0x0 MSTORE PUSH1 0x11 PUSH1 0x4 MSTORE PUSH1 0x24 PUSH1 0x0 REVERT JUMPDEST DUP1 DUP3 ADD DUP1 DUP3 GT ISZERO PUSH2 0x3B8 JUMPI PUSH2 0x3B8 PUSH2 0x2225 JUMP JUMPDEST PUSH1 0x0 PUSH1 0x1 DUP3 ADD PUSH2 0x2260 JUMPI PUSH2 0x2260 PUSH2 0x2225 JUMP JUMPDEST POP PUSH1 0x1 ADD SWAP1 JUMP JUMPDEST DUP2 DUP2 SUB DUP2 DUP2 GT ISZERO PUSH2 0x3B8 JUMPI PUSH2 0x3B8 PUSH2 0x2225 JUMP JUMPDEST DUP1 DUP3 MUL DUP2 ISZERO DUP3 DUP3 DIV DUP5 EQ OR PUSH2 0x3B8 JUMPI PUSH2 0x3B8 PUSH2 0x2225 JUMP JUMPDEST PUSH1 0x0 PUSH1 0x20 DUP3 DUP5 SUB SLT ISZERO PUSH2 0x22A3 JUMPI PUSH1 0x0 DUP1 REVERT JUMPDEST DUP2 MLOAD PUSH2 0x1C24 DUP2 PUSH2 0x1FB2 JUMP JUMPDEST PUSH4 0x4E487B71 PUSH1 0xE0 SHL PUSH1 0x0 MSTORE PUSH1 0x12 PUSH1 0x4 MSTORE PUSH1 0x24 PUSH1 0x0 REVERT JUMPDEST PUSH1 0x0 DUP3 PUSH2 0x22D3 JUMPI PUSH2 0x22D3 PUSH2 0x22AE JUMP JUMPDEST POP DIV SWAP1 JUMP JUMPDEST PUSH1 0x0 PUSH1 0x20 DUP3 DUP5 SUB SLT ISZERO PUSH2 0x22EA JUMPI PUSH1 0x0 DUP1 REVERT JUMPDEST POP MLOAD SWAP2 SWAP1 POP JUMP JUMPDEST PUSH2 0xFFFF DUP3 DUP2 AND DUP3 DUP3 AND SUB SWAP1 DUP1 DUP3 GT ISZERO PUSH2 0x230C JUMPI PUSH2 0x230C PUSH2 0x2225 JUMP JUMPDEST POP SWAP3 SWAP2 POP POP JUMP JUMPDEST PUSH1 0x0 PUSH2 0xFFFF DUP1 DUP5 AND DUP1 PUSH2 0x2328 JUMPI PUSH2 0x2328 PUSH2 0x22AE JUMP JUMPDEST SWAP3 AND SWAP2 SWAP1 SWAP2 MOD SWAP3 SWAP2 POP POP JUMP JUMPDEST PUSH1 0x0 PUSH2 0xFFFF DUP1 DUP5 AND DUP1 PUSH2 0x2349 JUMPI PUSH2 0x2349 PUSH2 0x22AE JUMP JUMPDEST SWAP3 AND SWAP2 SWAP1 SWAP2 DIV SWAP3 SWAP2 POP POP JUMP JUMPDEST PUSH1 0x1 DUP3 DUP2 SIGNEXTEND SWAP1 DUP3 SWAP1 SIGNEXTEND SUB PUSH2 0x7FFF NOT DUP2 SLT PUSH2 0x7FFF DUP3 SGT OR ISZERO PUSH2 0x3B8 JUMPI PUSH2 0x3B8 PUSH2 0x2225 JUMP JUMPDEST PUSH1 0x1 DUP2 DUP2 SIGNEXTEND SWAP1 DUP4 SWAP1 SIGNEXTEND ADD PUSH2 0x7FFF DUP2 SGT PUSH2 0x7FFF NOT DUP3 SLT OR ISZERO PUSH2 0x3B8 JUMPI PUSH2 0x3B8 PUSH2 0x2225 JUMP JUMPDEST PUSH1 0x40 DUP2 MSTORE PUSH1 0x0 PUSH2 0x23AE PUSH1 0x40 DUP4 ADD DUP6 PUSH2 0x1F51 JUMP JUMPDEST DUP3 DUP2 SUB PUSH1 0x20 DUP5 ADD MSTORE PUSH2 0x23C0 DUP2 DUP6 PUSH2 0x1F51 JUMP JUMPDEST SWAP6 SWAP5 POP POP POP POP POP JUMP JUMPDEST PUSH1 0x1 PUSH1 0x1 PUSH1 0xA0 SHL SUB DUP7 DUP2 AND DUP3 MSTORE DUP6 AND PUSH1 0x20 DUP3 ADD MSTORE PUSH1 0x40 DUP2 ADD DUP5 SWAP1 MSTORE PUSH1 0x60 DUP2 ADD DUP4 SWAP1 MSTORE PUSH1 0xA0 PUSH1 0x80 DUP3 ADD DUP2 SWAP1 MSTORE PUSH1 0x0 SWAP1 PUSH2 0x2403 SWAP1 DUP4 ADD DUP5 PUSH2 0x1C44 JUMP JUMPDEST SWAP8 SWAP7 POP POP POP POP POP POP POP JUMP JUMPDEST PUSH1 0x0 PUSH1 0x20 DUP3 DUP5 SUB SLT ISZERO PUSH2 0x2420 JUMPI PUSH1 0x0 DUP1 REVERT JUMPDEST DUP2 MLOAD PUSH2 0x1C24 DUP2 PUSH2 0x1BF1 JUMP JUMPDEST PUSH1 0x1 PUSH1 0x1 PUSH1 0xA0 SHL SUB DUP7 DUP2 AND DUP3 MSTORE DUP6 AND PUSH1 0x20 DUP3 ADD MSTORE PUSH1 0xA0 PUSH1 0x40 DUP3 ADD DUP2 SWAP1 MSTORE PUSH1 0x0 SWAP1 PUSH2 0x2457 SWAP1 DUP4 ADD DUP7 PUSH2 0x1F51 JUMP JUMPDEST DUP3 DUP2 SUB PUSH1 0x60 DUP5 ADD MSTORE PUSH2 0x2469 DUP2 DUP7 PUSH2 0x1F51 JUMP JUMPDEST SWAP1 POP DUP3 DUP2 SUB PUSH1 0x80 DUP5 ADD MSTORE PUSH2 0x247D DUP2 DUP6 PUSH2 0x1C44 JUMP JUMPDEST SWAP9 SWAP8 POP POP POP POP POP POP POP POP JUMP INVALID LOG2 PUSH5 0x6970667358 0x22 SLT KECCAK256 SWAP5 STOP 0xA9 SWAP14 SAR 0xB8 0xE0 PUSH5 0x3389713F0F PUSH20 0x402CFACE9AAD0BC61197CA5976BC2982826473 PUSH16 0x6C6343000818003368747470733A2F2F PUSH2 0x7069 0x2E PUSH12 0x696C6C67616D652E61692F6D PUSH6 0x746164617461 0x2F PUSH28 0x69647D2E6A736F6E0000000000000000000000000000000000000000 "},"methodIdentifiers":{"BOOST_RECOIL()":"44b70ac4","BOOST_REQUIRED()":"4cf5317b","BURN_BPS()":"a37a9fc0","SPAWN_COST()":"c704c3f1","TREASURY_BPS()":"4c25d197","adminWithdraw(uint256)":"7c5b4a37","agentStacks(address,uint256)":"edbd5df8","balanceOf(address,uint256)":"00fdd58e","balanceOfBatch(address[],uint256[])":"4e1273f4","getPendingBounty(address,uint256)":"ea075ee1","getRipeStacks(uint16,bool)":"55ebad59","isApprovedForAll(address,address)":"e985e9c5","kill(address,uint16,uint256,bool)":"7a2b3720","killToken()":"2bd7cd17","move(uint16,uint16,uint256,bool)":"6950ed03","owner()":"8da5cb5b","renounceOwnership()":"715018a6","safeBatchTransferFrom(address,address,uint256[],uint256[],bytes)":"2eb2c2d6","safeTransferFrom(address,address,uint256,uint256,bytes)":"f242432a","setApprovalForAll(address,bool)":"a22cb465","spawn(uint16,uint256,bool)":"5d69a710","supportsInterface(bytes4)":"01ffc9a7","transferOwnership(address)":"f2fde38b","treasuryBalance()":"313dab20","uri(uint256)":"0e89341c"}},"storageLayout":{"storage":[{"astId":326,"contract":"contracts/KillGame.sol:KILLGame","label":"_balances","offset":0,"slot":"0","type":"t_mapping(t_uint256,t_mapping(t_address,t_uint256))"},{"astId":332,"contract":"contracts/KillGame.sol:KILLGame","label":"_operatorApprovals","offset":0,"slot":"1","type":"t_mapping(t_address,t_mapping(t_address,t_bool))"},{"astId":334,"contract":"contracts/KillGame.sol:KILLGame","label":"_uri","offset":0,"slot":"2","type":"t_string_storage"},{"astId":2717,"contract":"contracts/KillGame.sol:KILLGame","label":"_status","offset":0,"slot":"3","type":"t_uint256"},{"astId":8,"contract":"contracts/KillGame.sol:KILLGame","label":"_owner","offset":0,"slot":"4","type":"t_address"},{"astId":6517,"contract":"contracts/KillGame.sol:KILLGame","label":"treasuryBalance","offset":0,"slot":"5","type":"t_uint256"},{"astId":6527,"contract":"contracts/KillGame.sol:KILLGame","label":"agentStacks","offset":0,"slot":"6","type":"t_mapping(t_address,t_mapping(t_uint256,t_struct(ReaperStack)6520_storage))"},{"astId":6532,"contract":"contracts/KillGame.sol:KILLGame","label":"cubeOccupants","offset":0,"slot":"7","type":"t_mapping(t_uint256,t_array(t_address)dyn_storage)"},{"astId":6538,"contract":"contracts/KillGame.sol:KILLGame","label":"isOccupying","offset":0,"slot":"8","type":"t_mapping(t_uint256,t_mapping(t_address,t_bool))"}],"types":{"t_address":{"encoding":"inplace","label":"address","numberOfBytes":"20"},"t_array(t_address)dyn_storage":{"base":"t_address","encoding":"dynamic_array","label":"address[]","numberOfBytes":"32"},"t_bool":{"encoding":"inplace","label":"bool","numberOfBytes":"1"},"t_mapping(t_address,t_bool)":{"encoding":"mapping","key":"t_address","label":"mapping(address => bool)","numberOfBytes":"32","value":"t_bool"},"t_mapping(t_address,t_mapping(t_address,t_bool))":{"encoding":"mapping","key":"t_address","label":"mapping(address => mapping(address => bool))","numberOfBytes":"32","value":"t_mapping(t_address,t_bool)"},"t_mapping(t_address,t_mapping(t_uint256,t_struct(ReaperStack)6520_storage))":{"encoding":"mapping","key":"t_address","label":"mapping(address => mapping(uint256 => struct KILLGame.ReaperStack))","numberOfBytes":"32","value":"t_mapping(t_uint256,t_struct(ReaperStack)6520_storage)"},"t_mapping(t_address,t_uint256)":{"encoding":"mapping","key":"t_address","label":"mapping(address => uint256)","numberOfBytes":"32","value":"t_uint256"},"t_mapping(t_uint256,t_array(t_address)dyn_storage)":{"encoding":"mapping","key":"t_uint256","label":"mapping(uint256 => address[])","numberOfBytes":"32","value":"t_array(t_address)dyn_storage"},"t_mapping(t_uint256,t_mapping(t_address,t_bool))":{"encoding":"mapping","key":"t_uint256","label":"mapping(uint256 => mapping(address => bool))","numberOfBytes":"32","value":"t_mapping(t_address,t_bool)"},"t_mapping(t_uint256,t_mapping(t_address,t_uint256))":{"encoding":"mapping","key":"t_uint256","label":"mapping(uint256 => mapping(address => uint256))","numberOfBytes":"32","value":"t_mapping(t_address,t_uint256)"},"t_mapping(t_uint256,t_struct(ReaperStack)6520_storage)":{"encoding":"mapping","key":"t_uint256","label":"mapping(uint256 => struct KILLGame.ReaperStack)","numberOfBytes":"32","value":"t_struct(ReaperStack)6520_storage"},"t_string_storage":{"encoding":"bytes","label":"string","numberOfBytes":"32"},"t_struct(ReaperStack)6520_storage":{"encoding":"inplace","label":"struct KILLGame.ReaperStack","members":[{"astId":6519,"contract":"contracts/KillGame.sol:KILLGame","label":"birthBlock","offset":0,"slot":"0","type":"t_uint256"}],"numberOfBytes":"32"},"t_uint256":{"encoding":"inplace","label":"uint256","numberOfBytes":"32"}}}}}}