{"contracts/KillFaucet.sol":{"KILLFaucet":{"abi":[{"inputs":[{"internalType":"address","name":"_killToken","type":"address"}],"stateMutability":"nonpayable","type":"constructor"},{"inputs":[],"name":"ReentrancyGuardReentrantCall","type":"error"},{"anonymous":false,"inputs":[{"indexed":true,"internalType":"address","name":"agent","type":"address"},{"indexed":false,"internalType":"uint256","name":"amount","type":"uint256"}],"name":"TokensPulled","type":"event"},{"inputs":[],"name":"MIN_AGENT_BALANCE","outputs":[{"internalType":"uint256","name":"","type":"uint256"}],"stateMutability":"view","type":"function"},{"inputs":[{"internalType":"address","name":"","type":"address"}],"name":"hasClaimed","outputs":[{"internalType":"bool","name":"","type":"bool"}],"stateMutability":"view","type":"function"},{"inputs":[],"name":"killToken","outputs":[{"internalType":"contract IERC20","name":"","type":"address"}],"stateMutability":"view","type":"function"},{"inputs":[],"name":"pullKill","outputs":[],"stateMutability":"nonpayable","type":"function"}],"evm":{"bytecode":{"linkReferences":{},"object":"60a03461007757601f6105d338819003918201601f19168301916001600160401b0383118484101761007c5780849260209460405283398101031261007757516001600160a01b038116908190036100775760016000556080526040516105409081610093823960805181818160c201526104950152f35b600080fd5b634e487b7160e01b600052604160045260246000fdfe608060408181526004918236101561001657600080fd5b600092833560e01c9182632bd7cd17146104695750816373b2e80e1461041e578163b9cc45fc14610076575063e13598ad1461005157600080fd5b3461007257816003193601126100725760209051670de0b6b3a76400008152f35b5080fd5b9190503461041a578260031936011261041a5760028354146103f457600283553383526020906001825260ff81852054166103b35773ffffffffffffffffffffffffffffffffffffffff7f0000000000000000000000000000000000000000000000000000000000000000169281517f70a08231000000000000000000000000000000000000000000000000000000008082523383830152602491858184818a5afa80156103a9578890610370575b670de0b6b3a764000091501061032f578351908152308382015284818381895afa908115610276578791610302575b5080156102c157600a90049485156102805784879133835260018252858320600160ff1982541617905560448651809481937fa9059cbb00000000000000000000000000000000000000000000000000000000835233898401528b888401525af190811561027657879161023c575b50156101fc575050907f3c3f210f5fb914ad3522d4b423e3db16130d0409700cb7b1827ccc90f341ac2f91519283523392a26001815580f35b606493600d9293519362461bcd60e51b85528401528201527f5472616e73666572206661696c000000000000000000000000000000000000006044820152fd5b90508481813d831161026f575b61025381836104b9565b8101031261026b5751801515810361026b57386101c3565b8680fd5b503d610249565b84513d89823e3d90fd5b5060649360109293519362461bcd60e51b85528401528201527f416d6f756e7420746f6f20736d616c6c000000000000000000000000000000006044820152fd5b50606493600c9293519362461bcd60e51b85528401528201527f46617563657420656d70747900000000000000000000000000000000000000006044820152fd5b90508481813d8311610328575b61031981836104b9565b8101031261026b575138610154565b503d61030f565b50606493600c9293519362461bcd60e51b85528401528201527f4e6f7420616e206167656e7400000000000000000000000000000000000000006044820152fd5b508581813d83116103a2575b61038681836104b9565b8101031261039e57670de0b6b3a76400009051610125565b8780fd5b503d61037c565b85513d8a823e3d90fd5b60649350519162461bcd60e51b8352820152600e60248201527f416c72656164792070756c6c65640000000000000000000000000000000000006044820152fd5b517f3ee5aeb5000000000000000000000000000000000000000000000000000000008152fd5b8280fd5b90503461041a57602036600319011261041a573573ffffffffffffffffffffffffffffffffffffffff811680910361041a57818360ff92602095526001855220541690519015158152f35b84903461007257816003193601126100725760209073ffffffffffffffffffffffffffffffffffffffff7f0000000000000000000000000000000000000000000000000000000000000000168152f35b90601f8019910116810190811067ffffffffffffffff8211176104db57604052565b7f4e487b7100000000000000000000000000000000000000000000000000000000600052604160045260246000fdfea26469706673582212208486dd40dff01ec6d57e7f2333a80d4138da30575c5ed57206a378b75e88d4e764736f6c63430008180033","opcodes":"PUSH1 0xA0 CALLVALUE PUSH2 0x77 JUMPI PUSH1 0x1F PUSH2 0x5D3 CODESIZE DUP2 SWAP1 SUB SWAP2 DUP3 ADD PUSH1 0x1F NOT AND DUP4 ADD SWAP2 PUSH1 0x1 PUSH1 0x1 PUSH1 0x40 SHL SUB DUP4 GT DUP5 DUP5 LT OR PUSH2 0x7C JUMPI DUP1 DUP5 SWAP3 PUSH1 0x20 SWAP5 PUSH1 0x40 MSTORE DUP4 CODECOPY DUP2 ADD SUB SLT PUSH2 0x77 JUMPI MLOAD PUSH1 0x1 PUSH1 0x1 PUSH1 0xA0 SHL SUB DUP2 AND SWAP1 DUP2 SWAP1 SUB PUSH2 0x77 JUMPI PUSH1 0x1 PUSH1 0x0 SSTORE PUSH1 0x80 MSTORE PUSH1 0x40 MLOAD PUSH2 0x540 SWAP1 DUP2 PUSH2 0x93 DUP3 CODECOPY PUSH1 0x80 MLOAD DUP2 DUP2 DUP2 PUSH1 0xC2 ADD MSTORE PUSH2 0x495 ADD MSTORE RETURN JUMPDEST PUSH1 0x0 DUP1 REVERT JUMPDEST PUSH4 0x4E487B71 PUSH1 0xE0 SHL PUSH1 0x0 MSTORE PUSH1 0x41 PUSH1 0x4 MSTORE PUSH1 0x24 PUSH1 0x0 REVERT INVALID PUSH1 0x80 PUSH1 0x40 DUP2 DUP2 MSTORE PUSH1 0x4 SWAP2 DUP3 CALLDATASIZE LT ISZERO PUSH2 0x16 JUMPI PUSH1 0x0 DUP1 REVERT JUMPDEST PUSH1 0x0 SWAP3 DUP4 CALLDATALOAD PUSH1 0xE0 SHR SWAP2 DUP3 PUSH4 0x2BD7CD17 EQ PUSH2 0x469 JUMPI POP DUP2 PUSH4 0x73B2E80E EQ PUSH2 0x41E JUMPI DUP2 PUSH4 0xB9CC45FC EQ PUSH2 0x76 JUMPI POP PUSH4 0xE13598AD EQ PUSH2 0x51 JUMPI PUSH1 0x0 DUP1 REVERT JUMPDEST CALLVALUE PUSH2 0x72 JUMPI DUP2 PUSH1 0x3 NOT CALLDATASIZE ADD SLT PUSH2 0x72 JUMPI PUSH1 0x20 SWAP1 MLOAD PUSH8 0xDE0B6B3A7640000 DUP2 MSTORE RETURN JUMPDEST POP DUP1 REVERT JUMPDEST SWAP2 SWAP1 POP CALLVALUE PUSH2 0x41A JUMPI DUP3 PUSH1 0x3 NOT CALLDATASIZE ADD SLT PUSH2 0x41A JUMPI PUSH1 0x2 DUP4 SLOAD EQ PUSH2 0x3F4 JUMPI PUSH1 0x2 DUP4 SSTORE CALLER DUP4 MSTORE PUSH1 0x20 SWAP1 PUSH1 0x1 DUP3 MSTORE PUSH1 0xFF DUP2 DUP6 KECCAK256 SLOAD AND PUSH2 0x3B3 JUMPI PUSH20 0xFFFFFFFFFFFFFFFFFFFFFFFFFFFFFFFFFFFFFFFF PUSH32 0x0 AND SWAP3 DUP2 MLOAD PUSH32 0x70A0823100000000000000000000000000000000000000000000000000000000 DUP1 DUP3 MSTORE CALLER DUP4 DUP4 ADD MSTORE PUSH1 0x24 SWAP2 DUP6 DUP2 DUP5 DUP2 DUP11 GAS STATICCALL DUP1 ISZERO PUSH2 0x3A9 JUMPI DUP9 SWAP1 PUSH2 0x370 JUMPI JUMPDEST PUSH8 0xDE0B6B3A7640000 SWAP2 POP LT PUSH2 0x32F JUMPI DUP4 MLOAD SWAP1 DUP2 MSTORE ADDRESS DUP4 DUP3 ADD MSTORE DUP5 DUP2 DUP4 DUP2 DUP10 GAS STATICCALL SWAP1 DUP2 ISZERO PUSH2 0x276 JUMPI DUP8 SWAP2 PUSH2 0x302 JUMPI JUMPDEST POP DUP1 ISZERO PUSH2 0x2C1 JUMPI PUSH1 0xA SWAP1 DIV SWAP5 DUP6 ISZERO PUSH2 0x280 JUMPI DUP5 DUP8 SWAP2 CALLER DUP4 MSTORE PUSH1 0x1 DUP3 MSTORE DUP6 DUP4 KECCAK256 PUSH1 0x1 PUSH1 0xFF NOT DUP3 SLOAD AND OR SWAP1 SSTORE PUSH1 0x44 DUP7 MLOAD DUP1 SWAP5 DUP2 SWAP4 PUSH32 0xA9059CBB00000000000000000000000000000000000000000000000000000000 DUP4 MSTORE CALLER DUP10 DUP5 ADD MSTORE DUP12 DUP9 DUP5 ADD MSTORE GAS CALL SWAP1 DUP2 ISZERO PUSH2 0x276 JUMPI DUP8 SWAP2 PUSH2 0x23C JUMPI JUMPDEST POP ISZERO PUSH2 0x1FC JUMPI POP POP SWAP1 PUSH32 0x3C3F210F5FB914AD3522D4B423E3DB16130D0409700CB7B1827CCC90F341AC2F SWAP2 MLOAD SWAP3 DUP4 MSTORE CALLER SWAP3 LOG2 PUSH1 0x1 DUP2 SSTORE DUP1 RETURN JUMPDEST PUSH1 0x64 SWAP4 PUSH1 0xD SWAP3 SWAP4 MLOAD SWAP4 PUSH3 0x461BCD PUSH1 0xE5 SHL DUP6 MSTORE DUP5 ADD MSTORE DUP3 ADD MSTORE PUSH32 0x5472616E73666572206661696C00000000000000000000000000000000000000 PUSH1 0x44 DUP3 ADD MSTORE REVERT JUMPDEST SWAP1 POP DUP5 DUP2 DUP2 RETURNDATASIZE DUP4 GT PUSH2 0x26F JUMPI JUMPDEST PUSH2 0x253 DUP2 DUP4 PUSH2 0x4B9 JUMP JUMPDEST DUP2 ADD SUB SLT PUSH2 0x26B JUMPI MLOAD DUP1 ISZERO ISZERO DUP2 SUB PUSH2 0x26B JUMPI CODESIZE PUSH2 0x1C3 JUMP JUMPDEST DUP7 DUP1 REVERT JUMPDEST POP RETURNDATASIZE PUSH2 0x249 JUMP JUMPDEST DUP5 MLOAD RETURNDATASIZE DUP10 DUP3 RETURNDATACOPY RETURNDATASIZE SWAP1 REVERT JUMPDEST POP PUSH1 0x64 SWAP4 PUSH1 0x10 SWAP3 SWAP4 MLOAD SWAP4 PUSH3 0x461BCD PUSH1 0xE5 SHL DUP6 MSTORE DUP5 ADD MSTORE DUP3 ADD MSTORE PUSH32 0x416D6F756E7420746F6F20736D616C6C00000000000000000000000000000000 PUSH1 0x44 DUP3 ADD MSTORE REVERT JUMPDEST POP PUSH1 0x64 SWAP4 PUSH1 0xC SWAP3 SWAP4 MLOAD SWAP4 PUSH3 0x461BCD PUSH1 0xE5 SHL DUP6 MSTORE DUP5 ADD MSTORE DUP3 ADD MSTORE PUSH32 0x46617563657420656D7074790000000000000000000000000000000000000000 PUSH1 0x44 DUP3 ADD MSTORE REVERT JUMPDEST SWAP1 POP DUP5 DUP2 DUP2 RETURNDATASIZE DUP4 GT PUSH2 0x328 JUMPI JUMPDEST PUSH2 0x319 DUP2 DUP4 PUSH2 0x4B9 JUMP JUMPDEST DUP2 ADD SUB SLT PUSH2 0x26B JUMPI MLOAD CODESIZE PUSH2 0x154 JUMP JUMPDEST POP RETURNDATASIZE PUSH2 0x30F JUMP JUMPDEST POP PUSH1 0x64 SWAP4 PUSH1 0xC SWAP3 SWAP4 MLOAD SWAP4 PUSH3 0x461BCD PUSH1 0xE5 SHL DUP6 MSTORE DUP5 ADD MSTORE DUP3 ADD MSTORE PUSH32 0x4E6F7420616E206167656E740000000000000000000000000000000000000000 PUSH1 0x44 DUP3 ADD MSTORE REVERT JUMPDEST POP DUP6 DUP2 DUP2 RETURNDATASIZE DUP4 GT PUSH2 0x3A2 JUMPI JUMPDEST PUSH2 0x386 DUP2 DUP4 PUSH2 0x4B9 JUMP JUMPDEST DUP2 ADD SUB SLT PUSH2 0x39E JUMPI PUSH8 0xDE0B6B3A7640000 SWAP1 MLOAD PUSH2 0x125 JUMP JUMPDEST DUP8 DUP1 REVERT JUMPDEST POP RETURNDATASIZE PUSH2 0x37C JUMP JUMPDEST DUP6 MLOAD RETURNDATASIZE DUP11 DUP3 RETURNDATACOPY RETURNDATASIZE SWAP1 REVERT JUMPDEST PUSH1 0x64 SWAP4 POP MLOAD SWAP2 PUSH3 0x461BCD PUSH1 0xE5 SHL DUP4 MSTORE DUP3 ADD MSTORE PUSH1 0xE PUSH1 0x24 DUP3 ADD MSTORE PUSH32 0x416C72656164792070756C6C6564000000000000000000000000000000000000 PUSH1 0x44 DUP3 ADD MSTORE REVERT JUMPDEST MLOAD PUSH32 0x3EE5AEB500000000000000000000000000000000000000000000000000000000 DUP2 MSTORE REVERT JUMPDEST DUP3 DUP1 REVERT JUMPDEST SWAP1 POP CALLVALUE PUSH2 0x41A JUMPI PUSH1 0x20 CALLDATASIZE PUSH1 0x3 NOT ADD SLT PUSH2 0x41A JUMPI CALLDATALOAD PUSH20 0xFFFFFFFFFFFFFFFFFFFFFFFFFFFFFFFFFFFFFFFF DUP2 AND DUP1 SWAP2 SUB PUSH2 0x41A JUMPI DUP2 DUP4 PUSH1 0xFF SWAP3 PUSH1 0x20 SWAP6 MSTORE PUSH1 0x1 DUP6 MSTORE KECCAK256 SLOAD AND SWAP1 MLOAD SWAP1 ISZERO ISZERO DUP2 MSTORE RETURN JUMPDEST DUP5 SWAP1 CALLVALUE PUSH2 0x72 JUMPI DUP2 PUSH1 0x3 NOT CALLDATASIZE ADD SLT PUSH2 0x72 JUMPI PUSH1 0x20 SWAP1 PUSH20 0xFFFFFFFFFFFFFFFFFFFFFFFFFFFFFFFFFFFFFFFF PUSH32 0x0 AND DUP2 MSTORE RETURN JUMPDEST SWAP1 PUSH1 0x1F DUP1 NOT SWAP2 ADD AND DUP2 ADD SWAP1 DUP2 LT PUSH8 0xFFFFFFFFFFFFFFFF DUP3 GT OR PUSH2 0x4DB JUMPI PUSH1 0x40 MSTORE JUMP JUMPDEST PUSH32 0x4E487B7100000000000000000000000000000000000000000000000000000000 PUSH1 0x0 MSTORE PUSH1 0x41 PUSH1 0x4 MSTORE PUSH1 0x24 PUSH1 0x0 REVERT INVALID LOG2 PUSH5 0x6970667358 0x22 SLT KECCAK256 DUP5 DUP7 0xDD BLOCKHASH 0xDF CREATE 0x1E 0xC6 0xD5 PUSH31 0x7F2333A80D4138DA30575C5ED57206A378B75E88D4E764736F6C6343000818 STOP CALLER "},"methodIdentifiers":{"MIN_AGENT_BALANCE()":"e13598ad","hasClaimed(address)":"73b2e80e","killToken()":"2bd7cd17","pullKill()":"b9cc45fc"}},"storageLayout":{"storage":[{"astId":3726,"contract":"contracts/KillFaucet.sol:KILLFaucet","label":"_status","offset":0,"slot":"0","type":"t_uint256"},{"astId":7480,"contract":"contracts/KillFaucet.sol:KILLFaucet","label":"hasClaimed","offset":0,"slot":"1","type":"t_mapping(t_address,t_bool)"}],"types":{"t_address":{"encoding":"inplace","label":"address","numberOfBytes":"20"},"t_bool":{"encoding":"inplace","label":"bool","numberOfBytes":"1"},"t_mapping(t_address,t_bool)":{"encoding":"mapping","key":"t_address","label":"mapping(address => bool)","numberOfBytes":"32","value":"t_bool"},"t_uint256":{"encoding":"inplace","label":"uint256","numberOfBytes":"32"}}}}}}