{"contracts/KillGame.sol":{"KILLGame":{"abi":[{"inputs":[{"internalType":"address","name":"_tokenAddress","type":"address"}],"stateMutability":"nonpayable","type":"constructor"},{"anonymous":false,"inputs":[{"indexed":true,"internalType":"address","name":"account","type":"address"},{"indexed":true,"internalType":"address","name":"operator","type":"address"},{"indexed":false,"internalType":"bool","name":"approved","type":"bool"}],"name":"ApprovalForAll","type":"event"},{"anonymous":false,"inputs":[{"indexed":true,"internalType":"address","name":"operator","type":"address"},{"indexed":true,"internalType":"address","name":"from","type":"address"},{"indexed":true,"internalType":"address","name":"to","type":"address"},{"indexed":false,"internalType":"uint256[]","name":"ids","type":"uint256[]"},{"indexed":false,"internalType":"uint256[]","name":"values","type":"uint256[]"}],"name":"TransferBatch","type":"event"},{"anonymous":false,"inputs":[{"indexed":true,"internalType":"address","name":"operator","type":"address"},{"indexed":true,"internalType":"address","name":"from","type":"address"},{"indexed":true,"internalType":"address","name":"to","type":"address"},{"indexed":false,"internalType":"uint256","name":"id","type":"uint256"},{"indexed":false,"internalType":"uint256","name":"value","type":"uint256"}],"name":"TransferSingle","type":"event"},{"anonymous":false,"inputs":[{"indexed":false,"internalType":"string","name":"value","type":"string"},{"indexed":true,"internalType":"uint256","name":"id","type":"uint256"}],"name":"URI","type":"event"},{"inputs":[],"name":"BOOST_RECOIL","outputs":[{"internalType":"uint256","name":"","type":"uint256"}],"stateMutability":"view","type":"function"},{"inputs":[],"name":"BOOST_REQUIRED","outputs":[{"internalType":"uint256","name":"","type":"uint256"}],"stateMutability":"view","type":"function"},{"inputs":[],"name":"BURN_BPS","outputs":[{"internalType":"uint256","name":"","type":"uint256"}],"stateMutability":"view","type":"function"},{"inputs":[],"name":"SPAWN_COST","outputs":[{"internalType":"uint256","name":"","type":"uint256"}],"stateMutability":"view","type":"function"},{"inputs":[],"name":"TREASURY_BPS","outputs":[{"internalType":"uint256","name":"","type":"uint256"}],"stateMutability":"view","type":"function"},{"inputs":[{"internalType":"address","name":"","type":"address"},{"internalType":"uint256","name":"","type":"uint256"}],"name":"agentStacks","outputs":[{"internalType":"uint256","name":"birthBlock","type":"uint256"}],"stateMutability":"view","type":"function"},{"inputs":[{"internalType":"address","name":"account","type":"address"},{"internalType":"uint256","name":"id","type":"uint256"}],"name":"balanceOf","outputs":[{"internalType":"uint256","name":"","type":"uint256"}],"stateMutability":"view","type":"function"},{"inputs":[{"internalType":"address[]","name":"accounts","type":"address[]"},{"internalType":"uint256[]","name":"ids","type":"uint256[]"}],"name":"balanceOfBatch","outputs":[{"internalType":"uint256[]","name":"","type":"uint256[]"}],"stateMutability":"view","type":"function"},{"inputs":[{"internalType":"address","name":"agent","type":"address"},{"internalType":"uint256","name":"tokenId","type":"uint256"}],"name":"getPendingBounty","outputs":[{"internalType":"uint256","name":"","type":"uint256"}],"stateMutability":"view","type":"function"},{"inputs":[{"internalType":"uint16","name":"","type":"uint16"}],"name":"grid","outputs":[{"internalType":"uint16","name":"id","type":"uint16"},{"internalType":"uint256","name":"totalUnits","type":"uint256"}],"stateMutability":"view","type":"function"},{"inputs":[{"internalType":"address","name":"account","type":"address"},{"internalType":"address","name":"operator","type":"address"}],"name":"isApprovedForAll","outputs":[{"internalType":"bool","name":"","type":"bool"}],"stateMutability":"view","type":"function"},{"inputs":[{"internalType":"address","name":"target","type":"address"},{"internalType":"uint16","name":"cube","type":"uint16"},{"internalType":"uint256","name":"amountToKill","type":"uint256"},{"internalType":"bool","name":"boosted","type":"bool"}],"name":"kill","outputs":[{"internalType":"uint256","name":"netBounty","type":"uint256"}],"stateMutability":"nonpayable","type":"function"},{"inputs":[],"name":"killToken","outputs":[{"internalType":"contract IERC20","name":"","type":"address"}],"stateMutability":"view","type":"function"},{"inputs":[{"internalType":"uint16","name":"fromCube","type":"uint16"},{"internalType":"uint16","name":"toCube","type":"uint16"},{"internalType":"uint256","name":"units","type":"uint256"},{"internalType":"bool","name":"boosted","type":"bool"}],"name":"move","outputs":[],"stateMutability":"nonpayable","type":"function"},{"inputs":[{"internalType":"address","name":"from","type":"address"},{"internalType":"address","name":"to","type":"address"},{"internalType":"uint256[]","name":"ids","type":"uint256[]"},{"internalType":"uint256[]","name":"amounts","type":"uint256[]"},{"internalType":"bytes","name":"data","type":"bytes"}],"name":"safeBatchTransferFrom","outputs":[],"stateMutability":"nonpayable","type":"function"},{"inputs":[{"internalType":"address","name":"from","type":"address"},{"internalType":"address","name":"to","type":"address"},{"internalType":"uint256","name":"id","type":"uint256"},{"internalType":"uint256","name":"amount","type":"uint256"},{"internalType":"bytes","name":"data","type":"bytes"}],"name":"safeTransferFrom","outputs":[],"stateMutability":"nonpayable","type":"function"},{"inputs":[{"internalType":"address","name":"operator","type":"address"},{"internalType":"bool","name":"approved","type":"bool"}],"name":"setApprovalForAll","outputs":[],"stateMutability":"nonpayable","type":"function"},{"inputs":[{"internalType":"uint16","name":"cube","type":"uint16"},{"internalType":"uint256","name":"units","type":"uint256"},{"internalType":"bool","name":"boosted","type":"bool"}],"name":"spawn","outputs":[],"stateMutability":"nonpayable","type":"function"},{"inputs":[{"internalType":"bytes4","name":"interfaceId","type":"bytes4"}],"name":"supportsInterface","outputs":[{"internalType":"bool","name":"","type":"bool"}],"stateMutability":"view","type":"function"},{"inputs":[],"name":"treasuryBalance","outputs":[{"internalType":"uint256","name":"","type":"uint256"}],"stateMutability":"view","type":"function"},{"inputs":[{"internalType":"uint256","name":"","type":"uint256"}],"name":"uri","outputs":[{"internalType":"string","name":"","type":"string"}],"stateMutability":"view","type":"function"}],"evm":{"bytecode":{"linkReferences":{},"object":"60a06040523480156200001157600080fd5b5060405162003d9138038062003d91833981810160405281019062000037919062000125565b6040518060600160405280602a815260200162003d67602a91396200006281620000a660201b60201c565b5060016003819055508073ffffffffffffffffffffffffffffffffffffffff1660808173ffffffffffffffffffffffffffffffffffffffff168152505050620004b8565b8060029081620000b79190620003d1565b5050565b600080fd5b600073ffffffffffffffffffffffffffffffffffffffff82169050919050565b6000620000ed82620000c0565b9050919050565b620000ff81620000e0565b81146200010b57600080fd5b50565b6000815190506200011f81620000f4565b92915050565b6000602082840312156200013e576200013d620000bb565b5b60006200014e848285016200010e565b91505092915050565b600081519050919050565b7f4e487b7100000000000000000000000000000000000000000000000000000000600052604160045260246000fd5b7f4e487b7100000000000000000000000000000000000000000000000000000000600052602260045260246000fd5b60006002820490506001821680620001d957607f821691505b602082108103620001ef57620001ee62000191565b5b50919050565b60008190508160005260206000209050919050565b60006020601f8301049050919050565b600082821b905092915050565b600060088302620002597fffffffffffffffffffffffffffffffffffffffffffffffffffffffffffffffff826200021a565b6200026586836200021a565b95508019841693508086168417925050509392505050565b6000819050919050565b6000819050919050565b6000620002b2620002ac620002a6846200027d565b62000287565b6200027d565b9050919050565b6000819050919050565b620002ce8362000291565b620002e6620002dd82620002b9565b84845462000227565b825550505050565b600090565b620002fd620002ee565b6200030a818484620002c3565b505050565b5b81811015620003325762000326600082620002f3565b60018101905062000310565b5050565b601f82111562000381576200034b81620001f5565b62000356846200020a565b8101602085101562000366578190505b6200037e62000375856200020a565b8301826200030f565b50505b505050565b600082821c905092915050565b6000620003a66000198460080262000386565b1980831691505092915050565b6000620003c1838362000393565b9150826002028217905092915050565b620003dc8262000157565b67ffffffffffffffff811115620003f857620003f762000162565b5b620004048254620001c0565b6200041182828562000336565b600060209050601f83116001811462000449576000841562000434578287015190505b620004408582620003b3565b865550620004b0565b601f1984166200045986620001f5565b60005b8281101562000483578489015182556001820191506020850194506020810190506200045c565b86831015620004a357848901516200049f601f89168262000393565b8355505b6001600288020188555050505b505050505050565b608051613885620004e2600039600081816105ba015281816107ee0152610b7401526138856000f3fe608060405234801561001057600080fd5b50600436106101365760003560e01c80635d69a710116100b8578063c704c3f11161007c578063c704c3f11461034f578063cd000d331461036d578063e985e9c51461039e578063ea075ee1146103ce578063edbd5df8146103fe578063f242432a1461042e57610136565b80635d69a710146102ad5780636950ed03146102c95780637a2b3720146102e5578063a22cb46514610315578063a37a9fc01461033157610136565b8063313dab20116100ff578063313dab201461020557806344b70ac4146102235780634c25d197146102415780634cf5317b1461025f5780634e1273f41461027d57610136565b8062fdd58e1461013b57806301ffc9a71461016b5780630e89341c1461019b5780632bd7cd17146101cb5780632eb2c2d6146101e9575b600080fd5b6101556004803603810190610150919061206e565b61044a565b60405161016291906120bd565b60405180910390f35b61018560048036038101906101809190612130565b610512565b6040516101929190612178565b60405180910390f35b6101b560048036038101906101b09190612193565b610524565b6040516101c29190612250565b60405180910390f35b6101d36105b8565b6040516101e091906122d1565b60405180910390f35b61020360048036038101906101fe91906124e9565b6105dc565b005b61020d61067d565b60405161021a91906120bd565b60405180910390f35b61022b610683565b60405161023891906120bd565b60405180910390f35b610249610688565b60405161025691906120bd565b60405180910390f35b61026761068e565b60405161027491906120bd565b60405180910390f35b6102976004803603810190610292919061267b565b610694565b6040516102a491906127b1565b60405180910390f35b6102c760048036038101906102c29190612839565b6107a7565b005b6102e360048036038101906102de919061288c565b610980565b005b6102ff60048036038101906102fa91906128f3565b610a46565b60405161030c91906120bd565b60405180910390f35b61032f600480360381019061032a919061295a565b610c64565b005b610339610c7a565b60405161034691906120bd565b60405180910390f35b610357610c80565b60405161036491906120bd565b60405180910390f35b6103876004803603810190610382919061299a565b610c8c565b6040516103959291906129d6565b60405180910390f35b6103b860048036038101906103b391906129ff565b610cbe565b6040516103c59190612178565b60405180910390f35b6103e860048036038101906103e3919061206e565b610d52565b6040516103f591906120bd565b60405180910390f35b6104186004803603810190610413919061206e565b610dda565b60405161042591906120bd565b60405180910390f35b61044860048036038101906104439190612a3f565b610e05565b005b60008073ffffffffffffffffffffffffffffffffffffffff168373ffffffffffffffffffffffffffffffffffffffff16036104ba576040517f08c379a00000000000000000000000000000000000000000000000000000000081526004016104b190612b48565b60405180910390fd5b60008083815260200190815260200160002060008473ffffffffffffffffffffffffffffffffffffffff1673ffffffffffffffffffffffffffffffffffffffff16815260200190815260200160002054905092915050565b600061051d82610ea6565b9050919050565b60606002805461053390612b97565b80601f016020809104026020016040519081016040528092919081815260200182805461055f90612b97565b80156105ac5780601f10610581576101008083540402835291602001916105ac565b820191906000526020600020905b81548152906001019060200180831161058f57829003601f168201915b50505050509050919050565b7f000000000000000000000000000000000000000000000000000000000000000081565b6105e4610f88565b73ffffffffffffffffffffffffffffffffffffffff168573ffffffffffffffffffffffffffffffffffffffff16148061062a575061062985610624610f88565b610cbe565b5b610669576040517f08c379a000000000000000000000000000000000000000000000000000000000815260040161066090612c3a565b60405180910390fd5b6106768585858585610f90565b5050505050565b60065481565b604281565b61247681565b61029a81565b606081518351146106da576040517f08c379a00000000000000000000000000000000000000000000000000000000081526004016106d190612ccc565b60405180910390fd5b6000835167ffffffffffffffff8111156106f7576106f66122f1565b5b6040519080825280602002602001820160405280156107255781602001602082028036833780820191505090505b50905060005b845181101561079c5761077285828151811061074a57610749612cec565b5b602002602001015185838151811061076557610764612cec565b5b602002602001015161044a565b82828151811061078557610784612cec565b5b60200260200101818152505080600101905061072b565b508091505092915050565b6107af6112ab565b6000816107c0578361ffff166107d2565b60d88461ffff166107d19190612d4a565b5b90506000678ac7230489e80000846107ea9190612d7e565b90507f000000000000000000000000000000000000000000000000000000000000000073ffffffffffffffffffffffffffffffffffffffff166323b872dd3330846040518463ffffffff1660e01b815260040161084993929190612dcf565b6020604051808303816000875af1158015610868573d6000803e3d6000fd5b505050506040513d601f19601f8201168201806040525081019061088c9190612e1b565b6108cb576040517f08c379a00000000000000000000000000000000000000000000000000000000081526004016108c290612e94565b60405180910390fd5b612710612476826108dc9190612d7e565b6108e69190612ee3565b600660008282546108f79190612d4a565b92505081905550610919338386604051806020016040528060008152506112fa565b43600460003373ffffffffffffffffffffffffffffffffffffffff1673ffffffffffffffffffffffffffffffffffffffff168152602001908152602001600020600084815260200190815260200160002060000181905550505061097b6114aa565b505050565b600081610991578461ffff166109a3565b60d88561ffff166109a29190612d4a565b5b90506000826109b6578461ffff166109c8565b60d88561ffff166109c79190612d4a565b5b90506109e633338487604051806020016040528060008152506114b4565b43600460003373ffffffffffffffffffffffffffffffffffffffff1673ffffffffffffffffffffffffffffffffffffffff168152602001908152602001600020600083815260200190815260200160002060000181905550505050505050565b6000610a506112ab565b600082610a61578461ffff16610a73565b60d88561ffff16610a729190612d4a565b5b9050600083610a8e57600285610a899190612d7e565b610a9d565b61029a85610a9c9190612d7e565b5b905080610aaa338461044a565b1015610aeb576040517f08c379a0000000000000000000000000000000000000000000000000000000008152600401610ae290612f60565b60405180910390fd5b6000610af78884610d52565b9050600085610b065786610b14565b604287610b139190612d7e565b5b9050610b2189858961174f565b610b2c33858361174f565b600061271061029a84610b3f9190612d7e565b610b499190612ee3565b90508083610b579190612f80565b95508260066000828254610b6b9190612f80565b925050819055507f000000000000000000000000000000000000000000000000000000000000000073ffffffffffffffffffffffffffffffffffffffff1663a9059cbb33886040518363ffffffff1660e01b8152600401610bcd929190612fb4565b6020604051808303816000875af1158015610bec573d6000803e3d6000fd5b505050506040513d601f19601f82011682018060405250810190610c109190612e1b565b610c4f576040517f08c379a0000000000000000000000000000000000000000000000000000000008152600401610c4690613029565b60405180910390fd5b5050505050610c5c6114aa565b949350505050565b610c76610c6f610f88565b8383611995565b5050565b61029a81565b678ac7230489e8000081565b60056020528060005260406000206000915090508060000160009054906101000a900461ffff16908060010154905082565b6000600160008473ffffffffffffffffffffffffffffffffffffffff1673ffffffffffffffffffffffffffffffffffffffff16815260200190815260200160002060008373ffffffffffffffffffffffffffffffffffffffff1673ffffffffffffffffffffffffffffffffffffffff16815260200190815260200160002060009054906101000a900460ff16905092915050565b600080600460008573ffffffffffffffffffffffffffffffffffffffff1673ffffffffffffffffffffffffffffffffffffffff16815260200190815260200160002060008481526020019081526020016000206000015443610db49190612f80565b905061271081600654610dc79190612d7e565b610dd19190612ee3565b91505092915050565b6004602052816000526040600020602052806000526040600020600091509150508060000154905081565b610e0d610f88565b73ffffffffffffffffffffffffffffffffffffffff168573ffffffffffffffffffffffffffffffffffffffff161480610e535750610e5285610e4d610f88565b610cbe565b5b610e92576040517f08c379a0000000000000000000000000000000000000000000000000000000008152600401610e8990612c3a565b60405180910390fd5b610e9f85858585856114b4565b5050505050565b60007fd9b67a26000000000000000000000000000000000000000000000000000000007bffffffffffffffffffffffffffffffffffffffffffffffffffffffff1916827bffffffffffffffffffffffffffffffffffffffffffffffffffffffff19161480610f7157507f0e89341c000000000000000000000000000000000000000000000000000000007bffffffffffffffffffffffffffffffffffffffffffffffffffffffff1916827bffffffffffffffffffffffffffffffffffffffffffffffffffffffff1916145b80610f815750610f8082611b01565b5b9050919050565b600033905090565b8151835114610fd4576040517f08c379a0000000000000000000000000000000000000000000000000000000008152600401610fcb906130bb565b60405180910390fd5b600073ffffffffffffffffffffffffffffffffffffffff168473ffffffffffffffffffffffffffffffffffffffff1603611043576040517f08c379a000000000000000000000000000000000000000000000000000000000815260040161103a9061314d565b60405180910390fd5b600061104d610f88565b905061105d818787878787611b6b565b60005b845181101561120857600085828151811061107e5761107d612cec565b5b60200260200101519050600085838151811061109d5761109c612cec565b5b60200260200101519050600080600084815260200190815260200160002060008b73ffffffffffffffffffffffffffffffffffffffff1673ffffffffffffffffffffffffffffffffffffffff1681526020019081526020016000205490508181101561113e576040517f08c379a0000000000000000000000000000000000000000000000000000000008152600401611135906131df565b60405180910390fd5b81810360008085815260200190815260200160002060008c73ffffffffffffffffffffffffffffffffffffffff1673ffffffffffffffffffffffffffffffffffffffff168152602001908152602001600020819055508160008085815260200190815260200160002060008b73ffffffffffffffffffffffffffffffffffffffff1673ffffffffffffffffffffffffffffffffffffffff16815260200190815260200160002060008282546111f39190612d4a565b92505081905550505050806001019050611060565b508473ffffffffffffffffffffffffffffffffffffffff168673ffffffffffffffffffffffffffffffffffffffff168273ffffffffffffffffffffffffffffffffffffffff167f4a39dc06d4c0dbc64b70af90fd698a233a518aa5d07e595d983b8c0526c8f7fb878760405161127f9291906131ff565b60405180910390a4611295818787878787611b73565b6112a3818787878787611b7b565b505050505050565b6002600354036112f0576040517f08c379a00000000000000000000000000000000000000000000000000000000081526004016112e790613282565b60405180910390fd5b6002600381905550565b600073ffffffffffffffffffffffffffffffffffffffff168473ffffffffffffffffffffffffffffffffffffffff1603611369576040517f08c379a000000000000000000000000000000000000000000000000000000000815260040161136090613314565b60405180910390fd5b6000611373610f88565b9050600061138085611d52565b9050600061138d85611d52565b905061139e83600089858589611b6b565b8460008088815260200190815260200160002060008973ffffffffffffffffffffffffffffffffffffffff1673ffffffffffffffffffffffffffffffffffffffff16815260200190815260200160002060008282546113fd9190612d4a565b925050819055508673ffffffffffffffffffffffffffffffffffffffff16600073ffffffffffffffffffffffffffffffffffffffff168473ffffffffffffffffffffffffffffffffffffffff167fc3d58168c5ae7397731d063d5bbf3d657854427343f4c083240f7aacaa2d0f62898960405161147b929190613334565b60405180910390a461149283600089858589611b73565b6114a183600089898989611dcc565b50505050505050565b6001600381905550565b600073ffffffffffffffffffffffffffffffffffffffff168473ffffffffffffffffffffffffffffffffffffffff1603611523576040517f08c379a000000000000000000000000000000000000000000000000000000000815260040161151a9061314d565b60405180910390fd5b600061152d610f88565b9050600061153a85611d52565b9050600061154785611d52565b9050611557838989858589611b6b565b600080600088815260200190815260200160002060008a73ffffffffffffffffffffffffffffffffffffffff1673ffffffffffffffffffffffffffffffffffffffff168152602001908152602001600020549050858110156115ee576040517f08c379a00000000000000000000000000000000000000000000000000000000081526004016115e5906131df565b60405180910390fd5b85810360008089815260200190815260200160002060008b73ffffffffffffffffffffffffffffffffffffffff1673ffffffffffffffffffffffffffffffffffffffff168152602001908152602001600020819055508560008089815260200190815260200160002060008a73ffffffffffffffffffffffffffffffffffffffff1673ffffffffffffffffffffffffffffffffffffffff16815260200190815260200160002060008282546116a39190612d4a565b925050819055508773ffffffffffffffffffffffffffffffffffffffff168973ffffffffffffffffffffffffffffffffffffffff168573ffffffffffffffffffffffffffffffffffffffff167fc3d58168c5ae7397731d063d5bbf3d657854427343f4c083240f7aacaa2d0f628a8a604051611720929190613334565b60405180910390a4611736848a8a86868a611b73565b611744848a8a8a8a8a611dcc565b505050505050505050565b600073ffffffffffffffffffffffffffffffffffffffff168373ffffffffffffffffffffffffffffffffffffffff16036117be576040517f08c379a00000000000000000000000000000000000000000000000000000000081526004016117b5906133cf565b60405180910390fd5b60006117c8610f88565b905060006117d584611d52565b905060006117e284611d52565b905061180283876000858560405180602001604052806000815250611b6b565b600080600087815260200190815260200160002060008873ffffffffffffffffffffffffffffffffffffffff1673ffffffffffffffffffffffffffffffffffffffff16815260200190815260200160002054905084811015611899576040517f08c379a000000000000000000000000000000000000000000000000000000000815260040161189090613461565b60405180910390fd5b84810360008088815260200190815260200160002060008973ffffffffffffffffffffffffffffffffffffffff1673ffffffffffffffffffffffffffffffffffffffff16815260200190815260200160002081905550600073ffffffffffffffffffffffffffffffffffffffff168773ffffffffffffffffffffffffffffffffffffffff168573ffffffffffffffffffffffffffffffffffffffff167fc3d58168c5ae7397731d063d5bbf3d657854427343f4c083240f7aacaa2d0f628989604051611966929190613334565b60405180910390a461198c84886000868660405180602001604052806000815250611b73565b50505050505050565b8173ffffffffffffffffffffffffffffffffffffffff168373ffffffffffffffffffffffffffffffffffffffff1603611a03576040517f08c379a00000000000000000000000000000000000000000000000000000000081526004016119fa906134f3565b60405180910390fd5b80600160008573ffffffffffffffffffffffffffffffffffffffff1673ffffffffffffffffffffffffffffffffffffffff16815260200190815260200160002060008473ffffffffffffffffffffffffffffffffffffffff1673ffffffffffffffffffffffffffffffffffffffff16815260200190815260200160002060006101000a81548160ff0219169083151502179055508173ffffffffffffffffffffffffffffffffffffffff168373ffffffffffffffffffffffffffffffffffffffff167f17307eab39ab6107e8899845ad3d59bd9653f200f220920489ca2b5937696c3183604051611af49190612178565b60405180910390a3505050565b60007f01ffc9a7000000000000000000000000000000000000000000000000000000007bffffffffffffffffffffffffffffffffffffffffffffffffffffffff1916827bffffffffffffffffffffffffffffffffffffffffffffffffffffffff1916149050919050565b505050505050565b505050505050565b611b9a8473ffffffffffffffffffffffffffffffffffffffff16611fa3565b15611d4a578373ffffffffffffffffffffffffffffffffffffffff1663bc197c8187878686866040518663ffffffff1660e01b8152600401611be0959493929190613568565b6020604051808303816000875af1925050508015611c1c57506040513d601f19601f82011682018060405250810190611c1991906135e5565b60015b611cc157611c2861361f565b806308c379a003611c845750611c3c613641565b80611c475750611c86565b806040517f08c379a0000000000000000000000000000000000000000000000000000000008152600401611c7b9190612250565b60405180910390fd5b505b6040517f08c379a0000000000000000000000000000000000000000000000000000000008152600401611cb890613743565b60405180910390fd5b63bc197c8160e01b7bffffffffffffffffffffffffffffffffffffffffffffffffffffffff1916817bffffffffffffffffffffffffffffffffffffffffffffffffffffffff191614611d48576040517f08c379a0000000000000000000000000000000000000000000000000000000008152600401611d3f906137d5565b60405180910390fd5b505b505050505050565b60606000600167ffffffffffffffff811115611d7157611d706122f1565b5b604051908082528060200260200182016040528015611d9f5781602001602082028036833780820191505090505b5090508281600081518110611db757611db6612cec565b5b60200260200101818152505080915050919050565b611deb8473ffffffffffffffffffffffffffffffffffffffff16611fa3565b15611f9b578373ffffffffffffffffffffffffffffffffffffffff1663f23a6e6187878686866040518663ffffffff1660e01b8152600401611e319594939291906137f5565b6020604051808303816000875af1925050508015611e6d57506040513d601f19601f82011682018060405250810190611e6a91906135e5565b60015b611f1257611e7961361f565b806308c379a003611ed55750611e8d613641565b80611e985750611ed7565b806040517f08c379a0000000000000000000000000000000000000000000000000000000008152600401611ecc9190612250565b60405180910390fd5b505b6040517f08c379a0000000000000000000000000000000000000000000000000000000008152600401611f0990613743565b60405180910390fd5b63f23a6e6160e01b7bffffffffffffffffffffffffffffffffffffffffffffffffffffffff1916817bffffffffffffffffffffffffffffffffffffffffffffffffffffffff191614611f99576040517f08c379a0000000000000000000000000000000000000000000000000000000008152600401611f90906137d5565b60405180910390fd5b505b505050505050565b6000808273ffffffffffffffffffffffffffffffffffffffff163b119050919050565b6000604051905090565b600080fd5b600080fd5b600073ffffffffffffffffffffffffffffffffffffffff82169050919050565b600061200582611fda565b9050919050565b61201581611ffa565b811461202057600080fd5b50565b6000813590506120328161200c565b92915050565b6000819050919050565b61204b81612038565b811461205657600080fd5b50565b60008135905061206881612042565b92915050565b6000806040838503121561208557612084611fd0565b5b600061209385828601612023565b92505060206120a485828601612059565b9150509250929050565b6120b781612038565b82525050565b60006020820190506120d260008301846120ae565b92915050565b60007fffffffff0000000000000000000000000000000000000000000000000000000082169050919050565b61210d816120d8565b811461211857600080fd5b50565b60008135905061212a81612104565b92915050565b60006020828403121561214657612145611fd0565b5b60006121548482850161211b565b91505092915050565b60008115159050919050565b6121728161215d565b82525050565b600060208201905061218d6000830184612169565b92915050565b6000602082840312156121a9576121a8611fd0565b5b60006121b784828501612059565b91505092915050565b600081519050919050565b600082825260208201905092915050565b60005b838110156121fa5780820151818401526020810190506121df565b60008484015250505050565b6000601f19601f8301169050919050565b6000612222826121c0565b61222c81856121cb565b935061223c8185602086016121dc565b61224581612206565b840191505092915050565b6000602082019050818103600083015261226a8184612217565b905092915050565b6000819050919050565b600061229761229261228d84611fda565b612272565b611fda565b9050919050565b60006122a98261227c565b9050919050565b60006122bb8261229e565b9050919050565b6122cb816122b0565b82525050565b60006020820190506122e660008301846122c2565b92915050565b600080fd5b7f4e487b7100000000000000000000000000000000000000000000000000000000600052604160045260246000fd5b61232982612206565b810181811067ffffffffffffffff82111715612348576123476122f1565b5b80604052505050565b600061235b611fc6565b90506123678282612320565b919050565b600067ffffffffffffffff821115612387576123866122f1565b5b602082029050602081019050919050565b600080fd5b60006123b06123ab8461236c565b612351565b905080838252602082019050602084028301858111156123d3576123d2612398565b5b835b818110156123fc57806123e88882612059565b8452602084019350506020810190506123d5565b5050509392505050565b600082601f83011261241b5761241a6122ec565b5b813561242b84826020860161239d565b91505092915050565b600080fd5b600067ffffffffffffffff821115612454576124536122f1565b5b61245d82612206565b9050602081019050919050565b82818337600083830152505050565b600061248c61248784612439565b612351565b9050828152602081018484840111156124a8576124a7612434565b5b6124b384828561246a565b509392505050565b600082601f8301126124d0576124cf6122ec565b5b81356124e0848260208601612479565b91505092915050565b600080600080600060a0868803121561250557612504611fd0565b5b600061251388828901612023565b955050602061252488828901612023565b945050604086013567ffffffffffffffff81111561254557612544611fd5565b5b61255188828901612406565b935050606086013567ffffffffffffffff81111561257257612571611fd5565b5b61257e88828901612406565b925050608086013567ffffffffffffffff81111561259f5761259e611fd5565b5b6125ab888289016124bb565b9150509295509295909350565b600067ffffffffffffffff8211156125d3576125d26122f1565b5b602082029050602081019050919050565b60006125f76125f2846125b8565b612351565b9050808382526020820190506020840283018581111561261a57612619612398565b5b835b81811015612643578061262f8882612023565b84526020840193505060208101905061261c565b5050509392505050565b600082601f830112612662576126616122ec565b5b81356126728482602086016125e4565b91505092915050565b6000806040838503121561269257612691611fd0565b5b600083013567ffffffffffffffff8111156126b0576126af611fd5565b5b6126bc8582860161264d565b925050602083013567ffffffffffffffff8111156126dd576126dc611fd5565b5b6126e985828601612406565b9150509250929050565b600081519050919050565b600082825260208201905092915050565b6000819050602082019050919050565b61272881612038565b82525050565b600061273a838361271f565b60208301905092915050565b6000602082019050919050565b600061275e826126f3565b61276881856126fe565b93506127738361270f565b8060005b838110156127a457815161278b888261272e565b975061279683612746565b925050600181019050612777565b5085935050505092915050565b600060208201905081810360008301526127cb8184612753565b905092915050565b600061ffff82169050919050565b6127ea816127d3565b81146127f557600080fd5b50565b600081359050612807816127e1565b92915050565b6128168161215d565b811461282157600080fd5b50565b6000813590506128338161280d565b92915050565b60008060006060848603121561285257612851611fd0565b5b6000612860868287016127f8565b935050602061287186828701612059565b925050604061288286828701612824565b9150509250925092565b600080600080608085870312156128a6576128a5611fd0565b5b60006128b4878288016127f8565b94505060206128c5878288016127f8565b93505060406128d687828801612059565b92505060606128e787828801612824565b91505092959194509250565b6000806000806080858703121561290d5761290c611fd0565b5b600061291b87828801612023565b945050602061292c878288016127f8565b935050604061293d87828801612059565b925050606061294e87828801612824565b91505092959194509250565b6000806040838503121561297157612970611fd0565b5b600061297f85828601612023565b925050602061299085828601612824565b9150509250929050565b6000602082840312156129b0576129af611fd0565b5b60006129be848285016127f8565b91505092915050565b6129d0816127d3565b82525050565b60006040820190506129eb60008301856129c7565b6129f860208301846120ae565b9392505050565b60008060408385031215612a1657612a15611fd0565b5b6000612a2485828601612023565b9250506020612a3585828601612023565b9150509250929050565b600080600080600060a08688031215612a5b57612a5a611fd0565b5b6000612a6988828901612023565b9550506020612a7a88828901612023565b9450506040612a8b88828901612059565b9350506060612a9c88828901612059565b925050608086013567ffffffffffffffff811115612abd57612abc611fd5565b5b612ac9888289016124bb565b9150509295509295909350565b7f455243313135353a2061646472657373207a65726f206973206e6f742061207660008201527f616c6964206f776e657200000000000000000000000000000000000000000000602082015250565b6000612b32602a836121cb565b9150612b3d82612ad6565b604082019050919050565b60006020820190508181036000830152612b6181612b25565b9050919050565b7f4e487b7100000000000000000000000000000000000000000000000000000000600052602260045260246000fd5b60006002820490506001821680612baf57607f821691505b602082108103612bc257612bc1612b68565b5b50919050565b7f455243313135353a2063616c6c6572206973206e6f7420746f6b656e206f776e60008201527f6572206f7220617070726f766564000000000000000000000000000000000000602082015250565b6000612c24602e836121cb565b9150612c2f82612bc8565b604082019050919050565b60006020820190508181036000830152612c5381612c17565b9050919050565b7f455243313135353a206163636f756e747320616e6420696473206c656e67746860008201527f206d69736d617463680000000000000000000000000000000000000000000000602082015250565b6000612cb66029836121cb565b9150612cc182612c5a565b604082019050919050565b60006020820190508181036000830152612ce581612ca9565b9050919050565b7f4e487b7100000000000000000000000000000000000000000000000000000000600052603260045260246000fd5b7f4e487b7100000000000000000000000000000000000000000000000000000000600052601160045260246000fd5b6000612d5582612038565b9150612d6083612038565b9250828201905080821115612d7857612d77612d1b565b5b92915050565b6000612d8982612038565b9150612d9483612038565b9250828202612da281612038565b91508282048414831517612db957612db8612d1b565b5b5092915050565b612dc981611ffa565b82525050565b6000606082019050612de46000830186612dc0565b612df16020830185612dc0565b612dfe60408301846120ae565b949350505050565b600081519050612e158161280d565b92915050565b600060208284031215612e3157612e30611fd0565b5b6000612e3f84828501612e06565b91505092915050565b7f537061776e205061796d656e74204661696c6564000000000000000000000000600082015250565b6000612e7e6014836121cb565b9150612e8982612e48565b602082019050919050565b60006020820190508181036000830152612ead81612e71565b9050919050565b7f4e487b7100000000000000000000000000000000000000000000000000000000600052601260045260246000fd5b6000612eee82612038565b9150612ef983612038565b925082612f0957612f08612eb4565b5b828204905092915050565b7f496e73756666696369656e7420466f7263650000000000000000000000000000600082015250565b6000612f4a6012836121cb565b9150612f5582612f14565b602082019050919050565b60006020820190508181036000830152612f7981612f3d565b9050919050565b6000612f8b82612038565b9150612f9683612038565b9250828203905081811115612fae57612fad612d1b565b5b92915050565b6000604082019050612fc96000830185612dc0565b612fd660208301846120ae565b9392505050565b7f426f756e7479205472616e73666572204661696c656400000000000000000000600082015250565b60006130136016836121cb565b915061301e82612fdd565b602082019050919050565b6000602082019050818103600083015261304281613006565b9050919050565b7f455243313135353a2069647320616e6420616d6f756e7473206c656e6774682060008201527f6d69736d61746368000000000000000000000000000000000000000000000000602082015250565b60006130a56028836121cb565b91506130b082613049565b604082019050919050565b600060208201905081810360008301526130d481613098565b9050919050565b7f455243313135353a207472616e7366657220746f20746865207a65726f20616460008201527f6472657373000000000000000000000000000000000000000000000000000000602082015250565b60006131376025836121cb565b9150613142826130db565b604082019050919050565b600060208201905081810360008301526131668161312a565b9050919050565b7f455243313135353a20696e73756666696369656e742062616c616e636520666f60008201527f72207472616e7366657200000000000000000000000000000000000000000000602082015250565b60006131c9602a836121cb565b91506131d48261316d565b604082019050919050565b600060208201905081810360008301526131f8816131bc565b9050919050565b600060408201905081810360008301526132198185612753565b9050818103602083015261322d8184612753565b90509392505050565b7f5265656e7472616e637947756172643a207265656e7472616e742063616c6c00600082015250565b600061326c601f836121cb565b915061327782613236565b602082019050919050565b6000602082019050818103600083015261329b8161325f565b9050919050565b7f455243313135353a206d696e7420746f20746865207a65726f2061646472657360008201527f7300000000000000000000000000000000000000000000000000000000000000602082015250565b60006132fe6021836121cb565b9150613309826132a2565b604082019050919050565b6000602082019050818103600083015261332d816132f1565b9050919050565b600060408201905061334960008301856120ae565b61335660208301846120ae565b9392505050565b7f455243313135353a206275726e2066726f6d20746865207a65726f206164647260008201527f6573730000000000000000000000000000000000000000000000000000000000602082015250565b60006133b96023836121cb565b91506133c48261335d565b604082019050919050565b600060208201905081810360008301526133e8816133ac565b9050919050565b7f455243313135353a206275726e20616d6f756e7420657863656564732062616c60008201527f616e636500000000000000000000000000000000000000000000000000000000602082015250565b600061344b6024836121cb565b9150613456826133ef565b604082019050919050565b6000602082019050818103600083015261347a8161343e565b9050919050565b7f455243313135353a2073657474696e6720617070726f76616c2073746174757360008201527f20666f722073656c660000000000000000000000000000000000000000000000602082015250565b60006134dd6029836121cb565b91506134e882613481565b604082019050919050565b6000602082019050818103600083015261350c816134d0565b9050919050565b600081519050919050565b600082825260208201905092915050565b600061353a82613513565b613544818561351e565b93506135548185602086016121dc565b61355d81612206565b840191505092915050565b600060a08201905061357d6000830188612dc0565b61358a6020830187612dc0565b818103604083015261359c8186612753565b905081810360608301526135b08185612753565b905081810360808301526135c4818461352f565b90509695505050505050565b6000815190506135df81612104565b92915050565b6000602082840312156135fb576135fa611fd0565b5b6000613609848285016135d0565b91505092915050565b60008160e01c9050919050565b600060033d111561363e5760046000803e61363b600051613612565b90505b90565b600060443d106136ce57613653611fc6565b60043d036004823e80513d602482011167ffffffffffffffff8211171561367b5750506136ce565b808201805167ffffffffffffffff81111561369957505050506136ce565b80602083010160043d0385018111156136b65750505050506136ce565b6136c582602001850186612320565b82955050505050505b90565b7f455243313135353a207472616e7366657220746f206e6f6e2d4552433131353560008201527f526563656976657220696d706c656d656e746572000000000000000000000000602082015250565b600061372d6034836121cb565b9150613738826136d1565b604082019050919050565b6000602082019050818103600083015261375c81613720565b9050919050565b7f455243313135353a204552433131353552656365697665722072656a6563746560008201527f6420746f6b656e73000000000000000000000000000000000000000000000000602082015250565b60006137bf6028836121cb565b91506137ca82613763565b604082019050919050565b600060208201905081810360008301526137ee816137b2565b9050919050565b600060a08201905061380a6000830188612dc0565b6138176020830187612dc0565b61382460408301866120ae565b61383160608301856120ae565b8181036080830152613843818461352f565b9050969550505050505056fea264697066735822122048c5a75c3b5f9c4c21f243e0ad0190dadcacaf327d03e1dc08cfa88f0f452f5064736f6c6343000818003368747470733a2f2f6170692e6b696c6c67616d652e61692f6d657461646174612f7b69647d2e6a736f6e","opcodes":"PUSH1 0xA0 PUSH1 0x40 MSTORE CALLVALUE DUP1 ISZERO PUSH3 0x11 JUMPI PUSH1 0x0 DUP1 REVERT JUMPDEST POP PUSH1 0x40 MLOAD PUSH3 0x3D91 CODESIZE SUB DUP1 PUSH3 0x3D91 DUP4 CODECOPY DUP2 DUP2 ADD PUSH1 0x40 MSTORE DUP2 ADD SWAP1 PUSH3 0x37 SWAP2 SWAP1 PUSH3 0x125 JUMP JUMPDEST PUSH1 0x40 MLOAD DUP1 PUSH1 0x60 ADD PUSH1 0x40 MSTORE DUP1 PUSH1 0x2A DUP2 MSTORE PUSH1 0x20 ADD PUSH3 0x3D67 PUSH1 0x2A SWAP2 CODECOPY PUSH3 0x62 DUP2 PUSH3 0xA6 PUSH1 0x20 SHL PUSH1 0x20 SHR JUMP JUMPDEST POP PUSH1 0x1 PUSH1 0x3 DUP2 SWAP1 SSTORE POP DUP1 PUSH20 0xFFFFFFFFFFFFFFFFFFFFFFFFFFFFFFFFFFFFFFFF AND PUSH1 0x80 DUP2 PUSH20 0xFFFFFFFFFFFFFFFFFFFFFFFFFFFFFFFFFFFFFFFF AND DUP2 MSTORE POP POP POP PUSH3 0x4B8 JUMP JUMPDEST DUP1 PUSH1 0x2 SWAP1 DUP2 PUSH3 0xB7 SWAP2 SWAP1 PUSH3 0x3D1 JUMP JUMPDEST POP POP JUMP JUMPDEST PUSH1 0x0 DUP1 REVERT JUMPDEST PUSH1 0x0 PUSH20 0xFFFFFFFFFFFFFFFFFFFFFFFFFFFFFFFFFFFFFFFF DUP3 AND SWAP1 POP SWAP2 SWAP1 POP JUMP JUMPDEST PUSH1 0x0 PUSH3 0xED DUP3 PUSH3 0xC0 JUMP JUMPDEST SWAP1 POP SWAP2 SWAP1 POP JUMP JUMPDEST PUSH3 0xFF DUP2 PUSH3 0xE0 JUMP JUMPDEST DUP2 EQ PUSH3 0x10B JUMPI PUSH1 0x0 DUP1 REVERT JUMPDEST POP JUMP JUMPDEST PUSH1 0x0 DUP2 MLOAD SWAP1 POP PUSH3 0x11F DUP2 PUSH3 0xF4 JUMP JUMPDEST SWAP3 SWAP2 POP POP JUMP JUMPDEST PUSH1 0x0 PUSH1 0x20 DUP3 DUP5 SUB SLT ISZERO PUSH3 0x13E JUMPI PUSH3 0x13D PUSH3 0xBB JUMP JUMPDEST JUMPDEST PUSH1 0x0 PUSH3 0x14E DUP5 DUP3 DUP6 ADD PUSH3 0x10E JUMP JUMPDEST SWAP2 POP POP SWAP3 SWAP2 POP POP JUMP JUMPDEST PUSH1 0x0 DUP2 MLOAD SWAP1 POP SWAP2 SWAP1 POP JUMP JUMPDEST PUSH32 0x4E487B7100000000000000000000000000000000000000000000000000000000 PUSH1 0x0 MSTORE PUSH1 0x41 PUSH1 0x4 MSTORE PUSH1 0x24 PUSH1 0x0 REVERT JUMPDEST PUSH32 0x4E487B7100000000000000000000000000000000000000000000000000000000 PUSH1 0x0 MSTORE PUSH1 0x22 PUSH1 0x4 MSTORE PUSH1 0x24 PUSH1 0x0 REVERT JUMPDEST PUSH1 0x0 PUSH1 0x2 DUP3 DIV SWAP1 POP PUSH1 0x1 DUP3 AND DUP1 PUSH3 0x1D9 JUMPI PUSH1 0x7F DUP3 AND SWAP2 POP JUMPDEST PUSH1 0x20 DUP3 LT DUP2 SUB PUSH3 0x1EF JUMPI PUSH3 0x1EE PUSH3 0x191 JUMP JUMPDEST JUMPDEST POP SWAP2 SWAP1 POP JUMP JUMPDEST PUSH1 0x0 DUP2 SWAP1 POP DUP2 PUSH1 0x0 MSTORE PUSH1 0x20 PUSH1 0x0 KECCAK256 SWAP1 POP SWAP2 SWAP1 POP JUMP JUMPDEST PUSH1 0x0 PUSH1 0x20 PUSH1 0x1F DUP4 ADD DIV SWAP1 POP SWAP2 SWAP1 POP JUMP JUMPDEST PUSH1 0x0 DUP3 DUP3 SHL SWAP1 POP SWAP3 SWAP2 POP POP JUMP JUMPDEST PUSH1 0x0 PUSH1 0x8 DUP4 MUL PUSH3 0x259 PUSH32 0xFFFFFFFFFFFFFFFFFFFFFFFFFFFFFFFFFFFFFFFFFFFFFFFFFFFFFFFFFFFFFFFF DUP3 PUSH3 0x21A JUMP JUMPDEST PUSH3 0x265 DUP7 DUP4 PUSH3 0x21A JUMP JUMPDEST SWAP6 POP DUP1 NOT DUP5 AND SWAP4 POP DUP1 DUP7 AND DUP5 OR SWAP3 POP POP POP SWAP4 SWAP3 POP POP POP JUMP JUMPDEST PUSH1 0x0 DUP2 SWAP1 POP SWAP2 SWAP1 POP JUMP JUMPDEST PUSH1 0x0 DUP2 SWAP1 POP SWAP2 SWAP1 POP JUMP JUMPDEST PUSH1 0x0 PUSH3 0x2B2 PUSH3 0x2AC PUSH3 0x2A6 DUP5 PUSH3 0x27D JUMP JUMPDEST PUSH3 0x287 JUMP JUMPDEST PUSH3 0x27D JUMP JUMPDEST SWAP1 POP SWAP2 SWAP1 POP JUMP JUMPDEST PUSH1 0x0 DUP2 SWAP1 POP SWAP2 SWAP1 POP JUMP JUMPDEST PUSH3 0x2CE DUP4 PUSH3 0x291 JUMP JUMPDEST PUSH3 0x2E6 PUSH3 0x2DD DUP3 PUSH3 0x2B9 JUMP JUMPDEST DUP5 DUP5 SLOAD PUSH3 0x227 JUMP JUMPDEST DUP3 SSTORE POP POP POP POP JUMP JUMPDEST PUSH1 0x0 SWAP1 JUMP JUMPDEST PUSH3 0x2FD PUSH3 0x2EE JUMP JUMPDEST PUSH3 0x30A DUP2 DUP5 DUP5 PUSH3 0x2C3 JUMP JUMPDEST POP POP POP JUMP JUMPDEST JUMPDEST DUP2 DUP2 LT ISZERO PUSH3 0x332 JUMPI PUSH3 0x326 PUSH1 0x0 DUP3 PUSH3 0x2F3 JUMP JUMPDEST PUSH1 0x1 DUP2 ADD SWAP1 POP PUSH3 0x310 JUMP JUMPDEST POP POP JUMP JUMPDEST PUSH1 0x1F DUP3 GT ISZERO PUSH3 0x381 JUMPI PUSH3 0x34B DUP2 PUSH3 0x1F5 JUMP JUMPDEST PUSH3 0x356 DUP5 PUSH3 0x20A JUMP JUMPDEST DUP2 ADD PUSH1 0x20 DUP6 LT ISZERO PUSH3 0x366 JUMPI DUP2 SWAP1 POP JUMPDEST PUSH3 0x37E PUSH3 0x375 DUP6 PUSH3 0x20A JUMP JUMPDEST DUP4 ADD DUP3 PUSH3 0x30F JUMP JUMPDEST POP POP JUMPDEST POP POP POP JUMP JUMPDEST PUSH1 0x0 DUP3 DUP3 SHR SWAP1 POP SWAP3 SWAP2 POP POP JUMP JUMPDEST PUSH1 0x0 PUSH3 0x3A6 PUSH1 0x0 NOT DUP5 PUSH1 0x8 MUL PUSH3 0x386 JUMP JUMPDEST NOT DUP1 DUP4 AND SWAP2 POP POP SWAP3 SWAP2 POP POP JUMP JUMPDEST PUSH1 0x0 PUSH3 0x3C1 DUP4 DUP4 PUSH3 0x393 JUMP JUMPDEST SWAP2 POP DUP3 PUSH1 0x2 MUL DUP3 OR SWAP1 POP SWAP3 SWAP2 POP POP JUMP JUMPDEST PUSH3 0x3DC DUP3 PUSH3 0x157 JUMP JUMPDEST PUSH8 0xFFFFFFFFFFFFFFFF DUP2 GT ISZERO PUSH3 0x3F8 JUMPI PUSH3 0x3F7 PUSH3 0x162 JUMP JUMPDEST JUMPDEST PUSH3 0x404 DUP3 SLOAD PUSH3 0x1C0 JUMP JUMPDEST PUSH3 0x411 DUP3 DUP3 DUP6 PUSH3 0x336 JUMP JUMPDEST PUSH1 0x0 PUSH1 0x20 SWAP1 POP PUSH1 0x1F DUP4 GT PUSH1 0x1 DUP2 EQ PUSH3 0x449 JUMPI PUSH1 0x0 DUP5 ISZERO PUSH3 0x434 JUMPI DUP3 DUP8 ADD MLOAD SWAP1 POP JUMPDEST PUSH3 0x440 DUP6 DUP3 PUSH3 0x3B3 JUMP JUMPDEST DUP7 SSTORE POP PUSH3 0x4B0 JUMP JUMPDEST PUSH1 0x1F NOT DUP5 AND PUSH3 0x459 DUP7 PUSH3 0x1F5 JUMP JUMPDEST PUSH1 0x0 JUMPDEST DUP3 DUP2 LT ISZERO PUSH3 0x483 JUMPI DUP5 DUP10 ADD MLOAD DUP3 SSTORE PUSH1 0x1 DUP3 ADD SWAP2 POP PUSH1 0x20 DUP6 ADD SWAP5 POP PUSH1 0x20 DUP2 ADD SWAP1 POP PUSH3 0x45C JUMP JUMPDEST DUP7 DUP4 LT ISZERO PUSH3 0x4A3 JUMPI DUP5 DUP10 ADD MLOAD PUSH3 0x49F PUSH1 0x1F DUP10 AND DUP3 PUSH3 0x393 JUMP JUMPDEST DUP4 SSTORE POP JUMPDEST PUSH1 0x1 PUSH1 0x2 DUP9 MUL ADD DUP9 SSTORE POP POP POP JUMPDEST POP POP POP POP POP POP JUMP JUMPDEST PUSH1 0x80 MLOAD PUSH2 0x3885 PUSH3 0x4E2 PUSH1 0x0 CODECOPY PUSH1 0x0 DUP2 DUP2 PUSH2 0x5BA ADD MSTORE DUP2 DUP2 PUSH2 0x7EE ADD MSTORE PUSH2 0xB74 ADD MSTORE PUSH2 0x3885 PUSH1 0x0 RETURN INVALID PUSH1 0x80 PUSH1 0x40 MSTORE CALLVALUE DUP1 ISZERO PUSH2 0x10 JUMPI PUSH1 0x0 DUP1 REVERT JUMPDEST POP PUSH1 0x4 CALLDATASIZE LT PUSH2 0x136 JUMPI PUSH1 0x0 CALLDATALOAD PUSH1 0xE0 SHR DUP1 PUSH4 0x5D69A710 GT PUSH2 0xB8 JUMPI DUP1 PUSH4 0xC704C3F1 GT PUSH2 0x7C JUMPI DUP1 PUSH4 0xC704C3F1 EQ PUSH2 0x34F JUMPI DUP1 PUSH4 0xCD000D33 EQ PUSH2 0x36D JUMPI DUP1 PUSH4 0xE985E9C5 EQ PUSH2 0x39E JUMPI DUP1 PUSH4 0xEA075EE1 EQ PUSH2 0x3CE JUMPI DUP1 PUSH4 0xEDBD5DF8 EQ PUSH2 0x3FE JUMPI DUP1 PUSH4 0xF242432A EQ PUSH2 0x42E JUMPI PUSH2 0x136 JUMP JUMPDEST DUP1 PUSH4 0x5D69A710 EQ PUSH2 0x2AD JUMPI DUP1 PUSH4 0x6950ED03 EQ PUSH2 0x2C9 JUMPI DUP1 PUSH4 0x7A2B3720 EQ PUSH2 0x2E5 JUMPI DUP1 PUSH4 0xA22CB465 EQ PUSH2 0x315 JUMPI DUP1 PUSH4 0xA37A9FC0 EQ PUSH2 0x331 JUMPI PUSH2 0x136 JUMP JUMPDEST DUP1 PUSH4 0x313DAB20 GT PUSH2 0xFF JUMPI DUP1 PUSH4 0x313DAB20 EQ PUSH2 0x205 JUMPI DUP1 PUSH4 0x44B70AC4 EQ PUSH2 0x223 JUMPI DUP1 PUSH4 0x4C25D197 EQ PUSH2 0x241 JUMPI DUP1 PUSH4 0x4CF5317B EQ PUSH2 0x25F JUMPI DUP1 PUSH4 0x4E1273F4 EQ PUSH2 0x27D JUMPI PUSH2 0x136 JUMP JUMPDEST DUP1 PUSH3 0xFDD58E EQ PUSH2 0x13B JUMPI DUP1 PUSH4 0x1FFC9A7 EQ PUSH2 0x16B JUMPI DUP1 PUSH4 0xE89341C EQ PUSH2 0x19B JUMPI DUP1 PUSH4 0x2BD7CD17 EQ PUSH2 0x1CB JUMPI DUP1 PUSH4 0x2EB2C2D6 EQ PUSH2 0x1E9 JUMPI JUMPDEST PUSH1 0x0 DUP1 REVERT JUMPDEST PUSH2 0x155 PUSH1 0x4 DUP1 CALLDATASIZE SUB DUP2 ADD SWAP1 PUSH2 0x150 SWAP2 SWAP1 PUSH2 0x206E JUMP JUMPDEST PUSH2 0x44A JUMP JUMPDEST PUSH1 0x40 MLOAD PUSH2 0x162 SWAP2 SWAP1 PUSH2 0x20BD JUMP JUMPDEST PUSH1 0x40 MLOAD DUP1 SWAP2 SUB SWAP1 RETURN JUMPDEST PUSH2 0x185 PUSH1 0x4 DUP1 CALLDATASIZE SUB DUP2 ADD SWAP1 PUSH2 0x180 SWAP2 SWAP1 PUSH2 0x2130 JUMP JUMPDEST PUSH2 0x512 JUMP JUMPDEST PUSH1 0x40 MLOAD PUSH2 0x192 SWAP2 SWAP1 PUSH2 0x2178 JUMP JUMPDEST PUSH1 0x40 MLOAD DUP1 SWAP2 SUB SWAP1 RETURN JUMPDEST PUSH2 0x1B5 PUSH1 0x4 DUP1 CALLDATASIZE SUB DUP2 ADD SWAP1 PUSH2 0x1B0 SWAP2 SWAP1 PUSH2 0x2193 JUMP JUMPDEST PUSH2 0x524 JUMP JUMPDEST PUSH1 0x40 MLOAD PUSH2 0x1C2 SWAP2 SWAP1 PUSH2 0x2250 JUMP JUMPDEST PUSH1 0x40 MLOAD DUP1 SWAP2 SUB SWAP1 RETURN JUMPDEST PUSH2 0x1D3 PUSH2 0x5B8 JUMP JUMPDEST PUSH1 0x40 MLOAD PUSH2 0x1E0 SWAP2 SWAP1 PUSH2 0x22D1 JUMP JUMPDEST PUSH1 0x40 MLOAD DUP1 SWAP2 SUB SWAP1 RETURN JUMPDEST PUSH2 0x203 PUSH1 0x4 DUP1 CALLDATASIZE SUB DUP2 ADD SWAP1 PUSH2 0x1FE SWAP2 SWAP1 PUSH2 0x24E9 JUMP JUMPDEST PUSH2 0x5DC JUMP JUMPDEST STOP JUMPDEST PUSH2 0x20D PUSH2 0x67D JUMP JUMPDEST PUSH1 0x40 MLOAD PUSH2 0x21A SWAP2 SWAP1 PUSH2 0x20BD JUMP JUMPDEST PUSH1 0x40 MLOAD DUP1 SWAP2 SUB SWAP1 RETURN JUMPDEST PUSH2 0x22B PUSH2 0x683 JUMP JUMPDEST PUSH1 0x40 MLOAD PUSH2 0x238 SWAP2 SWAP1 PUSH2 0x20BD JUMP JUMPDEST PUSH1 0x40 MLOAD DUP1 SWAP2 SUB SWAP1 RETURN JUMPDEST PUSH2 0x249 PUSH2 0x688 JUMP JUMPDEST PUSH1 0x40 MLOAD PUSH2 0x256 SWAP2 SWAP1 PUSH2 0x20BD JUMP JUMPDEST PUSH1 0x40 MLOAD DUP1 SWAP2 SUB SWAP1 RETURN JUMPDEST PUSH2 0x267 PUSH2 0x68E JUMP JUMPDEST PUSH1 0x40 MLOAD PUSH2 0x274 SWAP2 SWAP1 PUSH2 0x20BD JUMP JUMPDEST PUSH1 0x40 MLOAD DUP1 SWAP2 SUB SWAP1 RETURN JUMPDEST PUSH2 0x297 PUSH1 0x4 DUP1 CALLDATASIZE SUB DUP2 ADD SWAP1 PUSH2 0x292 SWAP2 SWAP1 PUSH2 0x267B JUMP JUMPDEST PUSH2 0x694 JUMP JUMPDEST PUSH1 0x40 MLOAD PUSH2 0x2A4 SWAP2 SWAP1 PUSH2 0x27B1 JUMP JUMPDEST PUSH1 0x40 MLOAD DUP1 SWAP2 SUB SWAP1 RETURN JUMPDEST PUSH2 0x2C7 PUSH1 0x4 DUP1 CALLDATASIZE SUB DUP2 ADD SWAP1 PUSH2 0x2C2 SWAP2 SWAP1 PUSH2 0x2839 JUMP JUMPDEST PUSH2 0x7A7 JUMP JUMPDEST STOP JUMPDEST PUSH2 0x2E3 PUSH1 0x4 DUP1 CALLDATASIZE SUB DUP2 ADD SWAP1 PUSH2 0x2DE SWAP2 SWAP1 PUSH2 0x288C JUMP JUMPDEST PUSH2 0x980 JUMP JUMPDEST STOP JUMPDEST PUSH2 0x2FF PUSH1 0x4 DUP1 CALLDATASIZE SUB DUP2 ADD SWAP1 PUSH2 0x2FA SWAP2 SWAP1 PUSH2 0x28F3 JUMP JUMPDEST PUSH2 0xA46 JUMP JUMPDEST PUSH1 0x40 MLOAD PUSH2 0x30C SWAP2 SWAP1 PUSH2 0x20BD JUMP JUMPDEST PUSH1 0x40 MLOAD DUP1 SWAP2 SUB SWAP1 RETURN JUMPDEST PUSH2 0x32F PUSH1 0x4 DUP1 CALLDATASIZE SUB DUP2 ADD SWAP1 PUSH2 0x32A SWAP2 SWAP1 PUSH2 0x295A JUMP JUMPDEST PUSH2 0xC64 JUMP JUMPDEST STOP JUMPDEST PUSH2 0x339 PUSH2 0xC7A JUMP JUMPDEST PUSH1 0x40 MLOAD PUSH2 0x346 SWAP2 SWAP1 PUSH2 0x20BD JUMP JUMPDEST PUSH1 0x40 MLOAD DUP1 SWAP2 SUB SWAP1 RETURN JUMPDEST PUSH2 0x357 PUSH2 0xC80 JUMP JUMPDEST PUSH1 0x40 MLOAD PUSH2 0x364 SWAP2 SWAP1 PUSH2 0x20BD JUMP JUMPDEST PUSH1 0x40 MLOAD DUP1 SWAP2 SUB SWAP1 RETURN JUMPDEST PUSH2 0x387 PUSH1 0x4 DUP1 CALLDATASIZE SUB DUP2 ADD SWAP1 PUSH2 0x382 SWAP2 SWAP1 PUSH2 0x299A JUMP JUMPDEST PUSH2 0xC8C JUMP JUMPDEST PUSH1 0x40 MLOAD PUSH2 0x395 SWAP3 SWAP2 SWAP1 PUSH2 0x29D6 JUMP JUMPDEST PUSH1 0x40 MLOAD DUP1 SWAP2 SUB SWAP1 RETURN JUMPDEST PUSH2 0x3B8 PUSH1 0x4 DUP1 CALLDATASIZE SUB DUP2 ADD SWAP1 PUSH2 0x3B3 SWAP2 SWAP1 PUSH2 0x29FF JUMP JUMPDEST PUSH2 0xCBE JUMP JUMPDEST PUSH1 0x40 MLOAD PUSH2 0x3C5 SWAP2 SWAP1 PUSH2 0x2178 JUMP JUMPDEST PUSH1 0x40 MLOAD DUP1 SWAP2 SUB SWAP1 RETURN JUMPDEST PUSH2 0x3E8 PUSH1 0x4 DUP1 CALLDATASIZE SUB DUP2 ADD SWAP1 PUSH2 0x3E3 SWAP2 SWAP1 PUSH2 0x206E JUMP JUMPDEST PUSH2 0xD52 JUMP JUMPDEST PUSH1 0x40 MLOAD PUSH2 0x3F5 SWAP2 SWAP1 PUSH2 0x20BD JUMP JUMPDEST PUSH1 0x40 MLOAD DUP1 SWAP2 SUB SWAP1 RETURN JUMPDEST PUSH2 0x418 PUSH1 0x4 DUP1 CALLDATASIZE SUB DUP2 ADD SWAP1 PUSH2 0x413 SWAP2 SWAP1 PUSH2 0x206E JUMP JUMPDEST PUSH2 0xDDA JUMP JUMPDEST PUSH1 0x40 MLOAD PUSH2 0x425 SWAP2 SWAP1 PUSH2 0x20BD JUMP JUMPDEST PUSH1 0x40 MLOAD DUP1 SWAP2 SUB SWAP1 RETURN JUMPDEST PUSH2 0x448 PUSH1 0x4 DUP1 CALLDATASIZE SUB DUP2 ADD SWAP1 PUSH2 0x443 SWAP2 SWAP1 PUSH2 0x2A3F JUMP JUMPDEST PUSH2 0xE05 JUMP JUMPDEST STOP JUMPDEST PUSH1 0x0 DUP1 PUSH20 0xFFFFFFFFFFFFFFFFFFFFFFFFFFFFFFFFFFFFFFFF AND DUP4 PUSH20 0xFFFFFFFFFFFFFFFFFFFFFFFFFFFFFFFFFFFFFFFF AND SUB PUSH2 0x4BA JUMPI PUSH1 0x40 MLOAD PUSH32 0x8C379A000000000000000000000000000000000000000000000000000000000 DUP2 MSTORE PUSH1 0x4 ADD PUSH2 0x4B1 SWAP1 PUSH2 0x2B48 JUMP JUMPDEST PUSH1 0x40 MLOAD DUP1 SWAP2 SUB SWAP1 REVERT JUMPDEST PUSH1 0x0 DUP1 DUP4 DUP2 MSTORE PUSH1 0x20 ADD SWAP1 DUP2 MSTORE PUSH1 0x20 ADD PUSH1 0x0 KECCAK256 PUSH1 0x0 DUP5 PUSH20 0xFFFFFFFFFFFFFFFFFFFFFFFFFFFFFFFFFFFFFFFF AND PUSH20 0xFFFFFFFFFFFFFFFFFFFFFFFFFFFFFFFFFFFFFFFF AND DUP2 MSTORE PUSH1 0x20 ADD SWAP1 DUP2 MSTORE PUSH1 0x20 ADD PUSH1 0x0 KECCAK256 SLOAD SWAP1 POP SWAP3 SWAP2 POP POP JUMP JUMPDEST PUSH1 0x0 PUSH2 0x51D DUP3 PUSH2 0xEA6 JUMP JUMPDEST SWAP1 POP SWAP2 SWAP1 POP JUMP JUMPDEST PUSH1 0x60 PUSH1 0x2 DUP1 SLOAD PUSH2 0x533 SWAP1 PUSH2 0x2B97 JUMP JUMPDEST DUP1 PUSH1 0x1F ADD PUSH1 0x20 DUP1 SWAP2 DIV MUL PUSH1 0x20 ADD PUSH1 0x40 MLOAD SWAP1 DUP2 ADD PUSH1 0x40 MSTORE DUP1 SWAP3 SWAP2 SWAP1 DUP2 DUP2 MSTORE PUSH1 0x20 ADD DUP3 DUP1 SLOAD PUSH2 0x55F SWAP1 PUSH2 0x2B97 JUMP JUMPDEST DUP1 ISZERO PUSH2 0x5AC JUMPI DUP1 PUSH1 0x1F LT PUSH2 0x581 JUMPI PUSH2 0x100 DUP1 DUP4 SLOAD DIV MUL DUP4 MSTORE SWAP2 PUSH1 0x20 ADD SWAP2 PUSH2 0x5AC JUMP JUMPDEST DUP3 ADD SWAP2 SWAP1 PUSH1 0x0 MSTORE PUSH1 0x20 PUSH1 0x0 KECCAK256 SWAP1 JUMPDEST DUP2 SLOAD DUP2 MSTORE SWAP1 PUSH1 0x1 ADD SWAP1 PUSH1 0x20 ADD DUP1 DUP4 GT PUSH2 0x58F JUMPI DUP3 SWAP1 SUB PUSH1 0x1F AND DUP3 ADD SWAP2 JUMPDEST POP POP POP POP POP SWAP1 POP SWAP2 SWAP1 POP JUMP JUMPDEST PUSH32 0x0 DUP2 JUMP JUMPDEST PUSH2 0x5E4 PUSH2 0xF88 JUMP JUMPDEST PUSH20 0xFFFFFFFFFFFFFFFFFFFFFFFFFFFFFFFFFFFFFFFF AND DUP6 PUSH20 0xFFFFFFFFFFFFFFFFFFFFFFFFFFFFFFFFFFFFFFFF AND EQ DUP1 PUSH2 0x62A JUMPI POP PUSH2 0x629 DUP6 PUSH2 0x624 PUSH2 0xF88 JUMP JUMPDEST PUSH2 0xCBE JUMP JUMPDEST JUMPDEST PUSH2 0x669 JUMPI PUSH1 0x40 MLOAD PUSH32 0x8C379A000000000000000000000000000000000000000000000000000000000 DUP2 MSTORE PUSH1 0x4 ADD PUSH2 0x660 SWAP1 PUSH2 0x2C3A JUMP JUMPDEST PUSH1 0x40 MLOAD DUP1 SWAP2 SUB SWAP1 REVERT JUMPDEST PUSH2 0x676 DUP6 DUP6 DUP6 DUP6 DUP6 PUSH2 0xF90 JUMP JUMPDEST POP POP POP POP POP JUMP JUMPDEST PUSH1 0x6 SLOAD DUP2 JUMP JUMPDEST PUSH1 0x42 DUP2 JUMP JUMPDEST PUSH2 0x2476 DUP2 JUMP JUMPDEST PUSH2 0x29A DUP2 JUMP JUMPDEST PUSH1 0x60 DUP2 MLOAD DUP4 MLOAD EQ PUSH2 0x6DA JUMPI PUSH1 0x40 MLOAD PUSH32 0x8C379A000000000000000000000000000000000000000000000000000000000 DUP2 MSTORE PUSH1 0x4 ADD PUSH2 0x6D1 SWAP1 PUSH2 0x2CCC JUMP JUMPDEST PUSH1 0x40 MLOAD DUP1 SWAP2 SUB SWAP1 REVERT JUMPDEST PUSH1 0x0 DUP4 MLOAD PUSH8 0xFFFFFFFFFFFFFFFF DUP2 GT ISZERO PUSH2 0x6F7 JUMPI PUSH2 0x6F6 PUSH2 0x22F1 JUMP JUMPDEST JUMPDEST PUSH1 0x40 MLOAD SWAP1 DUP1 DUP3 MSTORE DUP1 PUSH1 0x20 MUL PUSH1 0x20 ADD DUP3 ADD PUSH1 0x40 MSTORE DUP1 ISZERO PUSH2 0x725 JUMPI DUP2 PUSH1 0x20 ADD PUSH1 0x20 DUP3 MUL DUP1 CALLDATASIZE DUP4 CALLDATACOPY DUP1 DUP3 ADD SWAP2 POP POP SWAP1 POP JUMPDEST POP SWAP1 POP PUSH1 0x0 JUMPDEST DUP5 MLOAD DUP2 LT ISZERO PUSH2 0x79C JUMPI PUSH2 0x772 DUP6 DUP3 DUP2 MLOAD DUP2 LT PUSH2 0x74A JUMPI PUSH2 0x749 PUSH2 0x2CEC JUMP JUMPDEST JUMPDEST PUSH1 0x20 MUL PUSH1 0x20 ADD ADD MLOAD DUP6 DUP4 DUP2 MLOAD DUP2 LT PUSH2 0x765 JUMPI PUSH2 0x764 PUSH2 0x2CEC JUMP JUMPDEST JUMPDEST PUSH1 0x20 MUL PUSH1 0x20 ADD ADD MLOAD PUSH2 0x44A JUMP JUMPDEST DUP3 DUP3 DUP2 MLOAD DUP2 LT PUSH2 0x785 JUMPI PUSH2 0x784 PUSH2 0x2CEC JUMP JUMPDEST JUMPDEST PUSH1 0x20 MUL PUSH1 0x20 ADD ADD DUP2 DUP2 MSTORE POP POP DUP1 PUSH1 0x1 ADD SWAP1 POP PUSH2 0x72B JUMP JUMPDEST POP DUP1 SWAP2 POP POP SWAP3 SWAP2 POP POP JUMP JUMPDEST PUSH2 0x7AF PUSH2 0x12AB JUMP JUMPDEST PUSH1 0x0 DUP2 PUSH2 0x7C0 JUMPI DUP4 PUSH2 0xFFFF AND PUSH2 0x7D2 JUMP JUMPDEST PUSH1 0xD8 DUP5 PUSH2 0xFFFF AND PUSH2 0x7D1 SWAP2 SWAP1 PUSH2 0x2D4A JUMP JUMPDEST JUMPDEST SWAP1 POP PUSH1 0x0 PUSH8 0x8AC7230489E80000 DUP5 PUSH2 0x7EA SWAP2 SWAP1 PUSH2 0x2D7E JUMP JUMPDEST SWAP1 POP PUSH32 0x0 PUSH20 0xFFFFFFFFFFFFFFFFFFFFFFFFFFFFFFFFFFFFFFFF AND PUSH4 0x23B872DD CALLER ADDRESS DUP5 PUSH1 0x40 MLOAD DUP5 PUSH4 0xFFFFFFFF AND PUSH1 0xE0 SHL DUP2 MSTORE PUSH1 0x4 ADD PUSH2 0x849 SWAP4 SWAP3 SWAP2 SWAP1 PUSH2 0x2DCF JUMP JUMPDEST PUSH1 0x20 PUSH1 0x40 MLOAD DUP1 DUP4 SUB DUP2 PUSH1 0x0 DUP8 GAS CALL ISZERO DUP1 ISZERO PUSH2 0x868 JUMPI RETURNDATASIZE PUSH1 0x0 DUP1 RETURNDATACOPY RETURNDATASIZE PUSH1 0x0 REVERT JUMPDEST POP POP POP POP PUSH1 0x40 MLOAD RETURNDATASIZE PUSH1 0x1F NOT PUSH1 0x1F DUP3 ADD AND DUP3 ADD DUP1 PUSH1 0x40 MSTORE POP DUP2 ADD SWAP1 PUSH2 0x88C SWAP2 SWAP1 PUSH2 0x2E1B JUMP JUMPDEST PUSH2 0x8CB JUMPI PUSH1 0x40 MLOAD PUSH32 0x8C379A000000000000000000000000000000000000000000000000000000000 DUP2 MSTORE PUSH1 0x4 ADD PUSH2 0x8C2 SWAP1 PUSH2 0x2E94 JUMP JUMPDEST PUSH1 0x40 MLOAD DUP1 SWAP2 SUB SWAP1 REVERT JUMPDEST PUSH2 0x2710 PUSH2 0x2476 DUP3 PUSH2 0x8DC SWAP2 SWAP1 PUSH2 0x2D7E JUMP JUMPDEST PUSH2 0x8E6 SWAP2 SWAP1 PUSH2 0x2EE3 JUMP JUMPDEST PUSH1 0x6 PUSH1 0x0 DUP3 DUP3 SLOAD PUSH2 0x8F7 SWAP2 SWAP1 PUSH2 0x2D4A JUMP JUMPDEST SWAP3 POP POP DUP2 SWAP1 SSTORE POP PUSH2 0x919 CALLER DUP4 DUP7 PUSH1 0x40 MLOAD DUP1 PUSH1 0x20 ADD PUSH1 0x40 MSTORE DUP1 PUSH1 0x0 DUP2 MSTORE POP PUSH2 0x12FA JUMP JUMPDEST NUMBER PUSH1 0x4 PUSH1 0x0 CALLER PUSH20 0xFFFFFFFFFFFFFFFFFFFFFFFFFFFFFFFFFFFFFFFF AND PUSH20 0xFFFFFFFFFFFFFFFFFFFFFFFFFFFFFFFFFFFFFFFF AND DUP2 MSTORE PUSH1 0x20 ADD SWAP1 DUP2 MSTORE PUSH1 0x20 ADD PUSH1 0x0 KECCAK256 PUSH1 0x0 DUP5 DUP2 MSTORE PUSH1 0x20 ADD SWAP1 DUP2 MSTORE PUSH1 0x20 ADD PUSH1 0x0 KECCAK256 PUSH1 0x0 ADD DUP2 SWAP1 SSTORE POP POP POP PUSH2 0x97B PUSH2 0x14AA JUMP JUMPDEST POP POP POP JUMP JUMPDEST PUSH1 0x0 DUP2 PUSH2 0x991 JUMPI DUP5 PUSH2 0xFFFF AND PUSH2 0x9A3 JUMP JUMPDEST PUSH1 0xD8 DUP6 PUSH2 0xFFFF AND PUSH2 0x9A2 SWAP2 SWAP1 PUSH2 0x2D4A JUMP JUMPDEST JUMPDEST SWAP1 POP PUSH1 0x0 DUP3 PUSH2 0x9B6 JUMPI DUP5 PUSH2 0xFFFF AND PUSH2 0x9C8 JUMP JUMPDEST PUSH1 0xD8 DUP6 PUSH2 0xFFFF AND PUSH2 0x9C7 SWAP2 SWAP1 PUSH2 0x2D4A JUMP JUMPDEST JUMPDEST SWAP1 POP PUSH2 0x9E6 CALLER CALLER DUP5 DUP8 PUSH1 0x40 MLOAD DUP1 PUSH1 0x20 ADD PUSH1 0x40 MSTORE DUP1 PUSH1 0x0 DUP2 MSTORE POP PUSH2 0x14B4 JUMP JUMPDEST NUMBER PUSH1 0x4 PUSH1 0x0 CALLER PUSH20 0xFFFFFFFFFFFFFFFFFFFFFFFFFFFFFFFFFFFFFFFF AND PUSH20 0xFFFFFFFFFFFFFFFFFFFFFFFFFFFFFFFFFFFFFFFF AND DUP2 MSTORE PUSH1 0x20 ADD SWAP1 DUP2 MSTORE PUSH1 0x20 ADD PUSH1 0x0 KECCAK256 PUSH1 0x0 DUP4 DUP2 MSTORE PUSH1 0x20 ADD SWAP1 DUP2 MSTORE PUSH1 0x20 ADD PUSH1 0x0 KECCAK256 PUSH1 0x0 ADD DUP2 SWAP1 SSTORE POP POP POP POP POP POP POP JUMP JUMPDEST PUSH1 0x0 PUSH2 0xA50 PUSH2 0x12AB JUMP JUMPDEST PUSH1 0x0 DUP3 PUSH2 0xA61 JUMPI DUP5 PUSH2 0xFFFF AND PUSH2 0xA73 JUMP JUMPDEST PUSH1 0xD8 DUP6 PUSH2 0xFFFF AND PUSH2 0xA72 SWAP2 SWAP1 PUSH2 0x2D4A JUMP JUMPDEST JUMPDEST SWAP1 POP PUSH1 0x0 DUP4 PUSH2 0xA8E JUMPI PUSH1 0x2 DUP6 PUSH2 0xA89 SWAP2 SWAP1 PUSH2 0x2D7E JUMP JUMPDEST PUSH2 0xA9D JUMP JUMPDEST PUSH2 0x29A DUP6 PUSH2 0xA9C SWAP2 SWAP1 PUSH2 0x2D7E JUMP JUMPDEST JUMPDEST SWAP1 POP DUP1 PUSH2 0xAAA CALLER DUP5 PUSH2 0x44A JUMP JUMPDEST LT ISZERO PUSH2 0xAEB JUMPI PUSH1 0x40 MLOAD PUSH32 0x8C379A000000000000000000000000000000000000000000000000000000000 DUP2 MSTORE PUSH1 0x4 ADD PUSH2 0xAE2 SWAP1 PUSH2 0x2F60 JUMP JUMPDEST PUSH1 0x40 MLOAD DUP1 SWAP2 SUB SWAP1 REVERT JUMPDEST PUSH1 0x0 PUSH2 0xAF7 DUP9 DUP5 PUSH2 0xD52 JUMP JUMPDEST SWAP1 POP PUSH1 0x0 DUP6 PUSH2 0xB06 JUMPI DUP7 PUSH2 0xB14 JUMP JUMPDEST PUSH1 0x42 DUP8 PUSH2 0xB13 SWAP2 SWAP1 PUSH2 0x2D7E JUMP JUMPDEST JUMPDEST SWAP1 POP PUSH2 0xB21 DUP10 DUP6 DUP10 PUSH2 0x174F JUMP JUMPDEST PUSH2 0xB2C CALLER DUP6 DUP4 PUSH2 0x174F JUMP JUMPDEST PUSH1 0x0 PUSH2 0x2710 PUSH2 0x29A DUP5 PUSH2 0xB3F SWAP2 SWAP1 PUSH2 0x2D7E JUMP JUMPDEST PUSH2 0xB49 SWAP2 SWAP1 PUSH2 0x2EE3 JUMP JUMPDEST SWAP1 POP DUP1 DUP4 PUSH2 0xB57 SWAP2 SWAP1 PUSH2 0x2F80 JUMP JUMPDEST SWAP6 POP DUP3 PUSH1 0x6 PUSH1 0x0 DUP3 DUP3 SLOAD PUSH2 0xB6B SWAP2 SWAP1 PUSH2 0x2F80 JUMP JUMPDEST SWAP3 POP POP DUP2 SWAP1 SSTORE POP PUSH32 0x0 PUSH20 0xFFFFFFFFFFFFFFFFFFFFFFFFFFFFFFFFFFFFFFFF AND PUSH4 0xA9059CBB CALLER DUP9 PUSH1 0x40 MLOAD DUP4 PUSH4 0xFFFFFFFF AND PUSH1 0xE0 SHL DUP2 MSTORE PUSH1 0x4 ADD PUSH2 0xBCD SWAP3 SWAP2 SWAP1 PUSH2 0x2FB4 JUMP JUMPDEST PUSH1 0x20 PUSH1 0x40 MLOAD DUP1 DUP4 SUB DUP2 PUSH1 0x0 DUP8 GAS CALL ISZERO DUP1 ISZERO PUSH2 0xBEC JUMPI RETURNDATASIZE PUSH1 0x0 DUP1 RETURNDATACOPY RETURNDATASIZE PUSH1 0x0 REVERT JUMPDEST POP POP POP POP PUSH1 0x40 MLOAD RETURNDATASIZE PUSH1 0x1F NOT PUSH1 0x1F DUP3 ADD AND DUP3 ADD DUP1 PUSH1 0x40 MSTORE POP DUP2 ADD SWAP1 PUSH2 0xC10 SWAP2 SWAP1 PUSH2 0x2E1B JUMP JUMPDEST PUSH2 0xC4F JUMPI PUSH1 0x40 MLOAD PUSH32 0x8C379A000000000000000000000000000000000000000000000000000000000 DUP2 MSTORE PUSH1 0x4 ADD PUSH2 0xC46 SWAP1 PUSH2 0x3029 JUMP JUMPDEST PUSH1 0x40 MLOAD DUP1 SWAP2 SUB SWAP1 REVERT JUMPDEST POP POP POP POP POP PUSH2 0xC5C PUSH2 0x14AA JUMP JUMPDEST SWAP5 SWAP4 POP POP POP POP JUMP JUMPDEST PUSH2 0xC76 PUSH2 0xC6F PUSH2 0xF88 JUMP JUMPDEST DUP4 DUP4 PUSH2 0x1995 JUMP JUMPDEST POP POP JUMP JUMPDEST PUSH2 0x29A DUP2 JUMP JUMPDEST PUSH8 0x8AC7230489E80000 DUP2 JUMP JUMPDEST PUSH1 0x5 PUSH1 0x20 MSTORE DUP1 PUSH1 0x0 MSTORE PUSH1 0x40 PUSH1 0x0 KECCAK256 PUSH1 0x0 SWAP2 POP SWAP1 POP DUP1 PUSH1 0x0 ADD PUSH1 0x0 SWAP1 SLOAD SWAP1 PUSH2 0x100 EXP SWAP1 DIV PUSH2 0xFFFF AND SWAP1 DUP1 PUSH1 0x1 ADD SLOAD SWAP1 POP DUP3 JUMP JUMPDEST PUSH1 0x0 PUSH1 0x1 PUSH1 0x0 DUP5 PUSH20 0xFFFFFFFFFFFFFFFFFFFFFFFFFFFFFFFFFFFFFFFF AND PUSH20 0xFFFFFFFFFFFFFFFFFFFFFFFFFFFFFFFFFFFFFFFF AND DUP2 MSTORE PUSH1 0x20 ADD SWAP1 DUP2 MSTORE PUSH1 0x20 ADD PUSH1 0x0 KECCAK256 PUSH1 0x0 DUP4 PUSH20 0xFFFFFFFFFFFFFFFFFFFFFFFFFFFFFFFFFFFFFFFF AND PUSH20 0xFFFFFFFFFFFFFFFFFFFFFFFFFFFFFFFFFFFFFFFF AND DUP2 MSTORE PUSH1 0x20 ADD SWAP1 DUP2 MSTORE PUSH1 0x20 ADD PUSH1 0x0 KECCAK256 PUSH1 0x0 SWAP1 SLOAD SWAP1 PUSH2 0x100 EXP SWAP1 DIV PUSH1 0xFF AND SWAP1 POP SWAP3 SWAP2 POP POP JUMP JUMPDEST PUSH1 0x0 DUP1 PUSH1 0x4 PUSH1 0x0 DUP6 PUSH20 0xFFFFFFFFFFFFFFFFFFFFFFFFFFFFFFFFFFFFFFFF AND PUSH20 0xFFFFFFFFFFFFFFFFFFFFFFFFFFFFFFFFFFFFFFFF AND DUP2 MSTORE PUSH1 0x20 ADD SWAP1 DUP2 MSTORE PUSH1 0x20 ADD PUSH1 0x0 KECCAK256 PUSH1 0x0 DUP5 DUP2 MSTORE PUSH1 0x20 ADD SWAP1 DUP2 MSTORE PUSH1 0x20 ADD PUSH1 0x0 KECCAK256 PUSH1 0x0 ADD SLOAD NUMBER PUSH2 0xDB4 SWAP2 SWAP1 PUSH2 0x2F80 JUMP JUMPDEST SWAP1 POP PUSH2 0x2710 DUP2 PUSH1 0x6 SLOAD PUSH2 0xDC7 SWAP2 SWAP1 PUSH2 0x2D7E JUMP JUMPDEST PUSH2 0xDD1 SWAP2 SWAP1 PUSH2 0x2EE3 JUMP JUMPDEST SWAP2 POP POP SWAP3 SWAP2 POP POP JUMP JUMPDEST PUSH1 0x4 PUSH1 0x20 MSTORE DUP2 PUSH1 0x0 MSTORE PUSH1 0x40 PUSH1 0x0 KECCAK256 PUSH1 0x20 MSTORE DUP1 PUSH1 0x0 MSTORE PUSH1 0x40 PUSH1 0x0 KECCAK256 PUSH1 0x0 SWAP2 POP SWAP2 POP POP DUP1 PUSH1 0x0 ADD SLOAD SWAP1 POP DUP2 JUMP JUMPDEST PUSH2 0xE0D PUSH2 0xF88 JUMP JUMPDEST PUSH20 0xFFFFFFFFFFFFFFFFFFFFFFFFFFFFFFFFFFFFFFFF AND DUP6 PUSH20 0xFFFFFFFFFFFFFFFFFFFFFFFFFFFFFFFFFFFFFFFF AND EQ DUP1 PUSH2 0xE53 JUMPI POP PUSH2 0xE52 DUP6 PUSH2 0xE4D PUSH2 0xF88 JUMP JUMPDEST PUSH2 0xCBE JUMP JUMPDEST JUMPDEST PUSH2 0xE92 JUMPI PUSH1 0x40 MLOAD PUSH32 0x8C379A000000000000000000000000000000000000000000000000000000000 DUP2 MSTORE PUSH1 0x4 ADD PUSH2 0xE89 SWAP1 PUSH2 0x2C3A JUMP JUMPDEST PUSH1 0x40 MLOAD DUP1 SWAP2 SUB SWAP1 REVERT JUMPDEST PUSH2 0xE9F DUP6 DUP6 DUP6 DUP6 DUP6 PUSH2 0x14B4 JUMP JUMPDEST POP POP POP POP POP JUMP JUMPDEST PUSH1 0x0 PUSH32 0xD9B67A2600000000000000000000000000000000000000000000000000000000 PUSH28 0xFFFFFFFFFFFFFFFFFFFFFFFFFFFFFFFFFFFFFFFFFFFFFFFFFFFFFFFF NOT AND DUP3 PUSH28 0xFFFFFFFFFFFFFFFFFFFFFFFFFFFFFFFFFFFFFFFFFFFFFFFFFFFFFFFF NOT AND EQ DUP1 PUSH2 0xF71 JUMPI POP PUSH32 0xE89341C00000000000000000000000000000000000000000000000000000000 PUSH28 0xFFFFFFFFFFFFFFFFFFFFFFFFFFFFFFFFFFFFFFFFFFFFFFFFFFFFFFFF NOT AND DUP3 PUSH28 0xFFFFFFFFFFFFFFFFFFFFFFFFFFFFFFFFFFFFFFFFFFFFFFFFFFFFFFFF NOT AND EQ JUMPDEST DUP1 PUSH2 0xF81 JUMPI POP PUSH2 0xF80 DUP3 PUSH2 0x1B01 JUMP JUMPDEST JUMPDEST SWAP1 POP SWAP2 SWAP1 POP JUMP JUMPDEST PUSH1 0x0 CALLER SWAP1 POP SWAP1 JUMP JUMPDEST DUP2 MLOAD DUP4 MLOAD EQ PUSH2 0xFD4 JUMPI PUSH1 0x40 MLOAD PUSH32 0x8C379A000000000000000000000000000000000000000000000000000000000 DUP2 MSTORE PUSH1 0x4 ADD PUSH2 0xFCB SWAP1 PUSH2 0x30BB JUMP JUMPDEST PUSH1 0x40 MLOAD DUP1 SWAP2 SUB SWAP1 REVERT JUMPDEST PUSH1 0x0 PUSH20 0xFFFFFFFFFFFFFFFFFFFFFFFFFFFFFFFFFFFFFFFF AND DUP5 PUSH20 0xFFFFFFFFFFFFFFFFFFFFFFFFFFFFFFFFFFFFFFFF AND SUB PUSH2 0x1043 JUMPI PUSH1 0x40 MLOAD PUSH32 0x8C379A000000000000000000000000000000000000000000000000000000000 DUP2 MSTORE PUSH1 0x4 ADD PUSH2 0x103A SWAP1 PUSH2 0x314D JUMP JUMPDEST PUSH1 0x40 MLOAD DUP1 SWAP2 SUB SWAP1 REVERT JUMPDEST PUSH1 0x0 PUSH2 0x104D PUSH2 0xF88 JUMP JUMPDEST SWAP1 POP PUSH2 0x105D DUP2 DUP8 DUP8 DUP8 DUP8 DUP8 PUSH2 0x1B6B JUMP JUMPDEST PUSH1 0x0 JUMPDEST DUP5 MLOAD DUP2 LT ISZERO PUSH2 0x1208 JUMPI PUSH1 0x0 DUP6 DUP3 DUP2 MLOAD DUP2 LT PUSH2 0x107E JUMPI PUSH2 0x107D PUSH2 0x2CEC JUMP JUMPDEST JUMPDEST PUSH1 0x20 MUL PUSH1 0x20 ADD ADD MLOAD SWAP1 POP PUSH1 0x0 DUP6 DUP4 DUP2 MLOAD DUP2 LT PUSH2 0x109D JUMPI PUSH2 0x109C PUSH2 0x2CEC JUMP JUMPDEST JUMPDEST PUSH1 0x20 MUL PUSH1 0x20 ADD ADD MLOAD SWAP1 POP PUSH1 0x0 DUP1 PUSH1 0x0 DUP5 DUP2 MSTORE PUSH1 0x20 ADD SWAP1 DUP2 MSTORE PUSH1 0x20 ADD PUSH1 0x0 KECCAK256 PUSH1 0x0 DUP12 PUSH20 0xFFFFFFFFFFFFFFFFFFFFFFFFFFFFFFFFFFFFFFFF AND PUSH20 0xFFFFFFFFFFFFFFFFFFFFFFFFFFFFFFFFFFFFFFFF AND DUP2 MSTORE PUSH1 0x20 ADD SWAP1 DUP2 MSTORE PUSH1 0x20 ADD PUSH1 0x0 KECCAK256 SLOAD SWAP1 POP DUP2 DUP2 LT ISZERO PUSH2 0x113E JUMPI PUSH1 0x40 MLOAD PUSH32 0x8C379A000000000000000000000000000000000000000000000000000000000 DUP2 MSTORE PUSH1 0x4 ADD PUSH2 0x1135 SWAP1 PUSH2 0x31DF JUMP JUMPDEST PUSH1 0x40 MLOAD DUP1 SWAP2 SUB SWAP1 REVERT JUMPDEST DUP2 DUP2 SUB PUSH1 0x0 DUP1 DUP6 DUP2 MSTORE PUSH1 0x20 ADD SWAP1 DUP2 MSTORE PUSH1 0x20 ADD PUSH1 0x0 KECCAK256 PUSH1 0x0 DUP13 PUSH20 0xFFFFFFFFFFFFFFFFFFFFFFFFFFFFFFFFFFFFFFFF AND PUSH20 0xFFFFFFFFFFFFFFFFFFFFFFFFFFFFFFFFFFFFFFFF AND DUP2 MSTORE PUSH1 0x20 ADD SWAP1 DUP2 MSTORE PUSH1 0x20 ADD PUSH1 0x0 KECCAK256 DUP2 SWAP1 SSTORE POP DUP2 PUSH1 0x0 DUP1 DUP6 DUP2 MSTORE PUSH1 0x20 ADD SWAP1 DUP2 MSTORE PUSH1 0x20 ADD PUSH1 0x0 KECCAK256 PUSH1 0x0 DUP12 PUSH20 0xFFFFFFFFFFFFFFFFFFFFFFFFFFFFFFFFFFFFFFFF AND PUSH20 0xFFFFFFFFFFFFFFFFFFFFFFFFFFFFFFFFFFFFFFFF AND DUP2 MSTORE PUSH1 0x20 ADD SWAP1 DUP2 MSTORE PUSH1 0x20 ADD PUSH1 0x0 KECCAK256 PUSH1 0x0 DUP3 DUP3 SLOAD PUSH2 0x11F3 SWAP2 SWAP1 PUSH2 0x2D4A JUMP JUMPDEST SWAP3 POP POP DUP2 SWAP1 SSTORE POP POP POP POP DUP1 PUSH1 0x1 ADD SWAP1 POP PUSH2 0x1060 JUMP JUMPDEST POP DUP5 PUSH20 0xFFFFFFFFFFFFFFFFFFFFFFFFFFFFFFFFFFFFFFFF AND DUP7 PUSH20 0xFFFFFFFFFFFFFFFFFFFFFFFFFFFFFFFFFFFFFFFF AND DUP3 PUSH20 0xFFFFFFFFFFFFFFFFFFFFFFFFFFFFFFFFFFFFFFFF AND PUSH32 0x4A39DC06D4C0DBC64B70AF90FD698A233A518AA5D07E595D983B8C0526C8F7FB DUP8 DUP8 PUSH1 0x40 MLOAD PUSH2 0x127F SWAP3 SWAP2 SWAP1 PUSH2 0x31FF JUMP JUMPDEST PUSH1 0x40 MLOAD DUP1 SWAP2 SUB SWAP1 LOG4 PUSH2 0x1295 DUP2 DUP8 DUP8 DUP8 DUP8 DUP8 PUSH2 0x1B73 JUMP JUMPDEST PUSH2 0x12A3 DUP2 DUP8 DUP8 DUP8 DUP8 DUP8 PUSH2 0x1B7B JUMP JUMPDEST POP POP POP POP POP POP JUMP JUMPDEST PUSH1 0x2 PUSH1 0x3 SLOAD SUB PUSH2 0x12F0 JUMPI PUSH1 0x40 MLOAD PUSH32 0x8C379A000000000000000000000000000000000000000000000000000000000 DUP2 MSTORE PUSH1 0x4 ADD PUSH2 0x12E7 SWAP1 PUSH2 0x3282 JUMP JUMPDEST PUSH1 0x40 MLOAD DUP1 SWAP2 SUB SWAP1 REVERT JUMPDEST PUSH1 0x2 PUSH1 0x3 DUP2 SWAP1 SSTORE POP JUMP JUMPDEST PUSH1 0x0 PUSH20 0xFFFFFFFFFFFFFFFFFFFFFFFFFFFFFFFFFFFFFFFF AND DUP5 PUSH20 0xFFFFFFFFFFFFFFFFFFFFFFFFFFFFFFFFFFFFFFFF AND SUB PUSH2 0x1369 JUMPI PUSH1 0x40 MLOAD PUSH32 0x8C379A000000000000000000000000000000000000000000000000000000000 DUP2 MSTORE PUSH1 0x4 ADD PUSH2 0x1360 SWAP1 PUSH2 0x3314 JUMP JUMPDEST PUSH1 0x40 MLOAD DUP1 SWAP2 SUB SWAP1 REVERT JUMPDEST PUSH1 0x0 PUSH2 0x1373 PUSH2 0xF88 JUMP JUMPDEST SWAP1 POP PUSH1 0x0 PUSH2 0x1380 DUP6 PUSH2 0x1D52 JUMP JUMPDEST SWAP1 POP PUSH1 0x0 PUSH2 0x138D DUP6 PUSH2 0x1D52 JUMP JUMPDEST SWAP1 POP PUSH2 0x139E DUP4 PUSH1 0x0 DUP10 DUP6 DUP6 DUP10 PUSH2 0x1B6B JUMP JUMPDEST DUP5 PUSH1 0x0 DUP1 DUP9 DUP2 MSTORE PUSH1 0x20 ADD SWAP1 DUP2 MSTORE PUSH1 0x20 ADD PUSH1 0x0 KECCAK256 PUSH1 0x0 DUP10 PUSH20 0xFFFFFFFFFFFFFFFFFFFFFFFFFFFFFFFFFFFFFFFF AND PUSH20 0xFFFFFFFFFFFFFFFFFFFFFFFFFFFFFFFFFFFFFFFF AND DUP2 MSTORE PUSH1 0x20 ADD SWAP1 DUP2 MSTORE PUSH1 0x20 ADD PUSH1 0x0 KECCAK256 PUSH1 0x0 DUP3 DUP3 SLOAD PUSH2 0x13FD SWAP2 SWAP1 PUSH2 0x2D4A JUMP JUMPDEST SWAP3 POP POP DUP2 SWAP1 SSTORE POP DUP7 PUSH20 0xFFFFFFFFFFFFFFFFFFFFFFFFFFFFFFFFFFFFFFFF AND PUSH1 0x0 PUSH20 0xFFFFFFFFFFFFFFFFFFFFFFFFFFFFFFFFFFFFFFFF AND DUP5 PUSH20 0xFFFFFFFFFFFFFFFFFFFFFFFFFFFFFFFFFFFFFFFF AND PUSH32 0xC3D58168C5AE7397731D063D5BBF3D657854427343F4C083240F7AACAA2D0F62 DUP10 DUP10 PUSH1 0x40 MLOAD PUSH2 0x147B SWAP3 SWAP2 SWAP1 PUSH2 0x3334 JUMP JUMPDEST PUSH1 0x40 MLOAD DUP1 SWAP2 SUB SWAP1 LOG4 PUSH2 0x1492 DUP4 PUSH1 0x0 DUP10 DUP6 DUP6 DUP10 PUSH2 0x1B73 JUMP JUMPDEST PUSH2 0x14A1 DUP4 PUSH1 0x0 DUP10 DUP10 DUP10 DUP10 PUSH2 0x1DCC JUMP JUMPDEST POP POP POP POP POP POP POP JUMP JUMPDEST PUSH1 0x1 PUSH1 0x3 DUP2 SWAP1 SSTORE POP JUMP JUMPDEST PUSH1 0x0 PUSH20 0xFFFFFFFFFFFFFFFFFFFFFFFFFFFFFFFFFFFFFFFF AND DUP5 PUSH20 0xFFFFFFFFFFFFFFFFFFFFFFFFFFFFFFFFFFFFFFFF AND SUB PUSH2 0x1523 JUMPI PUSH1 0x40 MLOAD PUSH32 0x8C379A000000000000000000000000000000000000000000000000000000000 DUP2 MSTORE PUSH1 0x4 ADD PUSH2 0x151A SWAP1 PUSH2 0x314D JUMP JUMPDEST PUSH1 0x40 MLOAD DUP1 SWAP2 SUB SWAP1 REVERT JUMPDEST PUSH1 0x0 PUSH2 0x152D PUSH2 0xF88 JUMP JUMPDEST SWAP1 POP PUSH1 0x0 PUSH2 0x153A DUP6 PUSH2 0x1D52 JUMP JUMPDEST SWAP1 POP PUSH1 0x0 PUSH2 0x1547 DUP6 PUSH2 0x1D52 JUMP JUMPDEST SWAP1 POP PUSH2 0x1557 DUP4 DUP10 DUP10 DUP6 DUP6 DUP10 PUSH2 0x1B6B JUMP JUMPDEST PUSH1 0x0 DUP1 PUSH1 0x0 DUP9 DUP2 MSTORE PUSH1 0x20 ADD SWAP1 DUP2 MSTORE PUSH1 0x20 ADD PUSH1 0x0 KECCAK256 PUSH1 0x0 DUP11 PUSH20 0xFFFFFFFFFFFFFFFFFFFFFFFFFFFFFFFFFFFFFFFF AND PUSH20 0xFFFFFFFFFFFFFFFFFFFFFFFFFFFFFFFFFFFFFFFF AND DUP2 MSTORE PUSH1 0x20 ADD SWAP1 DUP2 MSTORE PUSH1 0x20 ADD PUSH1 0x0 KECCAK256 SLOAD SWAP1 POP DUP6 DUP2 LT ISZERO PUSH2 0x15EE JUMPI PUSH1 0x40 MLOAD PUSH32 0x8C379A000000000000000000000000000000000000000000000000000000000 DUP2 MSTORE PUSH1 0x4 ADD PUSH2 0x15E5 SWAP1 PUSH2 0x31DF JUMP JUMPDEST PUSH1 0x40 MLOAD DUP1 SWAP2 SUB SWAP1 REVERT JUMPDEST DUP6 DUP2 SUB PUSH1 0x0 DUP1 DUP10 DUP2 MSTORE PUSH1 0x20 ADD SWAP1 DUP2 MSTORE PUSH1 0x20 ADD PUSH1 0x0 KECCAK256 PUSH1 0x0 DUP12 PUSH20 0xFFFFFFFFFFFFFFFFFFFFFFFFFFFFFFFFFFFFFFFF AND PUSH20 0xFFFFFFFFFFFFFFFFFFFFFFFFFFFFFFFFFFFFFFFF AND DUP2 MSTORE PUSH1 0x20 ADD SWAP1 DUP2 MSTORE PUSH1 0x20 ADD PUSH1 0x0 KECCAK256 DUP2 SWAP1 SSTORE POP DUP6 PUSH1 0x0 DUP1 DUP10 DUP2 MSTORE PUSH1 0x20 ADD SWAP1 DUP2 MSTORE PUSH1 0x20 ADD PUSH1 0x0 KECCAK256 PUSH1 0x0 DUP11 PUSH20 0xFFFFFFFFFFFFFFFFFFFFFFFFFFFFFFFFFFFFFFFF AND PUSH20 0xFFFFFFFFFFFFFFFFFFFFFFFFFFFFFFFFFFFFFFFF AND DUP2 MSTORE PUSH1 0x20 ADD SWAP1 DUP2 MSTORE PUSH1 0x20 ADD PUSH1 0x0 KECCAK256 PUSH1 0x0 DUP3 DUP3 SLOAD PUSH2 0x16A3 SWAP2 SWAP1 PUSH2 0x2D4A JUMP JUMPDEST SWAP3 POP POP DUP2 SWAP1 SSTORE POP DUP8 PUSH20 0xFFFFFFFFFFFFFFFFFFFFFFFFFFFFFFFFFFFFFFFF AND DUP10 PUSH20 0xFFFFFFFFFFFFFFFFFFFFFFFFFFFFFFFFFFFFFFFF AND DUP6 PUSH20 0xFFFFFFFFFFFFFFFFFFFFFFFFFFFFFFFFFFFFFFFF AND PUSH32 0xC3D58168C5AE7397731D063D5BBF3D657854427343F4C083240F7AACAA2D0F62 DUP11 DUP11 PUSH1 0x40 MLOAD PUSH2 0x1720 SWAP3 SWAP2 SWAP1 PUSH2 0x3334 JUMP JUMPDEST PUSH1 0x40 MLOAD DUP1 SWAP2 SUB SWAP1 LOG4 PUSH2 0x1736 DUP5 DUP11 DUP11 DUP7 DUP7 DUP11 PUSH2 0x1B73 JUMP JUMPDEST PUSH2 0x1744 DUP5 DUP11 DUP11 DUP11 DUP11 DUP11 PUSH2 0x1DCC JUMP JUMPDEST POP POP POP POP POP POP POP POP POP JUMP JUMPDEST PUSH1 0x0 PUSH20 0xFFFFFFFFFFFFFFFFFFFFFFFFFFFFFFFFFFFFFFFF AND DUP4 PUSH20 0xFFFFFFFFFFFFFFFFFFFFFFFFFFFFFFFFFFFFFFFF AND SUB PUSH2 0x17BE JUMPI PUSH1 0x40 MLOAD PUSH32 0x8C379A000000000000000000000000000000000000000000000000000000000 DUP2 MSTORE PUSH1 0x4 ADD PUSH2 0x17B5 SWAP1 PUSH2 0x33CF JUMP JUMPDEST PUSH1 0x40 MLOAD DUP1 SWAP2 SUB SWAP1 REVERT JUMPDEST PUSH1 0x0 PUSH2 0x17C8 PUSH2 0xF88 JUMP JUMPDEST SWAP1 POP PUSH1 0x0 PUSH2 0x17D5 DUP5 PUSH2 0x1D52 JUMP JUMPDEST SWAP1 POP PUSH1 0x0 PUSH2 0x17E2 DUP5 PUSH2 0x1D52 JUMP JUMPDEST SWAP1 POP PUSH2 0x1802 DUP4 DUP8 PUSH1 0x0 DUP6 DUP6 PUSH1 0x40 MLOAD DUP1 PUSH1 0x20 ADD PUSH1 0x40 MSTORE DUP1 PUSH1 0x0 DUP2 MSTORE POP PUSH2 0x1B6B JUMP JUMPDEST PUSH1 0x0 DUP1 PUSH1 0x0 DUP8 DUP2 MSTORE PUSH1 0x20 ADD SWAP1 DUP2 MSTORE PUSH1 0x20 ADD PUSH1 0x0 KECCAK256 PUSH1 0x0 DUP9 PUSH20 0xFFFFFFFFFFFFFFFFFFFFFFFFFFFFFFFFFFFFFFFF AND PUSH20 0xFFFFFFFFFFFFFFFFFFFFFFFFFFFFFFFFFFFFFFFF AND DUP2 MSTORE PUSH1 0x20 ADD SWAP1 DUP2 MSTORE PUSH1 0x20 ADD PUSH1 0x0 KECCAK256 SLOAD SWAP1 POP DUP5 DUP2 LT ISZERO PUSH2 0x1899 JUMPI PUSH1 0x40 MLOAD PUSH32 0x8C379A000000000000000000000000000000000000000000000000000000000 DUP2 MSTORE PUSH1 0x4 ADD PUSH2 0x1890 SWAP1 PUSH2 0x3461 JUMP JUMPDEST PUSH1 0x40 MLOAD DUP1 SWAP2 SUB SWAP1 REVERT JUMPDEST DUP5 DUP2 SUB PUSH1 0x0 DUP1 DUP9 DUP2 MSTORE PUSH1 0x20 ADD SWAP1 DUP2 MSTORE PUSH1 0x20 ADD PUSH1 0x0 KECCAK256 PUSH1 0x0 DUP10 PUSH20 0xFFFFFFFFFFFFFFFFFFFFFFFFFFFFFFFFFFFFFFFF AND PUSH20 0xFFFFFFFFFFFFFFFFFFFFFFFFFFFFFFFFFFFFFFFF AND DUP2 MSTORE PUSH1 0x20 ADD SWAP1 DUP2 MSTORE PUSH1 0x20 ADD PUSH1 0x0 KECCAK256 DUP2 SWAP1 SSTORE POP PUSH1 0x0 PUSH20 0xFFFFFFFFFFFFFFFFFFFFFFFFFFFFFFFFFFFFFFFF AND DUP8 PUSH20 0xFFFFFFFFFFFFFFFFFFFFFFFFFFFFFFFFFFFFFFFF AND DUP6 PUSH20 0xFFFFFFFFFFFFFFFFFFFFFFFFFFFFFFFFFFFFFFFF AND PUSH32 0xC3D58168C5AE7397731D063D5BBF3D657854427343F4C083240F7AACAA2D0F62 DUP10 DUP10 PUSH1 0x40 MLOAD PUSH2 0x1966 SWAP3 SWAP2 SWAP1 PUSH2 0x3334 JUMP JUMPDEST PUSH1 0x40 MLOAD DUP1 SWAP2 SUB SWAP1 LOG4 PUSH2 0x198C DUP5 DUP9 PUSH1 0x0 DUP7 DUP7 PUSH1 0x40 MLOAD DUP1 PUSH1 0x20 ADD PUSH1 0x40 MSTORE DUP1 PUSH1 0x0 DUP2 MSTORE POP PUSH2 0x1B73 JUMP JUMPDEST POP POP POP POP POP POP POP JUMP JUMPDEST DUP2 PUSH20 0xFFFFFFFFFFFFFFFFFFFFFFFFFFFFFFFFFFFFFFFF AND DUP4 PUSH20 0xFFFFFFFFFFFFFFFFFFFFFFFFFFFFFFFFFFFFFFFF AND SUB PUSH2 0x1A03 JUMPI PUSH1 0x40 MLOAD PUSH32 0x8C379A000000000000000000000000000000000000000000000000000000000 DUP2 MSTORE PUSH1 0x4 ADD PUSH2 0x19FA SWAP1 PUSH2 0x34F3 JUMP JUMPDEST PUSH1 0x40 MLOAD DUP1 SWAP2 SUB SWAP1 REVERT JUMPDEST DUP1 PUSH1 0x1 PUSH1 0x0 DUP6 PUSH20 0xFFFFFFFFFFFFFFFFFFFFFFFFFFFFFFFFFFFFFFFF AND PUSH20 0xFFFFFFFFFFFFFFFFFFFFFFFFFFFFFFFFFFFFFFFF AND DUP2 MSTORE PUSH1 0x20 ADD SWAP1 DUP2 MSTORE PUSH1 0x20 ADD PUSH1 0x0 KECCAK256 PUSH1 0x0 DUP5 PUSH20 0xFFFFFFFFFFFFFFFFFFFFFFFFFFFFFFFFFFFFFFFF AND PUSH20 0xFFFFFFFFFFFFFFFFFFFFFFFFFFFFFFFFFFFFFFFF AND DUP2 MSTORE PUSH1 0x20 ADD SWAP1 DUP2 MSTORE PUSH1 0x20 ADD PUSH1 0x0 KECCAK256 PUSH1 0x0 PUSH2 0x100 EXP DUP2 SLOAD DUP2 PUSH1 0xFF MUL NOT AND SWAP1 DUP4 ISZERO ISZERO MUL OR SWAP1 SSTORE POP DUP2 PUSH20 0xFFFFFFFFFFFFFFFFFFFFFFFFFFFFFFFFFFFFFFFF AND DUP4 PUSH20 0xFFFFFFFFFFFFFFFFFFFFFFFFFFFFFFFFFFFFFFFF AND PUSH32 0x17307EAB39AB6107E8899845AD3D59BD9653F200F220920489CA2B5937696C31 DUP4 PUSH1 0x40 MLOAD PUSH2 0x1AF4 SWAP2 SWAP1 PUSH2 0x2178 JUMP JUMPDEST PUSH1 0x40 MLOAD DUP1 SWAP2 SUB SWAP1 LOG3 POP POP POP JUMP JUMPDEST PUSH1 0x0 PUSH32 0x1FFC9A700000000000000000000000000000000000000000000000000000000 PUSH28 0xFFFFFFFFFFFFFFFFFFFFFFFFFFFFFFFFFFFFFFFFFFFFFFFFFFFFFFFF NOT AND DUP3 PUSH28 0xFFFFFFFFFFFFFFFFFFFFFFFFFFFFFFFFFFFFFFFFFFFFFFFFFFFFFFFF NOT AND EQ SWAP1 POP SWAP2 SWAP1 POP JUMP JUMPDEST POP POP POP POP POP POP JUMP JUMPDEST POP POP POP POP POP POP JUMP JUMPDEST PUSH2 0x1B9A DUP5 PUSH20 0xFFFFFFFFFFFFFFFFFFFFFFFFFFFFFFFFFFFFFFFF AND PUSH2 0x1FA3 JUMP JUMPDEST ISZERO PUSH2 0x1D4A JUMPI DUP4 PUSH20 0xFFFFFFFFFFFFFFFFFFFFFFFFFFFFFFFFFFFFFFFF AND PUSH4 0xBC197C81 DUP8 DUP8 DUP7 DUP7 DUP7 PUSH1 0x40 MLOAD DUP7 PUSH4 0xFFFFFFFF AND PUSH1 0xE0 SHL DUP2 MSTORE PUSH1 0x4 ADD PUSH2 0x1BE0 SWAP6 SWAP5 SWAP4 SWAP3 SWAP2 SWAP1 PUSH2 0x3568 JUMP JUMPDEST PUSH1 0x20 PUSH1 0x40 MLOAD DUP1 DUP4 SUB DUP2 PUSH1 0x0 DUP8 GAS CALL SWAP3 POP POP POP DUP1 ISZERO PUSH2 0x1C1C JUMPI POP PUSH1 0x40 MLOAD RETURNDATASIZE PUSH1 0x1F NOT PUSH1 0x1F DUP3 ADD AND DUP3 ADD DUP1 PUSH1 0x40 MSTORE POP DUP2 ADD SWAP1 PUSH2 0x1C19 SWAP2 SWAP1 PUSH2 0x35E5 JUMP JUMPDEST PUSH1 0x1 JUMPDEST PUSH2 0x1CC1 JUMPI PUSH2 0x1C28 PUSH2 0x361F JUMP JUMPDEST DUP1 PUSH4 0x8C379A0 SUB PUSH2 0x1C84 JUMPI POP PUSH2 0x1C3C PUSH2 0x3641 JUMP JUMPDEST DUP1 PUSH2 0x1C47 JUMPI POP PUSH2 0x1C86 JUMP JUMPDEST DUP1 PUSH1 0x40 MLOAD PUSH32 0x8C379A000000000000000000000000000000000000000000000000000000000 DUP2 MSTORE PUSH1 0x4 ADD PUSH2 0x1C7B SWAP2 SWAP1 PUSH2 0x2250 JUMP JUMPDEST PUSH1 0x40 MLOAD DUP1 SWAP2 SUB SWAP1 REVERT JUMPDEST POP JUMPDEST PUSH1 0x40 MLOAD PUSH32 0x8C379A000000000000000000000000000000000000000000000000000000000 DUP2 MSTORE PUSH1 0x4 ADD PUSH2 0x1CB8 SWAP1 PUSH2 0x3743 JUMP JUMPDEST PUSH1 0x40 MLOAD DUP1 SWAP2 SUB SWAP1 REVERT JUMPDEST PUSH4 0xBC197C81 PUSH1 0xE0 SHL PUSH28 0xFFFFFFFFFFFFFFFFFFFFFFFFFFFFFFFFFFFFFFFFFFFFFFFFFFFFFFFF NOT AND DUP2 PUSH28 0xFFFFFFFFFFFFFFFFFFFFFFFFFFFFFFFFFFFFFFFFFFFFFFFFFFFFFFFF NOT AND EQ PUSH2 0x1D48 JUMPI PUSH1 0x40 MLOAD PUSH32 0x8C379A000000000000000000000000000000000000000000000000000000000 DUP2 MSTORE PUSH1 0x4 ADD PUSH2 0x1D3F SWAP1 PUSH2 0x37D5 JUMP JUMPDEST PUSH1 0x40 MLOAD DUP1 SWAP2 SUB SWAP1 REVERT JUMPDEST POP JUMPDEST POP POP POP POP POP POP JUMP JUMPDEST PUSH1 0x60 PUSH1 0x0 PUSH1 0x1 PUSH8 0xFFFFFFFFFFFFFFFF DUP2 GT ISZERO PUSH2 0x1D71 JUMPI PUSH2 0x1D70 PUSH2 0x22F1 JUMP JUMPDEST JUMPDEST PUSH1 0x40 MLOAD SWAP1 DUP1 DUP3 MSTORE DUP1 PUSH1 0x20 MUL PUSH1 0x20 ADD DUP3 ADD PUSH1 0x40 MSTORE DUP1 ISZERO PUSH2 0x1D9F JUMPI DUP2 PUSH1 0x20 ADD PUSH1 0x20 DUP3 MUL DUP1 CALLDATASIZE DUP4 CALLDATACOPY DUP1 DUP3 ADD SWAP2 POP POP SWAP1 POP JUMPDEST POP SWAP1 POP DUP3 DUP2 PUSH1 0x0 DUP2 MLOAD DUP2 LT PUSH2 0x1DB7 JUMPI PUSH2 0x1DB6 PUSH2 0x2CEC JUMP JUMPDEST JUMPDEST PUSH1 0x20 MUL PUSH1 0x20 ADD ADD DUP2 DUP2 MSTORE POP POP DUP1 SWAP2 POP POP SWAP2 SWAP1 POP JUMP JUMPDEST PUSH2 0x1DEB DUP5 PUSH20 0xFFFFFFFFFFFFFFFFFFFFFFFFFFFFFFFFFFFFFFFF AND PUSH2 0x1FA3 JUMP JUMPDEST ISZERO PUSH2 0x1F9B JUMPI DUP4 PUSH20 0xFFFFFFFFFFFFFFFFFFFFFFFFFFFFFFFFFFFFFFFF AND PUSH4 0xF23A6E61 DUP8 DUP8 DUP7 DUP7 DUP7 PUSH1 0x40 MLOAD DUP7 PUSH4 0xFFFFFFFF AND PUSH1 0xE0 SHL DUP2 MSTORE PUSH1 0x4 ADD PUSH2 0x1E31 SWAP6 SWAP5 SWAP4 SWAP3 SWAP2 SWAP1 PUSH2 0x37F5 JUMP JUMPDEST PUSH1 0x20 PUSH1 0x40 MLOAD DUP1 DUP4 SUB DUP2 PUSH1 0x0 DUP8 GAS CALL SWAP3 POP POP POP DUP1 ISZERO PUSH2 0x1E6D JUMPI POP PUSH1 0x40 MLOAD RETURNDATASIZE PUSH1 0x1F NOT PUSH1 0x1F DUP3 ADD AND DUP3 ADD DUP1 PUSH1 0x40 MSTORE POP DUP2 ADD SWAP1 PUSH2 0x1E6A SWAP2 SWAP1 PUSH2 0x35E5 JUMP JUMPDEST PUSH1 0x1 JUMPDEST PUSH2 0x1F12 JUMPI PUSH2 0x1E79 PUSH2 0x361F JUMP JUMPDEST DUP1 PUSH4 0x8C379A0 SUB PUSH2 0x1ED5 JUMPI POP PUSH2 0x1E8D PUSH2 0x3641 JUMP JUMPDEST DUP1 PUSH2 0x1E98 JUMPI POP PUSH2 0x1ED7 JUMP JUMPDEST DUP1 PUSH1 0x40 MLOAD PUSH32 0x8C379A000000000000000000000000000000000000000000000000000000000 DUP2 MSTORE PUSH1 0x4 ADD PUSH2 0x1ECC SWAP2 SWAP1 PUSH2 0x2250 JUMP JUMPDEST PUSH1 0x40 MLOAD DUP1 SWAP2 SUB SWAP1 REVERT JUMPDEST POP JUMPDEST PUSH1 0x40 MLOAD PUSH32 0x8C379A000000000000000000000000000000000000000000000000000000000 DUP2 MSTORE PUSH1 0x4 ADD PUSH2 0x1F09 SWAP1 PUSH2 0x3743 JUMP JUMPDEST PUSH1 0x40 MLOAD DUP1 SWAP2 SUB SWAP1 REVERT JUMPDEST PUSH4 0xF23A6E61 PUSH1 0xE0 SHL PUSH28 0xFFFFFFFFFFFFFFFFFFFFFFFFFFFFFFFFFFFFFFFFFFFFFFFFFFFFFFFF NOT AND DUP2 PUSH28 0xFFFFFFFFFFFFFFFFFFFFFFFFFFFFFFFFFFFFFFFFFFFFFFFFFFFFFFFF NOT AND EQ PUSH2 0x1F99 JUMPI PUSH1 0x40 MLOAD PUSH32 0x8C379A000000000000000000000000000000000000000000000000000000000 DUP2 MSTORE PUSH1 0x4 ADD PUSH2 0x1F90 SWAP1 PUSH2 0x37D5 JUMP JUMPDEST PUSH1 0x40 MLOAD DUP1 SWAP2 SUB SWAP1 REVERT JUMPDEST POP JUMPDEST POP POP POP POP POP POP JUMP JUMPDEST PUSH1 0x0 DUP1 DUP3 PUSH20 0xFFFFFFFFFFFFFFFFFFFFFFFFFFFFFFFFFFFFFFFF AND EXTCODESIZE GT SWAP1 POP SWAP2 SWAP1 POP JUMP JUMPDEST PUSH1 0x0 PUSH1 0x40 MLOAD SWAP1 POP SWAP1 JUMP JUMPDEST PUSH1 0x0 DUP1 REVERT JUMPDEST PUSH1 0x0 DUP1 REVERT JUMPDEST PUSH1 0x0 PUSH20 0xFFFFFFFFFFFFFFFFFFFFFFFFFFFFFFFFFFFFFFFF DUP3 AND SWAP1 POP SWAP2 SWAP1 POP JUMP JUMPDEST PUSH1 0x0 PUSH2 0x2005 DUP3 PUSH2 0x1FDA JUMP JUMPDEST SWAP1 POP SWAP2 SWAP1 POP JUMP JUMPDEST PUSH2 0x2015 DUP2 PUSH2 0x1FFA JUMP JUMPDEST DUP2 EQ PUSH2 0x2020 JUMPI PUSH1 0x0 DUP1 REVERT JUMPDEST POP JUMP JUMPDEST PUSH1 0x0 DUP2 CALLDATALOAD SWAP1 POP PUSH2 0x2032 DUP2 PUSH2 0x200C JUMP JUMPDEST SWAP3 SWAP2 POP POP JUMP JUMPDEST PUSH1 0x0 DUP2 SWAP1 POP SWAP2 SWAP1 POP JUMP JUMPDEST PUSH2 0x204B DUP2 PUSH2 0x2038 JUMP JUMPDEST DUP2 EQ PUSH2 0x2056 JUMPI PUSH1 0x0 DUP1 REVERT JUMPDEST POP JUMP JUMPDEST PUSH1 0x0 DUP2 CALLDATALOAD SWAP1 POP PUSH2 0x2068 DUP2 PUSH2 0x2042 JUMP JUMPDEST SWAP3 SWAP2 POP POP JUMP JUMPDEST PUSH1 0x0 DUP1 PUSH1 0x40 DUP4 DUP6 SUB SLT ISZERO PUSH2 0x2085 JUMPI PUSH2 0x2084 PUSH2 0x1FD0 JUMP JUMPDEST JUMPDEST PUSH1 0x0 PUSH2 0x2093 DUP6 DUP3 DUP7 ADD PUSH2 0x2023 JUMP JUMPDEST SWAP3 POP POP PUSH1 0x20 PUSH2 0x20A4 DUP6 DUP3 DUP7 ADD PUSH2 0x2059 JUMP JUMPDEST SWAP2 POP POP SWAP3 POP SWAP3 SWAP1 POP JUMP JUMPDEST PUSH2 0x20B7 DUP2 PUSH2 0x2038 JUMP JUMPDEST DUP3 MSTORE POP POP JUMP JUMPDEST PUSH1 0x0 PUSH1 0x20 DUP3 ADD SWAP1 POP PUSH2 0x20D2 PUSH1 0x0 DUP4 ADD DUP5 PUSH2 0x20AE JUMP JUMPDEST SWAP3 SWAP2 POP POP JUMP JUMPDEST PUSH1 0x0 PUSH32 0xFFFFFFFF00000000000000000000000000000000000000000000000000000000 DUP3 AND SWAP1 POP SWAP2 SWAP1 POP JUMP JUMPDEST PUSH2 0x210D DUP2 PUSH2 0x20D8 JUMP JUMPDEST DUP2 EQ PUSH2 0x2118 JUMPI PUSH1 0x0 DUP1 REVERT JUMPDEST POP JUMP JUMPDEST PUSH1 0x0 DUP2 CALLDATALOAD SWAP1 POP PUSH2 0x212A DUP2 PUSH2 0x2104 JUMP JUMPDEST SWAP3 SWAP2 POP POP JUMP JUMPDEST PUSH1 0x0 PUSH1 0x20 DUP3 DUP5 SUB SLT ISZERO PUSH2 0x2146 JUMPI PUSH2 0x2145 PUSH2 0x1FD0 JUMP JUMPDEST JUMPDEST PUSH1 0x0 PUSH2 0x2154 DUP5 DUP3 DUP6 ADD PUSH2 0x211B JUMP JUMPDEST SWAP2 POP POP SWAP3 SWAP2 POP POP JUMP JUMPDEST PUSH1 0x0 DUP2 ISZERO ISZERO SWAP1 POP SWAP2 SWAP1 POP JUMP JUMPDEST PUSH2 0x2172 DUP2 PUSH2 0x215D JUMP JUMPDEST DUP3 MSTORE POP POP JUMP JUMPDEST PUSH1 0x0 PUSH1 0x20 DUP3 ADD SWAP1 POP PUSH2 0x218D PUSH1 0x0 DUP4 ADD DUP5 PUSH2 0x2169 JUMP JUMPDEST SWAP3 SWAP2 POP POP JUMP JUMPDEST PUSH1 0x0 PUSH1 0x20 DUP3 DUP5 SUB SLT ISZERO PUSH2 0x21A9 JUMPI PUSH2 0x21A8 PUSH2 0x1FD0 JUMP JUMPDEST JUMPDEST PUSH1 0x0 PUSH2 0x21B7 DUP5 DUP3 DUP6 ADD PUSH2 0x2059 JUMP JUMPDEST SWAP2 POP POP SWAP3 SWAP2 POP POP JUMP JUMPDEST PUSH1 0x0 DUP2 MLOAD SWAP1 POP SWAP2 SWAP1 POP JUMP JUMPDEST PUSH1 0x0 DUP3 DUP3 MSTORE PUSH1 0x20 DUP3 ADD SWAP1 POP SWAP3 SWAP2 POP POP JUMP JUMPDEST PUSH1 0x0 JUMPDEST DUP4 DUP2 LT ISZERO PUSH2 0x21FA JUMPI DUP1 DUP3 ADD MLOAD DUP2 DUP5 ADD MSTORE PUSH1 0x20 DUP2 ADD SWAP1 POP PUSH2 0x21DF JUMP JUMPDEST PUSH1 0x0 DUP5 DUP5 ADD MSTORE POP POP POP POP JUMP JUMPDEST PUSH1 0x0 PUSH1 0x1F NOT PUSH1 0x1F DUP4 ADD AND SWAP1 POP SWAP2 SWAP1 POP JUMP JUMPDEST PUSH1 0x0 PUSH2 0x2222 DUP3 PUSH2 0x21C0 JUMP JUMPDEST PUSH2 0x222C DUP2 DUP6 PUSH2 0x21CB JUMP JUMPDEST SWAP4 POP PUSH2 0x223C DUP2 DUP6 PUSH1 0x20 DUP7 ADD PUSH2 0x21DC JUMP JUMPDEST PUSH2 0x2245 DUP2 PUSH2 0x2206 JUMP JUMPDEST DUP5 ADD SWAP2 POP POP SWAP3 SWAP2 POP POP JUMP JUMPDEST PUSH1 0x0 PUSH1 0x20 DUP3 ADD SWAP1 POP DUP2 DUP2 SUB PUSH1 0x0 DUP4 ADD MSTORE PUSH2 0x226A DUP2 DUP5 PUSH2 0x2217 JUMP JUMPDEST SWAP1 POP SWAP3 SWAP2 POP POP JUMP JUMPDEST PUSH1 0x0 DUP2 SWAP1 POP SWAP2 SWAP1 POP JUMP JUMPDEST PUSH1 0x0 PUSH2 0x2297 PUSH2 0x2292 PUSH2 0x228D DUP5 PUSH2 0x1FDA JUMP JUMPDEST PUSH2 0x2272 JUMP JUMPDEST PUSH2 0x1FDA JUMP JUMPDEST SWAP1 POP SWAP2 SWAP1 POP JUMP JUMPDEST PUSH1 0x0 PUSH2 0x22A9 DUP3 PUSH2 0x227C JUMP JUMPDEST SWAP1 POP SWAP2 SWAP1 POP JUMP JUMPDEST PUSH1 0x0 PUSH2 0x22BB DUP3 PUSH2 0x229E JUMP JUMPDEST SWAP1 POP SWAP2 SWAP1 POP JUMP JUMPDEST PUSH2 0x22CB DUP2 PUSH2 0x22B0 JUMP JUMPDEST DUP3 MSTORE POP POP JUMP JUMPDEST PUSH1 0x0 PUSH1 0x20 DUP3 ADD SWAP1 POP PUSH2 0x22E6 PUSH1 0x0 DUP4 ADD DUP5 PUSH2 0x22C2 JUMP JUMPDEST SWAP3 SWAP2 POP POP JUMP JUMPDEST PUSH1 0x0 DUP1 REVERT JUMPDEST PUSH32 0x4E487B7100000000000000000000000000000000000000000000000000000000 PUSH1 0x0 MSTORE PUSH1 0x41 PUSH1 0x4 MSTORE PUSH1 0x24 PUSH1 0x0 REVERT JUMPDEST PUSH2 0x2329 DUP3 PUSH2 0x2206 JUMP JUMPDEST DUP2 ADD DUP2 DUP2 LT PUSH8 0xFFFFFFFFFFFFFFFF DUP3 GT OR ISZERO PUSH2 0x2348 JUMPI PUSH2 0x2347 PUSH2 0x22F1 JUMP JUMPDEST JUMPDEST DUP1 PUSH1 0x40 MSTORE POP POP POP JUMP JUMPDEST PUSH1 0x0 PUSH2 0x235B PUSH2 0x1FC6 JUMP JUMPDEST SWAP1 POP PUSH2 0x2367 DUP3 DUP3 PUSH2 0x2320 JUMP JUMPDEST SWAP2 SWAP1 POP JUMP JUMPDEST PUSH1 0x0 PUSH8 0xFFFFFFFFFFFFFFFF DUP3 GT ISZERO PUSH2 0x2387 JUMPI PUSH2 0x2386 PUSH2 0x22F1 JUMP JUMPDEST JUMPDEST PUSH1 0x20 DUP3 MUL SWAP1 POP PUSH1 0x20 DUP2 ADD SWAP1 POP SWAP2 SWAP1 POP JUMP JUMPDEST PUSH1 0x0 DUP1 REVERT JUMPDEST PUSH1 0x0 PUSH2 0x23B0 PUSH2 0x23AB DUP5 PUSH2 0x236C JUMP JUMPDEST PUSH2 0x2351 JUMP JUMPDEST SWAP1 POP DUP1 DUP4 DUP3 MSTORE PUSH1 0x20 DUP3 ADD SWAP1 POP PUSH1 0x20 DUP5 MUL DUP4 ADD DUP6 DUP2 GT ISZERO PUSH2 0x23D3 JUMPI PUSH2 0x23D2 PUSH2 0x2398 JUMP JUMPDEST JUMPDEST DUP4 JUMPDEST DUP2 DUP2 LT ISZERO PUSH2 0x23FC JUMPI DUP1 PUSH2 0x23E8 DUP9 DUP3 PUSH2 0x2059 JUMP JUMPDEST DUP5 MSTORE PUSH1 0x20 DUP5 ADD SWAP4 POP POP PUSH1 0x20 DUP2 ADD SWAP1 POP PUSH2 0x23D5 JUMP JUMPDEST POP POP POP SWAP4 SWAP3 POP POP POP JUMP JUMPDEST PUSH1 0x0 DUP3 PUSH1 0x1F DUP4 ADD SLT PUSH2 0x241B JUMPI PUSH2 0x241A PUSH2 0x22EC JUMP JUMPDEST JUMPDEST DUP2 CALLDATALOAD PUSH2 0x242B DUP5 DUP3 PUSH1 0x20 DUP7 ADD PUSH2 0x239D JUMP JUMPDEST SWAP2 POP POP SWAP3 SWAP2 POP POP JUMP JUMPDEST PUSH1 0x0 DUP1 REVERT JUMPDEST PUSH1 0x0 PUSH8 0xFFFFFFFFFFFFFFFF DUP3 GT ISZERO PUSH2 0x2454 JUMPI PUSH2 0x2453 PUSH2 0x22F1 JUMP JUMPDEST JUMPDEST PUSH2 0x245D DUP3 PUSH2 0x2206 JUMP JUMPDEST SWAP1 POP PUSH1 0x20 DUP2 ADD SWAP1 POP SWAP2 SWAP1 POP JUMP JUMPDEST DUP3 DUP2 DUP4 CALLDATACOPY PUSH1 0x0 DUP4 DUP4 ADD MSTORE POP POP POP JUMP JUMPDEST PUSH1 0x0 PUSH2 0x248C PUSH2 0x2487 DUP5 PUSH2 0x2439 JUMP JUMPDEST PUSH2 0x2351 JUMP JUMPDEST SWAP1 POP DUP3 DUP2 MSTORE PUSH1 0x20 DUP2 ADD DUP5 DUP5 DUP5 ADD GT ISZERO PUSH2 0x24A8 JUMPI PUSH2 0x24A7 PUSH2 0x2434 JUMP JUMPDEST JUMPDEST PUSH2 0x24B3 DUP5 DUP3 DUP6 PUSH2 0x246A JUMP JUMPDEST POP SWAP4 SWAP3 POP POP POP JUMP JUMPDEST PUSH1 0x0 DUP3 PUSH1 0x1F DUP4 ADD SLT PUSH2 0x24D0 JUMPI PUSH2 0x24CF PUSH2 0x22EC JUMP JUMPDEST JUMPDEST DUP2 CALLDATALOAD PUSH2 0x24E0 DUP5 DUP3 PUSH1 0x20 DUP7 ADD PUSH2 0x2479 JUMP JUMPDEST SWAP2 POP POP SWAP3 SWAP2 POP POP JUMP JUMPDEST PUSH1 0x0 DUP1 PUSH1 0x0 DUP1 PUSH1 0x0 PUSH1 0xA0 DUP7 DUP9 SUB SLT ISZERO PUSH2 0x2505 JUMPI PUSH2 0x2504 PUSH2 0x1FD0 JUMP JUMPDEST JUMPDEST PUSH1 0x0 PUSH2 0x2513 DUP9 DUP3 DUP10 ADD PUSH2 0x2023 JUMP JUMPDEST SWAP6 POP POP PUSH1 0x20 PUSH2 0x2524 DUP9 DUP3 DUP10 ADD PUSH2 0x2023 JUMP JUMPDEST SWAP5 POP POP PUSH1 0x40 DUP7 ADD CALLDATALOAD PUSH8 0xFFFFFFFFFFFFFFFF DUP2 GT ISZERO PUSH2 0x2545 JUMPI PUSH2 0x2544 PUSH2 0x1FD5 JUMP JUMPDEST JUMPDEST PUSH2 0x2551 DUP9 DUP3 DUP10 ADD PUSH2 0x2406 JUMP JUMPDEST SWAP4 POP POP PUSH1 0x60 DUP7 ADD CALLDATALOAD PUSH8 0xFFFFFFFFFFFFFFFF DUP2 GT ISZERO PUSH2 0x2572 JUMPI PUSH2 0x2571 PUSH2 0x1FD5 JUMP JUMPDEST JUMPDEST PUSH2 0x257E DUP9 DUP3 DUP10 ADD PUSH2 0x2406 JUMP JUMPDEST SWAP3 POP POP PUSH1 0x80 DUP7 ADD CALLDATALOAD PUSH8 0xFFFFFFFFFFFFFFFF DUP2 GT ISZERO PUSH2 0x259F JUMPI PUSH2 0x259E PUSH2 0x1FD5 JUMP JUMPDEST JUMPDEST PUSH2 0x25AB DUP9 DUP3 DUP10 ADD PUSH2 0x24BB JUMP JUMPDEST SWAP2 POP POP SWAP3 SWAP6 POP SWAP3 SWAP6 SWAP1 SWAP4 POP JUMP JUMPDEST PUSH1 0x0 PUSH8 0xFFFFFFFFFFFFFFFF DUP3 GT ISZERO PUSH2 0x25D3 JUMPI PUSH2 0x25D2 PUSH2 0x22F1 JUMP JUMPDEST JUMPDEST PUSH1 0x20 DUP3 MUL SWAP1 POP PUSH1 0x20 DUP2 ADD SWAP1 POP SWAP2 SWAP1 POP JUMP JUMPDEST PUSH1 0x0 PUSH2 0x25F7 PUSH2 0x25F2 DUP5 PUSH2 0x25B8 JUMP JUMPDEST PUSH2 0x2351 JUMP JUMPDEST SWAP1 POP DUP1 DUP4 DUP3 MSTORE PUSH1 0x20 DUP3 ADD SWAP1 POP PUSH1 0x20 DUP5 MUL DUP4 ADD DUP6 DUP2 GT ISZERO PUSH2 0x261A JUMPI PUSH2 0x2619 PUSH2 0x2398 JUMP JUMPDEST JUMPDEST DUP4 JUMPDEST DUP2 DUP2 LT ISZERO PUSH2 0x2643 JUMPI DUP1 PUSH2 0x262F DUP9 DUP3 PUSH2 0x2023 JUMP JUMPDEST DUP5 MSTORE PUSH1 0x20 DUP5 ADD SWAP4 POP POP PUSH1 0x20 DUP2 ADD SWAP1 POP PUSH2 0x261C JUMP JUMPDEST POP POP POP SWAP4 SWAP3 POP POP POP JUMP JUMPDEST PUSH1 0x0 DUP3 PUSH1 0x1F DUP4 ADD SLT PUSH2 0x2662 JUMPI PUSH2 0x2661 PUSH2 0x22EC JUMP JUMPDEST JUMPDEST DUP2 CALLDATALOAD PUSH2 0x2672 DUP5 DUP3 PUSH1 0x20 DUP7 ADD PUSH2 0x25E4 JUMP JUMPDEST SWAP2 POP POP SWAP3 SWAP2 POP POP JUMP JUMPDEST PUSH1 0x0 DUP1 PUSH1 0x40 DUP4 DUP6 SUB SLT ISZERO PUSH2 0x2692 JUMPI PUSH2 0x2691 PUSH2 0x1FD0 JUMP JUMPDEST JUMPDEST PUSH1 0x0 DUP4 ADD CALLDATALOAD PUSH8 0xFFFFFFFFFFFFFFFF DUP2 GT ISZERO PUSH2 0x26B0 JUMPI PUSH2 0x26AF PUSH2 0x1FD5 JUMP JUMPDEST JUMPDEST PUSH2 0x26BC DUP6 DUP3 DUP7 ADD PUSH2 0x264D JUMP JUMPDEST SWAP3 POP POP PUSH1 0x20 DUP4 ADD CALLDATALOAD PUSH8 0xFFFFFFFFFFFFFFFF DUP2 GT ISZERO PUSH2 0x26DD JUMPI PUSH2 0x26DC PUSH2 0x1FD5 JUMP JUMPDEST JUMPDEST PUSH2 0x26E9 DUP6 DUP3 DUP7 ADD PUSH2 0x2406 JUMP JUMPDEST SWAP2 POP POP SWAP3 POP SWAP3 SWAP1 POP JUMP JUMPDEST PUSH1 0x0 DUP2 MLOAD SWAP1 POP SWAP2 SWAP1 POP JUMP JUMPDEST PUSH1 0x0 DUP3 DUP3 MSTORE PUSH1 0x20 DUP3 ADD SWAP1 POP SWAP3 SWAP2 POP POP JUMP JUMPDEST PUSH1 0x0 DUP2 SWAP1 POP PUSH1 0x20 DUP3 ADD SWAP1 POP SWAP2 SWAP1 POP JUMP JUMPDEST PUSH2 0x2728 DUP2 PUSH2 0x2038 JUMP JUMPDEST DUP3 MSTORE POP POP JUMP JUMPDEST PUSH1 0x0 PUSH2 0x273A DUP4 DUP4 PUSH2 0x271F JUMP JUMPDEST PUSH1 0x20 DUP4 ADD SWAP1 POP SWAP3 SWAP2 POP POP JUMP JUMPDEST PUSH1 0x0 PUSH1 0x20 DUP3 ADD SWAP1 POP SWAP2 SWAP1 POP JUMP JUMPDEST PUSH1 0x0 PUSH2 0x275E DUP3 PUSH2 0x26F3 JUMP JUMPDEST PUSH2 0x2768 DUP2 DUP6 PUSH2 0x26FE JUMP JUMPDEST SWAP4 POP PUSH2 0x2773 DUP4 PUSH2 0x270F JUMP JUMPDEST DUP1 PUSH1 0x0 JUMPDEST DUP4 DUP2 LT ISZERO PUSH2 0x27A4 JUMPI DUP2 MLOAD PUSH2 0x278B DUP9 DUP3 PUSH2 0x272E JUMP JUMPDEST SWAP8 POP PUSH2 0x2796 DUP4 PUSH2 0x2746 JUMP JUMPDEST SWAP3 POP POP PUSH1 0x1 DUP2 ADD SWAP1 POP PUSH2 0x2777 JUMP JUMPDEST POP DUP6 SWAP4 POP POP POP POP SWAP3 SWAP2 POP POP JUMP JUMPDEST PUSH1 0x0 PUSH1 0x20 DUP3 ADD SWAP1 POP DUP2 DUP2 SUB PUSH1 0x0 DUP4 ADD MSTORE PUSH2 0x27CB DUP2 DUP5 PUSH2 0x2753 JUMP JUMPDEST SWAP1 POP SWAP3 SWAP2 POP POP JUMP JUMPDEST PUSH1 0x0 PUSH2 0xFFFF DUP3 AND SWAP1 POP SWAP2 SWAP1 POP JUMP JUMPDEST PUSH2 0x27EA DUP2 PUSH2 0x27D3 JUMP JUMPDEST DUP2 EQ PUSH2 0x27F5 JUMPI PUSH1 0x0 DUP1 REVERT JUMPDEST POP JUMP JUMPDEST PUSH1 0x0 DUP2 CALLDATALOAD SWAP1 POP PUSH2 0x2807 DUP2 PUSH2 0x27E1 JUMP JUMPDEST SWAP3 SWAP2 POP POP JUMP JUMPDEST PUSH2 0x2816 DUP2 PUSH2 0x215D JUMP JUMPDEST DUP2 EQ PUSH2 0x2821 JUMPI PUSH1 0x0 DUP1 REVERT JUMPDEST POP JUMP JUMPDEST PUSH1 0x0 DUP2 CALLDATALOAD SWAP1 POP PUSH2 0x2833 DUP2 PUSH2 0x280D JUMP JUMPDEST SWAP3 SWAP2 POP POP JUMP JUMPDEST PUSH1 0x0 DUP1 PUSH1 0x0 PUSH1 0x60 DUP5 DUP7 SUB SLT ISZERO PUSH2 0x2852 JUMPI PUSH2 0x2851 PUSH2 0x1FD0 JUMP JUMPDEST JUMPDEST PUSH1 0x0 PUSH2 0x2860 DUP7 DUP3 DUP8 ADD PUSH2 0x27F8 JUMP JUMPDEST SWAP4 POP POP PUSH1 0x20 PUSH2 0x2871 DUP7 DUP3 DUP8 ADD PUSH2 0x2059 JUMP JUMPDEST SWAP3 POP POP PUSH1 0x40 PUSH2 0x2882 DUP7 DUP3 DUP8 ADD PUSH2 0x2824 JUMP JUMPDEST SWAP2 POP POP SWAP3 POP SWAP3 POP SWAP3 JUMP JUMPDEST PUSH1 0x0 DUP1 PUSH1 0x0 DUP1 PUSH1 0x80 DUP6 DUP8 SUB SLT ISZERO PUSH2 0x28A6 JUMPI PUSH2 0x28A5 PUSH2 0x1FD0 JUMP JUMPDEST JUMPDEST PUSH1 0x0 PUSH2 0x28B4 DUP8 DUP3 DUP9 ADD PUSH2 0x27F8 JUMP JUMPDEST SWAP5 POP POP PUSH1 0x20 PUSH2 0x28C5 DUP8 DUP3 DUP9 ADD PUSH2 0x27F8 JUMP JUMPDEST SWAP4 POP POP PUSH1 0x40 PUSH2 0x28D6 DUP8 DUP3 DUP9 ADD PUSH2 0x2059 JUMP JUMPDEST SWAP3 POP POP PUSH1 0x60 PUSH2 0x28E7 DUP8 DUP3 DUP9 ADD PUSH2 0x2824 JUMP JUMPDEST SWAP2 POP POP SWAP3 SWAP6 SWAP2 SWAP5 POP SWAP3 POP JUMP JUMPDEST PUSH1 0x0 DUP1 PUSH1 0x0 DUP1 PUSH1 0x80 DUP6 DUP8 SUB SLT ISZERO PUSH2 0x290D JUMPI PUSH2 0x290C PUSH2 0x1FD0 JUMP JUMPDEST JUMPDEST PUSH1 0x0 PUSH2 0x291B DUP8 DUP3 DUP9 ADD PUSH2 0x2023 JUMP JUMPDEST SWAP5 POP POP PUSH1 0x20 PUSH2 0x292C DUP8 DUP3 DUP9 ADD PUSH2 0x27F8 JUMP JUMPDEST SWAP4 POP POP PUSH1 0x40 PUSH2 0x293D DUP8 DUP3 DUP9 ADD PUSH2 0x2059 JUMP JUMPDEST SWAP3 POP POP PUSH1 0x60 PUSH2 0x294E DUP8 DUP3 DUP9 ADD PUSH2 0x2824 JUMP JUMPDEST SWAP2 POP POP SWAP3 SWAP6 SWAP2 SWAP5 POP SWAP3 POP JUMP JUMPDEST PUSH1 0x0 DUP1 PUSH1 0x40 DUP4 DUP6 SUB SLT ISZERO PUSH2 0x2971 JUMPI PUSH2 0x2970 PUSH2 0x1FD0 JUMP JUMPDEST JUMPDEST PUSH1 0x0 PUSH2 0x297F DUP6 DUP3 DUP7 ADD PUSH2 0x2023 JUMP JUMPDEST SWAP3 POP POP PUSH1 0x20 PUSH2 0x2990 DUP6 DUP3 DUP7 ADD PUSH2 0x2824 JUMP JUMPDEST SWAP2 POP POP SWAP3 POP SWAP3 SWAP1 POP JUMP JUMPDEST PUSH1 0x0 PUSH1 0x20 DUP3 DUP5 SUB SLT ISZERO PUSH2 0x29B0 JUMPI PUSH2 0x29AF PUSH2 0x1FD0 JUMP JUMPDEST JUMPDEST PUSH1 0x0 PUSH2 0x29BE DUP5 DUP3 DUP6 ADD PUSH2 0x27F8 JUMP JUMPDEST SWAP2 POP POP SWAP3 SWAP2 POP POP JUMP JUMPDEST PUSH2 0x29D0 DUP2 PUSH2 0x27D3 JUMP JUMPDEST DUP3 MSTORE POP POP JUMP JUMPDEST PUSH1 0x0 PUSH1 0x40 DUP3 ADD SWAP1 POP PUSH2 0x29EB PUSH1 0x0 DUP4 ADD DUP6 PUSH2 0x29C7 JUMP JUMPDEST PUSH2 0x29F8 PUSH1 0x20 DUP4 ADD DUP5 PUSH2 0x20AE JUMP JUMPDEST SWAP4 SWAP3 POP POP POP JUMP JUMPDEST PUSH1 0x0 DUP1 PUSH1 0x40 DUP4 DUP6 SUB SLT ISZERO PUSH2 0x2A16 JUMPI PUSH2 0x2A15 PUSH2 0x1FD0 JUMP JUMPDEST JUMPDEST PUSH1 0x0 PUSH2 0x2A24 DUP6 DUP3 DUP7 ADD PUSH2 0x2023 JUMP JUMPDEST SWAP3 POP POP PUSH1 0x20 PUSH2 0x2A35 DUP6 DUP3 DUP7 ADD PUSH2 0x2023 JUMP JUMPDEST SWAP2 POP POP SWAP3 POP SWAP3 SWAP1 POP JUMP JUMPDEST PUSH1 0x0 DUP1 PUSH1 0x0 DUP1 PUSH1 0x0 PUSH1 0xA0 DUP7 DUP9 SUB SLT ISZERO PUSH2 0x2A5B JUMPI PUSH2 0x2A5A PUSH2 0x1FD0 JUMP JUMPDEST JUMPDEST PUSH1 0x0 PUSH2 0x2A69 DUP9 DUP3 DUP10 ADD PUSH2 0x2023 JUMP JUMPDEST SWAP6 POP POP PUSH1 0x20 PUSH2 0x2A7A DUP9 DUP3 DUP10 ADD PUSH2 0x2023 JUMP JUMPDEST SWAP5 POP POP PUSH1 0x40 PUSH2 0x2A8B DUP9 DUP3 DUP10 ADD PUSH2 0x2059 JUMP JUMPDEST SWAP4 POP POP PUSH1 0x60 PUSH2 0x2A9C DUP9 DUP3 DUP10 ADD PUSH2 0x2059 JUMP JUMPDEST SWAP3 POP POP PUSH1 0x80 DUP7 ADD CALLDATALOAD PUSH8 0xFFFFFFFFFFFFFFFF DUP2 GT ISZERO PUSH2 0x2ABD JUMPI PUSH2 0x2ABC PUSH2 0x1FD5 JUMP JUMPDEST JUMPDEST PUSH2 0x2AC9 DUP9 DUP3 DUP10 ADD PUSH2 0x24BB JUMP JUMPDEST SWAP2 POP POP SWAP3 SWAP6 POP SWAP3 SWAP6 SWAP1 SWAP4 POP JUMP JUMPDEST PUSH32 0x455243313135353A2061646472657373207A65726F206973206E6F7420612076 PUSH1 0x0 DUP3 ADD MSTORE PUSH32 0x616C6964206F776E657200000000000000000000000000000000000000000000 PUSH1 0x20 DUP3 ADD MSTORE POP JUMP JUMPDEST PUSH1 0x0 PUSH2 0x2B32 PUSH1 0x2A DUP4 PUSH2 0x21CB JUMP JUMPDEST SWAP2 POP PUSH2 0x2B3D DUP3 PUSH2 0x2AD6 JUMP JUMPDEST PUSH1 0x40 DUP3 ADD SWAP1 POP SWAP2 SWAP1 POP JUMP JUMPDEST PUSH1 0x0 PUSH1 0x20 DUP3 ADD SWAP1 POP DUP2 DUP2 SUB PUSH1 0x0 DUP4 ADD MSTORE PUSH2 0x2B61 DUP2 PUSH2 0x2B25 JUMP JUMPDEST SWAP1 POP SWAP2 SWAP1 POP JUMP JUMPDEST PUSH32 0x4E487B7100000000000000000000000000000000000000000000000000000000 PUSH1 0x0 MSTORE PUSH1 0x22 PUSH1 0x4 MSTORE PUSH1 0x24 PUSH1 0x0 REVERT JUMPDEST PUSH1 0x0 PUSH1 0x2 DUP3 DIV SWAP1 POP PUSH1 0x1 DUP3 AND DUP1 PUSH2 0x2BAF JUMPI PUSH1 0x7F DUP3 AND SWAP2 POP JUMPDEST PUSH1 0x20 DUP3 LT DUP2 SUB PUSH2 0x2BC2 JUMPI PUSH2 0x2BC1 PUSH2 0x2B68 JUMP JUMPDEST JUMPDEST POP SWAP2 SWAP1 POP JUMP JUMPDEST PUSH32 0x455243313135353A2063616C6C6572206973206E6F7420746F6B656E206F776E PUSH1 0x0 DUP3 ADD MSTORE PUSH32 0x6572206F7220617070726F766564000000000000000000000000000000000000 PUSH1 0x20 DUP3 ADD MSTORE POP JUMP JUMPDEST PUSH1 0x0 PUSH2 0x2C24 PUSH1 0x2E DUP4 PUSH2 0x21CB JUMP JUMPDEST SWAP2 POP PUSH2 0x2C2F DUP3 PUSH2 0x2BC8 JUMP JUMPDEST PUSH1 0x40 DUP3 ADD SWAP1 POP SWAP2 SWAP1 POP JUMP JUMPDEST PUSH1 0x0 PUSH1 0x20 DUP3 ADD SWAP1 POP DUP2 DUP2 SUB PUSH1 0x0 DUP4 ADD MSTORE PUSH2 0x2C53 DUP2 PUSH2 0x2C17 JUMP JUMPDEST SWAP1 POP SWAP2 SWAP1 POP JUMP JUMPDEST PUSH32 0x455243313135353A206163636F756E747320616E6420696473206C656E677468 PUSH1 0x0 DUP3 ADD MSTORE PUSH32 0x206D69736D617463680000000000000000000000000000000000000000000000 PUSH1 0x20 DUP3 ADD MSTORE POP JUMP JUMPDEST PUSH1 0x0 PUSH2 0x2CB6 PUSH1 0x29 DUP4 PUSH2 0x21CB JUMP JUMPDEST SWAP2 POP PUSH2 0x2CC1 DUP3 PUSH2 0x2C5A JUMP JUMPDEST PUSH1 0x40 DUP3 ADD SWAP1 POP SWAP2 SWAP1 POP JUMP JUMPDEST PUSH1 0x0 PUSH1 0x20 DUP3 ADD SWAP1 POP DUP2 DUP2 SUB PUSH1 0x0 DUP4 ADD MSTORE PUSH2 0x2CE5 DUP2 PUSH2 0x2CA9 JUMP JUMPDEST SWAP1 POP SWAP2 SWAP1 POP JUMP JUMPDEST PUSH32 0x4E487B7100000000000000000000000000000000000000000000000000000000 PUSH1 0x0 MSTORE PUSH1 0x32 PUSH1 0x4 MSTORE PUSH1 0x24 PUSH1 0x0 REVERT JUMPDEST PUSH32 0x4E487B7100000000000000000000000000000000000000000000000000000000 PUSH1 0x0 MSTORE PUSH1 0x11 PUSH1 0x4 MSTORE PUSH1 0x24 PUSH1 0x0 REVERT JUMPDEST PUSH1 0x0 PUSH2 0x2D55 DUP3 PUSH2 0x2038 JUMP JUMPDEST SWAP2 POP PUSH2 0x2D60 DUP4 PUSH2 0x2038 JUMP JUMPDEST SWAP3 POP DUP3 DUP3 ADD SWAP1 POP DUP1 DUP3 GT ISZERO PUSH2 0x2D78 JUMPI PUSH2 0x2D77 PUSH2 0x2D1B JUMP JUMPDEST JUMPDEST SWAP3 SWAP2 POP POP JUMP JUMPDEST PUSH1 0x0 PUSH2 0x2D89 DUP3 PUSH2 0x2038 JUMP JUMPDEST SWAP2 POP PUSH2 0x2D94 DUP4 PUSH2 0x2038 JUMP JUMPDEST SWAP3 POP DUP3 DUP3 MUL PUSH2 0x2DA2 DUP2 PUSH2 0x2038 JUMP JUMPDEST SWAP2 POP DUP3 DUP3 DIV DUP5 EQ DUP4 ISZERO OR PUSH2 0x2DB9 JUMPI PUSH2 0x2DB8 PUSH2 0x2D1B JUMP JUMPDEST JUMPDEST POP SWAP3 SWAP2 POP POP JUMP JUMPDEST PUSH2 0x2DC9 DUP2 PUSH2 0x1FFA JUMP JUMPDEST DUP3 MSTORE POP POP JUMP JUMPDEST PUSH1 0x0 PUSH1 0x60 DUP3 ADD SWAP1 POP PUSH2 0x2DE4 PUSH1 0x0 DUP4 ADD DUP7 PUSH2 0x2DC0 JUMP JUMPDEST PUSH2 0x2DF1 PUSH1 0x20 DUP4 ADD DUP6 PUSH2 0x2DC0 JUMP JUMPDEST PUSH2 0x2DFE PUSH1 0x40 DUP4 ADD DUP5 PUSH2 0x20AE JUMP JUMPDEST SWAP5 SWAP4 POP POP POP POP JUMP JUMPDEST PUSH1 0x0 DUP2 MLOAD SWAP1 POP PUSH2 0x2E15 DUP2 PUSH2 0x280D JUMP JUMPDEST SWAP3 SWAP2 POP POP JUMP JUMPDEST PUSH1 0x0 PUSH1 0x20 DUP3 DUP5 SUB SLT ISZERO PUSH2 0x2E31 JUMPI PUSH2 0x2E30 PUSH2 0x1FD0 JUMP JUMPDEST JUMPDEST PUSH1 0x0 PUSH2 0x2E3F DUP5 DUP3 DUP6 ADD PUSH2 0x2E06 JUMP JUMPDEST SWAP2 POP POP SWAP3 SWAP2 POP POP JUMP JUMPDEST PUSH32 0x537061776E205061796D656E74204661696C6564000000000000000000000000 PUSH1 0x0 DUP3 ADD MSTORE POP JUMP JUMPDEST PUSH1 0x0 PUSH2 0x2E7E PUSH1 0x14 DUP4 PUSH2 0x21CB JUMP JUMPDEST SWAP2 POP PUSH2 0x2E89 DUP3 PUSH2 0x2E48 JUMP JUMPDEST PUSH1 0x20 DUP3 ADD SWAP1 POP SWAP2 SWAP1 POP JUMP JUMPDEST PUSH1 0x0 PUSH1 0x20 DUP3 ADD SWAP1 POP DUP2 DUP2 SUB PUSH1 0x0 DUP4 ADD MSTORE PUSH2 0x2EAD DUP2 PUSH2 0x2E71 JUMP JUMPDEST SWAP1 POP SWAP2 SWAP1 POP JUMP JUMPDEST PUSH32 0x4E487B7100000000000000000000000000000000000000000000000000000000 PUSH1 0x0 MSTORE PUSH1 0x12 PUSH1 0x4 MSTORE PUSH1 0x24 PUSH1 0x0 REVERT JUMPDEST PUSH1 0x0 PUSH2 0x2EEE DUP3 PUSH2 0x2038 JUMP JUMPDEST SWAP2 POP PUSH2 0x2EF9 DUP4 PUSH2 0x2038 JUMP JUMPDEST SWAP3 POP DUP3 PUSH2 0x2F09 JUMPI PUSH2 0x2F08 PUSH2 0x2EB4 JUMP JUMPDEST JUMPDEST DUP3 DUP3 DIV SWAP1 POP SWAP3 SWAP2 POP POP JUMP JUMPDEST PUSH32 0x496E73756666696369656E7420466F7263650000000000000000000000000000 PUSH1 0x0 DUP3 ADD MSTORE POP JUMP JUMPDEST PUSH1 0x0 PUSH2 0x2F4A PUSH1 0x12 DUP4 PUSH2 0x21CB JUMP JUMPDEST SWAP2 POP PUSH2 0x2F55 DUP3 PUSH2 0x2F14 JUMP JUMPDEST PUSH1 0x20 DUP3 ADD SWAP1 POP SWAP2 SWAP1 POP JUMP JUMPDEST PUSH1 0x0 PUSH1 0x20 DUP3 ADD SWAP1 POP DUP2 DUP2 SUB PUSH1 0x0 DUP4 ADD MSTORE PUSH2 0x2F79 DUP2 PUSH2 0x2F3D JUMP JUMPDEST SWAP1 POP SWAP2 SWAP1 POP JUMP JUMPDEST PUSH1 0x0 PUSH2 0x2F8B DUP3 PUSH2 0x2038 JUMP JUMPDEST SWAP2 POP PUSH2 0x2F96 DUP4 PUSH2 0x2038 JUMP JUMPDEST SWAP3 POP DUP3 DUP3 SUB SWAP1 POP DUP2 DUP2 GT ISZERO PUSH2 0x2FAE JUMPI PUSH2 0x2FAD PUSH2 0x2D1B JUMP JUMPDEST JUMPDEST SWAP3 SWAP2 POP POP JUMP JUMPDEST PUSH1 0x0 PUSH1 0x40 DUP3 ADD SWAP1 POP PUSH2 0x2FC9 PUSH1 0x0 DUP4 ADD DUP6 PUSH2 0x2DC0 JUMP JUMPDEST PUSH2 0x2FD6 PUSH1 0x20 DUP4 ADD DUP5 PUSH2 0x20AE JUMP JUMPDEST SWAP4 SWAP3 POP POP POP JUMP JUMPDEST PUSH32 0x426F756E7479205472616E73666572204661696C656400000000000000000000 PUSH1 0x0 DUP3 ADD MSTORE POP JUMP JUMPDEST PUSH1 0x0 PUSH2 0x3013 PUSH1 0x16 DUP4 PUSH2 0x21CB JUMP JUMPDEST SWAP2 POP PUSH2 0x301E DUP3 PUSH2 0x2FDD JUMP JUMPDEST PUSH1 0x20 DUP3 ADD SWAP1 POP SWAP2 SWAP1 POP JUMP JUMPDEST PUSH1 0x0 PUSH1 0x20 DUP3 ADD SWAP1 POP DUP2 DUP2 SUB PUSH1 0x0 DUP4 ADD MSTORE PUSH2 0x3042 DUP2 PUSH2 0x3006 JUMP JUMPDEST SWAP1 POP SWAP2 SWAP1 POP JUMP JUMPDEST PUSH32 0x455243313135353A2069647320616E6420616D6F756E7473206C656E67746820 PUSH1 0x0 DUP3 ADD MSTORE PUSH32 0x6D69736D61746368000000000000000000000000000000000000000000000000 PUSH1 0x20 DUP3 ADD MSTORE POP JUMP JUMPDEST PUSH1 0x0 PUSH2 0x30A5 PUSH1 0x28 DUP4 PUSH2 0x21CB JUMP JUMPDEST SWAP2 POP PUSH2 0x30B0 DUP3 PUSH2 0x3049 JUMP JUMPDEST PUSH1 0x40 DUP3 ADD SWAP1 POP SWAP2 SWAP1 POP JUMP JUMPDEST PUSH1 0x0 PUSH1 0x20 DUP3 ADD SWAP1 POP DUP2 DUP2 SUB PUSH1 0x0 DUP4 ADD MSTORE PUSH2 0x30D4 DUP2 PUSH2 0x3098 JUMP JUMPDEST SWAP1 POP SWAP2 SWAP1 POP JUMP JUMPDEST PUSH32 0x455243313135353A207472616E7366657220746F20746865207A65726F206164 PUSH1 0x0 DUP3 ADD MSTORE PUSH32 0x6472657373000000000000000000000000000000000000000000000000000000 PUSH1 0x20 DUP3 ADD MSTORE POP JUMP JUMPDEST PUSH1 0x0 PUSH2 0x3137 PUSH1 0x25 DUP4 PUSH2 0x21CB JUMP JUMPDEST SWAP2 POP PUSH2 0x3142 DUP3 PUSH2 0x30DB JUMP JUMPDEST PUSH1 0x40 DUP3 ADD SWAP1 POP SWAP2 SWAP1 POP JUMP JUMPDEST PUSH1 0x0 PUSH1 0x20 DUP3 ADD SWAP1 POP DUP2 DUP2 SUB PUSH1 0x0 DUP4 ADD MSTORE PUSH2 0x3166 DUP2 PUSH2 0x312A JUMP JUMPDEST SWAP1 POP SWAP2 SWAP1 POP JUMP JUMPDEST PUSH32 0x455243313135353A20696E73756666696369656E742062616C616E636520666F PUSH1 0x0 DUP3 ADD MSTORE PUSH32 0x72207472616E7366657200000000000000000000000000000000000000000000 PUSH1 0x20 DUP3 ADD MSTORE POP JUMP JUMPDEST PUSH1 0x0 PUSH2 0x31C9 PUSH1 0x2A DUP4 PUSH2 0x21CB JUMP JUMPDEST SWAP2 POP PUSH2 0x31D4 DUP3 PUSH2 0x316D JUMP JUMPDEST PUSH1 0x40 DUP3 ADD SWAP1 POP SWAP2 SWAP1 POP JUMP JUMPDEST PUSH1 0x0 PUSH1 0x20 DUP3 ADD SWAP1 POP DUP2 DUP2 SUB PUSH1 0x0 DUP4 ADD MSTORE PUSH2 0x31F8 DUP2 PUSH2 0x31BC JUMP JUMPDEST SWAP1 POP SWAP2 SWAP1 POP JUMP JUMPDEST PUSH1 0x0 PUSH1 0x40 DUP3 ADD SWAP1 POP DUP2 DUP2 SUB PUSH1 0x0 DUP4 ADD MSTORE PUSH2 0x3219 DUP2 DUP6 PUSH2 0x2753 JUMP JUMPDEST SWAP1 POP DUP2 DUP2 SUB PUSH1 0x20 DUP4 ADD MSTORE PUSH2 0x322D DUP2 DUP5 PUSH2 0x2753 JUMP JUMPDEST SWAP1 POP SWAP4 SWAP3 POP POP POP JUMP JUMPDEST PUSH32 0x5265656E7472616E637947756172643A207265656E7472616E742063616C6C00 PUSH1 0x0 DUP3 ADD MSTORE POP JUMP JUMPDEST PUSH1 0x0 PUSH2 0x326C PUSH1 0x1F DUP4 PUSH2 0x21CB JUMP JUMPDEST SWAP2 POP PUSH2 0x3277 DUP3 PUSH2 0x3236 JUMP JUMPDEST PUSH1 0x20 DUP3 ADD SWAP1 POP SWAP2 SWAP1 POP JUMP JUMPDEST PUSH1 0x0 PUSH1 0x20 DUP3 ADD SWAP1 POP DUP2 DUP2 SUB PUSH1 0x0 DUP4 ADD MSTORE PUSH2 0x329B DUP2 PUSH2 0x325F JUMP JUMPDEST SWAP1 POP SWAP2 SWAP1 POP JUMP JUMPDEST PUSH32 0x455243313135353A206D696E7420746F20746865207A65726F20616464726573 PUSH1 0x0 DUP3 ADD MSTORE PUSH32 0x7300000000000000000000000000000000000000000000000000000000000000 PUSH1 0x20 DUP3 ADD MSTORE POP JUMP JUMPDEST PUSH1 0x0 PUSH2 0x32FE PUSH1 0x21 DUP4 PUSH2 0x21CB JUMP JUMPDEST SWAP2 POP PUSH2 0x3309 DUP3 PUSH2 0x32A2 JUMP JUMPDEST PUSH1 0x40 DUP3 ADD SWAP1 POP SWAP2 SWAP1 POP JUMP JUMPDEST PUSH1 0x0 PUSH1 0x20 DUP3 ADD SWAP1 POP DUP2 DUP2 SUB PUSH1 0x0 DUP4 ADD MSTORE PUSH2 0x332D DUP2 PUSH2 0x32F1 JUMP JUMPDEST SWAP1 POP SWAP2 SWAP1 POP JUMP JUMPDEST PUSH1 0x0 PUSH1 0x40 DUP3 ADD SWAP1 POP PUSH2 0x3349 PUSH1 0x0 DUP4 ADD DUP6 PUSH2 0x20AE JUMP JUMPDEST PUSH2 0x3356 PUSH1 0x20 DUP4 ADD DUP5 PUSH2 0x20AE JUMP JUMPDEST SWAP4 SWAP3 POP POP POP JUMP JUMPDEST PUSH32 0x455243313135353A206275726E2066726F6D20746865207A65726F2061646472 PUSH1 0x0 DUP3 ADD MSTORE PUSH32 0x6573730000000000000000000000000000000000000000000000000000000000 PUSH1 0x20 DUP3 ADD MSTORE POP JUMP JUMPDEST PUSH1 0x0 PUSH2 0x33B9 PUSH1 0x23 DUP4 PUSH2 0x21CB JUMP JUMPDEST SWAP2 POP PUSH2 0x33C4 DUP3 PUSH2 0x335D JUMP JUMPDEST PUSH1 0x40 DUP3 ADD SWAP1 POP SWAP2 SWAP1 POP JUMP JUMPDEST PUSH1 0x0 PUSH1 0x20 DUP3 ADD SWAP1 POP DUP2 DUP2 SUB PUSH1 0x0 DUP4 ADD MSTORE PUSH2 0x33E8 DUP2 PUSH2 0x33AC JUMP JUMPDEST SWAP1 POP SWAP2 SWAP1 POP JUMP JUMPDEST PUSH32 0x455243313135353A206275726E20616D6F756E7420657863656564732062616C PUSH1 0x0 DUP3 ADD MSTORE PUSH32 0x616E636500000000000000000000000000000000000000000000000000000000 PUSH1 0x20 DUP3 ADD MSTORE POP JUMP JUMPDEST PUSH1 0x0 PUSH2 0x344B PUSH1 0x24 DUP4 PUSH2 0x21CB JUMP JUMPDEST SWAP2 POP PUSH2 0x3456 DUP3 PUSH2 0x33EF JUMP JUMPDEST PUSH1 0x40 DUP3 ADD SWAP1 POP SWAP2 SWAP1 POP JUMP JUMPDEST PUSH1 0x0 PUSH1 0x20 DUP3 ADD SWAP1 POP DUP2 DUP2 SUB PUSH1 0x0 DUP4 ADD MSTORE PUSH2 0x347A DUP2 PUSH2 0x343E JUMP JUMPDEST SWAP1 POP SWAP2 SWAP1 POP JUMP JUMPDEST PUSH32 0x455243313135353A2073657474696E6720617070726F76616C20737461747573 PUSH1 0x0 DUP3 ADD MSTORE PUSH32 0x20666F722073656C660000000000000000000000000000000000000000000000 PUSH1 0x20 DUP3 ADD MSTORE POP JUMP JUMPDEST PUSH1 0x0 PUSH2 0x34DD PUSH1 0x29 DUP4 PUSH2 0x21CB JUMP JUMPDEST SWAP2 POP PUSH2 0x34E8 DUP3 PUSH2 0x3481 JUMP JUMPDEST PUSH1 0x40 DUP3 ADD SWAP1 POP SWAP2 SWAP1 POP JUMP JUMPDEST PUSH1 0x0 PUSH1 0x20 DUP3 ADD SWAP1 POP DUP2 DUP2 SUB PUSH1 0x0 DUP4 ADD MSTORE PUSH2 0x350C DUP2 PUSH2 0x34D0 JUMP JUMPDEST SWAP1 POP SWAP2 SWAP1 POP JUMP JUMPDEST PUSH1 0x0 DUP2 MLOAD SWAP1 POP SWAP2 SWAP1 POP JUMP JUMPDEST PUSH1 0x0 DUP3 DUP3 MSTORE PUSH1 0x20 DUP3 ADD SWAP1 POP SWAP3 SWAP2 POP POP JUMP JUMPDEST PUSH1 0x0 PUSH2 0x353A DUP3 PUSH2 0x3513 JUMP JUMPDEST PUSH2 0x3544 DUP2 DUP6 PUSH2 0x351E JUMP JUMPDEST SWAP4 POP PUSH2 0x3554 DUP2 DUP6 PUSH1 0x20 DUP7 ADD PUSH2 0x21DC JUMP JUMPDEST PUSH2 0x355D DUP2 PUSH2 0x2206 JUMP JUMPDEST DUP5 ADD SWAP2 POP POP SWAP3 SWAP2 POP POP JUMP JUMPDEST PUSH1 0x0 PUSH1 0xA0 DUP3 ADD SWAP1 POP PUSH2 0x357D PUSH1 0x0 DUP4 ADD DUP9 PUSH2 0x2DC0 JUMP JUMPDEST PUSH2 0x358A PUSH1 0x20 DUP4 ADD DUP8 PUSH2 0x2DC0 JUMP JUMPDEST DUP2 DUP2 SUB PUSH1 0x40 DUP4 ADD MSTORE PUSH2 0x359C DUP2 DUP7 PUSH2 0x2753 JUMP JUMPDEST SWAP1 POP DUP2 DUP2 SUB PUSH1 0x60 DUP4 ADD MSTORE PUSH2 0x35B0 DUP2 DUP6 PUSH2 0x2753 JUMP JUMPDEST SWAP1 POP DUP2 DUP2 SUB PUSH1 0x80 DUP4 ADD MSTORE PUSH2 0x35C4 DUP2 DUP5 PUSH2 0x352F JUMP JUMPDEST SWAP1 POP SWAP7 SWAP6 POP POP POP POP POP POP JUMP JUMPDEST PUSH1 0x0 DUP2 MLOAD SWAP1 POP PUSH2 0x35DF DUP2 PUSH2 0x2104 JUMP JUMPDEST SWAP3 SWAP2 POP POP JUMP JUMPDEST PUSH1 0x0 PUSH1 0x20 DUP3 DUP5 SUB SLT ISZERO PUSH2 0x35FB JUMPI PUSH2 0x35FA PUSH2 0x1FD0 JUMP JUMPDEST JUMPDEST PUSH1 0x0 PUSH2 0x3609 DUP5 DUP3 DUP6 ADD PUSH2 0x35D0 JUMP JUMPDEST SWAP2 POP POP SWAP3 SWAP2 POP POP JUMP JUMPDEST PUSH1 0x0 DUP2 PUSH1 0xE0 SHR SWAP1 POP SWAP2 SWAP1 POP JUMP JUMPDEST PUSH1 0x0 PUSH1 0x3 RETURNDATASIZE GT ISZERO PUSH2 0x363E JUMPI PUSH1 0x4 PUSH1 0x0 DUP1 RETURNDATACOPY PUSH2 0x363B PUSH1 0x0 MLOAD PUSH2 0x3612 JUMP JUMPDEST SWAP1 POP JUMPDEST SWAP1 JUMP JUMPDEST PUSH1 0x0 PUSH1 0x44 RETURNDATASIZE LT PUSH2 0x36CE JUMPI PUSH2 0x3653 PUSH2 0x1FC6 JUMP JUMPDEST PUSH1 0x4 RETURNDATASIZE SUB PUSH1 0x4 DUP3 RETURNDATACOPY DUP1 MLOAD RETURNDATASIZE PUSH1 0x24 DUP3 ADD GT PUSH8 0xFFFFFFFFFFFFFFFF DUP3 GT OR ISZERO PUSH2 0x367B JUMPI POP POP PUSH2 0x36CE JUMP JUMPDEST DUP1 DUP3 ADD DUP1 MLOAD PUSH8 0xFFFFFFFFFFFFFFFF DUP2 GT ISZERO PUSH2 0x3699 JUMPI POP POP POP POP PUSH2 0x36CE JUMP JUMPDEST DUP1 PUSH1 0x20 DUP4 ADD ADD PUSH1 0x4 RETURNDATASIZE SUB DUP6 ADD DUP2 GT ISZERO PUSH2 0x36B6 JUMPI POP POP POP POP POP PUSH2 0x36CE JUMP JUMPDEST PUSH2 0x36C5 DUP3 PUSH1 0x20 ADD DUP6 ADD DUP7 PUSH2 0x2320 JUMP JUMPDEST DUP3 SWAP6 POP POP POP POP POP POP JUMPDEST SWAP1 JUMP JUMPDEST PUSH32 0x455243313135353A207472616E7366657220746F206E6F6E2D45524331313535 PUSH1 0x0 DUP3 ADD MSTORE PUSH32 0x526563656976657220696D706C656D656E746572000000000000000000000000 PUSH1 0x20 DUP3 ADD MSTORE POP JUMP JUMPDEST PUSH1 0x0 PUSH2 0x372D PUSH1 0x34 DUP4 PUSH2 0x21CB JUMP JUMPDEST SWAP2 POP PUSH2 0x3738 DUP3 PUSH2 0x36D1 JUMP JUMPDEST PUSH1 0x40 DUP3 ADD SWAP1 POP SWAP2 SWAP1 POP JUMP JUMPDEST PUSH1 0x0 PUSH1 0x20 DUP3 ADD SWAP1 POP DUP2 DUP2 SUB PUSH1 0x0 DUP4 ADD MSTORE PUSH2 0x375C DUP2 PUSH2 0x3720 JUMP JUMPDEST SWAP1 POP SWAP2 SWAP1 POP JUMP JUMPDEST PUSH32 0x455243313135353A204552433131353552656365697665722072656A65637465 PUSH1 0x0 DUP3 ADD MSTORE PUSH32 0x6420746F6B656E73000000000000000000000000000000000000000000000000 PUSH1 0x20 DUP3 ADD MSTORE POP JUMP JUMPDEST PUSH1 0x0 PUSH2 0x37BF PUSH1 0x28 DUP4 PUSH2 0x21CB JUMP JUMPDEST SWAP2 POP PUSH2 0x37CA DUP3 PUSH2 0x3763 JUMP JUMPDEST PUSH1 0x40 DUP3 ADD SWAP1 POP SWAP2 SWAP1 POP JUMP JUMPDEST PUSH1 0x0 PUSH1 0x20 DUP3 ADD SWAP1 POP DUP2 DUP2 SUB PUSH1 0x0 DUP4 ADD MSTORE PUSH2 0x37EE DUP2 PUSH2 0x37B2 JUMP JUMPDEST SWAP1 POP SWAP2 SWAP1 POP JUMP JUMPDEST PUSH1 0x0 PUSH1 0xA0 DUP3 ADD SWAP1 POP PUSH2 0x380A PUSH1 0x0 DUP4 ADD DUP9 PUSH2 0x2DC0 JUMP JUMPDEST PUSH2 0x3817 PUSH1 0x20 DUP4 ADD DUP8 PUSH2 0x2DC0 JUMP JUMPDEST PUSH2 0x3824 PUSH1 0x40 DUP4 ADD DUP7 PUSH2 0x20AE JUMP JUMPDEST PUSH2 0x3831 PUSH1 0x60 DUP4 ADD DUP6 PUSH2 0x20AE JUMP JUMPDEST DUP2 DUP2 SUB PUSH1 0x80 DUP4 ADD MSTORE PUSH2 0x3843 DUP2 DUP5 PUSH2 0x352F JUMP JUMPDEST SWAP1 POP SWAP7 SWAP6 POP POP POP POP POP POP JUMP INVALID LOG2 PUSH5 0x6970667358 0x22 SLT KECCAK256 BASEFEE 0xC5 0xA7 TLOAD EXTCODESIZE PUSH0 SWAP13 0x4C 0x21 CALLCODE NUMBER 0xE0 0xAD ADD SWAP1 0xDA 0xDC 0xAC 0xAF ORIGIN PUSH30 0x3E1DC08CFA88F0F452F5064736F6C6343000818003368747470733A2F2F PUSH2 0x7069 0x2E PUSH12 0x696C6C67616D652E61692F6D PUSH6 0x746164617461 0x2F PUSH28 0x69647D2E6A736F6E0000000000000000000000000000000000000000 "},"methodIdentifiers":{"BOOST_RECOIL()":"44b70ac4","BOOST_REQUIRED()":"4cf5317b","BURN_BPS()":"a37a9fc0","SPAWN_COST()":"c704c3f1","TREASURY_BPS()":"4c25d197","agentStacks(address,uint256)":"edbd5df8","balanceOf(address,uint256)":"00fdd58e","balanceOfBatch(address[],uint256[])":"4e1273f4","getPendingBounty(address,uint256)":"ea075ee1","grid(uint16)":"cd000d33","isApprovedForAll(address,address)":"e985e9c5","kill(address,uint16,uint256,bool)":"7a2b3720","killToken()":"2bd7cd17","move(uint16,uint16,uint256,bool)":"6950ed03","safeBatchTransferFrom(address,address,uint256[],uint256[],bytes)":"2eb2c2d6","safeTransferFrom(address,address,uint256,uint256,bytes)":"f242432a","setApprovalForAll(address,bool)":"a22cb465","spawn(uint16,uint256,bool)":"5d69a710","supportsInterface(bytes4)":"01ffc9a7","treasuryBalance()":"313dab20","uri(uint256)":"0e89341c"}},"storageLayout":{"storage":[{"astId":90,"contract":"contracts/KillGame.sol:KILLGame","label":"_balances","offset":0,"slot":"0","type":"t_mapping(t_uint256,t_mapping(t_address,t_uint256))"},{"astId":96,"contract":"contracts/KillGame.sol:KILLGame","label":"_operatorApprovals","offset":0,"slot":"1","type":"t_mapping(t_address,t_mapping(t_address,t_bool))"},{"astId":98,"contract":"contracts/KillGame.sol:KILLGame","label":"_uri","offset":0,"slot":"2","type":"t_string_storage"},{"astId":10,"contract":"contracts/KillGame.sol:KILLGame","label":"_status","offset":0,"slot":"3","type":"t_uint256"},{"astId":1985,"contract":"contracts/KillGame.sol:KILLGame","label":"agentStacks","offset":0,"slot":"4","type":"t_mapping(t_address,t_mapping(t_uint256,t_struct(ReaperStack)1973_storage))"},{"astId":1990,"contract":"contracts/KillGame.sol:KILLGame","label":"grid","offset":0,"slot":"5","type":"t_mapping(t_uint16,t_struct(Cube)1978_storage)"},{"astId":1992,"contract":"contracts/KillGame.sol:KILLGame","label":"treasuryBalance","offset":0,"slot":"6","type":"t_uint256"}],"types":{"t_address":{"encoding":"inplace","label":"address","numberOfBytes":"20"},"t_bool":{"encoding":"inplace","label":"bool","numberOfBytes":"1"},"t_mapping(t_address,t_bool)":{"encoding":"mapping","key":"t_address","label":"mapping(address => bool)","numberOfBytes":"32","value":"t_bool"},"t_mapping(t_address,t_mapping(t_address,t_bool))":{"encoding":"mapping","key":"t_address","label":"mapping(address => mapping(address => bool))","numberOfBytes":"32","value":"t_mapping(t_address,t_bool)"},"t_mapping(t_address,t_mapping(t_uint256,t_struct(ReaperStack)1973_storage))":{"encoding":"mapping","key":"t_address","label":"mapping(address => mapping(uint256 => struct KILLGame.ReaperStack))","numberOfBytes":"32","value":"t_mapping(t_uint256,t_struct(ReaperStack)1973_storage)"},"t_mapping(t_address,t_uint256)":{"encoding":"mapping","key":"t_address","label":"mapping(address => uint256)","numberOfBytes":"32","value":"t_uint256"},"t_mapping(t_uint16,t_struct(Cube)1978_storage)":{"encoding":"mapping","key":"t_uint16","label":"mapping(uint16 => struct KILLGame.Cube)","numberOfBytes":"32","value":"t_struct(Cube)1978_storage"},"t_mapping(t_uint256,t_mapping(t_address,t_uint256))":{"encoding":"mapping","key":"t_uint256","label":"mapping(uint256 => mapping(address => uint256))","numberOfBytes":"32","value":"t_mapping(t_address,t_uint256)"},"t_mapping(t_uint256,t_struct(ReaperStack)1973_storage)":{"encoding":"mapping","key":"t_uint256","label":"mapping(uint256 => struct KILLGame.ReaperStack)","numberOfBytes":"32","value":"t_struct(ReaperStack)1973_storage"},"t_string_storage":{"encoding":"bytes","label":"string","numberOfBytes":"32"},"t_struct(Cube)1978_storage":{"encoding":"inplace","label":"struct KILLGame.Cube","members":[{"astId":1975,"contract":"contracts/KillGame.sol:KILLGame","label":"id","offset":0,"slot":"0","type":"t_uint16"},{"astId":1977,"contract":"contracts/KillGame.sol:KILLGame","label":"totalUnits","offset":0,"slot":"1","type":"t_uint256"}],"numberOfBytes":"64"},"t_struct(ReaperStack)1973_storage":{"encoding":"inplace","label":"struct KILLGame.ReaperStack","members":[{"astId":1972,"contract":"contracts/KillGame.sol:KILLGame","label":"birthBlock","offset":0,"slot":"0","type":"t_uint256"}],"numberOfBytes":"32"},"t_uint16":{"encoding":"inplace","label":"uint16","numberOfBytes":"2"},"t_uint256":{"encoding":"inplace","label":"uint256","numberOfBytes":"32"}}}}}}