{"contracts/KillGame.sol":{"KILLGame":{"abi":[{"inputs":[{"internalType":"address","name":"_tokenAddress","type":"address"}],"stateMutability":"nonpayable","type":"constructor"},{"inputs":[{"internalType":"address","name":"target","type":"address"}],"name":"AddressEmptyCode","type":"error"},{"inputs":[{"internalType":"address","name":"sender","type":"address"},{"internalType":"uint256","name":"balance","type":"uint256"},{"internalType":"uint256","name":"needed","type":"uint256"},{"internalType":"uint256","name":"tokenId","type":"uint256"}],"name":"ERC1155InsufficientBalance","type":"error"},{"inputs":[{"internalType":"address","name":"approver","type":"address"}],"name":"ERC1155InvalidApprover","type":"error"},{"inputs":[{"internalType":"uint256","name":"idsLength","type":"uint256"},{"internalType":"uint256","name":"valuesLength","type":"uint256"}],"name":"ERC1155InvalidArrayLength","type":"error"},{"inputs":[{"internalType":"address","name":"operator","type":"address"}],"name":"ERC1155InvalidOperator","type":"error"},{"inputs":[{"internalType":"address","name":"receiver","type":"address"}],"name":"ERC1155InvalidReceiver","type":"error"},{"inputs":[{"internalType":"address","name":"sender","type":"address"}],"name":"ERC1155InvalidSender","type":"error"},{"inputs":[{"internalType":"address","name":"operator","type":"address"},{"internalType":"address","name":"owner","type":"address"}],"name":"ERC1155MissingApprovalForAll","type":"error"},{"inputs":[],"name":"FailedCall","type":"error"},{"inputs":[{"internalType":"address","name":"owner","type":"address"}],"name":"OwnableInvalidOwner","type":"error"},{"inputs":[{"internalType":"address","name":"account","type":"address"}],"name":"OwnableUnauthorizedAccount","type":"error"},{"inputs":[],"name":"ReentrancyGuardReentrantCall","type":"error"},{"anonymous":false,"inputs":[{"indexed":true,"internalType":"address","name":"account","type":"address"},{"indexed":true,"internalType":"address","name":"operator","type":"address"},{"indexed":false,"internalType":"bool","name":"approved","type":"bool"}],"name":"ApprovalForAll","type":"event"},{"anonymous":false,"inputs":[{"indexed":false,"internalType":"uint256","name":"totalUnitsKilled","type":"uint256"},{"indexed":false,"internalType":"uint256","name":"totalReaperKilled","type":"uint256"},{"indexed":false,"internalType":"uint256","name":"killAdded","type":"uint256"},{"indexed":false,"internalType":"uint256","name":"killExtracted","type":"uint256"},{"indexed":false,"internalType":"uint256","name":"killBurned","type":"uint256"}],"name":"GlobalStats","type":"event"},{"anonymous":false,"inputs":[{"indexed":true,"internalType":"address","name":"attacker","type":"address"},{"indexed":true,"internalType":"address","name":"target","type":"address"},{"indexed":true,"internalType":"uint16","name":"stackId","type":"uint16"},{"components":[{"internalType":"uint256","name":"attackerUnitsSent","type":"uint256"},{"internalType":"uint256","name":"attackerReaperSent","type":"uint256"},{"internalType":"uint256","name":"attackerUnitsLost","type":"uint256"},{"internalType":"uint256","name":"attackerReaperLost","type":"uint256"},{"internalType":"uint256","name":"targetUnitsLost","type":"uint256"},{"internalType":"uint256","name":"targetReaperLost","type":"uint256"},{"internalType":"uint256","name":"initialDefenderUnits","type":"uint256"},{"internalType":"uint256","name":"initialDefenderReaper","type":"uint256"},{"internalType":"uint256","name":"attackerBounty","type":"uint256"},{"internalType":"uint256","name":"defenderBounty","type":"uint256"}],"indexed":false,"internalType":"struct KILLGame.BattleSummary","name":"summary","type":"tuple"},{"indexed":false,"internalType":"uint256","name":"targetBirthBlock","type":"uint256"}],"name":"Killed","type":"event"},{"anonymous":false,"inputs":[{"indexed":true,"internalType":"address","name":"agent","type":"address"},{"indexed":false,"internalType":"uint16","name":"fromStack","type":"uint16"},{"indexed":false,"internalType":"uint16","name":"toStack","type":"uint16"},{"indexed":false,"internalType":"uint256","name":"units","type":"uint256"},{"indexed":false,"internalType":"uint256","name":"reaper","type":"uint256"},{"indexed":false,"internalType":"uint256","name":"birthBlock","type":"uint256"}],"name":"Moved","type":"event"},{"anonymous":false,"inputs":[{"indexed":true,"internalType":"address","name":"previousOwner","type":"address"},{"indexed":true,"internalType":"address","name":"newOwner","type":"address"}],"name":"OwnershipTransferred","type":"event"},{"anonymous":false,"inputs":[{"indexed":true,"internalType":"address","name":"agent","type":"address"},{"indexed":true,"internalType":"uint256","name":"stackId","type":"uint256"},{"indexed":false,"internalType":"uint256","name":"units","type":"uint256"},{"indexed":false,"internalType":"uint256","name":"reapers","type":"uint256"},{"indexed":false,"internalType":"uint256","name":"birthBlock","type":"uint256"}],"name":"Spawned","type":"event"},{"anonymous":false,"inputs":[{"indexed":true,"internalType":"address","name":"operator","type":"address"},{"indexed":true,"internalType":"address","name":"from","type":"address"},{"indexed":true,"internalType":"address","name":"to","type":"address"},{"indexed":false,"internalType":"uint256[]","name":"ids","type":"uint256[]"},{"indexed":false,"internalType":"uint256[]","name":"values","type":"uint256[]"}],"name":"TransferBatch","type":"event"},{"anonymous":false,"inputs":[{"indexed":true,"internalType":"address","name":"operator","type":"address"},{"indexed":true,"internalType":"address","name":"from","type":"address"},{"indexed":true,"internalType":"address","name":"to","type":"address"},{"indexed":false,"internalType":"uint256","name":"id","type":"uint256"},{"indexed":false,"internalType":"uint256","name":"value","type":"uint256"}],"name":"TransferSingle","type":"event"},{"anonymous":false,"inputs":[{"indexed":false,"internalType":"uint256","name":"oldBps","type":"uint256"},{"indexed":false,"internalType":"uint256","name":"newBps","type":"uint256"}],"name":"TreasuryBpsUpdated","type":"event"},{"anonymous":false,"inputs":[{"indexed":false,"internalType":"string","name":"value","type":"string"},{"indexed":true,"internalType":"uint256","name":"id","type":"uint256"}],"name":"URI","type":"event"},{"inputs":[],"name":"BLOCKS_PER_MULTIPLIER","outputs":[{"internalType":"uint256","name":"","type":"uint256"}],"stateMutability":"view","type":"function"},{"inputs":[],"name":"BURN_BPS","outputs":[{"internalType":"uint256","name":"","type":"uint256"}],"stateMutability":"view","type":"function"},{"inputs":[],"name":"GLOBAL_CAP_BPS","outputs":[{"internalType":"uint256","name":"","type":"uint256"}],"stateMutability":"view","type":"function"},{"inputs":[],"name":"MAX_MULTIPLIER","outputs":[{"internalType":"uint256","name":"","type":"uint256"}],"stateMutability":"view","type":"function"},{"inputs":[],"name":"MOVE_COST","outputs":[{"internalType":"uint256","name":"","type":"uint256"}],"stateMutability":"view","type":"function"},{"inputs":[],"name":"SPAWN_COST","outputs":[{"internalType":"uint256","name":"","type":"uint256"}],"stateMutability":"view","type":"function"},{"inputs":[],"name":"THERMAL_PARITY","outputs":[{"internalType":"uint256","name":"","type":"uint256"}],"stateMutability":"view","type":"function"},{"inputs":[{"internalType":"uint256","name":"amt","type":"uint256"}],"name":"adminWithdraw","outputs":[],"stateMutability":"nonpayable","type":"function"},{"inputs":[{"internalType":"address","name":"","type":"address"},{"internalType":"uint256","name":"","type":"uint256"}],"name":"agentStacks","outputs":[{"internalType":"uint256","name":"birthBlock","type":"uint256"}],"stateMutability":"view","type":"function"},{"inputs":[{"internalType":"address","name":"","type":"address"}],"name":"agentTotalProfit","outputs":[{"internalType":"uint256","name":"","type":"uint256"}],"stateMutability":"view","type":"function"},{"inputs":[{"internalType":"address","name":"account","type":"address"},{"internalType":"uint256","name":"id","type":"uint256"}],"name":"balanceOf","outputs":[{"internalType":"uint256","name":"","type":"uint256"}],"stateMutability":"view","type":"function"},{"inputs":[{"internalType":"address[]","name":"accounts","type":"address[]"},{"internalType":"uint256[]","name":"ids","type":"uint256[]"}],"name":"balanceOfBatch","outputs":[{"internalType":"uint256[]","name":"","type":"uint256[]"}],"stateMutability":"view","type":"function"},{"inputs":[{"internalType":"address","name":"agent","type":"address"},{"internalType":"uint256","name":"id","type":"uint256"}],"name":"getBirthBlock","outputs":[{"internalType":"uint256","name":"","type":"uint256"}],"stateMutability":"view","type":"function"},{"inputs":[{"internalType":"uint16","name":"stackId","type":"uint16"}],"name":"getFullStack","outputs":[{"components":[{"internalType":"address","name":"occupant","type":"address"},{"internalType":"uint256","name":"units","type":"uint256"},{"internalType":"uint256","name":"reapers","type":"uint256"},{"internalType":"uint256","name":"age","type":"uint256"},{"internalType":"uint256","name":"pendingBounty","type":"uint256"}],"internalType":"struct KILLGame.StackInfo[]","name":"","type":"tuple[]"}],"stateMutability":"view","type":"function"},{"inputs":[{"internalType":"address","name":"agent","type":"address"},{"internalType":"uint256","name":"id","type":"uint256"}],"name":"getPendingBounty","outputs":[{"internalType":"uint256","name":"","type":"uint256"}],"stateMutability":"view","type":"function"},{"inputs":[{"internalType":"address","name":"account","type":"address"},{"internalType":"address","name":"operator","type":"address"}],"name":"isApprovedForAll","outputs":[{"internalType":"bool","name":"","type":"bool"}],"stateMutability":"view","type":"function"},{"inputs":[{"internalType":"address","name":"target","type":"address"},{"internalType":"uint16","name":"stackId","type":"uint16"},{"internalType":"uint256","name":"sentUnits","type":"uint256"},{"internalType":"uint256","name":"sentReaper","type":"uint256"}],"name":"kill","outputs":[{"internalType":"uint256","name":"attackerBounty","type":"uint256"}],"stateMutability":"nonpayable","type":"function"},{"inputs":[],"name":"killToken","outputs":[{"internalType":"contract IERC20","name":"","type":"address"}],"stateMutability":"view","type":"function"},{"inputs":[{"internalType":"uint16","name":"fromStack","type":"uint16"},{"internalType":"uint16","name":"toStack","type":"uint16"},{"internalType":"uint256","name":"units","type":"uint256"},{"internalType":"uint256","name":"reaper","type":"uint256"}],"name":"move","outputs":[],"stateMutability":"nonpayable","type":"function"},{"inputs":[{"internalType":"bytes[]","name":"data","type":"bytes[]"}],"name":"multicall","outputs":[{"internalType":"bytes[]","name":"results","type":"bytes[]"}],"stateMutability":"nonpayable","type":"function"},{"inputs":[],"name":"owner","outputs":[{"internalType":"address","name":"","type":"address"}],"stateMutability":"view","type":"function"},{"inputs":[],"name":"renounceOwnership","outputs":[],"stateMutability":"nonpayable","type":"function"},{"inputs":[{"internalType":"address","name":"from","type":"address"},{"internalType":"address","name":"to","type":"address"},{"internalType":"uint256[]","name":"ids","type":"uint256[]"},{"internalType":"uint256[]","name":"values","type":"uint256[]"},{"internalType":"bytes","name":"data","type":"bytes"}],"name":"safeBatchTransferFrom","outputs":[],"stateMutability":"nonpayable","type":"function"},{"inputs":[{"internalType":"address","name":"from","type":"address"},{"internalType":"address","name":"to","type":"address"},{"internalType":"uint256","name":"id","type":"uint256"},{"internalType":"uint256","name":"value","type":"uint256"},{"internalType":"bytes","name":"data","type":"bytes"}],"name":"safeTransferFrom","outputs":[],"stateMutability":"nonpayable","type":"function"},{"inputs":[{"internalType":"address","name":"operator","type":"address"},{"internalType":"bool","name":"approved","type":"bool"}],"name":"setApprovalForAll","outputs":[],"stateMutability":"nonpayable","type":"function"},{"inputs":[{"internalType":"uint256","name":"_newBps","type":"uint256"}],"name":"setTreasuryBps","outputs":[],"stateMutability":"nonpayable","type":"function"},{"inputs":[{"internalType":"uint16","name":"stackId","type":"uint16"},{"internalType":"uint256","name":"amount","type":"uint256"}],"name":"spawn","outputs":[],"stateMutability":"nonpayable","type":"function"},{"inputs":[{"internalType":"uint256","name":"","type":"uint256"}],"name":"stackHeads","outputs":[{"internalType":"address","name":"","type":"address"}],"stateMutability":"view","type":"function"},{"inputs":[{"internalType":"uint256","name":"","type":"uint256"},{"internalType":"address","name":"","type":"address"}],"name":"stackNodes","outputs":[{"internalType":"address","name":"prev","type":"address"},{"internalType":"address","name":"next","type":"address"},{"internalType":"bool","name":"exists","type":"bool"}],"stateMutability":"view","type":"function"},{"inputs":[{"internalType":"bytes4","name":"id","type":"bytes4"}],"name":"supportsInterface","outputs":[{"internalType":"bool","name":"","type":"bool"}],"stateMutability":"view","type":"function"},{"inputs":[],"name":"totalKillAdded","outputs":[{"internalType":"uint256","name":"","type":"uint256"}],"stateMutability":"view","type":"function"},{"inputs":[],"name":"totalKillBurned","outputs":[{"internalType":"uint256","name":"","type":"uint256"}],"stateMutability":"view","type":"function"},{"inputs":[],"name":"totalKillExtracted","outputs":[{"internalType":"uint256","name":"","type":"uint256"}],"stateMutability":"view","type":"function"},{"inputs":[],"name":"totalReaperKilled","outputs":[{"internalType":"uint256","name":"","type":"uint256"}],"stateMutability":"view","type":"function"},{"inputs":[],"name":"totalUnitsKilled","outputs":[{"internalType":"uint256","name":"","type":"uint256"}],"stateMutability":"view","type":"function"},{"inputs":[{"internalType":"address","name":"newOwner","type":"address"}],"name":"transferOwnership","outputs":[],"stateMutability":"nonpayable","type":"function"},{"inputs":[],"name":"treasuryBps","outputs":[{"internalType":"uint256","name":"","type":"uint256"}],"stateMutability":"view","type":"function"},{"inputs":[{"internalType":"uint256","name":"","type":"uint256"}],"name":"uri","outputs":[{"internalType":"string","name":"","type":"string"}],"stateMutability":"view","type":"function"}],"evm":{"bytecode":{"linkReferences":{},"object":"60a0346200022d576001600160401b0390601f6200389b38819003918201601f1916830191848311848410176200021757808492604094855283396020938491810103126200022d57516001600160a01b039384821693918490036200022d57825190606082019081118282101762000217578352602a81527f68747470733a2f2f6170692e6b696c6c67616d652e61692f6d65746164617461828201526917bdb4b23e973539b7b760b11b8382015260025491600192600181811c911680156200020c575b82821014620001f657601f8111620001c1575b50600260009081528181209382905b818310620001a95750505001516001600160b01b0319169055605560025560016003553315620001925760048054336001600160a01b0319821681179092559151939091167f8be0079c531659141344cd1fd0a4f28419497f9722a3daafe3b4186f6b6457e0600080a3601e60055560805261366890816200023382396080518181816104680152818161072401528181610c98015281816113b901528181611fbc01526130460152f35b51631e4fbdf760e01b815260006004820152602490fd5b848401518655948501949281019291810191620000e7565b6002600052836002601f84600020930160051c830192015b828110620001e9575050620000d8565b60008155018490620001d9565b634e487b7160e01b600052602260045260246000fd5b90607f1690620000c5565b634e487b7160e01b600052604160045260246000fd5b600080fdfe6080604052600436101561001257600080fd5b60003560e01c8062fdd58e1461026c57806301ffc9a71461026757806309f61826146102625780630e89341c1461025d5780632bd7cd17146102585780632eb2c2d6146102535780632ee8174e1461024e5780633e984e48146102495780634dc10ea1146102445780634e1273f41461023f578063523c686a146101fe5780635635fdbc1461023a5780635d6a618d1461023557806366d8153f146102305780636ba375151461022b578063715018a61461022657806378129882146102215780637c5b4a371461021c57806388b00adc146102175780638da5cb5b1461021257806391fa2a6a1461020d5780639445684814610208578063a22cb46514610203578063a37a9fc0146101fe578063ac9650d8146101f9578063b8011328146101d1578063bb6eb359146101f4578063c4e571c5146101ef578063c68e8075146101ea578063c704c3f1146101e5578063e74fe237146101e0578063e985e9c5146101db578063ea075ee1146101d6578063edbd5df8146101d1578063ef0a1311146101cc578063f242432a146101c7578063f2fde38b146101c25763fe610d40146101bd57600080fd5b61199b565b6118fc565b6117cf565b61161a565b61116b565b611579565b611517565b61132b565b611307565b6112cd565b611259565b6111b3565b611105565b610b49565b610fc3565b610f95565b610d2b565b610d04565b610ce6565b610c58565b610c3a565b610bdb565b610bbe565b610ba0565b610b84565b610b66565b610a8e565b610a2b565b610a0e565b6109f0565b6108b8565b610704565b6105fb565b6103f2565b610316565b6102b6565b600435906001600160a01b038216820361028757565b600080fd5b602435906001600160a01b038216820361028757565b35906001600160a01b038216820361028757565b346102875760403660031901126102875760206102fb6102d4610271565b602435600052600083526040600020906001600160a01b0316600052602052604060002090565b54604051908152f35b6001600160e01b031981160361028757565b346102875760203660031901126102875760206001600160e01b031960043561033e81610304565b167fd9b67a260000000000000000000000000000000000000000000000000000000081149081156103a6575b811561037c575b506040519015158152f35b7f01ffc9a70000000000000000000000000000000000000000000000000000000091501438610371565b7f0e89341c000000000000000000000000000000000000000000000000000000008114915061036a565b6004359061ffff8216820361028757565b6024359061ffff8216820361028757565b346102875760403660031901126102875761040b6103d0565b61ffff6024359161041a61219b565b169081151580610594575b61042e906119fd565b61029a810461043c82611a7e565b6040516323b872dd60e01b815233600482015230602482015260448101829052919060208360648160007f00000000000000000000000000000000000000000000000000000000000000006001600160a01b03165af190811561058f576104d06104d9927faf4ea7c0f51d4c33144122655ecd0051aa44b546b9daa750ab0d9144f3ed637e95600091610560575b50611b19565b60085401600855565b6104e48385336121d6565b80610548575b61051a8461050b336001600160a01b0316600052600b602052604060002090565b90600052602052604060002090565b54604080519485526020850192909252908301523391606090a361053c612265565b6105466001600355565b005b61055b8161055586611b64565b336121d6565b6104ea565b610582915060203d602011610588575b61057a818361079b565b810190611af8565b386104ca565b503d610570565b611b0d565b5060d8821115610425565b60005b8381106105b25750506000910152565b81810151838201526020016105a2565b906020916105db8151809281855285808601910161059f565b601f01601f1916010190565b9060206105f89281815201906105c2565b90565b346102875760208060031936011261028757604051906000906002546001918160011c92600183169283156106fa575b6020851084146106e65784875260208701939081156106c7575060011461066d575b6106698661065d8188038261079b565b604051918291826105e7565b0390f35b6002600090815294509192917f405787fa12a823e0f2b7631cc41b3ba8828b3321ca811111fa75cd3aa3bb5ace5b8386106106b6575050509101905061065d826106693861064d565b80548587015294820194810161069b565b60ff1916845250505090151560051b01905061065d826106693861064d565b602486634e487b7160e01b81526022600452fd5b93607f169361062b565b346102875760003660031901126102875760206040516001600160a01b037f0000000000000000000000000000000000000000000000000000000000000000168152f35b634e487b7160e01b600052604160045260246000fd5b6060810190811067ffffffffffffffff82111761077a57604052565b610748565b6020810190811067ffffffffffffffff82111761077a57604052565b90601f8019910116810190811067ffffffffffffffff82111761077a57604052565b6040519060a0820182811067ffffffffffffffff82111761077a57604052565b67ffffffffffffffff811161077a5760051b60200190565b9080601f8301121561028757602090823561080f816107dd565b9361081d604051958661079b565b81855260208086019260051b82010192831161028757602001905b828210610846575050505090565b81358152908301908301610838565b67ffffffffffffffff811161077a57601f01601f191660200190565b81601f820112156102875780359061088882610855565b92610896604051948561079b565b8284526020838301011161028757816000926020809301838601378301015290565b346102875760a0366003190112610287576108d1610271565b6108d961028c565b906044359167ffffffffffffffff90818411610287576108fe600494369086016107f5565b906064358381116102875761091690369087016107f5565b926084359081116102875761092e9036908701610871565b936001600160a01b038082169033821415806109bb575b61098e57831615610976571561095f576105469550612d61565b602486600060405191626a0d4560e21b8352820152fd5b602487600060405191632bfa23e760e11b8352820152fd5b6040805163711bec9160e11b815233818b019081526001600160a01b038616602082015290918291010390fd5b5081600052600160205260ff6109e8336040600020906001600160a01b0316600052602052604060002090565b541615610945565b34610287576000366003190112610287576020600754604051908152f35b346102875760003660031901126102875760206040516109c48152f35b34610287576000366003190112610287576020600554604051908152f35b90815180825260208080930193019160005b828110610a69575050505090565b835185529381019392810192600101610a5b565b9060206105f8928181520190610a49565b346102875760403660031901126102875760043567ffffffffffffffff8082116102875736602383011215610287578160040135610acb816107dd565b92610ad9604051948561079b565b8184526020916024602086019160051b8301019136831161028757602401905b828210610b3257856024358681116102875761066991610b20610b269236906004016107f5565b90611be4565b60405191829182610a7d565b838091610b3e846102a2565b815201910190610af9565b3461028757600036600319011261028757602060405161029a8152f35b34610287576000366003190112610287576020600954604051908152f35b3461028757600036600319011261028757602060405160148152f35b34610287576000366003190112610287576020600854604051908152f35b346102875760003660031901126102875760206040516104388152f35b3461028757600080600319360112610c3757610bf56122b6565b806001600160a01b036004546001600160a01b03198116600455167f8be0079c531659141344cd1fd0a4f28419497f9722a3daafe3b4186f6b6457e08280a380f35b80fd5b34610287576000366003190112610287576020600654604051908152f35b3461028757602036600319011261028757610c716122b6565b60405163a9059cbb60e01b81523360048083019190915235602482015260208160448160007f00000000000000000000000000000000000000000000000000000000000000006001600160a01b03165af1801561058f57610cce57005b6105469060203d6020116105885761057a818361079b565b34610287576000366003190112610287576020600a54604051908152f35b346102875760003660031901126102875760206001600160a01b0360045416604051908152f35b3461028757608036600319011261028757610669610d47610271565b610d4f6103e1565b60443590610e8f7f2c0ba6eda9140ba04ab07a25239250d2664c08a013d3ec03f3ec6f014f21a539610f6561ffff60643594610d8961219b565b1694610eea86610d9881611b64565b610df8610dcb33610db3856000526000602052604060002090565b906001600160a01b0316600052602052604060002090565b548986610de633610db3876000526000602052604060002090565b549210159182610f8a575b5050611ca2565b81610ebc6001600160a01b038c1699610e138b331415611ced565b8c610e1c611d38565b9a8b92898452806020850152610e4083610db3886000526000602052604060002090565b54610e5984610db38a6000526000602052604060002090565b54918160c08701528260e0870152610e888861050b876001600160a01b0316600052600b602052604060002090565b549b6122fa565b958691825160408501526020830151606085015260408301516080850152606083015160a08501526123da565b9a610ee484805160408201510160065401600655606060208201519101510160075401600755565b336124f6565b6040519182913395836101409093929193610160810194805182526020810151602083015260408101516040830152606081015160608301526080810151608083015260a081015160a083015260c081015160c083015260e081015160e0830152610100808201519083015261012080910151908201520152565b0390a4610f70612265565b610f7a6001600355565b6040519081529081906020820190565b101590508938610df1565b3461028757600036600319011261028757602060405168056bc75e2d631000008152f35b8015150361028757565b3461028757604036600319011261028757610fdc610271565b602435610fe881610fb9565b6001600160a01b03821691821561107057611023903360005260016020526040600020906001600160a01b0316600052602052604060002090565b60ff1981541660ff831515161790557f17307eab39ab6107e8899845ad3d59bd9653f200f220920489ca2b5937696c316040518061106b339482919091602081019215159052565b0390a3005b60246040517fced3e10000000000000000000000000000000000000000000000000000000000815260006004820152fd5b6020808201906020835283518092526040830192602060408460051b8301019501936000915b8483106110d75750505050505090565b90919293949584806110f5600193603f198682030187528a516105c2565b98019301930191949392906110c7565b346102875760203660031901126102875767ffffffffffffffff6004358181116102875736602382011215610287578060040135918211610287573660248360051b830101116102875761066991602461115f9201611e42565b604051918291826110a1565b34610287576040366003190112610287576001600160a01b0361118c610271565b16600052600b60205260406000206024356000526020526020604060002054604051908152f35b34610287576020366003190112610287576004356111cf6122b6565b61271081116112155760058054908290556040805191825260208201929092527f6993bc581306fd40069a7f8d78fd994e52ce66bdacf741f949a3e4bdcf28ca809190a1005b606460405162461bcd60e51b815260206004820152600860248201527f4d617820313030250000000000000000000000000000000000000000000000006044820152fd5b3461028757604036600319011261028757606061129f61127761028c565b600435600052600c6020526040600020906001600160a01b0316600052602052604060002090565b60ff6001600160a01b03600181845416930154906040519384528116602084015260a01c1615156040820152f35b34610287576020366003190112610287576001600160a01b036112ee610271565b16600052600e6020526020604060002054604051908152f35b346102875760003660031901126102875760206040516801158e460913d000008152f35b34610287576080366003190112610287576113446103d0565b61134c6103e1565b6044356064359161135b61219b565b61ffff808516938415158061150c575b80611501575b806114f4575b806114df575b61138690611ee4565b6040516323b872dd60e01b815233600482015230602482015268056bc75e2d6310000060448201529160208360648160007f00000000000000000000000000000000000000000000000000000000000000006001600160a01b03165af190811561058f577f377dc7145bd8ab426842504b448652c41dda00abb7f7c1df6bdfa40bd2a16f2c966114246114699361149e966000916105605750611b19565b61143a68056bc75e2d6310000060085401600855565b866114cd575b83806114a9575b5050336000908152600b60205260409020908516600052602052604060002090565b549060405194859433988691959493909260809360a084019761ffff8092168552166020840152604083015260608201520152565b0390a261053c612265565b6114b56114c692611b64565b6114c0848916611b64565b9061282a565b3883611447565b6114da878388168361282a565b611440565b506113866114ed8488612776565b905061137d565b5060d88284161115611377565b508183161515611371565b5060d885111561136b565b3461028757604036600319011261028757602060ff61156d611537610271565b6001600160a01b0361154761028c565b9116600052600184526040600020906001600160a01b0316600052602052604060002090565b54166040519015158152f35b346102875760403660031901126102875760206115a0611597610271565b60243590611f3e565b604051908152f35b60208082019080835283518092528060408094019401926000905b8382106115d257505050505090565b845180516001600160a01b0316875280840151878501528082015187830152606080820151908801526080908101519087015260a090950194938201936001909101906115c3565b34610287576020806003193601126102875761ffff6116376103d0565b1661164181611b64565b60009161166861165b82600052600d602052604060002090565b546001600160a01b031690565b6001600160a01b0381166117a3575061168083612115565b9361169861165b83600052600d602052604060002090565b926000935b8585106116b2576040518061066989826115a8565b6117956001611787836116dd8861050b85976001600160a01b0316600052600b602052604060002090565b546116f682610db38b6000526000602052604060002090565b549061171083610db38a6000526000602052604060002090565b549060009080431160001461179d5761172a915043611da5565b6117348b85611f3e565b9161173d6107bd565b6001600160a01b0386168152938b8501526040840152606083015260808201526117678a8d611bd0565b52611772898c611bd0565b50610db388600052600c602052604060002090565b01546001600160a01b031690565b94019361169d565b5061172a565b9260016117876117b56117ca93612106565b95610db385600052600c602052604060002090565b611668565b346102875760a0366003190112610287576117e8610271565b6117f061028c565b60843567ffffffffffffffff811161028757611810903690600401610871565b906001600160a01b038084169033821415806118c7575b6118a057821615611888571561187157610546926118696064356044359160405192600184526020840152604083019160018352606084015260808301604052565b929091612d61565b6024604051626a0d4560e21b815260006004820152fd5b6024604051632bfa23e760e11b815260006004820152fd5b60405163711bec9160e11b81523360048201526001600160a01b0386166024820152604490fd5b5081600052600160205260ff6118f4336040600020906001600160a01b0316600052602052604060002090565b541615611827565b3461028757602036600319011261028757611915610271565b61191d6122b6565b6001600160a01b0380911690811561196a57600454826001600160a01b0319821617600455167f8be0079c531659141344cd1fd0a4f28419497f9722a3daafe3b4186f6b6457e0600080a3005b60246040517f1e4fbdf700000000000000000000000000000000000000000000000000000000815260006004820152fd5b3461028757602036600319011261028757600435600052600d60205260206001600160a01b0360406000205416604051908152f35b6119f99160005260006020526040600020906001600160a01b0316600052602052604060002090565b5490565b15611a0457565b606460405162461bcd60e51b815260206004820152600d60248201527f496e76616c696420537461636b000000000000000000000000000000000000006044820152fd5b634e487b7160e01b600052601160045260246000fd5b8115611a68570490565b634e487b7160e01b600052601260045260246000fd5b906801158e460913d0000091828102928184041490151715611a9c57565b611a48565b9061029a91828102928184041490151715611a9c57565b906109c491828102928184041490151715611a9c57565b90606e820291808304606e1490151715611a9c57565b81810292918115918404141715611a9c57565b9081602091031261028757516105f881610fb9565b6040513d6000823e3d90fd5b15611b2057565b606460405162461bcd60e51b815260206004820152600860248201527f506179206661696c0000000000000000000000000000000000000000000000006044820152fd5b9060d88201809211611a9c57565b6001019081600111611a9c57565b91908201809211611a9c57565b60405190611b9a8261075e565b600282526040366020840137565b634e487b7160e01b600052603260045260246000fd5b805115611bcb5760200190565b611ba8565b8051821015611bcb5760209160051b010190565b91909180518351808203611c67575050805190611c19611c03836107dd565b92611c11604051948561079b565b8084526107dd565b60209190601f1901368484013760005b8151811015611c5f5780611c4e60019260051b85808287010151918a010151906119d0565b611c588287611bd0565b5201611c29565b509193505050565b6040517f5b05999100000000000000000000000000000000000000000000000000000000815260048101919091526024810191909152604490fd5b15611ca957565b606460405162461bcd60e51b815260206004820152600a60248201527f4c61636b20756e697473000000000000000000000000000000000000000000006044820152fd5b15611cf457565b606460405162461bcd60e51b815260206004820152601060248201527f43616e6e6f74206b696c6c2073656c66000000000000000000000000000000006044820152fd5b60405190610140820182811067ffffffffffffffff82111761077a57604052816101206000918281528260208201528260408201528260608201528260808201528260a08201528260c08201528260e0820152826101008201520152565b60d719810191908211611a9c57565b91908203918211611a9c57565b60405190611dbf8261077f565b60008252565b9190811015611bcb5760051b81013590601e198136030182121561028757019081359167ffffffffffffffff8311610287576020018236038113610287579190565b60209081611e40939594611e3487604051988995858701378401918383016000815281519485920161059f565b0103808552018361079b565b565b604051611e4e8161077f565b60008152611e5b836107dd565b92611e69604051948561079b565b808452601f19611e78826107dd565b0160005b818110611ed357505060005b818110611e96575050505090565b80611eb7611eb185611eab600195878a611dc5565b90611e07565b3061270d565b611ec18288611bd0565b52611ecc8187611bd0565b5001611e88565b806060602080938901015201611e7c565b15611eeb57565b606460405162461bcd60e51b815260206004820152600860248201527f426164206d6f76650000000000000000000000000000000000000000000000006044820152fd5b90816020910312610287575190565b611f5f8261050b836001600160a01b0316600052600b602052604060002090565b549182156120fe5760d88111156120f857611f7990611d96565b905b611f8482611b64565b6040517f70a08231000000000000000000000000000000000000000000000000000000008152306004820152939091906020856024817f00000000000000000000000000000000000000000000000000000000000000006001600160a01b03165afa94851561058f576000956120b5575b50926120849261207e9261208c958043116000146120a75761043861201d6120239243611da5565b04611b72565b926014841161209e575b9161206e61206883610db361205661207496610db3612079996000526000602052604060002090565b54946000526000602052604060002090565b54611aa1565b90611b80565b611a7e565b611ae5565b92611ab8565b612710900490565b9081811115612099575090565b905090565b6014935061202d565b50612023610438600061201d565b61208c949195509261207e926120e56120849560203d6020116120f1575b6120dd818361079b565b810190611f2f565b96929550925092611ff5565b503d6120d3565b90611f7b565b505050600090565b6000198114611a9c5760010190565b9061211f826107dd565b604061212e604051928361079b565b838252819361213f601f19916107dd565b019060005b8281106121515750505050565b81519060a082019180831067ffffffffffffffff84111761077a57602092845260008152826000818301526000858301526000606083015260006080830152828701015201612144565b6002600354146121ac576002600355565b60046040517f3ee5aeb5000000000000000000000000000000000000000000000000000000008152fd5b906121f36040516121e68161077f565b6000948582528385612933565b60d88111156122605760d7198101908111611a9c575b6001600160a01b03821692838152600b60205260408120828252602052604081205415612237575b50505050565b612257938152600b60205260408120828252602052604043912055612a7c565b38808080612231565b612209565b7f6b8aeaa3365d2dfcb9acc94f0a7429b657b4f2008cfafb9b10297011e077c65060a060065460075460085460095490600a54926040519485526020850152604084015260608301526080820152a1565b6001600160a01b036004541633036122ca57565b60246040517f118cdaa7000000000000000000000000000000000000000000000000000000008152336004820152fd5b9291604051936080850185811067ffffffffffffffff82111761077a576040526000855260208501906000825260408601916000835260608701946000865261234b61234582611aa1565b84611b80565b9161237061236961236461235e8b611aa1565b89611b80565b611acf565b6064900490565b9384156123d1575b898585111561238c57505050505050525290565b6123af6123cc999a956123c098956123c5956123b89b956123c095525280611ae5565b97868997611ae5565b978892611ae5565b611a5e565b9052611ae5565b905290565b60019450612378565b9093926000946124086123f8604086015161206e6060880151611aa1565b9461206e60208251920151611aa1565b6124128186611b80565b9182156124ea576124239085611f3e565b8261029a81106124cf5750945b8561243e575b505050505050565b859750916123c061248a9261245e836123c06124ae976101209a9b611ae5565b996124698b33612fa0565b336000908152600e602052604090206124838c8254611b80565b9055611ae5565b936124958582612fa0565b6001600160a01b0316600052600e602052604060002090565b6124b9848254611b80565b9055846101008201520152388080808080612436565b6124dc906124e492611ae5565b61029a900490565b94612430565b50600096505050505050565b929193604081018051158015906126d0575b61265d575b50805115801590612650575b6125cc575b5061253781610db3866000526000602052604060002090565b5415806125ac575b61259c575b508161255e81610db3866000526000602052604060002090565b5415918261257a575b5050612571575050565b611e40916130c8565b6125939250610db3906000526000602052604060002090565b54158138612567565b6125a690846130c8565b38612544565b506125c581610db3846000526000602052604060002090565b541561253f565b612601906125d8611b8d565b6125e0611b8d565b91600090805161262f575b6020018051612607575b5080825282528561309f565b3861251e565b9061262991876126178386611bd0565b52516126238286611bd0565b52612106565b386125f5565b90508761263b83611bbe565b52805161264784611bbe565b526001906125eb565b5060208101511515612519565b61269490612669611b8d565b612671611b8d565b9160009080516126b0575b5060608501805161269a575b5080825282528461309f565b3861250d565b906126aa91886126178386611bd0565b38612688565b9050886126bc83611bbe565b52516126c783611bbe565b5260013861267c565b5060608201511515612508565b3d15612708573d906126ee82610855565b916126fc604051938461079b565b82523d6000602084013e565b606090565b6000806105f893602081519101845af46127256126dd565b91613233565b61ffff9081166000190191908211611a9c57565b600191820b910b0390617fff198212617fff831317611a9c57565b9060010b9060010b0190617fff198212617fff831317611a9c57565b61280761280761279161278b61280e9461272b565b9461272b565b61ffff8095166127ed6006916001978084830616890b93818060248184818189041606168d0b9504168b0b96169160248180848606168d0b93818187041606168c0b9304168a0b9481811360001461281b57906127ed9161273f565b915b8181131561281257906128019161273f565b9061275a565b61ffff1690565b1490565b6128019161273f565b6128249161273f565b916127ef565b919060d88311156129285760d719830190838211611a9c5761287591925b60d882111561291d576128668161285e84611d96565b965b336132c6565b61286e611db2565b9133612933565b61288d33610db3836000526000602052604060002090565b541580612904575b6128f3575b506128bc8161050b336001600160a01b0316600052600b602052604060002090565b54156128c55750565b611e4090436128eb8261050b336001600160a01b0316600052600b602052604060002090565b553390612a7c565b6128fe9033906130c8565b3861289a565b5061291761291182611b64565b336119d0565b15612895565b612866818396612860565b612875908392612848565b909291926001600160a01b0382169384156118885761296f60405192600184526020840152604083019160018352606084015260808301604052565b928151845190818103611c6757505060005b82518110156129c9578060019160051b6129c16129b987610db3602080868b010151958c010151946000526000602052604060002090565b918254611b80565b905501612981565b509291936001825114600014612a405760208281015184820151604080519283529282015260009133917fc3d58168c5ae7397731d063d5bbf3d657854427343f4c083240f7aacaa2d0f629190a45b8051600103612a365790602080611e409593015191015191336135c6565b611e4093336133c9565b60006040517f4a39dc06d4c0dbc64b70af90fd698a233a518aa5d07e595d983b8c0526c8f7fb339180612a74888883613310565b0390a4612a18565b9081600052600c60205260ff6001612aab836040600020906001600160a01b0316600052602052604060002090565b015460a01c16612bf757612bba611e40926001600160a01b0380612ad983600052600d602052604060002090565b541690604051612ae88161075e565b60008152612b5c602082019284845260016040840193818552612b3c83612b1d8c610db38c600052600c602052604060002090565b92511682906001600160a01b03166001600160a01b0319825416179055565b0193511683906001600160a01b03166001600160a01b0319825416179055565b5181547fffffffffffffffffffffff00ffffffffffffffffffffffffffffffffffffffff1690151560a01b74ff0000000000000000000000000000000000000000161790558381612bd5575b5050600052600d602052604060002090565b906001600160a01b03166001600160a01b0319825416179055565b612bba612bf092610db385600052600c602052604060002090565b3883612ba8565b5050565b9291908051825190818103611c6757505060005b8151811015612cc0578060051b602080828501015191850101516001600160a01b038716612c42575b5050600101612c0f565b612c5a87610db3846000526000602052604060002090565b54818110612c895787610db36001959493612c819303936000526000602052604060002090565b559038612c38565b6040516303dee4c560e01b81526001600160a01b038916600482015260248101919091526044810182905260648101839052608490fd5b5090600092939160018151148414612d22576020908101519181015160408051938452918301526001600160a01b03929092169133917fc3d58168c5ae7397731d063d5bbf3d657854427343f4c083240f7aacaa2d0f6291819081015b0390a4565b90916001600160a01b037f4a39dc06d4c0dbc64b70af90fd698a233a518aa5d07e595d983b8c0526c8f7fb91612d1d6040519283921695339583613310565b949190918151845190818103611c6757505060005b8251811015612e61578060051b9060208083860101519287010151856001600160a01b0393848b16612ddb575b6001948216612db6575b50505001612d76565b612dd191610db36129b9926000526000602052604060002090565b9055388581612dad565b9192939050612df88a610db3846000526000602052604060002090565b54838110612e2a5791879184600196959403612e228d610db3856000526000602052604060002090565b559450612da3565b6040516303dee4c560e01b81526001600160a01b038c16600482015260248101919091526044810184905260648101839052608490fd5b509491939290936001855114600014612f0c576020858101518382015160408051928352928201526001600160a01b03838116929086169133917fc3d58168c5ae7397731d063d5bbf3d657854427343f4c083240f7aacaa2d0f6291a45b6001600160a01b038116612ed5575b5050505050565b8451600103612efb57602080612ef196015192015192336135fb565b3880808080612ece565b612f07949192336134c4565b612ef1565b6001600160a01b03604051818316918516907f4a39dc06d4c0dbc64b70af90fd698a233a518aa5d07e595d983b8c0526c8f7fb339180612f4d888c83613310565b0390a4612ebf565b15612f5c57565b606460405162461bcd60e51b815260206004820152600b60248201527f5061796f7574206661696c0000000000000000000000000000000000000000006044820152fd5b81612fa9575050565b61303891602091613007613002612fe5612fc861208460055487611ae5565b94612fe0612fd861208483611aa1565b968792611da5565b611da5565b93612ffa612ff586600954611b80565b600955565b600a54611b80565b600a55565b604051938492839263a9059cbb60e01b845260048401602090939291936001600160a01b0360408201951681520152565b038160006001600160a01b037f0000000000000000000000000000000000000000000000000000000000000000165af1801561058f57611e4091600091613080575b50612f55565b613099915060203d6020116105885761057a818361079b565b3861307a565b91906001600160a01b0383161561187157611e409260006040516130c28161077f565b52612bfb565b906130e181610db384600052600c602052604060002090565b916001830180549260ff8460a01c1615612ece576000946131df9461319561050b946001600160a01b0392838061311f87546001600160a01b031690565b1615158b1461321557505061165b61313e82546001600160a01b031690565b60016131796131578b600052600c602052604060002090565b88546001600160a01b03166001600160a01b0316600052602052604060002090565b01906001600160a01b03166001600160a01b0319825416179055565b9081166131e2575b50506131c66131ba82610db386600052600c602052604060002090565b60016000918281550155565b6001600160a01b0316600052600b602052604060002090565b55565b612bba6131f961320e93546001600160a01b031690565b91610db387600052600c602052604060002090565b388061319d565b61322e9116612bba89600052600d602052604060002090565b61165b565b90613272575080511561324857602081519101fd5b60046040517fd6bda275000000000000000000000000000000000000000000000000000000008152fd5b815115806132bd575b613283575090565b6024906001600160a01b03604051917f9996b315000000000000000000000000000000000000000000000000000000008352166004820152fd5b50803b1561327b565b906001600160a01b0382161561187157611e409261330160405192600184526020840152604083019160018352606084015260808301604052565b9160006040516130c28161077f565b90916133276105f893604084526040840190610a49565b916020818403910152610a49565b9081602091031261028757516105f881610304565b9261337a6105f895936001600160a01b03613388941686526000602087015260a0604087015260a0860190610a49565b908482036060860152610a49565b9160808184039101526105c2565b93906105f8959361337a91613388946001600160a01b03809216885216602087015260a0604087015260a0860190610a49565b9293919093843b6133db575050505050565b6020916133fe604051948593849363bc197c8160e01b988986526004860161334a565b038160006001600160a01b0388165af160009181613493575b5061345657826134256126dd565b805191908261344f57604051632bfa23e760e11b81526001600160a01b0383166004820152602490fd5b6020915001fd5b6001600160e01b0319160361347057503880808080612ece565b604051632bfa23e760e11b81526001600160a01b03919091166004820152602490fd5b6134b691925060203d6020116134bd575b6134ae818361079b565b810190613335565b9038613417565b503d6134a4565b939290949194853b6134d857505050505050565b6134fb602093604051958694859463bc197c8160e01b998a875260048701613396565b038160006001600160a01b0388165af16000918161353d575b5061352257826134256126dd565b6001600160e01b031916036134705750388080808080612436565b61355791925060203d6020116134bd576134ae818361079b565b9038613514565b909260a0926001600160a01b036105f89695168352600060208401526040830152606082015281608082015201906105c2565b91926105f895949160a0946001600160a01b0380921685521660208401526040830152606082015281608082015201906105c2565b9293919093843b6135d8575050505050565b6020916133fe604051948593849363f23a6e6160e01b988986526004860161355e565b939290949194853b61360f57505050505050565b6134fb602093604051958694859463f23a6e6160e01b998a87526004870161359156fea2646970667358221220817ae2c3d822022f8e07b2cdaa8707e4b1afedc8d016b88fecda3a9ecedd54ff64736f6c63430008180033","opcodes":"PUSH1 0xA0 CALLVALUE PUSH3 0x22D JUMPI PUSH1 0x1 PUSH1 0x1 PUSH1 0x40 SHL SUB SWAP1 PUSH1 0x1F PUSH3 0x389B CODESIZE DUP2 SWAP1 SUB SWAP2 DUP3 ADD PUSH1 0x1F NOT AND DUP4 ADD SWAP2 DUP5 DUP4 GT DUP5 DUP5 LT OR PUSH3 0x217 JUMPI DUP1 DUP5 SWAP3 PUSH1 0x40 SWAP5 DUP6 MSTORE DUP4 CODECOPY PUSH1 0x20 SWAP4 DUP5 SWAP2 DUP2 ADD SUB SLT PUSH3 0x22D JUMPI MLOAD PUSH1 0x1 PUSH1 0x1 PUSH1 0xA0 SHL SUB SWAP4 DUP5 DUP3 AND SWAP4 SWAP2 DUP5 SWAP1 SUB PUSH3 0x22D JUMPI DUP3 MLOAD SWAP1 PUSH1 0x60 DUP3 ADD SWAP1 DUP2 GT DUP3 DUP3 LT OR PUSH3 0x217 JUMPI DUP4 MSTORE PUSH1 0x2A DUP2 MSTORE PUSH32 0x68747470733A2F2F6170692E6B696C6C67616D652E61692F6D65746164617461 DUP3 DUP3 ADD MSTORE PUSH10 0x17BDB4B23E973539B7B7 PUSH1 0xB1 SHL DUP4 DUP3 ADD MSTORE PUSH1 0x2 SLOAD SWAP2 PUSH1 0x1 SWAP3 PUSH1 0x1 DUP2 DUP2 SHR SWAP2 AND DUP1 ISZERO PUSH3 0x20C JUMPI JUMPDEST DUP3 DUP3 LT EQ PUSH3 0x1F6 JUMPI PUSH1 0x1F DUP2 GT PUSH3 0x1C1 JUMPI JUMPDEST POP PUSH1 0x2 PUSH1 0x0 SWAP1 DUP2 MSTORE DUP2 DUP2 KECCAK256 SWAP4 DUP3 SWAP1 JUMPDEST DUP2 DUP4 LT PUSH3 0x1A9 JUMPI POP POP POP ADD MLOAD PUSH1 0x1 PUSH1 0x1 PUSH1 0xB0 SHL SUB NOT AND SWAP1 SSTORE PUSH1 0x55 PUSH1 0x2 SSTORE PUSH1 0x1 PUSH1 0x3 SSTORE CALLER ISZERO PUSH3 0x192 JUMPI PUSH1 0x4 DUP1 SLOAD CALLER PUSH1 0x1 PUSH1 0x1 PUSH1 0xA0 SHL SUB NOT DUP3 AND DUP2 OR SWAP1 SWAP3 SSTORE SWAP2 MLOAD SWAP4 SWAP1 SWAP2 AND PUSH32 0x8BE0079C531659141344CD1FD0A4F28419497F9722A3DAAFE3B4186F6B6457E0 PUSH1 0x0 DUP1 LOG3 PUSH1 0x1E PUSH1 0x5 SSTORE PUSH1 0x80 MSTORE PUSH2 0x3668 SWAP1 DUP2 PUSH3 0x233 DUP3 CODECOPY PUSH1 0x80 MLOAD DUP2 DUP2 DUP2 PUSH2 0x468 ADD MSTORE DUP2 DUP2 PUSH2 0x724 ADD MSTORE DUP2 DUP2 PUSH2 0xC98 ADD MSTORE DUP2 DUP2 PUSH2 0x13B9 ADD MSTORE DUP2 DUP2 PUSH2 0x1FBC ADD MSTORE PUSH2 0x3046 ADD MSTORE RETURN JUMPDEST MLOAD PUSH4 0x1E4FBDF7 PUSH1 0xE0 SHL DUP2 MSTORE PUSH1 0x0 PUSH1 0x4 DUP3 ADD MSTORE PUSH1 0x24 SWAP1 REVERT JUMPDEST DUP5 DUP5 ADD MLOAD DUP7 SSTORE SWAP5 DUP6 ADD SWAP5 SWAP3 DUP2 ADD SWAP3 SWAP2 DUP2 ADD SWAP2 PUSH3 0xE7 JUMP JUMPDEST PUSH1 0x2 PUSH1 0x0 MSTORE DUP4 PUSH1 0x2 PUSH1 0x1F DUP5 PUSH1 0x0 KECCAK256 SWAP4 ADD PUSH1 0x5 SHR DUP4 ADD SWAP3 ADD JUMPDEST DUP3 DUP2 LT PUSH3 0x1E9 JUMPI POP POP PUSH3 0xD8 JUMP JUMPDEST PUSH1 0x0 DUP2 SSTORE ADD DUP5 SWAP1 PUSH3 0x1D9 JUMP JUMPDEST PUSH4 0x4E487B71 PUSH1 0xE0 SHL PUSH1 0x0 MSTORE PUSH1 0x22 PUSH1 0x4 MSTORE PUSH1 0x24 PUSH1 0x0 REVERT JUMPDEST SWAP1 PUSH1 0x7F AND SWAP1 PUSH3 0xC5 JUMP JUMPDEST PUSH4 0x4E487B71 PUSH1 0xE0 SHL PUSH1 0x0 MSTORE PUSH1 0x41 PUSH1 0x4 MSTORE PUSH1 0x24 PUSH1 0x0 REVERT JUMPDEST PUSH1 0x0 DUP1 REVERT INVALID PUSH1 0x80 PUSH1 0x40 MSTORE PUSH1 0x4 CALLDATASIZE LT ISZERO PUSH2 0x12 JUMPI PUSH1 0x0 DUP1 REVERT JUMPDEST PUSH1 0x0 CALLDATALOAD PUSH1 0xE0 SHR DUP1 PUSH3 0xFDD58E EQ PUSH2 0x26C JUMPI DUP1 PUSH4 0x1FFC9A7 EQ PUSH2 0x267 JUMPI DUP1 PUSH4 0x9F61826 EQ PUSH2 0x262 JUMPI DUP1 PUSH4 0xE89341C EQ PUSH2 0x25D JUMPI DUP1 PUSH4 0x2BD7CD17 EQ PUSH2 0x258 JUMPI DUP1 PUSH4 0x2EB2C2D6 EQ PUSH2 0x253 JUMPI DUP1 PUSH4 0x2EE8174E EQ PUSH2 0x24E JUMPI DUP1 PUSH4 0x3E984E48 EQ PUSH2 0x249 JUMPI DUP1 PUSH4 0x4DC10EA1 EQ PUSH2 0x244 JUMPI DUP1 PUSH4 0x4E1273F4 EQ PUSH2 0x23F JUMPI DUP1 PUSH4 0x523C686A EQ PUSH2 0x1FE JUMPI DUP1 PUSH4 0x5635FDBC EQ PUSH2 0x23A JUMPI DUP1 PUSH4 0x5D6A618D EQ PUSH2 0x235 JUMPI DUP1 PUSH4 0x66D8153F EQ PUSH2 0x230 JUMPI DUP1 PUSH4 0x6BA37515 EQ PUSH2 0x22B JUMPI DUP1 PUSH4 0x715018A6 EQ PUSH2 0x226 JUMPI DUP1 PUSH4 0x78129882 EQ PUSH2 0x221 JUMPI DUP1 PUSH4 0x7C5B4A37 EQ PUSH2 0x21C JUMPI DUP1 PUSH4 0x88B00ADC EQ PUSH2 0x217 JUMPI DUP1 PUSH4 0x8DA5CB5B EQ PUSH2 0x212 JUMPI DUP1 PUSH4 0x91FA2A6A EQ PUSH2 0x20D JUMPI DUP1 PUSH4 0x94456848 EQ PUSH2 0x208 JUMPI DUP1 PUSH4 0xA22CB465 EQ PUSH2 0x203 JUMPI DUP1 PUSH4 0xA37A9FC0 EQ PUSH2 0x1FE JUMPI DUP1 PUSH4 0xAC9650D8 EQ PUSH2 0x1F9 JUMPI DUP1 PUSH4 0xB8011328 EQ PUSH2 0x1D1 JUMPI DUP1 PUSH4 0xBB6EB359 EQ PUSH2 0x1F4 JUMPI DUP1 PUSH4 0xC4E571C5 EQ PUSH2 0x1EF JUMPI DUP1 PUSH4 0xC68E8075 EQ PUSH2 0x1EA JUMPI DUP1 PUSH4 0xC704C3F1 EQ PUSH2 0x1E5 JUMPI DUP1 PUSH4 0xE74FE237 EQ PUSH2 0x1E0 JUMPI DUP1 PUSH4 0xE985E9C5 EQ PUSH2 0x1DB JUMPI DUP1 PUSH4 0xEA075EE1 EQ PUSH2 0x1D6 JUMPI DUP1 PUSH4 0xEDBD5DF8 EQ PUSH2 0x1D1 JUMPI DUP1 PUSH4 0xEF0A1311 EQ PUSH2 0x1CC JUMPI DUP1 PUSH4 0xF242432A EQ PUSH2 0x1C7 JUMPI DUP1 PUSH4 0xF2FDE38B EQ PUSH2 0x1C2 JUMPI PUSH4 0xFE610D40 EQ PUSH2 0x1BD JUMPI PUSH1 0x0 DUP1 REVERT JUMPDEST PUSH2 0x199B JUMP JUMPDEST PUSH2 0x18FC JUMP JUMPDEST PUSH2 0x17CF JUMP JUMPDEST PUSH2 0x161A JUMP JUMPDEST PUSH2 0x116B JUMP JUMPDEST PUSH2 0x1579 JUMP JUMPDEST PUSH2 0x1517 JUMP JUMPDEST PUSH2 0x132B JUMP JUMPDEST PUSH2 0x1307 JUMP JUMPDEST PUSH2 0x12CD JUMP JUMPDEST PUSH2 0x1259 JUMP JUMPDEST PUSH2 0x11B3 JUMP JUMPDEST PUSH2 0x1105 JUMP JUMPDEST PUSH2 0xB49 JUMP JUMPDEST PUSH2 0xFC3 JUMP JUMPDEST PUSH2 0xF95 JUMP JUMPDEST PUSH2 0xD2B JUMP JUMPDEST PUSH2 0xD04 JUMP JUMPDEST PUSH2 0xCE6 JUMP JUMPDEST PUSH2 0xC58 JUMP JUMPDEST PUSH2 0xC3A JUMP JUMPDEST PUSH2 0xBDB JUMP JUMPDEST PUSH2 0xBBE JUMP JUMPDEST PUSH2 0xBA0 JUMP JUMPDEST PUSH2 0xB84 JUMP JUMPDEST PUSH2 0xB66 JUMP JUMPDEST PUSH2 0xA8E JUMP JUMPDEST PUSH2 0xA2B JUMP JUMPDEST PUSH2 0xA0E JUMP JUMPDEST PUSH2 0x9F0 JUMP JUMPDEST PUSH2 0x8B8 JUMP JUMPDEST PUSH2 0x704 JUMP JUMPDEST PUSH2 0x5FB JUMP JUMPDEST PUSH2 0x3F2 JUMP JUMPDEST PUSH2 0x316 JUMP JUMPDEST PUSH2 0x2B6 JUMP JUMPDEST PUSH1 0x4 CALLDATALOAD SWAP1 PUSH1 0x1 PUSH1 0x1 PUSH1 0xA0 SHL SUB DUP3 AND DUP3 SUB PUSH2 0x287 JUMPI JUMP JUMPDEST PUSH1 0x0 DUP1 REVERT JUMPDEST PUSH1 0x24 CALLDATALOAD SWAP1 PUSH1 0x1 PUSH1 0x1 PUSH1 0xA0 SHL SUB DUP3 AND DUP3 SUB PUSH2 0x287 JUMPI JUMP JUMPDEST CALLDATALOAD SWAP1 PUSH1 0x1 PUSH1 0x1 PUSH1 0xA0 SHL SUB DUP3 AND DUP3 SUB PUSH2 0x287 JUMPI JUMP JUMPDEST CALLVALUE PUSH2 0x287 JUMPI PUSH1 0x40 CALLDATASIZE PUSH1 0x3 NOT ADD SLT PUSH2 0x287 JUMPI PUSH1 0x20 PUSH2 0x2FB PUSH2 0x2D4 PUSH2 0x271 JUMP JUMPDEST PUSH1 0x24 CALLDATALOAD PUSH1 0x0 MSTORE PUSH1 0x0 DUP4 MSTORE PUSH1 0x40 PUSH1 0x0 KECCAK256 SWAP1 PUSH1 0x1 PUSH1 0x1 PUSH1 0xA0 SHL SUB AND PUSH1 0x0 MSTORE PUSH1 0x20 MSTORE PUSH1 0x40 PUSH1 0x0 KECCAK256 SWAP1 JUMP JUMPDEST SLOAD PUSH1 0x40 MLOAD SWAP1 DUP2 MSTORE RETURN JUMPDEST PUSH1 0x1 PUSH1 0x1 PUSH1 0xE0 SHL SUB NOT DUP2 AND SUB PUSH2 0x287 JUMPI JUMP JUMPDEST CALLVALUE PUSH2 0x287 JUMPI PUSH1 0x20 CALLDATASIZE PUSH1 0x3 NOT ADD SLT PUSH2 0x287 JUMPI PUSH1 0x20 PUSH1 0x1 PUSH1 0x1 PUSH1 0xE0 SHL SUB NOT PUSH1 0x4 CALLDATALOAD PUSH2 0x33E DUP2 PUSH2 0x304 JUMP JUMPDEST AND PUSH32 0xD9B67A2600000000000000000000000000000000000000000000000000000000 DUP2 EQ SWAP1 DUP2 ISZERO PUSH2 0x3A6 JUMPI JUMPDEST DUP2 ISZERO PUSH2 0x37C JUMPI JUMPDEST POP PUSH1 0x40 MLOAD SWAP1 ISZERO ISZERO DUP2 MSTORE RETURN JUMPDEST PUSH32 0x1FFC9A700000000000000000000000000000000000000000000000000000000 SWAP2 POP EQ CODESIZE PUSH2 0x371 JUMP JUMPDEST PUSH32 0xE89341C00000000000000000000000000000000000000000000000000000000 DUP2 EQ SWAP2 POP PUSH2 0x36A JUMP JUMPDEST PUSH1 0x4 CALLDATALOAD SWAP1 PUSH2 0xFFFF DUP3 AND DUP3 SUB PUSH2 0x287 JUMPI JUMP JUMPDEST PUSH1 0x24 CALLDATALOAD SWAP1 PUSH2 0xFFFF DUP3 AND DUP3 SUB PUSH2 0x287 JUMPI JUMP JUMPDEST CALLVALUE PUSH2 0x287 JUMPI PUSH1 0x40 CALLDATASIZE PUSH1 0x3 NOT ADD SLT PUSH2 0x287 JUMPI PUSH2 0x40B PUSH2 0x3D0 JUMP JUMPDEST PUSH2 0xFFFF PUSH1 0x24 CALLDATALOAD SWAP2 PUSH2 0x41A PUSH2 0x219B JUMP JUMPDEST AND SWAP1 DUP2 ISZERO ISZERO DUP1 PUSH2 0x594 JUMPI JUMPDEST PUSH2 0x42E SWAP1 PUSH2 0x19FD JUMP JUMPDEST PUSH2 0x29A DUP2 DIV PUSH2 0x43C DUP3 PUSH2 0x1A7E JUMP JUMPDEST PUSH1 0x40 MLOAD PUSH4 0x23B872DD PUSH1 0xE0 SHL DUP2 MSTORE CALLER PUSH1 0x4 DUP3 ADD MSTORE ADDRESS PUSH1 0x24 DUP3 ADD MSTORE PUSH1 0x44 DUP2 ADD DUP3 SWAP1 MSTORE SWAP2 SWAP1 PUSH1 0x20 DUP4 PUSH1 0x64 DUP2 PUSH1 0x0 PUSH32 0x0 PUSH1 0x1 PUSH1 0x1 PUSH1 0xA0 SHL SUB AND GAS CALL SWAP1 DUP2 ISZERO PUSH2 0x58F JUMPI PUSH2 0x4D0 PUSH2 0x4D9 SWAP3 PUSH32 0xAF4EA7C0F51D4C33144122655ECD0051AA44B546B9DAA750AB0D9144F3ED637E SWAP6 PUSH1 0x0 SWAP2 PUSH2 0x560 JUMPI JUMPDEST POP PUSH2 0x1B19 JUMP JUMPDEST PUSH1 0x8 SLOAD ADD PUSH1 0x8 SSTORE JUMP JUMPDEST PUSH2 0x4E4 DUP4 DUP6 CALLER PUSH2 0x21D6 JUMP JUMPDEST DUP1 PUSH2 0x548 JUMPI JUMPDEST PUSH2 0x51A DUP5 PUSH2 0x50B CALLER PUSH1 0x1 PUSH1 0x1 PUSH1 0xA0 SHL SUB AND PUSH1 0x0 MSTORE PUSH1 0xB PUSH1 0x20 MSTORE PUSH1 0x40 PUSH1 0x0 KECCAK256 SWAP1 JUMP JUMPDEST SWAP1 PUSH1 0x0 MSTORE PUSH1 0x20 MSTORE PUSH1 0x40 PUSH1 0x0 KECCAK256 SWAP1 JUMP JUMPDEST SLOAD PUSH1 0x40 DUP1 MLOAD SWAP5 DUP6 MSTORE PUSH1 0x20 DUP6 ADD SWAP3 SWAP1 SWAP3 MSTORE SWAP1 DUP4 ADD MSTORE CALLER SWAP2 PUSH1 0x60 SWAP1 LOG3 PUSH2 0x53C PUSH2 0x2265 JUMP JUMPDEST PUSH2 0x546 PUSH1 0x1 PUSH1 0x3 SSTORE JUMP JUMPDEST STOP JUMPDEST PUSH2 0x55B DUP2 PUSH2 0x555 DUP7 PUSH2 0x1B64 JUMP JUMPDEST CALLER PUSH2 0x21D6 JUMP JUMPDEST PUSH2 0x4EA JUMP JUMPDEST PUSH2 0x582 SWAP2 POP PUSH1 0x20 RETURNDATASIZE PUSH1 0x20 GT PUSH2 0x588 JUMPI JUMPDEST PUSH2 0x57A DUP2 DUP4 PUSH2 0x79B JUMP JUMPDEST DUP2 ADD SWAP1 PUSH2 0x1AF8 JUMP JUMPDEST CODESIZE PUSH2 0x4CA JUMP JUMPDEST POP RETURNDATASIZE PUSH2 0x570 JUMP JUMPDEST PUSH2 0x1B0D JUMP JUMPDEST POP PUSH1 0xD8 DUP3 GT ISZERO PUSH2 0x425 JUMP JUMPDEST PUSH1 0x0 JUMPDEST DUP4 DUP2 LT PUSH2 0x5B2 JUMPI POP POP PUSH1 0x0 SWAP2 ADD MSTORE JUMP JUMPDEST DUP2 DUP2 ADD MLOAD DUP4 DUP3 ADD MSTORE PUSH1 0x20 ADD PUSH2 0x5A2 JUMP JUMPDEST SWAP1 PUSH1 0x20 SWAP2 PUSH2 0x5DB DUP2 MLOAD DUP1 SWAP3 DUP2 DUP6 MSTORE DUP6 DUP1 DUP7 ADD SWAP2 ADD PUSH2 0x59F JUMP JUMPDEST PUSH1 0x1F ADD PUSH1 0x1F NOT AND ADD ADD SWAP1 JUMP JUMPDEST SWAP1 PUSH1 0x20 PUSH2 0x5F8 SWAP3 DUP2 DUP2 MSTORE ADD SWAP1 PUSH2 0x5C2 JUMP JUMPDEST SWAP1 JUMP JUMPDEST CALLVALUE PUSH2 0x287 JUMPI PUSH1 0x20 DUP1 PUSH1 0x3 NOT CALLDATASIZE ADD SLT PUSH2 0x287 JUMPI PUSH1 0x40 MLOAD SWAP1 PUSH1 0x0 SWAP1 PUSH1 0x2 SLOAD PUSH1 0x1 SWAP2 DUP2 PUSH1 0x1 SHR SWAP3 PUSH1 0x1 DUP4 AND SWAP3 DUP4 ISZERO PUSH2 0x6FA JUMPI JUMPDEST PUSH1 0x20 DUP6 LT DUP5 EQ PUSH2 0x6E6 JUMPI DUP5 DUP8 MSTORE PUSH1 0x20 DUP8 ADD SWAP4 SWAP1 DUP2 ISZERO PUSH2 0x6C7 JUMPI POP PUSH1 0x1 EQ PUSH2 0x66D JUMPI JUMPDEST PUSH2 0x669 DUP7 PUSH2 0x65D DUP2 DUP9 SUB DUP3 PUSH2 0x79B JUMP JUMPDEST PUSH1 0x40 MLOAD SWAP2 DUP3 SWAP2 DUP3 PUSH2 0x5E7 JUMP JUMPDEST SUB SWAP1 RETURN JUMPDEST PUSH1 0x2 PUSH1 0x0 SWAP1 DUP2 MSTORE SWAP5 POP SWAP2 SWAP3 SWAP2 PUSH32 0x405787FA12A823E0F2B7631CC41B3BA8828B3321CA811111FA75CD3AA3BB5ACE JUMPDEST DUP4 DUP7 LT PUSH2 0x6B6 JUMPI POP POP POP SWAP2 ADD SWAP1 POP PUSH2 0x65D DUP3 PUSH2 0x669 CODESIZE PUSH2 0x64D JUMP JUMPDEST DUP1 SLOAD DUP6 DUP8 ADD MSTORE SWAP5 DUP3 ADD SWAP5 DUP2 ADD PUSH2 0x69B JUMP JUMPDEST PUSH1 0xFF NOT AND DUP5 MSTORE POP POP POP SWAP1 ISZERO ISZERO PUSH1 0x5 SHL ADD SWAP1 POP PUSH2 0x65D DUP3 PUSH2 0x669 CODESIZE PUSH2 0x64D JUMP JUMPDEST PUSH1 0x24 DUP7 PUSH4 0x4E487B71 PUSH1 0xE0 SHL DUP2 MSTORE PUSH1 0x22 PUSH1 0x4 MSTORE REVERT JUMPDEST SWAP4 PUSH1 0x7F AND SWAP4 PUSH2 0x62B JUMP JUMPDEST CALLVALUE PUSH2 0x287 JUMPI PUSH1 0x0 CALLDATASIZE PUSH1 0x3 NOT ADD SLT PUSH2 0x287 JUMPI PUSH1 0x20 PUSH1 0x40 MLOAD PUSH1 0x1 PUSH1 0x1 PUSH1 0xA0 SHL SUB PUSH32 0x0 AND DUP2 MSTORE RETURN JUMPDEST PUSH4 0x4E487B71 PUSH1 0xE0 SHL PUSH1 0x0 MSTORE PUSH1 0x41 PUSH1 0x4 MSTORE PUSH1 0x24 PUSH1 0x0 REVERT JUMPDEST PUSH1 0x60 DUP2 ADD SWAP1 DUP2 LT PUSH8 0xFFFFFFFFFFFFFFFF DUP3 GT OR PUSH2 0x77A JUMPI PUSH1 0x40 MSTORE JUMP JUMPDEST PUSH2 0x748 JUMP JUMPDEST PUSH1 0x20 DUP2 ADD SWAP1 DUP2 LT PUSH8 0xFFFFFFFFFFFFFFFF DUP3 GT OR PUSH2 0x77A JUMPI PUSH1 0x40 MSTORE JUMP JUMPDEST SWAP1 PUSH1 0x1F DUP1 NOT SWAP2 ADD AND DUP2 ADD SWAP1 DUP2 LT PUSH8 0xFFFFFFFFFFFFFFFF DUP3 GT OR PUSH2 0x77A JUMPI PUSH1 0x40 MSTORE JUMP JUMPDEST PUSH1 0x40 MLOAD SWAP1 PUSH1 0xA0 DUP3 ADD DUP3 DUP2 LT PUSH8 0xFFFFFFFFFFFFFFFF DUP3 GT OR PUSH2 0x77A JUMPI PUSH1 0x40 MSTORE JUMP JUMPDEST PUSH8 0xFFFFFFFFFFFFFFFF DUP2 GT PUSH2 0x77A JUMPI PUSH1 0x5 SHL PUSH1 0x20 ADD SWAP1 JUMP JUMPDEST SWAP1 DUP1 PUSH1 0x1F DUP4 ADD SLT ISZERO PUSH2 0x287 JUMPI PUSH1 0x20 SWAP1 DUP3 CALLDATALOAD PUSH2 0x80F DUP2 PUSH2 0x7DD JUMP JUMPDEST SWAP4 PUSH2 0x81D PUSH1 0x40 MLOAD SWAP6 DUP7 PUSH2 0x79B JUMP JUMPDEST DUP2 DUP6 MSTORE PUSH1 0x20 DUP1 DUP7 ADD SWAP3 PUSH1 0x5 SHL DUP3 ADD ADD SWAP3 DUP4 GT PUSH2 0x287 JUMPI PUSH1 0x20 ADD SWAP1 JUMPDEST DUP3 DUP3 LT PUSH2 0x846 JUMPI POP POP POP POP SWAP1 JUMP JUMPDEST DUP2 CALLDATALOAD DUP2 MSTORE SWAP1 DUP4 ADD SWAP1 DUP4 ADD PUSH2 0x838 JUMP JUMPDEST PUSH8 0xFFFFFFFFFFFFFFFF DUP2 GT PUSH2 0x77A JUMPI PUSH1 0x1F ADD PUSH1 0x1F NOT AND PUSH1 0x20 ADD SWAP1 JUMP JUMPDEST DUP2 PUSH1 0x1F DUP3 ADD SLT ISZERO PUSH2 0x287 JUMPI DUP1 CALLDATALOAD SWAP1 PUSH2 0x888 DUP3 PUSH2 0x855 JUMP JUMPDEST SWAP3 PUSH2 0x896 PUSH1 0x40 MLOAD SWAP5 DUP6 PUSH2 0x79B JUMP JUMPDEST DUP3 DUP5 MSTORE PUSH1 0x20 DUP4 DUP4 ADD ADD GT PUSH2 0x287 JUMPI DUP2 PUSH1 0x0 SWAP3 PUSH1 0x20 DUP1 SWAP4 ADD DUP4 DUP7 ADD CALLDATACOPY DUP4 ADD ADD MSTORE SWAP1 JUMP JUMPDEST CALLVALUE PUSH2 0x287 JUMPI PUSH1 0xA0 CALLDATASIZE PUSH1 0x3 NOT ADD SLT PUSH2 0x287 JUMPI PUSH2 0x8D1 PUSH2 0x271 JUMP JUMPDEST PUSH2 0x8D9 PUSH2 0x28C JUMP JUMPDEST SWAP1 PUSH1 0x44 CALLDATALOAD SWAP2 PUSH8 0xFFFFFFFFFFFFFFFF SWAP1 DUP2 DUP5 GT PUSH2 0x287 JUMPI PUSH2 0x8FE PUSH1 0x4 SWAP5 CALLDATASIZE SWAP1 DUP7 ADD PUSH2 0x7F5 JUMP JUMPDEST SWAP1 PUSH1 0x64 CALLDATALOAD DUP4 DUP2 GT PUSH2 0x287 JUMPI PUSH2 0x916 SWAP1 CALLDATASIZE SWAP1 DUP8 ADD PUSH2 0x7F5 JUMP JUMPDEST SWAP3 PUSH1 0x84 CALLDATALOAD SWAP1 DUP2 GT PUSH2 0x287 JUMPI PUSH2 0x92E SWAP1 CALLDATASIZE SWAP1 DUP8 ADD PUSH2 0x871 JUMP JUMPDEST SWAP4 PUSH1 0x1 PUSH1 0x1 PUSH1 0xA0 SHL SUB DUP1 DUP3 AND SWAP1 CALLER DUP3 EQ ISZERO DUP1 PUSH2 0x9BB JUMPI JUMPDEST PUSH2 0x98E JUMPI DUP4 AND ISZERO PUSH2 0x976 JUMPI ISZERO PUSH2 0x95F JUMPI PUSH2 0x546 SWAP6 POP PUSH2 0x2D61 JUMP JUMPDEST PUSH1 0x24 DUP7 PUSH1 0x0 PUSH1 0x40 MLOAD SWAP2 PUSH3 0x6A0D45 PUSH1 0xE2 SHL DUP4 MSTORE DUP3 ADD MSTORE REVERT JUMPDEST PUSH1 0x24 DUP8 PUSH1 0x0 PUSH1 0x40 MLOAD SWAP2 PUSH4 0x2BFA23E7 PUSH1 0xE1 SHL DUP4 MSTORE DUP3 ADD MSTORE REVERT JUMPDEST PUSH1 0x40 DUP1 MLOAD PUSH4 0x711BEC91 PUSH1 0xE1 SHL DUP2 MSTORE CALLER DUP2 DUP12 ADD SWAP1 DUP2 MSTORE PUSH1 0x1 PUSH1 0x1 PUSH1 0xA0 SHL SUB DUP7 AND PUSH1 0x20 DUP3 ADD MSTORE SWAP1 SWAP2 DUP3 SWAP2 ADD SUB SWAP1 REVERT JUMPDEST POP DUP2 PUSH1 0x0 MSTORE PUSH1 0x1 PUSH1 0x20 MSTORE PUSH1 0xFF PUSH2 0x9E8 CALLER PUSH1 0x40 PUSH1 0x0 KECCAK256 SWAP1 PUSH1 0x1 PUSH1 0x1 PUSH1 0xA0 SHL SUB AND PUSH1 0x0 MSTORE PUSH1 0x20 MSTORE PUSH1 0x40 PUSH1 0x0 KECCAK256 SWAP1 JUMP JUMPDEST SLOAD AND ISZERO PUSH2 0x945 JUMP JUMPDEST CALLVALUE PUSH2 0x287 JUMPI PUSH1 0x0 CALLDATASIZE PUSH1 0x3 NOT ADD SLT PUSH2 0x287 JUMPI PUSH1 0x20 PUSH1 0x7 SLOAD PUSH1 0x40 MLOAD SWAP1 DUP2 MSTORE RETURN JUMPDEST CALLVALUE PUSH2 0x287 JUMPI PUSH1 0x0 CALLDATASIZE PUSH1 0x3 NOT ADD SLT PUSH2 0x287 JUMPI PUSH1 0x20 PUSH1 0x40 MLOAD PUSH2 0x9C4 DUP2 MSTORE RETURN JUMPDEST CALLVALUE PUSH2 0x287 JUMPI PUSH1 0x0 CALLDATASIZE PUSH1 0x3 NOT ADD SLT PUSH2 0x287 JUMPI PUSH1 0x20 PUSH1 0x5 SLOAD PUSH1 0x40 MLOAD SWAP1 DUP2 MSTORE RETURN JUMPDEST SWAP1 DUP2 MLOAD DUP1 DUP3 MSTORE PUSH1 0x20 DUP1 DUP1 SWAP4 ADD SWAP4 ADD SWAP2 PUSH1 0x0 JUMPDEST DUP3 DUP2 LT PUSH2 0xA69 JUMPI POP POP POP POP SWAP1 JUMP JUMPDEST DUP4 MLOAD DUP6 MSTORE SWAP4 DUP2 ADD SWAP4 SWAP3 DUP2 ADD SWAP3 PUSH1 0x1 ADD PUSH2 0xA5B JUMP JUMPDEST SWAP1 PUSH1 0x20 PUSH2 0x5F8 SWAP3 DUP2 DUP2 MSTORE ADD SWAP1 PUSH2 0xA49 JUMP JUMPDEST CALLVALUE PUSH2 0x287 JUMPI PUSH1 0x40 CALLDATASIZE PUSH1 0x3 NOT ADD SLT PUSH2 0x287 JUMPI PUSH1 0x4 CALLDATALOAD PUSH8 0xFFFFFFFFFFFFFFFF DUP1 DUP3 GT PUSH2 0x287 JUMPI CALLDATASIZE PUSH1 0x23 DUP4 ADD SLT ISZERO PUSH2 0x287 JUMPI DUP2 PUSH1 0x4 ADD CALLDATALOAD PUSH2 0xACB DUP2 PUSH2 0x7DD JUMP JUMPDEST SWAP3 PUSH2 0xAD9 PUSH1 0x40 MLOAD SWAP5 DUP6 PUSH2 0x79B JUMP JUMPDEST DUP2 DUP5 MSTORE PUSH1 0x20 SWAP2 PUSH1 0x24 PUSH1 0x20 DUP7 ADD SWAP2 PUSH1 0x5 SHL DUP4 ADD ADD SWAP2 CALLDATASIZE DUP4 GT PUSH2 0x287 JUMPI PUSH1 0x24 ADD SWAP1 JUMPDEST DUP3 DUP3 LT PUSH2 0xB32 JUMPI DUP6 PUSH1 0x24 CALLDATALOAD DUP7 DUP2 GT PUSH2 0x287 JUMPI PUSH2 0x669 SWAP2 PUSH2 0xB20 PUSH2 0xB26 SWAP3 CALLDATASIZE SWAP1 PUSH1 0x4 ADD PUSH2 0x7F5 JUMP JUMPDEST SWAP1 PUSH2 0x1BE4 JUMP JUMPDEST PUSH1 0x40 MLOAD SWAP2 DUP3 SWAP2 DUP3 PUSH2 0xA7D JUMP JUMPDEST DUP4 DUP1 SWAP2 PUSH2 0xB3E DUP5 PUSH2 0x2A2 JUMP JUMPDEST DUP2 MSTORE ADD SWAP2 ADD SWAP1 PUSH2 0xAF9 JUMP JUMPDEST CALLVALUE PUSH2 0x287 JUMPI PUSH1 0x0 CALLDATASIZE PUSH1 0x3 NOT ADD SLT PUSH2 0x287 JUMPI PUSH1 0x20 PUSH1 0x40 MLOAD PUSH2 0x29A DUP2 MSTORE RETURN JUMPDEST CALLVALUE PUSH2 0x287 JUMPI PUSH1 0x0 CALLDATASIZE PUSH1 0x3 NOT ADD SLT PUSH2 0x287 JUMPI PUSH1 0x20 PUSH1 0x9 SLOAD PUSH1 0x40 MLOAD SWAP1 DUP2 MSTORE RETURN JUMPDEST CALLVALUE PUSH2 0x287 JUMPI PUSH1 0x0 CALLDATASIZE PUSH1 0x3 NOT ADD SLT PUSH2 0x287 JUMPI PUSH1 0x20 PUSH1 0x40 MLOAD PUSH1 0x14 DUP2 MSTORE RETURN JUMPDEST CALLVALUE PUSH2 0x287 JUMPI PUSH1 0x0 CALLDATASIZE PUSH1 0x3 NOT ADD SLT PUSH2 0x287 JUMPI PUSH1 0x20 PUSH1 0x8 SLOAD PUSH1 0x40 MLOAD SWAP1 DUP2 MSTORE RETURN JUMPDEST CALLVALUE PUSH2 0x287 JUMPI PUSH1 0x0 CALLDATASIZE PUSH1 0x3 NOT ADD SLT PUSH2 0x287 JUMPI PUSH1 0x20 PUSH1 0x40 MLOAD PUSH2 0x438 DUP2 MSTORE RETURN JUMPDEST CALLVALUE PUSH2 0x287 JUMPI PUSH1 0x0 DUP1 PUSH1 0x3 NOT CALLDATASIZE ADD SLT PUSH2 0xC37 JUMPI PUSH2 0xBF5 PUSH2 0x22B6 JUMP JUMPDEST DUP1 PUSH1 0x1 PUSH1 0x1 PUSH1 0xA0 SHL SUB PUSH1 0x4 SLOAD PUSH1 0x1 PUSH1 0x1 PUSH1 0xA0 SHL SUB NOT DUP2 AND PUSH1 0x4 SSTORE AND PUSH32 0x8BE0079C531659141344CD1FD0A4F28419497F9722A3DAAFE3B4186F6B6457E0 DUP3 DUP1 LOG3 DUP1 RETURN JUMPDEST DUP1 REVERT JUMPDEST CALLVALUE PUSH2 0x287 JUMPI PUSH1 0x0 CALLDATASIZE PUSH1 0x3 NOT ADD SLT PUSH2 0x287 JUMPI PUSH1 0x20 PUSH1 0x6 SLOAD PUSH1 0x40 MLOAD SWAP1 DUP2 MSTORE RETURN JUMPDEST CALLVALUE PUSH2 0x287 JUMPI PUSH1 0x20 CALLDATASIZE PUSH1 0x3 NOT ADD SLT PUSH2 0x287 JUMPI PUSH2 0xC71 PUSH2 0x22B6 JUMP JUMPDEST PUSH1 0x40 MLOAD PUSH4 0xA9059CBB PUSH1 0xE0 SHL DUP2 MSTORE CALLER PUSH1 0x4 DUP1 DUP4 ADD SWAP2 SWAP1 SWAP2 MSTORE CALLDATALOAD PUSH1 0x24 DUP3 ADD MSTORE PUSH1 0x20 DUP2 PUSH1 0x44 DUP2 PUSH1 0x0 PUSH32 0x0 PUSH1 0x1 PUSH1 0x1 PUSH1 0xA0 SHL SUB AND GAS CALL DUP1 ISZERO PUSH2 0x58F JUMPI PUSH2 0xCCE JUMPI STOP JUMPDEST PUSH2 0x546 SWAP1 PUSH1 0x20 RETURNDATASIZE PUSH1 0x20 GT PUSH2 0x588 JUMPI PUSH2 0x57A DUP2 DUP4 PUSH2 0x79B JUMP JUMPDEST CALLVALUE PUSH2 0x287 JUMPI PUSH1 0x0 CALLDATASIZE PUSH1 0x3 NOT ADD SLT PUSH2 0x287 JUMPI PUSH1 0x20 PUSH1 0xA SLOAD PUSH1 0x40 MLOAD SWAP1 DUP2 MSTORE RETURN JUMPDEST CALLVALUE PUSH2 0x287 JUMPI PUSH1 0x0 CALLDATASIZE PUSH1 0x3 NOT ADD SLT PUSH2 0x287 JUMPI PUSH1 0x20 PUSH1 0x1 PUSH1 0x1 PUSH1 0xA0 SHL SUB PUSH1 0x4 SLOAD AND PUSH1 0x40 MLOAD SWAP1 DUP2 MSTORE RETURN JUMPDEST CALLVALUE PUSH2 0x287 JUMPI PUSH1 0x80 CALLDATASIZE PUSH1 0x3 NOT ADD SLT PUSH2 0x287 JUMPI PUSH2 0x669 PUSH2 0xD47 PUSH2 0x271 JUMP JUMPDEST PUSH2 0xD4F PUSH2 0x3E1 JUMP JUMPDEST PUSH1 0x44 CALLDATALOAD SWAP1 PUSH2 0xE8F PUSH32 0x2C0BA6EDA9140BA04AB07A25239250D2664C08A013D3EC03F3EC6F014F21A539 PUSH2 0xF65 PUSH2 0xFFFF PUSH1 0x64 CALLDATALOAD SWAP5 PUSH2 0xD89 PUSH2 0x219B JUMP JUMPDEST AND SWAP5 PUSH2 0xEEA DUP7 PUSH2 0xD98 DUP2 PUSH2 0x1B64 JUMP JUMPDEST PUSH2 0xDF8 PUSH2 0xDCB CALLER PUSH2 0xDB3 DUP6 PUSH1 0x0 MSTORE PUSH1 0x0 PUSH1 0x20 MSTORE PUSH1 0x40 PUSH1 0x0 KECCAK256 SWAP1 JUMP JUMPDEST SWAP1 PUSH1 0x1 PUSH1 0x1 PUSH1 0xA0 SHL SUB AND PUSH1 0x0 MSTORE PUSH1 0x20 MSTORE PUSH1 0x40 PUSH1 0x0 KECCAK256 SWAP1 JUMP JUMPDEST SLOAD DUP10 DUP7 PUSH2 0xDE6 CALLER PUSH2 0xDB3 DUP8 PUSH1 0x0 MSTORE PUSH1 0x0 PUSH1 0x20 MSTORE PUSH1 0x40 PUSH1 0x0 KECCAK256 SWAP1 JUMP JUMPDEST SLOAD SWAP3 LT ISZERO SWAP2 DUP3 PUSH2 0xF8A JUMPI JUMPDEST POP POP PUSH2 0x1CA2 JUMP JUMPDEST DUP2 PUSH2 0xEBC PUSH1 0x1 PUSH1 0x1 PUSH1 0xA0 SHL SUB DUP13 AND SWAP10 PUSH2 0xE13 DUP12 CALLER EQ ISZERO PUSH2 0x1CED JUMP JUMPDEST DUP13 PUSH2 0xE1C PUSH2 0x1D38 JUMP JUMPDEST SWAP11 DUP12 SWAP3 DUP10 DUP5 MSTORE DUP1 PUSH1 0x20 DUP6 ADD MSTORE PUSH2 0xE40 DUP4 PUSH2 0xDB3 DUP9 PUSH1 0x0 MSTORE PUSH1 0x0 PUSH1 0x20 MSTORE PUSH1 0x40 PUSH1 0x0 KECCAK256 SWAP1 JUMP JUMPDEST SLOAD PUSH2 0xE59 DUP5 PUSH2 0xDB3 DUP11 PUSH1 0x0 MSTORE PUSH1 0x0 PUSH1 0x20 MSTORE PUSH1 0x40 PUSH1 0x0 KECCAK256 SWAP1 JUMP JUMPDEST SLOAD SWAP2 DUP2 PUSH1 0xC0 DUP8 ADD MSTORE DUP3 PUSH1 0xE0 DUP8 ADD MSTORE PUSH2 0xE88 DUP9 PUSH2 0x50B DUP8 PUSH1 0x1 PUSH1 0x1 PUSH1 0xA0 SHL SUB AND PUSH1 0x0 MSTORE PUSH1 0xB PUSH1 0x20 MSTORE PUSH1 0x40 PUSH1 0x0 KECCAK256 SWAP1 JUMP JUMPDEST SLOAD SWAP12 PUSH2 0x22FA JUMP JUMPDEST SWAP6 DUP7 SWAP2 DUP3 MLOAD PUSH1 0x40 DUP6 ADD MSTORE PUSH1 0x20 DUP4 ADD MLOAD PUSH1 0x60 DUP6 ADD MSTORE PUSH1 0x40 DUP4 ADD MLOAD PUSH1 0x80 DUP6 ADD MSTORE PUSH1 0x60 DUP4 ADD MLOAD PUSH1 0xA0 DUP6 ADD MSTORE PUSH2 0x23DA JUMP JUMPDEST SWAP11 PUSH2 0xEE4 DUP5 DUP1 MLOAD PUSH1 0x40 DUP3 ADD MLOAD ADD PUSH1 0x6 SLOAD ADD PUSH1 0x6 SSTORE PUSH1 0x60 PUSH1 0x20 DUP3 ADD MLOAD SWAP2 ADD MLOAD ADD PUSH1 0x7 SLOAD ADD PUSH1 0x7 SSTORE JUMP JUMPDEST CALLER PUSH2 0x24F6 JUMP JUMPDEST PUSH1 0x40 MLOAD SWAP2 DUP3 SWAP2 CALLER SWAP6 DUP4 PUSH2 0x140 SWAP1 SWAP4 SWAP3 SWAP2 SWAP4 PUSH2 0x160 DUP2 ADD SWAP5 DUP1 MLOAD DUP3 MSTORE PUSH1 0x20 DUP2 ADD MLOAD PUSH1 0x20 DUP4 ADD MSTORE PUSH1 0x40 DUP2 ADD MLOAD PUSH1 0x40 DUP4 ADD MSTORE PUSH1 0x60 DUP2 ADD MLOAD PUSH1 0x60 DUP4 ADD MSTORE PUSH1 0x80 DUP2 ADD MLOAD PUSH1 0x80 DUP4 ADD MSTORE PUSH1 0xA0 DUP2 ADD MLOAD PUSH1 0xA0 DUP4 ADD MSTORE PUSH1 0xC0 DUP2 ADD MLOAD PUSH1 0xC0 DUP4 ADD MSTORE PUSH1 0xE0 DUP2 ADD MLOAD PUSH1 0xE0 DUP4 ADD MSTORE PUSH2 0x100 DUP1 DUP3 ADD MLOAD SWAP1 DUP4 ADD MSTORE PUSH2 0x120 DUP1 SWAP2 ADD MLOAD SWAP1 DUP3 ADD MSTORE ADD MSTORE JUMP JUMPDEST SUB SWAP1 LOG4 PUSH2 0xF70 PUSH2 0x2265 JUMP JUMPDEST PUSH2 0xF7A PUSH1 0x1 PUSH1 0x3 SSTORE JUMP JUMPDEST PUSH1 0x40 MLOAD SWAP1 DUP2 MSTORE SWAP1 DUP2 SWAP1 PUSH1 0x20 DUP3 ADD SWAP1 JUMP JUMPDEST LT ISZERO SWAP1 POP DUP10 CODESIZE PUSH2 0xDF1 JUMP JUMPDEST CALLVALUE PUSH2 0x287 JUMPI PUSH1 0x0 CALLDATASIZE PUSH1 0x3 NOT ADD SLT PUSH2 0x287 JUMPI PUSH1 0x20 PUSH1 0x40 MLOAD PUSH9 0x56BC75E2D63100000 DUP2 MSTORE RETURN JUMPDEST DUP1 ISZERO ISZERO SUB PUSH2 0x287 JUMPI JUMP JUMPDEST CALLVALUE PUSH2 0x287 JUMPI PUSH1 0x40 CALLDATASIZE PUSH1 0x3 NOT ADD SLT PUSH2 0x287 JUMPI PUSH2 0xFDC PUSH2 0x271 JUMP JUMPDEST PUSH1 0x24 CALLDATALOAD PUSH2 0xFE8 DUP2 PUSH2 0xFB9 JUMP JUMPDEST PUSH1 0x1 PUSH1 0x1 PUSH1 0xA0 SHL SUB DUP3 AND SWAP2 DUP3 ISZERO PUSH2 0x1070 JUMPI PUSH2 0x1023 SWAP1 CALLER PUSH1 0x0 MSTORE PUSH1 0x1 PUSH1 0x20 MSTORE PUSH1 0x40 PUSH1 0x0 KECCAK256 SWAP1 PUSH1 0x1 PUSH1 0x1 PUSH1 0xA0 SHL SUB AND PUSH1 0x0 MSTORE PUSH1 0x20 MSTORE PUSH1 0x40 PUSH1 0x0 KECCAK256 SWAP1 JUMP JUMPDEST PUSH1 0xFF NOT DUP2 SLOAD AND PUSH1 0xFF DUP4 ISZERO ISZERO AND OR SWAP1 SSTORE PUSH32 0x17307EAB39AB6107E8899845AD3D59BD9653F200F220920489CA2B5937696C31 PUSH1 0x40 MLOAD DUP1 PUSH2 0x106B CALLER SWAP5 DUP3 SWAP2 SWAP1 SWAP2 PUSH1 0x20 DUP2 ADD SWAP3 ISZERO ISZERO SWAP1 MSTORE JUMP JUMPDEST SUB SWAP1 LOG3 STOP JUMPDEST PUSH1 0x24 PUSH1 0x40 MLOAD PUSH32 0xCED3E10000000000000000000000000000000000000000000000000000000000 DUP2 MSTORE PUSH1 0x0 PUSH1 0x4 DUP3 ADD MSTORE REVERT JUMPDEST PUSH1 0x20 DUP1 DUP3 ADD SWAP1 PUSH1 0x20 DUP4 MSTORE DUP4 MLOAD DUP1 SWAP3 MSTORE PUSH1 0x40 DUP4 ADD SWAP3 PUSH1 0x20 PUSH1 0x40 DUP5 PUSH1 0x5 SHL DUP4 ADD ADD SWAP6 ADD SWAP4 PUSH1 0x0 SWAP2 JUMPDEST DUP5 DUP4 LT PUSH2 0x10D7 JUMPI POP POP POP POP POP POP SWAP1 JUMP JUMPDEST SWAP1 SWAP2 SWAP3 SWAP4 SWAP5 SWAP6 DUP5 DUP1 PUSH2 0x10F5 PUSH1 0x1 SWAP4 PUSH1 0x3F NOT DUP7 DUP3 SUB ADD DUP8 MSTORE DUP11 MLOAD PUSH2 0x5C2 JUMP JUMPDEST SWAP9 ADD SWAP4 ADD SWAP4 ADD SWAP2 SWAP5 SWAP4 SWAP3 SWAP1 PUSH2 0x10C7 JUMP JUMPDEST CALLVALUE PUSH2 0x287 JUMPI PUSH1 0x20 CALLDATASIZE PUSH1 0x3 NOT ADD SLT PUSH2 0x287 JUMPI PUSH8 0xFFFFFFFFFFFFFFFF PUSH1 0x4 CALLDATALOAD DUP2 DUP2 GT PUSH2 0x287 JUMPI CALLDATASIZE PUSH1 0x23 DUP3 ADD SLT ISZERO PUSH2 0x287 JUMPI DUP1 PUSH1 0x4 ADD CALLDATALOAD SWAP2 DUP3 GT PUSH2 0x287 JUMPI CALLDATASIZE PUSH1 0x24 DUP4 PUSH1 0x5 SHL DUP4 ADD ADD GT PUSH2 0x287 JUMPI PUSH2 0x669 SWAP2 PUSH1 0x24 PUSH2 0x115F SWAP3 ADD PUSH2 0x1E42 JUMP JUMPDEST PUSH1 0x40 MLOAD SWAP2 DUP3 SWAP2 DUP3 PUSH2 0x10A1 JUMP JUMPDEST CALLVALUE PUSH2 0x287 JUMPI PUSH1 0x40 CALLDATASIZE PUSH1 0x3 NOT ADD SLT PUSH2 0x287 JUMPI PUSH1 0x1 PUSH1 0x1 PUSH1 0xA0 SHL SUB PUSH2 0x118C PUSH2 0x271 JUMP JUMPDEST AND PUSH1 0x0 MSTORE PUSH1 0xB PUSH1 0x20 MSTORE PUSH1 0x40 PUSH1 0x0 KECCAK256 PUSH1 0x24 CALLDATALOAD PUSH1 0x0 MSTORE PUSH1 0x20 MSTORE PUSH1 0x20 PUSH1 0x40 PUSH1 0x0 KECCAK256 SLOAD PUSH1 0x40 MLOAD SWAP1 DUP2 MSTORE RETURN JUMPDEST CALLVALUE PUSH2 0x287 JUMPI PUSH1 0x20 CALLDATASIZE PUSH1 0x3 NOT ADD SLT PUSH2 0x287 JUMPI PUSH1 0x4 CALLDATALOAD PUSH2 0x11CF PUSH2 0x22B6 JUMP JUMPDEST PUSH2 0x2710 DUP2 GT PUSH2 0x1215 JUMPI PUSH1 0x5 DUP1 SLOAD SWAP1 DUP3 SWAP1 SSTORE PUSH1 0x40 DUP1 MLOAD SWAP2 DUP3 MSTORE PUSH1 0x20 DUP3 ADD SWAP3 SWAP1 SWAP3 MSTORE PUSH32 0x6993BC581306FD40069A7F8D78FD994E52CE66BDACF741F949A3E4BDCF28CA80 SWAP2 SWAP1 LOG1 STOP JUMPDEST PUSH1 0x64 PUSH1 0x40 MLOAD PUSH3 0x461BCD PUSH1 0xE5 SHL DUP2 MSTORE PUSH1 0x20 PUSH1 0x4 DUP3 ADD MSTORE PUSH1 0x8 PUSH1 0x24 DUP3 ADD MSTORE PUSH32 0x4D61782031303025000000000000000000000000000000000000000000000000 PUSH1 0x44 DUP3 ADD MSTORE REVERT JUMPDEST CALLVALUE PUSH2 0x287 JUMPI PUSH1 0x40 CALLDATASIZE PUSH1 0x3 NOT ADD SLT PUSH2 0x287 JUMPI PUSH1 0x60 PUSH2 0x129F PUSH2 0x1277 PUSH2 0x28C JUMP JUMPDEST PUSH1 0x4 CALLDATALOAD PUSH1 0x0 MSTORE PUSH1 0xC PUSH1 0x20 MSTORE PUSH1 0x40 PUSH1 0x0 KECCAK256 SWAP1 PUSH1 0x1 PUSH1 0x1 PUSH1 0xA0 SHL SUB AND PUSH1 0x0 MSTORE PUSH1 0x20 MSTORE PUSH1 0x40 PUSH1 0x0 KECCAK256 SWAP1 JUMP JUMPDEST PUSH1 0xFF PUSH1 0x1 PUSH1 0x1 PUSH1 0xA0 SHL SUB PUSH1 0x1 DUP2 DUP5 SLOAD AND SWAP4 ADD SLOAD SWAP1 PUSH1 0x40 MLOAD SWAP4 DUP5 MSTORE DUP2 AND PUSH1 0x20 DUP5 ADD MSTORE PUSH1 0xA0 SHR AND ISZERO ISZERO PUSH1 0x40 DUP3 ADD MSTORE RETURN JUMPDEST CALLVALUE PUSH2 0x287 JUMPI PUSH1 0x20 CALLDATASIZE PUSH1 0x3 NOT ADD SLT PUSH2 0x287 JUMPI PUSH1 0x1 PUSH1 0x1 PUSH1 0xA0 SHL SUB PUSH2 0x12EE PUSH2 0x271 JUMP JUMPDEST AND PUSH1 0x0 MSTORE PUSH1 0xE PUSH1 0x20 MSTORE PUSH1 0x20 PUSH1 0x40 PUSH1 0x0 KECCAK256 SLOAD PUSH1 0x40 MLOAD SWAP1 DUP2 MSTORE RETURN JUMPDEST CALLVALUE PUSH2 0x287 JUMPI PUSH1 0x0 CALLDATASIZE PUSH1 0x3 NOT ADD SLT PUSH2 0x287 JUMPI PUSH1 0x20 PUSH1 0x40 MLOAD PUSH9 0x1158E460913D00000 DUP2 MSTORE RETURN JUMPDEST CALLVALUE PUSH2 0x287 JUMPI PUSH1 0x80 CALLDATASIZE PUSH1 0x3 NOT ADD SLT PUSH2 0x287 JUMPI PUSH2 0x1344 PUSH2 0x3D0 JUMP JUMPDEST PUSH2 0x134C PUSH2 0x3E1 JUMP JUMPDEST PUSH1 0x44 CALLDATALOAD PUSH1 0x64 CALLDATALOAD SWAP2 PUSH2 0x135B PUSH2 0x219B JUMP JUMPDEST PUSH2 0xFFFF DUP1 DUP6 AND SWAP4 DUP5 ISZERO ISZERO DUP1 PUSH2 0x150C JUMPI JUMPDEST DUP1 PUSH2 0x1501 JUMPI JUMPDEST DUP1 PUSH2 0x14F4 JUMPI JUMPDEST DUP1 PUSH2 0x14DF JUMPI JUMPDEST PUSH2 0x1386 SWAP1 PUSH2 0x1EE4 JUMP JUMPDEST PUSH1 0x40 MLOAD PUSH4 0x23B872DD PUSH1 0xE0 SHL DUP2 MSTORE CALLER PUSH1 0x4 DUP3 ADD MSTORE ADDRESS PUSH1 0x24 DUP3 ADD MSTORE PUSH9 0x56BC75E2D63100000 PUSH1 0x44 DUP3 ADD MSTORE SWAP2 PUSH1 0x20 DUP4 PUSH1 0x64 DUP2 PUSH1 0x0 PUSH32 0x0 PUSH1 0x1 PUSH1 0x1 PUSH1 0xA0 SHL SUB AND GAS CALL SWAP1 DUP2 ISZERO PUSH2 0x58F JUMPI PUSH32 0x377DC7145BD8AB426842504B448652C41DDA00ABB7F7C1DF6BDFA40BD2A16F2C SWAP7 PUSH2 0x1424 PUSH2 0x1469 SWAP4 PUSH2 0x149E SWAP7 PUSH1 0x0 SWAP2 PUSH2 0x560 JUMPI POP PUSH2 0x1B19 JUMP JUMPDEST PUSH2 0x143A PUSH9 0x56BC75E2D63100000 PUSH1 0x8 SLOAD ADD PUSH1 0x8 SSTORE JUMP JUMPDEST DUP7 PUSH2 0x14CD JUMPI JUMPDEST DUP4 DUP1 PUSH2 0x14A9 JUMPI JUMPDEST POP POP CALLER PUSH1 0x0 SWAP1 DUP2 MSTORE PUSH1 0xB PUSH1 0x20 MSTORE PUSH1 0x40 SWAP1 KECCAK256 SWAP1 DUP6 AND PUSH1 0x0 MSTORE PUSH1 0x20 MSTORE PUSH1 0x40 PUSH1 0x0 KECCAK256 SWAP1 JUMP JUMPDEST SLOAD SWAP1 PUSH1 0x40 MLOAD SWAP5 DUP6 SWAP5 CALLER SWAP9 DUP7 SWAP2 SWAP6 SWAP5 SWAP4 SWAP1 SWAP3 PUSH1 0x80 SWAP4 PUSH1 0xA0 DUP5 ADD SWAP8 PUSH2 0xFFFF DUP1 SWAP3 AND DUP6 MSTORE AND PUSH1 0x20 DUP5 ADD MSTORE PUSH1 0x40 DUP4 ADD MSTORE PUSH1 0x60 DUP3 ADD MSTORE ADD MSTORE JUMP JUMPDEST SUB SWAP1 LOG2 PUSH2 0x53C PUSH2 0x2265 JUMP JUMPDEST PUSH2 0x14B5 PUSH2 0x14C6 SWAP3 PUSH2 0x1B64 JUMP JUMPDEST PUSH2 0x14C0 DUP5 DUP10 AND PUSH2 0x1B64 JUMP JUMPDEST SWAP1 PUSH2 0x282A JUMP JUMPDEST CODESIZE DUP4 PUSH2 0x1447 JUMP JUMPDEST PUSH2 0x14DA DUP8 DUP4 DUP9 AND DUP4 PUSH2 0x282A JUMP JUMPDEST PUSH2 0x1440 JUMP JUMPDEST POP PUSH2 0x1386 PUSH2 0x14ED DUP5 DUP9 PUSH2 0x2776 JUMP JUMPDEST SWAP1 POP PUSH2 0x137D JUMP JUMPDEST POP PUSH1 0xD8 DUP3 DUP5 AND GT ISZERO PUSH2 0x1377 JUMP JUMPDEST POP DUP2 DUP4 AND ISZERO ISZERO PUSH2 0x1371 JUMP JUMPDEST POP PUSH1 0xD8 DUP6 GT ISZERO PUSH2 0x136B JUMP JUMPDEST CALLVALUE PUSH2 0x287 JUMPI PUSH1 0x40 CALLDATASIZE PUSH1 0x3 NOT ADD SLT PUSH2 0x287 JUMPI PUSH1 0x20 PUSH1 0xFF PUSH2 0x156D PUSH2 0x1537 PUSH2 0x271 JUMP JUMPDEST PUSH1 0x1 PUSH1 0x1 PUSH1 0xA0 SHL SUB PUSH2 0x1547 PUSH2 0x28C JUMP JUMPDEST SWAP2 AND PUSH1 0x0 MSTORE PUSH1 0x1 DUP5 MSTORE PUSH1 0x40 PUSH1 0x0 KECCAK256 SWAP1 PUSH1 0x1 PUSH1 0x1 PUSH1 0xA0 SHL SUB AND PUSH1 0x0 MSTORE PUSH1 0x20 MSTORE PUSH1 0x40 PUSH1 0x0 KECCAK256 SWAP1 JUMP JUMPDEST SLOAD AND PUSH1 0x40 MLOAD SWAP1 ISZERO ISZERO DUP2 MSTORE RETURN JUMPDEST CALLVALUE PUSH2 0x287 JUMPI PUSH1 0x40 CALLDATASIZE PUSH1 0x3 NOT ADD SLT PUSH2 0x287 JUMPI PUSH1 0x20 PUSH2 0x15A0 PUSH2 0x1597 PUSH2 0x271 JUMP JUMPDEST PUSH1 0x24 CALLDATALOAD SWAP1 PUSH2 0x1F3E JUMP JUMPDEST PUSH1 0x40 MLOAD SWAP1 DUP2 MSTORE RETURN JUMPDEST PUSH1 0x20 DUP1 DUP3 ADD SWAP1 DUP1 DUP4 MSTORE DUP4 MLOAD DUP1 SWAP3 MSTORE DUP1 PUSH1 0x40 DUP1 SWAP5 ADD SWAP5 ADD SWAP3 PUSH1 0x0 SWAP1 JUMPDEST DUP4 DUP3 LT PUSH2 0x15D2 JUMPI POP POP POP POP POP SWAP1 JUMP JUMPDEST DUP5 MLOAD DUP1 MLOAD PUSH1 0x1 PUSH1 0x1 PUSH1 0xA0 SHL SUB AND DUP8 MSTORE DUP1 DUP5 ADD MLOAD DUP8 DUP6 ADD MSTORE DUP1 DUP3 ADD MLOAD DUP8 DUP4 ADD MSTORE PUSH1 0x60 DUP1 DUP3 ADD MLOAD SWAP1 DUP9 ADD MSTORE PUSH1 0x80 SWAP1 DUP2 ADD MLOAD SWAP1 DUP8 ADD MSTORE PUSH1 0xA0 SWAP1 SWAP6 ADD SWAP5 SWAP4 DUP3 ADD SWAP4 PUSH1 0x1 SWAP1 SWAP2 ADD SWAP1 PUSH2 0x15C3 JUMP JUMPDEST CALLVALUE PUSH2 0x287 JUMPI PUSH1 0x20 DUP1 PUSH1 0x3 NOT CALLDATASIZE ADD SLT PUSH2 0x287 JUMPI PUSH2 0xFFFF PUSH2 0x1637 PUSH2 0x3D0 JUMP JUMPDEST AND PUSH2 0x1641 DUP2 PUSH2 0x1B64 JUMP JUMPDEST PUSH1 0x0 SWAP2 PUSH2 0x1668 PUSH2 0x165B DUP3 PUSH1 0x0 MSTORE PUSH1 0xD PUSH1 0x20 MSTORE PUSH1 0x40 PUSH1 0x0 KECCAK256 SWAP1 JUMP JUMPDEST SLOAD PUSH1 0x1 PUSH1 0x1 PUSH1 0xA0 SHL SUB AND SWAP1 JUMP JUMPDEST PUSH1 0x1 PUSH1 0x1 PUSH1 0xA0 SHL SUB DUP2 AND PUSH2 0x17A3 JUMPI POP PUSH2 0x1680 DUP4 PUSH2 0x2115 JUMP JUMPDEST SWAP4 PUSH2 0x1698 PUSH2 0x165B DUP4 PUSH1 0x0 MSTORE PUSH1 0xD PUSH1 0x20 MSTORE PUSH1 0x40 PUSH1 0x0 KECCAK256 SWAP1 JUMP JUMPDEST SWAP3 PUSH1 0x0 SWAP4 JUMPDEST DUP6 DUP6 LT PUSH2 0x16B2 JUMPI PUSH1 0x40 MLOAD DUP1 PUSH2 0x669 DUP10 DUP3 PUSH2 0x15A8 JUMP JUMPDEST PUSH2 0x1795 PUSH1 0x1 PUSH2 0x1787 DUP4 PUSH2 0x16DD DUP9 PUSH2 0x50B DUP6 SWAP8 PUSH1 0x1 PUSH1 0x1 PUSH1 0xA0 SHL SUB AND PUSH1 0x0 MSTORE PUSH1 0xB PUSH1 0x20 MSTORE PUSH1 0x40 PUSH1 0x0 KECCAK256 SWAP1 JUMP JUMPDEST SLOAD PUSH2 0x16F6 DUP3 PUSH2 0xDB3 DUP12 PUSH1 0x0 MSTORE PUSH1 0x0 PUSH1 0x20 MSTORE PUSH1 0x40 PUSH1 0x0 KECCAK256 SWAP1 JUMP JUMPDEST SLOAD SWAP1 PUSH2 0x1710 DUP4 PUSH2 0xDB3 DUP11 PUSH1 0x0 MSTORE PUSH1 0x0 PUSH1 0x20 MSTORE PUSH1 0x40 PUSH1 0x0 KECCAK256 SWAP1 JUMP JUMPDEST SLOAD SWAP1 PUSH1 0x0 SWAP1 DUP1 NUMBER GT PUSH1 0x0 EQ PUSH2 0x179D JUMPI PUSH2 0x172A SWAP2 POP NUMBER PUSH2 0x1DA5 JUMP JUMPDEST PUSH2 0x1734 DUP12 DUP6 PUSH2 0x1F3E JUMP JUMPDEST SWAP2 PUSH2 0x173D PUSH2 0x7BD JUMP JUMPDEST PUSH1 0x1 PUSH1 0x1 PUSH1 0xA0 SHL SUB DUP7 AND DUP2 MSTORE SWAP4 DUP12 DUP6 ADD MSTORE PUSH1 0x40 DUP5 ADD MSTORE PUSH1 0x60 DUP4 ADD MSTORE PUSH1 0x80 DUP3 ADD MSTORE PUSH2 0x1767 DUP11 DUP14 PUSH2 0x1BD0 JUMP JUMPDEST MSTORE PUSH2 0x1772 DUP10 DUP13 PUSH2 0x1BD0 JUMP JUMPDEST POP PUSH2 0xDB3 DUP9 PUSH1 0x0 MSTORE PUSH1 0xC PUSH1 0x20 MSTORE PUSH1 0x40 PUSH1 0x0 KECCAK256 SWAP1 JUMP JUMPDEST ADD SLOAD PUSH1 0x1 PUSH1 0x1 PUSH1 0xA0 SHL SUB AND SWAP1 JUMP JUMPDEST SWAP5 ADD SWAP4 PUSH2 0x169D JUMP JUMPDEST POP PUSH2 0x172A JUMP JUMPDEST SWAP3 PUSH1 0x1 PUSH2 0x1787 PUSH2 0x17B5 PUSH2 0x17CA SWAP4 PUSH2 0x2106 JUMP JUMPDEST SWAP6 PUSH2 0xDB3 DUP6 PUSH1 0x0 MSTORE PUSH1 0xC PUSH1 0x20 MSTORE PUSH1 0x40 PUSH1 0x0 KECCAK256 SWAP1 JUMP JUMPDEST PUSH2 0x1668 JUMP JUMPDEST CALLVALUE PUSH2 0x287 JUMPI PUSH1 0xA0 CALLDATASIZE PUSH1 0x3 NOT ADD SLT PUSH2 0x287 JUMPI PUSH2 0x17E8 PUSH2 0x271 JUMP JUMPDEST PUSH2 0x17F0 PUSH2 0x28C JUMP JUMPDEST PUSH1 0x84 CALLDATALOAD PUSH8 0xFFFFFFFFFFFFFFFF DUP2 GT PUSH2 0x287 JUMPI PUSH2 0x1810 SWAP1 CALLDATASIZE SWAP1 PUSH1 0x4 ADD PUSH2 0x871 JUMP JUMPDEST SWAP1 PUSH1 0x1 PUSH1 0x1 PUSH1 0xA0 SHL SUB DUP1 DUP5 AND SWAP1 CALLER DUP3 EQ ISZERO DUP1 PUSH2 0x18C7 JUMPI JUMPDEST PUSH2 0x18A0 JUMPI DUP3 AND ISZERO PUSH2 0x1888 JUMPI ISZERO PUSH2 0x1871 JUMPI PUSH2 0x546 SWAP3 PUSH2 0x1869 PUSH1 0x64 CALLDATALOAD PUSH1 0x44 CALLDATALOAD SWAP2 PUSH1 0x40 MLOAD SWAP3 PUSH1 0x1 DUP5 MSTORE PUSH1 0x20 DUP5 ADD MSTORE PUSH1 0x40 DUP4 ADD SWAP2 PUSH1 0x1 DUP4 MSTORE PUSH1 0x60 DUP5 ADD MSTORE PUSH1 0x80 DUP4 ADD PUSH1 0x40 MSTORE JUMP JUMPDEST SWAP3 SWAP1 SWAP2 PUSH2 0x2D61 JUMP JUMPDEST PUSH1 0x24 PUSH1 0x40 MLOAD PUSH3 0x6A0D45 PUSH1 0xE2 SHL DUP2 MSTORE PUSH1 0x0 PUSH1 0x4 DUP3 ADD MSTORE REVERT JUMPDEST PUSH1 0x24 PUSH1 0x40 MLOAD PUSH4 0x2BFA23E7 PUSH1 0xE1 SHL DUP2 MSTORE PUSH1 0x0 PUSH1 0x4 DUP3 ADD MSTORE REVERT JUMPDEST PUSH1 0x40 MLOAD PUSH4 0x711BEC91 PUSH1 0xE1 SHL DUP2 MSTORE CALLER PUSH1 0x4 DUP3 ADD MSTORE PUSH1 0x1 PUSH1 0x1 PUSH1 0xA0 SHL SUB DUP7 AND PUSH1 0x24 DUP3 ADD MSTORE PUSH1 0x44 SWAP1 REVERT JUMPDEST POP DUP2 PUSH1 0x0 MSTORE PUSH1 0x1 PUSH1 0x20 MSTORE PUSH1 0xFF PUSH2 0x18F4 CALLER PUSH1 0x40 PUSH1 0x0 KECCAK256 SWAP1 PUSH1 0x1 PUSH1 0x1 PUSH1 0xA0 SHL SUB AND PUSH1 0x0 MSTORE PUSH1 0x20 MSTORE PUSH1 0x40 PUSH1 0x0 KECCAK256 SWAP1 JUMP JUMPDEST SLOAD AND ISZERO PUSH2 0x1827 JUMP JUMPDEST CALLVALUE PUSH2 0x287 JUMPI PUSH1 0x20 CALLDATASIZE PUSH1 0x3 NOT ADD SLT PUSH2 0x287 JUMPI PUSH2 0x1915 PUSH2 0x271 JUMP JUMPDEST PUSH2 0x191D PUSH2 0x22B6 JUMP JUMPDEST PUSH1 0x1 PUSH1 0x1 PUSH1 0xA0 SHL SUB DUP1 SWAP2 AND SWAP1 DUP2 ISZERO PUSH2 0x196A JUMPI PUSH1 0x4 SLOAD DUP3 PUSH1 0x1 PUSH1 0x1 PUSH1 0xA0 SHL SUB NOT DUP3 AND OR PUSH1 0x4 SSTORE AND PUSH32 0x8BE0079C531659141344CD1FD0A4F28419497F9722A3DAAFE3B4186F6B6457E0 PUSH1 0x0 DUP1 LOG3 STOP JUMPDEST PUSH1 0x24 PUSH1 0x40 MLOAD PUSH32 0x1E4FBDF700000000000000000000000000000000000000000000000000000000 DUP2 MSTORE PUSH1 0x0 PUSH1 0x4 DUP3 ADD MSTORE REVERT JUMPDEST CALLVALUE PUSH2 0x287 JUMPI PUSH1 0x20 CALLDATASIZE PUSH1 0x3 NOT ADD SLT PUSH2 0x287 JUMPI PUSH1 0x4 CALLDATALOAD PUSH1 0x0 MSTORE PUSH1 0xD PUSH1 0x20 MSTORE PUSH1 0x20 PUSH1 0x1 PUSH1 0x1 PUSH1 0xA0 SHL SUB PUSH1 0x40 PUSH1 0x0 KECCAK256 SLOAD AND PUSH1 0x40 MLOAD SWAP1 DUP2 MSTORE RETURN JUMPDEST PUSH2 0x19F9 SWAP2 PUSH1 0x0 MSTORE PUSH1 0x0 PUSH1 0x20 MSTORE PUSH1 0x40 PUSH1 0x0 KECCAK256 SWAP1 PUSH1 0x1 PUSH1 0x1 PUSH1 0xA0 SHL SUB AND PUSH1 0x0 MSTORE PUSH1 0x20 MSTORE PUSH1 0x40 PUSH1 0x0 KECCAK256 SWAP1 JUMP JUMPDEST SLOAD SWAP1 JUMP JUMPDEST ISZERO PUSH2 0x1A04 JUMPI JUMP JUMPDEST PUSH1 0x64 PUSH1 0x40 MLOAD PUSH3 0x461BCD PUSH1 0xE5 SHL DUP2 MSTORE PUSH1 0x20 PUSH1 0x4 DUP3 ADD MSTORE PUSH1 0xD PUSH1 0x24 DUP3 ADD MSTORE PUSH32 0x496E76616C696420537461636B00000000000000000000000000000000000000 PUSH1 0x44 DUP3 ADD MSTORE REVERT JUMPDEST PUSH4 0x4E487B71 PUSH1 0xE0 SHL PUSH1 0x0 MSTORE PUSH1 0x11 PUSH1 0x4 MSTORE PUSH1 0x24 PUSH1 0x0 REVERT JUMPDEST DUP2 ISZERO PUSH2 0x1A68 JUMPI DIV SWAP1 JUMP JUMPDEST PUSH4 0x4E487B71 PUSH1 0xE0 SHL PUSH1 0x0 MSTORE PUSH1 0x12 PUSH1 0x4 MSTORE PUSH1 0x24 PUSH1 0x0 REVERT JUMPDEST SWAP1 PUSH9 0x1158E460913D00000 SWAP2 DUP3 DUP2 MUL SWAP3 DUP2 DUP5 DIV EQ SWAP1 ISZERO OR ISZERO PUSH2 0x1A9C JUMPI JUMP JUMPDEST PUSH2 0x1A48 JUMP JUMPDEST SWAP1 PUSH2 0x29A SWAP2 DUP3 DUP2 MUL SWAP3 DUP2 DUP5 DIV EQ SWAP1 ISZERO OR ISZERO PUSH2 0x1A9C JUMPI JUMP JUMPDEST SWAP1 PUSH2 0x9C4 SWAP2 DUP3 DUP2 MUL SWAP3 DUP2 DUP5 DIV EQ SWAP1 ISZERO OR ISZERO PUSH2 0x1A9C JUMPI JUMP JUMPDEST SWAP1 PUSH1 0x6E DUP3 MUL SWAP2 DUP1 DUP4 DIV PUSH1 0x6E EQ SWAP1 ISZERO OR ISZERO PUSH2 0x1A9C JUMPI JUMP JUMPDEST DUP2 DUP2 MUL SWAP3 SWAP2 DUP2 ISZERO SWAP2 DUP5 DIV EQ OR ISZERO PUSH2 0x1A9C JUMPI JUMP JUMPDEST SWAP1 DUP2 PUSH1 0x20 SWAP2 SUB SLT PUSH2 0x287 JUMPI MLOAD PUSH2 0x5F8 DUP2 PUSH2 0xFB9 JUMP JUMPDEST PUSH1 0x40 MLOAD RETURNDATASIZE PUSH1 0x0 DUP3 RETURNDATACOPY RETURNDATASIZE SWAP1 REVERT JUMPDEST ISZERO PUSH2 0x1B20 JUMPI JUMP JUMPDEST PUSH1 0x64 PUSH1 0x40 MLOAD PUSH3 0x461BCD PUSH1 0xE5 SHL DUP2 MSTORE PUSH1 0x20 PUSH1 0x4 DUP3 ADD MSTORE PUSH1 0x8 PUSH1 0x24 DUP3 ADD MSTORE PUSH32 0x506179206661696C000000000000000000000000000000000000000000000000 PUSH1 0x44 DUP3 ADD MSTORE REVERT JUMPDEST SWAP1 PUSH1 0xD8 DUP3 ADD DUP1 SWAP3 GT PUSH2 0x1A9C JUMPI JUMP JUMPDEST PUSH1 0x1 ADD SWAP1 DUP2 PUSH1 0x1 GT PUSH2 0x1A9C JUMPI JUMP JUMPDEST SWAP2 SWAP1 DUP3 ADD DUP1 SWAP3 GT PUSH2 0x1A9C JUMPI JUMP JUMPDEST PUSH1 0x40 MLOAD SWAP1 PUSH2 0x1B9A DUP3 PUSH2 0x75E JUMP JUMPDEST PUSH1 0x2 DUP3 MSTORE PUSH1 0x40 CALLDATASIZE PUSH1 0x20 DUP5 ADD CALLDATACOPY JUMP JUMPDEST PUSH4 0x4E487B71 PUSH1 0xE0 SHL PUSH1 0x0 MSTORE PUSH1 0x32 PUSH1 0x4 MSTORE PUSH1 0x24 PUSH1 0x0 REVERT JUMPDEST DUP1 MLOAD ISZERO PUSH2 0x1BCB JUMPI PUSH1 0x20 ADD SWAP1 JUMP JUMPDEST PUSH2 0x1BA8 JUMP JUMPDEST DUP1 MLOAD DUP3 LT ISZERO PUSH2 0x1BCB JUMPI PUSH1 0x20 SWAP2 PUSH1 0x5 SHL ADD ADD SWAP1 JUMP JUMPDEST SWAP2 SWAP1 SWAP2 DUP1 MLOAD DUP4 MLOAD DUP1 DUP3 SUB PUSH2 0x1C67 JUMPI POP POP DUP1 MLOAD SWAP1 PUSH2 0x1C19 PUSH2 0x1C03 DUP4 PUSH2 0x7DD JUMP JUMPDEST SWAP3 PUSH2 0x1C11 PUSH1 0x40 MLOAD SWAP5 DUP6 PUSH2 0x79B JUMP JUMPDEST DUP1 DUP5 MSTORE PUSH2 0x7DD JUMP JUMPDEST PUSH1 0x20 SWAP2 SWAP1 PUSH1 0x1F NOT ADD CALLDATASIZE DUP5 DUP5 ADD CALLDATACOPY PUSH1 0x0 JUMPDEST DUP2 MLOAD DUP2 LT ISZERO PUSH2 0x1C5F JUMPI DUP1 PUSH2 0x1C4E PUSH1 0x1 SWAP3 PUSH1 0x5 SHL DUP6 DUP1 DUP3 DUP8 ADD ADD MLOAD SWAP2 DUP11 ADD ADD MLOAD SWAP1 PUSH2 0x19D0 JUMP JUMPDEST PUSH2 0x1C58 DUP3 DUP8 PUSH2 0x1BD0 JUMP JUMPDEST MSTORE ADD PUSH2 0x1C29 JUMP JUMPDEST POP SWAP2 SWAP4 POP POP POP JUMP JUMPDEST PUSH1 0x40 MLOAD PUSH32 0x5B05999100000000000000000000000000000000000000000000000000000000 DUP2 MSTORE PUSH1 0x4 DUP2 ADD SWAP2 SWAP1 SWAP2 MSTORE PUSH1 0x24 DUP2 ADD SWAP2 SWAP1 SWAP2 MSTORE PUSH1 0x44 SWAP1 REVERT JUMPDEST ISZERO PUSH2 0x1CA9 JUMPI JUMP JUMPDEST PUSH1 0x64 PUSH1 0x40 MLOAD PUSH3 0x461BCD PUSH1 0xE5 SHL DUP2 MSTORE PUSH1 0x20 PUSH1 0x4 DUP3 ADD MSTORE PUSH1 0xA PUSH1 0x24 DUP3 ADD MSTORE PUSH32 0x4C61636B20756E69747300000000000000000000000000000000000000000000 PUSH1 0x44 DUP3 ADD MSTORE REVERT JUMPDEST ISZERO PUSH2 0x1CF4 JUMPI JUMP JUMPDEST PUSH1 0x64 PUSH1 0x40 MLOAD PUSH3 0x461BCD PUSH1 0xE5 SHL DUP2 MSTORE PUSH1 0x20 PUSH1 0x4 DUP3 ADD MSTORE PUSH1 0x10 PUSH1 0x24 DUP3 ADD MSTORE PUSH32 0x43616E6E6F74206B696C6C2073656C6600000000000000000000000000000000 PUSH1 0x44 DUP3 ADD MSTORE REVERT JUMPDEST PUSH1 0x40 MLOAD SWAP1 PUSH2 0x140 DUP3 ADD DUP3 DUP2 LT PUSH8 0xFFFFFFFFFFFFFFFF DUP3 GT OR PUSH2 0x77A JUMPI PUSH1 0x40 MSTORE DUP2 PUSH2 0x120 PUSH1 0x0 SWAP2 DUP3 DUP2 MSTORE DUP3 PUSH1 0x20 DUP3 ADD MSTORE DUP3 PUSH1 0x40 DUP3 ADD MSTORE DUP3 PUSH1 0x60 DUP3 ADD MSTORE DUP3 PUSH1 0x80 DUP3 ADD MSTORE DUP3 PUSH1 0xA0 DUP3 ADD MSTORE DUP3 PUSH1 0xC0 DUP3 ADD MSTORE DUP3 PUSH1 0xE0 DUP3 ADD MSTORE DUP3 PUSH2 0x100 DUP3 ADD MSTORE ADD MSTORE JUMP JUMPDEST PUSH1 0xD7 NOT DUP2 ADD SWAP2 SWAP1 DUP3 GT PUSH2 0x1A9C JUMPI JUMP JUMPDEST SWAP2 SWAP1 DUP3 SUB SWAP2 DUP3 GT PUSH2 0x1A9C JUMPI JUMP JUMPDEST PUSH1 0x40 MLOAD SWAP1 PUSH2 0x1DBF DUP3 PUSH2 0x77F JUMP JUMPDEST PUSH1 0x0 DUP3 MSTORE JUMP JUMPDEST SWAP2 SWAP1 DUP2 LT ISZERO PUSH2 0x1BCB JUMPI PUSH1 0x5 SHL DUP2 ADD CALLDATALOAD SWAP1 PUSH1 0x1E NOT DUP2 CALLDATASIZE SUB ADD DUP3 SLT ISZERO PUSH2 0x287 JUMPI ADD SWAP1 DUP2 CALLDATALOAD SWAP2 PUSH8 0xFFFFFFFFFFFFFFFF DUP4 GT PUSH2 0x287 JUMPI PUSH1 0x20 ADD DUP3 CALLDATASIZE SUB DUP2 SGT PUSH2 0x287 JUMPI SWAP2 SWAP1 JUMP JUMPDEST PUSH1 0x20 SWAP1 DUP2 PUSH2 0x1E40 SWAP4 SWAP6 SWAP5 PUSH2 0x1E34 DUP8 PUSH1 0x40 MLOAD SWAP9 DUP10 SWAP6 DUP6 DUP8 ADD CALLDATACOPY DUP5 ADD SWAP2 DUP4 DUP4 ADD PUSH1 0x0 DUP2 MSTORE DUP2 MLOAD SWAP5 DUP6 SWAP3 ADD PUSH2 0x59F JUMP JUMPDEST ADD SUB DUP1 DUP6 MSTORE ADD DUP4 PUSH2 0x79B JUMP JUMPDEST JUMP JUMPDEST PUSH1 0x40 MLOAD PUSH2 0x1E4E DUP2 PUSH2 0x77F JUMP JUMPDEST PUSH1 0x0 DUP2 MSTORE PUSH2 0x1E5B DUP4 PUSH2 0x7DD JUMP JUMPDEST SWAP3 PUSH2 0x1E69 PUSH1 0x40 MLOAD SWAP5 DUP6 PUSH2 0x79B JUMP JUMPDEST DUP1 DUP5 MSTORE PUSH1 0x1F NOT PUSH2 0x1E78 DUP3 PUSH2 0x7DD JUMP JUMPDEST ADD PUSH1 0x0 JUMPDEST DUP2 DUP2 LT PUSH2 0x1ED3 JUMPI POP POP PUSH1 0x0 JUMPDEST DUP2 DUP2 LT PUSH2 0x1E96 JUMPI POP POP POP POP SWAP1 JUMP JUMPDEST DUP1 PUSH2 0x1EB7 PUSH2 0x1EB1 DUP6 PUSH2 0x1EAB PUSH1 0x1 SWAP6 DUP8 DUP11 PUSH2 0x1DC5 JUMP JUMPDEST SWAP1 PUSH2 0x1E07 JUMP JUMPDEST ADDRESS PUSH2 0x270D JUMP JUMPDEST PUSH2 0x1EC1 DUP3 DUP9 PUSH2 0x1BD0 JUMP JUMPDEST MSTORE PUSH2 0x1ECC DUP2 DUP8 PUSH2 0x1BD0 JUMP JUMPDEST POP ADD PUSH2 0x1E88 JUMP JUMPDEST DUP1 PUSH1 0x60 PUSH1 0x20 DUP1 SWAP4 DUP10 ADD ADD MSTORE ADD PUSH2 0x1E7C JUMP JUMPDEST ISZERO PUSH2 0x1EEB JUMPI JUMP JUMPDEST PUSH1 0x64 PUSH1 0x40 MLOAD PUSH3 0x461BCD PUSH1 0xE5 SHL DUP2 MSTORE PUSH1 0x20 PUSH1 0x4 DUP3 ADD MSTORE PUSH1 0x8 PUSH1 0x24 DUP3 ADD MSTORE PUSH32 0x426164206D6F7665000000000000000000000000000000000000000000000000 PUSH1 0x44 DUP3 ADD MSTORE REVERT JUMPDEST SWAP1 DUP2 PUSH1 0x20 SWAP2 SUB SLT PUSH2 0x287 JUMPI MLOAD SWAP1 JUMP JUMPDEST PUSH2 0x1F5F DUP3 PUSH2 0x50B DUP4 PUSH1 0x1 PUSH1 0x1 PUSH1 0xA0 SHL SUB AND PUSH1 0x0 MSTORE PUSH1 0xB PUSH1 0x20 MSTORE PUSH1 0x40 PUSH1 0x0 KECCAK256 SWAP1 JUMP JUMPDEST SLOAD SWAP2 DUP3 ISZERO PUSH2 0x20FE JUMPI PUSH1 0xD8 DUP2 GT ISZERO PUSH2 0x20F8 JUMPI PUSH2 0x1F79 SWAP1 PUSH2 0x1D96 JUMP JUMPDEST SWAP1 JUMPDEST PUSH2 0x1F84 DUP3 PUSH2 0x1B64 JUMP JUMPDEST PUSH1 0x40 MLOAD PUSH32 0x70A0823100000000000000000000000000000000000000000000000000000000 DUP2 MSTORE ADDRESS PUSH1 0x4 DUP3 ADD MSTORE SWAP4 SWAP1 SWAP2 SWAP1 PUSH1 0x20 DUP6 PUSH1 0x24 DUP2 PUSH32 0x0 PUSH1 0x1 PUSH1 0x1 PUSH1 0xA0 SHL SUB AND GAS STATICCALL SWAP5 DUP6 ISZERO PUSH2 0x58F JUMPI PUSH1 0x0 SWAP6 PUSH2 0x20B5 JUMPI JUMPDEST POP SWAP3 PUSH2 0x2084 SWAP3 PUSH2 0x207E SWAP3 PUSH2 0x208C SWAP6 DUP1 NUMBER GT PUSH1 0x0 EQ PUSH2 0x20A7 JUMPI PUSH2 0x438 PUSH2 0x201D PUSH2 0x2023 SWAP3 NUMBER PUSH2 0x1DA5 JUMP JUMPDEST DIV PUSH2 0x1B72 JUMP JUMPDEST SWAP3 PUSH1 0x14 DUP5 GT PUSH2 0x209E JUMPI JUMPDEST SWAP2 PUSH2 0x206E PUSH2 0x2068 DUP4 PUSH2 0xDB3 PUSH2 0x2056 PUSH2 0x2074 SWAP7 PUSH2 0xDB3 PUSH2 0x2079 SWAP10 PUSH1 0x0 MSTORE PUSH1 0x0 PUSH1 0x20 MSTORE PUSH1 0x40 PUSH1 0x0 KECCAK256 SWAP1 JUMP JUMPDEST SLOAD SWAP5 PUSH1 0x0 MSTORE PUSH1 0x0 PUSH1 0x20 MSTORE PUSH1 0x40 PUSH1 0x0 KECCAK256 SWAP1 JUMP JUMPDEST SLOAD PUSH2 0x1AA1 JUMP JUMPDEST SWAP1 PUSH2 0x1B80 JUMP JUMPDEST PUSH2 0x1A7E JUMP JUMPDEST PUSH2 0x1AE5 JUMP JUMPDEST SWAP3 PUSH2 0x1AB8 JUMP JUMPDEST PUSH2 0x2710 SWAP1 DIV SWAP1 JUMP JUMPDEST SWAP1 DUP2 DUP2 GT ISZERO PUSH2 0x2099 JUMPI POP SWAP1 JUMP JUMPDEST SWAP1 POP SWAP1 JUMP JUMPDEST PUSH1 0x14 SWAP4 POP PUSH2 0x202D JUMP JUMPDEST POP PUSH2 0x2023 PUSH2 0x438 PUSH1 0x0 PUSH2 0x201D JUMP JUMPDEST PUSH2 0x208C SWAP5 SWAP2 SWAP6 POP SWAP3 PUSH2 0x207E SWAP3 PUSH2 0x20E5 PUSH2 0x2084 SWAP6 PUSH1 0x20 RETURNDATASIZE PUSH1 0x20 GT PUSH2 0x20F1 JUMPI JUMPDEST PUSH2 0x20DD DUP2 DUP4 PUSH2 0x79B JUMP JUMPDEST DUP2 ADD SWAP1 PUSH2 0x1F2F JUMP JUMPDEST SWAP7 SWAP3 SWAP6 POP SWAP3 POP SWAP3 PUSH2 0x1FF5 JUMP JUMPDEST POP RETURNDATASIZE PUSH2 0x20D3 JUMP JUMPDEST SWAP1 PUSH2 0x1F7B JUMP JUMPDEST POP POP POP PUSH1 0x0 SWAP1 JUMP JUMPDEST PUSH1 0x0 NOT DUP2 EQ PUSH2 0x1A9C JUMPI PUSH1 0x1 ADD SWAP1 JUMP JUMPDEST SWAP1 PUSH2 0x211F DUP3 PUSH2 0x7DD JUMP JUMPDEST PUSH1 0x40 PUSH2 0x212E PUSH1 0x40 MLOAD SWAP3 DUP4 PUSH2 0x79B JUMP JUMPDEST DUP4 DUP3 MSTORE DUP2 SWAP4 PUSH2 0x213F PUSH1 0x1F NOT SWAP2 PUSH2 0x7DD JUMP JUMPDEST ADD SWAP1 PUSH1 0x0 JUMPDEST DUP3 DUP2 LT PUSH2 0x2151 JUMPI POP POP POP POP JUMP JUMPDEST DUP2 MLOAD SWAP1 PUSH1 0xA0 DUP3 ADD SWAP2 DUP1 DUP4 LT PUSH8 0xFFFFFFFFFFFFFFFF DUP5 GT OR PUSH2 0x77A JUMPI PUSH1 0x20 SWAP3 DUP5 MSTORE PUSH1 0x0 DUP2 MSTORE DUP3 PUSH1 0x0 DUP2 DUP4 ADD MSTORE PUSH1 0x0 DUP6 DUP4 ADD MSTORE PUSH1 0x0 PUSH1 0x60 DUP4 ADD MSTORE PUSH1 0x0 PUSH1 0x80 DUP4 ADD MSTORE DUP3 DUP8 ADD ADD MSTORE ADD PUSH2 0x2144 JUMP JUMPDEST PUSH1 0x2 PUSH1 0x3 SLOAD EQ PUSH2 0x21AC JUMPI PUSH1 0x2 PUSH1 0x3 SSTORE JUMP JUMPDEST PUSH1 0x4 PUSH1 0x40 MLOAD PUSH32 0x3EE5AEB500000000000000000000000000000000000000000000000000000000 DUP2 MSTORE REVERT JUMPDEST SWAP1 PUSH2 0x21F3 PUSH1 0x40 MLOAD PUSH2 0x21E6 DUP2 PUSH2 0x77F JUMP JUMPDEST PUSH1 0x0 SWAP5 DUP6 DUP3 MSTORE DUP4 DUP6 PUSH2 0x2933 JUMP JUMPDEST PUSH1 0xD8 DUP2 GT ISZERO PUSH2 0x2260 JUMPI PUSH1 0xD7 NOT DUP2 ADD SWAP1 DUP2 GT PUSH2 0x1A9C JUMPI JUMPDEST PUSH1 0x1 PUSH1 0x1 PUSH1 0xA0 SHL SUB DUP3 AND SWAP3 DUP4 DUP2 MSTORE PUSH1 0xB PUSH1 0x20 MSTORE PUSH1 0x40 DUP2 KECCAK256 DUP3 DUP3 MSTORE PUSH1 0x20 MSTORE PUSH1 0x40 DUP2 KECCAK256 SLOAD ISZERO PUSH2 0x2237 JUMPI JUMPDEST POP POP POP POP JUMP JUMPDEST PUSH2 0x2257 SWAP4 DUP2 MSTORE PUSH1 0xB PUSH1 0x20 MSTORE PUSH1 0x40 DUP2 KECCAK256 DUP3 DUP3 MSTORE PUSH1 0x20 MSTORE PUSH1 0x40 NUMBER SWAP2 KECCAK256 SSTORE PUSH2 0x2A7C JUMP JUMPDEST CODESIZE DUP1 DUP1 DUP1 PUSH2 0x2231 JUMP JUMPDEST PUSH2 0x2209 JUMP JUMPDEST PUSH32 0x6B8AEAA3365D2DFCB9ACC94F0A7429B657B4F2008CFAFB9B10297011E077C650 PUSH1 0xA0 PUSH1 0x6 SLOAD PUSH1 0x7 SLOAD PUSH1 0x8 SLOAD PUSH1 0x9 SLOAD SWAP1 PUSH1 0xA SLOAD SWAP3 PUSH1 0x40 MLOAD SWAP5 DUP6 MSTORE PUSH1 0x20 DUP6 ADD MSTORE PUSH1 0x40 DUP5 ADD MSTORE PUSH1 0x60 DUP4 ADD MSTORE PUSH1 0x80 DUP3 ADD MSTORE LOG1 JUMP JUMPDEST PUSH1 0x1 PUSH1 0x1 PUSH1 0xA0 SHL SUB PUSH1 0x4 SLOAD AND CALLER SUB PUSH2 0x22CA JUMPI JUMP JUMPDEST PUSH1 0x24 PUSH1 0x40 MLOAD PUSH32 0x118CDAA700000000000000000000000000000000000000000000000000000000 DUP2 MSTORE CALLER PUSH1 0x4 DUP3 ADD MSTORE REVERT JUMPDEST SWAP3 SWAP2 PUSH1 0x40 MLOAD SWAP4 PUSH1 0x80 DUP6 ADD DUP6 DUP2 LT PUSH8 0xFFFFFFFFFFFFFFFF DUP3 GT OR PUSH2 0x77A JUMPI PUSH1 0x40 MSTORE PUSH1 0x0 DUP6 MSTORE PUSH1 0x20 DUP6 ADD SWAP1 PUSH1 0x0 DUP3 MSTORE PUSH1 0x40 DUP7 ADD SWAP2 PUSH1 0x0 DUP4 MSTORE PUSH1 0x60 DUP8 ADD SWAP5 PUSH1 0x0 DUP7 MSTORE PUSH2 0x234B PUSH2 0x2345 DUP3 PUSH2 0x1AA1 JUMP JUMPDEST DUP5 PUSH2 0x1B80 JUMP JUMPDEST SWAP2 PUSH2 0x2370 PUSH2 0x2369 PUSH2 0x2364 PUSH2 0x235E DUP12 PUSH2 0x1AA1 JUMP JUMPDEST DUP10 PUSH2 0x1B80 JUMP JUMPDEST PUSH2 0x1ACF JUMP JUMPDEST PUSH1 0x64 SWAP1 DIV SWAP1 JUMP JUMPDEST SWAP4 DUP5 ISZERO PUSH2 0x23D1 JUMPI JUMPDEST DUP10 DUP6 DUP6 GT ISZERO PUSH2 0x238C JUMPI POP POP POP POP POP POP MSTORE MSTORE SWAP1 JUMP JUMPDEST PUSH2 0x23AF PUSH2 0x23CC SWAP10 SWAP11 SWAP6 PUSH2 0x23C0 SWAP9 SWAP6 PUSH2 0x23C5 SWAP6 PUSH2 0x23B8 SWAP12 SWAP6 PUSH2 0x23C0 SWAP6 MSTORE MSTORE DUP1 PUSH2 0x1AE5 JUMP JUMPDEST SWAP8 DUP7 DUP10 SWAP8 PUSH2 0x1AE5 JUMP JUMPDEST SWAP8 DUP9 SWAP3 PUSH2 0x1AE5 JUMP JUMPDEST PUSH2 0x1A5E JUMP JUMPDEST SWAP1 MSTORE PUSH2 0x1AE5 JUMP JUMPDEST SWAP1 MSTORE SWAP1 JUMP JUMPDEST PUSH1 0x1 SWAP5 POP PUSH2 0x2378 JUMP JUMPDEST SWAP1 SWAP4 SWAP3 PUSH1 0x0 SWAP5 PUSH2 0x2408 PUSH2 0x23F8 PUSH1 0x40 DUP7 ADD MLOAD PUSH2 0x206E PUSH1 0x60 DUP9 ADD MLOAD PUSH2 0x1AA1 JUMP JUMPDEST SWAP5 PUSH2 0x206E PUSH1 0x20 DUP3 MLOAD SWAP3 ADD MLOAD PUSH2 0x1AA1 JUMP JUMPDEST PUSH2 0x2412 DUP2 DUP7 PUSH2 0x1B80 JUMP JUMPDEST SWAP2 DUP3 ISZERO PUSH2 0x24EA JUMPI PUSH2 0x2423 SWAP1 DUP6 PUSH2 0x1F3E JUMP JUMPDEST DUP3 PUSH2 0x29A DUP2 LT PUSH2 0x24CF JUMPI POP SWAP5 JUMPDEST DUP6 PUSH2 0x243E JUMPI JUMPDEST POP POP POP POP POP POP JUMP JUMPDEST DUP6 SWAP8 POP SWAP2 PUSH2 0x23C0 PUSH2 0x248A SWAP3 PUSH2 0x245E DUP4 PUSH2 0x23C0 PUSH2 0x24AE SWAP8 PUSH2 0x120 SWAP11 SWAP12 PUSH2 0x1AE5 JUMP JUMPDEST SWAP10 PUSH2 0x2469 DUP12 CALLER PUSH2 0x2FA0 JUMP JUMPDEST CALLER PUSH1 0x0 SWAP1 DUP2 MSTORE PUSH1 0xE PUSH1 0x20 MSTORE PUSH1 0x40 SWAP1 KECCAK256 PUSH2 0x2483 DUP13 DUP3 SLOAD PUSH2 0x1B80 JUMP JUMPDEST SWAP1 SSTORE PUSH2 0x1AE5 JUMP JUMPDEST SWAP4 PUSH2 0x2495 DUP6 DUP3 PUSH2 0x2FA0 JUMP JUMPDEST PUSH1 0x1 PUSH1 0x1 PUSH1 0xA0 SHL SUB AND PUSH1 0x0 MSTORE PUSH1 0xE PUSH1 0x20 MSTORE PUSH1 0x40 PUSH1 0x0 KECCAK256 SWAP1 JUMP JUMPDEST PUSH2 0x24B9 DUP5 DUP3 SLOAD PUSH2 0x1B80 JUMP JUMPDEST SWAP1 SSTORE DUP5 PUSH2 0x100 DUP3 ADD MSTORE ADD MSTORE CODESIZE DUP1 DUP1 DUP1 DUP1 DUP1 PUSH2 0x2436 JUMP JUMPDEST PUSH2 0x24DC SWAP1 PUSH2 0x24E4 SWAP3 PUSH2 0x1AE5 JUMP JUMPDEST PUSH2 0x29A SWAP1 DIV SWAP1 JUMP JUMPDEST SWAP5 PUSH2 0x2430 JUMP JUMPDEST POP PUSH1 0x0 SWAP7 POP POP POP POP POP POP JUMP JUMPDEST SWAP3 SWAP2 SWAP4 PUSH1 0x40 DUP2 ADD DUP1 MLOAD ISZERO DUP1 ISZERO SWAP1 PUSH2 0x26D0 JUMPI JUMPDEST PUSH2 0x265D JUMPI JUMPDEST POP DUP1 MLOAD ISZERO DUP1 ISZERO SWAP1 PUSH2 0x2650 JUMPI JUMPDEST PUSH2 0x25CC JUMPI JUMPDEST POP PUSH2 0x2537 DUP2 PUSH2 0xDB3 DUP7 PUSH1 0x0 MSTORE PUSH1 0x0 PUSH1 0x20 MSTORE PUSH1 0x40 PUSH1 0x0 KECCAK256 SWAP1 JUMP JUMPDEST SLOAD ISZERO DUP1 PUSH2 0x25AC JUMPI JUMPDEST PUSH2 0x259C JUMPI JUMPDEST POP DUP2 PUSH2 0x255E DUP2 PUSH2 0xDB3 DUP7 PUSH1 0x0 MSTORE PUSH1 0x0 PUSH1 0x20 MSTORE PUSH1 0x40 PUSH1 0x0 KECCAK256 SWAP1 JUMP JUMPDEST SLOAD ISZERO SWAP2 DUP3 PUSH2 0x257A JUMPI JUMPDEST POP POP PUSH2 0x2571 JUMPI POP POP JUMP JUMPDEST PUSH2 0x1E40 SWAP2 PUSH2 0x30C8 JUMP JUMPDEST PUSH2 0x2593 SWAP3 POP PUSH2 0xDB3 SWAP1 PUSH1 0x0 MSTORE PUSH1 0x0 PUSH1 0x20 MSTORE PUSH1 0x40 PUSH1 0x0 KECCAK256 SWAP1 JUMP JUMPDEST SLOAD ISZERO DUP2 CODESIZE PUSH2 0x2567 JUMP JUMPDEST PUSH2 0x25A6 SWAP1 DUP5 PUSH2 0x30C8 JUMP JUMPDEST CODESIZE PUSH2 0x2544 JUMP JUMPDEST POP PUSH2 0x25C5 DUP2 PUSH2 0xDB3 DUP5 PUSH1 0x0 MSTORE PUSH1 0x0 PUSH1 0x20 MSTORE PUSH1 0x40 PUSH1 0x0 KECCAK256 SWAP1 JUMP JUMPDEST SLOAD ISZERO PUSH2 0x253F JUMP JUMPDEST PUSH2 0x2601 SWAP1 PUSH2 0x25D8 PUSH2 0x1B8D JUMP JUMPDEST PUSH2 0x25E0 PUSH2 0x1B8D JUMP JUMPDEST SWAP2 PUSH1 0x0 SWAP1 DUP1 MLOAD PUSH2 0x262F JUMPI JUMPDEST PUSH1 0x20 ADD DUP1 MLOAD PUSH2 0x2607 JUMPI JUMPDEST POP DUP1 DUP3 MSTORE DUP3 MSTORE DUP6 PUSH2 0x309F JUMP JUMPDEST CODESIZE PUSH2 0x251E JUMP JUMPDEST SWAP1 PUSH2 0x2629 SWAP2 DUP8 PUSH2 0x2617 DUP4 DUP7 PUSH2 0x1BD0 JUMP JUMPDEST MSTORE MLOAD PUSH2 0x2623 DUP3 DUP7 PUSH2 0x1BD0 JUMP JUMPDEST MSTORE PUSH2 0x2106 JUMP JUMPDEST CODESIZE PUSH2 0x25F5 JUMP JUMPDEST SWAP1 POP DUP8 PUSH2 0x263B DUP4 PUSH2 0x1BBE JUMP JUMPDEST MSTORE DUP1 MLOAD PUSH2 0x2647 DUP5 PUSH2 0x1BBE JUMP JUMPDEST MSTORE PUSH1 0x1 SWAP1 PUSH2 0x25EB JUMP JUMPDEST POP PUSH1 0x20 DUP2 ADD MLOAD ISZERO ISZERO PUSH2 0x2519 JUMP JUMPDEST PUSH2 0x2694 SWAP1 PUSH2 0x2669 PUSH2 0x1B8D JUMP JUMPDEST PUSH2 0x2671 PUSH2 0x1B8D JUMP JUMPDEST SWAP2 PUSH1 0x0 SWAP1 DUP1 MLOAD PUSH2 0x26B0 JUMPI JUMPDEST POP PUSH1 0x60 DUP6 ADD DUP1 MLOAD PUSH2 0x269A JUMPI JUMPDEST POP DUP1 DUP3 MSTORE DUP3 MSTORE DUP5 PUSH2 0x309F JUMP JUMPDEST CODESIZE PUSH2 0x250D JUMP JUMPDEST SWAP1 PUSH2 0x26AA SWAP2 DUP9 PUSH2 0x2617 DUP4 DUP7 PUSH2 0x1BD0 JUMP JUMPDEST CODESIZE PUSH2 0x2688 JUMP JUMPDEST SWAP1 POP DUP9 PUSH2 0x26BC DUP4 PUSH2 0x1BBE JUMP JUMPDEST MSTORE MLOAD PUSH2 0x26C7 DUP4 PUSH2 0x1BBE JUMP JUMPDEST MSTORE PUSH1 0x1 CODESIZE PUSH2 0x267C JUMP JUMPDEST POP PUSH1 0x60 DUP3 ADD MLOAD ISZERO ISZERO PUSH2 0x2508 JUMP JUMPDEST RETURNDATASIZE ISZERO PUSH2 0x2708 JUMPI RETURNDATASIZE SWAP1 PUSH2 0x26EE DUP3 PUSH2 0x855 JUMP JUMPDEST SWAP2 PUSH2 0x26FC PUSH1 0x40 MLOAD SWAP4 DUP5 PUSH2 0x79B JUMP JUMPDEST DUP3 MSTORE RETURNDATASIZE PUSH1 0x0 PUSH1 0x20 DUP5 ADD RETURNDATACOPY JUMP JUMPDEST PUSH1 0x60 SWAP1 JUMP JUMPDEST PUSH1 0x0 DUP1 PUSH2 0x5F8 SWAP4 PUSH1 0x20 DUP2 MLOAD SWAP2 ADD DUP5 GAS DELEGATECALL PUSH2 0x2725 PUSH2 0x26DD JUMP JUMPDEST SWAP2 PUSH2 0x3233 JUMP JUMPDEST PUSH2 0xFFFF SWAP1 DUP2 AND PUSH1 0x0 NOT ADD SWAP2 SWAP1 DUP3 GT PUSH2 0x1A9C JUMPI JUMP JUMPDEST PUSH1 0x1 SWAP2 DUP3 SIGNEXTEND SWAP2 SIGNEXTEND SUB SWAP1 PUSH2 0x7FFF NOT DUP3 SLT PUSH2 0x7FFF DUP4 SGT OR PUSH2 0x1A9C JUMPI JUMP JUMPDEST SWAP1 PUSH1 0x1 SIGNEXTEND SWAP1 PUSH1 0x1 SIGNEXTEND ADD SWAP1 PUSH2 0x7FFF NOT DUP3 SLT PUSH2 0x7FFF DUP4 SGT OR PUSH2 0x1A9C JUMPI JUMP JUMPDEST PUSH2 0x2807 PUSH2 0x2807 PUSH2 0x2791 PUSH2 0x278B PUSH2 0x280E SWAP5 PUSH2 0x272B JUMP JUMPDEST SWAP5 PUSH2 0x272B JUMP JUMPDEST PUSH2 0xFFFF DUP1 SWAP6 AND PUSH2 0x27ED PUSH1 0x6 SWAP2 PUSH1 0x1 SWAP8 DUP1 DUP5 DUP4 MOD AND DUP10 SIGNEXTEND SWAP4 DUP2 DUP1 PUSH1 0x24 DUP2 DUP5 DUP2 DUP2 DUP10 DIV AND MOD AND DUP14 SIGNEXTEND SWAP6 DIV AND DUP12 SIGNEXTEND SWAP7 AND SWAP2 PUSH1 0x24 DUP2 DUP1 DUP5 DUP7 MOD AND DUP14 SIGNEXTEND SWAP4 DUP2 DUP2 DUP8 DIV AND MOD AND DUP13 SIGNEXTEND SWAP4 DIV AND DUP11 SIGNEXTEND SWAP5 DUP2 DUP2 SGT PUSH1 0x0 EQ PUSH2 0x281B JUMPI SWAP1 PUSH2 0x27ED SWAP2 PUSH2 0x273F JUMP JUMPDEST SWAP2 JUMPDEST DUP2 DUP2 SGT ISZERO PUSH2 0x2812 JUMPI SWAP1 PUSH2 0x2801 SWAP2 PUSH2 0x273F JUMP JUMPDEST SWAP1 PUSH2 0x275A JUMP JUMPDEST PUSH2 0xFFFF AND SWAP1 JUMP JUMPDEST EQ SWAP1 JUMP JUMPDEST PUSH2 0x2801 SWAP2 PUSH2 0x273F JUMP JUMPDEST PUSH2 0x2824 SWAP2 PUSH2 0x273F JUMP JUMPDEST SWAP2 PUSH2 0x27EF JUMP JUMPDEST SWAP2 SWAP1 PUSH1 0xD8 DUP4 GT ISZERO PUSH2 0x2928 JUMPI PUSH1 0xD7 NOT DUP4 ADD SWAP1 DUP4 DUP3 GT PUSH2 0x1A9C JUMPI PUSH2 0x2875 SWAP2 SWAP3 JUMPDEST PUSH1 0xD8 DUP3 GT ISZERO PUSH2 0x291D JUMPI PUSH2 0x2866 DUP2 PUSH2 0x285E DUP5 PUSH2 0x1D96 JUMP JUMPDEST SWAP7 JUMPDEST CALLER PUSH2 0x32C6 JUMP JUMPDEST PUSH2 0x286E PUSH2 0x1DB2 JUMP JUMPDEST SWAP2 CALLER PUSH2 0x2933 JUMP JUMPDEST PUSH2 0x288D CALLER PUSH2 0xDB3 DUP4 PUSH1 0x0 MSTORE PUSH1 0x0 PUSH1 0x20 MSTORE PUSH1 0x40 PUSH1 0x0 KECCAK256 SWAP1 JUMP JUMPDEST SLOAD ISZERO DUP1 PUSH2 0x2904 JUMPI JUMPDEST PUSH2 0x28F3 JUMPI JUMPDEST POP PUSH2 0x28BC DUP2 PUSH2 0x50B CALLER PUSH1 0x1 PUSH1 0x1 PUSH1 0xA0 SHL SUB AND PUSH1 0x0 MSTORE PUSH1 0xB PUSH1 0x20 MSTORE PUSH1 0x40 PUSH1 0x0 KECCAK256 SWAP1 JUMP JUMPDEST SLOAD ISZERO PUSH2 0x28C5 JUMPI POP JUMP JUMPDEST PUSH2 0x1E40 SWAP1 NUMBER PUSH2 0x28EB DUP3 PUSH2 0x50B CALLER PUSH1 0x1 PUSH1 0x1 PUSH1 0xA0 SHL SUB AND PUSH1 0x0 MSTORE PUSH1 0xB PUSH1 0x20 MSTORE PUSH1 0x40 PUSH1 0x0 KECCAK256 SWAP1 JUMP JUMPDEST SSTORE CALLER SWAP1 PUSH2 0x2A7C JUMP JUMPDEST PUSH2 0x28FE SWAP1 CALLER SWAP1 PUSH2 0x30C8 JUMP JUMPDEST CODESIZE PUSH2 0x289A JUMP JUMPDEST POP PUSH2 0x2917 PUSH2 0x2911 DUP3 PUSH2 0x1B64 JUMP JUMPDEST CALLER PUSH2 0x19D0 JUMP JUMPDEST ISZERO PUSH2 0x2895 JUMP JUMPDEST PUSH2 0x2866 DUP2 DUP4 SWAP7 PUSH2 0x2860 JUMP JUMPDEST PUSH2 0x2875 SWAP1 DUP4 SWAP3 PUSH2 0x2848 JUMP JUMPDEST SWAP1 SWAP3 SWAP2 SWAP3 PUSH1 0x1 PUSH1 0x1 PUSH1 0xA0 SHL SUB DUP3 AND SWAP4 DUP5 ISZERO PUSH2 0x1888 JUMPI PUSH2 0x296F PUSH1 0x40 MLOAD SWAP3 PUSH1 0x1 DUP5 MSTORE PUSH1 0x20 DUP5 ADD MSTORE PUSH1 0x40 DUP4 ADD SWAP2 PUSH1 0x1 DUP4 MSTORE PUSH1 0x60 DUP5 ADD MSTORE PUSH1 0x80 DUP4 ADD PUSH1 0x40 MSTORE JUMP JUMPDEST SWAP3 DUP2 MLOAD DUP5 MLOAD SWAP1 DUP2 DUP2 SUB PUSH2 0x1C67 JUMPI POP POP PUSH1 0x0 JUMPDEST DUP3 MLOAD DUP2 LT ISZERO PUSH2 0x29C9 JUMPI DUP1 PUSH1 0x1 SWAP2 PUSH1 0x5 SHL PUSH2 0x29C1 PUSH2 0x29B9 DUP8 PUSH2 0xDB3 PUSH1 0x20 DUP1 DUP7 DUP12 ADD ADD MLOAD SWAP6 DUP13 ADD ADD MLOAD SWAP5 PUSH1 0x0 MSTORE PUSH1 0x0 PUSH1 0x20 MSTORE PUSH1 0x40 PUSH1 0x0 KECCAK256 SWAP1 JUMP JUMPDEST SWAP2 DUP3 SLOAD PUSH2 0x1B80 JUMP JUMPDEST SWAP1 SSTORE ADD PUSH2 0x2981 JUMP JUMPDEST POP SWAP3 SWAP2 SWAP4 PUSH1 0x1 DUP3 MLOAD EQ PUSH1 0x0 EQ PUSH2 0x2A40 JUMPI PUSH1 0x20 DUP3 DUP2 ADD MLOAD DUP5 DUP3 ADD MLOAD PUSH1 0x40 DUP1 MLOAD SWAP3 DUP4 MSTORE SWAP3 DUP3 ADD MSTORE PUSH1 0x0 SWAP2 CALLER SWAP2 PUSH32 0xC3D58168C5AE7397731D063D5BBF3D657854427343F4C083240F7AACAA2D0F62 SWAP2 SWAP1 LOG4 JUMPDEST DUP1 MLOAD PUSH1 0x1 SUB PUSH2 0x2A36 JUMPI SWAP1 PUSH1 0x20 DUP1 PUSH2 0x1E40 SWAP6 SWAP4 ADD MLOAD SWAP2 ADD MLOAD SWAP2 CALLER PUSH2 0x35C6 JUMP JUMPDEST PUSH2 0x1E40 SWAP4 CALLER PUSH2 0x33C9 JUMP JUMPDEST PUSH1 0x0 PUSH1 0x40 MLOAD PUSH32 0x4A39DC06D4C0DBC64B70AF90FD698A233A518AA5D07E595D983B8C0526C8F7FB CALLER SWAP2 DUP1 PUSH2 0x2A74 DUP9 DUP9 DUP4 PUSH2 0x3310 JUMP JUMPDEST SUB SWAP1 LOG4 PUSH2 0x2A18 JUMP JUMPDEST SWAP1 DUP2 PUSH1 0x0 MSTORE PUSH1 0xC PUSH1 0x20 MSTORE PUSH1 0xFF PUSH1 0x1 PUSH2 0x2AAB DUP4 PUSH1 0x40 PUSH1 0x0 KECCAK256 SWAP1 PUSH1 0x1 PUSH1 0x1 PUSH1 0xA0 SHL SUB AND PUSH1 0x0 MSTORE PUSH1 0x20 MSTORE PUSH1 0x40 PUSH1 0x0 KECCAK256 SWAP1 JUMP JUMPDEST ADD SLOAD PUSH1 0xA0 SHR AND PUSH2 0x2BF7 JUMPI PUSH2 0x2BBA PUSH2 0x1E40 SWAP3 PUSH1 0x1 PUSH1 0x1 PUSH1 0xA0 SHL SUB DUP1 PUSH2 0x2AD9 DUP4 PUSH1 0x0 MSTORE PUSH1 0xD PUSH1 0x20 MSTORE PUSH1 0x40 PUSH1 0x0 KECCAK256 SWAP1 JUMP JUMPDEST SLOAD AND SWAP1 PUSH1 0x40 MLOAD PUSH2 0x2AE8 DUP2 PUSH2 0x75E JUMP JUMPDEST PUSH1 0x0 DUP2 MSTORE PUSH2 0x2B5C PUSH1 0x20 DUP3 ADD SWAP3 DUP5 DUP5 MSTORE PUSH1 0x1 PUSH1 0x40 DUP5 ADD SWAP4 DUP2 DUP6 MSTORE PUSH2 0x2B3C DUP4 PUSH2 0x2B1D DUP13 PUSH2 0xDB3 DUP13 PUSH1 0x0 MSTORE PUSH1 0xC PUSH1 0x20 MSTORE PUSH1 0x40 PUSH1 0x0 KECCAK256 SWAP1 JUMP JUMPDEST SWAP3 MLOAD AND DUP3 SWAP1 PUSH1 0x1 PUSH1 0x1 PUSH1 0xA0 SHL SUB AND PUSH1 0x1 PUSH1 0x1 PUSH1 0xA0 SHL SUB NOT DUP3 SLOAD AND OR SWAP1 SSTORE JUMP JUMPDEST ADD SWAP4 MLOAD AND DUP4 SWAP1 PUSH1 0x1 PUSH1 0x1 PUSH1 0xA0 SHL SUB AND PUSH1 0x1 PUSH1 0x1 PUSH1 0xA0 SHL SUB NOT DUP3 SLOAD AND OR SWAP1 SSTORE JUMP JUMPDEST MLOAD DUP2 SLOAD PUSH32 0xFFFFFFFFFFFFFFFFFFFFFF00FFFFFFFFFFFFFFFFFFFFFFFFFFFFFFFFFFFFFFFF AND SWAP1 ISZERO ISZERO PUSH1 0xA0 SHL PUSH21 0xFF0000000000000000000000000000000000000000 AND OR SWAP1 SSTORE DUP4 DUP2 PUSH2 0x2BD5 JUMPI JUMPDEST POP POP PUSH1 0x0 MSTORE PUSH1 0xD PUSH1 0x20 MSTORE PUSH1 0x40 PUSH1 0x0 KECCAK256 SWAP1 JUMP JUMPDEST SWAP1 PUSH1 0x1 PUSH1 0x1 PUSH1 0xA0 SHL SUB AND PUSH1 0x1 PUSH1 0x1 PUSH1 0xA0 SHL SUB NOT DUP3 SLOAD AND OR SWAP1 SSTORE JUMP JUMPDEST PUSH2 0x2BBA PUSH2 0x2BF0 SWAP3 PUSH2 0xDB3 DUP6 PUSH1 0x0 MSTORE PUSH1 0xC PUSH1 0x20 MSTORE PUSH1 0x40 PUSH1 0x0 KECCAK256 SWAP1 JUMP JUMPDEST CODESIZE DUP4 PUSH2 0x2BA8 JUMP JUMPDEST POP POP JUMP JUMPDEST SWAP3 SWAP2 SWAP1 DUP1 MLOAD DUP3 MLOAD SWAP1 DUP2 DUP2 SUB PUSH2 0x1C67 JUMPI POP POP PUSH1 0x0 JUMPDEST DUP2 MLOAD DUP2 LT ISZERO PUSH2 0x2CC0 JUMPI DUP1 PUSH1 0x5 SHL PUSH1 0x20 DUP1 DUP3 DUP6 ADD ADD MLOAD SWAP2 DUP6 ADD ADD MLOAD PUSH1 0x1 PUSH1 0x1 PUSH1 0xA0 SHL SUB DUP8 AND PUSH2 0x2C42 JUMPI JUMPDEST POP POP PUSH1 0x1 ADD PUSH2 0x2C0F JUMP JUMPDEST PUSH2 0x2C5A DUP8 PUSH2 0xDB3 DUP5 PUSH1 0x0 MSTORE PUSH1 0x0 PUSH1 0x20 MSTORE PUSH1 0x40 PUSH1 0x0 KECCAK256 SWAP1 JUMP JUMPDEST SLOAD DUP2 DUP2 LT PUSH2 0x2C89 JUMPI DUP8 PUSH2 0xDB3 PUSH1 0x1 SWAP6 SWAP5 SWAP4 PUSH2 0x2C81 SWAP4 SUB SWAP4 PUSH1 0x0 MSTORE PUSH1 0x0 PUSH1 0x20 MSTORE PUSH1 0x40 PUSH1 0x0 KECCAK256 SWAP1 JUMP JUMPDEST SSTORE SWAP1 CODESIZE PUSH2 0x2C38 JUMP JUMPDEST PUSH1 0x40 MLOAD PUSH4 0x3DEE4C5 PUSH1 0xE0 SHL DUP2 MSTORE PUSH1 0x1 PUSH1 0x1 PUSH1 0xA0 SHL SUB DUP10 AND PUSH1 0x4 DUP3 ADD MSTORE PUSH1 0x24 DUP2 ADD SWAP2 SWAP1 SWAP2 MSTORE PUSH1 0x44 DUP2 ADD DUP3 SWAP1 MSTORE PUSH1 0x64 DUP2 ADD DUP4 SWAP1 MSTORE PUSH1 0x84 SWAP1 REVERT JUMPDEST POP SWAP1 PUSH1 0x0 SWAP3 SWAP4 SWAP2 PUSH1 0x1 DUP2 MLOAD EQ DUP5 EQ PUSH2 0x2D22 JUMPI PUSH1 0x20 SWAP1 DUP2 ADD MLOAD SWAP2 DUP2 ADD MLOAD PUSH1 0x40 DUP1 MLOAD SWAP4 DUP5 MSTORE SWAP2 DUP4 ADD MSTORE PUSH1 0x1 PUSH1 0x1 PUSH1 0xA0 SHL SUB SWAP3 SWAP1 SWAP3 AND SWAP2 CALLER SWAP2 PUSH32 0xC3D58168C5AE7397731D063D5BBF3D657854427343F4C083240F7AACAA2D0F62 SWAP2 DUP2 SWAP1 DUP2 ADD JUMPDEST SUB SWAP1 LOG4 JUMP JUMPDEST SWAP1 SWAP2 PUSH1 0x1 PUSH1 0x1 PUSH1 0xA0 SHL SUB PUSH32 0x4A39DC06D4C0DBC64B70AF90FD698A233A518AA5D07E595D983B8C0526C8F7FB SWAP2 PUSH2 0x2D1D PUSH1 0x40 MLOAD SWAP3 DUP4 SWAP3 AND SWAP6 CALLER SWAP6 DUP4 PUSH2 0x3310 JUMP JUMPDEST SWAP5 SWAP2 SWAP1 SWAP2 DUP2 MLOAD DUP5 MLOAD SWAP1 DUP2 DUP2 SUB PUSH2 0x1C67 JUMPI POP POP PUSH1 0x0 JUMPDEST DUP3 MLOAD DUP2 LT ISZERO PUSH2 0x2E61 JUMPI DUP1 PUSH1 0x5 SHL SWAP1 PUSH1 0x20 DUP1 DUP4 DUP7 ADD ADD MLOAD SWAP3 DUP8 ADD ADD MLOAD DUP6 PUSH1 0x1 PUSH1 0x1 PUSH1 0xA0 SHL SUB SWAP4 DUP5 DUP12 AND PUSH2 0x2DDB JUMPI JUMPDEST PUSH1 0x1 SWAP5 DUP3 AND PUSH2 0x2DB6 JUMPI JUMPDEST POP POP POP ADD PUSH2 0x2D76 JUMP JUMPDEST PUSH2 0x2DD1 SWAP2 PUSH2 0xDB3 PUSH2 0x29B9 SWAP3 PUSH1 0x0 MSTORE PUSH1 0x0 PUSH1 0x20 MSTORE PUSH1 0x40 PUSH1 0x0 KECCAK256 SWAP1 JUMP JUMPDEST SWAP1 SSTORE CODESIZE DUP6 DUP2 PUSH2 0x2DAD JUMP JUMPDEST SWAP2 SWAP3 SWAP4 SWAP1 POP PUSH2 0x2DF8 DUP11 PUSH2 0xDB3 DUP5 PUSH1 0x0 MSTORE PUSH1 0x0 PUSH1 0x20 MSTORE PUSH1 0x40 PUSH1 0x0 KECCAK256 SWAP1 JUMP JUMPDEST SLOAD DUP4 DUP2 LT PUSH2 0x2E2A JUMPI SWAP2 DUP8 SWAP2 DUP5 PUSH1 0x1 SWAP7 SWAP6 SWAP5 SUB PUSH2 0x2E22 DUP14 PUSH2 0xDB3 DUP6 PUSH1 0x0 MSTORE PUSH1 0x0 PUSH1 0x20 MSTORE PUSH1 0x40 PUSH1 0x0 KECCAK256 SWAP1 JUMP JUMPDEST SSTORE SWAP5 POP PUSH2 0x2DA3 JUMP JUMPDEST PUSH1 0x40 MLOAD PUSH4 0x3DEE4C5 PUSH1 0xE0 SHL DUP2 MSTORE PUSH1 0x1 PUSH1 0x1 PUSH1 0xA0 SHL SUB DUP13 AND PUSH1 0x4 DUP3 ADD MSTORE PUSH1 0x24 DUP2 ADD SWAP2 SWAP1 SWAP2 MSTORE PUSH1 0x44 DUP2 ADD DUP5 SWAP1 MSTORE PUSH1 0x64 DUP2 ADD DUP4 SWAP1 MSTORE PUSH1 0x84 SWAP1 REVERT JUMPDEST POP SWAP5 SWAP2 SWAP4 SWAP3 SWAP1 SWAP4 PUSH1 0x1 DUP6 MLOAD EQ PUSH1 0x0 EQ PUSH2 0x2F0C JUMPI PUSH1 0x20 DUP6 DUP2 ADD MLOAD DUP4 DUP3 ADD MLOAD PUSH1 0x40 DUP1 MLOAD SWAP3 DUP4 MSTORE SWAP3 DUP3 ADD MSTORE PUSH1 0x1 PUSH1 0x1 PUSH1 0xA0 SHL SUB DUP4 DUP2 AND SWAP3 SWAP1 DUP7 AND SWAP2 CALLER SWAP2 PUSH32 0xC3D58168C5AE7397731D063D5BBF3D657854427343F4C083240F7AACAA2D0F62 SWAP2 LOG4 JUMPDEST PUSH1 0x1 PUSH1 0x1 PUSH1 0xA0 SHL SUB DUP2 AND PUSH2 0x2ED5 JUMPI JUMPDEST POP POP POP POP POP JUMP JUMPDEST DUP5 MLOAD PUSH1 0x1 SUB PUSH2 0x2EFB JUMPI PUSH1 0x20 DUP1 PUSH2 0x2EF1 SWAP7 ADD MLOAD SWAP3 ADD MLOAD SWAP3 CALLER PUSH2 0x35FB JUMP JUMPDEST CODESIZE DUP1 DUP1 DUP1 DUP1 PUSH2 0x2ECE JUMP JUMPDEST PUSH2 0x2F07 SWAP5 SWAP2 SWAP3 CALLER PUSH2 0x34C4 JUMP JUMPDEST PUSH2 0x2EF1 JUMP JUMPDEST PUSH1 0x1 PUSH1 0x1 PUSH1 0xA0 SHL SUB PUSH1 0x40 MLOAD DUP2 DUP4 AND SWAP2 DUP6 AND SWAP1 PUSH32 0x4A39DC06D4C0DBC64B70AF90FD698A233A518AA5D07E595D983B8C0526C8F7FB CALLER SWAP2 DUP1 PUSH2 0x2F4D DUP9 DUP13 DUP4 PUSH2 0x3310 JUMP JUMPDEST SUB SWAP1 LOG4 PUSH2 0x2EBF JUMP JUMPDEST ISZERO PUSH2 0x2F5C JUMPI JUMP JUMPDEST PUSH1 0x64 PUSH1 0x40 MLOAD PUSH3 0x461BCD PUSH1 0xE5 SHL DUP2 MSTORE PUSH1 0x20 PUSH1 0x4 DUP3 ADD MSTORE PUSH1 0xB PUSH1 0x24 DUP3 ADD MSTORE PUSH32 0x5061796F7574206661696C000000000000000000000000000000000000000000 PUSH1 0x44 DUP3 ADD MSTORE REVERT JUMPDEST DUP2 PUSH2 0x2FA9 JUMPI POP POP JUMP JUMPDEST PUSH2 0x3038 SWAP2 PUSH1 0x20 SWAP2 PUSH2 0x3007 PUSH2 0x3002 PUSH2 0x2FE5 PUSH2 0x2FC8 PUSH2 0x2084 PUSH1 0x5 SLOAD DUP8 PUSH2 0x1AE5 JUMP JUMPDEST SWAP5 PUSH2 0x2FE0 PUSH2 0x2FD8 PUSH2 0x2084 DUP4 PUSH2 0x1AA1 JUMP JUMPDEST SWAP7 DUP8 SWAP3 PUSH2 0x1DA5 JUMP JUMPDEST PUSH2 0x1DA5 JUMP JUMPDEST SWAP4 PUSH2 0x2FFA PUSH2 0x2FF5 DUP7 PUSH1 0x9 SLOAD PUSH2 0x1B80 JUMP JUMPDEST PUSH1 0x9 SSTORE JUMP JUMPDEST PUSH1 0xA SLOAD PUSH2 0x1B80 JUMP JUMPDEST PUSH1 0xA SSTORE JUMP JUMPDEST PUSH1 0x40 MLOAD SWAP4 DUP5 SWAP3 DUP4 SWAP3 PUSH4 0xA9059CBB PUSH1 0xE0 SHL DUP5 MSTORE PUSH1 0x4 DUP5 ADD PUSH1 0x20 SWAP1 SWAP4 SWAP3 SWAP2 SWAP4 PUSH1 0x1 PUSH1 0x1 PUSH1 0xA0 SHL SUB PUSH1 0x40 DUP3 ADD SWAP6 AND DUP2 MSTORE ADD MSTORE JUMP JUMPDEST SUB DUP2 PUSH1 0x0 PUSH1 0x1 PUSH1 0x1 PUSH1 0xA0 SHL SUB PUSH32 0x0 AND GAS CALL DUP1 ISZERO PUSH2 0x58F JUMPI PUSH2 0x1E40 SWAP2 PUSH1 0x0 SWAP2 PUSH2 0x3080 JUMPI JUMPDEST POP PUSH2 0x2F55 JUMP JUMPDEST PUSH2 0x3099 SWAP2 POP PUSH1 0x20 RETURNDATASIZE PUSH1 0x20 GT PUSH2 0x588 JUMPI PUSH2 0x57A DUP2 DUP4 PUSH2 0x79B JUMP JUMPDEST CODESIZE PUSH2 0x307A JUMP JUMPDEST SWAP2 SWAP1 PUSH1 0x1 PUSH1 0x1 PUSH1 0xA0 SHL SUB DUP4 AND ISZERO PUSH2 0x1871 JUMPI PUSH2 0x1E40 SWAP3 PUSH1 0x0 PUSH1 0x40 MLOAD PUSH2 0x30C2 DUP2 PUSH2 0x77F JUMP JUMPDEST MSTORE PUSH2 0x2BFB JUMP JUMPDEST SWAP1 PUSH2 0x30E1 DUP2 PUSH2 0xDB3 DUP5 PUSH1 0x0 MSTORE PUSH1 0xC PUSH1 0x20 MSTORE PUSH1 0x40 PUSH1 0x0 KECCAK256 SWAP1 JUMP JUMPDEST SWAP2 PUSH1 0x1 DUP4 ADD DUP1 SLOAD SWAP3 PUSH1 0xFF DUP5 PUSH1 0xA0 SHR AND ISZERO PUSH2 0x2ECE JUMPI PUSH1 0x0 SWAP5 PUSH2 0x31DF SWAP5 PUSH2 0x3195 PUSH2 0x50B SWAP5 PUSH1 0x1 PUSH1 0x1 PUSH1 0xA0 SHL SUB SWAP3 DUP4 DUP1 PUSH2 0x311F DUP8 SLOAD PUSH1 0x1 PUSH1 0x1 PUSH1 0xA0 SHL SUB AND SWAP1 JUMP JUMPDEST AND ISZERO ISZERO DUP12 EQ PUSH2 0x3215 JUMPI POP POP PUSH2 0x165B PUSH2 0x313E DUP3 SLOAD PUSH1 0x1 PUSH1 0x1 PUSH1 0xA0 SHL SUB AND SWAP1 JUMP JUMPDEST PUSH1 0x1 PUSH2 0x3179 PUSH2 0x3157 DUP12 PUSH1 0x0 MSTORE PUSH1 0xC PUSH1 0x20 MSTORE PUSH1 0x40 PUSH1 0x0 KECCAK256 SWAP1 JUMP JUMPDEST DUP9 SLOAD PUSH1 0x1 PUSH1 0x1 PUSH1 0xA0 SHL SUB AND PUSH1 0x1 PUSH1 0x1 PUSH1 0xA0 SHL SUB AND PUSH1 0x0 MSTORE PUSH1 0x20 MSTORE PUSH1 0x40 PUSH1 0x0 KECCAK256 SWAP1 JUMP JUMPDEST ADD SWAP1 PUSH1 0x1 PUSH1 0x1 PUSH1 0xA0 SHL SUB AND PUSH1 0x1 PUSH1 0x1 PUSH1 0xA0 SHL SUB NOT DUP3 SLOAD AND OR SWAP1 SSTORE JUMP JUMPDEST SWAP1 DUP2 AND PUSH2 0x31E2 JUMPI JUMPDEST POP POP PUSH2 0x31C6 PUSH2 0x31BA DUP3 PUSH2 0xDB3 DUP7 PUSH1 0x0 MSTORE PUSH1 0xC PUSH1 0x20 MSTORE PUSH1 0x40 PUSH1 0x0 KECCAK256 SWAP1 JUMP JUMPDEST PUSH1 0x1 PUSH1 0x0 SWAP2 DUP3 DUP2 SSTORE ADD SSTORE JUMP JUMPDEST PUSH1 0x1 PUSH1 0x1 PUSH1 0xA0 SHL SUB AND PUSH1 0x0 MSTORE PUSH1 0xB PUSH1 0x20 MSTORE PUSH1 0x40 PUSH1 0x0 KECCAK256 SWAP1 JUMP JUMPDEST SSTORE JUMP JUMPDEST PUSH2 0x2BBA PUSH2 0x31F9 PUSH2 0x320E SWAP4 SLOAD PUSH1 0x1 PUSH1 0x1 PUSH1 0xA0 SHL SUB AND SWAP1 JUMP JUMPDEST SWAP2 PUSH2 0xDB3 DUP8 PUSH1 0x0 MSTORE PUSH1 0xC PUSH1 0x20 MSTORE PUSH1 0x40 PUSH1 0x0 KECCAK256 SWAP1 JUMP JUMPDEST CODESIZE DUP1 PUSH2 0x319D JUMP JUMPDEST PUSH2 0x322E SWAP2 AND PUSH2 0x2BBA DUP10 PUSH1 0x0 MSTORE PUSH1 0xD PUSH1 0x20 MSTORE PUSH1 0x40 PUSH1 0x0 KECCAK256 SWAP1 JUMP JUMPDEST PUSH2 0x165B JUMP JUMPDEST SWAP1 PUSH2 0x3272 JUMPI POP DUP1 MLOAD ISZERO PUSH2 0x3248 JUMPI PUSH1 0x20 DUP2 MLOAD SWAP2 ADD REVERT JUMPDEST PUSH1 0x4 PUSH1 0x40 MLOAD PUSH32 0xD6BDA27500000000000000000000000000000000000000000000000000000000 DUP2 MSTORE REVERT JUMPDEST DUP2 MLOAD ISZERO DUP1 PUSH2 0x32BD JUMPI JUMPDEST PUSH2 0x3283 JUMPI POP SWAP1 JUMP JUMPDEST PUSH1 0x24 SWAP1 PUSH1 0x1 PUSH1 0x1 PUSH1 0xA0 SHL SUB PUSH1 0x40 MLOAD SWAP2 PUSH32 0x9996B31500000000000000000000000000000000000000000000000000000000 DUP4 MSTORE AND PUSH1 0x4 DUP3 ADD MSTORE REVERT JUMPDEST POP DUP1 EXTCODESIZE ISZERO PUSH2 0x327B JUMP JUMPDEST SWAP1 PUSH1 0x1 PUSH1 0x1 PUSH1 0xA0 SHL SUB DUP3 AND ISZERO PUSH2 0x1871 JUMPI PUSH2 0x1E40 SWAP3 PUSH2 0x3301 PUSH1 0x40 MLOAD SWAP3 PUSH1 0x1 DUP5 MSTORE PUSH1 0x20 DUP5 ADD MSTORE PUSH1 0x40 DUP4 ADD SWAP2 PUSH1 0x1 DUP4 MSTORE PUSH1 0x60 DUP5 ADD MSTORE PUSH1 0x80 DUP4 ADD PUSH1 0x40 MSTORE JUMP JUMPDEST SWAP2 PUSH1 0x0 PUSH1 0x40 MLOAD PUSH2 0x30C2 DUP2 PUSH2 0x77F JUMP JUMPDEST SWAP1 SWAP2 PUSH2 0x3327 PUSH2 0x5F8 SWAP4 PUSH1 0x40 DUP5 MSTORE PUSH1 0x40 DUP5 ADD SWAP1 PUSH2 0xA49 JUMP JUMPDEST SWAP2 PUSH1 0x20 DUP2 DUP5 SUB SWAP2 ADD MSTORE PUSH2 0xA49 JUMP JUMPDEST SWAP1 DUP2 PUSH1 0x20 SWAP2 SUB SLT PUSH2 0x287 JUMPI MLOAD PUSH2 0x5F8 DUP2 PUSH2 0x304 JUMP JUMPDEST SWAP3 PUSH2 0x337A PUSH2 0x5F8 SWAP6 SWAP4 PUSH1 0x1 PUSH1 0x1 PUSH1 0xA0 SHL SUB PUSH2 0x3388 SWAP5 AND DUP7 MSTORE PUSH1 0x0 PUSH1 0x20 DUP8 ADD MSTORE PUSH1 0xA0 PUSH1 0x40 DUP8 ADD MSTORE PUSH1 0xA0 DUP7 ADD SWAP1 PUSH2 0xA49 JUMP JUMPDEST SWAP1 DUP5 DUP3 SUB PUSH1 0x60 DUP7 ADD MSTORE PUSH2 0xA49 JUMP JUMPDEST SWAP2 PUSH1 0x80 DUP2 DUP5 SUB SWAP2 ADD MSTORE PUSH2 0x5C2 JUMP JUMPDEST SWAP4 SWAP1 PUSH2 0x5F8 SWAP6 SWAP4 PUSH2 0x337A SWAP2 PUSH2 0x3388 SWAP5 PUSH1 0x1 PUSH1 0x1 PUSH1 0xA0 SHL SUB DUP1 SWAP3 AND DUP9 MSTORE AND PUSH1 0x20 DUP8 ADD MSTORE PUSH1 0xA0 PUSH1 0x40 DUP8 ADD MSTORE PUSH1 0xA0 DUP7 ADD SWAP1 PUSH2 0xA49 JUMP JUMPDEST SWAP3 SWAP4 SWAP2 SWAP1 SWAP4 DUP5 EXTCODESIZE PUSH2 0x33DB JUMPI POP POP POP POP POP JUMP JUMPDEST PUSH1 0x20 SWAP2 PUSH2 0x33FE PUSH1 0x40 MLOAD SWAP5 DUP6 SWAP4 DUP5 SWAP4 PUSH4 0xBC197C81 PUSH1 0xE0 SHL SWAP9 DUP10 DUP7 MSTORE PUSH1 0x4 DUP7 ADD PUSH2 0x334A JUMP JUMPDEST SUB DUP2 PUSH1 0x0 PUSH1 0x1 PUSH1 0x1 PUSH1 0xA0 SHL SUB DUP9 AND GAS CALL PUSH1 0x0 SWAP2 DUP2 PUSH2 0x3493 JUMPI JUMPDEST POP PUSH2 0x3456 JUMPI DUP3 PUSH2 0x3425 PUSH2 0x26DD JUMP JUMPDEST DUP1 MLOAD SWAP2 SWAP1 DUP3 PUSH2 0x344F JUMPI PUSH1 0x40 MLOAD PUSH4 0x2BFA23E7 PUSH1 0xE1 SHL DUP2 MSTORE PUSH1 0x1 PUSH1 0x1 PUSH1 0xA0 SHL SUB DUP4 AND PUSH1 0x4 DUP3 ADD MSTORE PUSH1 0x24 SWAP1 REVERT JUMPDEST PUSH1 0x20 SWAP2 POP ADD REVERT JUMPDEST PUSH1 0x1 PUSH1 0x1 PUSH1 0xE0 SHL SUB NOT AND SUB PUSH2 0x3470 JUMPI POP CODESIZE DUP1 DUP1 DUP1 DUP1 PUSH2 0x2ECE JUMP JUMPDEST PUSH1 0x40 MLOAD PUSH4 0x2BFA23E7 PUSH1 0xE1 SHL DUP2 MSTORE PUSH1 0x1 PUSH1 0x1 PUSH1 0xA0 SHL SUB SWAP2 SWAP1 SWAP2 AND PUSH1 0x4 DUP3 ADD MSTORE PUSH1 0x24 SWAP1 REVERT JUMPDEST PUSH2 0x34B6 SWAP2 SWAP3 POP PUSH1 0x20 RETURNDATASIZE PUSH1 0x20 GT PUSH2 0x34BD JUMPI JUMPDEST PUSH2 0x34AE DUP2 DUP4 PUSH2 0x79B JUMP JUMPDEST DUP2 ADD SWAP1 PUSH2 0x3335 JUMP JUMPDEST SWAP1 CODESIZE PUSH2 0x3417 JUMP JUMPDEST POP RETURNDATASIZE PUSH2 0x34A4 JUMP JUMPDEST SWAP4 SWAP3 SWAP1 SWAP5 SWAP2 SWAP5 DUP6 EXTCODESIZE PUSH2 0x34D8 JUMPI POP POP POP POP POP POP JUMP JUMPDEST PUSH2 0x34FB PUSH1 0x20 SWAP4 PUSH1 0x40 MLOAD SWAP6 DUP7 SWAP5 DUP6 SWAP5 PUSH4 0xBC197C81 PUSH1 0xE0 SHL SWAP10 DUP11 DUP8 MSTORE PUSH1 0x4 DUP8 ADD PUSH2 0x3396 JUMP JUMPDEST SUB DUP2 PUSH1 0x0 PUSH1 0x1 PUSH1 0x1 PUSH1 0xA0 SHL SUB DUP9 AND GAS CALL PUSH1 0x0 SWAP2 DUP2 PUSH2 0x353D JUMPI JUMPDEST POP PUSH2 0x3522 JUMPI DUP3 PUSH2 0x3425 PUSH2 0x26DD JUMP JUMPDEST PUSH1 0x1 PUSH1 0x1 PUSH1 0xE0 SHL SUB NOT AND SUB PUSH2 0x3470 JUMPI POP CODESIZE DUP1 DUP1 DUP1 DUP1 DUP1 PUSH2 0x2436 JUMP JUMPDEST PUSH2 0x3557 SWAP2 SWAP3 POP PUSH1 0x20 RETURNDATASIZE PUSH1 0x20 GT PUSH2 0x34BD JUMPI PUSH2 0x34AE DUP2 DUP4 PUSH2 0x79B JUMP JUMPDEST SWAP1 CODESIZE PUSH2 0x3514 JUMP JUMPDEST SWAP1 SWAP3 PUSH1 0xA0 SWAP3 PUSH1 0x1 PUSH1 0x1 PUSH1 0xA0 SHL SUB PUSH2 0x5F8 SWAP7 SWAP6 AND DUP4 MSTORE PUSH1 0x0 PUSH1 0x20 DUP5 ADD MSTORE PUSH1 0x40 DUP4 ADD MSTORE PUSH1 0x60 DUP3 ADD MSTORE DUP2 PUSH1 0x80 DUP3 ADD MSTORE ADD SWAP1 PUSH2 0x5C2 JUMP JUMPDEST SWAP2 SWAP3 PUSH2 0x5F8 SWAP6 SWAP5 SWAP2 PUSH1 0xA0 SWAP5 PUSH1 0x1 PUSH1 0x1 PUSH1 0xA0 SHL SUB DUP1 SWAP3 AND DUP6 MSTORE AND PUSH1 0x20 DUP5 ADD MSTORE PUSH1 0x40 DUP4 ADD MSTORE PUSH1 0x60 DUP3 ADD MSTORE DUP2 PUSH1 0x80 DUP3 ADD MSTORE ADD SWAP1 PUSH2 0x5C2 JUMP JUMPDEST SWAP3 SWAP4 SWAP2 SWAP1 SWAP4 DUP5 EXTCODESIZE PUSH2 0x35D8 JUMPI POP POP POP POP POP JUMP JUMPDEST PUSH1 0x20 SWAP2 PUSH2 0x33FE PUSH1 0x40 MLOAD SWAP5 DUP6 SWAP4 DUP5 SWAP4 PUSH4 0xF23A6E61 PUSH1 0xE0 SHL SWAP9 DUP10 DUP7 MSTORE PUSH1 0x4 DUP7 ADD PUSH2 0x355E JUMP JUMPDEST SWAP4 SWAP3 SWAP1 SWAP5 SWAP2 SWAP5 DUP6 EXTCODESIZE PUSH2 0x360F JUMPI POP POP POP POP POP POP JUMP JUMPDEST PUSH2 0x34FB PUSH1 0x20 SWAP4 PUSH1 0x40 MLOAD SWAP6 DUP7 SWAP5 DUP6 SWAP5 PUSH4 0xF23A6E61 PUSH1 0xE0 SHL SWAP10 DUP11 DUP8 MSTORE PUSH1 0x4 DUP8 ADD PUSH2 0x3591 JUMP INVALID LOG2 PUSH5 0x6970667358 0x22 SLT KECCAK256 DUP2 PUSH27 0xE2C3D822022F8E07B2CDAA8707E4B1AFEDC8D016B88FECDA3A9ECE 0xDD SLOAD SELFDESTRUCT PUSH5 0x736F6C6343 STOP ADDMOD XOR STOP CALLER "},"methodIdentifiers":{"BLOCKS_PER_MULTIPLIER()":"6ba37515","BURN_BPS()":"a37a9fc0","GLOBAL_CAP_BPS()":"3e984e48","MAX_MULTIPLIER()":"5d6a618d","MOVE_COST()":"94456848","SPAWN_COST()":"c704c3f1","THERMAL_PARITY()":"523c686a","adminWithdraw(uint256)":"7c5b4a37","agentStacks(address,uint256)":"edbd5df8","agentTotalProfit(address)":"c68e8075","balanceOf(address,uint256)":"00fdd58e","balanceOfBatch(address[],uint256[])":"4e1273f4","getBirthBlock(address,uint256)":"b8011328","getFullStack(uint16)":"ef0a1311","getPendingBounty(address,uint256)":"ea075ee1","isApprovedForAll(address,address)":"e985e9c5","kill(address,uint16,uint256,uint256)":"91fa2a6a","killToken()":"2bd7cd17","move(uint16,uint16,uint256,uint256)":"e74fe237","multicall(bytes[])":"ac9650d8","owner()":"8da5cb5b","renounceOwnership()":"715018a6","safeBatchTransferFrom(address,address,uint256[],uint256[],bytes)":"2eb2c2d6","safeTransferFrom(address,address,uint256,uint256,bytes)":"f242432a","setApprovalForAll(address,bool)":"a22cb465","setTreasuryBps(uint256)":"bb6eb359","spawn(uint16,uint256)":"09f61826","stackHeads(uint256)":"fe610d40","stackNodes(uint256,address)":"c4e571c5","supportsInterface(bytes4)":"01ffc9a7","totalKillAdded()":"66d8153f","totalKillBurned()":"88b00adc","totalKillExtracted()":"5635fdbc","totalReaperKilled()":"2ee8174e","totalUnitsKilled()":"78129882","transferOwnership(address)":"f2fde38b","treasuryBps()":"4dc10ea1","uri(uint256)":"0e89341c"}},"storageLayout":{"storage":[{"astId":326,"contract":"contracts/KillGame.sol:KILLGame","label":"_balances","offset":0,"slot":"0","type":"t_mapping(t_uint256,t_mapping(t_address,t_uint256))"},{"astId":332,"contract":"contracts/KillGame.sol:KILLGame","label":"_operatorApprovals","offset":0,"slot":"1","type":"t_mapping(t_address,t_mapping(t_address,t_bool))"},{"astId":334,"contract":"contracts/KillGame.sol:KILLGame","label":"_uri","offset":0,"slot":"2","type":"t_string_storage"},{"astId":3086,"contract":"contracts/KillGame.sol:KILLGame","label":"_status","offset":0,"slot":"3","type":"t_uint256"},{"astId":8,"contract":"contracts/KillGame.sol:KILLGame","label":"_owner","offset":0,"slot":"4","type":"t_address"},{"astId":6978,"contract":"contracts/KillGame.sol:KILLGame","label":"treasuryBps","offset":0,"slot":"5","type":"t_uint256"},{"astId":6980,"contract":"contracts/KillGame.sol:KILLGame","label":"totalUnitsKilled","offset":0,"slot":"6","type":"t_uint256"},{"astId":6982,"contract":"contracts/KillGame.sol:KILLGame","label":"totalReaperKilled","offset":0,"slot":"7","type":"t_uint256"},{"astId":6984,"contract":"contracts/KillGame.sol:KILLGame","label":"totalKillAdded","offset":0,"slot":"8","type":"t_uint256"},{"astId":6986,"contract":"contracts/KillGame.sol:KILLGame","label":"totalKillExtracted","offset":0,"slot":"9","type":"t_uint256"},{"astId":6988,"contract":"contracts/KillGame.sol:KILLGame","label":"totalKillBurned","offset":0,"slot":"10","type":"t_uint256"},{"astId":6995,"contract":"contracts/KillGame.sol:KILLGame","label":"agentStacks","offset":0,"slot":"11","type":"t_mapping(t_address,t_mapping(t_uint256,t_struct(ReaperStack)6838_storage))"},{"astId":7002,"contract":"contracts/KillGame.sol:KILLGame","label":"stackNodes","offset":0,"slot":"12","type":"t_mapping(t_uint256,t_mapping(t_address,t_struct(Node)6886_storage))"},{"astId":7006,"contract":"contracts/KillGame.sol:KILLGame","label":"stackHeads","offset":0,"slot":"13","type":"t_mapping(t_uint256,t_address)"},{"astId":7010,"contract":"contracts/KillGame.sol:KILLGame","label":"agentTotalProfit","offset":0,"slot":"14","type":"t_mapping(t_address,t_uint256)"}],"types":{"t_address":{"encoding":"inplace","label":"address","numberOfBytes":"20"},"t_bool":{"encoding":"inplace","label":"bool","numberOfBytes":"1"},"t_mapping(t_address,t_bool)":{"encoding":"mapping","key":"t_address","label":"mapping(address => bool)","numberOfBytes":"32","value":"t_bool"},"t_mapping(t_address,t_mapping(t_address,t_bool))":{"encoding":"mapping","key":"t_address","label":"mapping(address => mapping(address => bool))","numberOfBytes":"32","value":"t_mapping(t_address,t_bool)"},"t_mapping(t_address,t_mapping(t_uint256,t_struct(ReaperStack)6838_storage))":{"encoding":"mapping","key":"t_address","label":"mapping(address => mapping(uint256 => struct KILLGame.ReaperStack))","numberOfBytes":"32","value":"t_mapping(t_uint256,t_struct(ReaperStack)6838_storage)"},"t_mapping(t_address,t_struct(Node)6886_storage)":{"encoding":"mapping","key":"t_address","label":"mapping(address => struct KILLGame.Node)","numberOfBytes":"32","value":"t_struct(Node)6886_storage"},"t_mapping(t_address,t_uint256)":{"encoding":"mapping","key":"t_address","label":"mapping(address => uint256)","numberOfBytes":"32","value":"t_uint256"},"t_mapping(t_uint256,t_address)":{"encoding":"mapping","key":"t_uint256","label":"mapping(uint256 => address)","numberOfBytes":"32","value":"t_address"},"t_mapping(t_uint256,t_mapping(t_address,t_struct(Node)6886_storage))":{"encoding":"mapping","key":"t_uint256","label":"mapping(uint256 => mapping(address => struct KILLGame.Node))","numberOfBytes":"32","value":"t_mapping(t_address,t_struct(Node)6886_storage)"},"t_mapping(t_uint256,t_mapping(t_address,t_uint256))":{"encoding":"mapping","key":"t_uint256","label":"mapping(uint256 => mapping(address => uint256))","numberOfBytes":"32","value":"t_mapping(t_address,t_uint256)"},"t_mapping(t_uint256,t_struct(ReaperStack)6838_storage)":{"encoding":"mapping","key":"t_uint256","label":"mapping(uint256 => struct KILLGame.ReaperStack)","numberOfBytes":"32","value":"t_struct(ReaperStack)6838_storage"},"t_string_storage":{"encoding":"bytes","label":"string","numberOfBytes":"32"},"t_struct(Node)6886_storage":{"encoding":"inplace","label":"struct KILLGame.Node","members":[{"astId":6881,"contract":"contracts/KillGame.sol:KILLGame","label":"prev","offset":0,"slot":"0","type":"t_address"},{"astId":6883,"contract":"contracts/KillGame.sol:KILLGame","label":"next","offset":0,"slot":"1","type":"t_address"},{"astId":6885,"contract":"contracts/KillGame.sol:KILLGame","label":"exists","offset":20,"slot":"1","type":"t_bool"}],"numberOfBytes":"64"},"t_struct(ReaperStack)6838_storage":{"encoding":"inplace","label":"struct KILLGame.ReaperStack","members":[{"astId":6837,"contract":"contracts/KillGame.sol:KILLGame","label":"birthBlock","offset":0,"slot":"0","type":"t_uint256"}],"numberOfBytes":"32"},"t_uint256":{"encoding":"inplace","label":"uint256","numberOfBytes":"32"}}}}}}