{"contracts/KillGame.sol":{"KILLGame":{"abi":[{"inputs":[{"internalType":"address","name":"_tokenAddress","type":"address"}],"stateMutability":"nonpayable","type":"constructor"},{"inputs":[{"internalType":"address","name":"sender","type":"address"},{"internalType":"uint256","name":"balance","type":"uint256"},{"internalType":"uint256","name":"needed","type":"uint256"},{"internalType":"uint256","name":"tokenId","type":"uint256"}],"name":"ERC1155InsufficientBalance","type":"error"},{"inputs":[{"internalType":"address","name":"approver","type":"address"}],"name":"ERC1155InvalidApprover","type":"error"},{"inputs":[{"internalType":"uint256","name":"idsLength","type":"uint256"},{"internalType":"uint256","name":"valuesLength","type":"uint256"}],"name":"ERC1155InvalidArrayLength","type":"error"},{"inputs":[{"internalType":"address","name":"operator","type":"address"}],"name":"ERC1155InvalidOperator","type":"error"},{"inputs":[{"internalType":"address","name":"receiver","type":"address"}],"name":"ERC1155InvalidReceiver","type":"error"},{"inputs":[{"internalType":"address","name":"sender","type":"address"}],"name":"ERC1155InvalidSender","type":"error"},{"inputs":[{"internalType":"address","name":"operator","type":"address"},{"internalType":"address","name":"owner","type":"address"}],"name":"ERC1155MissingApprovalForAll","type":"error"},{"inputs":[{"internalType":"address","name":"owner","type":"address"}],"name":"OwnableInvalidOwner","type":"error"},{"inputs":[{"internalType":"address","name":"account","type":"address"}],"name":"OwnableUnauthorizedAccount","type":"error"},{"inputs":[],"name":"ReentrancyGuardReentrantCall","type":"error"},{"anonymous":false,"inputs":[{"indexed":true,"internalType":"address","name":"account","type":"address"},{"indexed":true,"internalType":"address","name":"operator","type":"address"},{"indexed":false,"internalType":"bool","name":"approved","type":"bool"}],"name":"ApprovalForAll","type":"event"},{"anonymous":false,"inputs":[{"indexed":false,"internalType":"uint256","name":"totalUnitsKilled","type":"uint256"},{"indexed":false,"internalType":"uint256","name":"totalReaperKilled","type":"uint256"},{"indexed":false,"internalType":"uint256","name":"killAdded","type":"uint256"},{"indexed":false,"internalType":"uint256","name":"killExtracted","type":"uint256"},{"indexed":false,"internalType":"uint256","name":"killBurned","type":"uint256"}],"name":"GlobalStats","type":"event"},{"anonymous":false,"inputs":[{"indexed":true,"internalType":"address","name":"attacker","type":"address"},{"indexed":true,"internalType":"address","name":"target","type":"address"},{"indexed":true,"internalType":"uint16","name":"stackId","type":"uint16"},{"indexed":false,"internalType":"uint256","name":"attackerUnitsLost","type":"uint256"},{"indexed":false,"internalType":"uint256","name":"attackerReaperLost","type":"uint256"},{"indexed":false,"internalType":"uint256","name":"targetUnitsLost","type":"uint256"},{"indexed":false,"internalType":"uint256","name":"targetReaperLost","type":"uint256"},{"indexed":false,"internalType":"uint256","name":"netBounty","type":"uint256"},{"indexed":false,"internalType":"uint256","name":"targetBirthBlock","type":"uint256"}],"name":"Killed","type":"event"},{"anonymous":false,"inputs":[{"indexed":true,"internalType":"address","name":"agent","type":"address"},{"indexed":false,"internalType":"uint16","name":"fromStack","type":"uint16"},{"indexed":false,"internalType":"uint16","name":"toStack","type":"uint16"},{"indexed":false,"internalType":"uint256","name":"units","type":"uint256"},{"indexed":false,"internalType":"uint256","name":"reaper","type":"uint256"},{"indexed":false,"internalType":"uint256","name":"birthBlock","type":"uint256"}],"name":"Moved","type":"event"},{"anonymous":false,"inputs":[{"indexed":true,"internalType":"address","name":"previousOwner","type":"address"},{"indexed":true,"internalType":"address","name":"newOwner","type":"address"}],"name":"OwnershipTransferred","type":"event"},{"anonymous":false,"inputs":[{"indexed":true,"internalType":"address","name":"agent","type":"address"},{"indexed":true,"internalType":"uint256","name":"stackId","type":"uint256"},{"indexed":false,"internalType":"uint256","name":"units","type":"uint256"},{"indexed":false,"internalType":"uint256","name":"birthBlock","type":"uint256"}],"name":"Spawned","type":"event"},{"anonymous":false,"inputs":[{"indexed":true,"internalType":"address","name":"operator","type":"address"},{"indexed":true,"internalType":"address","name":"from","type":"address"},{"indexed":true,"internalType":"address","name":"to","type":"address"},{"indexed":false,"internalType":"uint256[]","name":"ids","type":"uint256[]"},{"indexed":false,"internalType":"uint256[]","name":"values","type":"uint256[]"}],"name":"TransferBatch","type":"event"},{"anonymous":false,"inputs":[{"indexed":true,"internalType":"address","name":"operator","type":"address"},{"indexed":true,"internalType":"address","name":"from","type":"address"},{"indexed":true,"internalType":"address","name":"to","type":"address"},{"indexed":false,"internalType":"uint256","name":"id","type":"uint256"},{"indexed":false,"internalType":"uint256","name":"value","type":"uint256"}],"name":"TransferSingle","type":"event"},{"anonymous":false,"inputs":[{"indexed":false,"internalType":"string","name":"value","type":"string"},{"indexed":true,"internalType":"uint256","name":"id","type":"uint256"}],"name":"URI","type":"event"},{"inputs":[],"name":"BURN_BPS","outputs":[{"internalType":"uint256","name":"","type":"uint256"}],"stateMutability":"view","type":"function"},{"inputs":[],"name":"BURN_OF_TREASURY_BPS","outputs":[{"internalType":"uint256","name":"","type":"uint256"}],"stateMutability":"view","type":"function"},{"inputs":[],"name":"MOVE_COST","outputs":[{"internalType":"uint256","name":"","type":"uint256"}],"stateMutability":"view","type":"function"},{"inputs":[],"name":"SENDER_BPS","outputs":[{"internalType":"uint256","name":"","type":"uint256"}],"stateMutability":"view","type":"function"},{"inputs":[],"name":"SPAWN_COST","outputs":[{"internalType":"uint256","name":"","type":"uint256"}],"stateMutability":"view","type":"function"},{"inputs":[],"name":"TREASURY_BPS","outputs":[{"internalType":"uint256","name":"","type":"uint256"}],"stateMutability":"view","type":"function"},{"inputs":[{"internalType":"uint256","name":"amt","type":"uint256"}],"name":"adminWithdraw","outputs":[],"stateMutability":"nonpayable","type":"function"},{"inputs":[{"internalType":"address","name":"","type":"address"},{"internalType":"uint256","name":"","type":"uint256"}],"name":"agentStacks","outputs":[{"internalType":"uint256","name":"birthBlock","type":"uint256"}],"stateMutability":"view","type":"function"},{"inputs":[{"internalType":"address","name":"account","type":"address"},{"internalType":"uint256","name":"id","type":"uint256"}],"name":"balanceOf","outputs":[{"internalType":"uint256","name":"","type":"uint256"}],"stateMutability":"view","type":"function"},{"inputs":[{"internalType":"address[]","name":"accounts","type":"address[]"},{"internalType":"uint256[]","name":"ids","type":"uint256[]"}],"name":"balanceOfBatch","outputs":[{"internalType":"uint256[]","name":"","type":"uint256[]"}],"stateMutability":"view","type":"function"},{"inputs":[{"internalType":"address","name":"agent","type":"address"},{"internalType":"uint256","name":"id","type":"uint256"}],"name":"getBirthBlock","outputs":[{"internalType":"uint256","name":"","type":"uint256"}],"stateMutability":"view","type":"function"},{"inputs":[{"internalType":"uint16","name":"stackId","type":"uint16"}],"name":"getFullStack","outputs":[{"components":[{"internalType":"address","name":"occupant","type":"address"},{"internalType":"uint256","name":"units","type":"uint256"},{"internalType":"uint256","name":"reapers","type":"uint256"},{"internalType":"uint256","name":"age","type":"uint256"},{"internalType":"uint256","name":"pendingBounty","type":"uint256"}],"internalType":"struct KILLGame.StackInfo[]","name":"","type":"tuple[]"}],"stateMutability":"view","type":"function"},{"inputs":[{"internalType":"address","name":"agent","type":"address"},{"internalType":"uint256","name":"id","type":"uint256"}],"name":"getPendingBounty","outputs":[{"internalType":"uint256","name":"","type":"uint256"}],"stateMutability":"view","type":"function"},{"inputs":[{"internalType":"address","name":"account","type":"address"},{"internalType":"address","name":"operator","type":"address"}],"name":"isApprovedForAll","outputs":[{"internalType":"bool","name":"","type":"bool"}],"stateMutability":"view","type":"function"},{"inputs":[{"internalType":"address","name":"target","type":"address"},{"internalType":"uint16","name":"stackId","type":"uint16"},{"internalType":"uint256","name":"sentUnits","type":"uint256"},{"internalType":"uint256","name":"sentReaper","type":"uint256"}],"name":"kill","outputs":[{"internalType":"uint256","name":"netBounty","type":"uint256"}],"stateMutability":"nonpayable","type":"function"},{"inputs":[],"name":"killToken","outputs":[{"internalType":"contract IERC20","name":"","type":"address"}],"stateMutability":"view","type":"function"},{"inputs":[{"internalType":"uint16","name":"fromStack","type":"uint16"},{"internalType":"uint16","name":"toStack","type":"uint16"},{"internalType":"uint256","name":"units","type":"uint256"},{"internalType":"uint256","name":"reaper","type":"uint256"}],"name":"move","outputs":[],"stateMutability":"nonpayable","type":"function"},{"inputs":[],"name":"owner","outputs":[{"internalType":"address","name":"","type":"address"}],"stateMutability":"view","type":"function"},{"inputs":[],"name":"renounceOwnership","outputs":[],"stateMutability":"nonpayable","type":"function"},{"inputs":[{"internalType":"address","name":"from","type":"address"},{"internalType":"address","name":"to","type":"address"},{"internalType":"uint256[]","name":"ids","type":"uint256[]"},{"internalType":"uint256[]","name":"values","type":"uint256[]"},{"internalType":"bytes","name":"data","type":"bytes"}],"name":"safeBatchTransferFrom","outputs":[],"stateMutability":"nonpayable","type":"function"},{"inputs":[{"internalType":"address","name":"from","type":"address"},{"internalType":"address","name":"to","type":"address"},{"internalType":"uint256","name":"id","type":"uint256"},{"internalType":"uint256","name":"value","type":"uint256"},{"internalType":"bytes","name":"data","type":"bytes"}],"name":"safeTransferFrom","outputs":[],"stateMutability":"nonpayable","type":"function"},{"inputs":[{"internalType":"address","name":"operator","type":"address"},{"internalType":"bool","name":"approved","type":"bool"}],"name":"setApprovalForAll","outputs":[],"stateMutability":"nonpayable","type":"function"},{"inputs":[{"internalType":"uint16","name":"stackId","type":"uint16"},{"internalType":"uint256","name":"amount","type":"uint256"}],"name":"spawn","outputs":[],"stateMutability":"nonpayable","type":"function"},{"inputs":[{"internalType":"bytes4","name":"id","type":"bytes4"}],"name":"supportsInterface","outputs":[{"internalType":"bool","name":"","type":"bool"}],"stateMutability":"view","type":"function"},{"inputs":[],"name":"totalKillBurned","outputs":[{"internalType":"uint256","name":"","type":"uint256"}],"stateMutability":"view","type":"function"},{"inputs":[],"name":"totalKillExtracted","outputs":[{"internalType":"uint256","name":"","type":"uint256"}],"stateMutability":"view","type":"function"},{"inputs":[],"name":"totalReaperKilled","outputs":[{"internalType":"uint256","name":"","type":"uint256"}],"stateMutability":"view","type":"function"},{"inputs":[],"name":"totalUnitsKilled","outputs":[{"internalType":"uint256","name":"","type":"uint256"}],"stateMutability":"view","type":"function"},{"inputs":[],"name":"totalUnitsMinted","outputs":[{"internalType":"uint256","name":"","type":"uint256"}],"stateMutability":"view","type":"function"},{"inputs":[{"internalType":"address","name":"newOwner","type":"address"}],"name":"transferOwnership","outputs":[],"stateMutability":"nonpayable","type":"function"},{"inputs":[],"name":"treasuryBalance","outputs":[{"internalType":"uint256","name":"","type":"uint256"}],"stateMutability":"view","type":"function"},{"inputs":[{"internalType":"uint256","name":"","type":"uint256"}],"name":"uri","outputs":[{"internalType":"string","name":"","type":"string"}],"stateMutability":"view","type":"function"}],"evm":{"bytecode":{"linkReferences":{},"object":"60a06040523480156200001157600080fd5b5060405162002f4e38038062002f4e833981016040819052620000349162000111565b336040518060600160405280602a815260200162002f24602a91396200005a81620000ad565b5060016003556001600160a01b0381166200008f57604051631e4fbdf760e01b81526000600482015260240160405180910390fd5b6200009a81620000bf565b506001600160a01b0316608052620002b6565b6002620000bb8282620001ea565b5050565b600480546001600160a01b038381166001600160a01b0319831681179093556040519116919082907f8be0079c531659141344cd1fd0a4f28419497f9722a3daafe3b4186f6b6457e090600090a35050565b6000602082840312156200012457600080fd5b81516001600160a01b03811681146200013c57600080fd5b9392505050565b634e487b7160e01b600052604160045260246000fd5b600181811c908216806200016e57607f821691505b6020821081036200018f57634e487b7160e01b600052602260045260246000fd5b50919050565b601f821115620001e5576000816000526020600020601f850160051c81016020861015620001c05750805b601f850160051c820191505b81811015620001e157828155600101620001cc565b5050505b505050565b81516001600160401b0381111562000206576200020662000143565b6200021e8162000217845462000159565b8462000195565b602080601f8311600181146200025657600084156200023d5750858301515b600019600386901b1c1916600185901b178555620001e1565b600085815260208120601f198616915b82811015620002875788860151825594840194600190910190840162000266565b5085821015620002a65787850151600019600388901b60f8161c191681555b5050505050600190811b01905550565b608051612c36620002ee60003960008181610289015281816105440152818161099201528181610fa7015261195e0152612c366000f3fe608060405234801561001057600080fd5b50600436106101ef5760003560e01c80637c5b4a371161010f578063c704c3f1116100a2578063edbd5df811610071578063edbd5df814610405578063ef0a131114610430578063f242432a14610450578063f2fde38b1461046357600080fd5b8063c704c3f114610374578063e74fe237146103cc578063e985e9c5146103df578063ea075ee1146103f257600080fd5b806394456848116100de5780639445684814610374578063a22cb46514610383578063a37a9fc01461023d578063b80113281461039657600080fd5b80637c5b4a371461033457806388b00adc146103475780638da5cb5b1461035057806391fa2a6a1461036157600080fd5b80632ee8174e116101875780634e1273f4116101565780634e1273f4146102fa5780635635fdbc1461031a578063715018a614610323578063781298821461032b57600080fd5b80632ee8174e146102d6578063313dab20146102df5780633b8726e2146102e85780634c25d197146102f157600080fd5b80630a08f3d0116101c35780630a08f3d01461025b5780630e89341c146102645780632bd7cd17146102845780632eb2c2d6146102c357600080fd5b8062fdd58e146101f457806301ffc9a71461021a578063081e87b91461023d57806309f6182614610246575b600080fd5b61020761020236600461237a565b610476565b6040519081526020015b60405180910390f35b61022d6102283660046123ba565b61049e565b6040519015158152602001610211565b61020761029a81565b6102596102543660046123e9565b6104a9565b005b61020760065481565b610277610272366004612405565b610792565b6040516102119190612464565b6102ab7f000000000000000000000000000000000000000000000000000000000000000081565b6040516001600160a01b039091168152602001610211565b6102596102d13660046125c1565b610826565b61020760085481565b61020760055481565b610207611d4c81565b6102076109c481565b61030d61030836600461266b565b61088d565b6040516102119190612767565b61020760095481565b61025961095a565b61020760075481565b610259610342366004612405565b61096e565b610207600a5481565b6004546001600160a01b03166102ab565b61020761036f36600461277a565b610a07565b610207678ac7230489e8000081565b6102596103913660046127ca565b610eb6565b6102076103a436600461237a565b6001600160a01b03919091166000908152600b60209081526040808320938352929052205490565b6102596103da366004612801565b610ec1565b61022d6103ed366004612820565b6111d9565b61020761040036600461237a565b611207565b61020761041336600461237a565b600b60209081526000928352604080842090915290825290205481565b61044361043e366004612853565b61128a565b604051610211919061286e565b61025961045e3660046128e5565b6115c3565b61025961047136600461294a565b611622565b6000818152602081815260408083206001600160a01b03861684529091529020545b92915050565b600061049882611660565b6104b16116b0565b60008261ffff161180156104ca575060d88261ffff1611155b61050b5760405162461bcd60e51b815260206004820152600d60248201526c496e76616c696420537461636b60981b60448201526064015b60405180910390fd5b600061051f678ac7230489e800008361297b565b6040516323b872dd60e01b8152336004820152306024820152604481018290529091507f00000000000000000000000000000000000000000000000000000000000000006001600160a01b0316906323b872dd906064016020604051808303816000875af1158015610595573d6000803e3d6000fd5b505050506040513d601f19601f820116820180604052508101906105b99190612992565b6105f05760405162461bcd60e51b815260206004820152600860248201526714185e4819985a5b60c21b6044820152606401610502565b600061271061060161029a8461297b565b61060b91906129c5565b9050600061061982846129d9565b9050806005600082825461062d91906129ec565b9250508190555081600a600082825461064691906129ec565b909155505060068054908590600061065e83856129ec565b909155506000905061067261029a836129c5565b61029a60065461068291906129c5565b61068c91906129d9565b9050600061069a82886129d9565b905080156106b1576106b1338961ffff16836116da565b81156106d0576106d0336106ca61ffff8b1660d86129ec565b846116da565b6040805188815243602082015261ffff8a169133917f21427a790373fad598033d2f191dd9fc550d58054a7f361c0af4895c351eeaf2910160405180910390a37f6b8aeaa3365d2dfcb9acc94f0a7429b657b4f2008cfafb9b10297011e077c650600754600854678ac7230489e8000060065461074d919061297b565b600954600a54604080519586526020860194909452928401919091526060830152608082015260a00160405180910390a150505050505061078e6001600355565b5050565b6060600280546107a1906129ff565b80601f01602080910402602001604051908101604052809291908181526020018280546107cd906129ff565b801561081a5780601f106107ef5761010080835404028352916020019161081a565b820191906000526020600020905b8154815290600101906020018083116107fd57829003601f168201915b50505050509050919050565b336001600160a01b0386168114801590610847575061084586826111d9565b155b156108785760405163711bec9160e11b81526001600160a01b03808316600483015287166024820152604401610502565b6108858686868686611792565b505050505050565b606081518351146108be5781518351604051635b05999160e01b815260048101929092526024820152604401610502565b6000835167ffffffffffffffff8111156108da576108da612477565b604051908082528060200260200182016040528015610903578160200160208202803683370190505b50905060005b84518110156109525760208082028601015161092d90602080840287010151610476565b82828151811061093f5761093f612a39565b6020908102919091010152600101610909565b509392505050565b6109626117f9565b61096c6000611826565b565b6109766117f9565b60405163a9059cbb60e01b8152336004820152602481018290527f00000000000000000000000000000000000000000000000000000000000000006001600160a01b03169063a9059cbb906044016020604051808303816000875af11580156109e3573d6000803e3d6000fd5b505050506040513d601f19601f8201168201806040525081019061078e9190612992565b6000610a116116b0565b61ffff84166000610a238260d86129ec565b905084610a303384610476565b10158015610a47575083610a443383610476565b10155b610a805760405162461bcd60e51b815260206004820152600a6024820152694c61636b20756e69747360b01b6044820152606401610502565b610aab6040518060800160405280600081526020016000815260200160008152602001600081525090565b6001600160a01b0388166000908152600b6020908152604080832086845290915281205490610adc8761029a61297b565b610ae690896129ec565b9050600080610af58c88610476565b90506000610b038d88610476565b90506001600160a01b038d163303610b2e57610b1f8b836129d9565b9150610b2b8a826129d9565b90505b6064610b3c8261029a61297b565b610b4690846129ec565b610b5190606e61297b565b610b5b91906129c5565b925082600003610b6a57600192505b6040860191909152606085015280821115610c2f57610b8a8b8787611878565b96506000600d600088815260200190815260200160002060008d6001600160a01b03166001600160a01b0316815260200190815260200160002060006101000a81548160ff0219169083151502179055506000600d600087815260200190815260200160002060008d6001600160a01b03166001600160a01b0316815260200190815260200160002060006101000a81548160ff021916908315150217905550610d51565b888452602084018890526000610c45838061297b565b90506000610c53838061297b565b905080828760400151610c66919061297b565b610c7091906129c5565b604087015260608601518190610c8790849061297b565b610c9191906129c5565b60608701526040860151600003610cf2576000600d60008a815260200190815260200160002060008f6001600160a01b03166001600160a01b0316815260200190815260200160002060006101000a81548160ff0219169083151502179055505b8560600151600003610d4e576000600d600089815260200190815260200160002060008f6001600160a01b03166001600160a01b0316815260200190815260200160002060006101000a81548160ff0219169083151502179055505b50505b610d5a84611a17565b604084015115610d7357610d738b878660400151611a6b565b606084015115610d8c57610d8c8b868660600151611a6b565b835115610da257610da233878660000151611a6b565b602084015115610dbb57610dbb33868660200151611a6b565b83516020808601516040808801516060808a0151835196875294860193909352908401528201526080810188905260a0810184905261ffff8b16906001600160a01b038d169033907fe8cf87740e16519b389a47fd487b7c8330c651cf9af2e1a698676cb488a8cd4e9060c00160405180910390a47f6b8aeaa3365d2dfcb9acc94f0a7429b657b4f2008cfafb9b10297011e077c650600754600854678ac7230489e80000600654610e6d919061297b565b600954600a54604080519586526020860194909452928401919091526060830152608082015260a00160405180910390a1505050505050610eae6001600355565b949350505050565b61078e338383611ad3565b610ec96116b0565b60008461ffff16118015610ee2575060d88461ffff1611155b610f1d5760405162461bcd60e51b815260206004820152600c60248201526b496e76616c69642046726f6d60a01b6044820152606401610502565b60008361ffff16118015610f36575060d88361ffff1611155b8015610f475750610f478484611b69565b610f7e5760405162461bcd60e51b8152602060048201526008602482015267426164206d6f766560c01b6044820152606401610502565b6040516323b872dd60e01b8152336004820152306024820152678ac7230489e8000060448201527f00000000000000000000000000000000000000000000000000000000000000006001600160a01b0316906323b872dd906064016020604051808303816000875af1158015610ff8573d6000803e3d6000fd5b505050506040513d601f19601f8201168201806040525081019061101c9190612992565b6110535760405162461bcd60e51b815260206004820152600860248201526714185e4819985a5b60c21b6044820152606401610502565b600061271061106c61029a678ac7230489e8000061297b565b61107691906129c5565b9050600061108c82678ac7230489e800006129d9565b905080600560008282546110a091906129ec565b9250508190555081600a60008282546110b991906129ec565b909155505083156110d7576110d78661ffff168661ffff1686611c95565b8215611104576111046110ef61ffff881660d86129ec565b6110fe61ffff881660d86129ec565b85611c95565b6040805161ffff8089168252871660208201529081018590526060810184905243608082015233907f377dc7145bd8ab426842504b448652c41dda00abb7f7c1df6bdfa40bd2a16f2c9060a00160405180910390a27f6b8aeaa3365d2dfcb9acc94f0a7429b657b4f2008cfafb9b10297011e077c650600754600854678ac7230489e80000600654611196919061297b565b600954600a54604080519586526020860194909452928401919091526060830152608082015260a00160405180910390a150506111d36001600355565b50505050565b6001600160a01b03918216600090815260016020908152604080832093909416825291909152205460ff1690565b6001600160a01b0382166000908152600b60209081526040808320848452909152812054810361123957506000610498565b6001600160a01b0383166000908152600b60209081526040808320858452909152902054620f42409061126c90436129d9565b600554611279919061297b565b61128391906129c5565b9392505050565b606061ffff8216600061129e8260d86129ec565b6000838152600c602090815260408083208054825181850281018501909352808352949550929390929183018282801561130157602002820191906000526020600020905b81546001600160a01b031681526001909101906020018083116112e3575b505050505090506000805b82518110156113d357600d6000868152602001908152602001600020600084838151811061133c5761133c612a39565b6020908102919091018101516001600160a01b031682528101919091526040016000205460ff16806113b85750600d6000858152602001908152602001600020600084838151811061139057611390612a39565b6020908102919091018101516001600160a01b031682528101919091526040016000205460ff165b156113cb57816113c781612a4f565b9250505b60010161130c565b5060008167ffffffffffffffff8111156113ef576113ef612477565b60405190808252806020026020018201604052801561145b57816020015b6114486040518060a0016040528060006001600160a01b03168152602001600081526020016000815260200160008152602001600081525090565b81526020019060019003908161140d5790505b5090506000805b84518110156115b657600085828151811061147f5761147f612a39565b60209081029190910181015160008a8152600d835260408082206001600160a01b0384168352909352919091205490915060ff16806114e057506000878152600d602090815260408083206001600160a01b038516845290915290205460ff165b156115ad5760006114f1828a610476565b905060006114ff838a610476565b6001600160a01b0384166000818152600b602090815260408083208f845282529182902054825160a081018452938452908301869052908201839052919250606081018261154e576000611558565b61155883436129d9565b8152602001611567868d611207565b611571878f611207565b61157b91906129ec565b81525087878151811061159057611590612a39565b602002602001018190525085806115a690612a4f565b9650505050505b50600101611462565b5090979650505050505050565b336001600160a01b03861681148015906115e457506115e286826111d9565b155b156116155760405163711bec9160e11b81526001600160a01b03808316600483015287166024820152604401610502565b6108858686868686611e03565b61162a6117f9565b6001600160a01b03811661165457604051631e4fbdf760e01b815260006004820152602401610502565b61165d81611826565b50565b60006001600160e01b03198216636cdb3d1360e11b148061169157506001600160e01b031982166303a24d0760e21b145b8061049857506301ffc9a760e01b6001600160e01b0319831614610498565b6002600354036116d357604051633ee5aeb560e01b815260040160405180910390fd5b6002600355565b6116f583838360405180602001604052806000815250611e91565b6001600160a01b0383166000818152600b602090815260408083208684528252808320439055600d8252808320938352929052205460ff1661178d576000828152600c602090815260408083208054600180820183559185528385200180546001600160a01b0319166001600160a01b038916908117909155868552600d8452828520908552909252909120805460ff191690911790555b505050565b6001600160a01b0384166117bc57604051632bfa23e760e11b815260006004820152602401610502565b6001600160a01b0385166117e557604051626a0d4560e21b815260006004820152602401610502565b6117f28585858585611eea565b5050505050565b6004546001600160a01b0316331461096c5760405163118cdaa760e01b8152336004820152602401610502565b600480546001600160a01b038381166001600160a01b0319831681179093556040519116919082907f8be0079c531659141344cd1fd0a4f28419497f9722a3daafe3b4186f6b6457e090600090a35050565b6000806118858584611207565b61188f8686611207565b61189991906129ec565b905060006127106118ac6109c48461297b565b6118b691906129c5565b905060006127106118c961029a8461297b565b6118d391906129c5565b90506127106118e4611d4c8561297b565b6118ee91906129c5565b93506118fa81856129ec565b6005600082825461190b91906129d9565b9250508190555080600a600082825461192491906129ec565b92505081905550836009600082825461193d91906129ec565b909155505060405163a9059cbb60e01b8152336004820152602481018590527f00000000000000000000000000000000000000000000000000000000000000006001600160a01b03169063a9059cbb906044016020604051808303816000875af11580156119af573d6000803e3d6000fd5b505050506040513d601f19601f820116820180604052508101906119d39190612992565b611a0d5760405162461bcd60e51b815260206004820152600b60248201526a14185e5bdd5d0819985a5b60aa1b6044820152606401610502565b5050509392505050565b60408101518151611a2891906129ec565b60076000828254611a3991906129ec565b909155505060608101516020820151611a5291906129ec565b60086000828254611a6391906129ec565b909155505050565b6001600160a01b038316611a9457604051626a0d4560e21b815260006004820152602401610502565b604080516001808252602082018590528183019081526060820184905260a082019092526000608082018181529192916117f291879185908590611eea565b6001600160a01b038216611afc5760405162ced3e160e81b815260006004820152602401610502565b6001600160a01b03838116600081815260016020908152604080832094871680845294825291829020805460ff191686151590811790915591519182527f17307eab39ab6107e8899845ad3d59bd9653f200f220920489ca2b5937696c31910160405180910390a3505050565b600080611b77600185612a68565b90506000611b86600185612a68565b90506000611b95600684612a8a565b905060006006611ba58186612aab565b611baf9190612a8a565b90506000611bbe602486612aab565b90506000611bcd600686612a8a565b905060006006611bdd8188612aab565b611be79190612a8a565b90506000611bf6602488612aab565b90508060010b8460010b13611c1457611c0f8482612acc565b611c1e565b611c1e8185612acc565b8260010b8660010b13611c3a57611c358684612acc565b611c44565b611c448387612acc565b8460010b8860010b13611c6057611c5b8886612acc565b611c6a565b611c6a8589612acc565b611c749190612aef565b611c7e9190612aef565b61ffff166001149850505050505050505092915050565b80611ca03385610476565b1015611ce35760405162461bcd60e51b8152602060048201526012602482015271496e73756666696369656e7420756e69747360701b6044820152606401610502565b611cee338483611a6b565b611cf83384610476565b600003611d31576000838152600d602090815260408083203384528252808320805460ff19169055600b82528083208684529091528120555b611d4c33838360405180602001604052806000815250611e91565b336000908152600b602090815260408083208584529091528120549003611d8b57336000908152600b6020908152604080832085845290915290204390555b6000828152600d6020908152604080832033845290915290205460ff1661178d576000828152600c602090815260408083208054600181810183559185528385200180546001600160a01b03191633908117909155868552600d8452828520908552909252909120805460ff19169091179055505050565b6001600160a01b038416611e2d57604051632bfa23e760e11b815260006004820152602401610502565b6001600160a01b038516611e5657604051626a0d4560e21b815260006004820152602401610502565b60408051600180825260208201869052818301908152606082018590526080820190925290611e888787848487611eea565b50505050505050565b6001600160a01b038416611ebb57604051632bfa23e760e11b815260006004820152602401610502565b604080516001808252602082018690528183019081526060820185905260808201909252906108856000878484875b611ef685858585611f3d565b6001600160a01b038416156117f25782513390600103611f2f5760208481015190840151611f28838989858589612151565b5050610885565b610885818787878787612275565b8051825114611f6c5781518151604051635b05999160e01b815260048101929092526024820152604401610502565b3360005b8351811015612072576020818102858101820151908501909101516001600160a01b03881615612023576000828152602081815260408083206001600160a01b038c16845290915290205481811015611ffc576040516303dee4c560e01b81526001600160a01b038a166004820152602481018290526044810183905260648101849052608401610502565b6000838152602081815260408083206001600160a01b038d16845290915290209082900390555b6001600160a01b03871615612068576000828152602081815260408083206001600160a01b038b168452909152812080548392906120629084906129ec565b90915550505b5050600101611f70565b5082516001036120f35760208301516000906020840151909150856001600160a01b0316876001600160a01b0316846001600160a01b03167fc3d58168c5ae7397731d063d5bbf3d657854427343f4c083240f7aacaa2d0f6285856040516120e4929190918252602082015260400190565b60405180910390a450506117f2565b836001600160a01b0316856001600160a01b0316826001600160a01b03167f4a39dc06d4c0dbc64b70af90fd698a233a518aa5d07e595d983b8c0526c8f7fb8686604051612142929190612b12565b60405180910390a45050505050565b6001600160a01b0384163b156108855760405163f23a6e6160e01b81526001600160a01b0385169063f23a6e61906121959089908990889088908890600401612b40565b6020604051808303816000875af19250505080156121d0575060408051601f3d908101601f191682019092526121cd91810190612b85565b60015b612239573d8080156121fe576040519150601f19603f3d011682016040523d82523d6000602084013e612203565b606091505b50805160000361223157604051632bfa23e760e11b81526001600160a01b0386166004820152602401610502565b805160208201fd5b6001600160e01b0319811663f23a6e6160e01b14611e8857604051632bfa23e760e11b81526001600160a01b0386166004820152602401610502565b6001600160a01b0384163b156108855760405163bc197c8160e01b81526001600160a01b0385169063bc197c81906122b99089908990889088908890600401612ba2565b6020604051808303816000875af19250505080156122f4575060408051601f3d908101601f191682019092526122f191810190612b85565b60015b612322573d8080156121fe576040519150601f19603f3d011682016040523d82523d6000602084013e612203565b6001600160e01b0319811663bc197c8160e01b14611e8857604051632bfa23e760e11b81526001600160a01b0386166004820152602401610502565b80356001600160a01b038116811461237557600080fd5b919050565b6000806040838503121561238d57600080fd5b6123968361235e565b946020939093013593505050565b6001600160e01b03198116811461165d57600080fd5b6000602082840312156123cc57600080fd5b8135611283816123a4565b803561ffff8116811461237557600080fd5b600080604083850312156123fc57600080fd5b612396836123d7565b60006020828403121561241757600080fd5b5035919050565b6000815180845260005b8181101561244457602081850181015186830182015201612428565b506000602082860101526020601f19601f83011685010191505092915050565b602081526000611283602083018461241e565b634e487b7160e01b600052604160045260246000fd5b604051601f8201601f1916810167ffffffffffffffff811182821017156124b6576124b6612477565b604052919050565b600067ffffffffffffffff8211156124d8576124d8612477565b5060051b60200190565b600082601f8301126124f357600080fd5b81356020612508612503836124be565b61248d565b8083825260208201915060208460051b87010193508684111561252a57600080fd5b602086015b84811015612546578035835291830191830161252f565b509695505050505050565b600082601f83011261256257600080fd5b813567ffffffffffffffff81111561257c5761257c612477565b61258f601f8201601f191660200161248d565b8181528460208386010111156125a457600080fd5b816020850160208301376000918101602001919091529392505050565b600080600080600060a086880312156125d957600080fd5b6125e28661235e565b94506125f06020870161235e565b9350604086013567ffffffffffffffff8082111561260d57600080fd5b61261989838a016124e2565b9450606088013591508082111561262f57600080fd5b61263b89838a016124e2565b9350608088013591508082111561265157600080fd5b5061265e88828901612551565b9150509295509295909350565b6000806040838503121561267e57600080fd5b823567ffffffffffffffff8082111561269657600080fd5b818501915085601f8301126126aa57600080fd5b813560206126ba612503836124be565b82815260059290921b840181019181810190898411156126d957600080fd5b948201945b838610156126fe576126ef8661235e565b825294820194908201906126de565b9650508601359250508082111561271457600080fd5b50612721858286016124e2565b9150509250929050565b60008151808452602080850194506020840160005b8381101561275c57815187529582019590820190600101612740565b509495945050505050565b602081526000611283602083018461272b565b6000806000806080858703121561279057600080fd5b6127998561235e565b93506127a7602086016123d7565b93969395505050506040820135916060013590565b801515811461165d57600080fd5b600080604083850312156127dd57600080fd5b6127e68361235e565b915060208301356127f6816127bc565b809150509250929050565b6000806000806080858703121561281757600080fd5b612799856123d7565b6000806040838503121561283357600080fd5b61283c8361235e565b915061284a6020840161235e565b90509250929050565b60006020828403121561286557600080fd5b611283826123d7565b602080825282518282018190526000919060409081850190868401855b828110156128d857815180516001600160a01b0316855286810151878601528581015186860152606080820151908601526080908101519085015260a0909301929085019060010161288b565b5091979650505050505050565b600080600080600060a086880312156128fd57600080fd5b6129068661235e565b94506129146020870161235e565b93506040860135925060608601359150608086013567ffffffffffffffff81111561293e57600080fd5b61265e88828901612551565b60006020828403121561295c57600080fd5b6112838261235e565b634e487b7160e01b600052601160045260246000fd5b808202811582820484141761049857610498612965565b6000602082840312156129a457600080fd5b8151611283816127bc565b634e487b7160e01b600052601260045260246000fd5b6000826129d4576129d46129af565b500490565b8181038181111561049857610498612965565b8082018082111561049857610498612965565b600181811c90821680612a1357607f821691505b602082108103612a3357634e487b7160e01b600052602260045260246000fd5b50919050565b634e487b7160e01b600052603260045260246000fd5b600060018201612a6157612a61612965565b5060010190565b61ffff828116828216039080821115612a8357612a83612965565b5092915050565b600061ffff80841680612a9f57612a9f6129af565b92169190910692915050565b600061ffff80841680612ac057612ac06129af565b92169190910492915050565b600182810b9082900b03617fff198112617fff8213171561049857610498612965565b600181810b9083900b01617fff8113617fff198212171561049857610498612965565b604081526000612b25604083018561272b565b8281036020840152612b37818561272b565b95945050505050565b6001600160a01b03868116825285166020820152604081018490526060810183905260a060808201819052600090612b7a9083018461241e565b979650505050505050565b600060208284031215612b9757600080fd5b8151611283816123a4565b6001600160a01b0386811682528516602082015260a060408201819052600090612bce9083018661272b565b8281036060840152612be0818661272b565b90508281036080840152612bf4818561241e565b9897505050505050505056fea26469706673582212207b120d6e946afdb28695c84b2248d7addcdb958689eb220b4f15b7cbe740d75d64736f6c6343000818003368747470733a2f2f6170692e6b696c6c67616d652e61692f6d657461646174612f7b69647d2e6a736f6e","opcodes":"PUSH1 0xA0 PUSH1 0x40 MSTORE CALLVALUE DUP1 ISZERO PUSH3 0x11 JUMPI PUSH1 0x0 DUP1 REVERT JUMPDEST POP PUSH1 0x40 MLOAD PUSH3 0x2F4E CODESIZE SUB DUP1 PUSH3 0x2F4E DUP4 CODECOPY DUP2 ADD PUSH1 0x40 DUP2 SWAP1 MSTORE PUSH3 0x34 SWAP2 PUSH3 0x111 JUMP JUMPDEST CALLER PUSH1 0x40 MLOAD DUP1 PUSH1 0x60 ADD PUSH1 0x40 MSTORE DUP1 PUSH1 0x2A DUP2 MSTORE PUSH1 0x20 ADD PUSH3 0x2F24 PUSH1 0x2A SWAP2 CODECOPY PUSH3 0x5A DUP2 PUSH3 0xAD JUMP JUMPDEST POP PUSH1 0x1 PUSH1 0x3 SSTORE PUSH1 0x1 PUSH1 0x1 PUSH1 0xA0 SHL SUB DUP2 AND PUSH3 0x8F JUMPI PUSH1 0x40 MLOAD PUSH4 0x1E4FBDF7 PUSH1 0xE0 SHL DUP2 MSTORE PUSH1 0x0 PUSH1 0x4 DUP3 ADD MSTORE PUSH1 0x24 ADD PUSH1 0x40 MLOAD DUP1 SWAP2 SUB SWAP1 REVERT JUMPDEST PUSH3 0x9A DUP2 PUSH3 0xBF JUMP JUMPDEST POP PUSH1 0x1 PUSH1 0x1 PUSH1 0xA0 SHL SUB AND PUSH1 0x80 MSTORE PUSH3 0x2B6 JUMP JUMPDEST PUSH1 0x2 PUSH3 0xBB DUP3 DUP3 PUSH3 0x1EA JUMP JUMPDEST POP POP JUMP JUMPDEST PUSH1 0x4 DUP1 SLOAD PUSH1 0x1 PUSH1 0x1 PUSH1 0xA0 SHL SUB DUP4 DUP2 AND PUSH1 0x1 PUSH1 0x1 PUSH1 0xA0 SHL SUB NOT DUP4 AND DUP2 OR SWAP1 SWAP4 SSTORE PUSH1 0x40 MLOAD SWAP2 AND SWAP2 SWAP1 DUP3 SWAP1 PUSH32 0x8BE0079C531659141344CD1FD0A4F28419497F9722A3DAAFE3B4186F6B6457E0 SWAP1 PUSH1 0x0 SWAP1 LOG3 POP POP JUMP JUMPDEST PUSH1 0x0 PUSH1 0x20 DUP3 DUP5 SUB SLT ISZERO PUSH3 0x124 JUMPI PUSH1 0x0 DUP1 REVERT JUMPDEST DUP2 MLOAD PUSH1 0x1 PUSH1 0x1 PUSH1 0xA0 SHL SUB DUP2 AND DUP2 EQ PUSH3 0x13C JUMPI PUSH1 0x0 DUP1 REVERT JUMPDEST SWAP4 SWAP3 POP POP POP JUMP JUMPDEST PUSH4 0x4E487B71 PUSH1 0xE0 SHL PUSH1 0x0 MSTORE PUSH1 0x41 PUSH1 0x4 MSTORE PUSH1 0x24 PUSH1 0x0 REVERT JUMPDEST PUSH1 0x1 DUP2 DUP2 SHR SWAP1 DUP3 AND DUP1 PUSH3 0x16E JUMPI PUSH1 0x7F DUP3 AND SWAP2 POP JUMPDEST PUSH1 0x20 DUP3 LT DUP2 SUB PUSH3 0x18F JUMPI PUSH4 0x4E487B71 PUSH1 0xE0 SHL PUSH1 0x0 MSTORE PUSH1 0x22 PUSH1 0x4 MSTORE PUSH1 0x24 PUSH1 0x0 REVERT JUMPDEST POP SWAP2 SWAP1 POP JUMP JUMPDEST PUSH1 0x1F DUP3 GT ISZERO PUSH3 0x1E5 JUMPI PUSH1 0x0 DUP2 PUSH1 0x0 MSTORE PUSH1 0x20 PUSH1 0x0 KECCAK256 PUSH1 0x1F DUP6 ADD PUSH1 0x5 SHR DUP2 ADD PUSH1 0x20 DUP7 LT ISZERO PUSH3 0x1C0 JUMPI POP DUP1 JUMPDEST PUSH1 0x1F DUP6 ADD PUSH1 0x5 SHR DUP3 ADD SWAP2 POP JUMPDEST DUP2 DUP2 LT ISZERO PUSH3 0x1E1 JUMPI DUP3 DUP2 SSTORE PUSH1 0x1 ADD PUSH3 0x1CC JUMP JUMPDEST POP POP POP JUMPDEST POP POP POP JUMP JUMPDEST DUP2 MLOAD PUSH1 0x1 PUSH1 0x1 PUSH1 0x40 SHL SUB DUP2 GT ISZERO PUSH3 0x206 JUMPI PUSH3 0x206 PUSH3 0x143 JUMP JUMPDEST PUSH3 0x21E DUP2 PUSH3 0x217 DUP5 SLOAD PUSH3 0x159 JUMP JUMPDEST DUP5 PUSH3 0x195 JUMP JUMPDEST PUSH1 0x20 DUP1 PUSH1 0x1F DUP4 GT PUSH1 0x1 DUP2 EQ PUSH3 0x256 JUMPI PUSH1 0x0 DUP5 ISZERO PUSH3 0x23D JUMPI POP DUP6 DUP4 ADD MLOAD JUMPDEST PUSH1 0x0 NOT PUSH1 0x3 DUP7 SWAP1 SHL SHR NOT AND PUSH1 0x1 DUP6 SWAP1 SHL OR DUP6 SSTORE PUSH3 0x1E1 JUMP JUMPDEST PUSH1 0x0 DUP6 DUP2 MSTORE PUSH1 0x20 DUP2 KECCAK256 PUSH1 0x1F NOT DUP7 AND SWAP2 JUMPDEST DUP3 DUP2 LT ISZERO PUSH3 0x287 JUMPI DUP9 DUP7 ADD MLOAD DUP3 SSTORE SWAP5 DUP5 ADD SWAP5 PUSH1 0x1 SWAP1 SWAP2 ADD SWAP1 DUP5 ADD PUSH3 0x266 JUMP JUMPDEST POP DUP6 DUP3 LT ISZERO PUSH3 0x2A6 JUMPI DUP8 DUP6 ADD MLOAD PUSH1 0x0 NOT PUSH1 0x3 DUP9 SWAP1 SHL PUSH1 0xF8 AND SHR NOT AND DUP2 SSTORE JUMPDEST POP POP POP POP POP PUSH1 0x1 SWAP1 DUP2 SHL ADD SWAP1 SSTORE POP JUMP JUMPDEST PUSH1 0x80 MLOAD PUSH2 0x2C36 PUSH3 0x2EE PUSH1 0x0 CODECOPY PUSH1 0x0 DUP2 DUP2 PUSH2 0x289 ADD MSTORE DUP2 DUP2 PUSH2 0x544 ADD MSTORE DUP2 DUP2 PUSH2 0x992 ADD MSTORE DUP2 DUP2 PUSH2 0xFA7 ADD MSTORE PUSH2 0x195E ADD MSTORE PUSH2 0x2C36 PUSH1 0x0 RETURN INVALID PUSH1 0x80 PUSH1 0x40 MSTORE CALLVALUE DUP1 ISZERO PUSH2 0x10 JUMPI PUSH1 0x0 DUP1 REVERT JUMPDEST POP PUSH1 0x4 CALLDATASIZE LT PUSH2 0x1EF JUMPI PUSH1 0x0 CALLDATALOAD PUSH1 0xE0 SHR DUP1 PUSH4 0x7C5B4A37 GT PUSH2 0x10F JUMPI DUP1 PUSH4 0xC704C3F1 GT PUSH2 0xA2 JUMPI DUP1 PUSH4 0xEDBD5DF8 GT PUSH2 0x71 JUMPI DUP1 PUSH4 0xEDBD5DF8 EQ PUSH2 0x405 JUMPI DUP1 PUSH4 0xEF0A1311 EQ PUSH2 0x430 JUMPI DUP1 PUSH4 0xF242432A EQ PUSH2 0x450 JUMPI DUP1 PUSH4 0xF2FDE38B EQ PUSH2 0x463 JUMPI PUSH1 0x0 DUP1 REVERT JUMPDEST DUP1 PUSH4 0xC704C3F1 EQ PUSH2 0x374 JUMPI DUP1 PUSH4 0xE74FE237 EQ PUSH2 0x3CC JUMPI DUP1 PUSH4 0xE985E9C5 EQ PUSH2 0x3DF JUMPI DUP1 PUSH4 0xEA075EE1 EQ PUSH2 0x3F2 JUMPI PUSH1 0x0 DUP1 REVERT JUMPDEST DUP1 PUSH4 0x94456848 GT PUSH2 0xDE JUMPI DUP1 PUSH4 0x94456848 EQ PUSH2 0x374 JUMPI DUP1 PUSH4 0xA22CB465 EQ PUSH2 0x383 JUMPI DUP1 PUSH4 0xA37A9FC0 EQ PUSH2 0x23D JUMPI DUP1 PUSH4 0xB8011328 EQ PUSH2 0x396 JUMPI PUSH1 0x0 DUP1 REVERT JUMPDEST DUP1 PUSH4 0x7C5B4A37 EQ PUSH2 0x334 JUMPI DUP1 PUSH4 0x88B00ADC EQ PUSH2 0x347 JUMPI DUP1 PUSH4 0x8DA5CB5B EQ PUSH2 0x350 JUMPI DUP1 PUSH4 0x91FA2A6A EQ PUSH2 0x361 JUMPI PUSH1 0x0 DUP1 REVERT JUMPDEST DUP1 PUSH4 0x2EE8174E GT PUSH2 0x187 JUMPI DUP1 PUSH4 0x4E1273F4 GT PUSH2 0x156 JUMPI DUP1 PUSH4 0x4E1273F4 EQ PUSH2 0x2FA JUMPI DUP1 PUSH4 0x5635FDBC EQ PUSH2 0x31A JUMPI DUP1 PUSH4 0x715018A6 EQ PUSH2 0x323 JUMPI DUP1 PUSH4 0x78129882 EQ PUSH2 0x32B JUMPI PUSH1 0x0 DUP1 REVERT JUMPDEST DUP1 PUSH4 0x2EE8174E EQ PUSH2 0x2D6 JUMPI DUP1 PUSH4 0x313DAB20 EQ PUSH2 0x2DF JUMPI DUP1 PUSH4 0x3B8726E2 EQ PUSH2 0x2E8 JUMPI DUP1 PUSH4 0x4C25D197 EQ PUSH2 0x2F1 JUMPI PUSH1 0x0 DUP1 REVERT JUMPDEST DUP1 PUSH4 0xA08F3D0 GT PUSH2 0x1C3 JUMPI DUP1 PUSH4 0xA08F3D0 EQ PUSH2 0x25B JUMPI DUP1 PUSH4 0xE89341C EQ PUSH2 0x264 JUMPI DUP1 PUSH4 0x2BD7CD17 EQ PUSH2 0x284 JUMPI DUP1 PUSH4 0x2EB2C2D6 EQ PUSH2 0x2C3 JUMPI PUSH1 0x0 DUP1 REVERT JUMPDEST DUP1 PUSH3 0xFDD58E EQ PUSH2 0x1F4 JUMPI DUP1 PUSH4 0x1FFC9A7 EQ PUSH2 0x21A JUMPI DUP1 PUSH4 0x81E87B9 EQ PUSH2 0x23D JUMPI DUP1 PUSH4 0x9F61826 EQ PUSH2 0x246 JUMPI JUMPDEST PUSH1 0x0 DUP1 REVERT JUMPDEST PUSH2 0x207 PUSH2 0x202 CALLDATASIZE PUSH1 0x4 PUSH2 0x237A JUMP JUMPDEST PUSH2 0x476 JUMP JUMPDEST PUSH1 0x40 MLOAD SWAP1 DUP2 MSTORE PUSH1 0x20 ADD JUMPDEST PUSH1 0x40 MLOAD DUP1 SWAP2 SUB SWAP1 RETURN JUMPDEST PUSH2 0x22D PUSH2 0x228 CALLDATASIZE PUSH1 0x4 PUSH2 0x23BA JUMP JUMPDEST PUSH2 0x49E JUMP JUMPDEST PUSH1 0x40 MLOAD SWAP1 ISZERO ISZERO DUP2 MSTORE PUSH1 0x20 ADD PUSH2 0x211 JUMP JUMPDEST PUSH2 0x207 PUSH2 0x29A DUP2 JUMP JUMPDEST PUSH2 0x259 PUSH2 0x254 CALLDATASIZE PUSH1 0x4 PUSH2 0x23E9 JUMP JUMPDEST PUSH2 0x4A9 JUMP JUMPDEST STOP JUMPDEST PUSH2 0x207 PUSH1 0x6 SLOAD DUP2 JUMP JUMPDEST PUSH2 0x277 PUSH2 0x272 CALLDATASIZE PUSH1 0x4 PUSH2 0x2405 JUMP JUMPDEST PUSH2 0x792 JUMP JUMPDEST PUSH1 0x40 MLOAD PUSH2 0x211 SWAP2 SWAP1 PUSH2 0x2464 JUMP JUMPDEST PUSH2 0x2AB PUSH32 0x0 DUP2 JUMP JUMPDEST PUSH1 0x40 MLOAD PUSH1 0x1 PUSH1 0x1 PUSH1 0xA0 SHL SUB SWAP1 SWAP2 AND DUP2 MSTORE PUSH1 0x20 ADD PUSH2 0x211 JUMP JUMPDEST PUSH2 0x259 PUSH2 0x2D1 CALLDATASIZE PUSH1 0x4 PUSH2 0x25C1 JUMP JUMPDEST PUSH2 0x826 JUMP JUMPDEST PUSH2 0x207 PUSH1 0x8 SLOAD DUP2 JUMP JUMPDEST PUSH2 0x207 PUSH1 0x5 SLOAD DUP2 JUMP JUMPDEST PUSH2 0x207 PUSH2 0x1D4C DUP2 JUMP JUMPDEST PUSH2 0x207 PUSH2 0x9C4 DUP2 JUMP JUMPDEST PUSH2 0x30D PUSH2 0x308 CALLDATASIZE PUSH1 0x4 PUSH2 0x266B JUMP JUMPDEST PUSH2 0x88D JUMP JUMPDEST PUSH1 0x40 MLOAD PUSH2 0x211 SWAP2 SWAP1 PUSH2 0x2767 JUMP JUMPDEST PUSH2 0x207 PUSH1 0x9 SLOAD DUP2 JUMP JUMPDEST PUSH2 0x259 PUSH2 0x95A JUMP JUMPDEST PUSH2 0x207 PUSH1 0x7 SLOAD DUP2 JUMP JUMPDEST PUSH2 0x259 PUSH2 0x342 CALLDATASIZE PUSH1 0x4 PUSH2 0x2405 JUMP JUMPDEST PUSH2 0x96E JUMP JUMPDEST PUSH2 0x207 PUSH1 0xA SLOAD DUP2 JUMP JUMPDEST PUSH1 0x4 SLOAD PUSH1 0x1 PUSH1 0x1 PUSH1 0xA0 SHL SUB AND PUSH2 0x2AB JUMP JUMPDEST PUSH2 0x207 PUSH2 0x36F CALLDATASIZE PUSH1 0x4 PUSH2 0x277A JUMP JUMPDEST PUSH2 0xA07 JUMP JUMPDEST PUSH2 0x207 PUSH8 0x8AC7230489E80000 DUP2 JUMP JUMPDEST PUSH2 0x259 PUSH2 0x391 CALLDATASIZE PUSH1 0x4 PUSH2 0x27CA JUMP JUMPDEST PUSH2 0xEB6 JUMP JUMPDEST PUSH2 0x207 PUSH2 0x3A4 CALLDATASIZE PUSH1 0x4 PUSH2 0x237A JUMP JUMPDEST PUSH1 0x1 PUSH1 0x1 PUSH1 0xA0 SHL SUB SWAP2 SWAP1 SWAP2 AND PUSH1 0x0 SWAP1 DUP2 MSTORE PUSH1 0xB PUSH1 0x20 SWAP1 DUP2 MSTORE PUSH1 0x40 DUP1 DUP4 KECCAK256 SWAP4 DUP4 MSTORE SWAP3 SWAP1 MSTORE KECCAK256 SLOAD SWAP1 JUMP JUMPDEST PUSH2 0x259 PUSH2 0x3DA CALLDATASIZE PUSH1 0x4 PUSH2 0x2801 JUMP JUMPDEST PUSH2 0xEC1 JUMP JUMPDEST PUSH2 0x22D PUSH2 0x3ED CALLDATASIZE PUSH1 0x4 PUSH2 0x2820 JUMP JUMPDEST PUSH2 0x11D9 JUMP JUMPDEST PUSH2 0x207 PUSH2 0x400 CALLDATASIZE PUSH1 0x4 PUSH2 0x237A JUMP JUMPDEST PUSH2 0x1207 JUMP JUMPDEST PUSH2 0x207 PUSH2 0x413 CALLDATASIZE PUSH1 0x4 PUSH2 0x237A JUMP JUMPDEST PUSH1 0xB PUSH1 0x20 SWAP1 DUP2 MSTORE PUSH1 0x0 SWAP3 DUP4 MSTORE PUSH1 0x40 DUP1 DUP5 KECCAK256 SWAP1 SWAP2 MSTORE SWAP1 DUP3 MSTORE SWAP1 KECCAK256 SLOAD DUP2 JUMP JUMPDEST PUSH2 0x443 PUSH2 0x43E CALLDATASIZE PUSH1 0x4 PUSH2 0x2853 JUMP JUMPDEST PUSH2 0x128A JUMP JUMPDEST PUSH1 0x40 MLOAD PUSH2 0x211 SWAP2 SWAP1 PUSH2 0x286E JUMP JUMPDEST PUSH2 0x259 PUSH2 0x45E CALLDATASIZE PUSH1 0x4 PUSH2 0x28E5 JUMP JUMPDEST PUSH2 0x15C3 JUMP JUMPDEST PUSH2 0x259 PUSH2 0x471 CALLDATASIZE PUSH1 0x4 PUSH2 0x294A JUMP JUMPDEST PUSH2 0x1622 JUMP JUMPDEST PUSH1 0x0 DUP2 DUP2 MSTORE PUSH1 0x20 DUP2 DUP2 MSTORE PUSH1 0x40 DUP1 DUP4 KECCAK256 PUSH1 0x1 PUSH1 0x1 PUSH1 0xA0 SHL SUB DUP7 AND DUP5 MSTORE SWAP1 SWAP2 MSTORE SWAP1 KECCAK256 SLOAD JUMPDEST SWAP3 SWAP2 POP POP JUMP JUMPDEST PUSH1 0x0 PUSH2 0x498 DUP3 PUSH2 0x1660 JUMP JUMPDEST PUSH2 0x4B1 PUSH2 0x16B0 JUMP JUMPDEST PUSH1 0x0 DUP3 PUSH2 0xFFFF AND GT DUP1 ISZERO PUSH2 0x4CA JUMPI POP PUSH1 0xD8 DUP3 PUSH2 0xFFFF AND GT ISZERO JUMPDEST PUSH2 0x50B JUMPI PUSH1 0x40 MLOAD PUSH3 0x461BCD PUSH1 0xE5 SHL DUP2 MSTORE PUSH1 0x20 PUSH1 0x4 DUP3 ADD MSTORE PUSH1 0xD PUSH1 0x24 DUP3 ADD MSTORE PUSH13 0x496E76616C696420537461636B PUSH1 0x98 SHL PUSH1 0x44 DUP3 ADD MSTORE PUSH1 0x64 ADD JUMPDEST PUSH1 0x40 MLOAD DUP1 SWAP2 SUB SWAP1 REVERT JUMPDEST PUSH1 0x0 PUSH2 0x51F PUSH8 0x8AC7230489E80000 DUP4 PUSH2 0x297B JUMP JUMPDEST PUSH1 0x40 MLOAD PUSH4 0x23B872DD PUSH1 0xE0 SHL DUP2 MSTORE CALLER PUSH1 0x4 DUP3 ADD MSTORE ADDRESS PUSH1 0x24 DUP3 ADD MSTORE PUSH1 0x44 DUP2 ADD DUP3 SWAP1 MSTORE SWAP1 SWAP2 POP PUSH32 0x0 PUSH1 0x1 PUSH1 0x1 PUSH1 0xA0 SHL SUB AND SWAP1 PUSH4 0x23B872DD SWAP1 PUSH1 0x64 ADD PUSH1 0x20 PUSH1 0x40 MLOAD DUP1 DUP4 SUB DUP2 PUSH1 0x0 DUP8 GAS CALL ISZERO DUP1 ISZERO PUSH2 0x595 JUMPI RETURNDATASIZE PUSH1 0x0 DUP1 RETURNDATACOPY RETURNDATASIZE PUSH1 0x0 REVERT JUMPDEST POP POP POP POP PUSH1 0x40 MLOAD RETURNDATASIZE PUSH1 0x1F NOT PUSH1 0x1F DUP3 ADD AND DUP3 ADD DUP1 PUSH1 0x40 MSTORE POP DUP2 ADD SWAP1 PUSH2 0x5B9 SWAP2 SWAP1 PUSH2 0x2992 JUMP JUMPDEST PUSH2 0x5F0 JUMPI PUSH1 0x40 MLOAD PUSH3 0x461BCD PUSH1 0xE5 SHL DUP2 MSTORE PUSH1 0x20 PUSH1 0x4 DUP3 ADD MSTORE PUSH1 0x8 PUSH1 0x24 DUP3 ADD MSTORE PUSH8 0x14185E4819985A5B PUSH1 0xC2 SHL PUSH1 0x44 DUP3 ADD MSTORE PUSH1 0x64 ADD PUSH2 0x502 JUMP JUMPDEST PUSH1 0x0 PUSH2 0x2710 PUSH2 0x601 PUSH2 0x29A DUP5 PUSH2 0x297B JUMP JUMPDEST PUSH2 0x60B SWAP2 SWAP1 PUSH2 0x29C5 JUMP JUMPDEST SWAP1 POP PUSH1 0x0 PUSH2 0x619 DUP3 DUP5 PUSH2 0x29D9 JUMP JUMPDEST SWAP1 POP DUP1 PUSH1 0x5 PUSH1 0x0 DUP3 DUP3 SLOAD PUSH2 0x62D SWAP2 SWAP1 PUSH2 0x29EC JUMP JUMPDEST SWAP3 POP POP DUP2 SWAP1 SSTORE POP DUP2 PUSH1 0xA PUSH1 0x0 DUP3 DUP3 SLOAD PUSH2 0x646 SWAP2 SWAP1 PUSH2 0x29EC JUMP JUMPDEST SWAP1 SWAP2 SSTORE POP POP PUSH1 0x6 DUP1 SLOAD SWAP1 DUP6 SWAP1 PUSH1 0x0 PUSH2 0x65E DUP4 DUP6 PUSH2 0x29EC JUMP JUMPDEST SWAP1 SWAP2 SSTORE POP PUSH1 0x0 SWAP1 POP PUSH2 0x672 PUSH2 0x29A DUP4 PUSH2 0x29C5 JUMP JUMPDEST PUSH2 0x29A PUSH1 0x6 SLOAD PUSH2 0x682 SWAP2 SWAP1 PUSH2 0x29C5 JUMP JUMPDEST PUSH2 0x68C SWAP2 SWAP1 PUSH2 0x29D9 JUMP JUMPDEST SWAP1 POP PUSH1 0x0 PUSH2 0x69A DUP3 DUP9 PUSH2 0x29D9 JUMP JUMPDEST SWAP1 POP DUP1 ISZERO PUSH2 0x6B1 JUMPI PUSH2 0x6B1 CALLER DUP10 PUSH2 0xFFFF AND DUP4 PUSH2 0x16DA JUMP JUMPDEST DUP2 ISZERO PUSH2 0x6D0 JUMPI PUSH2 0x6D0 CALLER PUSH2 0x6CA PUSH2 0xFFFF DUP12 AND PUSH1 0xD8 PUSH2 0x29EC JUMP JUMPDEST DUP5 PUSH2 0x16DA JUMP JUMPDEST PUSH1 0x40 DUP1 MLOAD DUP9 DUP2 MSTORE NUMBER PUSH1 0x20 DUP3 ADD MSTORE PUSH2 0xFFFF DUP11 AND SWAP2 CALLER SWAP2 PUSH32 0x21427A790373FAD598033D2F191DD9FC550D58054A7F361C0AF4895C351EEAF2 SWAP2 ADD PUSH1 0x40 MLOAD DUP1 SWAP2 SUB SWAP1 LOG3 PUSH32 0x6B8AEAA3365D2DFCB9ACC94F0A7429B657B4F2008CFAFB9B10297011E077C650 PUSH1 0x7 SLOAD PUSH1 0x8 SLOAD PUSH8 0x8AC7230489E80000 PUSH1 0x6 SLOAD PUSH2 0x74D SWAP2 SWAP1 PUSH2 0x297B JUMP JUMPDEST PUSH1 0x9 SLOAD PUSH1 0xA SLOAD PUSH1 0x40 DUP1 MLOAD SWAP6 DUP7 MSTORE PUSH1 0x20 DUP7 ADD SWAP5 SWAP1 SWAP5 MSTORE SWAP3 DUP5 ADD SWAP2 SWAP1 SWAP2 MSTORE PUSH1 0x60 DUP4 ADD MSTORE PUSH1 0x80 DUP3 ADD MSTORE PUSH1 0xA0 ADD PUSH1 0x40 MLOAD DUP1 SWAP2 SUB SWAP1 LOG1 POP POP POP POP POP POP PUSH2 0x78E PUSH1 0x1 PUSH1 0x3 SSTORE JUMP JUMPDEST POP POP JUMP JUMPDEST PUSH1 0x60 PUSH1 0x2 DUP1 SLOAD PUSH2 0x7A1 SWAP1 PUSH2 0x29FF JUMP JUMPDEST DUP1 PUSH1 0x1F ADD PUSH1 0x20 DUP1 SWAP2 DIV MUL PUSH1 0x20 ADD PUSH1 0x40 MLOAD SWAP1 DUP2 ADD PUSH1 0x40 MSTORE DUP1 SWAP3 SWAP2 SWAP1 DUP2 DUP2 MSTORE PUSH1 0x20 ADD DUP3 DUP1 SLOAD PUSH2 0x7CD SWAP1 PUSH2 0x29FF JUMP JUMPDEST DUP1 ISZERO PUSH2 0x81A JUMPI DUP1 PUSH1 0x1F LT PUSH2 0x7EF JUMPI PUSH2 0x100 DUP1 DUP4 SLOAD DIV MUL DUP4 MSTORE SWAP2 PUSH1 0x20 ADD SWAP2 PUSH2 0x81A JUMP JUMPDEST DUP3 ADD SWAP2 SWAP1 PUSH1 0x0 MSTORE PUSH1 0x20 PUSH1 0x0 KECCAK256 SWAP1 JUMPDEST DUP2 SLOAD DUP2 MSTORE SWAP1 PUSH1 0x1 ADD SWAP1 PUSH1 0x20 ADD DUP1 DUP4 GT PUSH2 0x7FD JUMPI DUP3 SWAP1 SUB PUSH1 0x1F AND DUP3 ADD SWAP2 JUMPDEST POP POP POP POP POP SWAP1 POP SWAP2 SWAP1 POP JUMP JUMPDEST CALLER PUSH1 0x1 PUSH1 0x1 PUSH1 0xA0 SHL SUB DUP7 AND DUP2 EQ DUP1 ISZERO SWAP1 PUSH2 0x847 JUMPI POP PUSH2 0x845 DUP7 DUP3 PUSH2 0x11D9 JUMP JUMPDEST ISZERO JUMPDEST ISZERO PUSH2 0x878 JUMPI PUSH1 0x40 MLOAD PUSH4 0x711BEC91 PUSH1 0xE1 SHL DUP2 MSTORE PUSH1 0x1 PUSH1 0x1 PUSH1 0xA0 SHL SUB DUP1 DUP4 AND PUSH1 0x4 DUP4 ADD MSTORE DUP8 AND PUSH1 0x24 DUP3 ADD MSTORE PUSH1 0x44 ADD PUSH2 0x502 JUMP JUMPDEST PUSH2 0x885 DUP7 DUP7 DUP7 DUP7 DUP7 PUSH2 0x1792 JUMP JUMPDEST POP POP POP POP POP POP JUMP JUMPDEST PUSH1 0x60 DUP2 MLOAD DUP4 MLOAD EQ PUSH2 0x8BE JUMPI DUP2 MLOAD DUP4 MLOAD PUSH1 0x40 MLOAD PUSH4 0x5B059991 PUSH1 0xE0 SHL DUP2 MSTORE PUSH1 0x4 DUP2 ADD SWAP3 SWAP1 SWAP3 MSTORE PUSH1 0x24 DUP3 ADD MSTORE PUSH1 0x44 ADD PUSH2 0x502 JUMP JUMPDEST PUSH1 0x0 DUP4 MLOAD PUSH8 0xFFFFFFFFFFFFFFFF DUP2 GT ISZERO PUSH2 0x8DA JUMPI PUSH2 0x8DA PUSH2 0x2477 JUMP JUMPDEST PUSH1 0x40 MLOAD SWAP1 DUP1 DUP3 MSTORE DUP1 PUSH1 0x20 MUL PUSH1 0x20 ADD DUP3 ADD PUSH1 0x40 MSTORE DUP1 ISZERO PUSH2 0x903 JUMPI DUP2 PUSH1 0x20 ADD PUSH1 0x20 DUP3 MUL DUP1 CALLDATASIZE DUP4 CALLDATACOPY ADD SWAP1 POP JUMPDEST POP SWAP1 POP PUSH1 0x0 JUMPDEST DUP5 MLOAD DUP2 LT ISZERO PUSH2 0x952 JUMPI PUSH1 0x20 DUP1 DUP3 MUL DUP7 ADD ADD MLOAD PUSH2 0x92D SWAP1 PUSH1 0x20 DUP1 DUP5 MUL DUP8 ADD ADD MLOAD PUSH2 0x476 JUMP JUMPDEST DUP3 DUP3 DUP2 MLOAD DUP2 LT PUSH2 0x93F JUMPI PUSH2 0x93F PUSH2 0x2A39 JUMP JUMPDEST PUSH1 0x20 SWAP1 DUP2 MUL SWAP2 SWAP1 SWAP2 ADD ADD MSTORE PUSH1 0x1 ADD PUSH2 0x909 JUMP JUMPDEST POP SWAP4 SWAP3 POP POP POP JUMP JUMPDEST PUSH2 0x962 PUSH2 0x17F9 JUMP JUMPDEST PUSH2 0x96C PUSH1 0x0 PUSH2 0x1826 JUMP JUMPDEST JUMP JUMPDEST PUSH2 0x976 PUSH2 0x17F9 JUMP JUMPDEST PUSH1 0x40 MLOAD PUSH4 0xA9059CBB PUSH1 0xE0 SHL DUP2 MSTORE CALLER PUSH1 0x4 DUP3 ADD MSTORE PUSH1 0x24 DUP2 ADD DUP3 SWAP1 MSTORE PUSH32 0x0 PUSH1 0x1 PUSH1 0x1 PUSH1 0xA0 SHL SUB AND SWAP1 PUSH4 0xA9059CBB SWAP1 PUSH1 0x44 ADD PUSH1 0x20 PUSH1 0x40 MLOAD DUP1 DUP4 SUB DUP2 PUSH1 0x0 DUP8 GAS CALL ISZERO DUP1 ISZERO PUSH2 0x9E3 JUMPI RETURNDATASIZE PUSH1 0x0 DUP1 RETURNDATACOPY RETURNDATASIZE PUSH1 0x0 REVERT JUMPDEST POP POP POP POP PUSH1 0x40 MLOAD RETURNDATASIZE PUSH1 0x1F NOT PUSH1 0x1F DUP3 ADD AND DUP3 ADD DUP1 PUSH1 0x40 MSTORE POP DUP2 ADD SWAP1 PUSH2 0x78E SWAP2 SWAP1 PUSH2 0x2992 JUMP JUMPDEST PUSH1 0x0 PUSH2 0xA11 PUSH2 0x16B0 JUMP JUMPDEST PUSH2 0xFFFF DUP5 AND PUSH1 0x0 PUSH2 0xA23 DUP3 PUSH1 0xD8 PUSH2 0x29EC JUMP JUMPDEST SWAP1 POP DUP5 PUSH2 0xA30 CALLER DUP5 PUSH2 0x476 JUMP JUMPDEST LT ISZERO DUP1 ISZERO PUSH2 0xA47 JUMPI POP DUP4 PUSH2 0xA44 CALLER DUP4 PUSH2 0x476 JUMP JUMPDEST LT ISZERO JUMPDEST PUSH2 0xA80 JUMPI PUSH1 0x40 MLOAD PUSH3 0x461BCD PUSH1 0xE5 SHL DUP2 MSTORE PUSH1 0x20 PUSH1 0x4 DUP3 ADD MSTORE PUSH1 0xA PUSH1 0x24 DUP3 ADD MSTORE PUSH10 0x4C61636B20756E697473 PUSH1 0xB0 SHL PUSH1 0x44 DUP3 ADD MSTORE PUSH1 0x64 ADD PUSH2 0x502 JUMP JUMPDEST PUSH2 0xAAB PUSH1 0x40 MLOAD DUP1 PUSH1 0x80 ADD PUSH1 0x40 MSTORE DUP1 PUSH1 0x0 DUP2 MSTORE PUSH1 0x20 ADD PUSH1 0x0 DUP2 MSTORE PUSH1 0x20 ADD PUSH1 0x0 DUP2 MSTORE PUSH1 0x20 ADD PUSH1 0x0 DUP2 MSTORE POP SWAP1 JUMP JUMPDEST PUSH1 0x1 PUSH1 0x1 PUSH1 0xA0 SHL SUB DUP9 AND PUSH1 0x0 SWAP1 DUP2 MSTORE PUSH1 0xB PUSH1 0x20 SWAP1 DUP2 MSTORE PUSH1 0x40 DUP1 DUP4 KECCAK256 DUP7 DUP5 MSTORE SWAP1 SWAP2 MSTORE DUP2 KECCAK256 SLOAD SWAP1 PUSH2 0xADC DUP8 PUSH2 0x29A PUSH2 0x297B JUMP JUMPDEST PUSH2 0xAE6 SWAP1 DUP10 PUSH2 0x29EC JUMP JUMPDEST SWAP1 POP PUSH1 0x0 DUP1 PUSH2 0xAF5 DUP13 DUP9 PUSH2 0x476 JUMP JUMPDEST SWAP1 POP PUSH1 0x0 PUSH2 0xB03 DUP14 DUP9 PUSH2 0x476 JUMP JUMPDEST SWAP1 POP PUSH1 0x1 PUSH1 0x1 PUSH1 0xA0 SHL SUB DUP14 AND CALLER SUB PUSH2 0xB2E JUMPI PUSH2 0xB1F DUP12 DUP4 PUSH2 0x29D9 JUMP JUMPDEST SWAP2 POP PUSH2 0xB2B DUP11 DUP3 PUSH2 0x29D9 JUMP JUMPDEST SWAP1 POP JUMPDEST PUSH1 0x64 PUSH2 0xB3C DUP3 PUSH2 0x29A PUSH2 0x297B JUMP JUMPDEST PUSH2 0xB46 SWAP1 DUP5 PUSH2 0x29EC JUMP JUMPDEST PUSH2 0xB51 SWAP1 PUSH1 0x6E PUSH2 0x297B JUMP JUMPDEST PUSH2 0xB5B SWAP2 SWAP1 PUSH2 0x29C5 JUMP JUMPDEST SWAP3 POP DUP3 PUSH1 0x0 SUB PUSH2 0xB6A JUMPI PUSH1 0x1 SWAP3 POP JUMPDEST PUSH1 0x40 DUP7 ADD SWAP2 SWAP1 SWAP2 MSTORE PUSH1 0x60 DUP6 ADD MSTORE DUP1 DUP3 GT ISZERO PUSH2 0xC2F JUMPI PUSH2 0xB8A DUP12 DUP8 DUP8 PUSH2 0x1878 JUMP JUMPDEST SWAP7 POP PUSH1 0x0 PUSH1 0xD PUSH1 0x0 DUP9 DUP2 MSTORE PUSH1 0x20 ADD SWAP1 DUP2 MSTORE PUSH1 0x20 ADD PUSH1 0x0 KECCAK256 PUSH1 0x0 DUP14 PUSH1 0x1 PUSH1 0x1 PUSH1 0xA0 SHL SUB AND PUSH1 0x1 PUSH1 0x1 PUSH1 0xA0 SHL SUB AND DUP2 MSTORE PUSH1 0x20 ADD SWAP1 DUP2 MSTORE PUSH1 0x20 ADD PUSH1 0x0 KECCAK256 PUSH1 0x0 PUSH2 0x100 EXP DUP2 SLOAD DUP2 PUSH1 0xFF MUL NOT AND SWAP1 DUP4 ISZERO ISZERO MUL OR SWAP1 SSTORE POP PUSH1 0x0 PUSH1 0xD PUSH1 0x0 DUP8 DUP2 MSTORE PUSH1 0x20 ADD SWAP1 DUP2 MSTORE PUSH1 0x20 ADD PUSH1 0x0 KECCAK256 PUSH1 0x0 DUP14 PUSH1 0x1 PUSH1 0x1 PUSH1 0xA0 SHL SUB AND PUSH1 0x1 PUSH1 0x1 PUSH1 0xA0 SHL SUB AND DUP2 MSTORE PUSH1 0x20 ADD SWAP1 DUP2 MSTORE PUSH1 0x20 ADD PUSH1 0x0 KECCAK256 PUSH1 0x0 PUSH2 0x100 EXP DUP2 SLOAD DUP2 PUSH1 0xFF MUL NOT AND SWAP1 DUP4 ISZERO ISZERO MUL OR SWAP1 SSTORE POP PUSH2 0xD51 JUMP JUMPDEST DUP9 DUP5 MSTORE PUSH1 0x20 DUP5 ADD DUP9 SWAP1 MSTORE PUSH1 0x0 PUSH2 0xC45 DUP4 DUP1 PUSH2 0x297B JUMP JUMPDEST SWAP1 POP PUSH1 0x0 PUSH2 0xC53 DUP4 DUP1 PUSH2 0x297B JUMP JUMPDEST SWAP1 POP DUP1 DUP3 DUP8 PUSH1 0x40 ADD MLOAD PUSH2 0xC66 SWAP2 SWAP1 PUSH2 0x297B JUMP JUMPDEST PUSH2 0xC70 SWAP2 SWAP1 PUSH2 0x29C5 JUMP JUMPDEST PUSH1 0x40 DUP8 ADD MSTORE PUSH1 0x60 DUP7 ADD MLOAD DUP2 SWAP1 PUSH2 0xC87 SWAP1 DUP5 SWAP1 PUSH2 0x297B JUMP JUMPDEST PUSH2 0xC91 SWAP2 SWAP1 PUSH2 0x29C5 JUMP JUMPDEST PUSH1 0x60 DUP8 ADD MSTORE PUSH1 0x40 DUP7 ADD MLOAD PUSH1 0x0 SUB PUSH2 0xCF2 JUMPI PUSH1 0x0 PUSH1 0xD PUSH1 0x0 DUP11 DUP2 MSTORE PUSH1 0x20 ADD SWAP1 DUP2 MSTORE PUSH1 0x20 ADD PUSH1 0x0 KECCAK256 PUSH1 0x0 DUP16 PUSH1 0x1 PUSH1 0x1 PUSH1 0xA0 SHL SUB AND PUSH1 0x1 PUSH1 0x1 PUSH1 0xA0 SHL SUB AND DUP2 MSTORE PUSH1 0x20 ADD SWAP1 DUP2 MSTORE PUSH1 0x20 ADD PUSH1 0x0 KECCAK256 PUSH1 0x0 PUSH2 0x100 EXP DUP2 SLOAD DUP2 PUSH1 0xFF MUL NOT AND SWAP1 DUP4 ISZERO ISZERO MUL OR SWAP1 SSTORE POP JUMPDEST DUP6 PUSH1 0x60 ADD MLOAD PUSH1 0x0 SUB PUSH2 0xD4E JUMPI PUSH1 0x0 PUSH1 0xD PUSH1 0x0 DUP10 DUP2 MSTORE PUSH1 0x20 ADD SWAP1 DUP2 MSTORE PUSH1 0x20 ADD PUSH1 0x0 KECCAK256 PUSH1 0x0 DUP16 PUSH1 0x1 PUSH1 0x1 PUSH1 0xA0 SHL SUB AND PUSH1 0x1 PUSH1 0x1 PUSH1 0xA0 SHL SUB AND DUP2 MSTORE PUSH1 0x20 ADD SWAP1 DUP2 MSTORE PUSH1 0x20 ADD PUSH1 0x0 KECCAK256 PUSH1 0x0 PUSH2 0x100 EXP DUP2 SLOAD DUP2 PUSH1 0xFF MUL NOT AND SWAP1 DUP4 ISZERO ISZERO MUL OR SWAP1 SSTORE POP JUMPDEST POP POP JUMPDEST PUSH2 0xD5A DUP5 PUSH2 0x1A17 JUMP JUMPDEST PUSH1 0x40 DUP5 ADD MLOAD ISZERO PUSH2 0xD73 JUMPI PUSH2 0xD73 DUP12 DUP8 DUP7 PUSH1 0x40 ADD MLOAD PUSH2 0x1A6B JUMP JUMPDEST PUSH1 0x60 DUP5 ADD MLOAD ISZERO PUSH2 0xD8C JUMPI PUSH2 0xD8C DUP12 DUP7 DUP7 PUSH1 0x60 ADD MLOAD PUSH2 0x1A6B JUMP JUMPDEST DUP4 MLOAD ISZERO PUSH2 0xDA2 JUMPI PUSH2 0xDA2 CALLER DUP8 DUP7 PUSH1 0x0 ADD MLOAD PUSH2 0x1A6B JUMP JUMPDEST PUSH1 0x20 DUP5 ADD MLOAD ISZERO PUSH2 0xDBB JUMPI PUSH2 0xDBB CALLER DUP7 DUP7 PUSH1 0x20 ADD MLOAD PUSH2 0x1A6B JUMP JUMPDEST DUP4 MLOAD PUSH1 0x20 DUP1 DUP7 ADD MLOAD PUSH1 0x40 DUP1 DUP9 ADD MLOAD PUSH1 0x60 DUP1 DUP11 ADD MLOAD DUP4 MLOAD SWAP7 DUP8 MSTORE SWAP5 DUP7 ADD SWAP4 SWAP1 SWAP4 MSTORE SWAP1 DUP5 ADD MSTORE DUP3 ADD MSTORE PUSH1 0x80 DUP2 ADD DUP9 SWAP1 MSTORE PUSH1 0xA0 DUP2 ADD DUP5 SWAP1 MSTORE PUSH2 0xFFFF DUP12 AND SWAP1 PUSH1 0x1 PUSH1 0x1 PUSH1 0xA0 SHL SUB DUP14 AND SWAP1 CALLER SWAP1 PUSH32 0xE8CF87740E16519B389A47FD487B7C8330C651CF9AF2E1A698676CB488A8CD4E SWAP1 PUSH1 0xC0 ADD PUSH1 0x40 MLOAD DUP1 SWAP2 SUB SWAP1 LOG4 PUSH32 0x6B8AEAA3365D2DFCB9ACC94F0A7429B657B4F2008CFAFB9B10297011E077C650 PUSH1 0x7 SLOAD PUSH1 0x8 SLOAD PUSH8 0x8AC7230489E80000 PUSH1 0x6 SLOAD PUSH2 0xE6D SWAP2 SWAP1 PUSH2 0x297B JUMP JUMPDEST PUSH1 0x9 SLOAD PUSH1 0xA SLOAD PUSH1 0x40 DUP1 MLOAD SWAP6 DUP7 MSTORE PUSH1 0x20 DUP7 ADD SWAP5 SWAP1 SWAP5 MSTORE SWAP3 DUP5 ADD SWAP2 SWAP1 SWAP2 MSTORE PUSH1 0x60 DUP4 ADD MSTORE PUSH1 0x80 DUP3 ADD MSTORE PUSH1 0xA0 ADD PUSH1 0x40 MLOAD DUP1 SWAP2 SUB SWAP1 LOG1 POP POP POP POP POP POP PUSH2 0xEAE PUSH1 0x1 PUSH1 0x3 SSTORE JUMP JUMPDEST SWAP5 SWAP4 POP POP POP POP JUMP JUMPDEST PUSH2 0x78E CALLER DUP4 DUP4 PUSH2 0x1AD3 JUMP JUMPDEST PUSH2 0xEC9 PUSH2 0x16B0 JUMP JUMPDEST PUSH1 0x0 DUP5 PUSH2 0xFFFF AND GT DUP1 ISZERO PUSH2 0xEE2 JUMPI POP PUSH1 0xD8 DUP5 PUSH2 0xFFFF AND GT ISZERO JUMPDEST PUSH2 0xF1D JUMPI PUSH1 0x40 MLOAD PUSH3 0x461BCD PUSH1 0xE5 SHL DUP2 MSTORE PUSH1 0x20 PUSH1 0x4 DUP3 ADD MSTORE PUSH1 0xC PUSH1 0x24 DUP3 ADD MSTORE PUSH12 0x496E76616C69642046726F6D PUSH1 0xA0 SHL PUSH1 0x44 DUP3 ADD MSTORE PUSH1 0x64 ADD PUSH2 0x502 JUMP JUMPDEST PUSH1 0x0 DUP4 PUSH2 0xFFFF AND GT DUP1 ISZERO PUSH2 0xF36 JUMPI POP PUSH1 0xD8 DUP4 PUSH2 0xFFFF AND GT ISZERO JUMPDEST DUP1 ISZERO PUSH2 0xF47 JUMPI POP PUSH2 0xF47 DUP5 DUP5 PUSH2 0x1B69 JUMP JUMPDEST PUSH2 0xF7E JUMPI PUSH1 0x40 MLOAD PUSH3 0x461BCD PUSH1 0xE5 SHL DUP2 MSTORE PUSH1 0x20 PUSH1 0x4 DUP3 ADD MSTORE PUSH1 0x8 PUSH1 0x24 DUP3 ADD MSTORE PUSH8 0x426164206D6F7665 PUSH1 0xC0 SHL PUSH1 0x44 DUP3 ADD MSTORE PUSH1 0x64 ADD PUSH2 0x502 JUMP JUMPDEST PUSH1 0x40 MLOAD PUSH4 0x23B872DD PUSH1 0xE0 SHL DUP2 MSTORE CALLER PUSH1 0x4 DUP3 ADD MSTORE ADDRESS PUSH1 0x24 DUP3 ADD MSTORE PUSH8 0x8AC7230489E80000 PUSH1 0x44 DUP3 ADD MSTORE PUSH32 0x0 PUSH1 0x1 PUSH1 0x1 PUSH1 0xA0 SHL SUB AND SWAP1 PUSH4 0x23B872DD SWAP1 PUSH1 0x64 ADD PUSH1 0x20 PUSH1 0x40 MLOAD DUP1 DUP4 SUB DUP2 PUSH1 0x0 DUP8 GAS CALL ISZERO DUP1 ISZERO PUSH2 0xFF8 JUMPI RETURNDATASIZE PUSH1 0x0 DUP1 RETURNDATACOPY RETURNDATASIZE PUSH1 0x0 REVERT JUMPDEST POP POP POP POP PUSH1 0x40 MLOAD RETURNDATASIZE PUSH1 0x1F NOT PUSH1 0x1F DUP3 ADD AND DUP3 ADD DUP1 PUSH1 0x40 MSTORE POP DUP2 ADD SWAP1 PUSH2 0x101C SWAP2 SWAP1 PUSH2 0x2992 JUMP JUMPDEST PUSH2 0x1053 JUMPI PUSH1 0x40 MLOAD PUSH3 0x461BCD PUSH1 0xE5 SHL DUP2 MSTORE PUSH1 0x20 PUSH1 0x4 DUP3 ADD MSTORE PUSH1 0x8 PUSH1 0x24 DUP3 ADD MSTORE PUSH8 0x14185E4819985A5B PUSH1 0xC2 SHL PUSH1 0x44 DUP3 ADD MSTORE PUSH1 0x64 ADD PUSH2 0x502 JUMP JUMPDEST PUSH1 0x0 PUSH2 0x2710 PUSH2 0x106C PUSH2 0x29A PUSH8 0x8AC7230489E80000 PUSH2 0x297B JUMP JUMPDEST PUSH2 0x1076 SWAP2 SWAP1 PUSH2 0x29C5 JUMP JUMPDEST SWAP1 POP PUSH1 0x0 PUSH2 0x108C DUP3 PUSH8 0x8AC7230489E80000 PUSH2 0x29D9 JUMP JUMPDEST SWAP1 POP DUP1 PUSH1 0x5 PUSH1 0x0 DUP3 DUP3 SLOAD PUSH2 0x10A0 SWAP2 SWAP1 PUSH2 0x29EC JUMP JUMPDEST SWAP3 POP POP DUP2 SWAP1 SSTORE POP DUP2 PUSH1 0xA PUSH1 0x0 DUP3 DUP3 SLOAD PUSH2 0x10B9 SWAP2 SWAP1 PUSH2 0x29EC JUMP JUMPDEST SWAP1 SWAP2 SSTORE POP POP DUP4 ISZERO PUSH2 0x10D7 JUMPI PUSH2 0x10D7 DUP7 PUSH2 0xFFFF AND DUP7 PUSH2 0xFFFF AND DUP7 PUSH2 0x1C95 JUMP JUMPDEST DUP3 ISZERO PUSH2 0x1104 JUMPI PUSH2 0x1104 PUSH2 0x10EF PUSH2 0xFFFF DUP9 AND PUSH1 0xD8 PUSH2 0x29EC JUMP JUMPDEST PUSH2 0x10FE PUSH2 0xFFFF DUP9 AND PUSH1 0xD8 PUSH2 0x29EC JUMP JUMPDEST DUP6 PUSH2 0x1C95 JUMP JUMPDEST PUSH1 0x40 DUP1 MLOAD PUSH2 0xFFFF DUP1 DUP10 AND DUP3 MSTORE DUP8 AND PUSH1 0x20 DUP3 ADD MSTORE SWAP1 DUP2 ADD DUP6 SWAP1 MSTORE PUSH1 0x60 DUP2 ADD DUP5 SWAP1 MSTORE NUMBER PUSH1 0x80 DUP3 ADD MSTORE CALLER SWAP1 PUSH32 0x377DC7145BD8AB426842504B448652C41DDA00ABB7F7C1DF6BDFA40BD2A16F2C SWAP1 PUSH1 0xA0 ADD PUSH1 0x40 MLOAD DUP1 SWAP2 SUB SWAP1 LOG2 PUSH32 0x6B8AEAA3365D2DFCB9ACC94F0A7429B657B4F2008CFAFB9B10297011E077C650 PUSH1 0x7 SLOAD PUSH1 0x8 SLOAD PUSH8 0x8AC7230489E80000 PUSH1 0x6 SLOAD PUSH2 0x1196 SWAP2 SWAP1 PUSH2 0x297B JUMP JUMPDEST PUSH1 0x9 SLOAD PUSH1 0xA SLOAD PUSH1 0x40 DUP1 MLOAD SWAP6 DUP7 MSTORE PUSH1 0x20 DUP7 ADD SWAP5 SWAP1 SWAP5 MSTORE SWAP3 DUP5 ADD SWAP2 SWAP1 SWAP2 MSTORE PUSH1 0x60 DUP4 ADD MSTORE PUSH1 0x80 DUP3 ADD MSTORE PUSH1 0xA0 ADD PUSH1 0x40 MLOAD DUP1 SWAP2 SUB SWAP1 LOG1 POP POP PUSH2 0x11D3 PUSH1 0x1 PUSH1 0x3 SSTORE JUMP JUMPDEST POP POP POP POP JUMP JUMPDEST PUSH1 0x1 PUSH1 0x1 PUSH1 0xA0 SHL SUB SWAP2 DUP3 AND PUSH1 0x0 SWAP1 DUP2 MSTORE PUSH1 0x1 PUSH1 0x20 SWAP1 DUP2 MSTORE PUSH1 0x40 DUP1 DUP4 KECCAK256 SWAP4 SWAP1 SWAP5 AND DUP3 MSTORE SWAP2 SWAP1 SWAP2 MSTORE KECCAK256 SLOAD PUSH1 0xFF AND SWAP1 JUMP JUMPDEST PUSH1 0x1 PUSH1 0x1 PUSH1 0xA0 SHL SUB DUP3 AND PUSH1 0x0 SWAP1 DUP2 MSTORE PUSH1 0xB PUSH1 0x20 SWAP1 DUP2 MSTORE PUSH1 0x40 DUP1 DUP4 KECCAK256 DUP5 DUP5 MSTORE SWAP1 SWAP2 MSTORE DUP2 KECCAK256 SLOAD DUP2 SUB PUSH2 0x1239 JUMPI POP PUSH1 0x0 PUSH2 0x498 JUMP JUMPDEST PUSH1 0x1 PUSH1 0x1 PUSH1 0xA0 SHL SUB DUP4 AND PUSH1 0x0 SWAP1 DUP2 MSTORE PUSH1 0xB PUSH1 0x20 SWAP1 DUP2 MSTORE PUSH1 0x40 DUP1 DUP4 KECCAK256 DUP6 DUP5 MSTORE SWAP1 SWAP2 MSTORE SWAP1 KECCAK256 SLOAD PUSH3 0xF4240 SWAP1 PUSH2 0x126C SWAP1 NUMBER PUSH2 0x29D9 JUMP JUMPDEST PUSH1 0x5 SLOAD PUSH2 0x1279 SWAP2 SWAP1 PUSH2 0x297B JUMP JUMPDEST PUSH2 0x1283 SWAP2 SWAP1 PUSH2 0x29C5 JUMP JUMPDEST SWAP4 SWAP3 POP POP POP JUMP JUMPDEST PUSH1 0x60 PUSH2 0xFFFF DUP3 AND PUSH1 0x0 PUSH2 0x129E DUP3 PUSH1 0xD8 PUSH2 0x29EC JUMP JUMPDEST PUSH1 0x0 DUP4 DUP2 MSTORE PUSH1 0xC PUSH1 0x20 SWAP1 DUP2 MSTORE PUSH1 0x40 DUP1 DUP4 KECCAK256 DUP1 SLOAD DUP3 MLOAD DUP2 DUP6 MUL DUP2 ADD DUP6 ADD SWAP1 SWAP4 MSTORE DUP1 DUP4 MSTORE SWAP5 SWAP6 POP SWAP3 SWAP4 SWAP1 SWAP3 SWAP2 DUP4 ADD DUP3 DUP3 DUP1 ISZERO PUSH2 0x1301 JUMPI PUSH1 0x20 MUL DUP3 ADD SWAP2 SWAP1 PUSH1 0x0 MSTORE PUSH1 0x20 PUSH1 0x0 KECCAK256 SWAP1 JUMPDEST DUP2 SLOAD PUSH1 0x1 PUSH1 0x1 PUSH1 0xA0 SHL SUB AND DUP2 MSTORE PUSH1 0x1 SWAP1 SWAP2 ADD SWAP1 PUSH1 0x20 ADD DUP1 DUP4 GT PUSH2 0x12E3 JUMPI JUMPDEST POP POP POP POP POP SWAP1 POP PUSH1 0x0 DUP1 JUMPDEST DUP3 MLOAD DUP2 LT ISZERO PUSH2 0x13D3 JUMPI PUSH1 0xD PUSH1 0x0 DUP7 DUP2 MSTORE PUSH1 0x20 ADD SWAP1 DUP2 MSTORE PUSH1 0x20 ADD PUSH1 0x0 KECCAK256 PUSH1 0x0 DUP5 DUP4 DUP2 MLOAD DUP2 LT PUSH2 0x133C JUMPI PUSH2 0x133C PUSH2 0x2A39 JUMP JUMPDEST PUSH1 0x20 SWAP1 DUP2 MUL SWAP2 SWAP1 SWAP2 ADD DUP2 ADD MLOAD PUSH1 0x1 PUSH1 0x1 PUSH1 0xA0 SHL SUB AND DUP3 MSTORE DUP2 ADD SWAP2 SWAP1 SWAP2 MSTORE PUSH1 0x40 ADD PUSH1 0x0 KECCAK256 SLOAD PUSH1 0xFF AND DUP1 PUSH2 0x13B8 JUMPI POP PUSH1 0xD PUSH1 0x0 DUP6 DUP2 MSTORE PUSH1 0x20 ADD SWAP1 DUP2 MSTORE PUSH1 0x20 ADD PUSH1 0x0 KECCAK256 PUSH1 0x0 DUP5 DUP4 DUP2 MLOAD DUP2 LT PUSH2 0x1390 JUMPI PUSH2 0x1390 PUSH2 0x2A39 JUMP JUMPDEST PUSH1 0x20 SWAP1 DUP2 MUL SWAP2 SWAP1 SWAP2 ADD DUP2 ADD MLOAD PUSH1 0x1 PUSH1 0x1 PUSH1 0xA0 SHL SUB AND DUP3 MSTORE DUP2 ADD SWAP2 SWAP1 SWAP2 MSTORE PUSH1 0x40 ADD PUSH1 0x0 KECCAK256 SLOAD PUSH1 0xFF AND JUMPDEST ISZERO PUSH2 0x13CB JUMPI DUP2 PUSH2 0x13C7 DUP2 PUSH2 0x2A4F JUMP JUMPDEST SWAP3 POP POP JUMPDEST PUSH1 0x1 ADD PUSH2 0x130C JUMP JUMPDEST POP PUSH1 0x0 DUP2 PUSH8 0xFFFFFFFFFFFFFFFF DUP2 GT ISZERO PUSH2 0x13EF JUMPI PUSH2 0x13EF PUSH2 0x2477 JUMP JUMPDEST PUSH1 0x40 MLOAD SWAP1 DUP1 DUP3 MSTORE DUP1 PUSH1 0x20 MUL PUSH1 0x20 ADD DUP3 ADD PUSH1 0x40 MSTORE DUP1 ISZERO PUSH2 0x145B JUMPI DUP2 PUSH1 0x20 ADD JUMPDEST PUSH2 0x1448 PUSH1 0x40 MLOAD DUP1 PUSH1 0xA0 ADD PUSH1 0x40 MSTORE DUP1 PUSH1 0x0 PUSH1 0x1 PUSH1 0x1 PUSH1 0xA0 SHL SUB AND DUP2 MSTORE PUSH1 0x20 ADD PUSH1 0x0 DUP2 MSTORE PUSH1 0x20 ADD PUSH1 0x0 DUP2 MSTORE PUSH1 0x20 ADD PUSH1 0x0 DUP2 MSTORE PUSH1 0x20 ADD PUSH1 0x0 DUP2 MSTORE POP SWAP1 JUMP JUMPDEST DUP2 MSTORE PUSH1 0x20 ADD SWAP1 PUSH1 0x1 SWAP1 SUB SWAP1 DUP2 PUSH2 0x140D JUMPI SWAP1 POP JUMPDEST POP SWAP1 POP PUSH1 0x0 DUP1 JUMPDEST DUP5 MLOAD DUP2 LT ISZERO PUSH2 0x15B6 JUMPI PUSH1 0x0 DUP6 DUP3 DUP2 MLOAD DUP2 LT PUSH2 0x147F JUMPI PUSH2 0x147F PUSH2 0x2A39 JUMP JUMPDEST PUSH1 0x20 SWAP1 DUP2 MUL SWAP2 SWAP1 SWAP2 ADD DUP2 ADD MLOAD PUSH1 0x0 DUP11 DUP2 MSTORE PUSH1 0xD DUP4 MSTORE PUSH1 0x40 DUP1 DUP3 KECCAK256 PUSH1 0x1 PUSH1 0x1 PUSH1 0xA0 SHL SUB DUP5 AND DUP4 MSTORE SWAP1 SWAP4 MSTORE SWAP2 SWAP1 SWAP2 KECCAK256 SLOAD SWAP1 SWAP2 POP PUSH1 0xFF AND DUP1 PUSH2 0x14E0 JUMPI POP PUSH1 0x0 DUP8 DUP2 MSTORE PUSH1 0xD PUSH1 0x20 SWAP1 DUP2 MSTORE PUSH1 0x40 DUP1 DUP4 KECCAK256 PUSH1 0x1 PUSH1 0x1 PUSH1 0xA0 SHL SUB DUP6 AND DUP5 MSTORE SWAP1 SWAP2 MSTORE SWAP1 KECCAK256 SLOAD PUSH1 0xFF AND JUMPDEST ISZERO PUSH2 0x15AD JUMPI PUSH1 0x0 PUSH2 0x14F1 DUP3 DUP11 PUSH2 0x476 JUMP JUMPDEST SWAP1 POP PUSH1 0x0 PUSH2 0x14FF DUP4 DUP11 PUSH2 0x476 JUMP JUMPDEST PUSH1 0x1 PUSH1 0x1 PUSH1 0xA0 SHL SUB DUP5 AND PUSH1 0x0 DUP2 DUP2 MSTORE PUSH1 0xB PUSH1 0x20 SWAP1 DUP2 MSTORE PUSH1 0x40 DUP1 DUP4 KECCAK256 DUP16 DUP5 MSTORE DUP3 MSTORE SWAP2 DUP3 SWAP1 KECCAK256 SLOAD DUP3 MLOAD PUSH1 0xA0 DUP2 ADD DUP5 MSTORE SWAP4 DUP5 MSTORE SWAP1 DUP4 ADD DUP7 SWAP1 MSTORE SWAP1 DUP3 ADD DUP4 SWAP1 MSTORE SWAP2 SWAP3 POP PUSH1 0x60 DUP2 ADD DUP3 PUSH2 0x154E JUMPI PUSH1 0x0 PUSH2 0x1558 JUMP JUMPDEST PUSH2 0x1558 DUP4 NUMBER PUSH2 0x29D9 JUMP JUMPDEST DUP2 MSTORE PUSH1 0x20 ADD PUSH2 0x1567 DUP7 DUP14 PUSH2 0x1207 JUMP JUMPDEST PUSH2 0x1571 DUP8 DUP16 PUSH2 0x1207 JUMP JUMPDEST PUSH2 0x157B SWAP2 SWAP1 PUSH2 0x29EC JUMP JUMPDEST DUP2 MSTORE POP DUP8 DUP8 DUP2 MLOAD DUP2 LT PUSH2 0x1590 JUMPI PUSH2 0x1590 PUSH2 0x2A39 JUMP JUMPDEST PUSH1 0x20 MUL PUSH1 0x20 ADD ADD DUP2 SWAP1 MSTORE POP DUP6 DUP1 PUSH2 0x15A6 SWAP1 PUSH2 0x2A4F JUMP JUMPDEST SWAP7 POP POP POP POP POP JUMPDEST POP PUSH1 0x1 ADD PUSH2 0x1462 JUMP JUMPDEST POP SWAP1 SWAP8 SWAP7 POP POP POP POP POP POP POP JUMP JUMPDEST CALLER PUSH1 0x1 PUSH1 0x1 PUSH1 0xA0 SHL SUB DUP7 AND DUP2 EQ DUP1 ISZERO SWAP1 PUSH2 0x15E4 JUMPI POP PUSH2 0x15E2 DUP7 DUP3 PUSH2 0x11D9 JUMP JUMPDEST ISZERO JUMPDEST ISZERO PUSH2 0x1615 JUMPI PUSH1 0x40 MLOAD PUSH4 0x711BEC91 PUSH1 0xE1 SHL DUP2 MSTORE PUSH1 0x1 PUSH1 0x1 PUSH1 0xA0 SHL SUB DUP1 DUP4 AND PUSH1 0x4 DUP4 ADD MSTORE DUP8 AND PUSH1 0x24 DUP3 ADD MSTORE PUSH1 0x44 ADD PUSH2 0x502 JUMP JUMPDEST PUSH2 0x885 DUP7 DUP7 DUP7 DUP7 DUP7 PUSH2 0x1E03 JUMP JUMPDEST PUSH2 0x162A PUSH2 0x17F9 JUMP JUMPDEST PUSH1 0x1 PUSH1 0x1 PUSH1 0xA0 SHL SUB DUP2 AND PUSH2 0x1654 JUMPI PUSH1 0x40 MLOAD PUSH4 0x1E4FBDF7 PUSH1 0xE0 SHL DUP2 MSTORE PUSH1 0x0 PUSH1 0x4 DUP3 ADD MSTORE PUSH1 0x24 ADD PUSH2 0x502 JUMP JUMPDEST PUSH2 0x165D DUP2 PUSH2 0x1826 JUMP JUMPDEST POP JUMP JUMPDEST PUSH1 0x0 PUSH1 0x1 PUSH1 0x1 PUSH1 0xE0 SHL SUB NOT DUP3 AND PUSH4 0x6CDB3D13 PUSH1 0xE1 SHL EQ DUP1 PUSH2 0x1691 JUMPI POP PUSH1 0x1 PUSH1 0x1 PUSH1 0xE0 SHL SUB NOT DUP3 AND PUSH4 0x3A24D07 PUSH1 0xE2 SHL EQ JUMPDEST DUP1 PUSH2 0x498 JUMPI POP PUSH4 0x1FFC9A7 PUSH1 0xE0 SHL PUSH1 0x1 PUSH1 0x1 PUSH1 0xE0 SHL SUB NOT DUP4 AND EQ PUSH2 0x498 JUMP JUMPDEST PUSH1 0x2 PUSH1 0x3 SLOAD SUB PUSH2 0x16D3 JUMPI PUSH1 0x40 MLOAD PUSH4 0x3EE5AEB5 PUSH1 0xE0 SHL DUP2 MSTORE PUSH1 0x4 ADD PUSH1 0x40 MLOAD DUP1 SWAP2 SUB SWAP1 REVERT JUMPDEST PUSH1 0x2 PUSH1 0x3 SSTORE JUMP JUMPDEST PUSH2 0x16F5 DUP4 DUP4 DUP4 PUSH1 0x40 MLOAD DUP1 PUSH1 0x20 ADD PUSH1 0x40 MSTORE DUP1 PUSH1 0x0 DUP2 MSTORE POP PUSH2 0x1E91 JUMP JUMPDEST PUSH1 0x1 PUSH1 0x1 PUSH1 0xA0 SHL SUB DUP4 AND PUSH1 0x0 DUP2 DUP2 MSTORE PUSH1 0xB PUSH1 0x20 SWAP1 DUP2 MSTORE PUSH1 0x40 DUP1 DUP4 KECCAK256 DUP7 DUP5 MSTORE DUP3 MSTORE DUP1 DUP4 KECCAK256 NUMBER SWAP1 SSTORE PUSH1 0xD DUP3 MSTORE DUP1 DUP4 KECCAK256 SWAP4 DUP4 MSTORE SWAP3 SWAP1 MSTORE KECCAK256 SLOAD PUSH1 0xFF AND PUSH2 0x178D JUMPI PUSH1 0x0 DUP3 DUP2 MSTORE PUSH1 0xC PUSH1 0x20 SWAP1 DUP2 MSTORE PUSH1 0x40 DUP1 DUP4 KECCAK256 DUP1 SLOAD PUSH1 0x1 DUP1 DUP3 ADD DUP4 SSTORE SWAP2 DUP6 MSTORE DUP4 DUP6 KECCAK256 ADD DUP1 SLOAD PUSH1 0x1 PUSH1 0x1 PUSH1 0xA0 SHL SUB NOT AND PUSH1 0x1 PUSH1 0x1 PUSH1 0xA0 SHL SUB DUP10 AND SWAP1 DUP2 OR SWAP1 SWAP2 SSTORE DUP7 DUP6 MSTORE PUSH1 0xD DUP5 MSTORE DUP3 DUP6 KECCAK256 SWAP1 DUP6 MSTORE SWAP1 SWAP3 MSTORE SWAP1 SWAP2 KECCAK256 DUP1 SLOAD PUSH1 0xFF NOT AND SWAP1 SWAP2 OR SWAP1 SSTORE JUMPDEST POP POP POP JUMP JUMPDEST PUSH1 0x1 PUSH1 0x1 PUSH1 0xA0 SHL SUB DUP5 AND PUSH2 0x17BC JUMPI PUSH1 0x40 MLOAD PUSH4 0x2BFA23E7 PUSH1 0xE1 SHL DUP2 MSTORE PUSH1 0x0 PUSH1 0x4 DUP3 ADD MSTORE PUSH1 0x24 ADD PUSH2 0x502 JUMP JUMPDEST PUSH1 0x1 PUSH1 0x1 PUSH1 0xA0 SHL SUB DUP6 AND PUSH2 0x17E5 JUMPI PUSH1 0x40 MLOAD PUSH3 0x6A0D45 PUSH1 0xE2 SHL DUP2 MSTORE PUSH1 0x0 PUSH1 0x4 DUP3 ADD MSTORE PUSH1 0x24 ADD PUSH2 0x502 JUMP JUMPDEST PUSH2 0x17F2 DUP6 DUP6 DUP6 DUP6 DUP6 PUSH2 0x1EEA JUMP JUMPDEST POP POP POP POP POP JUMP JUMPDEST PUSH1 0x4 SLOAD PUSH1 0x1 PUSH1 0x1 PUSH1 0xA0 SHL SUB AND CALLER EQ PUSH2 0x96C JUMPI PUSH1 0x40 MLOAD PUSH4 0x118CDAA7 PUSH1 0xE0 SHL DUP2 MSTORE CALLER PUSH1 0x4 DUP3 ADD MSTORE PUSH1 0x24 ADD PUSH2 0x502 JUMP JUMPDEST PUSH1 0x4 DUP1 SLOAD PUSH1 0x1 PUSH1 0x1 PUSH1 0xA0 SHL SUB DUP4 DUP2 AND PUSH1 0x1 PUSH1 0x1 PUSH1 0xA0 SHL SUB NOT DUP4 AND DUP2 OR SWAP1 SWAP4 SSTORE PUSH1 0x40 MLOAD SWAP2 AND SWAP2 SWAP1 DUP3 SWAP1 PUSH32 0x8BE0079C531659141344CD1FD0A4F28419497F9722A3DAAFE3B4186F6B6457E0 SWAP1 PUSH1 0x0 SWAP1 LOG3 POP POP JUMP JUMPDEST PUSH1 0x0 DUP1 PUSH2 0x1885 DUP6 DUP5 PUSH2 0x1207 JUMP JUMPDEST PUSH2 0x188F DUP7 DUP7 PUSH2 0x1207 JUMP JUMPDEST PUSH2 0x1899 SWAP2 SWAP1 PUSH2 0x29EC JUMP JUMPDEST SWAP1 POP PUSH1 0x0 PUSH2 0x2710 PUSH2 0x18AC PUSH2 0x9C4 DUP5 PUSH2 0x297B JUMP JUMPDEST PUSH2 0x18B6 SWAP2 SWAP1 PUSH2 0x29C5 JUMP JUMPDEST SWAP1 POP PUSH1 0x0 PUSH2 0x2710 PUSH2 0x18C9 PUSH2 0x29A DUP5 PUSH2 0x297B JUMP JUMPDEST PUSH2 0x18D3 SWAP2 SWAP1 PUSH2 0x29C5 JUMP JUMPDEST SWAP1 POP PUSH2 0x2710 PUSH2 0x18E4 PUSH2 0x1D4C DUP6 PUSH2 0x297B JUMP JUMPDEST PUSH2 0x18EE SWAP2 SWAP1 PUSH2 0x29C5 JUMP JUMPDEST SWAP4 POP PUSH2 0x18FA DUP2 DUP6 PUSH2 0x29EC JUMP JUMPDEST PUSH1 0x5 PUSH1 0x0 DUP3 DUP3 SLOAD PUSH2 0x190B SWAP2 SWAP1 PUSH2 0x29D9 JUMP JUMPDEST SWAP3 POP POP DUP2 SWAP1 SSTORE POP DUP1 PUSH1 0xA PUSH1 0x0 DUP3 DUP3 SLOAD PUSH2 0x1924 SWAP2 SWAP1 PUSH2 0x29EC JUMP JUMPDEST SWAP3 POP POP DUP2 SWAP1 SSTORE POP DUP4 PUSH1 0x9 PUSH1 0x0 DUP3 DUP3 SLOAD PUSH2 0x193D SWAP2 SWAP1 PUSH2 0x29EC JUMP JUMPDEST SWAP1 SWAP2 SSTORE POP POP PUSH1 0x40 MLOAD PUSH4 0xA9059CBB PUSH1 0xE0 SHL DUP2 MSTORE CALLER PUSH1 0x4 DUP3 ADD MSTORE PUSH1 0x24 DUP2 ADD DUP6 SWAP1 MSTORE PUSH32 0x0 PUSH1 0x1 PUSH1 0x1 PUSH1 0xA0 SHL SUB AND SWAP1 PUSH4 0xA9059CBB SWAP1 PUSH1 0x44 ADD PUSH1 0x20 PUSH1 0x40 MLOAD DUP1 DUP4 SUB DUP2 PUSH1 0x0 DUP8 GAS CALL ISZERO DUP1 ISZERO PUSH2 0x19AF JUMPI RETURNDATASIZE PUSH1 0x0 DUP1 RETURNDATACOPY RETURNDATASIZE PUSH1 0x0 REVERT JUMPDEST POP POP POP POP PUSH1 0x40 MLOAD RETURNDATASIZE PUSH1 0x1F NOT PUSH1 0x1F DUP3 ADD AND DUP3 ADD DUP1 PUSH1 0x40 MSTORE POP DUP2 ADD SWAP1 PUSH2 0x19D3 SWAP2 SWAP1 PUSH2 0x2992 JUMP JUMPDEST PUSH2 0x1A0D JUMPI PUSH1 0x40 MLOAD PUSH3 0x461BCD PUSH1 0xE5 SHL DUP2 MSTORE PUSH1 0x20 PUSH1 0x4 DUP3 ADD MSTORE PUSH1 0xB PUSH1 0x24 DUP3 ADD MSTORE PUSH11 0x14185E5BDD5D0819985A5B PUSH1 0xAA SHL PUSH1 0x44 DUP3 ADD MSTORE PUSH1 0x64 ADD PUSH2 0x502 JUMP JUMPDEST POP POP POP SWAP4 SWAP3 POP POP POP JUMP JUMPDEST PUSH1 0x40 DUP2 ADD MLOAD DUP2 MLOAD PUSH2 0x1A28 SWAP2 SWAP1 PUSH2 0x29EC JUMP JUMPDEST PUSH1 0x7 PUSH1 0x0 DUP3 DUP3 SLOAD PUSH2 0x1A39 SWAP2 SWAP1 PUSH2 0x29EC JUMP JUMPDEST SWAP1 SWAP2 SSTORE POP POP PUSH1 0x60 DUP2 ADD MLOAD PUSH1 0x20 DUP3 ADD MLOAD PUSH2 0x1A52 SWAP2 SWAP1 PUSH2 0x29EC JUMP JUMPDEST PUSH1 0x8 PUSH1 0x0 DUP3 DUP3 SLOAD PUSH2 0x1A63 SWAP2 SWAP1 PUSH2 0x29EC JUMP JUMPDEST SWAP1 SWAP2 SSTORE POP POP POP JUMP JUMPDEST PUSH1 0x1 PUSH1 0x1 PUSH1 0xA0 SHL SUB DUP4 AND PUSH2 0x1A94 JUMPI PUSH1 0x40 MLOAD PUSH3 0x6A0D45 PUSH1 0xE2 SHL DUP2 MSTORE PUSH1 0x0 PUSH1 0x4 DUP3 ADD MSTORE PUSH1 0x24 ADD PUSH2 0x502 JUMP JUMPDEST PUSH1 0x40 DUP1 MLOAD PUSH1 0x1 DUP1 DUP3 MSTORE PUSH1 0x20 DUP3 ADD DUP6 SWAP1 MSTORE DUP2 DUP4 ADD SWAP1 DUP2 MSTORE PUSH1 0x60 DUP3 ADD DUP5 SWAP1 MSTORE PUSH1 0xA0 DUP3 ADD SWAP1 SWAP3 MSTORE PUSH1 0x0 PUSH1 0x80 DUP3 ADD DUP2 DUP2 MSTORE SWAP2 SWAP3 SWAP2 PUSH2 0x17F2 SWAP2 DUP8 SWAP2 DUP6 SWAP1 DUP6 SWAP1 PUSH2 0x1EEA JUMP JUMPDEST PUSH1 0x1 PUSH1 0x1 PUSH1 0xA0 SHL SUB DUP3 AND PUSH2 0x1AFC JUMPI PUSH1 0x40 MLOAD PUSH3 0xCED3E1 PUSH1 0xE8 SHL DUP2 MSTORE PUSH1 0x0 PUSH1 0x4 DUP3 ADD MSTORE PUSH1 0x24 ADD PUSH2 0x502 JUMP JUMPDEST PUSH1 0x1 PUSH1 0x1 PUSH1 0xA0 SHL SUB DUP4 DUP2 AND PUSH1 0x0 DUP2 DUP2 MSTORE PUSH1 0x1 PUSH1 0x20 SWAP1 DUP2 MSTORE PUSH1 0x40 DUP1 DUP4 KECCAK256 SWAP5 DUP8 AND DUP1 DUP5 MSTORE SWAP5 DUP3 MSTORE SWAP2 DUP3 SWAP1 KECCAK256 DUP1 SLOAD PUSH1 0xFF NOT AND DUP7 ISZERO ISZERO SWAP1 DUP2 OR SWAP1 SWAP2 SSTORE SWAP2 MLOAD SWAP2 DUP3 MSTORE PUSH32 0x17307EAB39AB6107E8899845AD3D59BD9653F200F220920489CA2B5937696C31 SWAP2 ADD PUSH1 0x40 MLOAD DUP1 SWAP2 SUB SWAP1 LOG3 POP POP POP JUMP JUMPDEST PUSH1 0x0 DUP1 PUSH2 0x1B77 PUSH1 0x1 DUP6 PUSH2 0x2A68 JUMP JUMPDEST SWAP1 POP PUSH1 0x0 PUSH2 0x1B86 PUSH1 0x1 DUP6 PUSH2 0x2A68 JUMP JUMPDEST SWAP1 POP PUSH1 0x0 PUSH2 0x1B95 PUSH1 0x6 DUP5 PUSH2 0x2A8A JUMP JUMPDEST SWAP1 POP PUSH1 0x0 PUSH1 0x6 PUSH2 0x1BA5 DUP2 DUP7 PUSH2 0x2AAB JUMP JUMPDEST PUSH2 0x1BAF SWAP2 SWAP1 PUSH2 0x2A8A JUMP JUMPDEST SWAP1 POP PUSH1 0x0 PUSH2 0x1BBE PUSH1 0x24 DUP7 PUSH2 0x2AAB JUMP JUMPDEST SWAP1 POP PUSH1 0x0 PUSH2 0x1BCD PUSH1 0x6 DUP7 PUSH2 0x2A8A JUMP JUMPDEST SWAP1 POP PUSH1 0x0 PUSH1 0x6 PUSH2 0x1BDD DUP2 DUP9 PUSH2 0x2AAB JUMP JUMPDEST PUSH2 0x1BE7 SWAP2 SWAP1 PUSH2 0x2A8A JUMP JUMPDEST SWAP1 POP PUSH1 0x0 PUSH2 0x1BF6 PUSH1 0x24 DUP9 PUSH2 0x2AAB JUMP JUMPDEST SWAP1 POP DUP1 PUSH1 0x1 SIGNEXTEND DUP5 PUSH1 0x1 SIGNEXTEND SGT PUSH2 0x1C14 JUMPI PUSH2 0x1C0F DUP5 DUP3 PUSH2 0x2ACC JUMP JUMPDEST PUSH2 0x1C1E JUMP JUMPDEST PUSH2 0x1C1E DUP2 DUP6 PUSH2 0x2ACC JUMP JUMPDEST DUP3 PUSH1 0x1 SIGNEXTEND DUP7 PUSH1 0x1 SIGNEXTEND SGT PUSH2 0x1C3A JUMPI PUSH2 0x1C35 DUP7 DUP5 PUSH2 0x2ACC JUMP JUMPDEST PUSH2 0x1C44 JUMP JUMPDEST PUSH2 0x1C44 DUP4 DUP8 PUSH2 0x2ACC JUMP JUMPDEST DUP5 PUSH1 0x1 SIGNEXTEND DUP9 PUSH1 0x1 SIGNEXTEND SGT PUSH2 0x1C60 JUMPI PUSH2 0x1C5B DUP9 DUP7 PUSH2 0x2ACC JUMP JUMPDEST PUSH2 0x1C6A JUMP JUMPDEST PUSH2 0x1C6A DUP6 DUP10 PUSH2 0x2ACC JUMP JUMPDEST PUSH2 0x1C74 SWAP2 SWAP1 PUSH2 0x2AEF JUMP JUMPDEST PUSH2 0x1C7E SWAP2 SWAP1 PUSH2 0x2AEF JUMP JUMPDEST PUSH2 0xFFFF AND PUSH1 0x1 EQ SWAP9 POP POP POP POP POP POP POP POP POP SWAP3 SWAP2 POP POP JUMP JUMPDEST DUP1 PUSH2 0x1CA0 CALLER DUP6 PUSH2 0x476 JUMP JUMPDEST LT ISZERO PUSH2 0x1CE3 JUMPI PUSH1 0x40 MLOAD PUSH3 0x461BCD PUSH1 0xE5 SHL DUP2 MSTORE PUSH1 0x20 PUSH1 0x4 DUP3 ADD MSTORE PUSH1 0x12 PUSH1 0x24 DUP3 ADD MSTORE PUSH18 0x496E73756666696369656E7420756E697473 PUSH1 0x70 SHL PUSH1 0x44 DUP3 ADD MSTORE PUSH1 0x64 ADD PUSH2 0x502 JUMP JUMPDEST PUSH2 0x1CEE CALLER DUP5 DUP4 PUSH2 0x1A6B JUMP JUMPDEST PUSH2 0x1CF8 CALLER DUP5 PUSH2 0x476 JUMP JUMPDEST PUSH1 0x0 SUB PUSH2 0x1D31 JUMPI PUSH1 0x0 DUP4 DUP2 MSTORE PUSH1 0xD PUSH1 0x20 SWAP1 DUP2 MSTORE PUSH1 0x40 DUP1 DUP4 KECCAK256 CALLER DUP5 MSTORE DUP3 MSTORE DUP1 DUP4 KECCAK256 DUP1 SLOAD PUSH1 0xFF NOT AND SWAP1 SSTORE PUSH1 0xB DUP3 MSTORE DUP1 DUP4 KECCAK256 DUP7 DUP5 MSTORE SWAP1 SWAP2 MSTORE DUP2 KECCAK256 SSTORE JUMPDEST PUSH2 0x1D4C CALLER DUP4 DUP4 PUSH1 0x40 MLOAD DUP1 PUSH1 0x20 ADD PUSH1 0x40 MSTORE DUP1 PUSH1 0x0 DUP2 MSTORE POP PUSH2 0x1E91 JUMP JUMPDEST CALLER PUSH1 0x0 SWAP1 DUP2 MSTORE PUSH1 0xB PUSH1 0x20 SWAP1 DUP2 MSTORE PUSH1 0x40 DUP1 DUP4 KECCAK256 DUP6 DUP5 MSTORE SWAP1 SWAP2 MSTORE DUP2 KECCAK256 SLOAD SWAP1 SUB PUSH2 0x1D8B JUMPI CALLER PUSH1 0x0 SWAP1 DUP2 MSTORE PUSH1 0xB PUSH1 0x20 SWAP1 DUP2 MSTORE PUSH1 0x40 DUP1 DUP4 KECCAK256 DUP6 DUP5 MSTORE SWAP1 SWAP2 MSTORE SWAP1 KECCAK256 NUMBER SWAP1 SSTORE JUMPDEST PUSH1 0x0 DUP3 DUP2 MSTORE PUSH1 0xD PUSH1 0x20 SWAP1 DUP2 MSTORE PUSH1 0x40 DUP1 DUP4 KECCAK256 CALLER DUP5 MSTORE SWAP1 SWAP2 MSTORE SWAP1 KECCAK256 SLOAD PUSH1 0xFF AND PUSH2 0x178D JUMPI PUSH1 0x0 DUP3 DUP2 MSTORE PUSH1 0xC PUSH1 0x20 SWAP1 DUP2 MSTORE PUSH1 0x40 DUP1 DUP4 KECCAK256 DUP1 SLOAD PUSH1 0x1 DUP2 DUP2 ADD DUP4 SSTORE SWAP2 DUP6 MSTORE DUP4 DUP6 KECCAK256 ADD DUP1 SLOAD PUSH1 0x1 PUSH1 0x1 PUSH1 0xA0 SHL SUB NOT AND CALLER SWAP1 DUP2 OR SWAP1 SWAP2 SSTORE DUP7 DUP6 MSTORE PUSH1 0xD DUP5 MSTORE DUP3 DUP6 KECCAK256 SWAP1 DUP6 MSTORE SWAP1 SWAP3 MSTORE SWAP1 SWAP2 KECCAK256 DUP1 SLOAD PUSH1 0xFF NOT AND SWAP1 SWAP2 OR SWAP1 SSTORE POP POP POP JUMP JUMPDEST PUSH1 0x1 PUSH1 0x1 PUSH1 0xA0 SHL SUB DUP5 AND PUSH2 0x1E2D JUMPI PUSH1 0x40 MLOAD PUSH4 0x2BFA23E7 PUSH1 0xE1 SHL DUP2 MSTORE PUSH1 0x0 PUSH1 0x4 DUP3 ADD MSTORE PUSH1 0x24 ADD PUSH2 0x502 JUMP JUMPDEST PUSH1 0x1 PUSH1 0x1 PUSH1 0xA0 SHL SUB DUP6 AND PUSH2 0x1E56 JUMPI PUSH1 0x40 MLOAD PUSH3 0x6A0D45 PUSH1 0xE2 SHL DUP2 MSTORE PUSH1 0x0 PUSH1 0x4 DUP3 ADD MSTORE PUSH1 0x24 ADD PUSH2 0x502 JUMP JUMPDEST PUSH1 0x40 DUP1 MLOAD PUSH1 0x1 DUP1 DUP3 MSTORE PUSH1 0x20 DUP3 ADD DUP7 SWAP1 MSTORE DUP2 DUP4 ADD SWAP1 DUP2 MSTORE PUSH1 0x60 DUP3 ADD DUP6 SWAP1 MSTORE PUSH1 0x80 DUP3 ADD SWAP1 SWAP3 MSTORE SWAP1 PUSH2 0x1E88 DUP8 DUP8 DUP5 DUP5 DUP8 PUSH2 0x1EEA JUMP JUMPDEST POP POP POP POP POP POP POP JUMP JUMPDEST PUSH1 0x1 PUSH1 0x1 PUSH1 0xA0 SHL SUB DUP5 AND PUSH2 0x1EBB JUMPI PUSH1 0x40 MLOAD PUSH4 0x2BFA23E7 PUSH1 0xE1 SHL DUP2 MSTORE PUSH1 0x0 PUSH1 0x4 DUP3 ADD MSTORE PUSH1 0x24 ADD PUSH2 0x502 JUMP JUMPDEST PUSH1 0x40 DUP1 MLOAD PUSH1 0x1 DUP1 DUP3 MSTORE PUSH1 0x20 DUP3 ADD DUP7 SWAP1 MSTORE DUP2 DUP4 ADD SWAP1 DUP2 MSTORE PUSH1 0x60 DUP3 ADD DUP6 SWAP1 MSTORE PUSH1 0x80 DUP3 ADD SWAP1 SWAP3 MSTORE SWAP1 PUSH2 0x885 PUSH1 0x0 DUP8 DUP5 DUP5 DUP8 JUMPDEST PUSH2 0x1EF6 DUP6 DUP6 DUP6 DUP6 PUSH2 0x1F3D JUMP JUMPDEST PUSH1 0x1 PUSH1 0x1 PUSH1 0xA0 SHL SUB DUP5 AND ISZERO PUSH2 0x17F2 JUMPI DUP3 MLOAD CALLER SWAP1 PUSH1 0x1 SUB PUSH2 0x1F2F JUMPI PUSH1 0x20 DUP5 DUP2 ADD MLOAD SWAP1 DUP5 ADD MLOAD PUSH2 0x1F28 DUP4 DUP10 DUP10 DUP6 DUP6 DUP10 PUSH2 0x2151 JUMP JUMPDEST POP POP PUSH2 0x885 JUMP JUMPDEST PUSH2 0x885 DUP2 DUP8 DUP8 DUP8 DUP8 DUP8 PUSH2 0x2275 JUMP JUMPDEST DUP1 MLOAD DUP3 MLOAD EQ PUSH2 0x1F6C JUMPI DUP2 MLOAD DUP2 MLOAD PUSH1 0x40 MLOAD PUSH4 0x5B059991 PUSH1 0xE0 SHL DUP2 MSTORE PUSH1 0x4 DUP2 ADD SWAP3 SWAP1 SWAP3 MSTORE PUSH1 0x24 DUP3 ADD MSTORE PUSH1 0x44 ADD PUSH2 0x502 JUMP JUMPDEST CALLER PUSH1 0x0 JUMPDEST DUP4 MLOAD DUP2 LT ISZERO PUSH2 0x2072 JUMPI PUSH1 0x20 DUP2 DUP2 MUL DUP6 DUP2 ADD DUP3 ADD MLOAD SWAP1 DUP6 ADD SWAP1 SWAP2 ADD MLOAD PUSH1 0x1 PUSH1 0x1 PUSH1 0xA0 SHL SUB DUP9 AND ISZERO PUSH2 0x2023 JUMPI PUSH1 0x0 DUP3 DUP2 MSTORE PUSH1 0x20 DUP2 DUP2 MSTORE PUSH1 0x40 DUP1 DUP4 KECCAK256 PUSH1 0x1 PUSH1 0x1 PUSH1 0xA0 SHL SUB DUP13 AND DUP5 MSTORE SWAP1 SWAP2 MSTORE SWAP1 KECCAK256 SLOAD DUP2 DUP2 LT ISZERO PUSH2 0x1FFC JUMPI PUSH1 0x40 MLOAD PUSH4 0x3DEE4C5 PUSH1 0xE0 SHL DUP2 MSTORE PUSH1 0x1 PUSH1 0x1 PUSH1 0xA0 SHL SUB DUP11 AND PUSH1 0x4 DUP3 ADD MSTORE PUSH1 0x24 DUP2 ADD DUP3 SWAP1 MSTORE PUSH1 0x44 DUP2 ADD DUP4 SWAP1 MSTORE PUSH1 0x64 DUP2 ADD DUP5 SWAP1 MSTORE PUSH1 0x84 ADD PUSH2 0x502 JUMP JUMPDEST PUSH1 0x0 DUP4 DUP2 MSTORE PUSH1 0x20 DUP2 DUP2 MSTORE PUSH1 0x40 DUP1 DUP4 KECCAK256 PUSH1 0x1 PUSH1 0x1 PUSH1 0xA0 SHL SUB DUP14 AND DUP5 MSTORE SWAP1 SWAP2 MSTORE SWAP1 KECCAK256 SWAP1 DUP3 SWAP1 SUB SWAP1 SSTORE JUMPDEST PUSH1 0x1 PUSH1 0x1 PUSH1 0xA0 SHL SUB DUP8 AND ISZERO PUSH2 0x2068 JUMPI PUSH1 0x0 DUP3 DUP2 MSTORE PUSH1 0x20 DUP2 DUP2 MSTORE PUSH1 0x40 DUP1 DUP4 KECCAK256 PUSH1 0x1 PUSH1 0x1 PUSH1 0xA0 SHL SUB DUP12 AND DUP5 MSTORE SWAP1 SWAP2 MSTORE DUP2 KECCAK256 DUP1 SLOAD DUP4 SWAP3 SWAP1 PUSH2 0x2062 SWAP1 DUP5 SWAP1 PUSH2 0x29EC JUMP JUMPDEST SWAP1 SWAP2 SSTORE POP POP JUMPDEST POP POP PUSH1 0x1 ADD PUSH2 0x1F70 JUMP JUMPDEST POP DUP3 MLOAD PUSH1 0x1 SUB PUSH2 0x20F3 JUMPI PUSH1 0x20 DUP4 ADD MLOAD PUSH1 0x0 SWAP1 PUSH1 0x20 DUP5 ADD MLOAD SWAP1 SWAP2 POP DUP6 PUSH1 0x1 PUSH1 0x1 PUSH1 0xA0 SHL SUB AND DUP8 PUSH1 0x1 PUSH1 0x1 PUSH1 0xA0 SHL SUB AND DUP5 PUSH1 0x1 PUSH1 0x1 PUSH1 0xA0 SHL SUB AND PUSH32 0xC3D58168C5AE7397731D063D5BBF3D657854427343F4C083240F7AACAA2D0F62 DUP6 DUP6 PUSH1 0x40 MLOAD PUSH2 0x20E4 SWAP3 SWAP2 SWAP1 SWAP2 DUP3 MSTORE PUSH1 0x20 DUP3 ADD MSTORE PUSH1 0x40 ADD SWAP1 JUMP JUMPDEST PUSH1 0x40 MLOAD DUP1 SWAP2 SUB SWAP1 LOG4 POP POP PUSH2 0x17F2 JUMP JUMPDEST DUP4 PUSH1 0x1 PUSH1 0x1 PUSH1 0xA0 SHL SUB AND DUP6 PUSH1 0x1 PUSH1 0x1 PUSH1 0xA0 SHL SUB AND DUP3 PUSH1 0x1 PUSH1 0x1 PUSH1 0xA0 SHL SUB AND PUSH32 0x4A39DC06D4C0DBC64B70AF90FD698A233A518AA5D07E595D983B8C0526C8F7FB DUP7 DUP7 PUSH1 0x40 MLOAD PUSH2 0x2142 SWAP3 SWAP2 SWAP1 PUSH2 0x2B12 JUMP JUMPDEST PUSH1 0x40 MLOAD DUP1 SWAP2 SUB SWAP1 LOG4 POP POP POP POP POP JUMP JUMPDEST PUSH1 0x1 PUSH1 0x1 PUSH1 0xA0 SHL SUB DUP5 AND EXTCODESIZE ISZERO PUSH2 0x885 JUMPI PUSH1 0x40 MLOAD PUSH4 0xF23A6E61 PUSH1 0xE0 SHL DUP2 MSTORE PUSH1 0x1 PUSH1 0x1 PUSH1 0xA0 SHL SUB DUP6 AND SWAP1 PUSH4 0xF23A6E61 SWAP1 PUSH2 0x2195 SWAP1 DUP10 SWAP1 DUP10 SWAP1 DUP9 SWAP1 DUP9 SWAP1 DUP9 SWAP1 PUSH1 0x4 ADD PUSH2 0x2B40 JUMP JUMPDEST PUSH1 0x20 PUSH1 0x40 MLOAD DUP1 DUP4 SUB DUP2 PUSH1 0x0 DUP8 GAS CALL SWAP3 POP POP POP DUP1 ISZERO PUSH2 0x21D0 JUMPI POP PUSH1 0x40 DUP1 MLOAD PUSH1 0x1F RETURNDATASIZE SWAP1 DUP2 ADD PUSH1 0x1F NOT AND DUP3 ADD SWAP1 SWAP3 MSTORE PUSH2 0x21CD SWAP2 DUP2 ADD SWAP1 PUSH2 0x2B85 JUMP JUMPDEST PUSH1 0x1 JUMPDEST PUSH2 0x2239 JUMPI RETURNDATASIZE DUP1 DUP1 ISZERO PUSH2 0x21FE JUMPI PUSH1 0x40 MLOAD SWAP2 POP PUSH1 0x1F NOT PUSH1 0x3F RETURNDATASIZE ADD AND DUP3 ADD PUSH1 0x40 MSTORE RETURNDATASIZE DUP3 MSTORE RETURNDATASIZE PUSH1 0x0 PUSH1 0x20 DUP5 ADD RETURNDATACOPY PUSH2 0x2203 JUMP JUMPDEST PUSH1 0x60 SWAP2 POP JUMPDEST POP DUP1 MLOAD PUSH1 0x0 SUB PUSH2 0x2231 JUMPI PUSH1 0x40 MLOAD PUSH4 0x2BFA23E7 PUSH1 0xE1 SHL DUP2 MSTORE PUSH1 0x1 PUSH1 0x1 PUSH1 0xA0 SHL SUB DUP7 AND PUSH1 0x4 DUP3 ADD MSTORE PUSH1 0x24 ADD PUSH2 0x502 JUMP JUMPDEST DUP1 MLOAD PUSH1 0x20 DUP3 ADD REVERT JUMPDEST PUSH1 0x1 PUSH1 0x1 PUSH1 0xE0 SHL SUB NOT DUP2 AND PUSH4 0xF23A6E61 PUSH1 0xE0 SHL EQ PUSH2 0x1E88 JUMPI PUSH1 0x40 MLOAD PUSH4 0x2BFA23E7 PUSH1 0xE1 SHL DUP2 MSTORE PUSH1 0x1 PUSH1 0x1 PUSH1 0xA0 SHL SUB DUP7 AND PUSH1 0x4 DUP3 ADD MSTORE PUSH1 0x24 ADD PUSH2 0x502 JUMP JUMPDEST PUSH1 0x1 PUSH1 0x1 PUSH1 0xA0 SHL SUB DUP5 AND EXTCODESIZE ISZERO PUSH2 0x885 JUMPI PUSH1 0x40 MLOAD PUSH4 0xBC197C81 PUSH1 0xE0 SHL DUP2 MSTORE PUSH1 0x1 PUSH1 0x1 PUSH1 0xA0 SHL SUB DUP6 AND SWAP1 PUSH4 0xBC197C81 SWAP1 PUSH2 0x22B9 SWAP1 DUP10 SWAP1 DUP10 SWAP1 DUP9 SWAP1 DUP9 SWAP1 DUP9 SWAP1 PUSH1 0x4 ADD PUSH2 0x2BA2 JUMP JUMPDEST PUSH1 0x20 PUSH1 0x40 MLOAD DUP1 DUP4 SUB DUP2 PUSH1 0x0 DUP8 GAS CALL SWAP3 POP POP POP DUP1 ISZERO PUSH2 0x22F4 JUMPI POP PUSH1 0x40 DUP1 MLOAD PUSH1 0x1F RETURNDATASIZE SWAP1 DUP2 ADD PUSH1 0x1F NOT AND DUP3 ADD SWAP1 SWAP3 MSTORE PUSH2 0x22F1 SWAP2 DUP2 ADD SWAP1 PUSH2 0x2B85 JUMP JUMPDEST PUSH1 0x1 JUMPDEST PUSH2 0x2322 JUMPI RETURNDATASIZE DUP1 DUP1 ISZERO PUSH2 0x21FE JUMPI PUSH1 0x40 MLOAD SWAP2 POP PUSH1 0x1F NOT PUSH1 0x3F RETURNDATASIZE ADD AND DUP3 ADD PUSH1 0x40 MSTORE RETURNDATASIZE DUP3 MSTORE RETURNDATASIZE PUSH1 0x0 PUSH1 0x20 DUP5 ADD RETURNDATACOPY PUSH2 0x2203 JUMP JUMPDEST PUSH1 0x1 PUSH1 0x1 PUSH1 0xE0 SHL SUB NOT DUP2 AND PUSH4 0xBC197C81 PUSH1 0xE0 SHL EQ PUSH2 0x1E88 JUMPI PUSH1 0x40 MLOAD PUSH4 0x2BFA23E7 PUSH1 0xE1 SHL DUP2 MSTORE PUSH1 0x1 PUSH1 0x1 PUSH1 0xA0 SHL SUB DUP7 AND PUSH1 0x4 DUP3 ADD MSTORE PUSH1 0x24 ADD PUSH2 0x502 JUMP JUMPDEST DUP1 CALLDATALOAD PUSH1 0x1 PUSH1 0x1 PUSH1 0xA0 SHL SUB DUP2 AND DUP2 EQ PUSH2 0x2375 JUMPI PUSH1 0x0 DUP1 REVERT JUMPDEST SWAP2 SWAP1 POP JUMP JUMPDEST PUSH1 0x0 DUP1 PUSH1 0x40 DUP4 DUP6 SUB SLT ISZERO PUSH2 0x238D JUMPI PUSH1 0x0 DUP1 REVERT JUMPDEST PUSH2 0x2396 DUP4 PUSH2 0x235E JUMP JUMPDEST SWAP5 PUSH1 0x20 SWAP4 SWAP1 SWAP4 ADD CALLDATALOAD SWAP4 POP POP POP JUMP JUMPDEST PUSH1 0x1 PUSH1 0x1 PUSH1 0xE0 SHL SUB NOT DUP2 AND DUP2 EQ PUSH2 0x165D JUMPI PUSH1 0x0 DUP1 REVERT JUMPDEST PUSH1 0x0 PUSH1 0x20 DUP3 DUP5 SUB SLT ISZERO PUSH2 0x23CC JUMPI PUSH1 0x0 DUP1 REVERT JUMPDEST DUP2 CALLDATALOAD PUSH2 0x1283 DUP2 PUSH2 0x23A4 JUMP JUMPDEST DUP1 CALLDATALOAD PUSH2 0xFFFF DUP2 AND DUP2 EQ PUSH2 0x2375 JUMPI PUSH1 0x0 DUP1 REVERT JUMPDEST PUSH1 0x0 DUP1 PUSH1 0x40 DUP4 DUP6 SUB SLT ISZERO PUSH2 0x23FC JUMPI PUSH1 0x0 DUP1 REVERT JUMPDEST PUSH2 0x2396 DUP4 PUSH2 0x23D7 JUMP JUMPDEST PUSH1 0x0 PUSH1 0x20 DUP3 DUP5 SUB SLT ISZERO PUSH2 0x2417 JUMPI PUSH1 0x0 DUP1 REVERT JUMPDEST POP CALLDATALOAD SWAP2 SWAP1 POP JUMP JUMPDEST PUSH1 0x0 DUP2 MLOAD DUP1 DUP5 MSTORE PUSH1 0x0 JUMPDEST DUP2 DUP2 LT ISZERO PUSH2 0x2444 JUMPI PUSH1 0x20 DUP2 DUP6 ADD DUP2 ADD MLOAD DUP7 DUP4 ADD DUP3 ADD MSTORE ADD PUSH2 0x2428 JUMP JUMPDEST POP PUSH1 0x0 PUSH1 0x20 DUP3 DUP7 ADD ADD MSTORE PUSH1 0x20 PUSH1 0x1F NOT PUSH1 0x1F DUP4 ADD AND DUP6 ADD ADD SWAP2 POP POP SWAP3 SWAP2 POP POP JUMP JUMPDEST PUSH1 0x20 DUP2 MSTORE PUSH1 0x0 PUSH2 0x1283 PUSH1 0x20 DUP4 ADD DUP5 PUSH2 0x241E JUMP JUMPDEST PUSH4 0x4E487B71 PUSH1 0xE0 SHL PUSH1 0x0 MSTORE PUSH1 0x41 PUSH1 0x4 MSTORE PUSH1 0x24 PUSH1 0x0 REVERT JUMPDEST PUSH1 0x40 MLOAD PUSH1 0x1F DUP3 ADD PUSH1 0x1F NOT AND DUP2 ADD PUSH8 0xFFFFFFFFFFFFFFFF DUP2 GT DUP3 DUP3 LT OR ISZERO PUSH2 0x24B6 JUMPI PUSH2 0x24B6 PUSH2 0x2477 JUMP JUMPDEST PUSH1 0x40 MSTORE SWAP2 SWAP1 POP JUMP JUMPDEST PUSH1 0x0 PUSH8 0xFFFFFFFFFFFFFFFF DUP3 GT ISZERO PUSH2 0x24D8 JUMPI PUSH2 0x24D8 PUSH2 0x2477 JUMP JUMPDEST POP PUSH1 0x5 SHL PUSH1 0x20 ADD SWAP1 JUMP JUMPDEST PUSH1 0x0 DUP3 PUSH1 0x1F DUP4 ADD SLT PUSH2 0x24F3 JUMPI PUSH1 0x0 DUP1 REVERT JUMPDEST DUP2 CALLDATALOAD PUSH1 0x20 PUSH2 0x2508 PUSH2 0x2503 DUP4 PUSH2 0x24BE JUMP JUMPDEST PUSH2 0x248D JUMP JUMPDEST DUP1 DUP4 DUP3 MSTORE PUSH1 0x20 DUP3 ADD SWAP2 POP PUSH1 0x20 DUP5 PUSH1 0x5 SHL DUP8 ADD ADD SWAP4 POP DUP7 DUP5 GT ISZERO PUSH2 0x252A JUMPI PUSH1 0x0 DUP1 REVERT JUMPDEST PUSH1 0x20 DUP7 ADD JUMPDEST DUP5 DUP2 LT ISZERO PUSH2 0x2546 JUMPI DUP1 CALLDATALOAD DUP4 MSTORE SWAP2 DUP4 ADD SWAP2 DUP4 ADD PUSH2 0x252F JUMP JUMPDEST POP SWAP7 SWAP6 POP POP POP POP POP POP JUMP JUMPDEST PUSH1 0x0 DUP3 PUSH1 0x1F DUP4 ADD SLT PUSH2 0x2562 JUMPI PUSH1 0x0 DUP1 REVERT JUMPDEST DUP2 CALLDATALOAD PUSH8 0xFFFFFFFFFFFFFFFF DUP2 GT ISZERO PUSH2 0x257C JUMPI PUSH2 0x257C PUSH2 0x2477 JUMP JUMPDEST PUSH2 0x258F PUSH1 0x1F DUP3 ADD PUSH1 0x1F NOT AND PUSH1 0x20 ADD PUSH2 0x248D JUMP JUMPDEST DUP2 DUP2 MSTORE DUP5 PUSH1 0x20 DUP4 DUP7 ADD ADD GT ISZERO PUSH2 0x25A4 JUMPI PUSH1 0x0 DUP1 REVERT JUMPDEST DUP2 PUSH1 0x20 DUP6 ADD PUSH1 0x20 DUP4 ADD CALLDATACOPY PUSH1 0x0 SWAP2 DUP2 ADD PUSH1 0x20 ADD SWAP2 SWAP1 SWAP2 MSTORE SWAP4 SWAP3 POP POP POP JUMP JUMPDEST PUSH1 0x0 DUP1 PUSH1 0x0 DUP1 PUSH1 0x0 PUSH1 0xA0 DUP7 DUP9 SUB SLT ISZERO PUSH2 0x25D9 JUMPI PUSH1 0x0 DUP1 REVERT JUMPDEST PUSH2 0x25E2 DUP7 PUSH2 0x235E JUMP JUMPDEST SWAP5 POP PUSH2 0x25F0 PUSH1 0x20 DUP8 ADD PUSH2 0x235E JUMP JUMPDEST SWAP4 POP PUSH1 0x40 DUP7 ADD CALLDATALOAD PUSH8 0xFFFFFFFFFFFFFFFF DUP1 DUP3 GT ISZERO PUSH2 0x260D JUMPI PUSH1 0x0 DUP1 REVERT JUMPDEST PUSH2 0x2619 DUP10 DUP4 DUP11 ADD PUSH2 0x24E2 JUMP JUMPDEST SWAP5 POP PUSH1 0x60 DUP9 ADD CALLDATALOAD SWAP2 POP DUP1 DUP3 GT ISZERO PUSH2 0x262F JUMPI PUSH1 0x0 DUP1 REVERT JUMPDEST PUSH2 0x263B DUP10 DUP4 DUP11 ADD PUSH2 0x24E2 JUMP JUMPDEST SWAP4 POP PUSH1 0x80 DUP9 ADD CALLDATALOAD SWAP2 POP DUP1 DUP3 GT ISZERO PUSH2 0x2651 JUMPI PUSH1 0x0 DUP1 REVERT JUMPDEST POP PUSH2 0x265E DUP9 DUP3 DUP10 ADD PUSH2 0x2551 JUMP JUMPDEST SWAP2 POP POP SWAP3 SWAP6 POP SWAP3 SWAP6 SWAP1 SWAP4 POP JUMP JUMPDEST PUSH1 0x0 DUP1 PUSH1 0x40 DUP4 DUP6 SUB SLT ISZERO PUSH2 0x267E JUMPI PUSH1 0x0 DUP1 REVERT JUMPDEST DUP3 CALLDATALOAD PUSH8 0xFFFFFFFFFFFFFFFF DUP1 DUP3 GT ISZERO PUSH2 0x2696 JUMPI PUSH1 0x0 DUP1 REVERT JUMPDEST DUP2 DUP6 ADD SWAP2 POP DUP6 PUSH1 0x1F DUP4 ADD SLT PUSH2 0x26AA JUMPI PUSH1 0x0 DUP1 REVERT JUMPDEST DUP2 CALLDATALOAD PUSH1 0x20 PUSH2 0x26BA PUSH2 0x2503 DUP4 PUSH2 0x24BE JUMP JUMPDEST DUP3 DUP2 MSTORE PUSH1 0x5 SWAP3 SWAP1 SWAP3 SHL DUP5 ADD DUP2 ADD SWAP2 DUP2 DUP2 ADD SWAP1 DUP10 DUP5 GT ISZERO PUSH2 0x26D9 JUMPI PUSH1 0x0 DUP1 REVERT JUMPDEST SWAP5 DUP3 ADD SWAP5 JUMPDEST DUP4 DUP7 LT ISZERO PUSH2 0x26FE JUMPI PUSH2 0x26EF DUP7 PUSH2 0x235E JUMP JUMPDEST DUP3 MSTORE SWAP5 DUP3 ADD SWAP5 SWAP1 DUP3 ADD SWAP1 PUSH2 0x26DE JUMP JUMPDEST SWAP7 POP POP DUP7 ADD CALLDATALOAD SWAP3 POP POP DUP1 DUP3 GT ISZERO PUSH2 0x2714 JUMPI PUSH1 0x0 DUP1 REVERT JUMPDEST POP PUSH2 0x2721 DUP6 DUP3 DUP7 ADD PUSH2 0x24E2 JUMP JUMPDEST SWAP2 POP POP SWAP3 POP SWAP3 SWAP1 POP JUMP JUMPDEST PUSH1 0x0 DUP2 MLOAD DUP1 DUP5 MSTORE PUSH1 0x20 DUP1 DUP6 ADD SWAP5 POP PUSH1 0x20 DUP5 ADD PUSH1 0x0 JUMPDEST DUP4 DUP2 LT ISZERO PUSH2 0x275C JUMPI DUP2 MLOAD DUP8 MSTORE SWAP6 DUP3 ADD SWAP6 SWAP1 DUP3 ADD SWAP1 PUSH1 0x1 ADD PUSH2 0x2740 JUMP JUMPDEST POP SWAP5 SWAP6 SWAP5 POP POP POP POP POP JUMP JUMPDEST PUSH1 0x20 DUP2 MSTORE PUSH1 0x0 PUSH2 0x1283 PUSH1 0x20 DUP4 ADD DUP5 PUSH2 0x272B JUMP JUMPDEST PUSH1 0x0 DUP1 PUSH1 0x0 DUP1 PUSH1 0x80 DUP6 DUP8 SUB SLT ISZERO PUSH2 0x2790 JUMPI PUSH1 0x0 DUP1 REVERT JUMPDEST PUSH2 0x2799 DUP6 PUSH2 0x235E JUMP JUMPDEST SWAP4 POP PUSH2 0x27A7 PUSH1 0x20 DUP7 ADD PUSH2 0x23D7 JUMP JUMPDEST SWAP4 SWAP7 SWAP4 SWAP6 POP POP POP POP PUSH1 0x40 DUP3 ADD CALLDATALOAD SWAP2 PUSH1 0x60 ADD CALLDATALOAD SWAP1 JUMP JUMPDEST DUP1 ISZERO ISZERO DUP2 EQ PUSH2 0x165D JUMPI PUSH1 0x0 DUP1 REVERT JUMPDEST PUSH1 0x0 DUP1 PUSH1 0x40 DUP4 DUP6 SUB SLT ISZERO PUSH2 0x27DD JUMPI PUSH1 0x0 DUP1 REVERT JUMPDEST PUSH2 0x27E6 DUP4 PUSH2 0x235E JUMP JUMPDEST SWAP2 POP PUSH1 0x20 DUP4 ADD CALLDATALOAD PUSH2 0x27F6 DUP2 PUSH2 0x27BC JUMP JUMPDEST DUP1 SWAP2 POP POP SWAP3 POP SWAP3 SWAP1 POP JUMP JUMPDEST PUSH1 0x0 DUP1 PUSH1 0x0 DUP1 PUSH1 0x80 DUP6 DUP8 SUB SLT ISZERO PUSH2 0x2817 JUMPI PUSH1 0x0 DUP1 REVERT JUMPDEST PUSH2 0x2799 DUP6 PUSH2 0x23D7 JUMP JUMPDEST PUSH1 0x0 DUP1 PUSH1 0x40 DUP4 DUP6 SUB SLT ISZERO PUSH2 0x2833 JUMPI PUSH1 0x0 DUP1 REVERT JUMPDEST PUSH2 0x283C DUP4 PUSH2 0x235E JUMP JUMPDEST SWAP2 POP PUSH2 0x284A PUSH1 0x20 DUP5 ADD PUSH2 0x235E JUMP JUMPDEST SWAP1 POP SWAP3 POP SWAP3 SWAP1 POP JUMP JUMPDEST PUSH1 0x0 PUSH1 0x20 DUP3 DUP5 SUB SLT ISZERO PUSH2 0x2865 JUMPI PUSH1 0x0 DUP1 REVERT JUMPDEST PUSH2 0x1283 DUP3 PUSH2 0x23D7 JUMP JUMPDEST PUSH1 0x20 DUP1 DUP3 MSTORE DUP3 MLOAD DUP3 DUP3 ADD DUP2 SWAP1 MSTORE PUSH1 0x0 SWAP2 SWAP1 PUSH1 0x40 SWAP1 DUP2 DUP6 ADD SWAP1 DUP7 DUP5 ADD DUP6 JUMPDEST DUP3 DUP2 LT ISZERO PUSH2 0x28D8 JUMPI DUP2 MLOAD DUP1 MLOAD PUSH1 0x1 PUSH1 0x1 PUSH1 0xA0 SHL SUB AND DUP6 MSTORE DUP7 DUP2 ADD MLOAD DUP8 DUP7 ADD MSTORE DUP6 DUP2 ADD MLOAD DUP7 DUP7 ADD MSTORE PUSH1 0x60 DUP1 DUP3 ADD MLOAD SWAP1 DUP7 ADD MSTORE PUSH1 0x80 SWAP1 DUP2 ADD MLOAD SWAP1 DUP6 ADD MSTORE PUSH1 0xA0 SWAP1 SWAP4 ADD SWAP3 SWAP1 DUP6 ADD SWAP1 PUSH1 0x1 ADD PUSH2 0x288B JUMP JUMPDEST POP SWAP2 SWAP8 SWAP7 POP POP POP POP POP POP POP JUMP JUMPDEST PUSH1 0x0 DUP1 PUSH1 0x0 DUP1 PUSH1 0x0 PUSH1 0xA0 DUP7 DUP9 SUB SLT ISZERO PUSH2 0x28FD JUMPI PUSH1 0x0 DUP1 REVERT JUMPDEST PUSH2 0x2906 DUP7 PUSH2 0x235E JUMP JUMPDEST SWAP5 POP PUSH2 0x2914 PUSH1 0x20 DUP8 ADD PUSH2 0x235E JUMP JUMPDEST SWAP4 POP PUSH1 0x40 DUP7 ADD CALLDATALOAD SWAP3 POP PUSH1 0x60 DUP7 ADD CALLDATALOAD SWAP2 POP PUSH1 0x80 DUP7 ADD CALLDATALOAD PUSH8 0xFFFFFFFFFFFFFFFF DUP2 GT ISZERO PUSH2 0x293E JUMPI PUSH1 0x0 DUP1 REVERT JUMPDEST PUSH2 0x265E DUP9 DUP3 DUP10 ADD PUSH2 0x2551 JUMP JUMPDEST PUSH1 0x0 PUSH1 0x20 DUP3 DUP5 SUB SLT ISZERO PUSH2 0x295C JUMPI PUSH1 0x0 DUP1 REVERT JUMPDEST PUSH2 0x1283 DUP3 PUSH2 0x235E JUMP JUMPDEST PUSH4 0x4E487B71 PUSH1 0xE0 SHL PUSH1 0x0 MSTORE PUSH1 0x11 PUSH1 0x4 MSTORE PUSH1 0x24 PUSH1 0x0 REVERT JUMPDEST DUP1 DUP3 MUL DUP2 ISZERO DUP3 DUP3 DIV DUP5 EQ OR PUSH2 0x498 JUMPI PUSH2 0x498 PUSH2 0x2965 JUMP JUMPDEST PUSH1 0x0 PUSH1 0x20 DUP3 DUP5 SUB SLT ISZERO PUSH2 0x29A4 JUMPI PUSH1 0x0 DUP1 REVERT JUMPDEST DUP2 MLOAD PUSH2 0x1283 DUP2 PUSH2 0x27BC JUMP JUMPDEST PUSH4 0x4E487B71 PUSH1 0xE0 SHL PUSH1 0x0 MSTORE PUSH1 0x12 PUSH1 0x4 MSTORE PUSH1 0x24 PUSH1 0x0 REVERT JUMPDEST PUSH1 0x0 DUP3 PUSH2 0x29D4 JUMPI PUSH2 0x29D4 PUSH2 0x29AF JUMP JUMPDEST POP DIV SWAP1 JUMP JUMPDEST DUP2 DUP2 SUB DUP2 DUP2 GT ISZERO PUSH2 0x498 JUMPI PUSH2 0x498 PUSH2 0x2965 JUMP JUMPDEST DUP1 DUP3 ADD DUP1 DUP3 GT ISZERO PUSH2 0x498 JUMPI PUSH2 0x498 PUSH2 0x2965 JUMP JUMPDEST PUSH1 0x1 DUP2 DUP2 SHR SWAP1 DUP3 AND DUP1 PUSH2 0x2A13 JUMPI PUSH1 0x7F DUP3 AND SWAP2 POP JUMPDEST PUSH1 0x20 DUP3 LT DUP2 SUB PUSH2 0x2A33 JUMPI PUSH4 0x4E487B71 PUSH1 0xE0 SHL PUSH1 0x0 MSTORE PUSH1 0x22 PUSH1 0x4 MSTORE PUSH1 0x24 PUSH1 0x0 REVERT JUMPDEST POP SWAP2 SWAP1 POP JUMP JUMPDEST PUSH4 0x4E487B71 PUSH1 0xE0 SHL PUSH1 0x0 MSTORE PUSH1 0x32 PUSH1 0x4 MSTORE PUSH1 0x24 PUSH1 0x0 REVERT JUMPDEST PUSH1 0x0 PUSH1 0x1 DUP3 ADD PUSH2 0x2A61 JUMPI PUSH2 0x2A61 PUSH2 0x2965 JUMP JUMPDEST POP PUSH1 0x1 ADD SWAP1 JUMP JUMPDEST PUSH2 0xFFFF DUP3 DUP2 AND DUP3 DUP3 AND SUB SWAP1 DUP1 DUP3 GT ISZERO PUSH2 0x2A83 JUMPI PUSH2 0x2A83 PUSH2 0x2965 JUMP JUMPDEST POP SWAP3 SWAP2 POP POP JUMP JUMPDEST PUSH1 0x0 PUSH2 0xFFFF DUP1 DUP5 AND DUP1 PUSH2 0x2A9F JUMPI PUSH2 0x2A9F PUSH2 0x29AF JUMP JUMPDEST SWAP3 AND SWAP2 SWAP1 SWAP2 MOD SWAP3 SWAP2 POP POP JUMP JUMPDEST PUSH1 0x0 PUSH2 0xFFFF DUP1 DUP5 AND DUP1 PUSH2 0x2AC0 JUMPI PUSH2 0x2AC0 PUSH2 0x29AF JUMP JUMPDEST SWAP3 AND SWAP2 SWAP1 SWAP2 DIV SWAP3 SWAP2 POP POP JUMP JUMPDEST PUSH1 0x1 DUP3 DUP2 SIGNEXTEND SWAP1 DUP3 SWAP1 SIGNEXTEND SUB PUSH2 0x7FFF NOT DUP2 SLT PUSH2 0x7FFF DUP3 SGT OR ISZERO PUSH2 0x498 JUMPI PUSH2 0x498 PUSH2 0x2965 JUMP JUMPDEST PUSH1 0x1 DUP2 DUP2 SIGNEXTEND SWAP1 DUP4 SWAP1 SIGNEXTEND ADD PUSH2 0x7FFF DUP2 SGT PUSH2 0x7FFF NOT DUP3 SLT OR ISZERO PUSH2 0x498 JUMPI PUSH2 0x498 PUSH2 0x2965 JUMP JUMPDEST PUSH1 0x40 DUP2 MSTORE PUSH1 0x0 PUSH2 0x2B25 PUSH1 0x40 DUP4 ADD DUP6 PUSH2 0x272B JUMP JUMPDEST DUP3 DUP2 SUB PUSH1 0x20 DUP5 ADD MSTORE PUSH2 0x2B37 DUP2 DUP6 PUSH2 0x272B JUMP JUMPDEST SWAP6 SWAP5 POP POP POP POP POP JUMP JUMPDEST PUSH1 0x1 PUSH1 0x1 PUSH1 0xA0 SHL SUB DUP7 DUP2 AND DUP3 MSTORE DUP6 AND PUSH1 0x20 DUP3 ADD MSTORE PUSH1 0x40 DUP2 ADD DUP5 SWAP1 MSTORE PUSH1 0x60 DUP2 ADD DUP4 SWAP1 MSTORE PUSH1 0xA0 PUSH1 0x80 DUP3 ADD DUP2 SWAP1 MSTORE PUSH1 0x0 SWAP1 PUSH2 0x2B7A SWAP1 DUP4 ADD DUP5 PUSH2 0x241E JUMP JUMPDEST SWAP8 SWAP7 POP POP POP POP POP POP POP JUMP JUMPDEST PUSH1 0x0 PUSH1 0x20 DUP3 DUP5 SUB SLT ISZERO PUSH2 0x2B97 JUMPI PUSH1 0x0 DUP1 REVERT JUMPDEST DUP2 MLOAD PUSH2 0x1283 DUP2 PUSH2 0x23A4 JUMP JUMPDEST PUSH1 0x1 PUSH1 0x1 PUSH1 0xA0 SHL SUB DUP7 DUP2 AND DUP3 MSTORE DUP6 AND PUSH1 0x20 DUP3 ADD MSTORE PUSH1 0xA0 PUSH1 0x40 DUP3 ADD DUP2 SWAP1 MSTORE PUSH1 0x0 SWAP1 PUSH2 0x2BCE SWAP1 DUP4 ADD DUP7 PUSH2 0x272B JUMP JUMPDEST DUP3 DUP2 SUB PUSH1 0x60 DUP5 ADD MSTORE PUSH2 0x2BE0 DUP2 DUP7 PUSH2 0x272B JUMP JUMPDEST SWAP1 POP DUP3 DUP2 SUB PUSH1 0x80 DUP5 ADD MSTORE PUSH2 0x2BF4 DUP2 DUP6 PUSH2 0x241E JUMP JUMPDEST SWAP9 SWAP8 POP POP POP POP POP POP POP POP JUMP INVALID LOG2 PUSH5 0x6970667358 0x22 SLT KECCAK256 PUSH28 0x120D6E946AFDB28695C84B2248D7ADDCDB958689EB220B4F15B7CBE7 BLOCKHASH 0xD7 TSTORE PUSH5 0x736F6C6343 STOP ADDMOD XOR STOP CALLER PUSH9 0x747470733A2F2F6170 PUSH10 0x2E6B696C6C67616D652E PUSH2 0x692F PUSH14 0x657461646174612F7B69647D2E6A PUSH20 0x6F6E000000000000000000000000000000000000 "},"methodIdentifiers":{"BURN_BPS()":"a37a9fc0","BURN_OF_TREASURY_BPS()":"081e87b9","MOVE_COST()":"94456848","SENDER_BPS()":"3b8726e2","SPAWN_COST()":"c704c3f1","TREASURY_BPS()":"4c25d197","adminWithdraw(uint256)":"7c5b4a37","agentStacks(address,uint256)":"edbd5df8","balanceOf(address,uint256)":"00fdd58e","balanceOfBatch(address[],uint256[])":"4e1273f4","getBirthBlock(address,uint256)":"b8011328","getFullStack(uint16)":"ef0a1311","getPendingBounty(address,uint256)":"ea075ee1","isApprovedForAll(address,address)":"e985e9c5","kill(address,uint16,uint256,uint256)":"91fa2a6a","killToken()":"2bd7cd17","move(uint16,uint16,uint256,uint256)":"e74fe237","owner()":"8da5cb5b","renounceOwnership()":"715018a6","safeBatchTransferFrom(address,address,uint256[],uint256[],bytes)":"2eb2c2d6","safeTransferFrom(address,address,uint256,uint256,bytes)":"f242432a","setApprovalForAll(address,bool)":"a22cb465","spawn(uint16,uint256)":"09f61826","supportsInterface(bytes4)":"01ffc9a7","totalKillBurned()":"88b00adc","totalKillExtracted()":"5635fdbc","totalReaperKilled()":"2ee8174e","totalUnitsKilled()":"78129882","totalUnitsMinted()":"0a08f3d0","transferOwnership(address)":"f2fde38b","treasuryBalance()":"313dab20","uri(uint256)":"0e89341c"}},"storageLayout":{"storage":[{"astId":326,"contract":"contracts/KillGame.sol:KILLGame","label":"_balances","offset":0,"slot":"0","type":"t_mapping(t_uint256,t_mapping(t_address,t_uint256))"},{"astId":332,"contract":"contracts/KillGame.sol:KILLGame","label":"_operatorApprovals","offset":0,"slot":"1","type":"t_mapping(t_address,t_mapping(t_address,t_bool))"},{"astId":334,"contract":"contracts/KillGame.sol:KILLGame","label":"_uri","offset":0,"slot":"2","type":"t_string_storage"},{"astId":3357,"contract":"contracts/KillGame.sol:KILLGame","label":"_status","offset":0,"slot":"3","type":"t_uint256"},{"astId":8,"contract":"contracts/KillGame.sol:KILLGame","label":"_owner","offset":0,"slot":"4","type":"t_address"},{"astId":7190,"contract":"contracts/KillGame.sol:KILLGame","label":"treasuryBalance","offset":0,"slot":"5","type":"t_uint256"},{"astId":7192,"contract":"contracts/KillGame.sol:KILLGame","label":"totalUnitsMinted","offset":0,"slot":"6","type":"t_uint256"},{"astId":7194,"contract":"contracts/KillGame.sol:KILLGame","label":"totalUnitsKilled","offset":0,"slot":"7","type":"t_uint256"},{"astId":7196,"contract":"contracts/KillGame.sol:KILLGame","label":"totalReaperKilled","offset":0,"slot":"8","type":"t_uint256"},{"astId":7198,"contract":"contracts/KillGame.sol:KILLGame","label":"totalKillExtracted","offset":0,"slot":"9","type":"t_uint256"},{"astId":7200,"contract":"contracts/KillGame.sol:KILLGame","label":"totalKillBurned","offset":0,"slot":"10","type":"t_uint256"},{"astId":7230,"contract":"contracts/KillGame.sol:KILLGame","label":"agentStacks","offset":0,"slot":"11","type":"t_mapping(t_address,t_mapping(t_uint256,t_struct(ReaperStack)7203_storage))"},{"astId":7235,"contract":"contracts/KillGame.sol:KILLGame","label":"stackOccupants","offset":0,"slot":"12","type":"t_mapping(t_uint256,t_array(t_address)dyn_storage)"},{"astId":7241,"contract":"contracts/KillGame.sol:KILLGame","label":"isOccupying","offset":0,"slot":"13","type":"t_mapping(t_uint256,t_mapping(t_address,t_bool))"}],"types":{"t_address":{"encoding":"inplace","label":"address","numberOfBytes":"20"},"t_array(t_address)dyn_storage":{"base":"t_address","encoding":"dynamic_array","label":"address[]","numberOfBytes":"32"},"t_bool":{"encoding":"inplace","label":"bool","numberOfBytes":"1"},"t_mapping(t_address,t_bool)":{"encoding":"mapping","key":"t_address","label":"mapping(address => bool)","numberOfBytes":"32","value":"t_bool"},"t_mapping(t_address,t_mapping(t_address,t_bool))":{"encoding":"mapping","key":"t_address","label":"mapping(address => mapping(address => bool))","numberOfBytes":"32","value":"t_mapping(t_address,t_bool)"},"t_mapping(t_address,t_mapping(t_uint256,t_struct(ReaperStack)7203_storage))":{"encoding":"mapping","key":"t_address","label":"mapping(address => mapping(uint256 => struct KILLGame.ReaperStack))","numberOfBytes":"32","value":"t_mapping(t_uint256,t_struct(ReaperStack)7203_storage)"},"t_mapping(t_address,t_uint256)":{"encoding":"mapping","key":"t_address","label":"mapping(address => uint256)","numberOfBytes":"32","value":"t_uint256"},"t_mapping(t_uint256,t_array(t_address)dyn_storage)":{"encoding":"mapping","key":"t_uint256","label":"mapping(uint256 => address[])","numberOfBytes":"32","value":"t_array(t_address)dyn_storage"},"t_mapping(t_uint256,t_mapping(t_address,t_bool))":{"encoding":"mapping","key":"t_uint256","label":"mapping(uint256 => mapping(address => bool))","numberOfBytes":"32","value":"t_mapping(t_address,t_bool)"},"t_mapping(t_uint256,t_mapping(t_address,t_uint256))":{"encoding":"mapping","key":"t_uint256","label":"mapping(uint256 => mapping(address => uint256))","numberOfBytes":"32","value":"t_mapping(t_address,t_uint256)"},"t_mapping(t_uint256,t_struct(ReaperStack)7203_storage)":{"encoding":"mapping","key":"t_uint256","label":"mapping(uint256 => struct KILLGame.ReaperStack)","numberOfBytes":"32","value":"t_struct(ReaperStack)7203_storage"},"t_string_storage":{"encoding":"bytes","label":"string","numberOfBytes":"32"},"t_struct(ReaperStack)7203_storage":{"encoding":"inplace","label":"struct KILLGame.ReaperStack","members":[{"astId":7202,"contract":"contracts/KillGame.sol:KILLGame","label":"birthBlock","offset":0,"slot":"0","type":"t_uint256"}],"numberOfBytes":"32"},"t_uint256":{"encoding":"inplace","label":"uint256","numberOfBytes":"32"}}}}}}