{"contracts/KillGame.sol":{"KILLGame":{"abi":[{"inputs":[],"stateMutability":"nonpayable","type":"constructor"},{"anonymous":false,"inputs":[{"indexed":true,"internalType":"address","name":"account","type":"address"},{"indexed":true,"internalType":"address","name":"operator","type":"address"},{"indexed":false,"internalType":"bool","name":"approved","type":"bool"}],"name":"ApprovalForAll","type":"event"},{"anonymous":false,"inputs":[{"indexed":true,"internalType":"address","name":"operator","type":"address"},{"indexed":true,"internalType":"address","name":"from","type":"address"},{"indexed":true,"internalType":"address","name":"to","type":"address"},{"indexed":false,"internalType":"uint256[]","name":"ids","type":"uint256[]"},{"indexed":false,"internalType":"uint256[]","name":"values","type":"uint256[]"}],"name":"TransferBatch","type":"event"},{"anonymous":false,"inputs":[{"indexed":true,"internalType":"address","name":"operator","type":"address"},{"indexed":true,"internalType":"address","name":"from","type":"address"},{"indexed":true,"internalType":"address","name":"to","type":"address"},{"indexed":false,"internalType":"uint256","name":"id","type":"uint256"},{"indexed":false,"internalType":"uint256","name":"value","type":"uint256"}],"name":"TransferSingle","type":"event"},{"anonymous":false,"inputs":[{"indexed":false,"internalType":"string","name":"value","type":"string"},{"indexed":true,"internalType":"uint256","name":"id","type":"uint256"}],"name":"URI","type":"event"},{"inputs":[],"name":"BOOST_RECOIL","outputs":[{"internalType":"uint256","name":"","type":"uint256"}],"stateMutability":"view","type":"function"},{"inputs":[],"name":"BOOST_REQUIRED","outputs":[{"internalType":"uint256","name":"","type":"uint256"}],"stateMutability":"view","type":"function"},{"inputs":[],"name":"BURN_BPS","outputs":[{"internalType":"uint256","name":"","type":"uint256"}],"stateMutability":"view","type":"function"},{"inputs":[],"name":"SPAWN_COST","outputs":[{"internalType":"uint256","name":"","type":"uint256"}],"stateMutability":"view","type":"function"},{"inputs":[],"name":"TREASURY_BPS","outputs":[{"internalType":"uint256","name":"","type":"uint256"}],"stateMutability":"view","type":"function"},{"inputs":[{"internalType":"address","name":"","type":"address"},{"internalType":"uint256","name":"","type":"uint256"}],"name":"agentStacks","outputs":[{"internalType":"uint256","name":"birthBlock","type":"uint256"}],"stateMutability":"view","type":"function"},{"inputs":[{"internalType":"address","name":"account","type":"address"},{"internalType":"uint256","name":"id","type":"uint256"}],"name":"balanceOf","outputs":[{"internalType":"uint256","name":"","type":"uint256"}],"stateMutability":"view","type":"function"},{"inputs":[{"internalType":"address[]","name":"accounts","type":"address[]"},{"internalType":"uint256[]","name":"ids","type":"uint256[]"}],"name":"balanceOfBatch","outputs":[{"internalType":"uint256[]","name":"","type":"uint256[]"}],"stateMutability":"view","type":"function"},{"inputs":[{"internalType":"address","name":"agent","type":"address"},{"internalType":"uint256","name":"tokenId","type":"uint256"}],"name":"getPendingBounty","outputs":[{"internalType":"uint256","name":"","type":"uint256"}],"stateMutability":"view","type":"function"},{"inputs":[{"internalType":"uint16","name":"","type":"uint16"}],"name":"grid","outputs":[{"internalType":"uint16","name":"id","type":"uint16"},{"internalType":"uint256","name":"totalUnits","type":"uint256"}],"stateMutability":"view","type":"function"},{"inputs":[{"internalType":"address","name":"account","type":"address"},{"internalType":"address","name":"operator","type":"address"}],"name":"isApprovedForAll","outputs":[{"internalType":"bool","name":"","type":"bool"}],"stateMutability":"view","type":"function"},{"inputs":[{"internalType":"address","name":"target","type":"address"},{"internalType":"uint16","name":"cube","type":"uint16"},{"internalType":"uint256","name":"amountToKill","type":"uint256"},{"internalType":"bool","name":"boosted","type":"bool"}],"name":"kill","outputs":[{"internalType":"uint256","name":"bountyPaid","type":"uint256"}],"stateMutability":"nonpayable","type":"function"},{"inputs":[{"internalType":"uint16","name":"fromCube","type":"uint16"},{"internalType":"uint16","name":"toCube","type":"uint16"},{"internalType":"uint256","name":"units","type":"uint256"},{"internalType":"bool","name":"boosted","type":"bool"}],"name":"move","outputs":[],"stateMutability":"nonpayable","type":"function"},{"inputs":[{"internalType":"address","name":"from","type":"address"},{"internalType":"address","name":"to","type":"address"},{"internalType":"uint256[]","name":"ids","type":"uint256[]"},{"internalType":"uint256[]","name":"amounts","type":"uint256[]"},{"internalType":"bytes","name":"data","type":"bytes"}],"name":"safeBatchTransferFrom","outputs":[],"stateMutability":"nonpayable","type":"function"},{"inputs":[{"internalType":"address","name":"from","type":"address"},{"internalType":"address","name":"to","type":"address"},{"internalType":"uint256","name":"id","type":"uint256"},{"internalType":"uint256","name":"amount","type":"uint256"},{"internalType":"bytes","name":"data","type":"bytes"}],"name":"safeTransferFrom","outputs":[],"stateMutability":"nonpayable","type":"function"},{"inputs":[{"internalType":"address","name":"operator","type":"address"},{"internalType":"bool","name":"approved","type":"bool"}],"name":"setApprovalForAll","outputs":[],"stateMutability":"nonpayable","type":"function"},{"inputs":[{"internalType":"uint16","name":"cube","type":"uint16"},{"internalType":"uint256","name":"units","type":"uint256"},{"internalType":"bool","name":"boosted","type":"bool"}],"name":"spawn","outputs":[],"stateMutability":"payable","type":"function"},{"inputs":[{"internalType":"bytes4","name":"interfaceId","type":"bytes4"}],"name":"supportsInterface","outputs":[{"internalType":"bool","name":"","type":"bool"}],"stateMutability":"view","type":"function"},{"inputs":[],"name":"treasuryBalance","outputs":[{"internalType":"uint256","name":"","type":"uint256"}],"stateMutability":"view","type":"function"},{"inputs":[{"internalType":"uint256","name":"","type":"uint256"}],"name":"uri","outputs":[{"internalType":"string","name":"","type":"string"}],"stateMutability":"view","type":"function"}],"evm":{"bytecode":{"linkReferences":{},"object":"60806040523480156200001157600080fd5b506040518060600160405280602a815260200162003929602a91396200003d816200004c60201b60201c565b506001600381905550620003c2565b80600290816200005d9190620002db565b5050565b600081519050919050565b7f4e487b7100000000000000000000000000000000000000000000000000000000600052604160045260246000fd5b7f4e487b7100000000000000000000000000000000000000000000000000000000600052602260045260246000fd5b60006002820490506001821680620000e357607f821691505b602082108103620000f957620000f86200009b565b5b50919050565b60008190508160005260206000209050919050565b60006020601f8301049050919050565b600082821b905092915050565b600060088302620001637fffffffffffffffffffffffffffffffffffffffffffffffffffffffffffffffff8262000124565b6200016f868362000124565b95508019841693508086168417925050509392505050565b6000819050919050565b6000819050919050565b6000620001bc620001b6620001b08462000187565b62000191565b62000187565b9050919050565b6000819050919050565b620001d8836200019b565b620001f0620001e782620001c3565b84845462000131565b825550505050565b600090565b62000207620001f8565b62000214818484620001cd565b505050565b5b818110156200023c5762000230600082620001fd565b6001810190506200021a565b5050565b601f8211156200028b576200025581620000ff565b620002608462000114565b8101602085101562000270578190505b620002886200027f8562000114565b83018262000219565b50505b505050565b600082821c905092915050565b6000620002b06000198460080262000290565b1980831691505092915050565b6000620002cb83836200029d565b9150826002028217905092915050565b620002e68262000061565b67ffffffffffffffff8111156200030257620003016200006c565b5b6200030e8254620000ca565b6200031b82828562000240565b600060209050601f8311600181146200035357600084156200033e578287015190505b6200034a8582620002bd565b865550620003ba565b601f1984166200036386620000ff565b60005b828110156200038d5784890151825560018201915060208501945060208101905062000366565b86831015620003ad5784890151620003a9601f8916826200029d565b8355505b6001600288020188555050505b505050505050565b61355780620003d26000396000f3fe60806040526004361061011e5760003560e01c80636950ed03116100a0578063cd000d3311610064578063cd000d33146103ed578063e985e9c51461042b578063ea075ee114610468578063edbd5df8146104a5578063f242432a146104e25761011e565b80636950ed03146103085780637a2b372014610331578063a22cb4651461036e578063a37a9fc014610397578063c704c3f1146103c25761011e565b806344b70ac4116100e757806344b70ac41461022e5780634c25d197146102595780634cf5317b146102845780634e1273f4146102af5780635d69a710146102ec5761011e565b8062fdd58e1461012357806301ffc9a7146101605780630e89341c1461019d5780632eb2c2d6146101da578063313dab2014610203575b600080fd5b34801561012f57600080fd5b5061014a60048036038101906101459190611f34565b61050b565b6040516101579190611f83565b60405180910390f35b34801561016c57600080fd5b5061018760048036038101906101829190611ff6565b6105d3565b604051610194919061203e565b60405180910390f35b3480156101a957600080fd5b506101c460048036038101906101bf9190612059565b6105e5565b6040516101d19190612116565b60405180910390f35b3480156101e657600080fd5b5061020160048036038101906101fc9190612335565b610679565b005b34801561020f57600080fd5b5061021861071a565b6040516102259190611f83565b60405180910390f35b34801561023a57600080fd5b50610243610720565b6040516102509190611f83565b60405180910390f35b34801561026557600080fd5b5061026e610725565b60405161027b9190611f83565b60405180910390f35b34801561029057600080fd5b5061029961072b565b6040516102a69190611f83565b60405180910390f35b3480156102bb57600080fd5b506102d660048036038101906102d191906124c7565b610731565b6040516102e391906125fd565b60405180910390f35b61030660048036038101906103019190612685565b610844565b005b34801561031457600080fd5b5061032f600480360381019061032a91906126d8565b610927565b005b34801561033d57600080fd5b506103586004803603810190610353919061273f565b6109ed565b6040516103659190611f83565b60405180910390f35b34801561037a57600080fd5b50610395600480360381019061039091906127a6565b610b31565b005b3480156103a357600080fd5b506103ac610b47565b6040516103b99190611f83565b60405180910390f35b3480156103ce57600080fd5b506103d7610b4d565b6040516103e49190611f83565b60405180910390f35b3480156103f957600080fd5b50610414600480360381019061040f91906127e6565b610b52565b604051610422929190612822565b60405180910390f35b34801561043757600080fd5b50610452600480360381019061044d919061284b565b610b84565b60405161045f919061203e565b60405180910390f35b34801561047457600080fd5b5061048f600480360381019061048a9190611f34565b610c18565b60405161049c9190611f83565b60405180910390f35b3480156104b157600080fd5b506104cc60048036038101906104c79190611f34565b610ca0565b6040516104d99190611f83565b60405180910390f35b3480156104ee57600080fd5b506105096004803603810190610504919061288b565b610ccb565b005b60008073ffffffffffffffffffffffffffffffffffffffff168373ffffffffffffffffffffffffffffffffffffffff160361057b576040517f08c379a000000000000000000000000000000000000000000000000000000000815260040161057290612994565b60405180910390fd5b60008083815260200190815260200160002060008473ffffffffffffffffffffffffffffffffffffffff1673ffffffffffffffffffffffffffffffffffffffff16815260200190815260200160002054905092915050565b60006105de82610d6c565b9050919050565b6060600280546105f4906129e3565b80601f0160208091040260200160405190810160405280929190818152602001828054610620906129e3565b801561066d5780601f106106425761010080835404028352916020019161066d565b820191906000526020600020905b81548152906001019060200180831161065057829003601f168201915b50505050509050919050565b610681610e4e565b73ffffffffffffffffffffffffffffffffffffffff168573ffffffffffffffffffffffffffffffffffffffff1614806106c757506106c6856106c1610e4e565b610b84565b5b610706576040517f08c379a00000000000000000000000000000000000000000000000000000000081526004016106fd90612a86565b60405180910390fd5b6107138585858585610e56565b5050505050565b60065481565b604281565b61247681565b61029a81565b60608151835114610777576040517f08c379a000000000000000000000000000000000000000000000000000000000815260040161076e90612b18565b60405180910390fd5b6000835167ffffffffffffffff8111156107945761079361213d565b5b6040519080825280602002602001820160405280156107c25781602001602082028036833780820191505090505b50905060005b84518110156108395761080f8582815181106107e7576107e6612b38565b5b602002602001015185838151811061080257610801612b38565b5b602002602001015161050b565b82828151811061082257610821612b38565b5b6020026020010181815250508060010190506107c8565b508091505092915050565b600081610855578361ffff16610867565b60d88461ffff166108669190612b96565b5b90506000600a846108789190612bca565b90506127106124768261088b9190612bca565b6108959190612c3b565b600660008282546108a69190612b96565b925050819055506108c833838660405180602001604052806000815250611171565b43600460003373ffffffffffffffffffffffffffffffffffffffff1673ffffffffffffffffffffffffffffffffffffffff1681526020019081526020016000206000848152602001908152602001600020600001819055505050505050565b600081610938578461ffff1661094a565b60d88561ffff166109499190612b96565b5b905060008261095d578461ffff1661096f565b60d88561ffff1661096e9190612b96565b5b905061098d3333848760405180602001604052806000815250611321565b43600460003373ffffffffffffffffffffffffffffffffffffffff1673ffffffffffffffffffffffffffffffffffffffff168152602001908152602001600020600083815260200190815260200160002060000181905550505050505050565b60006109f76115bc565b600082610a08578461ffff16610a1a565b60d88561ffff16610a199190612b96565b5b9050600083610a3557600285610a309190612bca565b610a44565b61029a85610a439190612bca565b5b905080610a51338461050b565b1015610a92576040517f08c379a0000000000000000000000000000000000000000000000000000000008152600401610a8990612cb8565b60405180910390fd5b610a9c8783610c18565b9250600084610aab5785610ab9565b604286610ab89190612bca565b5b9050610ac688848861160b565b610ad133848361160b565b600061271061029a86610ae49190612bca565b610aee9190612c3b565b905060008186610afe9190612cd8565b90508560066000828254610b129190612cd8565b925050819055508095505050505050610b29611851565b949350505050565b610b43610b3c610e4e565b838361185b565b5050565b61029a81565b600a81565b60056020528060005260406000206000915090508060000160009054906101000a900461ffff16908060010154905082565b6000600160008473ffffffffffffffffffffffffffffffffffffffff1673ffffffffffffffffffffffffffffffffffffffff16815260200190815260200160002060008373ffffffffffffffffffffffffffffffffffffffff1673ffffffffffffffffffffffffffffffffffffffff16815260200190815260200160002060009054906101000a900460ff16905092915050565b600080600460008573ffffffffffffffffffffffffffffffffffffffff1673ffffffffffffffffffffffffffffffffffffffff16815260200190815260200160002060008481526020019081526020016000206000015443610c7a9190612cd8565b905061271081600654610c8d9190612bca565b610c979190612c3b565b91505092915050565b6004602052816000526040600020602052806000526040600020600091509150508060000154905081565b610cd3610e4e565b73ffffffffffffffffffffffffffffffffffffffff168573ffffffffffffffffffffffffffffffffffffffff161480610d195750610d1885610d13610e4e565b610b84565b5b610d58576040517f08c379a0000000000000000000000000000000000000000000000000000000008152600401610d4f90612a86565b60405180910390fd5b610d658585858585611321565b5050505050565b60007fd9b67a26000000000000000000000000000000000000000000000000000000007bffffffffffffffffffffffffffffffffffffffffffffffffffffffff1916827bffffffffffffffffffffffffffffffffffffffffffffffffffffffff19161480610e3757507f0e89341c000000000000000000000000000000000000000000000000000000007bffffffffffffffffffffffffffffffffffffffffffffffffffffffff1916827bffffffffffffffffffffffffffffffffffffffffffffffffffffffff1916145b80610e475750610e46826119c7565b5b9050919050565b600033905090565b8151835114610e9a576040517f08c379a0000000000000000000000000000000000000000000000000000000008152600401610e9190612d7e565b60405180910390fd5b600073ffffffffffffffffffffffffffffffffffffffff168473ffffffffffffffffffffffffffffffffffffffff1603610f09576040517f08c379a0000000000000000000000000000000000000000000000000000000008152600401610f0090612e10565b60405180910390fd5b6000610f13610e4e565b9050610f23818787878787611a31565b60005b84518110156110ce576000858281518110610f4457610f43612b38565b5b602002602001015190506000858381518110610f6357610f62612b38565b5b60200260200101519050600080600084815260200190815260200160002060008b73ffffffffffffffffffffffffffffffffffffffff1673ffffffffffffffffffffffffffffffffffffffff16815260200190815260200160002054905081811015611004576040517f08c379a0000000000000000000000000000000000000000000000000000000008152600401610ffb90612ea2565b60405180910390fd5b81810360008085815260200190815260200160002060008c73ffffffffffffffffffffffffffffffffffffffff1673ffffffffffffffffffffffffffffffffffffffff168152602001908152602001600020819055508160008085815260200190815260200160002060008b73ffffffffffffffffffffffffffffffffffffffff1673ffffffffffffffffffffffffffffffffffffffff16815260200190815260200160002060008282546110b99190612b96565b92505081905550505050806001019050610f26565b508473ffffffffffffffffffffffffffffffffffffffff168673ffffffffffffffffffffffffffffffffffffffff168273ffffffffffffffffffffffffffffffffffffffff167f4a39dc06d4c0dbc64b70af90fd698a233a518aa5d07e595d983b8c0526c8f7fb8787604051611145929190612ec2565b60405180910390a461115b818787878787611a39565b611169818787878787611a41565b505050505050565b600073ffffffffffffffffffffffffffffffffffffffff168473ffffffffffffffffffffffffffffffffffffffff16036111e0576040517f08c379a00000000000000000000000000000000000000000000000000000000081526004016111d790612f6b565b60405180910390fd5b60006111ea610e4e565b905060006111f785611c18565b9050600061120485611c18565b905061121583600089858589611a31565b8460008088815260200190815260200160002060008973ffffffffffffffffffffffffffffffffffffffff1673ffffffffffffffffffffffffffffffffffffffff16815260200190815260200160002060008282546112749190612b96565b925050819055508673ffffffffffffffffffffffffffffffffffffffff16600073ffffffffffffffffffffffffffffffffffffffff168473ffffffffffffffffffffffffffffffffffffffff167fc3d58168c5ae7397731d063d5bbf3d657854427343f4c083240f7aacaa2d0f6289896040516112f2929190612f8b565b60405180910390a461130983600089858589611a39565b61131883600089898989611c92565b50505050505050565b600073ffffffffffffffffffffffffffffffffffffffff168473ffffffffffffffffffffffffffffffffffffffff1603611390576040517f08c379a000000000000000000000000000000000000000000000000000000000815260040161138790612e10565b60405180910390fd5b600061139a610e4e565b905060006113a785611c18565b905060006113b485611c18565b90506113c4838989858589611a31565b600080600088815260200190815260200160002060008a73ffffffffffffffffffffffffffffffffffffffff1673ffffffffffffffffffffffffffffffffffffffff1681526020019081526020016000205490508581101561145b576040517f08c379a000000000000000000000000000000000000000000000000000000000815260040161145290612ea2565b60405180910390fd5b85810360008089815260200190815260200160002060008b73ffffffffffffffffffffffffffffffffffffffff1673ffffffffffffffffffffffffffffffffffffffff168152602001908152602001600020819055508560008089815260200190815260200160002060008a73ffffffffffffffffffffffffffffffffffffffff1673ffffffffffffffffffffffffffffffffffffffff16815260200190815260200160002060008282546115109190612b96565b925050819055508773ffffffffffffffffffffffffffffffffffffffff168973ffffffffffffffffffffffffffffffffffffffff168573ffffffffffffffffffffffffffffffffffffffff167fc3d58168c5ae7397731d063d5bbf3d657854427343f4c083240f7aacaa2d0f628a8a60405161158d929190612f8b565b60405180910390a46115a3848a8a86868a611a39565b6115b1848a8a8a8a8a611c92565b505050505050505050565b600260035403611601576040517f08c379a00000000000000000000000000000000000000000000000000000000081526004016115f890613000565b60405180910390fd5b6002600381905550565b600073ffffffffffffffffffffffffffffffffffffffff168373ffffffffffffffffffffffffffffffffffffffff160361167a576040517f08c379a000000000000000000000000000000000000000000000000000000000815260040161167190613092565b60405180910390fd5b6000611684610e4e565b9050600061169184611c18565b9050600061169e84611c18565b90506116be83876000858560405180602001604052806000815250611a31565b600080600087815260200190815260200160002060008873ffffffffffffffffffffffffffffffffffffffff1673ffffffffffffffffffffffffffffffffffffffff16815260200190815260200160002054905084811015611755576040517f08c379a000000000000000000000000000000000000000000000000000000000815260040161174c90613124565b60405180910390fd5b84810360008088815260200190815260200160002060008973ffffffffffffffffffffffffffffffffffffffff1673ffffffffffffffffffffffffffffffffffffffff16815260200190815260200160002081905550600073ffffffffffffffffffffffffffffffffffffffff168773ffffffffffffffffffffffffffffffffffffffff168573ffffffffffffffffffffffffffffffffffffffff167fc3d58168c5ae7397731d063d5bbf3d657854427343f4c083240f7aacaa2d0f628989604051611822929190612f8b565b60405180910390a461184884886000868660405180602001604052806000815250611a39565b50505050505050565b6001600381905550565b8173ffffffffffffffffffffffffffffffffffffffff168373ffffffffffffffffffffffffffffffffffffffff16036118c9576040517f08c379a00000000000000000000000000000000000000000000000000000000081526004016118c0906131b6565b60405180910390fd5b80600160008573ffffffffffffffffffffffffffffffffffffffff1673ffffffffffffffffffffffffffffffffffffffff16815260200190815260200160002060008473ffffffffffffffffffffffffffffffffffffffff1673ffffffffffffffffffffffffffffffffffffffff16815260200190815260200160002060006101000a81548160ff0219169083151502179055508173ffffffffffffffffffffffffffffffffffffffff168373ffffffffffffffffffffffffffffffffffffffff167f17307eab39ab6107e8899845ad3d59bd9653f200f220920489ca2b5937696c31836040516119ba919061203e565b60405180910390a3505050565b60007f01ffc9a7000000000000000000000000000000000000000000000000000000007bffffffffffffffffffffffffffffffffffffffffffffffffffffffff1916827bffffffffffffffffffffffffffffffffffffffffffffffffffffffff1916149050919050565b505050505050565b505050505050565b611a608473ffffffffffffffffffffffffffffffffffffffff16611e69565b15611c10578373ffffffffffffffffffffffffffffffffffffffff1663bc197c8187878686866040518663ffffffff1660e01b8152600401611aa695949392919061323a565b6020604051808303816000875af1925050508015611ae257506040513d601f19601f82011682018060405250810190611adf91906132b7565b60015b611b8757611aee6132f1565b806308c379a003611b4a5750611b02613313565b80611b0d5750611b4c565b806040517f08c379a0000000000000000000000000000000000000000000000000000000008152600401611b419190612116565b60405180910390fd5b505b6040517f08c379a0000000000000000000000000000000000000000000000000000000008152600401611b7e90613415565b60405180910390fd5b63bc197c8160e01b7bffffffffffffffffffffffffffffffffffffffffffffffffffffffff1916817bffffffffffffffffffffffffffffffffffffffffffffffffffffffff191614611c0e576040517f08c379a0000000000000000000000000000000000000000000000000000000008152600401611c05906134a7565b60405180910390fd5b505b505050505050565b60606000600167ffffffffffffffff811115611c3757611c3661213d565b5b604051908082528060200260200182016040528015611c655781602001602082028036833780820191505090505b5090508281600081518110611c7d57611c7c612b38565b5b60200260200101818152505080915050919050565b611cb18473ffffffffffffffffffffffffffffffffffffffff16611e69565b15611e61578373ffffffffffffffffffffffffffffffffffffffff1663f23a6e6187878686866040518663ffffffff1660e01b8152600401611cf79594939291906134c7565b6020604051808303816000875af1925050508015611d3357506040513d601f19601f82011682018060405250810190611d3091906132b7565b60015b611dd857611d3f6132f1565b806308c379a003611d9b5750611d53613313565b80611d5e5750611d9d565b806040517f08c379a0000000000000000000000000000000000000000000000000000000008152600401611d929190612116565b60405180910390fd5b505b6040517f08c379a0000000000000000000000000000000000000000000000000000000008152600401611dcf90613415565b60405180910390fd5b63f23a6e6160e01b7bffffffffffffffffffffffffffffffffffffffffffffffffffffffff1916817bffffffffffffffffffffffffffffffffffffffffffffffffffffffff191614611e5f576040517f08c379a0000000000000000000000000000000000000000000000000000000008152600401611e56906134a7565b60405180910390fd5b505b505050505050565b6000808273ffffffffffffffffffffffffffffffffffffffff163b119050919050565b6000604051905090565b600080fd5b600080fd5b600073ffffffffffffffffffffffffffffffffffffffff82169050919050565b6000611ecb82611ea0565b9050919050565b611edb81611ec0565b8114611ee657600080fd5b50565b600081359050611ef881611ed2565b92915050565b6000819050919050565b611f1181611efe565b8114611f1c57600080fd5b50565b600081359050611f2e81611f08565b92915050565b60008060408385031215611f4b57611f4a611e96565b5b6000611f5985828601611ee9565b9250506020611f6a85828601611f1f565b9150509250929050565b611f7d81611efe565b82525050565b6000602082019050611f986000830184611f74565b92915050565b60007fffffffff0000000000000000000000000000000000000000000000000000000082169050919050565b611fd381611f9e565b8114611fde57600080fd5b50565b600081359050611ff081611fca565b92915050565b60006020828403121561200c5761200b611e96565b5b600061201a84828501611fe1565b91505092915050565b60008115159050919050565b61203881612023565b82525050565b6000602082019050612053600083018461202f565b92915050565b60006020828403121561206f5761206e611e96565b5b600061207d84828501611f1f565b91505092915050565b600081519050919050565b600082825260208201905092915050565b60005b838110156120c05780820151818401526020810190506120a5565b60008484015250505050565b6000601f19601f8301169050919050565b60006120e882612086565b6120f28185612091565b93506121028185602086016120a2565b61210b816120cc565b840191505092915050565b6000602082019050818103600083015261213081846120dd565b905092915050565b600080fd5b7f4e487b7100000000000000000000000000000000000000000000000000000000600052604160045260246000fd5b612175826120cc565b810181811067ffffffffffffffff821117156121945761219361213d565b5b80604052505050565b60006121a7611e8c565b90506121b3828261216c565b919050565b600067ffffffffffffffff8211156121d3576121d261213d565b5b602082029050602081019050919050565b600080fd5b60006121fc6121f7846121b8565b61219d565b9050808382526020820190506020840283018581111561221f5761221e6121e4565b5b835b8181101561224857806122348882611f1f565b845260208401935050602081019050612221565b5050509392505050565b600082601f83011261226757612266612138565b5b81356122778482602086016121e9565b91505092915050565b600080fd5b600067ffffffffffffffff8211156122a05761229f61213d565b5b6122a9826120cc565b9050602081019050919050565b82818337600083830152505050565b60006122d86122d384612285565b61219d565b9050828152602081018484840111156122f4576122f3612280565b5b6122ff8482856122b6565b509392505050565b600082601f83011261231c5761231b612138565b5b813561232c8482602086016122c5565b91505092915050565b600080600080600060a0868803121561235157612350611e96565b5b600061235f88828901611ee9565b955050602061237088828901611ee9565b945050604086013567ffffffffffffffff81111561239157612390611e9b565b5b61239d88828901612252565b935050606086013567ffffffffffffffff8111156123be576123bd611e9b565b5b6123ca88828901612252565b925050608086013567ffffffffffffffff8111156123eb576123ea611e9b565b5b6123f788828901612307565b9150509295509295909350565b600067ffffffffffffffff82111561241f5761241e61213d565b5b602082029050602081019050919050565b600061244361243e84612404565b61219d565b90508083825260208201905060208402830185811115612466576124656121e4565b5b835b8181101561248f578061247b8882611ee9565b845260208401935050602081019050612468565b5050509392505050565b600082601f8301126124ae576124ad612138565b5b81356124be848260208601612430565b91505092915050565b600080604083850312156124de576124dd611e96565b5b600083013567ffffffffffffffff8111156124fc576124fb611e9b565b5b61250885828601612499565b925050602083013567ffffffffffffffff81111561252957612528611e9b565b5b61253585828601612252565b9150509250929050565b600081519050919050565b600082825260208201905092915050565b6000819050602082019050919050565b61257481611efe565b82525050565b6000612586838361256b565b60208301905092915050565b6000602082019050919050565b60006125aa8261253f565b6125b4818561254a565b93506125bf8361255b565b8060005b838110156125f05781516125d7888261257a565b97506125e283612592565b9250506001810190506125c3565b5085935050505092915050565b60006020820190508181036000830152612617818461259f565b905092915050565b600061ffff82169050919050565b6126368161261f565b811461264157600080fd5b50565b6000813590506126538161262d565b92915050565b61266281612023565b811461266d57600080fd5b50565b60008135905061267f81612659565b92915050565b60008060006060848603121561269e5761269d611e96565b5b60006126ac86828701612644565b93505060206126bd86828701611f1f565b92505060406126ce86828701612670565b9150509250925092565b600080600080608085870312156126f2576126f1611e96565b5b600061270087828801612644565b945050602061271187828801612644565b935050604061272287828801611f1f565b925050606061273387828801612670565b91505092959194509250565b6000806000806080858703121561275957612758611e96565b5b600061276787828801611ee9565b945050602061277887828801612644565b935050604061278987828801611f1f565b925050606061279a87828801612670565b91505092959194509250565b600080604083850312156127bd576127bc611e96565b5b60006127cb85828601611ee9565b92505060206127dc85828601612670565b9150509250929050565b6000602082840312156127fc576127fb611e96565b5b600061280a84828501612644565b91505092915050565b61281c8161261f565b82525050565b60006040820190506128376000830185612813565b6128446020830184611f74565b9392505050565b6000806040838503121561286257612861611e96565b5b600061287085828601611ee9565b925050602061288185828601611ee9565b9150509250929050565b600080600080600060a086880312156128a7576128a6611e96565b5b60006128b588828901611ee9565b95505060206128c688828901611ee9565b94505060406128d788828901611f1f565b93505060606128e888828901611f1f565b925050608086013567ffffffffffffffff81111561290957612908611e9b565b5b61291588828901612307565b9150509295509295909350565b7f455243313135353a2061646472657373207a65726f206973206e6f742061207660008201527f616c6964206f776e657200000000000000000000000000000000000000000000602082015250565b600061297e602a83612091565b915061298982612922565b604082019050919050565b600060208201905081810360008301526129ad81612971565b9050919050565b7f4e487b7100000000000000000000000000000000000000000000000000000000600052602260045260246000fd5b600060028204905060018216806129fb57607f821691505b602082108103612a0e57612a0d6129b4565b5b50919050565b7f455243313135353a2063616c6c6572206973206e6f7420746f6b656e206f776e60008201527f6572206f7220617070726f766564000000000000000000000000000000000000602082015250565b6000612a70602e83612091565b9150612a7b82612a14565b604082019050919050565b60006020820190508181036000830152612a9f81612a63565b9050919050565b7f455243313135353a206163636f756e747320616e6420696473206c656e67746860008201527f206d69736d617463680000000000000000000000000000000000000000000000602082015250565b6000612b02602983612091565b9150612b0d82612aa6565b604082019050919050565b60006020820190508181036000830152612b3181612af5565b9050919050565b7f4e487b7100000000000000000000000000000000000000000000000000000000600052603260045260246000fd5b7f4e487b7100000000000000000000000000000000000000000000000000000000600052601160045260246000fd5b6000612ba182611efe565b9150612bac83611efe565b9250828201905080821115612bc457612bc3612b67565b5b92915050565b6000612bd582611efe565b9150612be083611efe565b9250828202612bee81611efe565b91508282048414831517612c0557612c04612b67565b5b5092915050565b7f4e487b7100000000000000000000000000000000000000000000000000000000600052601260045260246000fd5b6000612c4682611efe565b9150612c5183611efe565b925082612c6157612c60612c0c565b5b828204905092915050565b7f496e73756666696369656e7420466f7263650000000000000000000000000000600082015250565b6000612ca2601283612091565b9150612cad82612c6c565b602082019050919050565b60006020820190508181036000830152612cd181612c95565b9050919050565b6000612ce382611efe565b9150612cee83611efe565b9250828203905081811115612d0657612d05612b67565b5b92915050565b7f455243313135353a2069647320616e6420616d6f756e7473206c656e6774682060008201527f6d69736d61746368000000000000000000000000000000000000000000000000602082015250565b6000612d68602883612091565b9150612d7382612d0c565b604082019050919050565b60006020820190508181036000830152612d9781612d5b565b9050919050565b7f455243313135353a207472616e7366657220746f20746865207a65726f20616460008201527f6472657373000000000000000000000000000000000000000000000000000000602082015250565b6000612dfa602583612091565b9150612e0582612d9e565b604082019050919050565b60006020820190508181036000830152612e2981612ded565b9050919050565b7f455243313135353a20696e73756666696369656e742062616c616e636520666f60008201527f72207472616e7366657200000000000000000000000000000000000000000000602082015250565b6000612e8c602a83612091565b9150612e9782612e30565b604082019050919050565b60006020820190508181036000830152612ebb81612e7f565b9050919050565b60006040820190508181036000830152612edc818561259f565b90508181036020830152612ef0818461259f565b90509392505050565b7f455243313135353a206d696e7420746f20746865207a65726f2061646472657360008201527f7300000000000000000000000000000000000000000000000000000000000000602082015250565b6000612f55602183612091565b9150612f6082612ef9565b604082019050919050565b60006020820190508181036000830152612f8481612f48565b9050919050565b6000604082019050612fa06000830185611f74565b612fad6020830184611f74565b9392505050565b7f5265656e7472616e637947756172643a207265656e7472616e742063616c6c00600082015250565b6000612fea601f83612091565b9150612ff582612fb4565b602082019050919050565b6000602082019050818103600083015261301981612fdd565b9050919050565b7f455243313135353a206275726e2066726f6d20746865207a65726f206164647260008201527f6573730000000000000000000000000000000000000000000000000000000000602082015250565b600061307c602383612091565b915061308782613020565b604082019050919050565b600060208201905081810360008301526130ab8161306f565b9050919050565b7f455243313135353a206275726e20616d6f756e7420657863656564732062616c60008201527f616e636500000000000000000000000000000000000000000000000000000000602082015250565b600061310e602483612091565b9150613119826130b2565b604082019050919050565b6000602082019050818103600083015261313d81613101565b9050919050565b7f455243313135353a2073657474696e6720617070726f76616c2073746174757360008201527f20666f722073656c660000000000000000000000000000000000000000000000602082015250565b60006131a0602983612091565b91506131ab82613144565b604082019050919050565b600060208201905081810360008301526131cf81613193565b9050919050565b6131df81611ec0565b82525050565b600081519050919050565b600082825260208201905092915050565b600061320c826131e5565b61321681856131f0565b93506132268185602086016120a2565b61322f816120cc565b840191505092915050565b600060a08201905061324f60008301886131d6565b61325c60208301876131d6565b818103604083015261326e818661259f565b90508181036060830152613282818561259f565b905081810360808301526132968184613201565b90509695505050505050565b6000815190506132b181611fca565b92915050565b6000602082840312156132cd576132cc611e96565b5b60006132db848285016132a2565b91505092915050565b60008160e01c9050919050565b600060033d11156133105760046000803e61330d6000516132e4565b90505b90565b600060443d106133a057613325611e8c565b60043d036004823e80513d602482011167ffffffffffffffff8211171561334d5750506133a0565b808201805167ffffffffffffffff81111561336b57505050506133a0565b80602083010160043d0385018111156133885750505050506133a0565b6133978260200185018661216c565b82955050505050505b90565b7f455243313135353a207472616e7366657220746f206e6f6e2d4552433131353560008201527f526563656976657220696d706c656d656e746572000000000000000000000000602082015250565b60006133ff603483612091565b915061340a826133a3565b604082019050919050565b6000602082019050818103600083015261342e816133f2565b9050919050565b7f455243313135353a204552433131353552656365697665722072656a6563746560008201527f6420746f6b656e73000000000000000000000000000000000000000000000000602082015250565b6000613491602883612091565b915061349c82613435565b604082019050919050565b600060208201905081810360008301526134c081613484565b9050919050565b600060a0820190506134dc60008301886131d6565b6134e960208301876131d6565b6134f66040830186611f74565b6135036060830185611f74565b81810360808301526135158184613201565b9050969550505050505056fea2646970667358221220697ef072309f41191db12634e758b53cb6ea285f954cb91a6a8870266c13982164736f6c6343000818003368747470733a2f2f6170692e6b696c6c67616d652e61692f6d657461646174612f7b69647d2e6a736f6e","opcodes":"PUSH1 0x80 PUSH1 0x40 MSTORE CALLVALUE DUP1 ISZERO PUSH3 0x11 JUMPI PUSH1 0x0 DUP1 REVERT JUMPDEST POP PUSH1 0x40 MLOAD DUP1 PUSH1 0x60 ADD PUSH1 0x40 MSTORE DUP1 PUSH1 0x2A DUP2 MSTORE PUSH1 0x20 ADD PUSH3 0x3929 PUSH1 0x2A SWAP2 CODECOPY PUSH3 0x3D DUP2 PUSH3 0x4C PUSH1 0x20 SHL PUSH1 0x20 SHR JUMP JUMPDEST POP PUSH1 0x1 PUSH1 0x3 DUP2 SWAP1 SSTORE POP PUSH3 0x3C2 JUMP JUMPDEST DUP1 PUSH1 0x2 SWAP1 DUP2 PUSH3 0x5D SWAP2 SWAP1 PUSH3 0x2DB JUMP JUMPDEST POP POP JUMP JUMPDEST PUSH1 0x0 DUP2 MLOAD SWAP1 POP SWAP2 SWAP1 POP JUMP JUMPDEST PUSH32 0x4E487B7100000000000000000000000000000000000000000000000000000000 PUSH1 0x0 MSTORE PUSH1 0x41 PUSH1 0x4 MSTORE PUSH1 0x24 PUSH1 0x0 REVERT JUMPDEST PUSH32 0x4E487B7100000000000000000000000000000000000000000000000000000000 PUSH1 0x0 MSTORE PUSH1 0x22 PUSH1 0x4 MSTORE PUSH1 0x24 PUSH1 0x0 REVERT JUMPDEST PUSH1 0x0 PUSH1 0x2 DUP3 DIV SWAP1 POP PUSH1 0x1 DUP3 AND DUP1 PUSH3 0xE3 JUMPI PUSH1 0x7F DUP3 AND SWAP2 POP JUMPDEST PUSH1 0x20 DUP3 LT DUP2 SUB PUSH3 0xF9 JUMPI PUSH3 0xF8 PUSH3 0x9B JUMP JUMPDEST JUMPDEST POP SWAP2 SWAP1 POP JUMP JUMPDEST PUSH1 0x0 DUP2 SWAP1 POP DUP2 PUSH1 0x0 MSTORE PUSH1 0x20 PUSH1 0x0 KECCAK256 SWAP1 POP SWAP2 SWAP1 POP JUMP JUMPDEST PUSH1 0x0 PUSH1 0x20 PUSH1 0x1F DUP4 ADD DIV SWAP1 POP SWAP2 SWAP1 POP JUMP JUMPDEST PUSH1 0x0 DUP3 DUP3 SHL SWAP1 POP SWAP3 SWAP2 POP POP JUMP JUMPDEST PUSH1 0x0 PUSH1 0x8 DUP4 MUL PUSH3 0x163 PUSH32 0xFFFFFFFFFFFFFFFFFFFFFFFFFFFFFFFFFFFFFFFFFFFFFFFFFFFFFFFFFFFFFFFF DUP3 PUSH3 0x124 JUMP JUMPDEST PUSH3 0x16F DUP7 DUP4 PUSH3 0x124 JUMP JUMPDEST SWAP6 POP DUP1 NOT DUP5 AND SWAP4 POP DUP1 DUP7 AND DUP5 OR SWAP3 POP POP POP SWAP4 SWAP3 POP POP POP JUMP JUMPDEST PUSH1 0x0 DUP2 SWAP1 POP SWAP2 SWAP1 POP JUMP JUMPDEST PUSH1 0x0 DUP2 SWAP1 POP SWAP2 SWAP1 POP JUMP JUMPDEST PUSH1 0x0 PUSH3 0x1BC PUSH3 0x1B6 PUSH3 0x1B0 DUP5 PUSH3 0x187 JUMP JUMPDEST PUSH3 0x191 JUMP JUMPDEST PUSH3 0x187 JUMP JUMPDEST SWAP1 POP SWAP2 SWAP1 POP JUMP JUMPDEST PUSH1 0x0 DUP2 SWAP1 POP SWAP2 SWAP1 POP JUMP JUMPDEST PUSH3 0x1D8 DUP4 PUSH3 0x19B JUMP JUMPDEST PUSH3 0x1F0 PUSH3 0x1E7 DUP3 PUSH3 0x1C3 JUMP JUMPDEST DUP5 DUP5 SLOAD PUSH3 0x131 JUMP JUMPDEST DUP3 SSTORE POP POP POP POP JUMP JUMPDEST PUSH1 0x0 SWAP1 JUMP JUMPDEST PUSH3 0x207 PUSH3 0x1F8 JUMP JUMPDEST PUSH3 0x214 DUP2 DUP5 DUP5 PUSH3 0x1CD JUMP JUMPDEST POP POP POP JUMP JUMPDEST JUMPDEST DUP2 DUP2 LT ISZERO PUSH3 0x23C JUMPI PUSH3 0x230 PUSH1 0x0 DUP3 PUSH3 0x1FD JUMP JUMPDEST PUSH1 0x1 DUP2 ADD SWAP1 POP PUSH3 0x21A JUMP JUMPDEST POP POP JUMP JUMPDEST PUSH1 0x1F DUP3 GT ISZERO PUSH3 0x28B JUMPI PUSH3 0x255 DUP2 PUSH3 0xFF JUMP JUMPDEST PUSH3 0x260 DUP5 PUSH3 0x114 JUMP JUMPDEST DUP2 ADD PUSH1 0x20 DUP6 LT ISZERO PUSH3 0x270 JUMPI DUP2 SWAP1 POP JUMPDEST PUSH3 0x288 PUSH3 0x27F DUP6 PUSH3 0x114 JUMP JUMPDEST DUP4 ADD DUP3 PUSH3 0x219 JUMP JUMPDEST POP POP JUMPDEST POP POP POP JUMP JUMPDEST PUSH1 0x0 DUP3 DUP3 SHR SWAP1 POP SWAP3 SWAP2 POP POP JUMP JUMPDEST PUSH1 0x0 PUSH3 0x2B0 PUSH1 0x0 NOT DUP5 PUSH1 0x8 MUL PUSH3 0x290 JUMP JUMPDEST NOT DUP1 DUP4 AND SWAP2 POP POP SWAP3 SWAP2 POP POP JUMP JUMPDEST PUSH1 0x0 PUSH3 0x2CB DUP4 DUP4 PUSH3 0x29D JUMP JUMPDEST SWAP2 POP DUP3 PUSH1 0x2 MUL DUP3 OR SWAP1 POP SWAP3 SWAP2 POP POP JUMP JUMPDEST PUSH3 0x2E6 DUP3 PUSH3 0x61 JUMP JUMPDEST PUSH8 0xFFFFFFFFFFFFFFFF DUP2 GT ISZERO PUSH3 0x302 JUMPI PUSH3 0x301 PUSH3 0x6C JUMP JUMPDEST JUMPDEST PUSH3 0x30E DUP3 SLOAD PUSH3 0xCA JUMP JUMPDEST PUSH3 0x31B DUP3 DUP3 DUP6 PUSH3 0x240 JUMP JUMPDEST PUSH1 0x0 PUSH1 0x20 SWAP1 POP PUSH1 0x1F DUP4 GT PUSH1 0x1 DUP2 EQ PUSH3 0x353 JUMPI PUSH1 0x0 DUP5 ISZERO PUSH3 0x33E JUMPI DUP3 DUP8 ADD MLOAD SWAP1 POP JUMPDEST PUSH3 0x34A DUP6 DUP3 PUSH3 0x2BD JUMP JUMPDEST DUP7 SSTORE POP PUSH3 0x3BA JUMP JUMPDEST PUSH1 0x1F NOT DUP5 AND PUSH3 0x363 DUP7 PUSH3 0xFF JUMP JUMPDEST PUSH1 0x0 JUMPDEST DUP3 DUP2 LT ISZERO PUSH3 0x38D JUMPI DUP5 DUP10 ADD MLOAD DUP3 SSTORE PUSH1 0x1 DUP3 ADD SWAP2 POP PUSH1 0x20 DUP6 ADD SWAP5 POP PUSH1 0x20 DUP2 ADD SWAP1 POP PUSH3 0x366 JUMP JUMPDEST DUP7 DUP4 LT ISZERO PUSH3 0x3AD JUMPI DUP5 DUP10 ADD MLOAD PUSH3 0x3A9 PUSH1 0x1F DUP10 AND DUP3 PUSH3 0x29D JUMP JUMPDEST DUP4 SSTORE POP JUMPDEST PUSH1 0x1 PUSH1 0x2 DUP9 MUL ADD DUP9 SSTORE POP POP POP JUMPDEST POP POP POP POP POP POP JUMP JUMPDEST PUSH2 0x3557 DUP1 PUSH3 0x3D2 PUSH1 0x0 CODECOPY PUSH1 0x0 RETURN INVALID PUSH1 0x80 PUSH1 0x40 MSTORE PUSH1 0x4 CALLDATASIZE LT PUSH2 0x11E JUMPI PUSH1 0x0 CALLDATALOAD PUSH1 0xE0 SHR DUP1 PUSH4 0x6950ED03 GT PUSH2 0xA0 JUMPI DUP1 PUSH4 0xCD000D33 GT PUSH2 0x64 JUMPI DUP1 PUSH4 0xCD000D33 EQ PUSH2 0x3ED JUMPI DUP1 PUSH4 0xE985E9C5 EQ PUSH2 0x42B JUMPI DUP1 PUSH4 0xEA075EE1 EQ PUSH2 0x468 JUMPI DUP1 PUSH4 0xEDBD5DF8 EQ PUSH2 0x4A5 JUMPI DUP1 PUSH4 0xF242432A EQ PUSH2 0x4E2 JUMPI PUSH2 0x11E JUMP JUMPDEST DUP1 PUSH4 0x6950ED03 EQ PUSH2 0x308 JUMPI DUP1 PUSH4 0x7A2B3720 EQ PUSH2 0x331 JUMPI DUP1 PUSH4 0xA22CB465 EQ PUSH2 0x36E JUMPI DUP1 PUSH4 0xA37A9FC0 EQ PUSH2 0x397 JUMPI DUP1 PUSH4 0xC704C3F1 EQ PUSH2 0x3C2 JUMPI PUSH2 0x11E JUMP JUMPDEST DUP1 PUSH4 0x44B70AC4 GT PUSH2 0xE7 JUMPI DUP1 PUSH4 0x44B70AC4 EQ PUSH2 0x22E JUMPI DUP1 PUSH4 0x4C25D197 EQ PUSH2 0x259 JUMPI DUP1 PUSH4 0x4CF5317B EQ PUSH2 0x284 JUMPI DUP1 PUSH4 0x4E1273F4 EQ PUSH2 0x2AF JUMPI DUP1 PUSH4 0x5D69A710 EQ PUSH2 0x2EC JUMPI PUSH2 0x11E JUMP JUMPDEST DUP1 PUSH3 0xFDD58E EQ PUSH2 0x123 JUMPI DUP1 PUSH4 0x1FFC9A7 EQ PUSH2 0x160 JUMPI DUP1 PUSH4 0xE89341C EQ PUSH2 0x19D JUMPI DUP1 PUSH4 0x2EB2C2D6 EQ PUSH2 0x1DA JUMPI DUP1 PUSH4 0x313DAB20 EQ PUSH2 0x203 JUMPI JUMPDEST PUSH1 0x0 DUP1 REVERT JUMPDEST CALLVALUE DUP1 ISZERO PUSH2 0x12F JUMPI PUSH1 0x0 DUP1 REVERT JUMPDEST POP PUSH2 0x14A PUSH1 0x4 DUP1 CALLDATASIZE SUB DUP2 ADD SWAP1 PUSH2 0x145 SWAP2 SWAP1 PUSH2 0x1F34 JUMP JUMPDEST PUSH2 0x50B JUMP JUMPDEST PUSH1 0x40 MLOAD PUSH2 0x157 SWAP2 SWAP1 PUSH2 0x1F83 JUMP JUMPDEST PUSH1 0x40 MLOAD DUP1 SWAP2 SUB SWAP1 RETURN JUMPDEST CALLVALUE DUP1 ISZERO PUSH2 0x16C JUMPI PUSH1 0x0 DUP1 REVERT JUMPDEST POP PUSH2 0x187 PUSH1 0x4 DUP1 CALLDATASIZE SUB DUP2 ADD SWAP1 PUSH2 0x182 SWAP2 SWAP1 PUSH2 0x1FF6 JUMP JUMPDEST PUSH2 0x5D3 JUMP JUMPDEST PUSH1 0x40 MLOAD PUSH2 0x194 SWAP2 SWAP1 PUSH2 0x203E JUMP JUMPDEST PUSH1 0x40 MLOAD DUP1 SWAP2 SUB SWAP1 RETURN JUMPDEST CALLVALUE DUP1 ISZERO PUSH2 0x1A9 JUMPI PUSH1 0x0 DUP1 REVERT JUMPDEST POP PUSH2 0x1C4 PUSH1 0x4 DUP1 CALLDATASIZE SUB DUP2 ADD SWAP1 PUSH2 0x1BF SWAP2 SWAP1 PUSH2 0x2059 JUMP JUMPDEST PUSH2 0x5E5 JUMP JUMPDEST PUSH1 0x40 MLOAD PUSH2 0x1D1 SWAP2 SWAP1 PUSH2 0x2116 JUMP JUMPDEST PUSH1 0x40 MLOAD DUP1 SWAP2 SUB SWAP1 RETURN JUMPDEST CALLVALUE DUP1 ISZERO PUSH2 0x1E6 JUMPI PUSH1 0x0 DUP1 REVERT JUMPDEST POP PUSH2 0x201 PUSH1 0x4 DUP1 CALLDATASIZE SUB DUP2 ADD SWAP1 PUSH2 0x1FC SWAP2 SWAP1 PUSH2 0x2335 JUMP JUMPDEST PUSH2 0x679 JUMP JUMPDEST STOP JUMPDEST CALLVALUE DUP1 ISZERO PUSH2 0x20F JUMPI PUSH1 0x0 DUP1 REVERT JUMPDEST POP PUSH2 0x218 PUSH2 0x71A JUMP JUMPDEST PUSH1 0x40 MLOAD PUSH2 0x225 SWAP2 SWAP1 PUSH2 0x1F83 JUMP JUMPDEST PUSH1 0x40 MLOAD DUP1 SWAP2 SUB SWAP1 RETURN JUMPDEST CALLVALUE DUP1 ISZERO PUSH2 0x23A JUMPI PUSH1 0x0 DUP1 REVERT JUMPDEST POP PUSH2 0x243 PUSH2 0x720 JUMP JUMPDEST PUSH1 0x40 MLOAD PUSH2 0x250 SWAP2 SWAP1 PUSH2 0x1F83 JUMP JUMPDEST PUSH1 0x40 MLOAD DUP1 SWAP2 SUB SWAP1 RETURN JUMPDEST CALLVALUE DUP1 ISZERO PUSH2 0x265 JUMPI PUSH1 0x0 DUP1 REVERT JUMPDEST POP PUSH2 0x26E PUSH2 0x725 JUMP JUMPDEST PUSH1 0x40 MLOAD PUSH2 0x27B SWAP2 SWAP1 PUSH2 0x1F83 JUMP JUMPDEST PUSH1 0x40 MLOAD DUP1 SWAP2 SUB SWAP1 RETURN JUMPDEST CALLVALUE DUP1 ISZERO PUSH2 0x290 JUMPI PUSH1 0x0 DUP1 REVERT JUMPDEST POP PUSH2 0x299 PUSH2 0x72B JUMP JUMPDEST PUSH1 0x40 MLOAD PUSH2 0x2A6 SWAP2 SWAP1 PUSH2 0x1F83 JUMP JUMPDEST PUSH1 0x40 MLOAD DUP1 SWAP2 SUB SWAP1 RETURN JUMPDEST CALLVALUE DUP1 ISZERO PUSH2 0x2BB JUMPI PUSH1 0x0 DUP1 REVERT JUMPDEST POP PUSH2 0x2D6 PUSH1 0x4 DUP1 CALLDATASIZE SUB DUP2 ADD SWAP1 PUSH2 0x2D1 SWAP2 SWAP1 PUSH2 0x24C7 JUMP JUMPDEST PUSH2 0x731 JUMP JUMPDEST PUSH1 0x40 MLOAD PUSH2 0x2E3 SWAP2 SWAP1 PUSH2 0x25FD JUMP JUMPDEST PUSH1 0x40 MLOAD DUP1 SWAP2 SUB SWAP1 RETURN JUMPDEST PUSH2 0x306 PUSH1 0x4 DUP1 CALLDATASIZE SUB DUP2 ADD SWAP1 PUSH2 0x301 SWAP2 SWAP1 PUSH2 0x2685 JUMP JUMPDEST PUSH2 0x844 JUMP JUMPDEST STOP JUMPDEST CALLVALUE DUP1 ISZERO PUSH2 0x314 JUMPI PUSH1 0x0 DUP1 REVERT JUMPDEST POP PUSH2 0x32F PUSH1 0x4 DUP1 CALLDATASIZE SUB DUP2 ADD SWAP1 PUSH2 0x32A SWAP2 SWAP1 PUSH2 0x26D8 JUMP JUMPDEST PUSH2 0x927 JUMP JUMPDEST STOP JUMPDEST CALLVALUE DUP1 ISZERO PUSH2 0x33D JUMPI PUSH1 0x0 DUP1 REVERT JUMPDEST POP PUSH2 0x358 PUSH1 0x4 DUP1 CALLDATASIZE SUB DUP2 ADD SWAP1 PUSH2 0x353 SWAP2 SWAP1 PUSH2 0x273F JUMP JUMPDEST PUSH2 0x9ED JUMP JUMPDEST PUSH1 0x40 MLOAD PUSH2 0x365 SWAP2 SWAP1 PUSH2 0x1F83 JUMP JUMPDEST PUSH1 0x40 MLOAD DUP1 SWAP2 SUB SWAP1 RETURN JUMPDEST CALLVALUE DUP1 ISZERO PUSH2 0x37A JUMPI PUSH1 0x0 DUP1 REVERT JUMPDEST POP PUSH2 0x395 PUSH1 0x4 DUP1 CALLDATASIZE SUB DUP2 ADD SWAP1 PUSH2 0x390 SWAP2 SWAP1 PUSH2 0x27A6 JUMP JUMPDEST PUSH2 0xB31 JUMP JUMPDEST STOP JUMPDEST CALLVALUE DUP1 ISZERO PUSH2 0x3A3 JUMPI PUSH1 0x0 DUP1 REVERT JUMPDEST POP PUSH2 0x3AC PUSH2 0xB47 JUMP JUMPDEST PUSH1 0x40 MLOAD PUSH2 0x3B9 SWAP2 SWAP1 PUSH2 0x1F83 JUMP JUMPDEST PUSH1 0x40 MLOAD DUP1 SWAP2 SUB SWAP1 RETURN JUMPDEST CALLVALUE DUP1 ISZERO PUSH2 0x3CE JUMPI PUSH1 0x0 DUP1 REVERT JUMPDEST POP PUSH2 0x3D7 PUSH2 0xB4D JUMP JUMPDEST PUSH1 0x40 MLOAD PUSH2 0x3E4 SWAP2 SWAP1 PUSH2 0x1F83 JUMP JUMPDEST PUSH1 0x40 MLOAD DUP1 SWAP2 SUB SWAP1 RETURN JUMPDEST CALLVALUE DUP1 ISZERO PUSH2 0x3F9 JUMPI PUSH1 0x0 DUP1 REVERT JUMPDEST POP PUSH2 0x414 PUSH1 0x4 DUP1 CALLDATASIZE SUB DUP2 ADD SWAP1 PUSH2 0x40F SWAP2 SWAP1 PUSH2 0x27E6 JUMP JUMPDEST PUSH2 0xB52 JUMP JUMPDEST PUSH1 0x40 MLOAD PUSH2 0x422 SWAP3 SWAP2 SWAP1 PUSH2 0x2822 JUMP JUMPDEST PUSH1 0x40 MLOAD DUP1 SWAP2 SUB SWAP1 RETURN JUMPDEST CALLVALUE DUP1 ISZERO PUSH2 0x437 JUMPI PUSH1 0x0 DUP1 REVERT JUMPDEST POP PUSH2 0x452 PUSH1 0x4 DUP1 CALLDATASIZE SUB DUP2 ADD SWAP1 PUSH2 0x44D SWAP2 SWAP1 PUSH2 0x284B JUMP JUMPDEST PUSH2 0xB84 JUMP JUMPDEST PUSH1 0x40 MLOAD PUSH2 0x45F SWAP2 SWAP1 PUSH2 0x203E JUMP JUMPDEST PUSH1 0x40 MLOAD DUP1 SWAP2 SUB SWAP1 RETURN JUMPDEST CALLVALUE DUP1 ISZERO PUSH2 0x474 JUMPI PUSH1 0x0 DUP1 REVERT JUMPDEST POP PUSH2 0x48F PUSH1 0x4 DUP1 CALLDATASIZE SUB DUP2 ADD SWAP1 PUSH2 0x48A SWAP2 SWAP1 PUSH2 0x1F34 JUMP JUMPDEST PUSH2 0xC18 JUMP JUMPDEST PUSH1 0x40 MLOAD PUSH2 0x49C SWAP2 SWAP1 PUSH2 0x1F83 JUMP JUMPDEST PUSH1 0x40 MLOAD DUP1 SWAP2 SUB SWAP1 RETURN JUMPDEST CALLVALUE DUP1 ISZERO PUSH2 0x4B1 JUMPI PUSH1 0x0 DUP1 REVERT JUMPDEST POP PUSH2 0x4CC PUSH1 0x4 DUP1 CALLDATASIZE SUB DUP2 ADD SWAP1 PUSH2 0x4C7 SWAP2 SWAP1 PUSH2 0x1F34 JUMP JUMPDEST PUSH2 0xCA0 JUMP JUMPDEST PUSH1 0x40 MLOAD PUSH2 0x4D9 SWAP2 SWAP1 PUSH2 0x1F83 JUMP JUMPDEST PUSH1 0x40 MLOAD DUP1 SWAP2 SUB SWAP1 RETURN JUMPDEST CALLVALUE DUP1 ISZERO PUSH2 0x4EE JUMPI PUSH1 0x0 DUP1 REVERT JUMPDEST POP PUSH2 0x509 PUSH1 0x4 DUP1 CALLDATASIZE SUB DUP2 ADD SWAP1 PUSH2 0x504 SWAP2 SWAP1 PUSH2 0x288B JUMP JUMPDEST PUSH2 0xCCB JUMP JUMPDEST STOP JUMPDEST PUSH1 0x0 DUP1 PUSH20 0xFFFFFFFFFFFFFFFFFFFFFFFFFFFFFFFFFFFFFFFF AND DUP4 PUSH20 0xFFFFFFFFFFFFFFFFFFFFFFFFFFFFFFFFFFFFFFFF AND SUB PUSH2 0x57B JUMPI PUSH1 0x40 MLOAD PUSH32 0x8C379A000000000000000000000000000000000000000000000000000000000 DUP2 MSTORE PUSH1 0x4 ADD PUSH2 0x572 SWAP1 PUSH2 0x2994 JUMP JUMPDEST PUSH1 0x40 MLOAD DUP1 SWAP2 SUB SWAP1 REVERT JUMPDEST PUSH1 0x0 DUP1 DUP4 DUP2 MSTORE PUSH1 0x20 ADD SWAP1 DUP2 MSTORE PUSH1 0x20 ADD PUSH1 0x0 KECCAK256 PUSH1 0x0 DUP5 PUSH20 0xFFFFFFFFFFFFFFFFFFFFFFFFFFFFFFFFFFFFFFFF AND PUSH20 0xFFFFFFFFFFFFFFFFFFFFFFFFFFFFFFFFFFFFFFFF AND DUP2 MSTORE PUSH1 0x20 ADD SWAP1 DUP2 MSTORE PUSH1 0x20 ADD PUSH1 0x0 KECCAK256 SLOAD SWAP1 POP SWAP3 SWAP2 POP POP JUMP JUMPDEST PUSH1 0x0 PUSH2 0x5DE DUP3 PUSH2 0xD6C JUMP JUMPDEST SWAP1 POP SWAP2 SWAP1 POP JUMP JUMPDEST PUSH1 0x60 PUSH1 0x2 DUP1 SLOAD PUSH2 0x5F4 SWAP1 PUSH2 0x29E3 JUMP JUMPDEST DUP1 PUSH1 0x1F ADD PUSH1 0x20 DUP1 SWAP2 DIV MUL PUSH1 0x20 ADD PUSH1 0x40 MLOAD SWAP1 DUP2 ADD PUSH1 0x40 MSTORE DUP1 SWAP3 SWAP2 SWAP1 DUP2 DUP2 MSTORE PUSH1 0x20 ADD DUP3 DUP1 SLOAD PUSH2 0x620 SWAP1 PUSH2 0x29E3 JUMP JUMPDEST DUP1 ISZERO PUSH2 0x66D JUMPI DUP1 PUSH1 0x1F LT PUSH2 0x642 JUMPI PUSH2 0x100 DUP1 DUP4 SLOAD DIV MUL DUP4 MSTORE SWAP2 PUSH1 0x20 ADD SWAP2 PUSH2 0x66D JUMP JUMPDEST DUP3 ADD SWAP2 SWAP1 PUSH1 0x0 MSTORE PUSH1 0x20 PUSH1 0x0 KECCAK256 SWAP1 JUMPDEST DUP2 SLOAD DUP2 MSTORE SWAP1 PUSH1 0x1 ADD SWAP1 PUSH1 0x20 ADD DUP1 DUP4 GT PUSH2 0x650 JUMPI DUP3 SWAP1 SUB PUSH1 0x1F AND DUP3 ADD SWAP2 JUMPDEST POP POP POP POP POP SWAP1 POP SWAP2 SWAP1 POP JUMP JUMPDEST PUSH2 0x681 PUSH2 0xE4E JUMP JUMPDEST PUSH20 0xFFFFFFFFFFFFFFFFFFFFFFFFFFFFFFFFFFFFFFFF AND DUP6 PUSH20 0xFFFFFFFFFFFFFFFFFFFFFFFFFFFFFFFFFFFFFFFF AND EQ DUP1 PUSH2 0x6C7 JUMPI POP PUSH2 0x6C6 DUP6 PUSH2 0x6C1 PUSH2 0xE4E JUMP JUMPDEST PUSH2 0xB84 JUMP JUMPDEST JUMPDEST PUSH2 0x706 JUMPI PUSH1 0x40 MLOAD PUSH32 0x8C379A000000000000000000000000000000000000000000000000000000000 DUP2 MSTORE PUSH1 0x4 ADD PUSH2 0x6FD SWAP1 PUSH2 0x2A86 JUMP JUMPDEST PUSH1 0x40 MLOAD DUP1 SWAP2 SUB SWAP1 REVERT JUMPDEST PUSH2 0x713 DUP6 DUP6 DUP6 DUP6 DUP6 PUSH2 0xE56 JUMP JUMPDEST POP POP POP POP POP JUMP JUMPDEST PUSH1 0x6 SLOAD DUP2 JUMP JUMPDEST PUSH1 0x42 DUP2 JUMP JUMPDEST PUSH2 0x2476 DUP2 JUMP JUMPDEST PUSH2 0x29A DUP2 JUMP JUMPDEST PUSH1 0x60 DUP2 MLOAD DUP4 MLOAD EQ PUSH2 0x777 JUMPI PUSH1 0x40 MLOAD PUSH32 0x8C379A000000000000000000000000000000000000000000000000000000000 DUP2 MSTORE PUSH1 0x4 ADD PUSH2 0x76E SWAP1 PUSH2 0x2B18 JUMP JUMPDEST PUSH1 0x40 MLOAD DUP1 SWAP2 SUB SWAP1 REVERT JUMPDEST PUSH1 0x0 DUP4 MLOAD PUSH8 0xFFFFFFFFFFFFFFFF DUP2 GT ISZERO PUSH2 0x794 JUMPI PUSH2 0x793 PUSH2 0x213D JUMP JUMPDEST JUMPDEST PUSH1 0x40 MLOAD SWAP1 DUP1 DUP3 MSTORE DUP1 PUSH1 0x20 MUL PUSH1 0x20 ADD DUP3 ADD PUSH1 0x40 MSTORE DUP1 ISZERO PUSH2 0x7C2 JUMPI DUP2 PUSH1 0x20 ADD PUSH1 0x20 DUP3 MUL DUP1 CALLDATASIZE DUP4 CALLDATACOPY DUP1 DUP3 ADD SWAP2 POP POP SWAP1 POP JUMPDEST POP SWAP1 POP PUSH1 0x0 JUMPDEST DUP5 MLOAD DUP2 LT ISZERO PUSH2 0x839 JUMPI PUSH2 0x80F DUP6 DUP3 DUP2 MLOAD DUP2 LT PUSH2 0x7E7 JUMPI PUSH2 0x7E6 PUSH2 0x2B38 JUMP JUMPDEST JUMPDEST PUSH1 0x20 MUL PUSH1 0x20 ADD ADD MLOAD DUP6 DUP4 DUP2 MLOAD DUP2 LT PUSH2 0x802 JUMPI PUSH2 0x801 PUSH2 0x2B38 JUMP JUMPDEST JUMPDEST PUSH1 0x20 MUL PUSH1 0x20 ADD ADD MLOAD PUSH2 0x50B JUMP JUMPDEST DUP3 DUP3 DUP2 MLOAD DUP2 LT PUSH2 0x822 JUMPI PUSH2 0x821 PUSH2 0x2B38 JUMP JUMPDEST JUMPDEST PUSH1 0x20 MUL PUSH1 0x20 ADD ADD DUP2 DUP2 MSTORE POP POP DUP1 PUSH1 0x1 ADD SWAP1 POP PUSH2 0x7C8 JUMP JUMPDEST POP DUP1 SWAP2 POP POP SWAP3 SWAP2 POP POP JUMP JUMPDEST PUSH1 0x0 DUP2 PUSH2 0x855 JUMPI DUP4 PUSH2 0xFFFF AND PUSH2 0x867 JUMP JUMPDEST PUSH1 0xD8 DUP5 PUSH2 0xFFFF AND PUSH2 0x866 SWAP2 SWAP1 PUSH2 0x2B96 JUMP JUMPDEST JUMPDEST SWAP1 POP PUSH1 0x0 PUSH1 0xA DUP5 PUSH2 0x878 SWAP2 SWAP1 PUSH2 0x2BCA JUMP JUMPDEST SWAP1 POP PUSH2 0x2710 PUSH2 0x2476 DUP3 PUSH2 0x88B SWAP2 SWAP1 PUSH2 0x2BCA JUMP JUMPDEST PUSH2 0x895 SWAP2 SWAP1 PUSH2 0x2C3B JUMP JUMPDEST PUSH1 0x6 PUSH1 0x0 DUP3 DUP3 SLOAD PUSH2 0x8A6 SWAP2 SWAP1 PUSH2 0x2B96 JUMP JUMPDEST SWAP3 POP POP DUP2 SWAP1 SSTORE POP PUSH2 0x8C8 CALLER DUP4 DUP7 PUSH1 0x40 MLOAD DUP1 PUSH1 0x20 ADD PUSH1 0x40 MSTORE DUP1 PUSH1 0x0 DUP2 MSTORE POP PUSH2 0x1171 JUMP JUMPDEST NUMBER PUSH1 0x4 PUSH1 0x0 CALLER PUSH20 0xFFFFFFFFFFFFFFFFFFFFFFFFFFFFFFFFFFFFFFFF AND PUSH20 0xFFFFFFFFFFFFFFFFFFFFFFFFFFFFFFFFFFFFFFFF AND DUP2 MSTORE PUSH1 0x20 ADD SWAP1 DUP2 MSTORE PUSH1 0x20 ADD PUSH1 0x0 KECCAK256 PUSH1 0x0 DUP5 DUP2 MSTORE PUSH1 0x20 ADD SWAP1 DUP2 MSTORE PUSH1 0x20 ADD PUSH1 0x0 KECCAK256 PUSH1 0x0 ADD DUP2 SWAP1 SSTORE POP POP POP POP POP POP JUMP JUMPDEST PUSH1 0x0 DUP2 PUSH2 0x938 JUMPI DUP5 PUSH2 0xFFFF AND PUSH2 0x94A JUMP JUMPDEST PUSH1 0xD8 DUP6 PUSH2 0xFFFF AND PUSH2 0x949 SWAP2 SWAP1 PUSH2 0x2B96 JUMP JUMPDEST JUMPDEST SWAP1 POP PUSH1 0x0 DUP3 PUSH2 0x95D JUMPI DUP5 PUSH2 0xFFFF AND PUSH2 0x96F JUMP JUMPDEST PUSH1 0xD8 DUP6 PUSH2 0xFFFF AND PUSH2 0x96E SWAP2 SWAP1 PUSH2 0x2B96 JUMP JUMPDEST JUMPDEST SWAP1 POP PUSH2 0x98D CALLER CALLER DUP5 DUP8 PUSH1 0x40 MLOAD DUP1 PUSH1 0x20 ADD PUSH1 0x40 MSTORE DUP1 PUSH1 0x0 DUP2 MSTORE POP PUSH2 0x1321 JUMP JUMPDEST NUMBER PUSH1 0x4 PUSH1 0x0 CALLER PUSH20 0xFFFFFFFFFFFFFFFFFFFFFFFFFFFFFFFFFFFFFFFF AND PUSH20 0xFFFFFFFFFFFFFFFFFFFFFFFFFFFFFFFFFFFFFFFF AND DUP2 MSTORE PUSH1 0x20 ADD SWAP1 DUP2 MSTORE PUSH1 0x20 ADD PUSH1 0x0 KECCAK256 PUSH1 0x0 DUP4 DUP2 MSTORE PUSH1 0x20 ADD SWAP1 DUP2 MSTORE PUSH1 0x20 ADD PUSH1 0x0 KECCAK256 PUSH1 0x0 ADD DUP2 SWAP1 SSTORE POP POP POP POP POP POP POP JUMP JUMPDEST PUSH1 0x0 PUSH2 0x9F7 PUSH2 0x15BC JUMP JUMPDEST PUSH1 0x0 DUP3 PUSH2 0xA08 JUMPI DUP5 PUSH2 0xFFFF AND PUSH2 0xA1A JUMP JUMPDEST PUSH1 0xD8 DUP6 PUSH2 0xFFFF AND PUSH2 0xA19 SWAP2 SWAP1 PUSH2 0x2B96 JUMP JUMPDEST JUMPDEST SWAP1 POP PUSH1 0x0 DUP4 PUSH2 0xA35 JUMPI PUSH1 0x2 DUP6 PUSH2 0xA30 SWAP2 SWAP1 PUSH2 0x2BCA JUMP JUMPDEST PUSH2 0xA44 JUMP JUMPDEST PUSH2 0x29A DUP6 PUSH2 0xA43 SWAP2 SWAP1 PUSH2 0x2BCA JUMP JUMPDEST JUMPDEST SWAP1 POP DUP1 PUSH2 0xA51 CALLER DUP5 PUSH2 0x50B JUMP JUMPDEST LT ISZERO PUSH2 0xA92 JUMPI PUSH1 0x40 MLOAD PUSH32 0x8C379A000000000000000000000000000000000000000000000000000000000 DUP2 MSTORE PUSH1 0x4 ADD PUSH2 0xA89 SWAP1 PUSH2 0x2CB8 JUMP JUMPDEST PUSH1 0x40 MLOAD DUP1 SWAP2 SUB SWAP1 REVERT JUMPDEST PUSH2 0xA9C DUP8 DUP4 PUSH2 0xC18 JUMP JUMPDEST SWAP3 POP PUSH1 0x0 DUP5 PUSH2 0xAAB JUMPI DUP6 PUSH2 0xAB9 JUMP JUMPDEST PUSH1 0x42 DUP7 PUSH2 0xAB8 SWAP2 SWAP1 PUSH2 0x2BCA JUMP JUMPDEST JUMPDEST SWAP1 POP PUSH2 0xAC6 DUP9 DUP5 DUP9 PUSH2 0x160B JUMP JUMPDEST PUSH2 0xAD1 CALLER DUP5 DUP4 PUSH2 0x160B JUMP JUMPDEST PUSH1 0x0 PUSH2 0x2710 PUSH2 0x29A DUP7 PUSH2 0xAE4 SWAP2 SWAP1 PUSH2 0x2BCA JUMP JUMPDEST PUSH2 0xAEE SWAP2 SWAP1 PUSH2 0x2C3B JUMP JUMPDEST SWAP1 POP PUSH1 0x0 DUP2 DUP7 PUSH2 0xAFE SWAP2 SWAP1 PUSH2 0x2CD8 JUMP JUMPDEST SWAP1 POP DUP6 PUSH1 0x6 PUSH1 0x0 DUP3 DUP3 SLOAD PUSH2 0xB12 SWAP2 SWAP1 PUSH2 0x2CD8 JUMP JUMPDEST SWAP3 POP POP DUP2 SWAP1 SSTORE POP DUP1 SWAP6 POP POP POP POP POP POP PUSH2 0xB29 PUSH2 0x1851 JUMP JUMPDEST SWAP5 SWAP4 POP POP POP POP JUMP JUMPDEST PUSH2 0xB43 PUSH2 0xB3C PUSH2 0xE4E JUMP JUMPDEST DUP4 DUP4 PUSH2 0x185B JUMP JUMPDEST POP POP JUMP JUMPDEST PUSH2 0x29A DUP2 JUMP JUMPDEST PUSH1 0xA DUP2 JUMP JUMPDEST PUSH1 0x5 PUSH1 0x20 MSTORE DUP1 PUSH1 0x0 MSTORE PUSH1 0x40 PUSH1 0x0 KECCAK256 PUSH1 0x0 SWAP2 POP SWAP1 POP DUP1 PUSH1 0x0 ADD PUSH1 0x0 SWAP1 SLOAD SWAP1 PUSH2 0x100 EXP SWAP1 DIV PUSH2 0xFFFF AND SWAP1 DUP1 PUSH1 0x1 ADD SLOAD SWAP1 POP DUP3 JUMP JUMPDEST PUSH1 0x0 PUSH1 0x1 PUSH1 0x0 DUP5 PUSH20 0xFFFFFFFFFFFFFFFFFFFFFFFFFFFFFFFFFFFFFFFF AND PUSH20 0xFFFFFFFFFFFFFFFFFFFFFFFFFFFFFFFFFFFFFFFF AND DUP2 MSTORE PUSH1 0x20 ADD SWAP1 DUP2 MSTORE PUSH1 0x20 ADD PUSH1 0x0 KECCAK256 PUSH1 0x0 DUP4 PUSH20 0xFFFFFFFFFFFFFFFFFFFFFFFFFFFFFFFFFFFFFFFF AND PUSH20 0xFFFFFFFFFFFFFFFFFFFFFFFFFFFFFFFFFFFFFFFF AND DUP2 MSTORE PUSH1 0x20 ADD SWAP1 DUP2 MSTORE PUSH1 0x20 ADD PUSH1 0x0 KECCAK256 PUSH1 0x0 SWAP1 SLOAD SWAP1 PUSH2 0x100 EXP SWAP1 DIV PUSH1 0xFF AND SWAP1 POP SWAP3 SWAP2 POP POP JUMP JUMPDEST PUSH1 0x0 DUP1 PUSH1 0x4 PUSH1 0x0 DUP6 PUSH20 0xFFFFFFFFFFFFFFFFFFFFFFFFFFFFFFFFFFFFFFFF AND PUSH20 0xFFFFFFFFFFFFFFFFFFFFFFFFFFFFFFFFFFFFFFFF AND DUP2 MSTORE PUSH1 0x20 ADD SWAP1 DUP2 MSTORE PUSH1 0x20 ADD PUSH1 0x0 KECCAK256 PUSH1 0x0 DUP5 DUP2 MSTORE PUSH1 0x20 ADD SWAP1 DUP2 MSTORE PUSH1 0x20 ADD PUSH1 0x0 KECCAK256 PUSH1 0x0 ADD SLOAD NUMBER PUSH2 0xC7A SWAP2 SWAP1 PUSH2 0x2CD8 JUMP JUMPDEST SWAP1 POP PUSH2 0x2710 DUP2 PUSH1 0x6 SLOAD PUSH2 0xC8D SWAP2 SWAP1 PUSH2 0x2BCA JUMP JUMPDEST PUSH2 0xC97 SWAP2 SWAP1 PUSH2 0x2C3B JUMP JUMPDEST SWAP2 POP POP SWAP3 SWAP2 POP POP JUMP JUMPDEST PUSH1 0x4 PUSH1 0x20 MSTORE DUP2 PUSH1 0x0 MSTORE PUSH1 0x40 PUSH1 0x0 KECCAK256 PUSH1 0x20 MSTORE DUP1 PUSH1 0x0 MSTORE PUSH1 0x40 PUSH1 0x0 KECCAK256 PUSH1 0x0 SWAP2 POP SWAP2 POP POP DUP1 PUSH1 0x0 ADD SLOAD SWAP1 POP DUP2 JUMP JUMPDEST PUSH2 0xCD3 PUSH2 0xE4E JUMP JUMPDEST PUSH20 0xFFFFFFFFFFFFFFFFFFFFFFFFFFFFFFFFFFFFFFFF AND DUP6 PUSH20 0xFFFFFFFFFFFFFFFFFFFFFFFFFFFFFFFFFFFFFFFF AND EQ DUP1 PUSH2 0xD19 JUMPI POP PUSH2 0xD18 DUP6 PUSH2 0xD13 PUSH2 0xE4E JUMP JUMPDEST PUSH2 0xB84 JUMP JUMPDEST JUMPDEST PUSH2 0xD58 JUMPI PUSH1 0x40 MLOAD PUSH32 0x8C379A000000000000000000000000000000000000000000000000000000000 DUP2 MSTORE PUSH1 0x4 ADD PUSH2 0xD4F SWAP1 PUSH2 0x2A86 JUMP JUMPDEST PUSH1 0x40 MLOAD DUP1 SWAP2 SUB SWAP1 REVERT JUMPDEST PUSH2 0xD65 DUP6 DUP6 DUP6 DUP6 DUP6 PUSH2 0x1321 JUMP JUMPDEST POP POP POP POP POP JUMP JUMPDEST PUSH1 0x0 PUSH32 0xD9B67A2600000000000000000000000000000000000000000000000000000000 PUSH28 0xFFFFFFFFFFFFFFFFFFFFFFFFFFFFFFFFFFFFFFFFFFFFFFFFFFFFFFFF NOT AND DUP3 PUSH28 0xFFFFFFFFFFFFFFFFFFFFFFFFFFFFFFFFFFFFFFFFFFFFFFFFFFFFFFFF NOT AND EQ DUP1 PUSH2 0xE37 JUMPI POP PUSH32 0xE89341C00000000000000000000000000000000000000000000000000000000 PUSH28 0xFFFFFFFFFFFFFFFFFFFFFFFFFFFFFFFFFFFFFFFFFFFFFFFFFFFFFFFF NOT AND DUP3 PUSH28 0xFFFFFFFFFFFFFFFFFFFFFFFFFFFFFFFFFFFFFFFFFFFFFFFFFFFFFFFF NOT AND EQ JUMPDEST DUP1 PUSH2 0xE47 JUMPI POP PUSH2 0xE46 DUP3 PUSH2 0x19C7 JUMP JUMPDEST JUMPDEST SWAP1 POP SWAP2 SWAP1 POP JUMP JUMPDEST PUSH1 0x0 CALLER SWAP1 POP SWAP1 JUMP JUMPDEST DUP2 MLOAD DUP4 MLOAD EQ PUSH2 0xE9A JUMPI PUSH1 0x40 MLOAD PUSH32 0x8C379A000000000000000000000000000000000000000000000000000000000 DUP2 MSTORE PUSH1 0x4 ADD PUSH2 0xE91 SWAP1 PUSH2 0x2D7E JUMP JUMPDEST PUSH1 0x40 MLOAD DUP1 SWAP2 SUB SWAP1 REVERT JUMPDEST PUSH1 0x0 PUSH20 0xFFFFFFFFFFFFFFFFFFFFFFFFFFFFFFFFFFFFFFFF AND DUP5 PUSH20 0xFFFFFFFFFFFFFFFFFFFFFFFFFFFFFFFFFFFFFFFF AND SUB PUSH2 0xF09 JUMPI PUSH1 0x40 MLOAD PUSH32 0x8C379A000000000000000000000000000000000000000000000000000000000 DUP2 MSTORE PUSH1 0x4 ADD PUSH2 0xF00 SWAP1 PUSH2 0x2E10 JUMP JUMPDEST PUSH1 0x40 MLOAD DUP1 SWAP2 SUB SWAP1 REVERT JUMPDEST PUSH1 0x0 PUSH2 0xF13 PUSH2 0xE4E JUMP JUMPDEST SWAP1 POP PUSH2 0xF23 DUP2 DUP8 DUP8 DUP8 DUP8 DUP8 PUSH2 0x1A31 JUMP JUMPDEST PUSH1 0x0 JUMPDEST DUP5 MLOAD DUP2 LT ISZERO PUSH2 0x10CE JUMPI PUSH1 0x0 DUP6 DUP3 DUP2 MLOAD DUP2 LT PUSH2 0xF44 JUMPI PUSH2 0xF43 PUSH2 0x2B38 JUMP JUMPDEST JUMPDEST PUSH1 0x20 MUL PUSH1 0x20 ADD ADD MLOAD SWAP1 POP PUSH1 0x0 DUP6 DUP4 DUP2 MLOAD DUP2 LT PUSH2 0xF63 JUMPI PUSH2 0xF62 PUSH2 0x2B38 JUMP JUMPDEST JUMPDEST PUSH1 0x20 MUL PUSH1 0x20 ADD ADD MLOAD SWAP1 POP PUSH1 0x0 DUP1 PUSH1 0x0 DUP5 DUP2 MSTORE PUSH1 0x20 ADD SWAP1 DUP2 MSTORE PUSH1 0x20 ADD PUSH1 0x0 KECCAK256 PUSH1 0x0 DUP12 PUSH20 0xFFFFFFFFFFFFFFFFFFFFFFFFFFFFFFFFFFFFFFFF AND PUSH20 0xFFFFFFFFFFFFFFFFFFFFFFFFFFFFFFFFFFFFFFFF AND DUP2 MSTORE PUSH1 0x20 ADD SWAP1 DUP2 MSTORE PUSH1 0x20 ADD PUSH1 0x0 KECCAK256 SLOAD SWAP1 POP DUP2 DUP2 LT ISZERO PUSH2 0x1004 JUMPI PUSH1 0x40 MLOAD PUSH32 0x8C379A000000000000000000000000000000000000000000000000000000000 DUP2 MSTORE PUSH1 0x4 ADD PUSH2 0xFFB SWAP1 PUSH2 0x2EA2 JUMP JUMPDEST PUSH1 0x40 MLOAD DUP1 SWAP2 SUB SWAP1 REVERT JUMPDEST DUP2 DUP2 SUB PUSH1 0x0 DUP1 DUP6 DUP2 MSTORE PUSH1 0x20 ADD SWAP1 DUP2 MSTORE PUSH1 0x20 ADD PUSH1 0x0 KECCAK256 PUSH1 0x0 DUP13 PUSH20 0xFFFFFFFFFFFFFFFFFFFFFFFFFFFFFFFFFFFFFFFF AND PUSH20 0xFFFFFFFFFFFFFFFFFFFFFFFFFFFFFFFFFFFFFFFF AND DUP2 MSTORE PUSH1 0x20 ADD SWAP1 DUP2 MSTORE PUSH1 0x20 ADD PUSH1 0x0 KECCAK256 DUP2 SWAP1 SSTORE POP DUP2 PUSH1 0x0 DUP1 DUP6 DUP2 MSTORE PUSH1 0x20 ADD SWAP1 DUP2 MSTORE PUSH1 0x20 ADD PUSH1 0x0 KECCAK256 PUSH1 0x0 DUP12 PUSH20 0xFFFFFFFFFFFFFFFFFFFFFFFFFFFFFFFFFFFFFFFF AND PUSH20 0xFFFFFFFFFFFFFFFFFFFFFFFFFFFFFFFFFFFFFFFF AND DUP2 MSTORE PUSH1 0x20 ADD SWAP1 DUP2 MSTORE PUSH1 0x20 ADD PUSH1 0x0 KECCAK256 PUSH1 0x0 DUP3 DUP3 SLOAD PUSH2 0x10B9 SWAP2 SWAP1 PUSH2 0x2B96 JUMP JUMPDEST SWAP3 POP POP DUP2 SWAP1 SSTORE POP POP POP POP DUP1 PUSH1 0x1 ADD SWAP1 POP PUSH2 0xF26 JUMP JUMPDEST POP DUP5 PUSH20 0xFFFFFFFFFFFFFFFFFFFFFFFFFFFFFFFFFFFFFFFF AND DUP7 PUSH20 0xFFFFFFFFFFFFFFFFFFFFFFFFFFFFFFFFFFFFFFFF AND DUP3 PUSH20 0xFFFFFFFFFFFFFFFFFFFFFFFFFFFFFFFFFFFFFFFF AND PUSH32 0x4A39DC06D4C0DBC64B70AF90FD698A233A518AA5D07E595D983B8C0526C8F7FB DUP8 DUP8 PUSH1 0x40 MLOAD PUSH2 0x1145 SWAP3 SWAP2 SWAP1 PUSH2 0x2EC2 JUMP JUMPDEST PUSH1 0x40 MLOAD DUP1 SWAP2 SUB SWAP1 LOG4 PUSH2 0x115B DUP2 DUP8 DUP8 DUP8 DUP8 DUP8 PUSH2 0x1A39 JUMP JUMPDEST PUSH2 0x1169 DUP2 DUP8 DUP8 DUP8 DUP8 DUP8 PUSH2 0x1A41 JUMP JUMPDEST POP POP POP POP POP POP JUMP JUMPDEST PUSH1 0x0 PUSH20 0xFFFFFFFFFFFFFFFFFFFFFFFFFFFFFFFFFFFFFFFF AND DUP5 PUSH20 0xFFFFFFFFFFFFFFFFFFFFFFFFFFFFFFFFFFFFFFFF AND SUB PUSH2 0x11E0 JUMPI PUSH1 0x40 MLOAD PUSH32 0x8C379A000000000000000000000000000000000000000000000000000000000 DUP2 MSTORE PUSH1 0x4 ADD PUSH2 0x11D7 SWAP1 PUSH2 0x2F6B JUMP JUMPDEST PUSH1 0x40 MLOAD DUP1 SWAP2 SUB SWAP1 REVERT JUMPDEST PUSH1 0x0 PUSH2 0x11EA PUSH2 0xE4E JUMP JUMPDEST SWAP1 POP PUSH1 0x0 PUSH2 0x11F7 DUP6 PUSH2 0x1C18 JUMP JUMPDEST SWAP1 POP PUSH1 0x0 PUSH2 0x1204 DUP6 PUSH2 0x1C18 JUMP JUMPDEST SWAP1 POP PUSH2 0x1215 DUP4 PUSH1 0x0 DUP10 DUP6 DUP6 DUP10 PUSH2 0x1A31 JUMP JUMPDEST DUP5 PUSH1 0x0 DUP1 DUP9 DUP2 MSTORE PUSH1 0x20 ADD SWAP1 DUP2 MSTORE PUSH1 0x20 ADD PUSH1 0x0 KECCAK256 PUSH1 0x0 DUP10 PUSH20 0xFFFFFFFFFFFFFFFFFFFFFFFFFFFFFFFFFFFFFFFF AND PUSH20 0xFFFFFFFFFFFFFFFFFFFFFFFFFFFFFFFFFFFFFFFF AND DUP2 MSTORE PUSH1 0x20 ADD SWAP1 DUP2 MSTORE PUSH1 0x20 ADD PUSH1 0x0 KECCAK256 PUSH1 0x0 DUP3 DUP3 SLOAD PUSH2 0x1274 SWAP2 SWAP1 PUSH2 0x2B96 JUMP JUMPDEST SWAP3 POP POP DUP2 SWAP1 SSTORE POP DUP7 PUSH20 0xFFFFFFFFFFFFFFFFFFFFFFFFFFFFFFFFFFFFFFFF AND PUSH1 0x0 PUSH20 0xFFFFFFFFFFFFFFFFFFFFFFFFFFFFFFFFFFFFFFFF AND DUP5 PUSH20 0xFFFFFFFFFFFFFFFFFFFFFFFFFFFFFFFFFFFFFFFF AND PUSH32 0xC3D58168C5AE7397731D063D5BBF3D657854427343F4C083240F7AACAA2D0F62 DUP10 DUP10 PUSH1 0x40 MLOAD PUSH2 0x12F2 SWAP3 SWAP2 SWAP1 PUSH2 0x2F8B JUMP JUMPDEST PUSH1 0x40 MLOAD DUP1 SWAP2 SUB SWAP1 LOG4 PUSH2 0x1309 DUP4 PUSH1 0x0 DUP10 DUP6 DUP6 DUP10 PUSH2 0x1A39 JUMP JUMPDEST PUSH2 0x1318 DUP4 PUSH1 0x0 DUP10 DUP10 DUP10 DUP10 PUSH2 0x1C92 JUMP JUMPDEST POP POP POP POP POP POP POP JUMP JUMPDEST PUSH1 0x0 PUSH20 0xFFFFFFFFFFFFFFFFFFFFFFFFFFFFFFFFFFFFFFFF AND DUP5 PUSH20 0xFFFFFFFFFFFFFFFFFFFFFFFFFFFFFFFFFFFFFFFF AND SUB PUSH2 0x1390 JUMPI PUSH1 0x40 MLOAD PUSH32 0x8C379A000000000000000000000000000000000000000000000000000000000 DUP2 MSTORE PUSH1 0x4 ADD PUSH2 0x1387 SWAP1 PUSH2 0x2E10 JUMP JUMPDEST PUSH1 0x40 MLOAD DUP1 SWAP2 SUB SWAP1 REVERT JUMPDEST PUSH1 0x0 PUSH2 0x139A PUSH2 0xE4E JUMP JUMPDEST SWAP1 POP PUSH1 0x0 PUSH2 0x13A7 DUP6 PUSH2 0x1C18 JUMP JUMPDEST SWAP1 POP PUSH1 0x0 PUSH2 0x13B4 DUP6 PUSH2 0x1C18 JUMP JUMPDEST SWAP1 POP PUSH2 0x13C4 DUP4 DUP10 DUP10 DUP6 DUP6 DUP10 PUSH2 0x1A31 JUMP JUMPDEST PUSH1 0x0 DUP1 PUSH1 0x0 DUP9 DUP2 MSTORE PUSH1 0x20 ADD SWAP1 DUP2 MSTORE PUSH1 0x20 ADD PUSH1 0x0 KECCAK256 PUSH1 0x0 DUP11 PUSH20 0xFFFFFFFFFFFFFFFFFFFFFFFFFFFFFFFFFFFFFFFF AND PUSH20 0xFFFFFFFFFFFFFFFFFFFFFFFFFFFFFFFFFFFFFFFF AND DUP2 MSTORE PUSH1 0x20 ADD SWAP1 DUP2 MSTORE PUSH1 0x20 ADD PUSH1 0x0 KECCAK256 SLOAD SWAP1 POP DUP6 DUP2 LT ISZERO PUSH2 0x145B JUMPI PUSH1 0x40 MLOAD PUSH32 0x8C379A000000000000000000000000000000000000000000000000000000000 DUP2 MSTORE PUSH1 0x4 ADD PUSH2 0x1452 SWAP1 PUSH2 0x2EA2 JUMP JUMPDEST PUSH1 0x40 MLOAD DUP1 SWAP2 SUB SWAP1 REVERT JUMPDEST DUP6 DUP2 SUB PUSH1 0x0 DUP1 DUP10 DUP2 MSTORE PUSH1 0x20 ADD SWAP1 DUP2 MSTORE PUSH1 0x20 ADD PUSH1 0x0 KECCAK256 PUSH1 0x0 DUP12 PUSH20 0xFFFFFFFFFFFFFFFFFFFFFFFFFFFFFFFFFFFFFFFF AND PUSH20 0xFFFFFFFFFFFFFFFFFFFFFFFFFFFFFFFFFFFFFFFF AND DUP2 MSTORE PUSH1 0x20 ADD SWAP1 DUP2 MSTORE PUSH1 0x20 ADD PUSH1 0x0 KECCAK256 DUP2 SWAP1 SSTORE POP DUP6 PUSH1 0x0 DUP1 DUP10 DUP2 MSTORE PUSH1 0x20 ADD SWAP1 DUP2 MSTORE PUSH1 0x20 ADD PUSH1 0x0 KECCAK256 PUSH1 0x0 DUP11 PUSH20 0xFFFFFFFFFFFFFFFFFFFFFFFFFFFFFFFFFFFFFFFF AND PUSH20 0xFFFFFFFFFFFFFFFFFFFFFFFFFFFFFFFFFFFFFFFF AND DUP2 MSTORE PUSH1 0x20 ADD SWAP1 DUP2 MSTORE PUSH1 0x20 ADD PUSH1 0x0 KECCAK256 PUSH1 0x0 DUP3 DUP3 SLOAD PUSH2 0x1510 SWAP2 SWAP1 PUSH2 0x2B96 JUMP JUMPDEST SWAP3 POP POP DUP2 SWAP1 SSTORE POP DUP8 PUSH20 0xFFFFFFFFFFFFFFFFFFFFFFFFFFFFFFFFFFFFFFFF AND DUP10 PUSH20 0xFFFFFFFFFFFFFFFFFFFFFFFFFFFFFFFFFFFFFFFF AND DUP6 PUSH20 0xFFFFFFFFFFFFFFFFFFFFFFFFFFFFFFFFFFFFFFFF AND PUSH32 0xC3D58168C5AE7397731D063D5BBF3D657854427343F4C083240F7AACAA2D0F62 DUP11 DUP11 PUSH1 0x40 MLOAD PUSH2 0x158D SWAP3 SWAP2 SWAP1 PUSH2 0x2F8B JUMP JUMPDEST PUSH1 0x40 MLOAD DUP1 SWAP2 SUB SWAP1 LOG4 PUSH2 0x15A3 DUP5 DUP11 DUP11 DUP7 DUP7 DUP11 PUSH2 0x1A39 JUMP JUMPDEST PUSH2 0x15B1 DUP5 DUP11 DUP11 DUP11 DUP11 DUP11 PUSH2 0x1C92 JUMP JUMPDEST POP POP POP POP POP POP POP POP POP JUMP JUMPDEST PUSH1 0x2 PUSH1 0x3 SLOAD SUB PUSH2 0x1601 JUMPI PUSH1 0x40 MLOAD PUSH32 0x8C379A000000000000000000000000000000000000000000000000000000000 DUP2 MSTORE PUSH1 0x4 ADD PUSH2 0x15F8 SWAP1 PUSH2 0x3000 JUMP JUMPDEST PUSH1 0x40 MLOAD DUP1 SWAP2 SUB SWAP1 REVERT JUMPDEST PUSH1 0x2 PUSH1 0x3 DUP2 SWAP1 SSTORE POP JUMP JUMPDEST PUSH1 0x0 PUSH20 0xFFFFFFFFFFFFFFFFFFFFFFFFFFFFFFFFFFFFFFFF AND DUP4 PUSH20 0xFFFFFFFFFFFFFFFFFFFFFFFFFFFFFFFFFFFFFFFF AND SUB PUSH2 0x167A JUMPI PUSH1 0x40 MLOAD PUSH32 0x8C379A000000000000000000000000000000000000000000000000000000000 DUP2 MSTORE PUSH1 0x4 ADD PUSH2 0x1671 SWAP1 PUSH2 0x3092 JUMP JUMPDEST PUSH1 0x40 MLOAD DUP1 SWAP2 SUB SWAP1 REVERT JUMPDEST PUSH1 0x0 PUSH2 0x1684 PUSH2 0xE4E JUMP JUMPDEST SWAP1 POP PUSH1 0x0 PUSH2 0x1691 DUP5 PUSH2 0x1C18 JUMP JUMPDEST SWAP1 POP PUSH1 0x0 PUSH2 0x169E DUP5 PUSH2 0x1C18 JUMP JUMPDEST SWAP1 POP PUSH2 0x16BE DUP4 DUP8 PUSH1 0x0 DUP6 DUP6 PUSH1 0x40 MLOAD DUP1 PUSH1 0x20 ADD PUSH1 0x40 MSTORE DUP1 PUSH1 0x0 DUP2 MSTORE POP PUSH2 0x1A31 JUMP JUMPDEST PUSH1 0x0 DUP1 PUSH1 0x0 DUP8 DUP2 MSTORE PUSH1 0x20 ADD SWAP1 DUP2 MSTORE PUSH1 0x20 ADD PUSH1 0x0 KECCAK256 PUSH1 0x0 DUP9 PUSH20 0xFFFFFFFFFFFFFFFFFFFFFFFFFFFFFFFFFFFFFFFF AND PUSH20 0xFFFFFFFFFFFFFFFFFFFFFFFFFFFFFFFFFFFFFFFF AND DUP2 MSTORE PUSH1 0x20 ADD SWAP1 DUP2 MSTORE PUSH1 0x20 ADD PUSH1 0x0 KECCAK256 SLOAD SWAP1 POP DUP5 DUP2 LT ISZERO PUSH2 0x1755 JUMPI PUSH1 0x40 MLOAD PUSH32 0x8C379A000000000000000000000000000000000000000000000000000000000 DUP2 MSTORE PUSH1 0x4 ADD PUSH2 0x174C SWAP1 PUSH2 0x3124 JUMP JUMPDEST PUSH1 0x40 MLOAD DUP1 SWAP2 SUB SWAP1 REVERT JUMPDEST DUP5 DUP2 SUB PUSH1 0x0 DUP1 DUP9 DUP2 MSTORE PUSH1 0x20 ADD SWAP1 DUP2 MSTORE PUSH1 0x20 ADD PUSH1 0x0 KECCAK256 PUSH1 0x0 DUP10 PUSH20 0xFFFFFFFFFFFFFFFFFFFFFFFFFFFFFFFFFFFFFFFF AND PUSH20 0xFFFFFFFFFFFFFFFFFFFFFFFFFFFFFFFFFFFFFFFF AND DUP2 MSTORE PUSH1 0x20 ADD SWAP1 DUP2 MSTORE PUSH1 0x20 ADD PUSH1 0x0 KECCAK256 DUP2 SWAP1 SSTORE POP PUSH1 0x0 PUSH20 0xFFFFFFFFFFFFFFFFFFFFFFFFFFFFFFFFFFFFFFFF AND DUP8 PUSH20 0xFFFFFFFFFFFFFFFFFFFFFFFFFFFFFFFFFFFFFFFF AND DUP6 PUSH20 0xFFFFFFFFFFFFFFFFFFFFFFFFFFFFFFFFFFFFFFFF AND PUSH32 0xC3D58168C5AE7397731D063D5BBF3D657854427343F4C083240F7AACAA2D0F62 DUP10 DUP10 PUSH1 0x40 MLOAD PUSH2 0x1822 SWAP3 SWAP2 SWAP1 PUSH2 0x2F8B JUMP JUMPDEST PUSH1 0x40 MLOAD DUP1 SWAP2 SUB SWAP1 LOG4 PUSH2 0x1848 DUP5 DUP9 PUSH1 0x0 DUP7 DUP7 PUSH1 0x40 MLOAD DUP1 PUSH1 0x20 ADD PUSH1 0x40 MSTORE DUP1 PUSH1 0x0 DUP2 MSTORE POP PUSH2 0x1A39 JUMP JUMPDEST POP POP POP POP POP POP POP JUMP JUMPDEST PUSH1 0x1 PUSH1 0x3 DUP2 SWAP1 SSTORE POP JUMP JUMPDEST DUP2 PUSH20 0xFFFFFFFFFFFFFFFFFFFFFFFFFFFFFFFFFFFFFFFF AND DUP4 PUSH20 0xFFFFFFFFFFFFFFFFFFFFFFFFFFFFFFFFFFFFFFFF AND SUB PUSH2 0x18C9 JUMPI PUSH1 0x40 MLOAD PUSH32 0x8C379A000000000000000000000000000000000000000000000000000000000 DUP2 MSTORE PUSH1 0x4 ADD PUSH2 0x18C0 SWAP1 PUSH2 0x31B6 JUMP JUMPDEST PUSH1 0x40 MLOAD DUP1 SWAP2 SUB SWAP1 REVERT JUMPDEST DUP1 PUSH1 0x1 PUSH1 0x0 DUP6 PUSH20 0xFFFFFFFFFFFFFFFFFFFFFFFFFFFFFFFFFFFFFFFF AND PUSH20 0xFFFFFFFFFFFFFFFFFFFFFFFFFFFFFFFFFFFFFFFF AND DUP2 MSTORE PUSH1 0x20 ADD SWAP1 DUP2 MSTORE PUSH1 0x20 ADD PUSH1 0x0 KECCAK256 PUSH1 0x0 DUP5 PUSH20 0xFFFFFFFFFFFFFFFFFFFFFFFFFFFFFFFFFFFFFFFF AND PUSH20 0xFFFFFFFFFFFFFFFFFFFFFFFFFFFFFFFFFFFFFFFF AND DUP2 MSTORE PUSH1 0x20 ADD SWAP1 DUP2 MSTORE PUSH1 0x20 ADD PUSH1 0x0 KECCAK256 PUSH1 0x0 PUSH2 0x100 EXP DUP2 SLOAD DUP2 PUSH1 0xFF MUL NOT AND SWAP1 DUP4 ISZERO ISZERO MUL OR SWAP1 SSTORE POP DUP2 PUSH20 0xFFFFFFFFFFFFFFFFFFFFFFFFFFFFFFFFFFFFFFFF AND DUP4 PUSH20 0xFFFFFFFFFFFFFFFFFFFFFFFFFFFFFFFFFFFFFFFF AND PUSH32 0x17307EAB39AB6107E8899845AD3D59BD9653F200F220920489CA2B5937696C31 DUP4 PUSH1 0x40 MLOAD PUSH2 0x19BA SWAP2 SWAP1 PUSH2 0x203E JUMP JUMPDEST PUSH1 0x40 MLOAD DUP1 SWAP2 SUB SWAP1 LOG3 POP POP POP JUMP JUMPDEST PUSH1 0x0 PUSH32 0x1FFC9A700000000000000000000000000000000000000000000000000000000 PUSH28 0xFFFFFFFFFFFFFFFFFFFFFFFFFFFFFFFFFFFFFFFFFFFFFFFFFFFFFFFF NOT AND DUP3 PUSH28 0xFFFFFFFFFFFFFFFFFFFFFFFFFFFFFFFFFFFFFFFFFFFFFFFFFFFFFFFF NOT AND EQ SWAP1 POP SWAP2 SWAP1 POP JUMP JUMPDEST POP POP POP POP POP POP JUMP JUMPDEST POP POP POP POP POP POP JUMP JUMPDEST PUSH2 0x1A60 DUP5 PUSH20 0xFFFFFFFFFFFFFFFFFFFFFFFFFFFFFFFFFFFFFFFF AND PUSH2 0x1E69 JUMP JUMPDEST ISZERO PUSH2 0x1C10 JUMPI DUP4 PUSH20 0xFFFFFFFFFFFFFFFFFFFFFFFFFFFFFFFFFFFFFFFF AND PUSH4 0xBC197C81 DUP8 DUP8 DUP7 DUP7 DUP7 PUSH1 0x40 MLOAD DUP7 PUSH4 0xFFFFFFFF AND PUSH1 0xE0 SHL DUP2 MSTORE PUSH1 0x4 ADD PUSH2 0x1AA6 SWAP6 SWAP5 SWAP4 SWAP3 SWAP2 SWAP1 PUSH2 0x323A JUMP JUMPDEST PUSH1 0x20 PUSH1 0x40 MLOAD DUP1 DUP4 SUB DUP2 PUSH1 0x0 DUP8 GAS CALL SWAP3 POP POP POP DUP1 ISZERO PUSH2 0x1AE2 JUMPI POP PUSH1 0x40 MLOAD RETURNDATASIZE PUSH1 0x1F NOT PUSH1 0x1F DUP3 ADD AND DUP3 ADD DUP1 PUSH1 0x40 MSTORE POP DUP2 ADD SWAP1 PUSH2 0x1ADF SWAP2 SWAP1 PUSH2 0x32B7 JUMP JUMPDEST PUSH1 0x1 JUMPDEST PUSH2 0x1B87 JUMPI PUSH2 0x1AEE PUSH2 0x32F1 JUMP JUMPDEST DUP1 PUSH4 0x8C379A0 SUB PUSH2 0x1B4A JUMPI POP PUSH2 0x1B02 PUSH2 0x3313 JUMP JUMPDEST DUP1 PUSH2 0x1B0D JUMPI POP PUSH2 0x1B4C JUMP JUMPDEST DUP1 PUSH1 0x40 MLOAD PUSH32 0x8C379A000000000000000000000000000000000000000000000000000000000 DUP2 MSTORE PUSH1 0x4 ADD PUSH2 0x1B41 SWAP2 SWAP1 PUSH2 0x2116 JUMP JUMPDEST PUSH1 0x40 MLOAD DUP1 SWAP2 SUB SWAP1 REVERT JUMPDEST POP JUMPDEST PUSH1 0x40 MLOAD PUSH32 0x8C379A000000000000000000000000000000000000000000000000000000000 DUP2 MSTORE PUSH1 0x4 ADD PUSH2 0x1B7E SWAP1 PUSH2 0x3415 JUMP JUMPDEST PUSH1 0x40 MLOAD DUP1 SWAP2 SUB SWAP1 REVERT JUMPDEST PUSH4 0xBC197C81 PUSH1 0xE0 SHL PUSH28 0xFFFFFFFFFFFFFFFFFFFFFFFFFFFFFFFFFFFFFFFFFFFFFFFFFFFFFFFF NOT AND DUP2 PUSH28 0xFFFFFFFFFFFFFFFFFFFFFFFFFFFFFFFFFFFFFFFFFFFFFFFFFFFFFFFF NOT AND EQ PUSH2 0x1C0E JUMPI PUSH1 0x40 MLOAD PUSH32 0x8C379A000000000000000000000000000000000000000000000000000000000 DUP2 MSTORE PUSH1 0x4 ADD PUSH2 0x1C05 SWAP1 PUSH2 0x34A7 JUMP JUMPDEST PUSH1 0x40 MLOAD DUP1 SWAP2 SUB SWAP1 REVERT JUMPDEST POP JUMPDEST POP POP POP POP POP POP JUMP JUMPDEST PUSH1 0x60 PUSH1 0x0 PUSH1 0x1 PUSH8 0xFFFFFFFFFFFFFFFF DUP2 GT ISZERO PUSH2 0x1C37 JUMPI PUSH2 0x1C36 PUSH2 0x213D JUMP JUMPDEST JUMPDEST PUSH1 0x40 MLOAD SWAP1 DUP1 DUP3 MSTORE DUP1 PUSH1 0x20 MUL PUSH1 0x20 ADD DUP3 ADD PUSH1 0x40 MSTORE DUP1 ISZERO PUSH2 0x1C65 JUMPI DUP2 PUSH1 0x20 ADD PUSH1 0x20 DUP3 MUL DUP1 CALLDATASIZE DUP4 CALLDATACOPY DUP1 DUP3 ADD SWAP2 POP POP SWAP1 POP JUMPDEST POP SWAP1 POP DUP3 DUP2 PUSH1 0x0 DUP2 MLOAD DUP2 LT PUSH2 0x1C7D JUMPI PUSH2 0x1C7C PUSH2 0x2B38 JUMP JUMPDEST JUMPDEST PUSH1 0x20 MUL PUSH1 0x20 ADD ADD DUP2 DUP2 MSTORE POP POP DUP1 SWAP2 POP POP SWAP2 SWAP1 POP JUMP JUMPDEST PUSH2 0x1CB1 DUP5 PUSH20 0xFFFFFFFFFFFFFFFFFFFFFFFFFFFFFFFFFFFFFFFF AND PUSH2 0x1E69 JUMP JUMPDEST ISZERO PUSH2 0x1E61 JUMPI DUP4 PUSH20 0xFFFFFFFFFFFFFFFFFFFFFFFFFFFFFFFFFFFFFFFF AND PUSH4 0xF23A6E61 DUP8 DUP8 DUP7 DUP7 DUP7 PUSH1 0x40 MLOAD DUP7 PUSH4 0xFFFFFFFF AND PUSH1 0xE0 SHL DUP2 MSTORE PUSH1 0x4 ADD PUSH2 0x1CF7 SWAP6 SWAP5 SWAP4 SWAP3 SWAP2 SWAP1 PUSH2 0x34C7 JUMP JUMPDEST PUSH1 0x20 PUSH1 0x40 MLOAD DUP1 DUP4 SUB DUP2 PUSH1 0x0 DUP8 GAS CALL SWAP3 POP POP POP DUP1 ISZERO PUSH2 0x1D33 JUMPI POP PUSH1 0x40 MLOAD RETURNDATASIZE PUSH1 0x1F NOT PUSH1 0x1F DUP3 ADD AND DUP3 ADD DUP1 PUSH1 0x40 MSTORE POP DUP2 ADD SWAP1 PUSH2 0x1D30 SWAP2 SWAP1 PUSH2 0x32B7 JUMP JUMPDEST PUSH1 0x1 JUMPDEST PUSH2 0x1DD8 JUMPI PUSH2 0x1D3F PUSH2 0x32F1 JUMP JUMPDEST DUP1 PUSH4 0x8C379A0 SUB PUSH2 0x1D9B JUMPI POP PUSH2 0x1D53 PUSH2 0x3313 JUMP JUMPDEST DUP1 PUSH2 0x1D5E JUMPI POP PUSH2 0x1D9D JUMP JUMPDEST DUP1 PUSH1 0x40 MLOAD PUSH32 0x8C379A000000000000000000000000000000000000000000000000000000000 DUP2 MSTORE PUSH1 0x4 ADD PUSH2 0x1D92 SWAP2 SWAP1 PUSH2 0x2116 JUMP JUMPDEST PUSH1 0x40 MLOAD DUP1 SWAP2 SUB SWAP1 REVERT JUMPDEST POP JUMPDEST PUSH1 0x40 MLOAD PUSH32 0x8C379A000000000000000000000000000000000000000000000000000000000 DUP2 MSTORE PUSH1 0x4 ADD PUSH2 0x1DCF SWAP1 PUSH2 0x3415 JUMP JUMPDEST PUSH1 0x40 MLOAD DUP1 SWAP2 SUB SWAP1 REVERT JUMPDEST PUSH4 0xF23A6E61 PUSH1 0xE0 SHL PUSH28 0xFFFFFFFFFFFFFFFFFFFFFFFFFFFFFFFFFFFFFFFFFFFFFFFFFFFFFFFF NOT AND DUP2 PUSH28 0xFFFFFFFFFFFFFFFFFFFFFFFFFFFFFFFFFFFFFFFFFFFFFFFFFFFFFFFF NOT AND EQ PUSH2 0x1E5F JUMPI PUSH1 0x40 MLOAD PUSH32 0x8C379A000000000000000000000000000000000000000000000000000000000 DUP2 MSTORE PUSH1 0x4 ADD PUSH2 0x1E56 SWAP1 PUSH2 0x34A7 JUMP JUMPDEST PUSH1 0x40 MLOAD DUP1 SWAP2 SUB SWAP1 REVERT JUMPDEST POP JUMPDEST POP POP POP POP POP POP JUMP JUMPDEST PUSH1 0x0 DUP1 DUP3 PUSH20 0xFFFFFFFFFFFFFFFFFFFFFFFFFFFFFFFFFFFFFFFF AND EXTCODESIZE GT SWAP1 POP SWAP2 SWAP1 POP JUMP JUMPDEST PUSH1 0x0 PUSH1 0x40 MLOAD SWAP1 POP SWAP1 JUMP JUMPDEST PUSH1 0x0 DUP1 REVERT JUMPDEST PUSH1 0x0 DUP1 REVERT JUMPDEST PUSH1 0x0 PUSH20 0xFFFFFFFFFFFFFFFFFFFFFFFFFFFFFFFFFFFFFFFF DUP3 AND SWAP1 POP SWAP2 SWAP1 POP JUMP JUMPDEST PUSH1 0x0 PUSH2 0x1ECB DUP3 PUSH2 0x1EA0 JUMP JUMPDEST SWAP1 POP SWAP2 SWAP1 POP JUMP JUMPDEST PUSH2 0x1EDB DUP2 PUSH2 0x1EC0 JUMP JUMPDEST DUP2 EQ PUSH2 0x1EE6 JUMPI PUSH1 0x0 DUP1 REVERT JUMPDEST POP JUMP JUMPDEST PUSH1 0x0 DUP2 CALLDATALOAD SWAP1 POP PUSH2 0x1EF8 DUP2 PUSH2 0x1ED2 JUMP JUMPDEST SWAP3 SWAP2 POP POP JUMP JUMPDEST PUSH1 0x0 DUP2 SWAP1 POP SWAP2 SWAP1 POP JUMP JUMPDEST PUSH2 0x1F11 DUP2 PUSH2 0x1EFE JUMP JUMPDEST DUP2 EQ PUSH2 0x1F1C JUMPI PUSH1 0x0 DUP1 REVERT JUMPDEST POP JUMP JUMPDEST PUSH1 0x0 DUP2 CALLDATALOAD SWAP1 POP PUSH2 0x1F2E DUP2 PUSH2 0x1F08 JUMP JUMPDEST SWAP3 SWAP2 POP POP JUMP JUMPDEST PUSH1 0x0 DUP1 PUSH1 0x40 DUP4 DUP6 SUB SLT ISZERO PUSH2 0x1F4B JUMPI PUSH2 0x1F4A PUSH2 0x1E96 JUMP JUMPDEST JUMPDEST PUSH1 0x0 PUSH2 0x1F59 DUP6 DUP3 DUP7 ADD PUSH2 0x1EE9 JUMP JUMPDEST SWAP3 POP POP PUSH1 0x20 PUSH2 0x1F6A DUP6 DUP3 DUP7 ADD PUSH2 0x1F1F JUMP JUMPDEST SWAP2 POP POP SWAP3 POP SWAP3 SWAP1 POP JUMP JUMPDEST PUSH2 0x1F7D DUP2 PUSH2 0x1EFE JUMP JUMPDEST DUP3 MSTORE POP POP JUMP JUMPDEST PUSH1 0x0 PUSH1 0x20 DUP3 ADD SWAP1 POP PUSH2 0x1F98 PUSH1 0x0 DUP4 ADD DUP5 PUSH2 0x1F74 JUMP JUMPDEST SWAP3 SWAP2 POP POP JUMP JUMPDEST PUSH1 0x0 PUSH32 0xFFFFFFFF00000000000000000000000000000000000000000000000000000000 DUP3 AND SWAP1 POP SWAP2 SWAP1 POP JUMP JUMPDEST PUSH2 0x1FD3 DUP2 PUSH2 0x1F9E JUMP JUMPDEST DUP2 EQ PUSH2 0x1FDE JUMPI PUSH1 0x0 DUP1 REVERT JUMPDEST POP JUMP JUMPDEST PUSH1 0x0 DUP2 CALLDATALOAD SWAP1 POP PUSH2 0x1FF0 DUP2 PUSH2 0x1FCA JUMP JUMPDEST SWAP3 SWAP2 POP POP JUMP JUMPDEST PUSH1 0x0 PUSH1 0x20 DUP3 DUP5 SUB SLT ISZERO PUSH2 0x200C JUMPI PUSH2 0x200B PUSH2 0x1E96 JUMP JUMPDEST JUMPDEST PUSH1 0x0 PUSH2 0x201A DUP5 DUP3 DUP6 ADD PUSH2 0x1FE1 JUMP JUMPDEST SWAP2 POP POP SWAP3 SWAP2 POP POP JUMP JUMPDEST PUSH1 0x0 DUP2 ISZERO ISZERO SWAP1 POP SWAP2 SWAP1 POP JUMP JUMPDEST PUSH2 0x2038 DUP2 PUSH2 0x2023 JUMP JUMPDEST DUP3 MSTORE POP POP JUMP JUMPDEST PUSH1 0x0 PUSH1 0x20 DUP3 ADD SWAP1 POP PUSH2 0x2053 PUSH1 0x0 DUP4 ADD DUP5 PUSH2 0x202F JUMP JUMPDEST SWAP3 SWAP2 POP POP JUMP JUMPDEST PUSH1 0x0 PUSH1 0x20 DUP3 DUP5 SUB SLT ISZERO PUSH2 0x206F JUMPI PUSH2 0x206E PUSH2 0x1E96 JUMP JUMPDEST JUMPDEST PUSH1 0x0 PUSH2 0x207D DUP5 DUP3 DUP6 ADD PUSH2 0x1F1F JUMP JUMPDEST SWAP2 POP POP SWAP3 SWAP2 POP POP JUMP JUMPDEST PUSH1 0x0 DUP2 MLOAD SWAP1 POP SWAP2 SWAP1 POP JUMP JUMPDEST PUSH1 0x0 DUP3 DUP3 MSTORE PUSH1 0x20 DUP3 ADD SWAP1 POP SWAP3 SWAP2 POP POP JUMP JUMPDEST PUSH1 0x0 JUMPDEST DUP4 DUP2 LT ISZERO PUSH2 0x20C0 JUMPI DUP1 DUP3 ADD MLOAD DUP2 DUP5 ADD MSTORE PUSH1 0x20 DUP2 ADD SWAP1 POP PUSH2 0x20A5 JUMP JUMPDEST PUSH1 0x0 DUP5 DUP5 ADD MSTORE POP POP POP POP JUMP JUMPDEST PUSH1 0x0 PUSH1 0x1F NOT PUSH1 0x1F DUP4 ADD AND SWAP1 POP SWAP2 SWAP1 POP JUMP JUMPDEST PUSH1 0x0 PUSH2 0x20E8 DUP3 PUSH2 0x2086 JUMP JUMPDEST PUSH2 0x20F2 DUP2 DUP6 PUSH2 0x2091 JUMP JUMPDEST SWAP4 POP PUSH2 0x2102 DUP2 DUP6 PUSH1 0x20 DUP7 ADD PUSH2 0x20A2 JUMP JUMPDEST PUSH2 0x210B DUP2 PUSH2 0x20CC JUMP JUMPDEST DUP5 ADD SWAP2 POP POP SWAP3 SWAP2 POP POP JUMP JUMPDEST PUSH1 0x0 PUSH1 0x20 DUP3 ADD SWAP1 POP DUP2 DUP2 SUB PUSH1 0x0 DUP4 ADD MSTORE PUSH2 0x2130 DUP2 DUP5 PUSH2 0x20DD JUMP JUMPDEST SWAP1 POP SWAP3 SWAP2 POP POP JUMP JUMPDEST PUSH1 0x0 DUP1 REVERT JUMPDEST PUSH32 0x4E487B7100000000000000000000000000000000000000000000000000000000 PUSH1 0x0 MSTORE PUSH1 0x41 PUSH1 0x4 MSTORE PUSH1 0x24 PUSH1 0x0 REVERT JUMPDEST PUSH2 0x2175 DUP3 PUSH2 0x20CC JUMP JUMPDEST DUP2 ADD DUP2 DUP2 LT PUSH8 0xFFFFFFFFFFFFFFFF DUP3 GT OR ISZERO PUSH2 0x2194 JUMPI PUSH2 0x2193 PUSH2 0x213D JUMP JUMPDEST JUMPDEST DUP1 PUSH1 0x40 MSTORE POP POP POP JUMP JUMPDEST PUSH1 0x0 PUSH2 0x21A7 PUSH2 0x1E8C JUMP JUMPDEST SWAP1 POP PUSH2 0x21B3 DUP3 DUP3 PUSH2 0x216C JUMP JUMPDEST SWAP2 SWAP1 POP JUMP JUMPDEST PUSH1 0x0 PUSH8 0xFFFFFFFFFFFFFFFF DUP3 GT ISZERO PUSH2 0x21D3 JUMPI PUSH2 0x21D2 PUSH2 0x213D JUMP JUMPDEST JUMPDEST PUSH1 0x20 DUP3 MUL SWAP1 POP PUSH1 0x20 DUP2 ADD SWAP1 POP SWAP2 SWAP1 POP JUMP JUMPDEST PUSH1 0x0 DUP1 REVERT JUMPDEST PUSH1 0x0 PUSH2 0x21FC PUSH2 0x21F7 DUP5 PUSH2 0x21B8 JUMP JUMPDEST PUSH2 0x219D JUMP JUMPDEST SWAP1 POP DUP1 DUP4 DUP3 MSTORE PUSH1 0x20 DUP3 ADD SWAP1 POP PUSH1 0x20 DUP5 MUL DUP4 ADD DUP6 DUP2 GT ISZERO PUSH2 0x221F JUMPI PUSH2 0x221E PUSH2 0x21E4 JUMP JUMPDEST JUMPDEST DUP4 JUMPDEST DUP2 DUP2 LT ISZERO PUSH2 0x2248 JUMPI DUP1 PUSH2 0x2234 DUP9 DUP3 PUSH2 0x1F1F JUMP JUMPDEST DUP5 MSTORE PUSH1 0x20 DUP5 ADD SWAP4 POP POP PUSH1 0x20 DUP2 ADD SWAP1 POP PUSH2 0x2221 JUMP JUMPDEST POP POP POP SWAP4 SWAP3 POP POP POP JUMP JUMPDEST PUSH1 0x0 DUP3 PUSH1 0x1F DUP4 ADD SLT PUSH2 0x2267 JUMPI PUSH2 0x2266 PUSH2 0x2138 JUMP JUMPDEST JUMPDEST DUP2 CALLDATALOAD PUSH2 0x2277 DUP5 DUP3 PUSH1 0x20 DUP7 ADD PUSH2 0x21E9 JUMP JUMPDEST SWAP2 POP POP SWAP3 SWAP2 POP POP JUMP JUMPDEST PUSH1 0x0 DUP1 REVERT JUMPDEST PUSH1 0x0 PUSH8 0xFFFFFFFFFFFFFFFF DUP3 GT ISZERO PUSH2 0x22A0 JUMPI PUSH2 0x229F PUSH2 0x213D JUMP JUMPDEST JUMPDEST PUSH2 0x22A9 DUP3 PUSH2 0x20CC JUMP JUMPDEST SWAP1 POP PUSH1 0x20 DUP2 ADD SWAP1 POP SWAP2 SWAP1 POP JUMP JUMPDEST DUP3 DUP2 DUP4 CALLDATACOPY PUSH1 0x0 DUP4 DUP4 ADD MSTORE POP POP POP JUMP JUMPDEST PUSH1 0x0 PUSH2 0x22D8 PUSH2 0x22D3 DUP5 PUSH2 0x2285 JUMP JUMPDEST PUSH2 0x219D JUMP JUMPDEST SWAP1 POP DUP3 DUP2 MSTORE PUSH1 0x20 DUP2 ADD DUP5 DUP5 DUP5 ADD GT ISZERO PUSH2 0x22F4 JUMPI PUSH2 0x22F3 PUSH2 0x2280 JUMP JUMPDEST JUMPDEST PUSH2 0x22FF DUP5 DUP3 DUP6 PUSH2 0x22B6 JUMP JUMPDEST POP SWAP4 SWAP3 POP POP POP JUMP JUMPDEST PUSH1 0x0 DUP3 PUSH1 0x1F DUP4 ADD SLT PUSH2 0x231C JUMPI PUSH2 0x231B PUSH2 0x2138 JUMP JUMPDEST JUMPDEST DUP2 CALLDATALOAD PUSH2 0x232C DUP5 DUP3 PUSH1 0x20 DUP7 ADD PUSH2 0x22C5 JUMP JUMPDEST SWAP2 POP POP SWAP3 SWAP2 POP POP JUMP JUMPDEST PUSH1 0x0 DUP1 PUSH1 0x0 DUP1 PUSH1 0x0 PUSH1 0xA0 DUP7 DUP9 SUB SLT ISZERO PUSH2 0x2351 JUMPI PUSH2 0x2350 PUSH2 0x1E96 JUMP JUMPDEST JUMPDEST PUSH1 0x0 PUSH2 0x235F DUP9 DUP3 DUP10 ADD PUSH2 0x1EE9 JUMP JUMPDEST SWAP6 POP POP PUSH1 0x20 PUSH2 0x2370 DUP9 DUP3 DUP10 ADD PUSH2 0x1EE9 JUMP JUMPDEST SWAP5 POP POP PUSH1 0x40 DUP7 ADD CALLDATALOAD PUSH8 0xFFFFFFFFFFFFFFFF DUP2 GT ISZERO PUSH2 0x2391 JUMPI PUSH2 0x2390 PUSH2 0x1E9B JUMP JUMPDEST JUMPDEST PUSH2 0x239D DUP9 DUP3 DUP10 ADD PUSH2 0x2252 JUMP JUMPDEST SWAP4 POP POP PUSH1 0x60 DUP7 ADD CALLDATALOAD PUSH8 0xFFFFFFFFFFFFFFFF DUP2 GT ISZERO PUSH2 0x23BE JUMPI PUSH2 0x23BD PUSH2 0x1E9B JUMP JUMPDEST JUMPDEST PUSH2 0x23CA DUP9 DUP3 DUP10 ADD PUSH2 0x2252 JUMP JUMPDEST SWAP3 POP POP PUSH1 0x80 DUP7 ADD CALLDATALOAD PUSH8 0xFFFFFFFFFFFFFFFF DUP2 GT ISZERO PUSH2 0x23EB JUMPI PUSH2 0x23EA PUSH2 0x1E9B JUMP JUMPDEST JUMPDEST PUSH2 0x23F7 DUP9 DUP3 DUP10 ADD PUSH2 0x2307 JUMP JUMPDEST SWAP2 POP POP SWAP3 SWAP6 POP SWAP3 SWAP6 SWAP1 SWAP4 POP JUMP JUMPDEST PUSH1 0x0 PUSH8 0xFFFFFFFFFFFFFFFF DUP3 GT ISZERO PUSH2 0x241F JUMPI PUSH2 0x241E PUSH2 0x213D JUMP JUMPDEST JUMPDEST PUSH1 0x20 DUP3 MUL SWAP1 POP PUSH1 0x20 DUP2 ADD SWAP1 POP SWAP2 SWAP1 POP JUMP JUMPDEST PUSH1 0x0 PUSH2 0x2443 PUSH2 0x243E DUP5 PUSH2 0x2404 JUMP JUMPDEST PUSH2 0x219D JUMP JUMPDEST SWAP1 POP DUP1 DUP4 DUP3 MSTORE PUSH1 0x20 DUP3 ADD SWAP1 POP PUSH1 0x20 DUP5 MUL DUP4 ADD DUP6 DUP2 GT ISZERO PUSH2 0x2466 JUMPI PUSH2 0x2465 PUSH2 0x21E4 JUMP JUMPDEST JUMPDEST DUP4 JUMPDEST DUP2 DUP2 LT ISZERO PUSH2 0x248F JUMPI DUP1 PUSH2 0x247B DUP9 DUP3 PUSH2 0x1EE9 JUMP JUMPDEST DUP5 MSTORE PUSH1 0x20 DUP5 ADD SWAP4 POP POP PUSH1 0x20 DUP2 ADD SWAP1 POP PUSH2 0x2468 JUMP JUMPDEST POP POP POP SWAP4 SWAP3 POP POP POP JUMP JUMPDEST PUSH1 0x0 DUP3 PUSH1 0x1F DUP4 ADD SLT PUSH2 0x24AE JUMPI PUSH2 0x24AD PUSH2 0x2138 JUMP JUMPDEST JUMPDEST DUP2 CALLDATALOAD PUSH2 0x24BE DUP5 DUP3 PUSH1 0x20 DUP7 ADD PUSH2 0x2430 JUMP JUMPDEST SWAP2 POP POP SWAP3 SWAP2 POP POP JUMP JUMPDEST PUSH1 0x0 DUP1 PUSH1 0x40 DUP4 DUP6 SUB SLT ISZERO PUSH2 0x24DE JUMPI PUSH2 0x24DD PUSH2 0x1E96 JUMP JUMPDEST JUMPDEST PUSH1 0x0 DUP4 ADD CALLDATALOAD PUSH8 0xFFFFFFFFFFFFFFFF DUP2 GT ISZERO PUSH2 0x24FC JUMPI PUSH2 0x24FB PUSH2 0x1E9B JUMP JUMPDEST JUMPDEST PUSH2 0x2508 DUP6 DUP3 DUP7 ADD PUSH2 0x2499 JUMP JUMPDEST SWAP3 POP POP PUSH1 0x20 DUP4 ADD CALLDATALOAD PUSH8 0xFFFFFFFFFFFFFFFF DUP2 GT ISZERO PUSH2 0x2529 JUMPI PUSH2 0x2528 PUSH2 0x1E9B JUMP JUMPDEST JUMPDEST PUSH2 0x2535 DUP6 DUP3 DUP7 ADD PUSH2 0x2252 JUMP JUMPDEST SWAP2 POP POP SWAP3 POP SWAP3 SWAP1 POP JUMP JUMPDEST PUSH1 0x0 DUP2 MLOAD SWAP1 POP SWAP2 SWAP1 POP JUMP JUMPDEST PUSH1 0x0 DUP3 DUP3 MSTORE PUSH1 0x20 DUP3 ADD SWAP1 POP SWAP3 SWAP2 POP POP JUMP JUMPDEST PUSH1 0x0 DUP2 SWAP1 POP PUSH1 0x20 DUP3 ADD SWAP1 POP SWAP2 SWAP1 POP JUMP JUMPDEST PUSH2 0x2574 DUP2 PUSH2 0x1EFE JUMP JUMPDEST DUP3 MSTORE POP POP JUMP JUMPDEST PUSH1 0x0 PUSH2 0x2586 DUP4 DUP4 PUSH2 0x256B JUMP JUMPDEST PUSH1 0x20 DUP4 ADD SWAP1 POP SWAP3 SWAP2 POP POP JUMP JUMPDEST PUSH1 0x0 PUSH1 0x20 DUP3 ADD SWAP1 POP SWAP2 SWAP1 POP JUMP JUMPDEST PUSH1 0x0 PUSH2 0x25AA DUP3 PUSH2 0x253F JUMP JUMPDEST PUSH2 0x25B4 DUP2 DUP6 PUSH2 0x254A JUMP JUMPDEST SWAP4 POP PUSH2 0x25BF DUP4 PUSH2 0x255B JUMP JUMPDEST DUP1 PUSH1 0x0 JUMPDEST DUP4 DUP2 LT ISZERO PUSH2 0x25F0 JUMPI DUP2 MLOAD PUSH2 0x25D7 DUP9 DUP3 PUSH2 0x257A JUMP JUMPDEST SWAP8 POP PUSH2 0x25E2 DUP4 PUSH2 0x2592 JUMP JUMPDEST SWAP3 POP POP PUSH1 0x1 DUP2 ADD SWAP1 POP PUSH2 0x25C3 JUMP JUMPDEST POP DUP6 SWAP4 POP POP POP POP SWAP3 SWAP2 POP POP JUMP JUMPDEST PUSH1 0x0 PUSH1 0x20 DUP3 ADD SWAP1 POP DUP2 DUP2 SUB PUSH1 0x0 DUP4 ADD MSTORE PUSH2 0x2617 DUP2 DUP5 PUSH2 0x259F JUMP JUMPDEST SWAP1 POP SWAP3 SWAP2 POP POP JUMP JUMPDEST PUSH1 0x0 PUSH2 0xFFFF DUP3 AND SWAP1 POP SWAP2 SWAP1 POP JUMP JUMPDEST PUSH2 0x2636 DUP2 PUSH2 0x261F JUMP JUMPDEST DUP2 EQ PUSH2 0x2641 JUMPI PUSH1 0x0 DUP1 REVERT JUMPDEST POP JUMP JUMPDEST PUSH1 0x0 DUP2 CALLDATALOAD SWAP1 POP PUSH2 0x2653 DUP2 PUSH2 0x262D JUMP JUMPDEST SWAP3 SWAP2 POP POP JUMP JUMPDEST PUSH2 0x2662 DUP2 PUSH2 0x2023 JUMP JUMPDEST DUP2 EQ PUSH2 0x266D JUMPI PUSH1 0x0 DUP1 REVERT JUMPDEST POP JUMP JUMPDEST PUSH1 0x0 DUP2 CALLDATALOAD SWAP1 POP PUSH2 0x267F DUP2 PUSH2 0x2659 JUMP JUMPDEST SWAP3 SWAP2 POP POP JUMP JUMPDEST PUSH1 0x0 DUP1 PUSH1 0x0 PUSH1 0x60 DUP5 DUP7 SUB SLT ISZERO PUSH2 0x269E JUMPI PUSH2 0x269D PUSH2 0x1E96 JUMP JUMPDEST JUMPDEST PUSH1 0x0 PUSH2 0x26AC DUP7 DUP3 DUP8 ADD PUSH2 0x2644 JUMP JUMPDEST SWAP4 POP POP PUSH1 0x20 PUSH2 0x26BD DUP7 DUP3 DUP8 ADD PUSH2 0x1F1F JUMP JUMPDEST SWAP3 POP POP PUSH1 0x40 PUSH2 0x26CE DUP7 DUP3 DUP8 ADD PUSH2 0x2670 JUMP JUMPDEST SWAP2 POP POP SWAP3 POP SWAP3 POP SWAP3 JUMP JUMPDEST PUSH1 0x0 DUP1 PUSH1 0x0 DUP1 PUSH1 0x80 DUP6 DUP8 SUB SLT ISZERO PUSH2 0x26F2 JUMPI PUSH2 0x26F1 PUSH2 0x1E96 JUMP JUMPDEST JUMPDEST PUSH1 0x0 PUSH2 0x2700 DUP8 DUP3 DUP9 ADD PUSH2 0x2644 JUMP JUMPDEST SWAP5 POP POP PUSH1 0x20 PUSH2 0x2711 DUP8 DUP3 DUP9 ADD PUSH2 0x2644 JUMP JUMPDEST SWAP4 POP POP PUSH1 0x40 PUSH2 0x2722 DUP8 DUP3 DUP9 ADD PUSH2 0x1F1F JUMP JUMPDEST SWAP3 POP POP PUSH1 0x60 PUSH2 0x2733 DUP8 DUP3 DUP9 ADD PUSH2 0x2670 JUMP JUMPDEST SWAP2 POP POP SWAP3 SWAP6 SWAP2 SWAP5 POP SWAP3 POP JUMP JUMPDEST PUSH1 0x0 DUP1 PUSH1 0x0 DUP1 PUSH1 0x80 DUP6 DUP8 SUB SLT ISZERO PUSH2 0x2759 JUMPI PUSH2 0x2758 PUSH2 0x1E96 JUMP JUMPDEST JUMPDEST PUSH1 0x0 PUSH2 0x2767 DUP8 DUP3 DUP9 ADD PUSH2 0x1EE9 JUMP JUMPDEST SWAP5 POP POP PUSH1 0x20 PUSH2 0x2778 DUP8 DUP3 DUP9 ADD PUSH2 0x2644 JUMP JUMPDEST SWAP4 POP POP PUSH1 0x40 PUSH2 0x2789 DUP8 DUP3 DUP9 ADD PUSH2 0x1F1F JUMP JUMPDEST SWAP3 POP POP PUSH1 0x60 PUSH2 0x279A DUP8 DUP3 DUP9 ADD PUSH2 0x2670 JUMP JUMPDEST SWAP2 POP POP SWAP3 SWAP6 SWAP2 SWAP5 POP SWAP3 POP JUMP JUMPDEST PUSH1 0x0 DUP1 PUSH1 0x40 DUP4 DUP6 SUB SLT ISZERO PUSH2 0x27BD JUMPI PUSH2 0x27BC PUSH2 0x1E96 JUMP JUMPDEST JUMPDEST PUSH1 0x0 PUSH2 0x27CB DUP6 DUP3 DUP7 ADD PUSH2 0x1EE9 JUMP JUMPDEST SWAP3 POP POP PUSH1 0x20 PUSH2 0x27DC DUP6 DUP3 DUP7 ADD PUSH2 0x2670 JUMP JUMPDEST SWAP2 POP POP SWAP3 POP SWAP3 SWAP1 POP JUMP JUMPDEST PUSH1 0x0 PUSH1 0x20 DUP3 DUP5 SUB SLT ISZERO PUSH2 0x27FC JUMPI PUSH2 0x27FB PUSH2 0x1E96 JUMP JUMPDEST JUMPDEST PUSH1 0x0 PUSH2 0x280A DUP5 DUP3 DUP6 ADD PUSH2 0x2644 JUMP JUMPDEST SWAP2 POP POP SWAP3 SWAP2 POP POP JUMP JUMPDEST PUSH2 0x281C DUP2 PUSH2 0x261F JUMP JUMPDEST DUP3 MSTORE POP POP JUMP JUMPDEST PUSH1 0x0 PUSH1 0x40 DUP3 ADD SWAP1 POP PUSH2 0x2837 PUSH1 0x0 DUP4 ADD DUP6 PUSH2 0x2813 JUMP JUMPDEST PUSH2 0x2844 PUSH1 0x20 DUP4 ADD DUP5 PUSH2 0x1F74 JUMP JUMPDEST SWAP4 SWAP3 POP POP POP JUMP JUMPDEST PUSH1 0x0 DUP1 PUSH1 0x40 DUP4 DUP6 SUB SLT ISZERO PUSH2 0x2862 JUMPI PUSH2 0x2861 PUSH2 0x1E96 JUMP JUMPDEST JUMPDEST PUSH1 0x0 PUSH2 0x2870 DUP6 DUP3 DUP7 ADD PUSH2 0x1EE9 JUMP JUMPDEST SWAP3 POP POP PUSH1 0x20 PUSH2 0x2881 DUP6 DUP3 DUP7 ADD PUSH2 0x1EE9 JUMP JUMPDEST SWAP2 POP POP SWAP3 POP SWAP3 SWAP1 POP JUMP JUMPDEST PUSH1 0x0 DUP1 PUSH1 0x0 DUP1 PUSH1 0x0 PUSH1 0xA0 DUP7 DUP9 SUB SLT ISZERO PUSH2 0x28A7 JUMPI PUSH2 0x28A6 PUSH2 0x1E96 JUMP JUMPDEST JUMPDEST PUSH1 0x0 PUSH2 0x28B5 DUP9 DUP3 DUP10 ADD PUSH2 0x1EE9 JUMP JUMPDEST SWAP6 POP POP PUSH1 0x20 PUSH2 0x28C6 DUP9 DUP3 DUP10 ADD PUSH2 0x1EE9 JUMP JUMPDEST SWAP5 POP POP PUSH1 0x40 PUSH2 0x28D7 DUP9 DUP3 DUP10 ADD PUSH2 0x1F1F JUMP JUMPDEST SWAP4 POP POP PUSH1 0x60 PUSH2 0x28E8 DUP9 DUP3 DUP10 ADD PUSH2 0x1F1F JUMP JUMPDEST SWAP3 POP POP PUSH1 0x80 DUP7 ADD CALLDATALOAD PUSH8 0xFFFFFFFFFFFFFFFF DUP2 GT ISZERO PUSH2 0x2909 JUMPI PUSH2 0x2908 PUSH2 0x1E9B JUMP JUMPDEST JUMPDEST PUSH2 0x2915 DUP9 DUP3 DUP10 ADD PUSH2 0x2307 JUMP JUMPDEST SWAP2 POP POP SWAP3 SWAP6 POP SWAP3 SWAP6 SWAP1 SWAP4 POP JUMP JUMPDEST PUSH32 0x455243313135353A2061646472657373207A65726F206973206E6F7420612076 PUSH1 0x0 DUP3 ADD MSTORE PUSH32 0x616C6964206F776E657200000000000000000000000000000000000000000000 PUSH1 0x20 DUP3 ADD MSTORE POP JUMP JUMPDEST PUSH1 0x0 PUSH2 0x297E PUSH1 0x2A DUP4 PUSH2 0x2091 JUMP JUMPDEST SWAP2 POP PUSH2 0x2989 DUP3 PUSH2 0x2922 JUMP JUMPDEST PUSH1 0x40 DUP3 ADD SWAP1 POP SWAP2 SWAP1 POP JUMP JUMPDEST PUSH1 0x0 PUSH1 0x20 DUP3 ADD SWAP1 POP DUP2 DUP2 SUB PUSH1 0x0 DUP4 ADD MSTORE PUSH2 0x29AD DUP2 PUSH2 0x2971 JUMP JUMPDEST SWAP1 POP SWAP2 SWAP1 POP JUMP JUMPDEST PUSH32 0x4E487B7100000000000000000000000000000000000000000000000000000000 PUSH1 0x0 MSTORE PUSH1 0x22 PUSH1 0x4 MSTORE PUSH1 0x24 PUSH1 0x0 REVERT JUMPDEST PUSH1 0x0 PUSH1 0x2 DUP3 DIV SWAP1 POP PUSH1 0x1 DUP3 AND DUP1 PUSH2 0x29FB JUMPI PUSH1 0x7F DUP3 AND SWAP2 POP JUMPDEST PUSH1 0x20 DUP3 LT DUP2 SUB PUSH2 0x2A0E JUMPI PUSH2 0x2A0D PUSH2 0x29B4 JUMP JUMPDEST JUMPDEST POP SWAP2 SWAP1 POP JUMP JUMPDEST PUSH32 0x455243313135353A2063616C6C6572206973206E6F7420746F6B656E206F776E PUSH1 0x0 DUP3 ADD MSTORE PUSH32 0x6572206F7220617070726F766564000000000000000000000000000000000000 PUSH1 0x20 DUP3 ADD MSTORE POP JUMP JUMPDEST PUSH1 0x0 PUSH2 0x2A70 PUSH1 0x2E DUP4 PUSH2 0x2091 JUMP JUMPDEST SWAP2 POP PUSH2 0x2A7B DUP3 PUSH2 0x2A14 JUMP JUMPDEST PUSH1 0x40 DUP3 ADD SWAP1 POP SWAP2 SWAP1 POP JUMP JUMPDEST PUSH1 0x0 PUSH1 0x20 DUP3 ADD SWAP1 POP DUP2 DUP2 SUB PUSH1 0x0 DUP4 ADD MSTORE PUSH2 0x2A9F DUP2 PUSH2 0x2A63 JUMP JUMPDEST SWAP1 POP SWAP2 SWAP1 POP JUMP JUMPDEST PUSH32 0x455243313135353A206163636F756E747320616E6420696473206C656E677468 PUSH1 0x0 DUP3 ADD MSTORE PUSH32 0x206D69736D617463680000000000000000000000000000000000000000000000 PUSH1 0x20 DUP3 ADD MSTORE POP JUMP JUMPDEST PUSH1 0x0 PUSH2 0x2B02 PUSH1 0x29 DUP4 PUSH2 0x2091 JUMP JUMPDEST SWAP2 POP PUSH2 0x2B0D DUP3 PUSH2 0x2AA6 JUMP JUMPDEST PUSH1 0x40 DUP3 ADD SWAP1 POP SWAP2 SWAP1 POP JUMP JUMPDEST PUSH1 0x0 PUSH1 0x20 DUP3 ADD SWAP1 POP DUP2 DUP2 SUB PUSH1 0x0 DUP4 ADD MSTORE PUSH2 0x2B31 DUP2 PUSH2 0x2AF5 JUMP JUMPDEST SWAP1 POP SWAP2 SWAP1 POP JUMP JUMPDEST PUSH32 0x4E487B7100000000000000000000000000000000000000000000000000000000 PUSH1 0x0 MSTORE PUSH1 0x32 PUSH1 0x4 MSTORE PUSH1 0x24 PUSH1 0x0 REVERT JUMPDEST PUSH32 0x4E487B7100000000000000000000000000000000000000000000000000000000 PUSH1 0x0 MSTORE PUSH1 0x11 PUSH1 0x4 MSTORE PUSH1 0x24 PUSH1 0x0 REVERT JUMPDEST PUSH1 0x0 PUSH2 0x2BA1 DUP3 PUSH2 0x1EFE JUMP JUMPDEST SWAP2 POP PUSH2 0x2BAC DUP4 PUSH2 0x1EFE JUMP JUMPDEST SWAP3 POP DUP3 DUP3 ADD SWAP1 POP DUP1 DUP3 GT ISZERO PUSH2 0x2BC4 JUMPI PUSH2 0x2BC3 PUSH2 0x2B67 JUMP JUMPDEST JUMPDEST SWAP3 SWAP2 POP POP JUMP JUMPDEST PUSH1 0x0 PUSH2 0x2BD5 DUP3 PUSH2 0x1EFE JUMP JUMPDEST SWAP2 POP PUSH2 0x2BE0 DUP4 PUSH2 0x1EFE JUMP JUMPDEST SWAP3 POP DUP3 DUP3 MUL PUSH2 0x2BEE DUP2 PUSH2 0x1EFE JUMP JUMPDEST SWAP2 POP DUP3 DUP3 DIV DUP5 EQ DUP4 ISZERO OR PUSH2 0x2C05 JUMPI PUSH2 0x2C04 PUSH2 0x2B67 JUMP JUMPDEST JUMPDEST POP SWAP3 SWAP2 POP POP JUMP JUMPDEST PUSH32 0x4E487B7100000000000000000000000000000000000000000000000000000000 PUSH1 0x0 MSTORE PUSH1 0x12 PUSH1 0x4 MSTORE PUSH1 0x24 PUSH1 0x0 REVERT JUMPDEST PUSH1 0x0 PUSH2 0x2C46 DUP3 PUSH2 0x1EFE JUMP JUMPDEST SWAP2 POP PUSH2 0x2C51 DUP4 PUSH2 0x1EFE JUMP JUMPDEST SWAP3 POP DUP3 PUSH2 0x2C61 JUMPI PUSH2 0x2C60 PUSH2 0x2C0C JUMP JUMPDEST JUMPDEST DUP3 DUP3 DIV SWAP1 POP SWAP3 SWAP2 POP POP JUMP JUMPDEST PUSH32 0x496E73756666696369656E7420466F7263650000000000000000000000000000 PUSH1 0x0 DUP3 ADD MSTORE POP JUMP JUMPDEST PUSH1 0x0 PUSH2 0x2CA2 PUSH1 0x12 DUP4 PUSH2 0x2091 JUMP JUMPDEST SWAP2 POP PUSH2 0x2CAD DUP3 PUSH2 0x2C6C JUMP JUMPDEST PUSH1 0x20 DUP3 ADD SWAP1 POP SWAP2 SWAP1 POP JUMP JUMPDEST PUSH1 0x0 PUSH1 0x20 DUP3 ADD SWAP1 POP DUP2 DUP2 SUB PUSH1 0x0 DUP4 ADD MSTORE PUSH2 0x2CD1 DUP2 PUSH2 0x2C95 JUMP JUMPDEST SWAP1 POP SWAP2 SWAP1 POP JUMP JUMPDEST PUSH1 0x0 PUSH2 0x2CE3 DUP3 PUSH2 0x1EFE JUMP JUMPDEST SWAP2 POP PUSH2 0x2CEE DUP4 PUSH2 0x1EFE JUMP JUMPDEST SWAP3 POP DUP3 DUP3 SUB SWAP1 POP DUP2 DUP2 GT ISZERO PUSH2 0x2D06 JUMPI PUSH2 0x2D05 PUSH2 0x2B67 JUMP JUMPDEST JUMPDEST SWAP3 SWAP2 POP POP JUMP JUMPDEST PUSH32 0x455243313135353A2069647320616E6420616D6F756E7473206C656E67746820 PUSH1 0x0 DUP3 ADD MSTORE PUSH32 0x6D69736D61746368000000000000000000000000000000000000000000000000 PUSH1 0x20 DUP3 ADD MSTORE POP JUMP JUMPDEST PUSH1 0x0 PUSH2 0x2D68 PUSH1 0x28 DUP4 PUSH2 0x2091 JUMP JUMPDEST SWAP2 POP PUSH2 0x2D73 DUP3 PUSH2 0x2D0C JUMP JUMPDEST PUSH1 0x40 DUP3 ADD SWAP1 POP SWAP2 SWAP1 POP JUMP JUMPDEST PUSH1 0x0 PUSH1 0x20 DUP3 ADD SWAP1 POP DUP2 DUP2 SUB PUSH1 0x0 DUP4 ADD MSTORE PUSH2 0x2D97 DUP2 PUSH2 0x2D5B JUMP JUMPDEST SWAP1 POP SWAP2 SWAP1 POP JUMP JUMPDEST PUSH32 0x455243313135353A207472616E7366657220746F20746865207A65726F206164 PUSH1 0x0 DUP3 ADD MSTORE PUSH32 0x6472657373000000000000000000000000000000000000000000000000000000 PUSH1 0x20 DUP3 ADD MSTORE POP JUMP JUMPDEST PUSH1 0x0 PUSH2 0x2DFA PUSH1 0x25 DUP4 PUSH2 0x2091 JUMP JUMPDEST SWAP2 POP PUSH2 0x2E05 DUP3 PUSH2 0x2D9E JUMP JUMPDEST PUSH1 0x40 DUP3 ADD SWAP1 POP SWAP2 SWAP1 POP JUMP JUMPDEST PUSH1 0x0 PUSH1 0x20 DUP3 ADD SWAP1 POP DUP2 DUP2 SUB PUSH1 0x0 DUP4 ADD MSTORE PUSH2 0x2E29 DUP2 PUSH2 0x2DED JUMP JUMPDEST SWAP1 POP SWAP2 SWAP1 POP JUMP JUMPDEST PUSH32 0x455243313135353A20696E73756666696369656E742062616C616E636520666F PUSH1 0x0 DUP3 ADD MSTORE PUSH32 0x72207472616E7366657200000000000000000000000000000000000000000000 PUSH1 0x20 DUP3 ADD MSTORE POP JUMP JUMPDEST PUSH1 0x0 PUSH2 0x2E8C PUSH1 0x2A DUP4 PUSH2 0x2091 JUMP JUMPDEST SWAP2 POP PUSH2 0x2E97 DUP3 PUSH2 0x2E30 JUMP JUMPDEST PUSH1 0x40 DUP3 ADD SWAP1 POP SWAP2 SWAP1 POP JUMP JUMPDEST PUSH1 0x0 PUSH1 0x20 DUP3 ADD SWAP1 POP DUP2 DUP2 SUB PUSH1 0x0 DUP4 ADD MSTORE PUSH2 0x2EBB DUP2 PUSH2 0x2E7F JUMP JUMPDEST SWAP1 POP SWAP2 SWAP1 POP JUMP JUMPDEST PUSH1 0x0 PUSH1 0x40 DUP3 ADD SWAP1 POP DUP2 DUP2 SUB PUSH1 0x0 DUP4 ADD MSTORE PUSH2 0x2EDC DUP2 DUP6 PUSH2 0x259F JUMP JUMPDEST SWAP1 POP DUP2 DUP2 SUB PUSH1 0x20 DUP4 ADD MSTORE PUSH2 0x2EF0 DUP2 DUP5 PUSH2 0x259F JUMP JUMPDEST SWAP1 POP SWAP4 SWAP3 POP POP POP JUMP JUMPDEST PUSH32 0x455243313135353A206D696E7420746F20746865207A65726F20616464726573 PUSH1 0x0 DUP3 ADD MSTORE PUSH32 0x7300000000000000000000000000000000000000000000000000000000000000 PUSH1 0x20 DUP3 ADD MSTORE POP JUMP JUMPDEST PUSH1 0x0 PUSH2 0x2F55 PUSH1 0x21 DUP4 PUSH2 0x2091 JUMP JUMPDEST SWAP2 POP PUSH2 0x2F60 DUP3 PUSH2 0x2EF9 JUMP JUMPDEST PUSH1 0x40 DUP3 ADD SWAP1 POP SWAP2 SWAP1 POP JUMP JUMPDEST PUSH1 0x0 PUSH1 0x20 DUP3 ADD SWAP1 POP DUP2 DUP2 SUB PUSH1 0x0 DUP4 ADD MSTORE PUSH2 0x2F84 DUP2 PUSH2 0x2F48 JUMP JUMPDEST SWAP1 POP SWAP2 SWAP1 POP JUMP JUMPDEST PUSH1 0x0 PUSH1 0x40 DUP3 ADD SWAP1 POP PUSH2 0x2FA0 PUSH1 0x0 DUP4 ADD DUP6 PUSH2 0x1F74 JUMP JUMPDEST PUSH2 0x2FAD PUSH1 0x20 DUP4 ADD DUP5 PUSH2 0x1F74 JUMP JUMPDEST SWAP4 SWAP3 POP POP POP JUMP JUMPDEST PUSH32 0x5265656E7472616E637947756172643A207265656E7472616E742063616C6C00 PUSH1 0x0 DUP3 ADD MSTORE POP JUMP JUMPDEST PUSH1 0x0 PUSH2 0x2FEA PUSH1 0x1F DUP4 PUSH2 0x2091 JUMP JUMPDEST SWAP2 POP PUSH2 0x2FF5 DUP3 PUSH2 0x2FB4 JUMP JUMPDEST PUSH1 0x20 DUP3 ADD SWAP1 POP SWAP2 SWAP1 POP JUMP JUMPDEST PUSH1 0x0 PUSH1 0x20 DUP3 ADD SWAP1 POP DUP2 DUP2 SUB PUSH1 0x0 DUP4 ADD MSTORE PUSH2 0x3019 DUP2 PUSH2 0x2FDD JUMP JUMPDEST SWAP1 POP SWAP2 SWAP1 POP JUMP JUMPDEST PUSH32 0x455243313135353A206275726E2066726F6D20746865207A65726F2061646472 PUSH1 0x0 DUP3 ADD MSTORE PUSH32 0x6573730000000000000000000000000000000000000000000000000000000000 PUSH1 0x20 DUP3 ADD MSTORE POP JUMP JUMPDEST PUSH1 0x0 PUSH2 0x307C PUSH1 0x23 DUP4 PUSH2 0x2091 JUMP JUMPDEST SWAP2 POP PUSH2 0x3087 DUP3 PUSH2 0x3020 JUMP JUMPDEST PUSH1 0x40 DUP3 ADD SWAP1 POP SWAP2 SWAP1 POP JUMP JUMPDEST PUSH1 0x0 PUSH1 0x20 DUP3 ADD SWAP1 POP DUP2 DUP2 SUB PUSH1 0x0 DUP4 ADD MSTORE PUSH2 0x30AB DUP2 PUSH2 0x306F JUMP JUMPDEST SWAP1 POP SWAP2 SWAP1 POP JUMP JUMPDEST PUSH32 0x455243313135353A206275726E20616D6F756E7420657863656564732062616C PUSH1 0x0 DUP3 ADD MSTORE PUSH32 0x616E636500000000000000000000000000000000000000000000000000000000 PUSH1 0x20 DUP3 ADD MSTORE POP JUMP JUMPDEST PUSH1 0x0 PUSH2 0x310E PUSH1 0x24 DUP4 PUSH2 0x2091 JUMP JUMPDEST SWAP2 POP PUSH2 0x3119 DUP3 PUSH2 0x30B2 JUMP JUMPDEST PUSH1 0x40 DUP3 ADD SWAP1 POP SWAP2 SWAP1 POP JUMP JUMPDEST PUSH1 0x0 PUSH1 0x20 DUP3 ADD SWAP1 POP DUP2 DUP2 SUB PUSH1 0x0 DUP4 ADD MSTORE PUSH2 0x313D DUP2 PUSH2 0x3101 JUMP JUMPDEST SWAP1 POP SWAP2 SWAP1 POP JUMP JUMPDEST PUSH32 0x455243313135353A2073657474696E6720617070726F76616C20737461747573 PUSH1 0x0 DUP3 ADD MSTORE PUSH32 0x20666F722073656C660000000000000000000000000000000000000000000000 PUSH1 0x20 DUP3 ADD MSTORE POP JUMP JUMPDEST PUSH1 0x0 PUSH2 0x31A0 PUSH1 0x29 DUP4 PUSH2 0x2091 JUMP JUMPDEST SWAP2 POP PUSH2 0x31AB DUP3 PUSH2 0x3144 JUMP JUMPDEST PUSH1 0x40 DUP3 ADD SWAP1 POP SWAP2 SWAP1 POP JUMP JUMPDEST PUSH1 0x0 PUSH1 0x20 DUP3 ADD SWAP1 POP DUP2 DUP2 SUB PUSH1 0x0 DUP4 ADD MSTORE PUSH2 0x31CF DUP2 PUSH2 0x3193 JUMP JUMPDEST SWAP1 POP SWAP2 SWAP1 POP JUMP JUMPDEST PUSH2 0x31DF DUP2 PUSH2 0x1EC0 JUMP JUMPDEST DUP3 MSTORE POP POP JUMP JUMPDEST PUSH1 0x0 DUP2 MLOAD SWAP1 POP SWAP2 SWAP1 POP JUMP JUMPDEST PUSH1 0x0 DUP3 DUP3 MSTORE PUSH1 0x20 DUP3 ADD SWAP1 POP SWAP3 SWAP2 POP POP JUMP JUMPDEST PUSH1 0x0 PUSH2 0x320C DUP3 PUSH2 0x31E5 JUMP JUMPDEST PUSH2 0x3216 DUP2 DUP6 PUSH2 0x31F0 JUMP JUMPDEST SWAP4 POP PUSH2 0x3226 DUP2 DUP6 PUSH1 0x20 DUP7 ADD PUSH2 0x20A2 JUMP JUMPDEST PUSH2 0x322F DUP2 PUSH2 0x20CC JUMP JUMPDEST DUP5 ADD SWAP2 POP POP SWAP3 SWAP2 POP POP JUMP JUMPDEST PUSH1 0x0 PUSH1 0xA0 DUP3 ADD SWAP1 POP PUSH2 0x324F PUSH1 0x0 DUP4 ADD DUP9 PUSH2 0x31D6 JUMP JUMPDEST PUSH2 0x325C PUSH1 0x20 DUP4 ADD DUP8 PUSH2 0x31D6 JUMP JUMPDEST DUP2 DUP2 SUB PUSH1 0x40 DUP4 ADD MSTORE PUSH2 0x326E DUP2 DUP7 PUSH2 0x259F JUMP JUMPDEST SWAP1 POP DUP2 DUP2 SUB PUSH1 0x60 DUP4 ADD MSTORE PUSH2 0x3282 DUP2 DUP6 PUSH2 0x259F JUMP JUMPDEST SWAP1 POP DUP2 DUP2 SUB PUSH1 0x80 DUP4 ADD MSTORE PUSH2 0x3296 DUP2 DUP5 PUSH2 0x3201 JUMP JUMPDEST SWAP1 POP SWAP7 SWAP6 POP POP POP POP POP POP JUMP JUMPDEST PUSH1 0x0 DUP2 MLOAD SWAP1 POP PUSH2 0x32B1 DUP2 PUSH2 0x1FCA JUMP JUMPDEST SWAP3 SWAP2 POP POP JUMP JUMPDEST PUSH1 0x0 PUSH1 0x20 DUP3 DUP5 SUB SLT ISZERO PUSH2 0x32CD JUMPI PUSH2 0x32CC PUSH2 0x1E96 JUMP JUMPDEST JUMPDEST PUSH1 0x0 PUSH2 0x32DB DUP5 DUP3 DUP6 ADD PUSH2 0x32A2 JUMP JUMPDEST SWAP2 POP POP SWAP3 SWAP2 POP POP JUMP JUMPDEST PUSH1 0x0 DUP2 PUSH1 0xE0 SHR SWAP1 POP SWAP2 SWAP1 POP JUMP JUMPDEST PUSH1 0x0 PUSH1 0x3 RETURNDATASIZE GT ISZERO PUSH2 0x3310 JUMPI PUSH1 0x4 PUSH1 0x0 DUP1 RETURNDATACOPY PUSH2 0x330D PUSH1 0x0 MLOAD PUSH2 0x32E4 JUMP JUMPDEST SWAP1 POP JUMPDEST SWAP1 JUMP JUMPDEST PUSH1 0x0 PUSH1 0x44 RETURNDATASIZE LT PUSH2 0x33A0 JUMPI PUSH2 0x3325 PUSH2 0x1E8C JUMP JUMPDEST PUSH1 0x4 RETURNDATASIZE SUB PUSH1 0x4 DUP3 RETURNDATACOPY DUP1 MLOAD RETURNDATASIZE PUSH1 0x24 DUP3 ADD GT PUSH8 0xFFFFFFFFFFFFFFFF DUP3 GT OR ISZERO PUSH2 0x334D JUMPI POP POP PUSH2 0x33A0 JUMP JUMPDEST DUP1 DUP3 ADD DUP1 MLOAD PUSH8 0xFFFFFFFFFFFFFFFF DUP2 GT ISZERO PUSH2 0x336B JUMPI POP POP POP POP PUSH2 0x33A0 JUMP JUMPDEST DUP1 PUSH1 0x20 DUP4 ADD ADD PUSH1 0x4 RETURNDATASIZE SUB DUP6 ADD DUP2 GT ISZERO PUSH2 0x3388 JUMPI POP POP POP POP POP PUSH2 0x33A0 JUMP JUMPDEST PUSH2 0x3397 DUP3 PUSH1 0x20 ADD DUP6 ADD DUP7 PUSH2 0x216C JUMP JUMPDEST DUP3 SWAP6 POP POP POP POP POP POP JUMPDEST SWAP1 JUMP JUMPDEST PUSH32 0x455243313135353A207472616E7366657220746F206E6F6E2D45524331313535 PUSH1 0x0 DUP3 ADD MSTORE PUSH32 0x526563656976657220696D706C656D656E746572000000000000000000000000 PUSH1 0x20 DUP3 ADD MSTORE POP JUMP JUMPDEST PUSH1 0x0 PUSH2 0x33FF PUSH1 0x34 DUP4 PUSH2 0x2091 JUMP JUMPDEST SWAP2 POP PUSH2 0x340A DUP3 PUSH2 0x33A3 JUMP JUMPDEST PUSH1 0x40 DUP3 ADD SWAP1 POP SWAP2 SWAP1 POP JUMP JUMPDEST PUSH1 0x0 PUSH1 0x20 DUP3 ADD SWAP1 POP DUP2 DUP2 SUB PUSH1 0x0 DUP4 ADD MSTORE PUSH2 0x342E DUP2 PUSH2 0x33F2 JUMP JUMPDEST SWAP1 POP SWAP2 SWAP1 POP JUMP JUMPDEST PUSH32 0x455243313135353A204552433131353552656365697665722072656A65637465 PUSH1 0x0 DUP3 ADD MSTORE PUSH32 0x6420746F6B656E73000000000000000000000000000000000000000000000000 PUSH1 0x20 DUP3 ADD MSTORE POP JUMP JUMPDEST PUSH1 0x0 PUSH2 0x3491 PUSH1 0x28 DUP4 PUSH2 0x2091 JUMP JUMPDEST SWAP2 POP PUSH2 0x349C DUP3 PUSH2 0x3435 JUMP JUMPDEST PUSH1 0x40 DUP3 ADD SWAP1 POP SWAP2 SWAP1 POP JUMP JUMPDEST PUSH1 0x0 PUSH1 0x20 DUP3 ADD SWAP1 POP DUP2 DUP2 SUB PUSH1 0x0 DUP4 ADD MSTORE PUSH2 0x34C0 DUP2 PUSH2 0x3484 JUMP JUMPDEST SWAP1 POP SWAP2 SWAP1 POP JUMP JUMPDEST PUSH1 0x0 PUSH1 0xA0 DUP3 ADD SWAP1 POP PUSH2 0x34DC PUSH1 0x0 DUP4 ADD DUP9 PUSH2 0x31D6 JUMP JUMPDEST PUSH2 0x34E9 PUSH1 0x20 DUP4 ADD DUP8 PUSH2 0x31D6 JUMP JUMPDEST PUSH2 0x34F6 PUSH1 0x40 DUP4 ADD DUP7 PUSH2 0x1F74 JUMP JUMPDEST PUSH2 0x3503 PUSH1 0x60 DUP4 ADD DUP6 PUSH2 0x1F74 JUMP JUMPDEST DUP2 DUP2 SUB PUSH1 0x80 DUP4 ADD MSTORE PUSH2 0x3515 DUP2 DUP5 PUSH2 0x3201 JUMP JUMPDEST SWAP1 POP SWAP7 SWAP6 POP POP POP POP POP POP JUMP INVALID LOG2 PUSH5 0x6970667358 0x22 SLT KECCAK256 PUSH10 0x7EF072309F41191DB126 CALLVALUE 0xE7 PC 0xB5 EXTCODECOPY 0xB6 0xEA 0x28 PUSH0 SWAP6 0x4C 0xB9 BYTE PUSH11 0x8870266C13982164736F6C PUSH4 0x43000818 STOP CALLER PUSH9 0x747470733A2F2F6170 PUSH10 0x2E6B696C6C67616D652E PUSH2 0x692F PUSH14 0x657461646174612F7B69647D2E6A PUSH20 0x6F6E000000000000000000000000000000000000 "},"methodIdentifiers":{"BOOST_RECOIL()":"44b70ac4","BOOST_REQUIRED()":"4cf5317b","BURN_BPS()":"a37a9fc0","SPAWN_COST()":"c704c3f1","TREASURY_BPS()":"4c25d197","agentStacks(address,uint256)":"edbd5df8","balanceOf(address,uint256)":"00fdd58e","balanceOfBatch(address[],uint256[])":"4e1273f4","getPendingBounty(address,uint256)":"ea075ee1","grid(uint16)":"cd000d33","isApprovedForAll(address,address)":"e985e9c5","kill(address,uint16,uint256,bool)":"7a2b3720","move(uint16,uint16,uint256,bool)":"6950ed03","safeBatchTransferFrom(address,address,uint256[],uint256[],bytes)":"2eb2c2d6","safeTransferFrom(address,address,uint256,uint256,bytes)":"f242432a","setApprovalForAll(address,bool)":"a22cb465","spawn(uint16,uint256,bool)":"5d69a710","supportsInterface(bytes4)":"01ffc9a7","treasuryBalance()":"313dab20","uri(uint256)":"0e89341c"}},"storageLayout":{"storage":[{"astId":90,"contract":"contracts/KillGame.sol:KILLGame","label":"_balances","offset":0,"slot":"0","type":"t_mapping(t_uint256,t_mapping(t_address,t_uint256))"},{"astId":96,"contract":"contracts/KillGame.sol:KILLGame","label":"_operatorApprovals","offset":0,"slot":"1","type":"t_mapping(t_address,t_mapping(t_address,t_bool))"},{"astId":98,"contract":"contracts/KillGame.sol:KILLGame","label":"_uri","offset":0,"slot":"2","type":"t_string_storage"},{"astId":10,"contract":"contracts/KillGame.sol:KILLGame","label":"_status","offset":0,"slot":"3","type":"t_uint256"},{"astId":1899,"contract":"contracts/KillGame.sol:KILLGame","label":"agentStacks","offset":0,"slot":"4","type":"t_mapping(t_address,t_mapping(t_uint256,t_struct(ReaperStack)1887_storage))"},{"astId":1904,"contract":"contracts/KillGame.sol:KILLGame","label":"grid","offset":0,"slot":"5","type":"t_mapping(t_uint16,t_struct(Cube)1892_storage)"},{"astId":1906,"contract":"contracts/KillGame.sol:KILLGame","label":"treasuryBalance","offset":0,"slot":"6","type":"t_uint256"}],"types":{"t_address":{"encoding":"inplace","label":"address","numberOfBytes":"20"},"t_bool":{"encoding":"inplace","label":"bool","numberOfBytes":"1"},"t_mapping(t_address,t_bool)":{"encoding":"mapping","key":"t_address","label":"mapping(address => bool)","numberOfBytes":"32","value":"t_bool"},"t_mapping(t_address,t_mapping(t_address,t_bool))":{"encoding":"mapping","key":"t_address","label":"mapping(address => mapping(address => bool))","numberOfBytes":"32","value":"t_mapping(t_address,t_bool)"},"t_mapping(t_address,t_mapping(t_uint256,t_struct(ReaperStack)1887_storage))":{"encoding":"mapping","key":"t_address","label":"mapping(address => mapping(uint256 => struct KILLGame.ReaperStack))","numberOfBytes":"32","value":"t_mapping(t_uint256,t_struct(ReaperStack)1887_storage)"},"t_mapping(t_address,t_uint256)":{"encoding":"mapping","key":"t_address","label":"mapping(address => uint256)","numberOfBytes":"32","value":"t_uint256"},"t_mapping(t_uint16,t_struct(Cube)1892_storage)":{"encoding":"mapping","key":"t_uint16","label":"mapping(uint16 => struct KILLGame.Cube)","numberOfBytes":"32","value":"t_struct(Cube)1892_storage"},"t_mapping(t_uint256,t_mapping(t_address,t_uint256))":{"encoding":"mapping","key":"t_uint256","label":"mapping(uint256 => mapping(address => uint256))","numberOfBytes":"32","value":"t_mapping(t_address,t_uint256)"},"t_mapping(t_uint256,t_struct(ReaperStack)1887_storage)":{"encoding":"mapping","key":"t_uint256","label":"mapping(uint256 => struct KILLGame.ReaperStack)","numberOfBytes":"32","value":"t_struct(ReaperStack)1887_storage"},"t_string_storage":{"encoding":"bytes","label":"string","numberOfBytes":"32"},"t_struct(Cube)1892_storage":{"encoding":"inplace","label":"struct KILLGame.Cube","members":[{"astId":1889,"contract":"contracts/KillGame.sol:KILLGame","label":"id","offset":0,"slot":"0","type":"t_uint16"},{"astId":1891,"contract":"contracts/KillGame.sol:KILLGame","label":"totalUnits","offset":0,"slot":"1","type":"t_uint256"}],"numberOfBytes":"64"},"t_struct(ReaperStack)1887_storage":{"encoding":"inplace","label":"struct KILLGame.ReaperStack","members":[{"astId":1886,"contract":"contracts/KillGame.sol:KILLGame","label":"birthBlock","offset":0,"slot":"0","type":"t_uint256"}],"numberOfBytes":"32"},"t_uint16":{"encoding":"inplace","label":"uint16","numberOfBytes":"2"},"t_uint256":{"encoding":"inplace","label":"uint256","numberOfBytes":"32"}}}}}}