{
  "_format": "hh-sol-artifact-1",
  "contractName": "KILLToken",
  "sourceName": "contracts/KillToken.sol",
  "abi": [
    {
      "inputs": [],
      "stateMutability": "nonpayable",
      "type": "constructor"
    },
    {
      "inputs": [
        {
          "internalType": "uint256",
          "name": "increasedSupply",
          "type": "uint256"
        },
        {
          "internalType": "uint256",
          "name": "cap",
          "type": "uint256"
        }
      ],
      "name": "ERC20ExceededCap",
      "type": "error"
    },
    {
      "inputs": [
        {
          "internalType": "address",
          "name": "spender",
          "type": "address"
        },
        {
          "internalType": "uint256",
          "name": "allowance",
          "type": "uint256"
        },
        {
          "internalType": "uint256",
          "name": "needed",
          "type": "uint256"
        }
      ],
      "name": "ERC20InsufficientAllowance",
      "type": "error"
    },
    {
      "inputs": [
        {
          "internalType": "address",
          "name": "sender",
          "type": "address"
        },
        {
          "internalType": "uint256",
          "name": "balance",
          "type": "uint256"
        },
        {
          "internalType": "uint256",
          "name": "needed",
          "type": "uint256"
        }
      ],
      "name": "ERC20InsufficientBalance",
      "type": "error"
    },
    {
      "inputs": [
        {
          "internalType": "address",
          "name": "approver",
          "type": "address"
        }
      ],
      "name": "ERC20InvalidApprover",
      "type": "error"
    },
    {
      "inputs": [
        {
          "internalType": "uint256",
          "name": "cap",
          "type": "uint256"
        }
      ],
      "name": "ERC20InvalidCap",
      "type": "error"
    },
    {
      "inputs": [
        {
          "internalType": "address",
          "name": "receiver",
          "type": "address"
        }
      ],
      "name": "ERC20InvalidReceiver",
      "type": "error"
    },
    {
      "inputs": [
        {
          "internalType": "address",
          "name": "sender",
          "type": "address"
        }
      ],
      "name": "ERC20InvalidSender",
      "type": "error"
    },
    {
      "inputs": [
        {
          "internalType": "address",
          "name": "spender",
          "type": "address"
        }
      ],
      "name": "ERC20InvalidSpender",
      "type": "error"
    },
    {
      "inputs": [
        {
          "internalType": "address",
          "name": "owner",
          "type": "address"
        }
      ],
      "name": "OwnableInvalidOwner",
      "type": "error"
    },
    {
      "inputs": [
        {
          "internalType": "address",
          "name": "account",
          "type": "address"
        }
      ],
      "name": "OwnableUnauthorizedAccount",
      "type": "error"
    },
    {
      "anonymous": false,
      "inputs": [
        {
          "indexed": true,
          "internalType": "address",
          "name": "owner",
          "type": "address"
        },
        {
          "indexed": true,
          "internalType": "address",
          "name": "spender",
          "type": "address"
        },
        {
          "indexed": false,
          "internalType": "uint256",
          "name": "value",
          "type": "uint256"
        }
      ],
      "name": "Approval",
      "type": "event"
    },
    {
      "anonymous": false,
      "inputs": [
        {
          "indexed": true,
          "internalType": "address",
          "name": "previousOwner",
          "type": "address"
        },
        {
          "indexed": true,
          "internalType": "address",
          "name": "newOwner",
          "type": "address"
        }
      ],
      "name": "OwnershipTransferred",
      "type": "event"
    },
    {
      "anonymous": false,
      "inputs": [
        {
          "indexed": true,
          "internalType": "address",
          "name": "from",
          "type": "address"
        },
        {
          "indexed": true,
          "internalType": "address",
          "name": "to",
          "type": "address"
        },
        {
          "indexed": false,
          "internalType": "uint256",
          "name": "value",
          "type": "uint256"
        }
      ],
      "name": "Transfer",
      "type": "event"
    },
    {
      "inputs": [],
      "name": "HARD_CAP",
      "outputs": [
        {
          "internalType": "uint256",
          "name": "",
          "type": "uint256"
        }
      ],
      "stateMutability": "view",
      "type": "function"
    },
    {
      "inputs": [
        {
          "internalType": "address",
          "name": "owner",
          "type": "address"
        },
        {
          "internalType": "address",
          "name": "spender",
          "type": "address"
        }
      ],
      "name": "allowance",
      "outputs": [
        {
          "internalType": "uint256",
          "name": "",
          "type": "uint256"
        }
      ],
      "stateMutability": "view",
      "type": "function"
    },
    {
      "inputs": [
        {
          "internalType": "address",
          "name": "spender",
          "type": "address"
        },
        {
          "internalType": "uint256",
          "name": "value",
          "type": "uint256"
        }
      ],
      "name": "approve",
      "outputs": [
        {
          "internalType": "bool",
          "name": "",
          "type": "bool"
        }
      ],
      "stateMutability": "nonpayable",
      "type": "function"
    },
    {
      "inputs": [
        {
          "internalType": "address",
          "name": "account",
          "type": "address"
        }
      ],
      "name": "balanceOf",
      "outputs": [
        {
          "internalType": "uint256",
          "name": "",
          "type": "uint256"
        }
      ],
      "stateMutability": "view",
      "type": "function"
    },
    {
      "inputs": [],
      "name": "cap",
      "outputs": [
        {
          "internalType": "uint256",
          "name": "",
          "type": "uint256"
        }
      ],
      "stateMutability": "view",
      "type": "function"
    },
    {
      "inputs": [],
      "name": "decimals",
      "outputs": [
        {
          "internalType": "uint8",
          "name": "",
          "type": "uint8"
        }
      ],
      "stateMutability": "view",
      "type": "function"
    },
    {
      "inputs": [
        {
          "internalType": "address",
          "name": "to",
          "type": "address"
        },
        {
          "internalType": "uint256",
          "name": "amount",
          "type": "uint256"
        }
      ],
      "name": "mint",
      "outputs": [],
      "stateMutability": "nonpayable",
      "type": "function"
    },
    {
      "inputs": [],
      "name": "name",
      "outputs": [
        {
          "internalType": "string",
          "name": "",
          "type": "string"
        }
      ],
      "stateMutability": "view",
      "type": "function"
    },
    {
      "inputs": [],
      "name": "owner",
      "outputs": [
        {
          "internalType": "address",
          "name": "",
          "type": "address"
        }
      ],
      "stateMutability": "view",
      "type": "function"
    },
    {
      "inputs": [],
      "name": "renounceOwnership",
      "outputs": [],
      "stateMutability": "nonpayable",
      "type": "function"
    },
    {
      "inputs": [],
      "name": "symbol",
      "outputs": [
        {
          "internalType": "string",
          "name": "",
          "type": "string"
        }
      ],
      "stateMutability": "view",
      "type": "function"
    },
    {
      "inputs": [],
      "name": "totalSupply",
      "outputs": [
        {
          "internalType": "uint256",
          "name": "",
          "type": "uint256"
        }
      ],
      "stateMutability": "view",
      "type": "function"
    },
    {
      "inputs": [
        {
          "internalType": "address",
          "name": "to",
          "type": "address"
        },
        {
          "internalType": "uint256",
          "name": "value",
          "type": "uint256"
        }
      ],
      "name": "transfer",
      "outputs": [
        {
          "internalType": "bool",
          "name": "",
          "type": "bool"
        }
      ],
      "stateMutability": "nonpayable",
      "type": "function"
    },
    {
      "inputs": [
        {
          "internalType": "address",
          "name": "from",
          "type": "address"
        },
        {
          "internalType": "address",
          "name": "to",
          "type": "address"
        },
        {
          "internalType": "uint256",
          "name": "value",
          "type": "uint256"
        }
      ],
      "name": "transferFrom",
      "outputs": [
        {
          "internalType": "bool",
          "name": "",
          "type": "bool"
        }
      ],
      "stateMutability": "nonpayable",
      "type": "function"
    },
    {
      "inputs": [
        {
          "internalType": "address",
          "name": "newOwner",
          "type": "address"
        }
      ],
      "name": "transferOwnership",
      "outputs": [],
      "stateMutability": "nonpayable",
      "type": "function"
    }
  ],
  "bytecode": "0x60a06040523462000362576200001462000367565b6200001e62000367565b8151906001600160401b039081831162000262576003908154906001948583811c931696871562000357575b6020978885101462000341578190601f94858111620002eb575b508890858311600114620002845760009262000278575b505060001982861b1c191690861b1783555b8051938411620002625760049586548681811c9116801562000257575b828210146200024257838111620001f7575b50809285116001146200018957509383949184926000956200017d575b50501b92600019911b1c19161781555b6b158a8994202d87c8f06800006080523315620001655760058054336001600160a01b03198216811790925560405191906001600160a01b03167f8be0079c531659141344cd1fd0a4f28419497f9722a3daafe3b4186f6b6457e0600080a3610a379081620003998239608051818181610468015261052e0152f35b602490600060405191631e4fbdf760e01b8352820152fd5b015193503880620000d9565b92919084601f1981168860005285600020956000905b89838310620001dc5750505010620001c1575b50505050811b018155620000e9565b01519060f884600019921b161c1916905538808080620001b2565b8587015189559097019694850194889350908101906200019f565b87600052816000208480880160051c82019284891062000238575b0160051c019087905b8281106200022b575050620000bc565b600081550187906200021b565b9250819262000212565b602288634e487b7160e01b6000525260246000fd5b90607f1690620000aa565b634e487b7160e01b600052604160045260246000fd5b0151905038806200007b565b90889350601f19831691876000528a6000209260005b8c828210620002d45750508411620002bb575b505050811b0183556200008d565b015160001983881b60f8161c19169055388080620002ad565b8385015186558c979095019493840193016200029a565b90915085600052886000208580850160051c8201928b861062000337575b918a91869594930160051c01915b8281106200032757505062000064565b600081558594508a910162000317565b9250819262000309565b634e487b7160e01b600052602260045260246000fd5b92607f16926200004a565b600080fd5b60408051919082016001600160401b038111838210176200026257604052600482526312d2531360e21b602083015256fe6080604081815260048036101561001557600080fd5b600092833560e01c90816306fdde031461073e57508063095ea7b31461069757806318160ddd1461067857806323b872dd1461056d578063313ce56714610551578063355274ea146105165780633a03171c146104ef57806340c10f19146103e257806370a08231146103ac578063715018a6146103415780638da5cb5b1461031957806395d89b41146101f7578063a9059cbb146101c6578063dd62ed3e146101795763f2fde38b146100c857600080fd5b34610175576020366003190112610175576100e161087e565b906100ea6109bd565b6001600160a01b038092169283156101465750506005548273ffffffffffffffffffffffffffffffffffffffff19821617600555167f8be0079c531659141344cd1fd0a4f28419497f9722a3daafe3b4186f6b6457e08380a380f35b908460249251917f1e4fbdf7000000000000000000000000000000000000000000000000000000008352820152fd5b8280fd5b5050346101c257806003193601126101c2578060209261019761087e565b61019f610899565b6001600160a01b0391821683526001865283832091168252845220549051908152f35b5080fd5b5050346101c257806003193601126101c2576020906101f06101e661087e565b60243590336108af565b5160018152f35b509190346101c257816003193601126101c25780519082845460018160011c906001831692831561030f575b60209384841081146102fc578388529081156102e0575060011461028b575b505050829003601f01601f191682019267ffffffffffffffff8411838510176102785750829182610274925282610835565b0390f35b80604186634e487b7160e01b6024945252fd5b8787529192508591837f8a35acfbc15ff81a39ae7d344fd709f28e8600b4aa8c65c6b64bfe7fe36bd19b5b8385106102cc5750505050830101388080610242565b8054888601830152930192849082016102b6565b60ff1916878501525050151560051b8401019050388080610242565b60248960228c634e487b7160e01b835252fd5b91607f1691610223565b5050346101c257816003193601126101c2576020906001600160a01b03600554169051908152f35b83346103a957806003193601126103a95761035a6109bd565b806001600160a01b0360055473ffffffffffffffffffffffffffffffffffffffff198116600555167f8be0079c531659141344cd1fd0a4f28419497f9722a3daafe3b4186f6b6457e08280a380f35b80fd5b5050346101c25760203660031901126101c257806020926001600160a01b036103d361087e565b16815280845220549051908152f35b5090346101755780600319360112610175576103fc61087e565b6001600160a01b03602435916104106109bd565b169081156104d9576002548181018091116104c657602086927fddf252ad1be2c89b69c2b068fc378daa952ba7f163c4a11628f55a4df523b3ef926002558484528382528584208181540190558551908152a36002547f000000000000000000000000000000000000000000000000000000000000000091828211610493578480f35b6044945051927f9e79f8540000000000000000000000000000000000000000000000000000000084528301526024820152fd5b602486601187634e487b7160e01b835252fd5b6024848685519163ec442f0560e01b8352820152fd5b5050346101c257816003193601126101c257602090516b158a8994202d87c8f06800008152f35b5050346101c257816003193601126101c257602090517f00000000000000000000000000000000000000000000000000000000000000008152f35b5050346101c257816003193601126101c2576020905160128152f35b5082346103a95760603660031901126103a95761058861087e565b610590610899565b91604435936001600160a01b0383168083526001602052868320338452602052868320549160001983106105cd575b6020886101f08989896108af565b86831061063357811561061d573315610607575082526001602090815286832033845281529186902090859003905582906101f0876105bf565b60249084895191634a1406b160e11b8352820152fd5b6024908489519163e602df0560e01b8352820152fd5b87517ffb8f41b2000000000000000000000000000000000000000000000000000000008152339181019182526020820193909352604081018790528291506060010390fd5b5050346101c257816003193601126101c2576020906002549051908152f35b50346101755781600319360112610175576106b061087e565b602435903315610728576001600160a01b031691821561071257508083602095338152600187528181208582528752205582519081527f8c5be1e5ebec7d5bd14f71427d1e84f3dd0314c0f7b2291e5b200ac8c7c3b925843392a35160018152f35b60249085855191634a1406b160e11b8352820152fd5b6024838686519163e602df0560e01b8352820152fd5b84915083346101755782600319360112610175578260035460018160011c906001831692831561082b575b60209384841081146102fc5783885290811561080f57506001146107b957505050829003601f01601f191682019267ffffffffffffffff8411838510176102785750829182610274925282610835565b600387529192508591837fc2575a0e9e593c00f959f8c92f12db2869c3395a3b0502d05e2516446f71f85b5b8385106107fb5750505050830101858080610242565b8054888601830152930192849082016107e5565b60ff1916878501525050151560051b8401019050858080610242565b91607f1691610769565b6020808252825181830181905290939260005b82811061086a57505060409293506000838284010152601f8019910116010190565b818101860151848201604001528501610848565b600435906001600160a01b038216820361089457565b600080fd5b602435906001600160a01b038216820361089457565b916001600160a01b0380841692831561098c57169283156109745760009083825281602052604082205490838210610929575091604082827fddf252ad1be2c89b69c2b068fc378daa952ba7f163c4a11628f55a4df523b3ef958760209652828652038282205586815220818154019055604051908152a3565b6040517fe450d38c0000000000000000000000000000000000000000000000000000000081526001600160a01b03919091166004820152602481019190915260448101839052606490fd5b602460405163ec442f0560e01b815260006004820152fd5b60246040517f96c6fd1e00000000000000000000000000000000000000000000000000000000815260006004820152fd5b6001600160a01b036005541633036109d157565b60246040517f118cdaa7000000000000000000000000000000000000000000000000000000008152336004820152fdfea2646970667358221220bcafc4fdf0e61744f7f03392cd3f4365902780afab572ed3013e8fc450feeade64736f6c63430008180033",
  "linkReferences": {},
  "deployedLinkReferences": {}
}