{
  "_format": "hh-sol-artifact-1",
  "contractName": "KILLToken",
  "sourceName": "contracts/KillToken.sol",
  "abi": [
    {
      "inputs": [],
      "stateMutability": "nonpayable",
      "type": "constructor"
    },
    {
      "inputs": [
        {
          "internalType": "uint256",
          "name": "increasedSupply",
          "type": "uint256"
        },
        {
          "internalType": "uint256",
          "name": "cap",
          "type": "uint256"
        }
      ],
      "name": "ERC20ExceededCap",
      "type": "error"
    },
    {
      "inputs": [
        {
          "internalType": "address",
          "name": "spender",
          "type": "address"
        },
        {
          "internalType": "uint256",
          "name": "allowance",
          "type": "uint256"
        },
        {
          "internalType": "uint256",
          "name": "needed",
          "type": "uint256"
        }
      ],
      "name": "ERC20InsufficientAllowance",
      "type": "error"
    },
    {
      "inputs": [
        {
          "internalType": "address",
          "name": "sender",
          "type": "address"
        },
        {
          "internalType": "uint256",
          "name": "balance",
          "type": "uint256"
        },
        {
          "internalType": "uint256",
          "name": "needed",
          "type": "uint256"
        }
      ],
      "name": "ERC20InsufficientBalance",
      "type": "error"
    },
    {
      "inputs": [
        {
          "internalType": "address",
          "name": "approver",
          "type": "address"
        }
      ],
      "name": "ERC20InvalidApprover",
      "type": "error"
    },
    {
      "inputs": [
        {
          "internalType": "uint256",
          "name": "cap",
          "type": "uint256"
        }
      ],
      "name": "ERC20InvalidCap",
      "type": "error"
    },
    {
      "inputs": [
        {
          "internalType": "address",
          "name": "receiver",
          "type": "address"
        }
      ],
      "name": "ERC20InvalidReceiver",
      "type": "error"
    },
    {
      "inputs": [
        {
          "internalType": "address",
          "name": "sender",
          "type": "address"
        }
      ],
      "name": "ERC20InvalidSender",
      "type": "error"
    },
    {
      "inputs": [
        {
          "internalType": "address",
          "name": "spender",
          "type": "address"
        }
      ],
      "name": "ERC20InvalidSpender",
      "type": "error"
    },
    {
      "inputs": [
        {
          "internalType": "address",
          "name": "owner",
          "type": "address"
        }
      ],
      "name": "OwnableInvalidOwner",
      "type": "error"
    },
    {
      "inputs": [
        {
          "internalType": "address",
          "name": "account",
          "type": "address"
        }
      ],
      "name": "OwnableUnauthorizedAccount",
      "type": "error"
    },
    {
      "anonymous": false,
      "inputs": [
        {
          "indexed": true,
          "internalType": "address",
          "name": "owner",
          "type": "address"
        },
        {
          "indexed": true,
          "internalType": "address",
          "name": "spender",
          "type": "address"
        },
        {
          "indexed": false,
          "internalType": "uint256",
          "name": "value",
          "type": "uint256"
        }
      ],
      "name": "Approval",
      "type": "event"
    },
    {
      "anonymous": false,
      "inputs": [
        {
          "indexed": true,
          "internalType": "address",
          "name": "previousOwner",
          "type": "address"
        },
        {
          "indexed": true,
          "internalType": "address",
          "name": "newOwner",
          "type": "address"
        }
      ],
      "name": "OwnershipTransferred",
      "type": "event"
    },
    {
      "anonymous": false,
      "inputs": [
        {
          "indexed": true,
          "internalType": "address",
          "name": "from",
          "type": "address"
        },
        {
          "indexed": true,
          "internalType": "address",
          "name": "to",
          "type": "address"
        },
        {
          "indexed": false,
          "internalType": "uint256",
          "name": "value",
          "type": "uint256"
        }
      ],
      "name": "Transfer",
      "type": "event"
    },
    {
      "inputs": [],
      "name": "HARD_CAP",
      "outputs": [
        {
          "internalType": "uint256",
          "name": "",
          "type": "uint256"
        }
      ],
      "stateMutability": "view",
      "type": "function"
    },
    {
      "inputs": [
        {
          "internalType": "address",
          "name": "owner",
          "type": "address"
        },
        {
          "internalType": "address",
          "name": "spender",
          "type": "address"
        }
      ],
      "name": "allowance",
      "outputs": [
        {
          "internalType": "uint256",
          "name": "",
          "type": "uint256"
        }
      ],
      "stateMutability": "view",
      "type": "function"
    },
    {
      "inputs": [
        {
          "internalType": "address",
          "name": "spender",
          "type": "address"
        },
        {
          "internalType": "uint256",
          "name": "value",
          "type": "uint256"
        }
      ],
      "name": "approve",
      "outputs": [
        {
          "internalType": "bool",
          "name": "",
          "type": "bool"
        }
      ],
      "stateMutability": "nonpayable",
      "type": "function"
    },
    {
      "inputs": [
        {
          "internalType": "address",
          "name": "account",
          "type": "address"
        }
      ],
      "name": "balanceOf",
      "outputs": [
        {
          "internalType": "uint256",
          "name": "",
          "type": "uint256"
        }
      ],
      "stateMutability": "view",
      "type": "function"
    },
    {
      "inputs": [],
      "name": "cap",
      "outputs": [
        {
          "internalType": "uint256",
          "name": "",
          "type": "uint256"
        }
      ],
      "stateMutability": "view",
      "type": "function"
    },
    {
      "inputs": [],
      "name": "decimals",
      "outputs": [
        {
          "internalType": "uint8",
          "name": "",
          "type": "uint8"
        }
      ],
      "stateMutability": "view",
      "type": "function"
    },
    {
      "inputs": [],
      "name": "name",
      "outputs": [
        {
          "internalType": "string",
          "name": "",
          "type": "string"
        }
      ],
      "stateMutability": "view",
      "type": "function"
    },
    {
      "inputs": [],
      "name": "owner",
      "outputs": [
        {
          "internalType": "address",
          "name": "",
          "type": "address"
        }
      ],
      "stateMutability": "view",
      "type": "function"
    },
    {
      "inputs": [],
      "name": "renounceOwnership",
      "outputs": [],
      "stateMutability": "nonpayable",
      "type": "function"
    },
    {
      "inputs": [],
      "name": "symbol",
      "outputs": [
        {
          "internalType": "string",
          "name": "",
          "type": "string"
        }
      ],
      "stateMutability": "view",
      "type": "function"
    },
    {
      "inputs": [],
      "name": "totalSupply",
      "outputs": [
        {
          "internalType": "uint256",
          "name": "",
          "type": "uint256"
        }
      ],
      "stateMutability": "view",
      "type": "function"
    },
    {
      "inputs": [
        {
          "internalType": "address",
          "name": "to",
          "type": "address"
        },
        {
          "internalType": "uint256",
          "name": "value",
          "type": "uint256"
        }
      ],
      "name": "transfer",
      "outputs": [
        {
          "internalType": "bool",
          "name": "",
          "type": "bool"
        }
      ],
      "stateMutability": "nonpayable",
      "type": "function"
    },
    {
      "inputs": [
        {
          "internalType": "address",
          "name": "from",
          "type": "address"
        },
        {
          "internalType": "address",
          "name": "to",
          "type": "address"
        },
        {
          "internalType": "uint256",
          "name": "value",
          "type": "uint256"
        }
      ],
      "name": "transferFrom",
      "outputs": [
        {
          "internalType": "bool",
          "name": "",
          "type": "bool"
        }
      ],
      "stateMutability": "nonpayable",
      "type": "function"
    },
    {
      "inputs": [
        {
          "internalType": "address",
          "name": "newOwner",
          "type": "address"
        }
      ],
      "name": "transferOwnership",
      "outputs": [],
      "stateMutability": "nonpayable",
      "type": "function"
    }
  ],
  "bytecode": "0x604060a0815234620003df5762000015620003e4565b6200001f620003e4565b81519091906001600160401b03808211620002df57600380546001938482811c9216958615620003d4575b60209687841014620003be578190601f9384811162000368575b5087908483116001146200030157600092620002f5575b505060001982851b1c191690851b1782555b8551928311620002df5760049586548581811c91168015620002d4575b87821014620002bf5782811162000274575b50859184116001146200020957938394918492600095620001fd575b50501b92600019911b1c19161782555b6c0867f649b7c46d9e739000000090816080523315620001e65760058054336001600160a01b0319821681179092556001600160a01b03167f8be0079c531659141344cd1fd0a4f28419497f9722a3daafe3b4186f6b6457e0600080a3600254828101809111620001d1576000917fddf252ad1be2c89b69c2b068fc378daa952ba7f163c4a11628f55a4df523b3ef9160025533835282815285832084815401905585519384523393a3608051600254818111620001b85783516109399081620004168239608051816104170152f35b604493519263279e7e1560e21b84528301526024820152fd5b601184634e487b7160e01b6000525260246000fd5b8351631e4fbdf760e01b8152600081850152602490fd5b015193503880620000d8565b9190601f198416928760005284876000209460005b89898383106200025c575050501062000241575b50505050811b018255620000e8565b01519060f884600019921b161c191690553880808062000232565b8686015189559097019694850194889350016200021e565b87600052866000208380870160051c820192898810620002b5575b0160051c019086905b828110620002a8575050620000bc565b6000815501869062000298565b925081926200028f565b602288634e487b7160e01b6000525260246000fd5b90607f1690620000aa565b634e487b7160e01b600052604160045260246000fd5b0151905038806200007b565b90879350601f1983169186600052896000209260005b8b82821062000351575050841162000338575b505050811b0182556200008d565b015160001983871b60f8161c191690553880806200032a565b8385015186558b9790950194938401930162000317565b90915084600052876000208480850160051c8201928a8610620003b4575b918991869594930160051c01915b828110620003a457505062000064565b6000815585945089910162000394565b9250819262000386565b634e487b7160e01b600052602260045260246000fd5b91607f16916200004a565b600080fd5b60408051919082016001600160401b03811183821017620002df57604052600482526312d2531360e21b602083015256fe6080604081815260048036101561001557600080fd5b600092833560e01c90816306fdde031461062757508063095ea7b31461058057806318160ddd1461056157806323b872dd14610456578063313ce5671461043a578063355274ea146103ff5780633a03171c146103d757806370a08231146103a1578063715018a6146103365780638da5cb5b1461030e57806395d89b41146101ec578063a9059cbb146101bb578063dd62ed3e1461016e5763f2fde38b146100bd57600080fd5b3461016a57602036600319011261016a576100d6610767565b906100df6108bf565b6001600160a01b0380921692831561013b5750506005548273ffffffffffffffffffffffffffffffffffffffff19821617600555167f8be0079c531659141344cd1fd0a4f28419497f9722a3daafe3b4186f6b6457e08380a380f35b908460249251917f1e4fbdf7000000000000000000000000000000000000000000000000000000008352820152fd5b8280fd5b5050346101b757806003193601126101b7578060209261018c610767565b610194610782565b6001600160a01b0391821683526001865283832091168252845220549051908152f35b5080fd5b5050346101b757806003193601126101b7576020906101e56101db610767565b6024359033610798565b5160018152f35b509190346101b757816003193601126101b75780519082845460018160011c9060018316928315610304575b60209384841081146102f1578388529081156102d55750600114610280575b505050829003601f01601f191682019267ffffffffffffffff84118385101761026d575082918261026992528261071e565b0390f35b80604186634e487b7160e01b6024945252fd5b8787529192508591837f8a35acfbc15ff81a39ae7d344fd709f28e8600b4aa8c65c6b64bfe7fe36bd19b5b8385106102c15750505050830101388080610237565b8054888601830152930192849082016102ab565b60ff1916878501525050151560051b8401019050388080610237565b60248960228c634e487b7160e01b835252fd5b91607f1691610218565b5050346101b757816003193601126101b7576020906001600160a01b03600554169051908152f35b833461039e578060031936011261039e5761034f6108bf565b806001600160a01b0360055473ffffffffffffffffffffffffffffffffffffffff198116600555167f8be0079c531659141344cd1fd0a4f28419497f9722a3daafe3b4186f6b6457e08280a380f35b80fd5b5050346101b75760203660031901126101b757806020926001600160a01b036103c8610767565b16815280845220549051908152f35b5050346101b757816003193601126101b757602090516c0867f649b7c46d9e73900000008152f35b5050346101b757816003193601126101b757602090517f00000000000000000000000000000000000000000000000000000000000000008152f35b5050346101b757816003193601126101b7576020905160128152f35b50823461039e57606036600319011261039e57610471610767565b610479610782565b91604435936001600160a01b0383168083526001602052868320338452602052868320549160001983106104b6575b6020886101e5898989610798565b86831061051c5781156105065733156104f0575082526001602090815286832033845281529186902090859003905582906101e5876104a8565b60249084895191634a1406b160e11b8352820152fd5b6024908489519163e602df0560e01b8352820152fd5b87517ffb8f41b2000000000000000000000000000000000000000000000000000000008152339181019182526020820193909352604081018790528291506060010390fd5b5050346101b757816003193601126101b7576020906002549051908152f35b503461016a578160031936011261016a57610599610767565b602435903315610611576001600160a01b03169182156105fb57508083602095338152600187528181208582528752205582519081527f8c5be1e5ebec7d5bd14f71427d1e84f3dd0314c0f7b2291e5b200ac8c7c3b925843392a35160018152f35b60249085855191634a1406b160e11b8352820152fd5b6024838686519163e602df0560e01b8352820152fd5b849150833461016a578260031936011261016a578260035460018160011c9060018316928315610714575b60209384841081146102f1578388529081156106f857506001146106a257505050829003601f01601f191682019267ffffffffffffffff84118385101761026d575082918261026992528261071e565b600387529192508591837fc2575a0e9e593c00f959f8c92f12db2869c3395a3b0502d05e2516446f71f85b5b8385106106e45750505050830101858080610237565b8054888601830152930192849082016106ce565b60ff1916878501525050151560051b8401019050858080610237565b91607f1691610652565b6020808252825181830181905290939260005b82811061075357505060409293506000838284010152601f8019910116010190565b818101860151848201604001528501610731565b600435906001600160a01b038216820361077d57565b600080fd5b602435906001600160a01b038216820361077d57565b916001600160a01b0380841692831561088e571692831561085d5760009083825281602052604082205490838210610812575091604082827fddf252ad1be2c89b69c2b068fc378daa952ba7f163c4a11628f55a4df523b3ef958760209652828652038282205586815220818154019055604051908152a3565b6040517fe450d38c0000000000000000000000000000000000000000000000000000000081526001600160a01b03919091166004820152602481019190915260448101839052606490fd5b60246040517fec442f0500000000000000000000000000000000000000000000000000000000815260006004820152fd5b60246040517f96c6fd1e00000000000000000000000000000000000000000000000000000000815260006004820152fd5b6001600160a01b036005541633036108d357565b60246040517f118cdaa7000000000000000000000000000000000000000000000000000000008152336004820152fdfea2646970667358221220da03feb18fdf1657cb7dd029c60716637bcac911d15fb04c748872c4b75e28be64736f6c63430008180033",
  "linkReferences": {},
  "deployedLinkReferences": {}
}