{
  "_format": "hh-sol-artifact-1",
  "contractName": "KILLToken",
  "sourceName": "contracts/KillToken.sol",
  "abi": [
    {
      "inputs": [],
      "stateMutability": "nonpayable",
      "type": "constructor"
    },
    {
      "inputs": [
        {
          "internalType": "uint256",
          "name": "increasedSupply",
          "type": "uint256"
        },
        {
          "internalType": "uint256",
          "name": "cap",
          "type": "uint256"
        }
      ],
      "name": "ERC20ExceededCap",
      "type": "error"
    },
    {
      "inputs": [
        {
          "internalType": "address",
          "name": "spender",
          "type": "address"
        },
        {
          "internalType": "uint256",
          "name": "allowance",
          "type": "uint256"
        },
        {
          "internalType": "uint256",
          "name": "needed",
          "type": "uint256"
        }
      ],
      "name": "ERC20InsufficientAllowance",
      "type": "error"
    },
    {
      "inputs": [
        {
          "internalType": "address",
          "name": "sender",
          "type": "address"
        },
        {
          "internalType": "uint256",
          "name": "balance",
          "type": "uint256"
        },
        {
          "internalType": "uint256",
          "name": "needed",
          "type": "uint256"
        }
      ],
      "name": "ERC20InsufficientBalance",
      "type": "error"
    },
    {
      "inputs": [
        {
          "internalType": "address",
          "name": "approver",
          "type": "address"
        }
      ],
      "name": "ERC20InvalidApprover",
      "type": "error"
    },
    {
      "inputs": [
        {
          "internalType": "uint256",
          "name": "cap",
          "type": "uint256"
        }
      ],
      "name": "ERC20InvalidCap",
      "type": "error"
    },
    {
      "inputs": [
        {
          "internalType": "address",
          "name": "receiver",
          "type": "address"
        }
      ],
      "name": "ERC20InvalidReceiver",
      "type": "error"
    },
    {
      "inputs": [
        {
          "internalType": "address",
          "name": "sender",
          "type": "address"
        }
      ],
      "name": "ERC20InvalidSender",
      "type": "error"
    },
    {
      "inputs": [
        {
          "internalType": "address",
          "name": "spender",
          "type": "address"
        }
      ],
      "name": "ERC20InvalidSpender",
      "type": "error"
    },
    {
      "inputs": [
        {
          "internalType": "address",
          "name": "owner",
          "type": "address"
        }
      ],
      "name": "OwnableInvalidOwner",
      "type": "error"
    },
    {
      "inputs": [
        {
          "internalType": "address",
          "name": "account",
          "type": "address"
        }
      ],
      "name": "OwnableUnauthorizedAccount",
      "type": "error"
    },
    {
      "anonymous": false,
      "inputs": [
        {
          "indexed": true,
          "internalType": "address",
          "name": "owner",
          "type": "address"
        },
        {
          "indexed": true,
          "internalType": "address",
          "name": "spender",
          "type": "address"
        },
        {
          "indexed": false,
          "internalType": "uint256",
          "name": "value",
          "type": "uint256"
        }
      ],
      "name": "Approval",
      "type": "event"
    },
    {
      "anonymous": false,
      "inputs": [
        {
          "indexed": true,
          "internalType": "address",
          "name": "previousOwner",
          "type": "address"
        },
        {
          "indexed": true,
          "internalType": "address",
          "name": "newOwner",
          "type": "address"
        }
      ],
      "name": "OwnershipTransferred",
      "type": "event"
    },
    {
      "anonymous": false,
      "inputs": [
        {
          "indexed": true,
          "internalType": "address",
          "name": "from",
          "type": "address"
        },
        {
          "indexed": true,
          "internalType": "address",
          "name": "to",
          "type": "address"
        },
        {
          "indexed": false,
          "internalType": "uint256",
          "name": "value",
          "type": "uint256"
        }
      ],
      "name": "Transfer",
      "type": "event"
    },
    {
      "inputs": [],
      "name": "HARD_CAP",
      "outputs": [
        {
          "internalType": "uint256",
          "name": "",
          "type": "uint256"
        }
      ],
      "stateMutability": "view",
      "type": "function"
    },
    {
      "inputs": [
        {
          "internalType": "address",
          "name": "owner",
          "type": "address"
        },
        {
          "internalType": "address",
          "name": "spender",
          "type": "address"
        }
      ],
      "name": "allowance",
      "outputs": [
        {
          "internalType": "uint256",
          "name": "",
          "type": "uint256"
        }
      ],
      "stateMutability": "view",
      "type": "function"
    },
    {
      "inputs": [
        {
          "internalType": "address",
          "name": "spender",
          "type": "address"
        },
        {
          "internalType": "uint256",
          "name": "value",
          "type": "uint256"
        }
      ],
      "name": "approve",
      "outputs": [
        {
          "internalType": "bool",
          "name": "",
          "type": "bool"
        }
      ],
      "stateMutability": "nonpayable",
      "type": "function"
    },
    {
      "inputs": [
        {
          "internalType": "address",
          "name": "account",
          "type": "address"
        }
      ],
      "name": "balanceOf",
      "outputs": [
        {
          "internalType": "uint256",
          "name": "",
          "type": "uint256"
        }
      ],
      "stateMutability": "view",
      "type": "function"
    },
    {
      "inputs": [],
      "name": "cap",
      "outputs": [
        {
          "internalType": "uint256",
          "name": "",
          "type": "uint256"
        }
      ],
      "stateMutability": "view",
      "type": "function"
    },
    {
      "inputs": [],
      "name": "decimals",
      "outputs": [
        {
          "internalType": "uint8",
          "name": "",
          "type": "uint8"
        }
      ],
      "stateMutability": "view",
      "type": "function"
    },
    {
      "inputs": [
        {
          "internalType": "address",
          "name": "to",
          "type": "address"
        },
        {
          "internalType": "uint256",
          "name": "amount",
          "type": "uint256"
        }
      ],
      "name": "mint",
      "outputs": [],
      "stateMutability": "nonpayable",
      "type": "function"
    },
    {
      "inputs": [],
      "name": "name",
      "outputs": [
        {
          "internalType": "string",
          "name": "",
          "type": "string"
        }
      ],
      "stateMutability": "view",
      "type": "function"
    },
    {
      "inputs": [],
      "name": "owner",
      "outputs": [
        {
          "internalType": "address",
          "name": "",
          "type": "address"
        }
      ],
      "stateMutability": "view",
      "type": "function"
    },
    {
      "inputs": [],
      "name": "renounceOwnership",
      "outputs": [],
      "stateMutability": "nonpayable",
      "type": "function"
    },
    {
      "inputs": [],
      "name": "symbol",
      "outputs": [
        {
          "internalType": "string",
          "name": "",
          "type": "string"
        }
      ],
      "stateMutability": "view",
      "type": "function"
    },
    {
      "inputs": [],
      "name": "totalSupply",
      "outputs": [
        {
          "internalType": "uint256",
          "name": "",
          "type": "uint256"
        }
      ],
      "stateMutability": "view",
      "type": "function"
    },
    {
      "inputs": [
        {
          "internalType": "address",
          "name": "to",
          "type": "address"
        },
        {
          "internalType": "uint256",
          "name": "value",
          "type": "uint256"
        }
      ],
      "name": "transfer",
      "outputs": [
        {
          "internalType": "bool",
          "name": "",
          "type": "bool"
        }
      ],
      "stateMutability": "nonpayable",
      "type": "function"
    },
    {
      "inputs": [
        {
          "internalType": "address",
          "name": "from",
          "type": "address"
        },
        {
          "internalType": "address",
          "name": "to",
          "type": "address"
        },
        {
          "internalType": "uint256",
          "name": "value",
          "type": "uint256"
        }
      ],
      "name": "transferFrom",
      "outputs": [
        {
          "internalType": "bool",
          "name": "",
          "type": "bool"
        }
      ],
      "stateMutability": "nonpayable",
      "type": "function"
    },
    {
      "inputs": [
        {
          "internalType": "address",
          "name": "newOwner",
          "type": "address"
        }
      ],
      "name": "transferOwnership",
      "outputs": [],
      "stateMutability": "nonpayable",
      "type": "function"
    }
  ],
  "bytecode": "0x60a06040523480156200001157600080fd5b50336b02277428614a865b806800006040518060400160405280600481526020016312d2531360e21b8152506040518060400160405280600481526020016312d2531360e21b81525081600390816200006b9190620001e1565b5060046200007a8282620001e1565b50505080600003620000a75760405163392e1e2760e01b8152600060048201526024015b60405180910390fd5b6080526001600160a01b038116620000d657604051631e4fbdf760e01b8152600060048201526024016200009e565b620000e181620000e8565b50620002ad565b600580546001600160a01b038381166001600160a01b0319831681179093556040519116919082907f8be0079c531659141344cd1fd0a4f28419497f9722a3daafe3b4186f6b6457e090600090a35050565b634e487b7160e01b600052604160045260246000fd5b600181811c908216806200016557607f821691505b6020821081036200018657634e487b7160e01b600052602260045260246000fd5b50919050565b601f821115620001dc576000816000526020600020601f850160051c81016020861015620001b75750805b601f850160051c820191505b81811015620001d857828155600101620001c3565b5050505b505050565b81516001600160401b03811115620001fd57620001fd6200013a565b62000215816200020e845462000150565b846200018c565b602080601f8311600181146200024d5760008415620002345750858301515b600019600386901b1c1916600185901b178555620001d8565b600085815260208120601f198616915b828110156200027e578886015182559484019460019091019084016200025d565b50858210156200029d5787850151600019600388901b60f8161c191681555b5050505050600190811b01905550565b608051610995620002d060003960008181610171015261066201526109956000f3fe608060405234801561001057600080fd5b50600436106100f55760003560e01c806340c10f191161009757806395d89b411161006657806395d89b4114610209578063a9059cbb14610211578063dd62ed3e14610224578063f2fde38b1461025d57600080fd5b806340c10f19146101a857806370a08231146101bd578063715018a6146101e65780638da5cb5b146101ee57600080fd5b806323b872dd116100d357806323b872dd1461014d578063313ce56714610160578063355274ea1461016f5780633a03171c1461019557600080fd5b806306fdde03146100fa578063095ea7b31461011857806318160ddd1461013b575b600080fd5b610102610270565b60405161010f91906107de565b60405180910390f35b61012b610126366004610849565b610302565b604051901515815260200161010f565b6002545b60405190815260200161010f565b61012b61015b366004610873565b61031c565b6040516012815260200161010f565b7f000000000000000000000000000000000000000000000000000000000000000061013f565b61013f6b02277428614a865b8068000081565b6101bb6101b6366004610849565b610340565b005b61013f6101cb3660046108af565b6001600160a01b031660009081526020819052604090205490565b6101bb610356565b6005546040516001600160a01b03909116815260200161010f565b61010261036a565b61012b61021f366004610849565b610379565b61013f6102323660046108d1565b6001600160a01b03918216600090815260016020908152604080832093909416825291909152205490565b6101bb61026b3660046108af565b610387565b60606003805461027f90610904565b80601f01602080910402602001604051908101604052809291908181526020018280546102ab90610904565b80156102f85780601f106102cd576101008083540402835291602001916102f8565b820191906000526020600020905b8154815290600101906020018083116102db57829003601f168201915b5050505050905090565b6000336103108185856103ca565b60019150505b92915050565b60003361032a8582856103dc565b61033585858561045b565b506001949350505050565b6103486104ba565b61035282826104e7565b5050565b61035e6104ba565b610368600061051d565b565b60606004805461027f90610904565b60003361031081858561045b565b61038f6104ba565b6001600160a01b0381166103be57604051631e4fbdf760e01b8152600060048201526024015b60405180910390fd5b6103c78161051d565b50565b6103d7838383600161056f565b505050565b6001600160a01b03838116600090815260016020908152604080832093861683529290522054600019811015610455578181101561044657604051637dc7a0d960e11b81526001600160a01b038416600482015260248101829052604481018390526064016103b5565b6104558484848403600061056f565b50505050565b6001600160a01b03831661048557604051634b637e8f60e11b8152600060048201526024016103b5565b6001600160a01b0382166104af5760405163ec442f0560e01b8152600060048201526024016103b5565b6103d7838383610644565b6005546001600160a01b031633146103685760405163118cdaa760e01b81523360048201526024016103b5565b6001600160a01b0382166105115760405163ec442f0560e01b8152600060048201526024016103b5565b61035260008383610644565b600580546001600160a01b038381166001600160a01b0319831681179093556040519116919082907f8be0079c531659141344cd1fd0a4f28419497f9722a3daafe3b4186f6b6457e090600090a35050565b6001600160a01b0384166105995760405163e602df0560e01b8152600060048201526024016103b5565b6001600160a01b0383166105c357604051634a1406b160e11b8152600060048201526024016103b5565b6001600160a01b038085166000908152600160209081526040808320938716835292905220829055801561045557826001600160a01b0316846001600160a01b03167f8c5be1e5ebec7d5bd14f71427d1e84f3dd0314c0f7b2291e5b200ac8c7c3b9258460405161063691815260200190565b60405180910390a350505050565b61064f8383836106b4565b6001600160a01b0383166103d7576002547f000000000000000000000000000000000000000000000000000000000000000090818111156106ad5760405163279e7e1560e21b815260048101829052602481018390526044016103b5565b5050505050565b6001600160a01b0383166106df5780600260008282546106d4919061093e565b909155506107519050565b6001600160a01b038316600090815260208190526040902054818110156107325760405163391434e360e21b81526001600160a01b038516600482015260248101829052604481018390526064016103b5565b6001600160a01b03841660009081526020819052604090209082900390555b6001600160a01b03821661076d5760028054829003905561078c565b6001600160a01b03821660009081526020819052604090208054820190555b816001600160a01b0316836001600160a01b03167fddf252ad1be2c89b69c2b068fc378daa952ba7f163c4a11628f55a4df523b3ef836040516107d191815260200190565b60405180910390a3505050565b60006020808352835180602085015260005b8181101561080c578581018301518582016040015282016107f0565b506000604082860101526040601f19601f8301168501019250505092915050565b80356001600160a01b038116811461084457600080fd5b919050565b6000806040838503121561085c57600080fd5b6108658361082d565b946020939093013593505050565b60008060006060848603121561088857600080fd5b6108918461082d565b925061089f6020850161082d565b9150604084013590509250925092565b6000602082840312156108c157600080fd5b6108ca8261082d565b9392505050565b600080604083850312156108e457600080fd5b6108ed8361082d565b91506108fb6020840161082d565b90509250929050565b600181811c9082168061091857607f821691505b60208210810361093857634e487b7160e01b600052602260045260246000fd5b50919050565b8082018082111561031657634e487b7160e01b600052601160045260246000fdfea26469706673582212202abeac829e47a23afdef9b24cf6ad072aeb9fb3638c9670a0d05096da68c1f2664736f6c63430008180033",
  "linkReferences": {},
  "deployedLinkReferences": {}
}