{
  "_format": "hh-sol-artifact-1",
  "contractName": "KILLToken",
  "sourceName": "contracts/KillToken.sol",
  "abi": [
    {
      "inputs": [
        {
          "internalType": "uint256",
          "name": "cap",
          "type": "uint256"
        },
        {
          "internalType": "address",
          "name": "initialOwner",
          "type": "address"
        }
      ],
      "stateMutability": "nonpayable",
      "type": "constructor"
    },
    {
      "inputs": [
        {
          "internalType": "uint256",
          "name": "increasedSupply",
          "type": "uint256"
        },
        {
          "internalType": "uint256",
          "name": "cap",
          "type": "uint256"
        }
      ],
      "name": "ERC20ExceededCap",
      "type": "error"
    },
    {
      "inputs": [
        {
          "internalType": "address",
          "name": "spender",
          "type": "address"
        },
        {
          "internalType": "uint256",
          "name": "allowance",
          "type": "uint256"
        },
        {
          "internalType": "uint256",
          "name": "needed",
          "type": "uint256"
        }
      ],
      "name": "ERC20InsufficientAllowance",
      "type": "error"
    },
    {
      "inputs": [
        {
          "internalType": "address",
          "name": "sender",
          "type": "address"
        },
        {
          "internalType": "uint256",
          "name": "balance",
          "type": "uint256"
        },
        {
          "internalType": "uint256",
          "name": "needed",
          "type": "uint256"
        }
      ],
      "name": "ERC20InsufficientBalance",
      "type": "error"
    },
    {
      "inputs": [
        {
          "internalType": "address",
          "name": "approver",
          "type": "address"
        }
      ],
      "name": "ERC20InvalidApprover",
      "type": "error"
    },
    {
      "inputs": [
        {
          "internalType": "uint256",
          "name": "cap",
          "type": "uint256"
        }
      ],
      "name": "ERC20InvalidCap",
      "type": "error"
    },
    {
      "inputs": [
        {
          "internalType": "address",
          "name": "receiver",
          "type": "address"
        }
      ],
      "name": "ERC20InvalidReceiver",
      "type": "error"
    },
    {
      "inputs": [
        {
          "internalType": "address",
          "name": "sender",
          "type": "address"
        }
      ],
      "name": "ERC20InvalidSender",
      "type": "error"
    },
    {
      "inputs": [
        {
          "internalType": "address",
          "name": "spender",
          "type": "address"
        }
      ],
      "name": "ERC20InvalidSpender",
      "type": "error"
    },
    {
      "inputs": [
        {
          "internalType": "address",
          "name": "owner",
          "type": "address"
        }
      ],
      "name": "OwnableInvalidOwner",
      "type": "error"
    },
    {
      "inputs": [
        {
          "internalType": "address",
          "name": "account",
          "type": "address"
        }
      ],
      "name": "OwnableUnauthorizedAccount",
      "type": "error"
    },
    {
      "anonymous": false,
      "inputs": [
        {
          "indexed": true,
          "internalType": "address",
          "name": "owner",
          "type": "address"
        },
        {
          "indexed": true,
          "internalType": "address",
          "name": "spender",
          "type": "address"
        },
        {
          "indexed": false,
          "internalType": "uint256",
          "name": "value",
          "type": "uint256"
        }
      ],
      "name": "Approval",
      "type": "event"
    },
    {
      "anonymous": false,
      "inputs": [
        {
          "indexed": true,
          "internalType": "address",
          "name": "previousOwner",
          "type": "address"
        },
        {
          "indexed": true,
          "internalType": "address",
          "name": "newOwner",
          "type": "address"
        }
      ],
      "name": "OwnershipTransferred",
      "type": "event"
    },
    {
      "anonymous": false,
      "inputs": [
        {
          "indexed": true,
          "internalType": "address",
          "name": "from",
          "type": "address"
        },
        {
          "indexed": true,
          "internalType": "address",
          "name": "to",
          "type": "address"
        },
        {
          "indexed": false,
          "internalType": "uint256",
          "name": "value",
          "type": "uint256"
        }
      ],
      "name": "Transfer",
      "type": "event"
    },
    {
      "inputs": [
        {
          "internalType": "address",
          "name": "owner",
          "type": "address"
        },
        {
          "internalType": "address",
          "name": "spender",
          "type": "address"
        }
      ],
      "name": "allowance",
      "outputs": [
        {
          "internalType": "uint256",
          "name": "",
          "type": "uint256"
        }
      ],
      "stateMutability": "view",
      "type": "function"
    },
    {
      "inputs": [
        {
          "internalType": "address",
          "name": "spender",
          "type": "address"
        },
        {
          "internalType": "uint256",
          "name": "value",
          "type": "uint256"
        }
      ],
      "name": "approve",
      "outputs": [
        {
          "internalType": "bool",
          "name": "",
          "type": "bool"
        }
      ],
      "stateMutability": "nonpayable",
      "type": "function"
    },
    {
      "inputs": [
        {
          "internalType": "address",
          "name": "account",
          "type": "address"
        }
      ],
      "name": "balanceOf",
      "outputs": [
        {
          "internalType": "uint256",
          "name": "",
          "type": "uint256"
        }
      ],
      "stateMutability": "view",
      "type": "function"
    },
    {
      "inputs": [],
      "name": "cap",
      "outputs": [
        {
          "internalType": "uint256",
          "name": "",
          "type": "uint256"
        }
      ],
      "stateMutability": "view",
      "type": "function"
    },
    {
      "inputs": [],
      "name": "decimals",
      "outputs": [
        {
          "internalType": "uint8",
          "name": "",
          "type": "uint8"
        }
      ],
      "stateMutability": "view",
      "type": "function"
    },
    {
      "inputs": [
        {
          "internalType": "address",
          "name": "to",
          "type": "address"
        },
        {
          "internalType": "uint256",
          "name": "amount",
          "type": "uint256"
        }
      ],
      "name": "mint",
      "outputs": [],
      "stateMutability": "nonpayable",
      "type": "function"
    },
    {
      "inputs": [],
      "name": "name",
      "outputs": [
        {
          "internalType": "string",
          "name": "",
          "type": "string"
        }
      ],
      "stateMutability": "view",
      "type": "function"
    },
    {
      "inputs": [],
      "name": "owner",
      "outputs": [
        {
          "internalType": "address",
          "name": "",
          "type": "address"
        }
      ],
      "stateMutability": "view",
      "type": "function"
    },
    {
      "inputs": [],
      "name": "renounceOwnership",
      "outputs": [],
      "stateMutability": "nonpayable",
      "type": "function"
    },
    {
      "inputs": [],
      "name": "symbol",
      "outputs": [
        {
          "internalType": "string",
          "name": "",
          "type": "string"
        }
      ],
      "stateMutability": "view",
      "type": "function"
    },
    {
      "inputs": [],
      "name": "totalSupply",
      "outputs": [
        {
          "internalType": "uint256",
          "name": "",
          "type": "uint256"
        }
      ],
      "stateMutability": "view",
      "type": "function"
    },
    {
      "inputs": [
        {
          "internalType": "address",
          "name": "to",
          "type": "address"
        },
        {
          "internalType": "uint256",
          "name": "value",
          "type": "uint256"
        }
      ],
      "name": "transfer",
      "outputs": [
        {
          "internalType": "bool",
          "name": "",
          "type": "bool"
        }
      ],
      "stateMutability": "nonpayable",
      "type": "function"
    },
    {
      "inputs": [
        {
          "internalType": "address",
          "name": "from",
          "type": "address"
        },
        {
          "internalType": "address",
          "name": "to",
          "type": "address"
        },
        {
          "internalType": "uint256",
          "name": "value",
          "type": "uint256"
        }
      ],
      "name": "transferFrom",
      "outputs": [
        {
          "internalType": "bool",
          "name": "",
          "type": "bool"
        }
      ],
      "stateMutability": "nonpayable",
      "type": "function"
    },
    {
      "inputs": [
        {
          "internalType": "address",
          "name": "newOwner",
          "type": "address"
        }
      ],
      "name": "transferOwnership",
      "outputs": [],
      "stateMutability": "nonpayable",
      "type": "function"
    }
  ],
  "bytecode": "0x60a06040523480156200001157600080fd5b5060405162000c9e38038062000c9e833981016040819052620000349162000152565b80826040518060400160405280600481526020016312d2531360e21b8152506040518060400160405280600481526020016312d2531360e21b815250816003908162000081919062000238565b50600462000090828262000238565b50505080600003620000bd5760405163392e1e2760e01b8152600060048201526024015b60405180910390fd5b6080526001600160a01b038116620000ec57604051631e4fbdf760e01b815260006004820152602401620000b4565b620000f78162000100565b50505062000304565b600580546001600160a01b038381166001600160a01b0319831681179093556040519116919082907f8be0079c531659141344cd1fd0a4f28419497f9722a3daafe3b4186f6b6457e090600090a35050565b600080604083850312156200016657600080fd5b825160208401519092506001600160a01b03811681146200018657600080fd5b809150509250929050565b634e487b7160e01b600052604160045260246000fd5b600181811c90821680620001bc57607f821691505b602082108103620001dd57634e487b7160e01b600052602260045260246000fd5b50919050565b601f82111562000233576000816000526020600020601f850160051c810160208610156200020e5750805b601f850160051c820191505b818110156200022f578281556001016200021a565b5050505b505050565b81516001600160401b0381111562000254576200025462000191565b6200026c81620002658454620001a7565b84620001e3565b602080601f831160018114620002a457600084156200028b5750858301515b600019600386901b1c1916600185901b1785556200022f565b600085815260208120601f198616915b82811015620002d557888601518255948401946001909101908401620002b4565b5085821015620002f45787850151600019600388901b60f8161c191681555b5050505050600190811b01905550565b6080516109776200032760003960008181610166015261064401526109776000f3fe608060405234801561001057600080fd5b50600436106100ea5760003560e01c806370a082311161008c57806395d89b411161006657806395d89b41146101eb578063a9059cbb146101f3578063dd62ed3e14610206578063f2fde38b1461023f57600080fd5b806370a082311461019f578063715018a6146101c85780638da5cb5b146101d057600080fd5b806323b872dd116100c857806323b872dd14610142578063313ce56714610155578063355274ea1461016457806340c10f191461018a57600080fd5b806306fdde03146100ef578063095ea7b31461010d57806318160ddd14610130575b600080fd5b6100f7610252565b60405161010491906107c0565b60405180910390f35b61012061011b36600461082b565b6102e4565b6040519015158152602001610104565b6002545b604051908152602001610104565b610120610150366004610855565b6102fe565b60405160128152602001610104565b7f0000000000000000000000000000000000000000000000000000000000000000610134565b61019d61019836600461082b565b610322565b005b6101346101ad366004610891565b6001600160a01b031660009081526020819052604090205490565b61019d610338565b6005546040516001600160a01b039091168152602001610104565b6100f761034c565b61012061020136600461082b565b61035b565b6101346102143660046108b3565b6001600160a01b03918216600090815260016020908152604080832093909416825291909152205490565b61019d61024d366004610891565b610369565b606060038054610261906108e6565b80601f016020809104026020016040519081016040528092919081815260200182805461028d906108e6565b80156102da5780601f106102af576101008083540402835291602001916102da565b820191906000526020600020905b8154815290600101906020018083116102bd57829003601f168201915b5050505050905090565b6000336102f28185856103ac565b60019150505b92915050565b60003361030c8582856103be565b61031785858561043d565b506001949350505050565b61032a61049c565b61033482826104c9565b5050565b61034061049c565b61034a60006104ff565b565b606060048054610261906108e6565b6000336102f281858561043d565b61037161049c565b6001600160a01b0381166103a057604051631e4fbdf760e01b8152600060048201526024015b60405180910390fd5b6103a9816104ff565b50565b6103b98383836001610551565b505050565b6001600160a01b03838116600090815260016020908152604080832093861683529290522054600019811015610437578181101561042857604051637dc7a0d960e11b81526001600160a01b03841660048201526024810182905260448101839052606401610397565b61043784848484036000610551565b50505050565b6001600160a01b03831661046757604051634b637e8f60e11b815260006004820152602401610397565b6001600160a01b0382166104915760405163ec442f0560e01b815260006004820152602401610397565b6103b9838383610626565b6005546001600160a01b0316331461034a5760405163118cdaa760e01b8152336004820152602401610397565b6001600160a01b0382166104f35760405163ec442f0560e01b815260006004820152602401610397565b61033460008383610626565b600580546001600160a01b038381166001600160a01b0319831681179093556040519116919082907f8be0079c531659141344cd1fd0a4f28419497f9722a3daafe3b4186f6b6457e090600090a35050565b6001600160a01b03841661057b5760405163e602df0560e01b815260006004820152602401610397565b6001600160a01b0383166105a557604051634a1406b160e11b815260006004820152602401610397565b6001600160a01b038085166000908152600160209081526040808320938716835292905220829055801561043757826001600160a01b0316846001600160a01b03167f8c5be1e5ebec7d5bd14f71427d1e84f3dd0314c0f7b2291e5b200ac8c7c3b9258460405161061891815260200190565b60405180910390a350505050565b610631838383610696565b6001600160a01b0383166103b9576002547f0000000000000000000000000000000000000000000000000000000000000000908181111561068f5760405163279e7e1560e21b81526004810182905260248101839052604401610397565b5050505050565b6001600160a01b0383166106c15780600260008282546106b69190610920565b909155506107339050565b6001600160a01b038316600090815260208190526040902054818110156107145760405163391434e360e21b81526001600160a01b03851660048201526024810182905260448101839052606401610397565b6001600160a01b03841660009081526020819052604090209082900390555b6001600160a01b03821661074f5760028054829003905561076e565b6001600160a01b03821660009081526020819052604090208054820190555b816001600160a01b0316836001600160a01b03167fddf252ad1be2c89b69c2b068fc378daa952ba7f163c4a11628f55a4df523b3ef836040516107b391815260200190565b60405180910390a3505050565b60006020808352835180602085015260005b818110156107ee578581018301518582016040015282016107d2565b506000604082860101526040601f19601f8301168501019250505092915050565b80356001600160a01b038116811461082657600080fd5b919050565b6000806040838503121561083e57600080fd5b6108478361080f565b946020939093013593505050565b60008060006060848603121561086a57600080fd5b6108738461080f565b92506108816020850161080f565b9150604084013590509250925092565b6000602082840312156108a357600080fd5b6108ac8261080f565b9392505050565b600080604083850312156108c657600080fd5b6108cf8361080f565b91506108dd6020840161080f565b90509250929050565b600181811c908216806108fa57607f821691505b60208210810361091a57634e487b7160e01b600052602260045260246000fd5b50919050565b808201808211156102f857634e487b7160e01b600052601160045260246000fdfea264697066735822122066cf0280df3a4d153ed383c46e44a13dfbd21a9f70fe0f10aef197d04fd6fde964736f6c63430008180033",
  "linkReferences": {},
  "deployedLinkReferences": {}
}