{
  "_format": "hh-sol-artifact-1",
  "contractName": "KILLGame",
  "sourceName": "contracts/KillGame.sol",
  "abi": [
    {
      "inputs": [
        {
          "internalType": "address",
          "name": "_tokenAddress",
          "type": "address"
        }
      ],
      "stateMutability": "nonpayable",
      "type": "constructor"
    },
    {
      "inputs": [
        {
          "internalType": "address",
          "name": "sender",
          "type": "address"
        },
        {
          "internalType": "uint256",
          "name": "balance",
          "type": "uint256"
        },
        {
          "internalType": "uint256",
          "name": "needed",
          "type": "uint256"
        },
        {
          "internalType": "uint256",
          "name": "tokenId",
          "type": "uint256"
        }
      ],
      "name": "ERC1155InsufficientBalance",
      "type": "error"
    },
    {
      "inputs": [
        {
          "internalType": "address",
          "name": "approver",
          "type": "address"
        }
      ],
      "name": "ERC1155InvalidApprover",
      "type": "error"
    },
    {
      "inputs": [
        {
          "internalType": "uint256",
          "name": "idsLength",
          "type": "uint256"
        },
        {
          "internalType": "uint256",
          "name": "valuesLength",
          "type": "uint256"
        }
      ],
      "name": "ERC1155InvalidArrayLength",
      "type": "error"
    },
    {
      "inputs": [
        {
          "internalType": "address",
          "name": "operator",
          "type": "address"
        }
      ],
      "name": "ERC1155InvalidOperator",
      "type": "error"
    },
    {
      "inputs": [
        {
          "internalType": "address",
          "name": "receiver",
          "type": "address"
        }
      ],
      "name": "ERC1155InvalidReceiver",
      "type": "error"
    },
    {
      "inputs": [
        {
          "internalType": "address",
          "name": "sender",
          "type": "address"
        }
      ],
      "name": "ERC1155InvalidSender",
      "type": "error"
    },
    {
      "inputs": [
        {
          "internalType": "address",
          "name": "operator",
          "type": "address"
        },
        {
          "internalType": "address",
          "name": "owner",
          "type": "address"
        }
      ],
      "name": "ERC1155MissingApprovalForAll",
      "type": "error"
    },
    {
      "inputs": [
        {
          "internalType": "address",
          "name": "owner",
          "type": "address"
        }
      ],
      "name": "OwnableInvalidOwner",
      "type": "error"
    },
    {
      "inputs": [
        {
          "internalType": "address",
          "name": "account",
          "type": "address"
        }
      ],
      "name": "OwnableUnauthorizedAccount",
      "type": "error"
    },
    {
      "inputs": [],
      "name": "ReentrancyGuardReentrantCall",
      "type": "error"
    },
    {
      "anonymous": false,
      "inputs": [
        {
          "indexed": true,
          "internalType": "address",
          "name": "account",
          "type": "address"
        },
        {
          "indexed": true,
          "internalType": "address",
          "name": "operator",
          "type": "address"
        },
        {
          "indexed": false,
          "internalType": "bool",
          "name": "approved",
          "type": "bool"
        }
      ],
      "name": "ApprovalForAll",
      "type": "event"
    },
    {
      "anonymous": false,
      "inputs": [
        {
          "indexed": false,
          "internalType": "uint256",
          "name": "totalUnitsKilled",
          "type": "uint256"
        },
        {
          "indexed": false,
          "internalType": "uint256",
          "name": "totalReaperKilled",
          "type": "uint256"
        },
        {
          "indexed": false,
          "internalType": "uint256",
          "name": "killAdded",
          "type": "uint256"
        },
        {
          "indexed": false,
          "internalType": "uint256",
          "name": "killExtracted",
          "type": "uint256"
        },
        {
          "indexed": false,
          "internalType": "uint256",
          "name": "killBurned",
          "type": "uint256"
        }
      ],
      "name": "GlobalStats",
      "type": "event"
    },
    {
      "anonymous": false,
      "inputs": [
        {
          "indexed": true,
          "internalType": "address",
          "name": "attacker",
          "type": "address"
        },
        {
          "indexed": true,
          "internalType": "address",
          "name": "target",
          "type": "address"
        },
        {
          "indexed": true,
          "internalType": "uint16",
          "name": "stackId",
          "type": "uint16"
        },
        {
          "indexed": false,
          "internalType": "uint256",
          "name": "attackerUnitsLost",
          "type": "uint256"
        },
        {
          "indexed": false,
          "internalType": "uint256",
          "name": "attackerReaperLost",
          "type": "uint256"
        },
        {
          "indexed": false,
          "internalType": "uint256",
          "name": "targetUnitsLost",
          "type": "uint256"
        },
        {
          "indexed": false,
          "internalType": "uint256",
          "name": "targetReaperLost",
          "type": "uint256"
        },
        {
          "indexed": false,
          "internalType": "uint256",
          "name": "netBounty",
          "type": "uint256"
        },
        {
          "indexed": false,
          "internalType": "uint256",
          "name": "targetBirthBlock",
          "type": "uint256"
        }
      ],
      "name": "Killed",
      "type": "event"
    },
    {
      "anonymous": false,
      "inputs": [
        {
          "indexed": true,
          "internalType": "address",
          "name": "agent",
          "type": "address"
        },
        {
          "indexed": false,
          "internalType": "uint16",
          "name": "fromStack",
          "type": "uint16"
        },
        {
          "indexed": false,
          "internalType": "uint16",
          "name": "toStack",
          "type": "uint16"
        },
        {
          "indexed": false,
          "internalType": "uint256",
          "name": "units",
          "type": "uint256"
        },
        {
          "indexed": false,
          "internalType": "uint256",
          "name": "reaper",
          "type": "uint256"
        },
        {
          "indexed": false,
          "internalType": "uint256",
          "name": "birthBlock",
          "type": "uint256"
        }
      ],
      "name": "Moved",
      "type": "event"
    },
    {
      "anonymous": false,
      "inputs": [
        {
          "indexed": true,
          "internalType": "address",
          "name": "previousOwner",
          "type": "address"
        },
        {
          "indexed": true,
          "internalType": "address",
          "name": "newOwner",
          "type": "address"
        }
      ],
      "name": "OwnershipTransferred",
      "type": "event"
    },
    {
      "anonymous": false,
      "inputs": [
        {
          "indexed": true,
          "internalType": "address",
          "name": "agent",
          "type": "address"
        },
        {
          "indexed": true,
          "internalType": "uint256",
          "name": "stackId",
          "type": "uint256"
        },
        {
          "indexed": false,
          "internalType": "uint256",
          "name": "units",
          "type": "uint256"
        },
        {
          "indexed": false,
          "internalType": "uint256",
          "name": "birthBlock",
          "type": "uint256"
        }
      ],
      "name": "Spawned",
      "type": "event"
    },
    {
      "anonymous": false,
      "inputs": [
        {
          "indexed": true,
          "internalType": "address",
          "name": "operator",
          "type": "address"
        },
        {
          "indexed": true,
          "internalType": "address",
          "name": "from",
          "type": "address"
        },
        {
          "indexed": true,
          "internalType": "address",
          "name": "to",
          "type": "address"
        },
        {
          "indexed": false,
          "internalType": "uint256[]",
          "name": "ids",
          "type": "uint256[]"
        },
        {
          "indexed": false,
          "internalType": "uint256[]",
          "name": "values",
          "type": "uint256[]"
        }
      ],
      "name": "TransferBatch",
      "type": "event"
    },
    {
      "anonymous": false,
      "inputs": [
        {
          "indexed": true,
          "internalType": "address",
          "name": "operator",
          "type": "address"
        },
        {
          "indexed": true,
          "internalType": "address",
          "name": "from",
          "type": "address"
        },
        {
          "indexed": true,
          "internalType": "address",
          "name": "to",
          "type": "address"
        },
        {
          "indexed": false,
          "internalType": "uint256",
          "name": "id",
          "type": "uint256"
        },
        {
          "indexed": false,
          "internalType": "uint256",
          "name": "value",
          "type": "uint256"
        }
      ],
      "name": "TransferSingle",
      "type": "event"
    },
    {
      "anonymous": false,
      "inputs": [
        {
          "indexed": false,
          "internalType": "string",
          "name": "value",
          "type": "string"
        },
        {
          "indexed": true,
          "internalType": "uint256",
          "name": "id",
          "type": "uint256"
        }
      ],
      "name": "URI",
      "type": "event"
    },
    {
      "inputs": [],
      "name": "BURN_BPS",
      "outputs": [
        {
          "internalType": "uint256",
          "name": "",
          "type": "uint256"
        }
      ],
      "stateMutability": "view",
      "type": "function"
    },
    {
      "inputs": [],
      "name": "MOVE_COST",
      "outputs": [
        {
          "internalType": "uint256",
          "name": "",
          "type": "uint256"
        }
      ],
      "stateMutability": "view",
      "type": "function"
    },
    {
      "inputs": [],
      "name": "SPAWN_COST",
      "outputs": [
        {
          "internalType": "uint256",
          "name": "",
          "type": "uint256"
        }
      ],
      "stateMutability": "view",
      "type": "function"
    },
    {
      "inputs": [],
      "name": "TREASURY_BPS",
      "outputs": [
        {
          "internalType": "uint256",
          "name": "",
          "type": "uint256"
        }
      ],
      "stateMutability": "view",
      "type": "function"
    },
    {
      "inputs": [
        {
          "internalType": "uint256",
          "name": "amt",
          "type": "uint256"
        }
      ],
      "name": "adminWithdraw",
      "outputs": [],
      "stateMutability": "nonpayable",
      "type": "function"
    },
    {
      "inputs": [
        {
          "internalType": "address",
          "name": "",
          "type": "address"
        },
        {
          "internalType": "uint256",
          "name": "",
          "type": "uint256"
        }
      ],
      "name": "agentStacks",
      "outputs": [
        {
          "internalType": "uint256",
          "name": "birthBlock",
          "type": "uint256"
        }
      ],
      "stateMutability": "view",
      "type": "function"
    },
    {
      "inputs": [
        {
          "internalType": "address",
          "name": "account",
          "type": "address"
        },
        {
          "internalType": "uint256",
          "name": "id",
          "type": "uint256"
        }
      ],
      "name": "balanceOf",
      "outputs": [
        {
          "internalType": "uint256",
          "name": "",
          "type": "uint256"
        }
      ],
      "stateMutability": "view",
      "type": "function"
    },
    {
      "inputs": [
        {
          "internalType": "address[]",
          "name": "accounts",
          "type": "address[]"
        },
        {
          "internalType": "uint256[]",
          "name": "ids",
          "type": "uint256[]"
        }
      ],
      "name": "balanceOfBatch",
      "outputs": [
        {
          "internalType": "uint256[]",
          "name": "",
          "type": "uint256[]"
        }
      ],
      "stateMutability": "view",
      "type": "function"
    },
    {
      "inputs": [
        {
          "internalType": "address",
          "name": "agent",
          "type": "address"
        },
        {
          "internalType": "uint256",
          "name": "id",
          "type": "uint256"
        }
      ],
      "name": "getBirthBlock",
      "outputs": [
        {
          "internalType": "uint256",
          "name": "",
          "type": "uint256"
        }
      ],
      "stateMutability": "view",
      "type": "function"
    },
    {
      "inputs": [
        {
          "internalType": "uint16",
          "name": "stackId",
          "type": "uint16"
        }
      ],
      "name": "getFullStack",
      "outputs": [
        {
          "components": [
            {
              "internalType": "address",
              "name": "occupant",
              "type": "address"
            },
            {
              "internalType": "uint256",
              "name": "units",
              "type": "uint256"
            },
            {
              "internalType": "uint256",
              "name": "reapers",
              "type": "uint256"
            },
            {
              "internalType": "uint256",
              "name": "age",
              "type": "uint256"
            },
            {
              "internalType": "uint256",
              "name": "pendingBounty",
              "type": "uint256"
            }
          ],
          "internalType": "struct KILLGame.StackInfo[]",
          "name": "",
          "type": "tuple[]"
        }
      ],
      "stateMutability": "view",
      "type": "function"
    },
    {
      "inputs": [
        {
          "internalType": "address",
          "name": "agent",
          "type": "address"
        },
        {
          "internalType": "uint256",
          "name": "id",
          "type": "uint256"
        }
      ],
      "name": "getPendingBounty",
      "outputs": [
        {
          "internalType": "uint256",
          "name": "",
          "type": "uint256"
        }
      ],
      "stateMutability": "view",
      "type": "function"
    },
    {
      "inputs": [
        {
          "internalType": "address",
          "name": "account",
          "type": "address"
        },
        {
          "internalType": "address",
          "name": "operator",
          "type": "address"
        }
      ],
      "name": "isApprovedForAll",
      "outputs": [
        {
          "internalType": "bool",
          "name": "",
          "type": "bool"
        }
      ],
      "stateMutability": "view",
      "type": "function"
    },
    {
      "inputs": [
        {
          "internalType": "address",
          "name": "target",
          "type": "address"
        },
        {
          "internalType": "uint16",
          "name": "stackId",
          "type": "uint16"
        },
        {
          "internalType": "uint256",
          "name": "sentUnits",
          "type": "uint256"
        },
        {
          "internalType": "uint256",
          "name": "sentReaper",
          "type": "uint256"
        }
      ],
      "name": "kill",
      "outputs": [
        {
          "internalType": "uint256",
          "name": "netBounty",
          "type": "uint256"
        }
      ],
      "stateMutability": "nonpayable",
      "type": "function"
    },
    {
      "inputs": [],
      "name": "killToken",
      "outputs": [
        {
          "internalType": "contract IERC20",
          "name": "",
          "type": "address"
        }
      ],
      "stateMutability": "view",
      "type": "function"
    },
    {
      "inputs": [
        {
          "internalType": "uint16",
          "name": "fromStack",
          "type": "uint16"
        },
        {
          "internalType": "uint16",
          "name": "toStack",
          "type": "uint16"
        },
        {
          "internalType": "uint256",
          "name": "units",
          "type": "uint256"
        },
        {
          "internalType": "uint256",
          "name": "reaper",
          "type": "uint256"
        }
      ],
      "name": "move",
      "outputs": [],
      "stateMutability": "nonpayable",
      "type": "function"
    },
    {
      "inputs": [],
      "name": "owner",
      "outputs": [
        {
          "internalType": "address",
          "name": "",
          "type": "address"
        }
      ],
      "stateMutability": "view",
      "type": "function"
    },
    {
      "inputs": [],
      "name": "renounceOwnership",
      "outputs": [],
      "stateMutability": "nonpayable",
      "type": "function"
    },
    {
      "inputs": [
        {
          "internalType": "address",
          "name": "from",
          "type": "address"
        },
        {
          "internalType": "address",
          "name": "to",
          "type": "address"
        },
        {
          "internalType": "uint256[]",
          "name": "ids",
          "type": "uint256[]"
        },
        {
          "internalType": "uint256[]",
          "name": "values",
          "type": "uint256[]"
        },
        {
          "internalType": "bytes",
          "name": "data",
          "type": "bytes"
        }
      ],
      "name": "safeBatchTransferFrom",
      "outputs": [],
      "stateMutability": "nonpayable",
      "type": "function"
    },
    {
      "inputs": [
        {
          "internalType": "address",
          "name": "from",
          "type": "address"
        },
        {
          "internalType": "address",
          "name": "to",
          "type": "address"
        },
        {
          "internalType": "uint256",
          "name": "id",
          "type": "uint256"
        },
        {
          "internalType": "uint256",
          "name": "value",
          "type": "uint256"
        },
        {
          "internalType": "bytes",
          "name": "data",
          "type": "bytes"
        }
      ],
      "name": "safeTransferFrom",
      "outputs": [],
      "stateMutability": "nonpayable",
      "type": "function"
    },
    {
      "inputs": [
        {
          "internalType": "address",
          "name": "operator",
          "type": "address"
        },
        {
          "internalType": "bool",
          "name": "approved",
          "type": "bool"
        }
      ],
      "name": "setApprovalForAll",
      "outputs": [],
      "stateMutability": "nonpayable",
      "type": "function"
    },
    {
      "inputs": [
        {
          "internalType": "uint16",
          "name": "stackId",
          "type": "uint16"
        },
        {
          "internalType": "uint256",
          "name": "amount",
          "type": "uint256"
        }
      ],
      "name": "spawn",
      "outputs": [],
      "stateMutability": "nonpayable",
      "type": "function"
    },
    {
      "inputs": [
        {
          "internalType": "bytes4",
          "name": "id",
          "type": "bytes4"
        }
      ],
      "name": "supportsInterface",
      "outputs": [
        {
          "internalType": "bool",
          "name": "",
          "type": "bool"
        }
      ],
      "stateMutability": "view",
      "type": "function"
    },
    {
      "inputs": [],
      "name": "totalKillBurned",
      "outputs": [
        {
          "internalType": "uint256",
          "name": "",
          "type": "uint256"
        }
      ],
      "stateMutability": "view",
      "type": "function"
    },
    {
      "inputs": [],
      "name": "totalKillExtracted",
      "outputs": [
        {
          "internalType": "uint256",
          "name": "",
          "type": "uint256"
        }
      ],
      "stateMutability": "view",
      "type": "function"
    },
    {
      "inputs": [],
      "name": "totalReaperKilled",
      "outputs": [
        {
          "internalType": "uint256",
          "name": "",
          "type": "uint256"
        }
      ],
      "stateMutability": "view",
      "type": "function"
    },
    {
      "inputs": [],
      "name": "totalUnitsKilled",
      "outputs": [
        {
          "internalType": "uint256",
          "name": "",
          "type": "uint256"
        }
      ],
      "stateMutability": "view",
      "type": "function"
    },
    {
      "inputs": [],
      "name": "totalUnitsMinted",
      "outputs": [
        {
          "internalType": "uint256",
          "name": "",
          "type": "uint256"
        }
      ],
      "stateMutability": "view",
      "type": "function"
    },
    {
      "inputs": [
        {
          "internalType": "address",
          "name": "newOwner",
          "type": "address"
        }
      ],
      "name": "transferOwnership",
      "outputs": [],
      "stateMutability": "nonpayable",
      "type": "function"
    },
    {
      "inputs": [],
      "name": "treasuryBalance",
      "outputs": [
        {
          "internalType": "uint256",
          "name": "",
          "type": "uint256"
        }
      ],
      "stateMutability": "view",
      "type": "function"
    },
    {
      "inputs": [
        {
          "internalType": "uint256",
          "name": "",
          "type": "uint256"
        }
      ],
      "name": "uri",
      "outputs": [
        {
          "internalType": "string",
          "name": "",
          "type": "string"
        }
      ],
      "stateMutability": "view",
      "type": "function"
    }
  ],
  "bytecode": "0x60a06040523480156200001157600080fd5b5060405162002eab38038062002eab833981016040819052620000349162000111565b336040518060600160405280602a815260200162002e81602a91396200005a81620000ad565b5060016003556001600160a01b0381166200008f57604051631e4fbdf760e01b81526000600482015260240160405180910390fd5b6200009a81620000bf565b506001600160a01b0316608052620002b6565b6002620000bb8282620001ea565b5050565b600480546001600160a01b038381166001600160a01b0319831681179093556040519116919082907f8be0079c531659141344cd1fd0a4f28419497f9722a3daafe3b4186f6b6457e090600090a35050565b6000602082840312156200012457600080fd5b81516001600160a01b03811681146200013c57600080fd5b9392505050565b634e487b7160e01b600052604160045260246000fd5b600181811c908216806200016e57607f821691505b6020821081036200018f57634e487b7160e01b600052602260045260246000fd5b50919050565b601f821115620001e5576000816000526020600020601f850160051c81016020861015620001c05750805b601f850160051c820191505b81811015620001e157828155600101620001cc565b5050505b505050565b81516001600160401b0381111562000206576200020662000143565b6200021e8162000217845462000159565b8462000195565b602080601f8311600181146200025657600084156200023d5750858301515b600019600386901b1c1916600185901b178555620001e1565b600085815260208120601f198616915b82811015620002875788860151825594840194600190910190840162000266565b5085821015620002a65787850151600019600388901b60f8161c191681555b5050505050600190811b01905550565b608051612b93620002ee6000396000818161026a015281816105250152818161097301528181610c1001526111290152612b936000f3fe608060405234801561001057600080fd5b50600436106101d95760003560e01c806388b00adc11610104578063c704c3f1116100a2578063edbd5df811610071578063edbd5df8146103e6578063ef0a131114610411578063f242432a14610431578063f2fde38b1461044457600080fd5b8063c704c3f11461034c578063e74fe237146103ad578063e985e9c5146103c0578063ea075ee1146103d357600080fd5b806394456848116100de578063944568481461034c578063a22cb4651461035b578063a37a9fc01461036e578063b80113281461037757600080fd5b806388b00adc1461031f5780638da5cb5b1461032857806391fa2a6a1461033957600080fd5b80632ee8174e1161017c5780635635fdbc1161014b5780635635fdbc146102f2578063715018a6146102fb57806378129882146103035780637c5b4a371461030c57600080fd5b80632ee8174e146102b7578063313dab20146102c05780634c25d197146102c95780634e1273f4146102d257600080fd5b80630a08f3d0116101b85780630a08f3d01461023c5780630e89341c146102455780632bd7cd17146102655780632eb2c2d6146102a457600080fd5b8062fdd58e146101de57806301ffc9a71461020457806309f6182614610227575b600080fd5b6101f16101ec3660046122d7565b610457565b6040519081526020015b60405180910390f35b610217610212366004612317565b61047f565b60405190151581526020016101fb565b61023a610235366004612346565b61048a565b005b6101f160065481565b610258610253366004612362565b610773565b6040516101fb91906123c1565b61028c7f000000000000000000000000000000000000000000000000000000000000000081565b6040516001600160a01b0390911681526020016101fb565b61023a6102b236600461251e565b610807565b6101f160085481565b6101f160055481565b6101f161247681565b6102e56102e03660046125c8565b61086e565b6040516101fb91906126c4565b6101f160095481565b61023a61093b565b6101f160075481565b61023a61031a366004612362565b61094f565b6101f1600a5481565b6004546001600160a01b031661028c565b6101f16103473660046126d7565b6109e8565b6101f1678ac7230489e8000081565b61023a610369366004612727565b611038565b6101f161029a81565b6101f16103853660046122d7565b6001600160a01b03919091166000908152600b60209081526040808320938352929052205490565b61023a6103bb36600461275e565b611043565b6102176103ce36600461277d565b61135b565b6101f16103e13660046122d7565b611389565b6101f16103f43660046122d7565b600b60209081526000928352604080842090915290825290205481565b61042461041f3660046127b0565b61140c565b6040516101fb91906127cb565b61023a61043f366004612842565b611745565b61023a6104523660046128a7565b6117a4565b6000818152602081815260408083206001600160a01b03861684529091529020545b92915050565b6000610479826117e2565b610492611832565b60008261ffff161180156104ab575060d88261ffff1611155b6104ec5760405162461bcd60e51b815260206004820152600d60248201526c496e76616c696420537461636b60981b60448201526064015b60405180910390fd5b6000610500678ac7230489e80000836128d8565b6040516323b872dd60e01b8152336004820152306024820152604481018290529091507f00000000000000000000000000000000000000000000000000000000000000006001600160a01b0316906323b872dd906064016020604051808303816000875af1158015610576573d6000803e3d6000fd5b505050506040513d601f19601f8201168201806040525081019061059a91906128ef565b6105d15760405162461bcd60e51b815260206004820152600860248201526714185e4819985a5b60c21b60448201526064016104e3565b60006127106105e261029a846128d8565b6105ec9190612922565b905060006105fa8284612936565b9050806005600082825461060e9190612949565b9250508190555081600a60008282546106279190612949565b909155505060068054908590600061063f8385612949565b909155506000905061065361029a83612922565b61029a6006546106639190612922565b61066d9190612936565b9050600061067b8288612936565b9050801561069257610692338961ffff168361185c565b81156106b1576106b1336106ab61ffff8b1660d8612949565b8461185c565b6040805188815243602082015261ffff8a169133917f21427a790373fad598033d2f191dd9fc550d58054a7f361c0af4895c351eeaf2910160405180910390a37f6b8aeaa3365d2dfcb9acc94f0a7429b657b4f2008cfafb9b10297011e077c650600754600854678ac7230489e8000060065461072e91906128d8565b600954600a54604080519586526020860194909452928401919091526060830152608082015260a00160405180910390a150505050505061076f6001600355565b5050565b6060600280546107829061295c565b80601f01602080910402602001604051908101604052809291908181526020018280546107ae9061295c565b80156107fb5780601f106107d0576101008083540402835291602001916107fb565b820191906000526020600020905b8154815290600101906020018083116107de57829003601f168201915b50505050509050919050565b336001600160a01b03861681148015906108285750610826868261135b565b155b156108595760405163711bec9160e11b81526001600160a01b038083166004830152871660248201526044016104e3565b6108668686868686611914565b505050505050565b6060815183511461089f5781518351604051635b05999160e01b8152600481019290925260248201526044016104e3565b6000835167ffffffffffffffff8111156108bb576108bb6123d4565b6040519080825280602002602001820160405280156108e4578160200160208202803683370190505b50905060005b84518110156109335760208082028601015161090e90602080840287010151610457565b82828151811061092057610920612996565b60209081029190910101526001016108ea565b509392505050565b61094361197b565b61094d60006119a8565b565b61095761197b565b60405163a9059cbb60e01b8152336004820152602481018290527f00000000000000000000000000000000000000000000000000000000000000006001600160a01b03169063a9059cbb906044016020604051808303816000875af11580156109c4573d6000803e3d6000fd5b505050506040513d601f19601f8201168201806040525081019061076f91906128ef565b60006109f2611832565b61ffff84166000610a048260d8612949565b905084610a113384610457565b10158015610a28575083610a253383610457565b10155b610a615760405162461bcd60e51b815260206004820152600a6024820152694c61636b20756e69747360b01b60448201526064016104e3565b610a8c6040518060800160405280600081526020016000815260200160008152602001600081525090565b6001600160a01b0388166000908152600b6020908152604080832086845290915281205490610abd8761029a6128d8565b610ac79089612949565b9050600080610ad68c88610457565b90506000610ae48d88610457565b90506001600160a01b038d163303610b0f57610b008b83612936565b9150610b0c8a82612936565b90505b6064610b1d8261029a6128d8565b610b279084612949565b610b3290606e6128d8565b610b3c9190612922565b925082600003610b4b57600192505b6040860191909152606085015280821115610d64576000610b6c8c87611389565b610b768d89611389565b610b809190612949565b90506000612710610b9361029a846128d8565b610b9d9190612922565b9050610ba98183612936565b98508160056000828254610bbd9190612936565b9250508190555080600a6000828254610bd69190612949565b925050819055508860096000828254610bef9190612949565b909155505060405163a9059cbb60e01b8152336004820152602481018a90527f00000000000000000000000000000000000000000000000000000000000000006001600160a01b03169063a9059cbb906044016020604051808303816000875af1158015610c61573d6000803e3d6000fd5b505050506040513d601f19601f82011682018060405250810190610c8591906128ef565b610cbf5760405162461bcd60e51b815260206004820152600b60248201526a14185e5bdd5d0819985a5b60aa1b60448201526064016104e3565b6000600d60008a815260200190815260200160002060008f6001600160a01b03166001600160a01b0316815260200190815260200160002060006101000a81548160ff0219169083151502179055506000600d600089815260200190815260200160002060008f6001600160a01b03166001600160a01b0316815260200190815260200160002060006101000a81548160ff0219169083151502179055505050610e8b565b8884526020840188905260408401516060850151610d8283806128d8565b610d8c85806128d8565b610d9690846128d8565b610da09190612922565b6040870152610daf83806128d8565b610db985806128d8565b610dc390836128d8565b610dcd9190612922565b606087015260408601518203610e2d576000600d60008a815260200190815260200160002060008f6001600160a01b03166001600160a01b0316815260200190815260200160002060006101000a81548160ff0219169083151502179055505b85606001518103610e88576000600d600089815260200190815260200160002060008f6001600160a01b03166001600160a01b0316815260200190815260200160002060006101000a81548160ff0219169083151502179055505b50505b60408401518451610e9c9190612949565b60076000828254610ead9190612949565b909155505060608401516020850151610ec69190612949565b60086000828254610ed79190612949565b9091555050604084015115610ef557610ef58b8786604001516119fa565b606084015115610f0e57610f0e8b8686606001516119fa565b835115610f2457610f24338786600001516119fa565b602084015115610f3d57610f3d338686602001516119fa565b83516020808601516040808801516060808a0151835196875294860193909352908401528201526080810188905260a0810184905261ffff8b16906001600160a01b038d169033907fe8cf87740e16519b389a47fd487b7c8330c651cf9af2e1a698676cb488a8cd4e9060c00160405180910390a47f6b8aeaa3365d2dfcb9acc94f0a7429b657b4f2008cfafb9b10297011e077c650600754600854678ac7230489e80000600654610fef91906128d8565b600954600a54604080519586526020860194909452928401919091526060830152608082015260a00160405180910390a15050505050506110306001600355565b949350505050565b61076f338383611a62565b61104b611832565b60008461ffff16118015611064575060d88461ffff1611155b61109f5760405162461bcd60e51b815260206004820152600c60248201526b496e76616c69642046726f6d60a01b60448201526064016104e3565b60008361ffff161180156110b8575060d88361ffff1611155b80156110c957506110c98484611af8565b6111005760405162461bcd60e51b8152602060048201526008602482015267426164206d6f766560c01b60448201526064016104e3565b6040516323b872dd60e01b8152336004820152306024820152678ac7230489e8000060448201527f00000000000000000000000000000000000000000000000000000000000000006001600160a01b0316906323b872dd906064016020604051808303816000875af115801561117a573d6000803e3d6000fd5b505050506040513d601f19601f8201168201806040525081019061119e91906128ef565b6111d55760405162461bcd60e51b815260206004820152600860248201526714185e4819985a5b60c21b60448201526064016104e3565b60006127106111ee61029a678ac7230489e800006128d8565b6111f89190612922565b9050600061120e82678ac7230489e80000612936565b905080600560008282546112229190612949565b9250508190555081600a600082825461123b9190612949565b90915550508315611259576112598661ffff168661ffff1686611c24565b82156112865761128661127161ffff881660d8612949565b61128061ffff881660d8612949565b85611c24565b6040805161ffff8089168252871660208201529081018590526060810184905243608082015233907f377dc7145bd8ab426842504b448652c41dda00abb7f7c1df6bdfa40bd2a16f2c9060a00160405180910390a27f6b8aeaa3365d2dfcb9acc94f0a7429b657b4f2008cfafb9b10297011e077c650600754600854678ac7230489e8000060065461131891906128d8565b600954600a54604080519586526020860194909452928401919091526060830152608082015260a00160405180910390a150506113556001600355565b50505050565b6001600160a01b03918216600090815260016020908152604080832093909416825291909152205460ff1690565b6001600160a01b0382166000908152600b6020908152604080832084845290915281205481036113bb57506000610479565b6001600160a01b0383166000908152600b60209081526040808320858452909152902054620f4240906113ee9043612936565b6005546113fb91906128d8565b6114059190612922565b9392505050565b606061ffff821660006114208260d8612949565b6000838152600c602090815260408083208054825181850281018501909352808352949550929390929183018282801561148357602002820191906000526020600020905b81546001600160a01b03168152600190910190602001808311611465575b505050505090506000805b825181101561155557600d600086815260200190815260200160002060008483815181106114be576114be612996565b6020908102919091018101516001600160a01b031682528101919091526040016000205460ff168061153a5750600d6000858152602001908152602001600020600084838151811061151257611512612996565b6020908102919091018101516001600160a01b031682528101919091526040016000205460ff165b1561154d5781611549816129ac565b9250505b60010161148e565b5060008167ffffffffffffffff811115611571576115716123d4565b6040519080825280602002602001820160405280156115dd57816020015b6115ca6040518060a0016040528060006001600160a01b03168152602001600081526020016000815260200160008152602001600081525090565b81526020019060019003908161158f5790505b5090506000805b845181101561173857600085828151811061160157611601612996565b60209081029190910181015160008a8152600d835260408082206001600160a01b0384168352909352919091205490915060ff168061166257506000878152600d602090815260408083206001600160a01b038516845290915290205460ff165b1561172f576000611673828a610457565b90506000611681838a610457565b6001600160a01b0384166000818152600b602090815260408083208f845282529182902054825160a08101845293845290830186905290820183905291925060608101826116d05760006116da565b6116da8343612936565b81526020016116e9868d611389565b6116f3878f611389565b6116fd9190612949565b81525087878151811061171257611712612996565b60200260200101819052508580611728906129ac565b9650505050505b506001016115e4565b5090979650505050505050565b336001600160a01b03861681148015906117665750611764868261135b565b155b156117975760405163711bec9160e11b81526001600160a01b038083166004830152871660248201526044016104e3565b6108668686868686611d60565b6117ac61197b565b6001600160a01b0381166117d657604051631e4fbdf760e01b8152600060048201526024016104e3565b6117df816119a8565b50565b60006001600160e01b03198216636cdb3d1360e11b148061181357506001600160e01b031982166303a24d0760e21b145b8061047957506301ffc9a760e01b6001600160e01b0319831614610479565b60026003540361185557604051633ee5aeb560e01b815260040160405180910390fd5b6002600355565b61187783838360405180602001604052806000815250611dee565b6001600160a01b0383166000818152600b602090815260408083208684528252808320439055600d8252808320938352929052205460ff1661190f576000828152600c602090815260408083208054600180820183559185528385200180546001600160a01b0319166001600160a01b038916908117909155868552600d8452828520908552909252909120805460ff191690911790555b505050565b6001600160a01b03841661193e57604051632bfa23e760e11b8152600060048201526024016104e3565b6001600160a01b03851661196757604051626a0d4560e21b8152600060048201526024016104e3565b6119748585858585611e47565b5050505050565b6004546001600160a01b0316331461094d5760405163118cdaa760e01b81523360048201526024016104e3565b600480546001600160a01b038381166001600160a01b0319831681179093556040519116919082907f8be0079c531659141344cd1fd0a4f28419497f9722a3daafe3b4186f6b6457e090600090a35050565b6001600160a01b038316611a2357604051626a0d4560e21b8152600060048201526024016104e3565b604080516001808252602082018590528183019081526060820184905260a0820190925260006080820181815291929161197491879185908590611e47565b6001600160a01b038216611a8b5760405162ced3e160e81b8152600060048201526024016104e3565b6001600160a01b03838116600081815260016020908152604080832094871680845294825291829020805460ff191686151590811790915591519182527f17307eab39ab6107e8899845ad3d59bd9653f200f220920489ca2b5937696c31910160405180910390a3505050565b600080611b066001856129c5565b90506000611b156001856129c5565b90506000611b246006846129e7565b905060006006611b348186612a08565b611b3e91906129e7565b90506000611b4d602486612a08565b90506000611b5c6006866129e7565b905060006006611b6c8188612a08565b611b7691906129e7565b90506000611b85602488612a08565b90508060010b8460010b13611ba357611b9e8482612a29565b611bad565b611bad8185612a29565b8260010b8660010b13611bc957611bc48684612a29565b611bd3565b611bd38387612a29565b8460010b8860010b13611bef57611bea8886612a29565b611bf9565b611bf98589612a29565b611c039190612a4c565b611c0d9190612a4c565b61ffff166001149850505050505050505092915050565b80611c2f3385610457565b1015611c725760405162461bcd60e51b8152602060048201526012602482015271496e73756666696369656e7420756e69747360701b60448201526064016104e3565b611c7d3384836119fa565b611c9833838360405180602001604052806000815250611dee565b336000818152600b602090815260408083208684529091529020439055611cbf9084610457565b600003611ce8576000838152600d602090815260408083203384529091529020805460ff191690555b6000828152600d6020908152604080832033845290915290205460ff1661190f576000828152600c602090815260408083208054600181810183559185528385200180546001600160a01b03191633908117909155868552600d8452828520908552909252909120805460ff19169091179055505050565b6001600160a01b038416611d8a57604051632bfa23e760e11b8152600060048201526024016104e3565b6001600160a01b038516611db357604051626a0d4560e21b8152600060048201526024016104e3565b60408051600180825260208201869052818301908152606082018590526080820190925290611de58787848487611e47565b50505050505050565b6001600160a01b038416611e1857604051632bfa23e760e11b8152600060048201526024016104e3565b604080516001808252602082018690528183019081526060820185905260808201909252906108666000878484875b611e5385858585611e9a565b6001600160a01b038416156119745782513390600103611e8c5760208481015190840151611e858389898585896120ae565b5050610866565b6108668187878787876121d2565b8051825114611ec95781518151604051635b05999160e01b8152600481019290925260248201526044016104e3565b3360005b8351811015611fcf576020818102858101820151908501909101516001600160a01b03881615611f80576000828152602081815260408083206001600160a01b038c16845290915290205481811015611f59576040516303dee4c560e01b81526001600160a01b038a1660048201526024810182905260448101839052606481018490526084016104e3565b6000838152602081815260408083206001600160a01b038d16845290915290209082900390555b6001600160a01b03871615611fc5576000828152602081815260408083206001600160a01b038b16845290915281208054839290611fbf908490612949565b90915550505b5050600101611ecd565b5082516001036120505760208301516000906020840151909150856001600160a01b0316876001600160a01b0316846001600160a01b03167fc3d58168c5ae7397731d063d5bbf3d657854427343f4c083240f7aacaa2d0f628585604051612041929190918252602082015260400190565b60405180910390a45050611974565b836001600160a01b0316856001600160a01b0316826001600160a01b03167f4a39dc06d4c0dbc64b70af90fd698a233a518aa5d07e595d983b8c0526c8f7fb868660405161209f929190612a6f565b60405180910390a45050505050565b6001600160a01b0384163b156108665760405163f23a6e6160e01b81526001600160a01b0385169063f23a6e61906120f29089908990889088908890600401612a9d565b6020604051808303816000875af192505050801561212d575060408051601f3d908101601f1916820190925261212a91810190612ae2565b60015b612196573d80801561215b576040519150601f19603f3d011682016040523d82523d6000602084013e612160565b606091505b50805160000361218e57604051632bfa23e760e11b81526001600160a01b03861660048201526024016104e3565b805160208201fd5b6001600160e01b0319811663f23a6e6160e01b14611de557604051632bfa23e760e11b81526001600160a01b03861660048201526024016104e3565b6001600160a01b0384163b156108665760405163bc197c8160e01b81526001600160a01b0385169063bc197c81906122169089908990889088908890600401612aff565b6020604051808303816000875af1925050508015612251575060408051601f3d908101601f1916820190925261224e91810190612ae2565b60015b61227f573d80801561215b576040519150601f19603f3d011682016040523d82523d6000602084013e612160565b6001600160e01b0319811663bc197c8160e01b14611de557604051632bfa23e760e11b81526001600160a01b03861660048201526024016104e3565b80356001600160a01b03811681146122d257600080fd5b919050565b600080604083850312156122ea57600080fd5b6122f3836122bb565b946020939093013593505050565b6001600160e01b0319811681146117df57600080fd5b60006020828403121561232957600080fd5b813561140581612301565b803561ffff811681146122d257600080fd5b6000806040838503121561235957600080fd5b6122f383612334565b60006020828403121561237457600080fd5b5035919050565b6000815180845260005b818110156123a157602081850181015186830182015201612385565b506000602082860101526020601f19601f83011685010191505092915050565b602081526000611405602083018461237b565b634e487b7160e01b600052604160045260246000fd5b604051601f8201601f1916810167ffffffffffffffff81118282101715612413576124136123d4565b604052919050565b600067ffffffffffffffff821115612435576124356123d4565b5060051b60200190565b600082601f83011261245057600080fd5b813560206124656124608361241b565b6123ea565b8083825260208201915060208460051b87010193508684111561248757600080fd5b602086015b848110156124a3578035835291830191830161248c565b509695505050505050565b600082601f8301126124bf57600080fd5b813567ffffffffffffffff8111156124d9576124d96123d4565b6124ec601f8201601f19166020016123ea565b81815284602083860101111561250157600080fd5b816020850160208301376000918101602001919091529392505050565b600080600080600060a0868803121561253657600080fd5b61253f866122bb565b945061254d602087016122bb565b9350604086013567ffffffffffffffff8082111561256a57600080fd5b61257689838a0161243f565b9450606088013591508082111561258c57600080fd5b61259889838a0161243f565b935060808801359150808211156125ae57600080fd5b506125bb888289016124ae565b9150509295509295909350565b600080604083850312156125db57600080fd5b823567ffffffffffffffff808211156125f357600080fd5b818501915085601f83011261260757600080fd5b813560206126176124608361241b565b82815260059290921b8401810191818101908984111561263657600080fd5b948201945b8386101561265b5761264c866122bb565b8252948201949082019061263b565b9650508601359250508082111561267157600080fd5b5061267e8582860161243f565b9150509250929050565b60008151808452602080850194506020840160005b838110156126b95781518752958201959082019060010161269d565b509495945050505050565b6020815260006114056020830184612688565b600080600080608085870312156126ed57600080fd5b6126f6856122bb565b935061270460208601612334565b93969395505050506040820135916060013590565b80151581146117df57600080fd5b6000806040838503121561273a57600080fd5b612743836122bb565b9150602083013561275381612719565b809150509250929050565b6000806000806080858703121561277457600080fd5b6126f685612334565b6000806040838503121561279057600080fd5b612799836122bb565b91506127a7602084016122bb565b90509250929050565b6000602082840312156127c257600080fd5b61140582612334565b602080825282518282018190526000919060409081850190868401855b8281101561283557815180516001600160a01b0316855286810151878601528581015186860152606080820151908601526080908101519085015260a090930192908501906001016127e8565b5091979650505050505050565b600080600080600060a0868803121561285a57600080fd5b612863866122bb565b9450612871602087016122bb565b93506040860135925060608601359150608086013567ffffffffffffffff81111561289b57600080fd5b6125bb888289016124ae565b6000602082840312156128b957600080fd5b611405826122bb565b634e487b7160e01b600052601160045260246000fd5b8082028115828204841417610479576104796128c2565b60006020828403121561290157600080fd5b815161140581612719565b634e487b7160e01b600052601260045260246000fd5b6000826129315761293161290c565b500490565b81810381811115610479576104796128c2565b80820180821115610479576104796128c2565b600181811c9082168061297057607f821691505b60208210810361299057634e487b7160e01b600052602260045260246000fd5b50919050565b634e487b7160e01b600052603260045260246000fd5b6000600182016129be576129be6128c2565b5060010190565b61ffff8281168282160390808211156129e0576129e06128c2565b5092915050565b600061ffff808416806129fc576129fc61290c565b92169190910692915050565b600061ffff80841680612a1d57612a1d61290c565b92169190910492915050565b600182810b9082900b03617fff198112617fff82131715610479576104796128c2565b600181810b9083900b01617fff8113617fff1982121715610479576104796128c2565b604081526000612a826040830185612688565b8281036020840152612a948185612688565b95945050505050565b6001600160a01b03868116825285166020820152604081018490526060810183905260a060808201819052600090612ad79083018461237b565b979650505050505050565b600060208284031215612af457600080fd5b815161140581612301565b6001600160a01b0386811682528516602082015260a060408201819052600090612b2b90830186612688565b8281036060840152612b3d8186612688565b90508281036080840152612b51818561237b565b9897505050505050505056fea2646970667358221220cbac41b3bb1d6df83d2a5964523e9369a36f092bf3fe956576763af7f4e2623d64736f6c6343000818003368747470733a2f2f6170692e6b696c6c67616d652e61692f6d657461646174612f7b69647d2e6a736f6e",
  "linkReferences": {},
  "deployedLinkReferences": {}
}