{
  "_format": "hh-sol-artifact-1",
  "contractName": "KILLGame",
  "sourceName": "contracts/KillGame.sol",
  "abi": [
    {
      "inputs": [
        {
          "internalType": "address",
          "name": "_tokenAddress",
          "type": "address"
        },
        {
          "internalType": "address",
          "name": "initialOwner",
          "type": "address"
        }
      ],
      "stateMutability": "nonpayable",
      "type": "constructor"
    },
    {
      "inputs": [
        {
          "internalType": "address",
          "name": "sender",
          "type": "address"
        },
        {
          "internalType": "uint256",
          "name": "balance",
          "type": "uint256"
        },
        {
          "internalType": "uint256",
          "name": "needed",
          "type": "uint256"
        },
        {
          "internalType": "uint256",
          "name": "tokenId",
          "type": "uint256"
        }
      ],
      "name": "ERC1155InsufficientBalance",
      "type": "error"
    },
    {
      "inputs": [
        {
          "internalType": "address",
          "name": "approver",
          "type": "address"
        }
      ],
      "name": "ERC1155InvalidApprover",
      "type": "error"
    },
    {
      "inputs": [
        {
          "internalType": "uint256",
          "name": "idsLength",
          "type": "uint256"
        },
        {
          "internalType": "uint256",
          "name": "valuesLength",
          "type": "uint256"
        }
      ],
      "name": "ERC1155InvalidArrayLength",
      "type": "error"
    },
    {
      "inputs": [
        {
          "internalType": "address",
          "name": "operator",
          "type": "address"
        }
      ],
      "name": "ERC1155InvalidOperator",
      "type": "error"
    },
    {
      "inputs": [
        {
          "internalType": "address",
          "name": "receiver",
          "type": "address"
        }
      ],
      "name": "ERC1155InvalidReceiver",
      "type": "error"
    },
    {
      "inputs": [
        {
          "internalType": "address",
          "name": "sender",
          "type": "address"
        }
      ],
      "name": "ERC1155InvalidSender",
      "type": "error"
    },
    {
      "inputs": [
        {
          "internalType": "address",
          "name": "operator",
          "type": "address"
        },
        {
          "internalType": "address",
          "name": "owner",
          "type": "address"
        }
      ],
      "name": "ERC1155MissingApprovalForAll",
      "type": "error"
    },
    {
      "inputs": [
        {
          "internalType": "address",
          "name": "owner",
          "type": "address"
        }
      ],
      "name": "OwnableInvalidOwner",
      "type": "error"
    },
    {
      "inputs": [
        {
          "internalType": "address",
          "name": "account",
          "type": "address"
        }
      ],
      "name": "OwnableUnauthorizedAccount",
      "type": "error"
    },
    {
      "inputs": [],
      "name": "ReentrancyGuardReentrantCall",
      "type": "error"
    },
    {
      "anonymous": false,
      "inputs": [
        {
          "indexed": true,
          "internalType": "address",
          "name": "account",
          "type": "address"
        },
        {
          "indexed": true,
          "internalType": "address",
          "name": "operator",
          "type": "address"
        },
        {
          "indexed": false,
          "internalType": "bool",
          "name": "approved",
          "type": "bool"
        }
      ],
      "name": "ApprovalForAll",
      "type": "event"
    },
    {
      "anonymous": false,
      "inputs": [
        {
          "indexed": true,
          "internalType": "address",
          "name": "attacker",
          "type": "address"
        },
        {
          "indexed": true,
          "internalType": "address",
          "name": "target",
          "type": "address"
        },
        {
          "indexed": false,
          "internalType": "uint256",
          "name": "tokenId",
          "type": "uint256"
        },
        {
          "indexed": false,
          "internalType": "uint256",
          "name": "unitsKilled",
          "type": "uint256"
        },
        {
          "indexed": false,
          "internalType": "uint256",
          "name": "bountyPaid",
          "type": "uint256"
        }
      ],
      "name": "Killed",
      "type": "event"
    },
    {
      "anonymous": false,
      "inputs": [
        {
          "indexed": true,
          "internalType": "address",
          "name": "agent",
          "type": "address"
        },
        {
          "indexed": false,
          "internalType": "uint256",
          "name": "fromTokenId",
          "type": "uint256"
        },
        {
          "indexed": false,
          "internalType": "uint256",
          "name": "toTokenId",
          "type": "uint256"
        },
        {
          "indexed": false,
          "internalType": "uint256",
          "name": "units",
          "type": "uint256"
        }
      ],
      "name": "Moved",
      "type": "event"
    },
    {
      "anonymous": false,
      "inputs": [
        {
          "indexed": true,
          "internalType": "address",
          "name": "previousOwner",
          "type": "address"
        },
        {
          "indexed": true,
          "internalType": "address",
          "name": "newOwner",
          "type": "address"
        }
      ],
      "name": "OwnershipTransferred",
      "type": "event"
    },
    {
      "anonymous": false,
      "inputs": [
        {
          "indexed": true,
          "internalType": "address",
          "name": "agent",
          "type": "address"
        },
        {
          "indexed": true,
          "internalType": "uint256",
          "name": "tokenId",
          "type": "uint256"
        },
        {
          "indexed": false,
          "internalType": "uint256",
          "name": "units",
          "type": "uint256"
        }
      ],
      "name": "Spawned",
      "type": "event"
    },
    {
      "anonymous": false,
      "inputs": [
        {
          "indexed": true,
          "internalType": "address",
          "name": "operator",
          "type": "address"
        },
        {
          "indexed": true,
          "internalType": "address",
          "name": "from",
          "type": "address"
        },
        {
          "indexed": true,
          "internalType": "address",
          "name": "to",
          "type": "address"
        },
        {
          "indexed": false,
          "internalType": "uint256[]",
          "name": "ids",
          "type": "uint256[]"
        },
        {
          "indexed": false,
          "internalType": "uint256[]",
          "name": "values",
          "type": "uint256[]"
        }
      ],
      "name": "TransferBatch",
      "type": "event"
    },
    {
      "anonymous": false,
      "inputs": [
        {
          "indexed": true,
          "internalType": "address",
          "name": "operator",
          "type": "address"
        },
        {
          "indexed": true,
          "internalType": "address",
          "name": "from",
          "type": "address"
        },
        {
          "indexed": true,
          "internalType": "address",
          "name": "to",
          "type": "address"
        },
        {
          "indexed": false,
          "internalType": "uint256",
          "name": "id",
          "type": "uint256"
        },
        {
          "indexed": false,
          "internalType": "uint256",
          "name": "value",
          "type": "uint256"
        }
      ],
      "name": "TransferSingle",
      "type": "event"
    },
    {
      "anonymous": false,
      "inputs": [
        {
          "indexed": false,
          "internalType": "string",
          "name": "value",
          "type": "string"
        },
        {
          "indexed": true,
          "internalType": "uint256",
          "name": "id",
          "type": "uint256"
        }
      ],
      "name": "URI",
      "type": "event"
    },
    {
      "inputs": [],
      "name": "BOOST_RECOIL",
      "outputs": [
        {
          "internalType": "uint256",
          "name": "",
          "type": "uint256"
        }
      ],
      "stateMutability": "view",
      "type": "function"
    },
    {
      "inputs": [],
      "name": "BOOST_REQUIRED",
      "outputs": [
        {
          "internalType": "uint256",
          "name": "",
          "type": "uint256"
        }
      ],
      "stateMutability": "view",
      "type": "function"
    },
    {
      "inputs": [],
      "name": "BURN_BPS",
      "outputs": [
        {
          "internalType": "uint256",
          "name": "",
          "type": "uint256"
        }
      ],
      "stateMutability": "view",
      "type": "function"
    },
    {
      "inputs": [],
      "name": "SPAWN_COST",
      "outputs": [
        {
          "internalType": "uint256",
          "name": "",
          "type": "uint256"
        }
      ],
      "stateMutability": "view",
      "type": "function"
    },
    {
      "inputs": [],
      "name": "TREASURY_BPS",
      "outputs": [
        {
          "internalType": "uint256",
          "name": "",
          "type": "uint256"
        }
      ],
      "stateMutability": "view",
      "type": "function"
    },
    {
      "inputs": [
        {
          "internalType": "uint256",
          "name": "amount",
          "type": "uint256"
        }
      ],
      "name": "adminWithdraw",
      "outputs": [],
      "stateMutability": "nonpayable",
      "type": "function"
    },
    {
      "inputs": [
        {
          "internalType": "address",
          "name": "",
          "type": "address"
        },
        {
          "internalType": "uint256",
          "name": "",
          "type": "uint256"
        }
      ],
      "name": "agentStacks",
      "outputs": [
        {
          "internalType": "uint256",
          "name": "birthBlock",
          "type": "uint256"
        }
      ],
      "stateMutability": "view",
      "type": "function"
    },
    {
      "inputs": [
        {
          "internalType": "address",
          "name": "account",
          "type": "address"
        },
        {
          "internalType": "uint256",
          "name": "id",
          "type": "uint256"
        }
      ],
      "name": "balanceOf",
      "outputs": [
        {
          "internalType": "uint256",
          "name": "",
          "type": "uint256"
        }
      ],
      "stateMutability": "view",
      "type": "function"
    },
    {
      "inputs": [
        {
          "internalType": "address[]",
          "name": "accounts",
          "type": "address[]"
        },
        {
          "internalType": "uint256[]",
          "name": "ids",
          "type": "uint256[]"
        }
      ],
      "name": "balanceOfBatch",
      "outputs": [
        {
          "internalType": "uint256[]",
          "name": "",
          "type": "uint256[]"
        }
      ],
      "stateMutability": "view",
      "type": "function"
    },
    {
      "inputs": [
        {
          "internalType": "address",
          "name": "agent",
          "type": "address"
        },
        {
          "internalType": "uint256",
          "name": "tokenId",
          "type": "uint256"
        }
      ],
      "name": "getPendingBounty",
      "outputs": [
        {
          "internalType": "uint256",
          "name": "",
          "type": "uint256"
        }
      ],
      "stateMutability": "view",
      "type": "function"
    },
    {
      "inputs": [
        {
          "internalType": "uint16",
          "name": "cube",
          "type": "uint16"
        },
        {
          "internalType": "bool",
          "name": "boosted",
          "type": "bool"
        }
      ],
      "name": "getRipeStacks",
      "outputs": [
        {
          "internalType": "address[]",
          "name": "agents",
          "type": "address[]"
        },
        {
          "internalType": "uint256[]",
          "name": "ages",
          "type": "uint256[]"
        }
      ],
      "stateMutability": "view",
      "type": "function"
    },
    {
      "inputs": [
        {
          "internalType": "address",
          "name": "account",
          "type": "address"
        },
        {
          "internalType": "address",
          "name": "operator",
          "type": "address"
        }
      ],
      "name": "isApprovedForAll",
      "outputs": [
        {
          "internalType": "bool",
          "name": "",
          "type": "bool"
        }
      ],
      "stateMutability": "view",
      "type": "function"
    },
    {
      "inputs": [
        {
          "internalType": "address",
          "name": "target",
          "type": "address"
        },
        {
          "internalType": "uint16",
          "name": "cube",
          "type": "uint16"
        },
        {
          "internalType": "uint256",
          "name": "amountToKill",
          "type": "uint256"
        },
        {
          "internalType": "bool",
          "name": "boosted",
          "type": "bool"
        }
      ],
      "name": "kill",
      "outputs": [
        {
          "internalType": "uint256",
          "name": "netBounty",
          "type": "uint256"
        }
      ],
      "stateMutability": "nonpayable",
      "type": "function"
    },
    {
      "inputs": [],
      "name": "killToken",
      "outputs": [
        {
          "internalType": "contract IERC20",
          "name": "",
          "type": "address"
        }
      ],
      "stateMutability": "view",
      "type": "function"
    },
    {
      "inputs": [
        {
          "internalType": "uint16",
          "name": "fromCube",
          "type": "uint16"
        },
        {
          "internalType": "uint16",
          "name": "toCube",
          "type": "uint16"
        },
        {
          "internalType": "uint256",
          "name": "units",
          "type": "uint256"
        },
        {
          "internalType": "bool",
          "name": "boosted",
          "type": "bool"
        }
      ],
      "name": "move",
      "outputs": [],
      "stateMutability": "nonpayable",
      "type": "function"
    },
    {
      "inputs": [],
      "name": "owner",
      "outputs": [
        {
          "internalType": "address",
          "name": "",
          "type": "address"
        }
      ],
      "stateMutability": "view",
      "type": "function"
    },
    {
      "inputs": [],
      "name": "renounceOwnership",
      "outputs": [],
      "stateMutability": "nonpayable",
      "type": "function"
    },
    {
      "inputs": [
        {
          "internalType": "address",
          "name": "from",
          "type": "address"
        },
        {
          "internalType": "address",
          "name": "to",
          "type": "address"
        },
        {
          "internalType": "uint256[]",
          "name": "ids",
          "type": "uint256[]"
        },
        {
          "internalType": "uint256[]",
          "name": "values",
          "type": "uint256[]"
        },
        {
          "internalType": "bytes",
          "name": "data",
          "type": "bytes"
        }
      ],
      "name": "safeBatchTransferFrom",
      "outputs": [],
      "stateMutability": "nonpayable",
      "type": "function"
    },
    {
      "inputs": [
        {
          "internalType": "address",
          "name": "from",
          "type": "address"
        },
        {
          "internalType": "address",
          "name": "to",
          "type": "address"
        },
        {
          "internalType": "uint256",
          "name": "id",
          "type": "uint256"
        },
        {
          "internalType": "uint256",
          "name": "value",
          "type": "uint256"
        },
        {
          "internalType": "bytes",
          "name": "data",
          "type": "bytes"
        }
      ],
      "name": "safeTransferFrom",
      "outputs": [],
      "stateMutability": "nonpayable",
      "type": "function"
    },
    {
      "inputs": [
        {
          "internalType": "address",
          "name": "operator",
          "type": "address"
        },
        {
          "internalType": "bool",
          "name": "approved",
          "type": "bool"
        }
      ],
      "name": "setApprovalForAll",
      "outputs": [],
      "stateMutability": "nonpayable",
      "type": "function"
    },
    {
      "inputs": [
        {
          "internalType": "uint16",
          "name": "cube",
          "type": "uint16"
        },
        {
          "internalType": "uint256",
          "name": "units",
          "type": "uint256"
        },
        {
          "internalType": "bool",
          "name": "boosted",
          "type": "bool"
        }
      ],
      "name": "spawn",
      "outputs": [],
      "stateMutability": "nonpayable",
      "type": "function"
    },
    {
      "inputs": [
        {
          "internalType": "bytes4",
          "name": "interfaceId",
          "type": "bytes4"
        }
      ],
      "name": "supportsInterface",
      "outputs": [
        {
          "internalType": "bool",
          "name": "",
          "type": "bool"
        }
      ],
      "stateMutability": "view",
      "type": "function"
    },
    {
      "inputs": [
        {
          "internalType": "address",
          "name": "newOwner",
          "type": "address"
        }
      ],
      "name": "transferOwnership",
      "outputs": [],
      "stateMutability": "nonpayable",
      "type": "function"
    },
    {
      "inputs": [],
      "name": "treasuryBalance",
      "outputs": [
        {
          "internalType": "uint256",
          "name": "",
          "type": "uint256"
        }
      ],
      "stateMutability": "view",
      "type": "function"
    },
    {
      "inputs": [
        {
          "internalType": "uint256",
          "name": "",
          "type": "uint256"
        }
      ],
      "name": "uri",
      "outputs": [
        {
          "internalType": "string",
          "name": "",
          "type": "string"
        }
      ],
      "stateMutability": "view",
      "type": "function"
    }
  ],
  "bytecode": "0x60a06040523480156200001157600080fd5b50604051620027fb380380620027fb83398101604081905262000034916200012f565b806040518060600160405280602a8152602001620027d1602a91396200005a81620000ae565b5060016003556001600160a01b0381166200008f57604051631e4fbdf760e01b81526000600482015260240160405180910390fd5b6200009a81620000c0565b50506001600160a01b0316608052620002da565b6002620000bc82826200020e565b5050565b600480546001600160a01b038381166001600160a01b0319831681179093556040519116919082907f8be0079c531659141344cd1fd0a4f28419497f9722a3daafe3b4186f6b6457e090600090a35050565b80516001600160a01b03811681146200012a57600080fd5b919050565b600080604083850312156200014357600080fd5b6200014e8362000112565b91506200015e6020840162000112565b90509250929050565b634e487b7160e01b600052604160045260246000fd5b600181811c908216806200019257607f821691505b602082108103620001b357634e487b7160e01b600052602260045260246000fd5b50919050565b601f82111562000209576000816000526020600020601f850160051c81016020861015620001e45750805b601f850160051c820191505b818110156200020557828155600101620001f0565b5050505b505050565b81516001600160401b038111156200022a576200022a62000167565b62000242816200023b84546200017d565b84620001b9565b602080601f8311600181146200027a5760008415620002615750858301515b600019600386901b1c1916600185901b17855562000205565b600085815260208120601f198616915b82811015620002ab578886015182559484019460019091019084016200028a565b5085821015620002ca5787850151600019600388901b60f8161c191681555b5050505050600190811b01905550565b6080516124bf62000312600039600081816101e50152818161090801528181610e1b01528181610f57015261102c01526124bf6000f3fe608060405234801561001057600080fd5b50600436106101725760003560e01c80636950ed03116100de578063a37a9fc011610097578063ea075ee111610071578063ea075ee114610332578063edbd5df814610345578063f242432a14610370578063f2fde38b1461038357600080fd5b8063a37a9fc01461024e578063c704c3f114610310578063e985e9c51461031f57600080fd5b80636950ed03146102ab578063715018a6146102be5780637a2b3720146102c65780637c5b4a37146102d95780638da5cb5b146102ec578063a22cb465146102fd57600080fd5b806344b70ac41161013057806344b70ac41461023d5780634c25d197146102455780634cf5317b1461024e5780634e1273f41461025757806355ebad59146102775780635d69a7101461029857600080fd5b8062fdd58e1461017757806301ffc9a71461019d5780630e89341c146101c05780632bd7cd17146101e05780632eb2c2d61461021f578063313dab2014610234575b600080fd5b61018a610185366004611bc7565b610396565b6040519081526020015b60405180910390f35b6101b06101ab366004611c07565b6103be565b6040519015158152602001610194565b6101d36101ce366004611c2b565b6103c9565b6040516101949190611c8a565b6102077f000000000000000000000000000000000000000000000000000000000000000081565b6040516001600160a01b039091168152602001610194565b61023261022d366004611de7565b61045d565b005b61018a60055481565b61018a604281565b61018a61247681565b61018a61029a81565b61026a610265366004611e91565b6104c9565b6040516101949190611f8d565b61028a610285366004611fc0565b610596565b604051610194929190611ff7565b6102326102a6366004612058565b610851565b6102326102b9366004612098565b610a7c565b610232610c40565b61018a6102d43660046120e7565b610c54565b6102326102e7366004611c2b565b610f3a565b6004546001600160a01b0316610207565b61023261030b366004612106565b6110e2565b61018a678ac7230489e8000081565b6101b061032d366004612122565b6110f1565b61018a610340366004611bc7565b61111f565b61018a610353366004611bc7565b600660209081526000928352604080842090915290825290205481565b61023261037e366004612155565b61116d565b6102326103913660046121ba565b6111cc565b6000818152602081815260408083206001600160a01b03861684529091529020545b92915050565b60006103b882611207565b6060600280546103d8906121d5565b80601f0160208091040260200160405190810160405280929190818152602001828054610404906121d5565b80156104515780601f1061042657610100808354040283529160200191610451565b820191906000526020600020905b81548152906001019060200180831161043457829003601f168201915b50505050509050919050565b336001600160a01b038616811480159061047e575061047c86826110f1565b155b156104b45760405163711bec9160e11b81526001600160a01b038083166004830152871660248201526044015b60405180910390fd5b6104c18686868686611257565b505050505050565b606081518351146104fa5781518351604051635b05999160e01b8152600481019290925260248201526044016104ab565b6000835167ffffffffffffffff81111561051657610516611c9d565b60405190808252806020026020018201604052801561053f578160200160208202803683370190505b50905060005b845181101561058e5760208082028601015161056990602080840287010151610396565b82828151811061057b5761057b61220f565b6020908102919091010152600101610545565b509392505050565b6060806000836105aa578461ffff166105b9565b6105b961ffff861660d861223b565b60008181526007602090815260408083208054825181850281018501909352808352949550929390929183018282801561061c57602002820191906000526020600020905b81546001600160a01b031681526001909101906020018083116105fe575b505050505090506000805b82518110156106c7576008600085815260200190815260200160002060008483815181106106575761065761220f565b6020908102919091018101516001600160a01b031682528101919091526040016000205460ff1680156106ac575060006106aa84838151811061069c5761069c61220f565b602002602001015186610396565b115b156106bf57816106bb8161224e565b9250505b600101610627565b508067ffffffffffffffff8111156106e1576106e1611c9d565b60405190808252806020026020018201604052801561070a578160200160208202803683370190505b5094508067ffffffffffffffff81111561072657610726611c9d565b60405190808252806020026020018201604052801561074f578160200160208202803683370190505b5093506000805b83518110156108455760008482815181106107735761077361220f565b60209081029190910181015160008881526008835260408082206001600160a01b0384168352909352919091205490915060ff1680156107bc575060006107ba8288610396565b115b1561083c57808884815181106107d4576107d461220f565b6001600160a01b03928316602091820292909201810191909152908216600090815260068252604080822089835290925220546108119043612267565b8784815181106108235761082361220f565b6020908102919091010152826108388161224e565b9350505b50600101610756565b50505050509250929050565b6108596112be565b60008361ffff16118015610872575060d88361ffff1611155b6108ad5760405162461bcd60e51b815260206004820152600c60248201526b496e76616c6964204375626560a01b60448201526064016104ab565b6000816108be578361ffff166108cd565b6108cd61ffff851660d861223b565b905060006108e3678ac7230489e800008561227a565b6040516323b872dd60e01b8152336004820152306024820152604481018290529091507f00000000000000000000000000000000000000000000000000000000000000006001600160a01b0316906323b872dd906064016020604051808303816000875af1158015610959573d6000803e3d6000fd5b505050506040513d601f19601f8201168201806040525081019061097d9190612291565b6109c05760405162461bcd60e51b815260206004820152601460248201527314dc185ddb8814185e5b595b9d0811985a5b195960621b60448201526064016104ab565b6127106109cf6124768361227a565b6109d991906122c4565b600560008282546109ea919061223b565b92505081905550610a0c338386604051806020016040528060008152506112e8565b3360008181526006602090815260408083208684529091529020439055610a34908390611345565b604051848152829033907fd5fd522cbcc1631fc34044a6a2d3242adb07fb2d862b28f5215ad524dde676349060200160405180910390a35050610a776001600355565b505050565b60008361ffff16118015610a95575060d88361ffff1611155b610ad75760405162461bcd60e51b8152602060048201526013602482015272496e76616c696420546172676574204375626560681b60448201526064016104ab565b610ae184846113cb565b610b3b5760405162461bcd60e51b815260206004820152602560248201527f4d6f76656d656e74207265737472696374656420746f2061646a6163656e7420604482015264637562657360d81b60648201526084016104ab565b600081610b4c578461ffff16610b5b565b610b5b61ffff861660d861223b565b9050600082610b6e578461ffff16610b7d565b610b7d61ffff861660d861223b565b9050610b9b333384876040518060200160405280600081525061152c565b3360008181526006602090815260408083208584529091529020439055610bc29083610396565b600003610beb5760008281526008602090815260408083203384529091529020805460ff191690555b610bf58133611345565b604080518381526020810183905290810185905233907fd90667fc01ab4bc3eacbfafd214b4ec561704309a60f0430b09107ea38702b179060600160405180910390a2505050505050565b610c486115ba565b610c5260006115e7565b565b6000610c5e6112be565b600082610c6f578461ffff16610c7e565b610c7e61ffff861660d861223b565b9050600083610c9757610c9285600261227a565b610ca3565b610ca361029a8661227a565b905080610cb03384610396565b1015610cf35760405162461bcd60e51b8152602060048201526012602482015271496e73756666696369656e7420466f72636560701b60448201526064016104ab565b84610cfe8884610396565b1015610d455760405162461bcd60e51b815260206004820152601660248201527515185c99d95d081cdd1858dac81d1bdbc81cdb585b1b60521b60448201526064016104ab565b6000610d51888461111f565b9050600085610d605786610d6b565b610d6b60428861227a565b9050610d78898589611639565b610d83338583611639565b610d8d8985610396565b600003610dbf5760008481526008602090815260408083206001600160a01b038d1684529091529020805460ff191690555b6000612710610dd061029a8561227a565b610dda91906122c4565b9050610de68184612267565b95508260056000828254610dfa9190612267565b909155505060405163a9059cbb60e01b8152336004820152602481018790527f00000000000000000000000000000000000000000000000000000000000000006001600160a01b03169063a9059cbb906044016020604051808303816000875af1158015610e6c573d6000803e3d6000fd5b505050506040513d601f19601f82011682018060405250810190610e909190612291565b610ed55760405162461bcd60e51b8152602060048201526016602482015275109bdd5b9d1e48151c985b9cd9995c8811985a5b195960521b60448201526064016104ab565b60408051868152602081018a90529081018790526001600160a01b038b169033907f3a0f8ff9630ddea131e18c99eea14235d84cb8eae4e672cce74d13aa37a4b1779060600160405180910390a35050505050610f326001600355565b949350505050565b610f426115ba565b6040516370a0823160e01b81523060048201527f00000000000000000000000000000000000000000000000000000000000000006001600160a01b0316906370a0823190602401602060405180830381865afa158015610fa6573d6000803e3d6000fd5b505050506040513d601f19601f82011682018060405250810190610fca91906122d8565b8111156110105760405162461bcd60e51b8152602060048201526014602482015273496e73756666696369656e742062616c616e636560601b60448201526064016104ab565b60405163a9059cbb60e01b8152336004820152602481018290527f00000000000000000000000000000000000000000000000000000000000000006001600160a01b03169063a9059cbb906044016020604051808303816000875af115801561107d573d6000803e3d6000fd5b505050506040513d601f19601f820116820180604052508101906110a19190612291565b6110df5760405162461bcd60e51b815260206004820152600f60248201526e151c985b9cd9995c8819985a5b1959608a1b60448201526064016104ab565b50565b6110ed3383836116a1565b5050565b6001600160a01b03918216600090815260016020908152604080832093909416825291909152205460ff1690565b6001600160a01b0382166000908152600660209081526040808320848452909152812054819061114f9043612267565b9050620f424081600554611163919061227a565b610f3291906122c4565b336001600160a01b038616811480159061118e575061118c86826110f1565b155b156111bf5760405163711bec9160e11b81526001600160a01b038083166004830152871660248201526044016104ab565b6104c1868686868661152c565b6111d46115ba565b6001600160a01b0381166111fe57604051631e4fbdf760e01b8152600060048201526024016104ab565b6110df816115e7565b60006001600160e01b03198216636cdb3d1360e11b148061123857506001600160e01b031982166303a24d0760e21b145b806103b857506301ffc9a760e01b6001600160e01b03198316146103b8565b6001600160a01b03841661128157604051632bfa23e760e11b8152600060048201526024016104ab565b6001600160a01b0385166112aa57604051626a0d4560e21b8152600060048201526024016104ab565b6112b78585858585611737565b5050505050565b6002600354036112e157604051633ee5aeb560e01b815260040160405180910390fd5b6002600355565b6001600160a01b03841661131257604051632bfa23e760e11b8152600060048201526024016104ab565b604080516001808252602082018690528183019081526060820185905260808201909252906104c1600087848487611737565b60008281526008602090815260408083206001600160a01b038516845290915290205460ff166110ed5760008281526007602090815260408083208054600180820183559185528385200180546001600160a01b0319166001600160a01b039690961695861790559483526008825280832093835292905220805460ff19169091179055565b60008161ffff168361ffff1614806113e5575061ffff8316155b806113f2575061ffff8216155b156113ff575060006103b8565b600061140c6001856122f1565b9050600061141b6001856122f1565b9050600061142a600684612313565b90506000600661143a8186612334565b6114449190612313565b90506000611453602486612334565b90506000611462600686612313565b9050600060066114728188612334565b61147c9190612313565b9050600061148b602488612334565b905060008160010b8560010b136114ab576114a68583612355565b6114b5565b6114b58286612355565b8360010b8760010b136114d1576114cc8785612355565b6114db565b6114db8488612355565b8560010b8960010b136114f7576114f28987612355565b611501565b611501868a612355565b61150b9190612378565b6115159190612378565b61ffff166001149c9b505050505050505050505050565b6001600160a01b03841661155657604051632bfa23e760e11b8152600060048201526024016104ab565b6001600160a01b03851661157f57604051626a0d4560e21b8152600060048201526024016104ab565b604080516001808252602082018690528183019081526060820185905260808201909252906115b18787848487611737565b50505050505050565b6004546001600160a01b03163314610c525760405163118cdaa760e01b81523360048201526024016104ab565b600480546001600160a01b038381166001600160a01b0319831681179093556040519116919082907f8be0079c531659141344cd1fd0a4f28419497f9722a3daafe3b4186f6b6457e090600090a35050565b6001600160a01b03831661166257604051626a0d4560e21b8152600060048201526024016104ab565b604080516001808252602082018590528183019081526060820184905260a082019092526000608082018181529192916112b791879185908590611737565b6001600160a01b0382166116ca5760405162ced3e160e81b8152600060048201526024016104ab565b6001600160a01b03838116600081815260016020908152604080832094871680845294825291829020805460ff191686151590811790915591519182527f17307eab39ab6107e8899845ad3d59bd9653f200f220920489ca2b5937696c31910160405180910390a3505050565b6117438585858561178a565b6001600160a01b038416156112b7578251339060010361177c576020848101519084015161177583898985858961199e565b50506104c1565b6104c1818787878787611ac2565b80518251146117b95781518151604051635b05999160e01b8152600481019290925260248201526044016104ab565b3360005b83518110156118bf576020818102858101820151908501909101516001600160a01b03881615611870576000828152602081815260408083206001600160a01b038c16845290915290205481811015611849576040516303dee4c560e01b81526001600160a01b038a1660048201526024810182905260448101839052606481018490526084016104ab565b6000838152602081815260408083206001600160a01b038d16845290915290209082900390555b6001600160a01b038716156118b5576000828152602081815260408083206001600160a01b038b168452909152812080548392906118af90849061223b565b90915550505b50506001016117bd565b5082516001036119405760208301516000906020840151909150856001600160a01b0316876001600160a01b0316846001600160a01b03167fc3d58168c5ae7397731d063d5bbf3d657854427343f4c083240f7aacaa2d0f628585604051611931929190918252602082015260400190565b60405180910390a450506112b7565b836001600160a01b0316856001600160a01b0316826001600160a01b03167f4a39dc06d4c0dbc64b70af90fd698a233a518aa5d07e595d983b8c0526c8f7fb868660405161198f92919061239b565b60405180910390a45050505050565b6001600160a01b0384163b156104c15760405163f23a6e6160e01b81526001600160a01b0385169063f23a6e61906119e290899089908890889088906004016123c9565b6020604051808303816000875af1925050508015611a1d575060408051601f3d908101601f19168201909252611a1a9181019061240e565b60015b611a86573d808015611a4b576040519150601f19603f3d011682016040523d82523d6000602084013e611a50565b606091505b508051600003611a7e57604051632bfa23e760e11b81526001600160a01b03861660048201526024016104ab565b805160208201fd5b6001600160e01b0319811663f23a6e6160e01b146115b157604051632bfa23e760e11b81526001600160a01b03861660048201526024016104ab565b6001600160a01b0384163b156104c15760405163bc197c8160e01b81526001600160a01b0385169063bc197c8190611b06908990899088908890889060040161242b565b6020604051808303816000875af1925050508015611b41575060408051601f3d908101601f19168201909252611b3e9181019061240e565b60015b611b6f573d808015611a4b576040519150601f19603f3d011682016040523d82523d6000602084013e611a50565b6001600160e01b0319811663bc197c8160e01b146115b157604051632bfa23e760e11b81526001600160a01b03861660048201526024016104ab565b80356001600160a01b0381168114611bc257600080fd5b919050565b60008060408385031215611bda57600080fd5b611be383611bab565b946020939093013593505050565b6001600160e01b0319811681146110df57600080fd5b600060208284031215611c1957600080fd5b8135611c2481611bf1565b9392505050565b600060208284031215611c3d57600080fd5b5035919050565b6000815180845260005b81811015611c6a57602081850181015186830182015201611c4e565b506000602082860101526020601f19601f83011685010191505092915050565b602081526000611c246020830184611c44565b634e487b7160e01b600052604160045260246000fd5b604051601f8201601f1916810167ffffffffffffffff81118282101715611cdc57611cdc611c9d565b604052919050565b600067ffffffffffffffff821115611cfe57611cfe611c9d565b5060051b60200190565b600082601f830112611d1957600080fd5b81356020611d2e611d2983611ce4565b611cb3565b8083825260208201915060208460051b870101935086841115611d5057600080fd5b602086015b84811015611d6c5780358352918301918301611d55565b509695505050505050565b600082601f830112611d8857600080fd5b813567ffffffffffffffff811115611da257611da2611c9d565b611db5601f8201601f1916602001611cb3565b818152846020838601011115611dca57600080fd5b816020850160208301376000918101602001919091529392505050565b600080600080600060a08688031215611dff57600080fd5b611e0886611bab565b9450611e1660208701611bab565b9350604086013567ffffffffffffffff80821115611e3357600080fd5b611e3f89838a01611d08565b94506060880135915080821115611e5557600080fd5b611e6189838a01611d08565b93506080880135915080821115611e7757600080fd5b50611e8488828901611d77565b9150509295509295909350565b60008060408385031215611ea457600080fd5b823567ffffffffffffffff80821115611ebc57600080fd5b818501915085601f830112611ed057600080fd5b81356020611ee0611d2983611ce4565b82815260059290921b84018101918181019089841115611eff57600080fd5b948201945b83861015611f2457611f1586611bab565b82529482019490820190611f04565b96505086013592505080821115611f3a57600080fd5b50611f4785828601611d08565b9150509250929050565b60008151808452602080850194506020840160005b83811015611f8257815187529582019590820190600101611f66565b509495945050505050565b602081526000611c246020830184611f51565b803561ffff81168114611bc257600080fd5b80151581146110df57600080fd5b60008060408385031215611fd357600080fd5b611fdc83611fa0565b91506020830135611fec81611fb2565b809150509250929050565b604080825283519082018190526000906020906060840190828701845b828110156120395781516001600160a01b031684529284019290840190600101612014565b505050838103602085015261204e8186611f51565b9695505050505050565b60008060006060848603121561206d57600080fd5b61207684611fa0565b925060208401359150604084013561208d81611fb2565b809150509250925092565b600080600080608085870312156120ae57600080fd5b6120b785611fa0565b93506120c560208601611fa0565b92506040850135915060608501356120dc81611fb2565b939692955090935050565b600080600080608085870312156120fd57600080fd5b6120b785611bab565b6000806040838503121561211957600080fd5b611fdc83611bab565b6000806040838503121561213557600080fd5b61213e83611bab565b915061214c60208401611bab565b90509250929050565b600080600080600060a0868803121561216d57600080fd5b61217686611bab565b945061218460208701611bab565b93506040860135925060608601359150608086013567ffffffffffffffff8111156121ae57600080fd5b611e8488828901611d77565b6000602082840312156121cc57600080fd5b611c2482611bab565b600181811c908216806121e957607f821691505b60208210810361220957634e487b7160e01b600052602260045260246000fd5b50919050565b634e487b7160e01b600052603260045260246000fd5b634e487b7160e01b600052601160045260246000fd5b808201808211156103b8576103b8612225565b60006001820161226057612260612225565b5060010190565b818103818111156103b8576103b8612225565b80820281158282048414176103b8576103b8612225565b6000602082840312156122a357600080fd5b8151611c2481611fb2565b634e487b7160e01b600052601260045260246000fd5b6000826122d3576122d36122ae565b500490565b6000602082840312156122ea57600080fd5b5051919050565b61ffff82811682821603908082111561230c5761230c612225565b5092915050565b600061ffff80841680612328576123286122ae565b92169190910692915050565b600061ffff80841680612349576123496122ae565b92169190910492915050565b600182810b9082900b03617fff198112617fff821317156103b8576103b8612225565b600181810b9083900b01617fff8113617fff19821217156103b8576103b8612225565b6040815260006123ae6040830185611f51565b82810360208401526123c08185611f51565b95945050505050565b6001600160a01b03868116825285166020820152604081018490526060810183905260a06080820181905260009061240390830184611c44565b979650505050505050565b60006020828403121561242057600080fd5b8151611c2481611bf1565b6001600160a01b0386811682528516602082015260a06040820181905260009061245790830186611f51565b82810360608401526124698186611f51565b9050828103608084015261247d8185611c44565b9897505050505050505056fea26469706673582212209400a99d1db8e0643389713f0f7300402cface9aad0bc61197ca5976bc29828264736f6c6343000818003368747470733a2f2f6170692e6b696c6c67616d652e61692f6d657461646174612f7b69647d2e6a736f6e",
  "linkReferences": {},
  "deployedLinkReferences": {}
}