{
  "_format": "hh-sol-artifact-1",
  "contractName": "KILLGame",
  "sourceName": "contracts/KillGame.sol",
  "abi": [
    {
      "inputs": [
        {
          "internalType": "address",
          "name": "_tokenAddress",
          "type": "address"
        }
      ],
      "stateMutability": "nonpayable",
      "type": "constructor"
    },
    {
      "inputs": [
        {
          "internalType": "address",
          "name": "sender",
          "type": "address"
        },
        {
          "internalType": "uint256",
          "name": "balance",
          "type": "uint256"
        },
        {
          "internalType": "uint256",
          "name": "needed",
          "type": "uint256"
        },
        {
          "internalType": "uint256",
          "name": "tokenId",
          "type": "uint256"
        }
      ],
      "name": "ERC1155InsufficientBalance",
      "type": "error"
    },
    {
      "inputs": [
        {
          "internalType": "address",
          "name": "approver",
          "type": "address"
        }
      ],
      "name": "ERC1155InvalidApprover",
      "type": "error"
    },
    {
      "inputs": [
        {
          "internalType": "uint256",
          "name": "idsLength",
          "type": "uint256"
        },
        {
          "internalType": "uint256",
          "name": "valuesLength",
          "type": "uint256"
        }
      ],
      "name": "ERC1155InvalidArrayLength",
      "type": "error"
    },
    {
      "inputs": [
        {
          "internalType": "address",
          "name": "operator",
          "type": "address"
        }
      ],
      "name": "ERC1155InvalidOperator",
      "type": "error"
    },
    {
      "inputs": [
        {
          "internalType": "address",
          "name": "receiver",
          "type": "address"
        }
      ],
      "name": "ERC1155InvalidReceiver",
      "type": "error"
    },
    {
      "inputs": [
        {
          "internalType": "address",
          "name": "sender",
          "type": "address"
        }
      ],
      "name": "ERC1155InvalidSender",
      "type": "error"
    },
    {
      "inputs": [
        {
          "internalType": "address",
          "name": "operator",
          "type": "address"
        },
        {
          "internalType": "address",
          "name": "owner",
          "type": "address"
        }
      ],
      "name": "ERC1155MissingApprovalForAll",
      "type": "error"
    },
    {
      "inputs": [
        {
          "internalType": "address",
          "name": "owner",
          "type": "address"
        }
      ],
      "name": "OwnableInvalidOwner",
      "type": "error"
    },
    {
      "inputs": [
        {
          "internalType": "address",
          "name": "account",
          "type": "address"
        }
      ],
      "name": "OwnableUnauthorizedAccount",
      "type": "error"
    },
    {
      "inputs": [],
      "name": "ReentrancyGuardReentrantCall",
      "type": "error"
    },
    {
      "anonymous": false,
      "inputs": [
        {
          "indexed": true,
          "internalType": "address",
          "name": "account",
          "type": "address"
        },
        {
          "indexed": true,
          "internalType": "address",
          "name": "operator",
          "type": "address"
        },
        {
          "indexed": false,
          "internalType": "bool",
          "name": "approved",
          "type": "bool"
        }
      ],
      "name": "ApprovalForAll",
      "type": "event"
    },
    {
      "anonymous": false,
      "inputs": [
        {
          "indexed": false,
          "internalType": "uint256",
          "name": "totalUnitsKilled",
          "type": "uint256"
        },
        {
          "indexed": false,
          "internalType": "uint256",
          "name": "totalReaperKilled",
          "type": "uint256"
        },
        {
          "indexed": false,
          "internalType": "uint256",
          "name": "killAdded",
          "type": "uint256"
        },
        {
          "indexed": false,
          "internalType": "uint256",
          "name": "killExtracted",
          "type": "uint256"
        },
        {
          "indexed": false,
          "internalType": "uint256",
          "name": "killBurned",
          "type": "uint256"
        }
      ],
      "name": "GlobalStats",
      "type": "event"
    },
    {
      "anonymous": false,
      "inputs": [
        {
          "indexed": true,
          "internalType": "address",
          "name": "attacker",
          "type": "address"
        },
        {
          "indexed": true,
          "internalType": "address",
          "name": "target",
          "type": "address"
        },
        {
          "indexed": true,
          "internalType": "uint16",
          "name": "stackId",
          "type": "uint16"
        },
        {
          "indexed": false,
          "internalType": "uint256",
          "name": "attackerUnitsLost",
          "type": "uint256"
        },
        {
          "indexed": false,
          "internalType": "uint256",
          "name": "attackerReaperLost",
          "type": "uint256"
        },
        {
          "indexed": false,
          "internalType": "uint256",
          "name": "targetUnitsLost",
          "type": "uint256"
        },
        {
          "indexed": false,
          "internalType": "uint256",
          "name": "targetReaperLost",
          "type": "uint256"
        },
        {
          "indexed": false,
          "internalType": "uint256",
          "name": "netBounty",
          "type": "uint256"
        },
        {
          "indexed": false,
          "internalType": "uint256",
          "name": "targetBirthBlock",
          "type": "uint256"
        }
      ],
      "name": "Killed",
      "type": "event"
    },
    {
      "anonymous": false,
      "inputs": [
        {
          "indexed": true,
          "internalType": "address",
          "name": "agent",
          "type": "address"
        },
        {
          "indexed": false,
          "internalType": "uint16",
          "name": "fromStack",
          "type": "uint16"
        },
        {
          "indexed": false,
          "internalType": "uint16",
          "name": "toStack",
          "type": "uint16"
        },
        {
          "indexed": false,
          "internalType": "uint256",
          "name": "units",
          "type": "uint256"
        },
        {
          "indexed": false,
          "internalType": "uint256",
          "name": "reaper",
          "type": "uint256"
        },
        {
          "indexed": false,
          "internalType": "uint256",
          "name": "birthBlock",
          "type": "uint256"
        }
      ],
      "name": "Moved",
      "type": "event"
    },
    {
      "anonymous": false,
      "inputs": [
        {
          "indexed": true,
          "internalType": "address",
          "name": "previousOwner",
          "type": "address"
        },
        {
          "indexed": true,
          "internalType": "address",
          "name": "newOwner",
          "type": "address"
        }
      ],
      "name": "OwnershipTransferred",
      "type": "event"
    },
    {
      "anonymous": false,
      "inputs": [
        {
          "indexed": true,
          "internalType": "address",
          "name": "agent",
          "type": "address"
        },
        {
          "indexed": true,
          "internalType": "uint256",
          "name": "stackId",
          "type": "uint256"
        },
        {
          "indexed": false,
          "internalType": "uint256",
          "name": "units",
          "type": "uint256"
        },
        {
          "indexed": false,
          "internalType": "uint256",
          "name": "birthBlock",
          "type": "uint256"
        }
      ],
      "name": "Spawned",
      "type": "event"
    },
    {
      "anonymous": false,
      "inputs": [
        {
          "indexed": true,
          "internalType": "address",
          "name": "operator",
          "type": "address"
        },
        {
          "indexed": true,
          "internalType": "address",
          "name": "from",
          "type": "address"
        },
        {
          "indexed": true,
          "internalType": "address",
          "name": "to",
          "type": "address"
        },
        {
          "indexed": false,
          "internalType": "uint256[]",
          "name": "ids",
          "type": "uint256[]"
        },
        {
          "indexed": false,
          "internalType": "uint256[]",
          "name": "values",
          "type": "uint256[]"
        }
      ],
      "name": "TransferBatch",
      "type": "event"
    },
    {
      "anonymous": false,
      "inputs": [
        {
          "indexed": true,
          "internalType": "address",
          "name": "operator",
          "type": "address"
        },
        {
          "indexed": true,
          "internalType": "address",
          "name": "from",
          "type": "address"
        },
        {
          "indexed": true,
          "internalType": "address",
          "name": "to",
          "type": "address"
        },
        {
          "indexed": false,
          "internalType": "uint256",
          "name": "id",
          "type": "uint256"
        },
        {
          "indexed": false,
          "internalType": "uint256",
          "name": "value",
          "type": "uint256"
        }
      ],
      "name": "TransferSingle",
      "type": "event"
    },
    {
      "anonymous": false,
      "inputs": [
        {
          "indexed": false,
          "internalType": "string",
          "name": "value",
          "type": "string"
        },
        {
          "indexed": true,
          "internalType": "uint256",
          "name": "id",
          "type": "uint256"
        }
      ],
      "name": "URI",
      "type": "event"
    },
    {
      "inputs": [],
      "name": "BURN_BPS",
      "outputs": [
        {
          "internalType": "uint256",
          "name": "",
          "type": "uint256"
        }
      ],
      "stateMutability": "view",
      "type": "function"
    },
    {
      "inputs": [],
      "name": "BURN_OF_TREASURY_BPS",
      "outputs": [
        {
          "internalType": "uint256",
          "name": "",
          "type": "uint256"
        }
      ],
      "stateMutability": "view",
      "type": "function"
    },
    {
      "inputs": [],
      "name": "MOVE_COST",
      "outputs": [
        {
          "internalType": "uint256",
          "name": "",
          "type": "uint256"
        }
      ],
      "stateMutability": "view",
      "type": "function"
    },
    {
      "inputs": [],
      "name": "SENDER_BPS",
      "outputs": [
        {
          "internalType": "uint256",
          "name": "",
          "type": "uint256"
        }
      ],
      "stateMutability": "view",
      "type": "function"
    },
    {
      "inputs": [],
      "name": "SPAWN_COST",
      "outputs": [
        {
          "internalType": "uint256",
          "name": "",
          "type": "uint256"
        }
      ],
      "stateMutability": "view",
      "type": "function"
    },
    {
      "inputs": [],
      "name": "TREASURY_BPS",
      "outputs": [
        {
          "internalType": "uint256",
          "name": "",
          "type": "uint256"
        }
      ],
      "stateMutability": "view",
      "type": "function"
    },
    {
      "inputs": [
        {
          "internalType": "uint256",
          "name": "amt",
          "type": "uint256"
        }
      ],
      "name": "adminWithdraw",
      "outputs": [],
      "stateMutability": "nonpayable",
      "type": "function"
    },
    {
      "inputs": [
        {
          "internalType": "address",
          "name": "",
          "type": "address"
        },
        {
          "internalType": "uint256",
          "name": "",
          "type": "uint256"
        }
      ],
      "name": "agentStacks",
      "outputs": [
        {
          "internalType": "uint256",
          "name": "birthBlock",
          "type": "uint256"
        }
      ],
      "stateMutability": "view",
      "type": "function"
    },
    {
      "inputs": [
        {
          "internalType": "address",
          "name": "account",
          "type": "address"
        },
        {
          "internalType": "uint256",
          "name": "id",
          "type": "uint256"
        }
      ],
      "name": "balanceOf",
      "outputs": [
        {
          "internalType": "uint256",
          "name": "",
          "type": "uint256"
        }
      ],
      "stateMutability": "view",
      "type": "function"
    },
    {
      "inputs": [
        {
          "internalType": "address[]",
          "name": "accounts",
          "type": "address[]"
        },
        {
          "internalType": "uint256[]",
          "name": "ids",
          "type": "uint256[]"
        }
      ],
      "name": "balanceOfBatch",
      "outputs": [
        {
          "internalType": "uint256[]",
          "name": "",
          "type": "uint256[]"
        }
      ],
      "stateMutability": "view",
      "type": "function"
    },
    {
      "inputs": [
        {
          "internalType": "address",
          "name": "agent",
          "type": "address"
        },
        {
          "internalType": "uint256",
          "name": "id",
          "type": "uint256"
        }
      ],
      "name": "getBirthBlock",
      "outputs": [
        {
          "internalType": "uint256",
          "name": "",
          "type": "uint256"
        }
      ],
      "stateMutability": "view",
      "type": "function"
    },
    {
      "inputs": [
        {
          "internalType": "uint16",
          "name": "stackId",
          "type": "uint16"
        }
      ],
      "name": "getFullStack",
      "outputs": [
        {
          "components": [
            {
              "internalType": "address",
              "name": "occupant",
              "type": "address"
            },
            {
              "internalType": "uint256",
              "name": "units",
              "type": "uint256"
            },
            {
              "internalType": "uint256",
              "name": "reapers",
              "type": "uint256"
            },
            {
              "internalType": "uint256",
              "name": "age",
              "type": "uint256"
            },
            {
              "internalType": "uint256",
              "name": "pendingBounty",
              "type": "uint256"
            }
          ],
          "internalType": "struct KILLGame.StackInfo[]",
          "name": "",
          "type": "tuple[]"
        }
      ],
      "stateMutability": "view",
      "type": "function"
    },
    {
      "inputs": [
        {
          "internalType": "address",
          "name": "agent",
          "type": "address"
        },
        {
          "internalType": "uint256",
          "name": "id",
          "type": "uint256"
        }
      ],
      "name": "getPendingBounty",
      "outputs": [
        {
          "internalType": "uint256",
          "name": "",
          "type": "uint256"
        }
      ],
      "stateMutability": "view",
      "type": "function"
    },
    {
      "inputs": [
        {
          "internalType": "address",
          "name": "account",
          "type": "address"
        },
        {
          "internalType": "address",
          "name": "operator",
          "type": "address"
        }
      ],
      "name": "isApprovedForAll",
      "outputs": [
        {
          "internalType": "bool",
          "name": "",
          "type": "bool"
        }
      ],
      "stateMutability": "view",
      "type": "function"
    },
    {
      "inputs": [
        {
          "internalType": "address",
          "name": "target",
          "type": "address"
        },
        {
          "internalType": "uint16",
          "name": "stackId",
          "type": "uint16"
        },
        {
          "internalType": "uint256",
          "name": "sentUnits",
          "type": "uint256"
        },
        {
          "internalType": "uint256",
          "name": "sentReaper",
          "type": "uint256"
        }
      ],
      "name": "kill",
      "outputs": [
        {
          "internalType": "uint256",
          "name": "netBounty",
          "type": "uint256"
        }
      ],
      "stateMutability": "nonpayable",
      "type": "function"
    },
    {
      "inputs": [],
      "name": "killToken",
      "outputs": [
        {
          "internalType": "contract IERC20",
          "name": "",
          "type": "address"
        }
      ],
      "stateMutability": "view",
      "type": "function"
    },
    {
      "inputs": [
        {
          "internalType": "uint16",
          "name": "fromStack",
          "type": "uint16"
        },
        {
          "internalType": "uint16",
          "name": "toStack",
          "type": "uint16"
        },
        {
          "internalType": "uint256",
          "name": "units",
          "type": "uint256"
        },
        {
          "internalType": "uint256",
          "name": "reaper",
          "type": "uint256"
        }
      ],
      "name": "move",
      "outputs": [],
      "stateMutability": "nonpayable",
      "type": "function"
    },
    {
      "inputs": [],
      "name": "owner",
      "outputs": [
        {
          "internalType": "address",
          "name": "",
          "type": "address"
        }
      ],
      "stateMutability": "view",
      "type": "function"
    },
    {
      "inputs": [],
      "name": "renounceOwnership",
      "outputs": [],
      "stateMutability": "nonpayable",
      "type": "function"
    },
    {
      "inputs": [
        {
          "internalType": "address",
          "name": "from",
          "type": "address"
        },
        {
          "internalType": "address",
          "name": "to",
          "type": "address"
        },
        {
          "internalType": "uint256[]",
          "name": "ids",
          "type": "uint256[]"
        },
        {
          "internalType": "uint256[]",
          "name": "values",
          "type": "uint256[]"
        },
        {
          "internalType": "bytes",
          "name": "data",
          "type": "bytes"
        }
      ],
      "name": "safeBatchTransferFrom",
      "outputs": [],
      "stateMutability": "nonpayable",
      "type": "function"
    },
    {
      "inputs": [
        {
          "internalType": "address",
          "name": "from",
          "type": "address"
        },
        {
          "internalType": "address",
          "name": "to",
          "type": "address"
        },
        {
          "internalType": "uint256",
          "name": "id",
          "type": "uint256"
        },
        {
          "internalType": "uint256",
          "name": "value",
          "type": "uint256"
        },
        {
          "internalType": "bytes",
          "name": "data",
          "type": "bytes"
        }
      ],
      "name": "safeTransferFrom",
      "outputs": [],
      "stateMutability": "nonpayable",
      "type": "function"
    },
    {
      "inputs": [
        {
          "internalType": "address",
          "name": "operator",
          "type": "address"
        },
        {
          "internalType": "bool",
          "name": "approved",
          "type": "bool"
        }
      ],
      "name": "setApprovalForAll",
      "outputs": [],
      "stateMutability": "nonpayable",
      "type": "function"
    },
    {
      "inputs": [
        {
          "internalType": "uint16",
          "name": "stackId",
          "type": "uint16"
        },
        {
          "internalType": "uint256",
          "name": "amount",
          "type": "uint256"
        }
      ],
      "name": "spawn",
      "outputs": [],
      "stateMutability": "nonpayable",
      "type": "function"
    },
    {
      "inputs": [
        {
          "internalType": "bytes4",
          "name": "id",
          "type": "bytes4"
        }
      ],
      "name": "supportsInterface",
      "outputs": [
        {
          "internalType": "bool",
          "name": "",
          "type": "bool"
        }
      ],
      "stateMutability": "view",
      "type": "function"
    },
    {
      "inputs": [],
      "name": "totalKillBurned",
      "outputs": [
        {
          "internalType": "uint256",
          "name": "",
          "type": "uint256"
        }
      ],
      "stateMutability": "view",
      "type": "function"
    },
    {
      "inputs": [],
      "name": "totalKillExtracted",
      "outputs": [
        {
          "internalType": "uint256",
          "name": "",
          "type": "uint256"
        }
      ],
      "stateMutability": "view",
      "type": "function"
    },
    {
      "inputs": [],
      "name": "totalReaperKilled",
      "outputs": [
        {
          "internalType": "uint256",
          "name": "",
          "type": "uint256"
        }
      ],
      "stateMutability": "view",
      "type": "function"
    },
    {
      "inputs": [],
      "name": "totalUnitsKilled",
      "outputs": [
        {
          "internalType": "uint256",
          "name": "",
          "type": "uint256"
        }
      ],
      "stateMutability": "view",
      "type": "function"
    },
    {
      "inputs": [],
      "name": "totalUnitsMinted",
      "outputs": [
        {
          "internalType": "uint256",
          "name": "",
          "type": "uint256"
        }
      ],
      "stateMutability": "view",
      "type": "function"
    },
    {
      "inputs": [
        {
          "internalType": "address",
          "name": "newOwner",
          "type": "address"
        }
      ],
      "name": "transferOwnership",
      "outputs": [],
      "stateMutability": "nonpayable",
      "type": "function"
    },
    {
      "inputs": [],
      "name": "treasuryBalance",
      "outputs": [
        {
          "internalType": "uint256",
          "name": "",
          "type": "uint256"
        }
      ],
      "stateMutability": "view",
      "type": "function"
    },
    {
      "inputs": [
        {
          "internalType": "uint256",
          "name": "",
          "type": "uint256"
        }
      ],
      "name": "uri",
      "outputs": [
        {
          "internalType": "string",
          "name": "",
          "type": "string"
        }
      ],
      "stateMutability": "view",
      "type": "function"
    }
  ],
  "bytecode": "0x60a06040523480156200001157600080fd5b5060405162002f1c38038062002f1c833981016040819052620000349162000111565b336040518060600160405280602a815260200162002ef2602a91396200005a81620000ad565b5060016003556001600160a01b0381166200008f57604051631e4fbdf760e01b81526000600482015260240160405180910390fd5b6200009a81620000bf565b506001600160a01b0316608052620002b6565b6002620000bb8282620001ea565b5050565b600480546001600160a01b038381166001600160a01b0319831681179093556040519116919082907f8be0079c531659141344cd1fd0a4f28419497f9722a3daafe3b4186f6b6457e090600090a35050565b6000602082840312156200012457600080fd5b81516001600160a01b03811681146200013c57600080fd5b9392505050565b634e487b7160e01b600052604160045260246000fd5b600181811c908216806200016e57607f821691505b6020821081036200018f57634e487b7160e01b600052602260045260246000fd5b50919050565b601f821115620001e5576000816000526020600020601f850160051c81016020861015620001c05750805b601f850160051c820191505b81811015620001e157828155600101620001cc565b5050505b505050565b81516001600160401b0381111562000206576200020662000143565b6200021e8162000217845462000159565b8462000195565b602080601f8311600181146200025657600084156200023d5750858301515b600019600386901b1c1916600185901b178555620001e1565b600085815260208120601f198616915b82811015620002875788860151825594840194600190910190840162000266565b5085821015620002a65787850151600019600388901b60f8161c191681555b5050505050600190811b01905550565b608051612c04620002ee60003960008181610289015281816105440152818161099201528181610fa7015261195e0152612c046000f3fe608060405234801561001057600080fd5b50600436106101ef5760003560e01c80637c5b4a371161010f578063c704c3f1116100a2578063edbd5df811610071578063edbd5df814610405578063ef0a131114610430578063f242432a14610450578063f2fde38b1461046357600080fd5b8063c704c3f114610374578063e74fe237146103cc578063e985e9c5146103df578063ea075ee1146103f257600080fd5b806394456848116100de5780639445684814610374578063a22cb46514610383578063a37a9fc01461023d578063b80113281461039657600080fd5b80637c5b4a371461033457806388b00adc146103475780638da5cb5b1461035057806391fa2a6a1461036157600080fd5b80632ee8174e116101875780634e1273f4116101565780634e1273f4146102fa5780635635fdbc1461031a578063715018a614610323578063781298821461032b57600080fd5b80632ee8174e146102d6578063313dab20146102df5780633b8726e2146102e85780634c25d197146102f157600080fd5b80630a08f3d0116101c35780630a08f3d01461025b5780630e89341c146102645780632bd7cd17146102845780632eb2c2d6146102c357600080fd5b8062fdd58e146101f457806301ffc9a71461021a578063081e87b91461023d57806309f6182614610246575b600080fd5b610207610202366004612348565b610476565b6040519081526020015b60405180910390f35b61022d610228366004612388565b61049e565b6040519015158152602001610211565b61020761029a81565b6102596102543660046123b7565b6104a9565b005b61020760065481565b6102776102723660046123d3565b610792565b6040516102119190612432565b6102ab7f000000000000000000000000000000000000000000000000000000000000000081565b6040516001600160a01b039091168152602001610211565b6102596102d136600461258f565b610826565b61020760085481565b61020760055481565b610207611d4c81565b6102076109c481565b61030d610308366004612639565b61088d565b6040516102119190612735565b61020760095481565b61025961095a565b61020760075481565b6102596103423660046123d3565b61096e565b610207600a5481565b6004546001600160a01b03166102ab565b61020761036f366004612748565b610a07565b610207678ac7230489e8000081565b610259610391366004612798565b610eb6565b6102076103a4366004612348565b6001600160a01b03919091166000908152600b60209081526040808320938352929052205490565b6102596103da3660046127cf565b610ec1565b61022d6103ed3660046127ee565b6111d9565b610207610400366004612348565b611207565b610207610413366004612348565b600b60209081526000928352604080842090915290825290205481565b61044361043e366004612821565b61128a565b604051610211919061283c565b61025961045e3660046128b3565b6115c3565b610259610471366004612918565b611622565b6000818152602081815260408083206001600160a01b03861684529091529020545b92915050565b600061049882611660565b6104b16116b0565b60008261ffff161180156104ca575060d88261ffff1611155b61050b5760405162461bcd60e51b815260206004820152600d60248201526c496e76616c696420537461636b60981b60448201526064015b60405180910390fd5b600061051f678ac7230489e8000083612949565b6040516323b872dd60e01b8152336004820152306024820152604481018290529091507f00000000000000000000000000000000000000000000000000000000000000006001600160a01b0316906323b872dd906064016020604051808303816000875af1158015610595573d6000803e3d6000fd5b505050506040513d601f19601f820116820180604052508101906105b99190612960565b6105f05760405162461bcd60e51b815260206004820152600860248201526714185e4819985a5b60c21b6044820152606401610502565b600061271061060161029a84612949565b61060b9190612993565b9050600061061982846129a7565b9050806005600082825461062d91906129ba565b9250508190555081600a600082825461064691906129ba565b909155505060068054908590600061065e83856129ba565b909155506000905061067261029a83612993565b61029a6006546106829190612993565b61068c91906129a7565b9050600061069a82886129a7565b905080156106b1576106b1338961ffff16836116da565b81156106d0576106d0336106ca61ffff8b1660d86129ba565b846116da565b6040805188815243602082015261ffff8a169133917f21427a790373fad598033d2f191dd9fc550d58054a7f361c0af4895c351eeaf2910160405180910390a37f6b8aeaa3365d2dfcb9acc94f0a7429b657b4f2008cfafb9b10297011e077c650600754600854678ac7230489e8000060065461074d9190612949565b600954600a54604080519586526020860194909452928401919091526060830152608082015260a00160405180910390a150505050505061078e6001600355565b5050565b6060600280546107a1906129cd565b80601f01602080910402602001604051908101604052809291908181526020018280546107cd906129cd565b801561081a5780601f106107ef5761010080835404028352916020019161081a565b820191906000526020600020905b8154815290600101906020018083116107fd57829003601f168201915b50505050509050919050565b336001600160a01b0386168114801590610847575061084586826111d9565b155b156108785760405163711bec9160e11b81526001600160a01b03808316600483015287166024820152604401610502565b6108858686868686611792565b505050505050565b606081518351146108be5781518351604051635b05999160e01b815260048101929092526024820152604401610502565b6000835167ffffffffffffffff8111156108da576108da612445565b604051908082528060200260200182016040528015610903578160200160208202803683370190505b50905060005b84518110156109525760208082028601015161092d90602080840287010151610476565b82828151811061093f5761093f612a07565b6020908102919091010152600101610909565b509392505050565b6109626117f9565b61096c6000611826565b565b6109766117f9565b60405163a9059cbb60e01b8152336004820152602481018290527f00000000000000000000000000000000000000000000000000000000000000006001600160a01b03169063a9059cbb906044016020604051808303816000875af11580156109e3573d6000803e3d6000fd5b505050506040513d601f19601f8201168201806040525081019061078e9190612960565b6000610a116116b0565b61ffff84166000610a238260d86129ba565b905084610a303384610476565b10158015610a47575083610a443383610476565b10155b610a805760405162461bcd60e51b815260206004820152600a6024820152694c61636b20756e69747360b01b6044820152606401610502565b610aab6040518060800160405280600081526020016000815260200160008152602001600081525090565b6001600160a01b0388166000908152600b6020908152604080832086845290915281205490610adc8761029a612949565b610ae690896129ba565b9050600080610af58c88610476565b90506000610b038d88610476565b90506001600160a01b038d163303610b2e57610b1f8b836129a7565b9150610b2b8a826129a7565b90505b6064610b3c8261029a612949565b610b4690846129ba565b610b5190606e612949565b610b5b9190612993565b925082600003610b6a57600192505b6040860191909152606085015280821115610c2f57610b8a8b8787611878565b96506000600d600088815260200190815260200160002060008d6001600160a01b03166001600160a01b0316815260200190815260200160002060006101000a81548160ff0219169083151502179055506000600d600087815260200190815260200160002060008d6001600160a01b03166001600160a01b0316815260200190815260200160002060006101000a81548160ff021916908315150217905550610d51565b888452602084018890526000610c458380612949565b90506000610c538380612949565b905080828760400151610c669190612949565b610c709190612993565b604087015260608601518190610c87908490612949565b610c919190612993565b60608701526040860151600003610cf2576000600d60008a815260200190815260200160002060008f6001600160a01b03166001600160a01b0316815260200190815260200160002060006101000a81548160ff0219169083151502179055505b8560600151600003610d4e576000600d600089815260200190815260200160002060008f6001600160a01b03166001600160a01b0316815260200190815260200160002060006101000a81548160ff0219169083151502179055505b50505b610d5a84611a17565b604084015115610d7357610d738b878660400151611a6b565b606084015115610d8c57610d8c8b868660600151611a6b565b835115610da257610da233878660000151611a6b565b602084015115610dbb57610dbb33868660200151611a6b565b83516020808601516040808801516060808a0151835196875294860193909352908401528201526080810188905260a0810184905261ffff8b16906001600160a01b038d169033907fe8cf87740e16519b389a47fd487b7c8330c651cf9af2e1a698676cb488a8cd4e9060c00160405180910390a47f6b8aeaa3365d2dfcb9acc94f0a7429b657b4f2008cfafb9b10297011e077c650600754600854678ac7230489e80000600654610e6d9190612949565b600954600a54604080519586526020860194909452928401919091526060830152608082015260a00160405180910390a1505050505050610eae6001600355565b949350505050565b61078e338383611ad3565b610ec96116b0565b60008461ffff16118015610ee2575060d88461ffff1611155b610f1d5760405162461bcd60e51b815260206004820152600c60248201526b496e76616c69642046726f6d60a01b6044820152606401610502565b60008361ffff16118015610f36575060d88361ffff1611155b8015610f475750610f478484611b69565b610f7e5760405162461bcd60e51b8152602060048201526008602482015267426164206d6f766560c01b6044820152606401610502565b6040516323b872dd60e01b8152336004820152306024820152678ac7230489e8000060448201527f00000000000000000000000000000000000000000000000000000000000000006001600160a01b0316906323b872dd906064016020604051808303816000875af1158015610ff8573d6000803e3d6000fd5b505050506040513d601f19601f8201168201806040525081019061101c9190612960565b6110535760405162461bcd60e51b815260206004820152600860248201526714185e4819985a5b60c21b6044820152606401610502565b600061271061106c61029a678ac7230489e80000612949565b6110769190612993565b9050600061108c82678ac7230489e800006129a7565b905080600560008282546110a091906129ba565b9250508190555081600a60008282546110b991906129ba565b909155505083156110d7576110d78661ffff168661ffff1686611c95565b8215611104576111046110ef61ffff881660d86129ba565b6110fe61ffff881660d86129ba565b85611c95565b6040805161ffff8089168252871660208201529081018590526060810184905243608082015233907f377dc7145bd8ab426842504b448652c41dda00abb7f7c1df6bdfa40bd2a16f2c9060a00160405180910390a27f6b8aeaa3365d2dfcb9acc94f0a7429b657b4f2008cfafb9b10297011e077c650600754600854678ac7230489e800006006546111969190612949565b600954600a54604080519586526020860194909452928401919091526060830152608082015260a00160405180910390a150506111d36001600355565b50505050565b6001600160a01b03918216600090815260016020908152604080832093909416825291909152205460ff1690565b6001600160a01b0382166000908152600b60209081526040808320848452909152812054810361123957506000610498565b6001600160a01b0383166000908152600b60209081526040808320858452909152902054620f42409061126c90436129a7565b6005546112799190612949565b6112839190612993565b9392505050565b606061ffff8216600061129e8260d86129ba565b6000838152600c602090815260408083208054825181850281018501909352808352949550929390929183018282801561130157602002820191906000526020600020905b81546001600160a01b031681526001909101906020018083116112e3575b505050505090506000805b82518110156113d357600d6000868152602001908152602001600020600084838151811061133c5761133c612a07565b6020908102919091018101516001600160a01b031682528101919091526040016000205460ff16806113b85750600d6000858152602001908152602001600020600084838151811061139057611390612a07565b6020908102919091018101516001600160a01b031682528101919091526040016000205460ff165b156113cb57816113c781612a1d565b9250505b60010161130c565b5060008167ffffffffffffffff8111156113ef576113ef612445565b60405190808252806020026020018201604052801561145b57816020015b6114486040518060a0016040528060006001600160a01b03168152602001600081526020016000815260200160008152602001600081525090565b81526020019060019003908161140d5790505b5090506000805b84518110156115b657600085828151811061147f5761147f612a07565b60209081029190910181015160008a8152600d835260408082206001600160a01b0384168352909352919091205490915060ff16806114e057506000878152600d602090815260408083206001600160a01b038516845290915290205460ff165b156115ad5760006114f1828a610476565b905060006114ff838a610476565b6001600160a01b0384166000818152600b602090815260408083208f845282529182902054825160a081018452938452908301869052908201839052919250606081018261154e576000611558565b61155883436129a7565b8152602001611567868d611207565b611571878f611207565b61157b91906129ba565b81525087878151811061159057611590612a07565b602002602001018190525085806115a690612a1d565b9650505050505b50600101611462565b5090979650505050505050565b336001600160a01b03861681148015906115e457506115e286826111d9565b155b156116155760405163711bec9160e11b81526001600160a01b03808316600483015287166024820152604401610502565b6108858686868686611dd1565b61162a6117f9565b6001600160a01b03811661165457604051631e4fbdf760e01b815260006004820152602401610502565b61165d81611826565b50565b60006001600160e01b03198216636cdb3d1360e11b148061169157506001600160e01b031982166303a24d0760e21b145b8061049857506301ffc9a760e01b6001600160e01b0319831614610498565b6002600354036116d357604051633ee5aeb560e01b815260040160405180910390fd5b6002600355565b6116f583838360405180602001604052806000815250611e5f565b6001600160a01b0383166000818152600b602090815260408083208684528252808320439055600d8252808320938352929052205460ff1661178d576000828152600c602090815260408083208054600180820183559185528385200180546001600160a01b0319166001600160a01b038916908117909155868552600d8452828520908552909252909120805460ff191690911790555b505050565b6001600160a01b0384166117bc57604051632bfa23e760e11b815260006004820152602401610502565b6001600160a01b0385166117e557604051626a0d4560e21b815260006004820152602401610502565b6117f28585858585611eb8565b5050505050565b6004546001600160a01b0316331461096c5760405163118cdaa760e01b8152336004820152602401610502565b600480546001600160a01b038381166001600160a01b0319831681179093556040519116919082907f8be0079c531659141344cd1fd0a4f28419497f9722a3daafe3b4186f6b6457e090600090a35050565b6000806118858584611207565b61188f8686611207565b61189991906129ba565b905060006127106118ac6109c484612949565b6118b69190612993565b905060006127106118c961029a84612949565b6118d39190612993565b90506127106118e4611d4c85612949565b6118ee9190612993565b93506118fa81856129ba565b6005600082825461190b91906129a7565b9250508190555080600a600082825461192491906129ba565b92505081905550836009600082825461193d91906129ba565b909155505060405163a9059cbb60e01b8152336004820152602481018590527f00000000000000000000000000000000000000000000000000000000000000006001600160a01b03169063a9059cbb906044016020604051808303816000875af11580156119af573d6000803e3d6000fd5b505050506040513d601f19601f820116820180604052508101906119d39190612960565b611a0d5760405162461bcd60e51b815260206004820152600b60248201526a14185e5bdd5d0819985a5b60aa1b6044820152606401610502565b5050509392505050565b60408101518151611a2891906129ba565b60076000828254611a3991906129ba565b909155505060608101516020820151611a5291906129ba565b60086000828254611a6391906129ba565b909155505050565b6001600160a01b038316611a9457604051626a0d4560e21b815260006004820152602401610502565b604080516001808252602082018590528183019081526060820184905260a082019092526000608082018181529192916117f291879185908590611eb8565b6001600160a01b038216611afc5760405162ced3e160e81b815260006004820152602401610502565b6001600160a01b03838116600081815260016020908152604080832094871680845294825291829020805460ff191686151590811790915591519182527f17307eab39ab6107e8899845ad3d59bd9653f200f220920489ca2b5937696c31910160405180910390a3505050565b600080611b77600185612a36565b90506000611b86600185612a36565b90506000611b95600684612a58565b905060006006611ba58186612a79565b611baf9190612a58565b90506000611bbe602486612a79565b90506000611bcd600686612a58565b905060006006611bdd8188612a79565b611be79190612a58565b90506000611bf6602488612a79565b90508060010b8460010b13611c1457611c0f8482612a9a565b611c1e565b611c1e8185612a9a565b8260010b8660010b13611c3a57611c358684612a9a565b611c44565b611c448387612a9a565b8460010b8860010b13611c6057611c5b8886612a9a565b611c6a565b611c6a8589612a9a565b611c749190612abd565b611c7e9190612abd565b61ffff166001149850505050505050505092915050565b80611ca03385610476565b1015611ce35760405162461bcd60e51b8152602060048201526012602482015271496e73756666696369656e7420756e69747360701b6044820152606401610502565b611cee338483611a6b565b611d0933838360405180602001604052806000815250611e5f565b336000818152600b602090815260408083208684529091529020439055611d309084610476565b600003611d59576000838152600d602090815260408083203384529091529020805460ff191690555b6000828152600d6020908152604080832033845290915290205460ff1661178d576000828152600c602090815260408083208054600181810183559185528385200180546001600160a01b03191633908117909155868552600d8452828520908552909252909120805460ff19169091179055505050565b6001600160a01b038416611dfb57604051632bfa23e760e11b815260006004820152602401610502565b6001600160a01b038516611e2457604051626a0d4560e21b815260006004820152602401610502565b60408051600180825260208201869052818301908152606082018590526080820190925290611e568787848487611eb8565b50505050505050565b6001600160a01b038416611e8957604051632bfa23e760e11b815260006004820152602401610502565b604080516001808252602082018690528183019081526060820185905260808201909252906108856000878484875b611ec485858585611f0b565b6001600160a01b038416156117f25782513390600103611efd5760208481015190840151611ef683898985858961211f565b5050610885565b610885818787878787612243565b8051825114611f3a5781518151604051635b05999160e01b815260048101929092526024820152604401610502565b3360005b8351811015612040576020818102858101820151908501909101516001600160a01b03881615611ff1576000828152602081815260408083206001600160a01b038c16845290915290205481811015611fca576040516303dee4c560e01b81526001600160a01b038a166004820152602481018290526044810183905260648101849052608401610502565b6000838152602081815260408083206001600160a01b038d16845290915290209082900390555b6001600160a01b03871615612036576000828152602081815260408083206001600160a01b038b168452909152812080548392906120309084906129ba565b90915550505b5050600101611f3e565b5082516001036120c15760208301516000906020840151909150856001600160a01b0316876001600160a01b0316846001600160a01b03167fc3d58168c5ae7397731d063d5bbf3d657854427343f4c083240f7aacaa2d0f6285856040516120b2929190918252602082015260400190565b60405180910390a450506117f2565b836001600160a01b0316856001600160a01b0316826001600160a01b03167f4a39dc06d4c0dbc64b70af90fd698a233a518aa5d07e595d983b8c0526c8f7fb8686604051612110929190612ae0565b60405180910390a45050505050565b6001600160a01b0384163b156108855760405163f23a6e6160e01b81526001600160a01b0385169063f23a6e61906121639089908990889088908890600401612b0e565b6020604051808303816000875af192505050801561219e575060408051601f3d908101601f1916820190925261219b91810190612b53565b60015b612207573d8080156121cc576040519150601f19603f3d011682016040523d82523d6000602084013e6121d1565b606091505b5080516000036121ff57604051632bfa23e760e11b81526001600160a01b0386166004820152602401610502565b805160208201fd5b6001600160e01b0319811663f23a6e6160e01b14611e5657604051632bfa23e760e11b81526001600160a01b0386166004820152602401610502565b6001600160a01b0384163b156108855760405163bc197c8160e01b81526001600160a01b0385169063bc197c81906122879089908990889088908890600401612b70565b6020604051808303816000875af19250505080156122c2575060408051601f3d908101601f191682019092526122bf91810190612b53565b60015b6122f0573d8080156121cc576040519150601f19603f3d011682016040523d82523d6000602084013e6121d1565b6001600160e01b0319811663bc197c8160e01b14611e5657604051632bfa23e760e11b81526001600160a01b0386166004820152602401610502565b80356001600160a01b038116811461234357600080fd5b919050565b6000806040838503121561235b57600080fd5b6123648361232c565b946020939093013593505050565b6001600160e01b03198116811461165d57600080fd5b60006020828403121561239a57600080fd5b813561128381612372565b803561ffff8116811461234357600080fd5b600080604083850312156123ca57600080fd5b612364836123a5565b6000602082840312156123e557600080fd5b5035919050565b6000815180845260005b81811015612412576020818501810151868301820152016123f6565b506000602082860101526020601f19601f83011685010191505092915050565b60208152600061128360208301846123ec565b634e487b7160e01b600052604160045260246000fd5b604051601f8201601f1916810167ffffffffffffffff8111828210171561248457612484612445565b604052919050565b600067ffffffffffffffff8211156124a6576124a6612445565b5060051b60200190565b600082601f8301126124c157600080fd5b813560206124d66124d18361248c565b61245b565b8083825260208201915060208460051b8701019350868411156124f857600080fd5b602086015b8481101561251457803583529183019183016124fd565b509695505050505050565b600082601f83011261253057600080fd5b813567ffffffffffffffff81111561254a5761254a612445565b61255d601f8201601f191660200161245b565b81815284602083860101111561257257600080fd5b816020850160208301376000918101602001919091529392505050565b600080600080600060a086880312156125a757600080fd5b6125b08661232c565b94506125be6020870161232c565b9350604086013567ffffffffffffffff808211156125db57600080fd5b6125e789838a016124b0565b945060608801359150808211156125fd57600080fd5b61260989838a016124b0565b9350608088013591508082111561261f57600080fd5b5061262c8882890161251f565b9150509295509295909350565b6000806040838503121561264c57600080fd5b823567ffffffffffffffff8082111561266457600080fd5b818501915085601f83011261267857600080fd5b813560206126886124d18361248c565b82815260059290921b840181019181810190898411156126a757600080fd5b948201945b838610156126cc576126bd8661232c565b825294820194908201906126ac565b965050860135925050808211156126e257600080fd5b506126ef858286016124b0565b9150509250929050565b60008151808452602080850194506020840160005b8381101561272a5781518752958201959082019060010161270e565b509495945050505050565b60208152600061128360208301846126f9565b6000806000806080858703121561275e57600080fd5b6127678561232c565b9350612775602086016123a5565b93969395505050506040820135916060013590565b801515811461165d57600080fd5b600080604083850312156127ab57600080fd5b6127b48361232c565b915060208301356127c48161278a565b809150509250929050565b600080600080608085870312156127e557600080fd5b612767856123a5565b6000806040838503121561280157600080fd5b61280a8361232c565b91506128186020840161232c565b90509250929050565b60006020828403121561283357600080fd5b611283826123a5565b602080825282518282018190526000919060409081850190868401855b828110156128a657815180516001600160a01b0316855286810151878601528581015186860152606080820151908601526080908101519085015260a09093019290850190600101612859565b5091979650505050505050565b600080600080600060a086880312156128cb57600080fd5b6128d48661232c565b94506128e26020870161232c565b93506040860135925060608601359150608086013567ffffffffffffffff81111561290c57600080fd5b61262c8882890161251f565b60006020828403121561292a57600080fd5b6112838261232c565b634e487b7160e01b600052601160045260246000fd5b808202811582820484141761049857610498612933565b60006020828403121561297257600080fd5b81516112838161278a565b634e487b7160e01b600052601260045260246000fd5b6000826129a2576129a261297d565b500490565b8181038181111561049857610498612933565b8082018082111561049857610498612933565b600181811c908216806129e157607f821691505b602082108103612a0157634e487b7160e01b600052602260045260246000fd5b50919050565b634e487b7160e01b600052603260045260246000fd5b600060018201612a2f57612a2f612933565b5060010190565b61ffff828116828216039080821115612a5157612a51612933565b5092915050565b600061ffff80841680612a6d57612a6d61297d565b92169190910692915050565b600061ffff80841680612a8e57612a8e61297d565b92169190910492915050565b600182810b9082900b03617fff198112617fff8213171561049857610498612933565b600181810b9083900b01617fff8113617fff198212171561049857610498612933565b604081526000612af360408301856126f9565b8281036020840152612b0581856126f9565b95945050505050565b6001600160a01b03868116825285166020820152604081018490526060810183905260a060808201819052600090612b48908301846123ec565b979650505050505050565b600060208284031215612b6557600080fd5b815161128381612372565b6001600160a01b0386811682528516602082015260a060408201819052600090612b9c908301866126f9565b8281036060840152612bae81866126f9565b90508281036080840152612bc281856123ec565b9897505050505050505056fea26469706673582212205ef48edebc7bdce5b98e87c91121b1727b322b39167eb8b9dc48b2ebb870848964736f6c6343000818003368747470733a2f2f6170692e6b696c6c67616d652e61692f6d657461646174612f7b69647d2e6a736f6e",
  "linkReferences": {},
  "deployedLinkReferences": {}
}