{
  "_format": "hh-sol-artifact-1",
  "contractName": "KILLGame",
  "sourceName": "contracts/KillGame.sol",
  "abi": [
    {
      "inputs": [
        {
          "internalType": "address",
          "name": "_tokenAddress",
          "type": "address"
        }
      ],
      "stateMutability": "nonpayable",
      "type": "constructor"
    },
    {
      "inputs": [
        {
          "internalType": "address",
          "name": "target",
          "type": "address"
        }
      ],
      "name": "AddressEmptyCode",
      "type": "error"
    },
    {
      "inputs": [
        {
          "internalType": "address",
          "name": "sender",
          "type": "address"
        },
        {
          "internalType": "uint256",
          "name": "balance",
          "type": "uint256"
        },
        {
          "internalType": "uint256",
          "name": "needed",
          "type": "uint256"
        },
        {
          "internalType": "uint256",
          "name": "tokenId",
          "type": "uint256"
        }
      ],
      "name": "ERC1155InsufficientBalance",
      "type": "error"
    },
    {
      "inputs": [
        {
          "internalType": "address",
          "name": "approver",
          "type": "address"
        }
      ],
      "name": "ERC1155InvalidApprover",
      "type": "error"
    },
    {
      "inputs": [
        {
          "internalType": "uint256",
          "name": "idsLength",
          "type": "uint256"
        },
        {
          "internalType": "uint256",
          "name": "valuesLength",
          "type": "uint256"
        }
      ],
      "name": "ERC1155InvalidArrayLength",
      "type": "error"
    },
    {
      "inputs": [
        {
          "internalType": "address",
          "name": "operator",
          "type": "address"
        }
      ],
      "name": "ERC1155InvalidOperator",
      "type": "error"
    },
    {
      "inputs": [
        {
          "internalType": "address",
          "name": "receiver",
          "type": "address"
        }
      ],
      "name": "ERC1155InvalidReceiver",
      "type": "error"
    },
    {
      "inputs": [
        {
          "internalType": "address",
          "name": "sender",
          "type": "address"
        }
      ],
      "name": "ERC1155InvalidSender",
      "type": "error"
    },
    {
      "inputs": [
        {
          "internalType": "address",
          "name": "operator",
          "type": "address"
        },
        {
          "internalType": "address",
          "name": "owner",
          "type": "address"
        }
      ],
      "name": "ERC1155MissingApprovalForAll",
      "type": "error"
    },
    {
      "inputs": [],
      "name": "FailedCall",
      "type": "error"
    },
    {
      "inputs": [
        {
          "internalType": "address",
          "name": "owner",
          "type": "address"
        }
      ],
      "name": "OwnableInvalidOwner",
      "type": "error"
    },
    {
      "inputs": [
        {
          "internalType": "address",
          "name": "account",
          "type": "address"
        }
      ],
      "name": "OwnableUnauthorizedAccount",
      "type": "error"
    },
    {
      "inputs": [],
      "name": "ReentrancyGuardReentrantCall",
      "type": "error"
    },
    {
      "anonymous": false,
      "inputs": [
        {
          "indexed": true,
          "internalType": "address",
          "name": "account",
          "type": "address"
        },
        {
          "indexed": true,
          "internalType": "address",
          "name": "operator",
          "type": "address"
        },
        {
          "indexed": false,
          "internalType": "bool",
          "name": "approved",
          "type": "bool"
        }
      ],
      "name": "ApprovalForAll",
      "type": "event"
    },
    {
      "anonymous": false,
      "inputs": [
        {
          "indexed": true,
          "internalType": "address",
          "name": "defender",
          "type": "address"
        },
        {
          "indexed": false,
          "internalType": "uint256",
          "name": "amount",
          "type": "uint256"
        }
      ],
      "name": "DefenderRewarded",
      "type": "event"
    },
    {
      "anonymous": false,
      "inputs": [
        {
          "indexed": false,
          "internalType": "uint256",
          "name": "totalUnitsKilled",
          "type": "uint256"
        },
        {
          "indexed": false,
          "internalType": "uint256",
          "name": "totalReaperKilled",
          "type": "uint256"
        },
        {
          "indexed": false,
          "internalType": "uint256",
          "name": "killAdded",
          "type": "uint256"
        },
        {
          "indexed": false,
          "internalType": "uint256",
          "name": "killExtracted",
          "type": "uint256"
        },
        {
          "indexed": false,
          "internalType": "uint256",
          "name": "killBurned",
          "type": "uint256"
        }
      ],
      "name": "GlobalStats",
      "type": "event"
    },
    {
      "anonymous": false,
      "inputs": [
        {
          "indexed": true,
          "internalType": "address",
          "name": "attacker",
          "type": "address"
        },
        {
          "indexed": true,
          "internalType": "address",
          "name": "target",
          "type": "address"
        },
        {
          "indexed": true,
          "internalType": "uint16",
          "name": "stackId",
          "type": "uint16"
        },
        {
          "components": [
            {
              "internalType": "uint256",
              "name": "attackerUnitsSent",
              "type": "uint256"
            },
            {
              "internalType": "uint256",
              "name": "attackerReaperSent",
              "type": "uint256"
            },
            {
              "internalType": "uint256",
              "name": "attackerUnitsLost",
              "type": "uint256"
            },
            {
              "internalType": "uint256",
              "name": "attackerReaperLost",
              "type": "uint256"
            },
            {
              "internalType": "uint256",
              "name": "targetUnitsLost",
              "type": "uint256"
            },
            {
              "internalType": "uint256",
              "name": "targetReaperLost",
              "type": "uint256"
            },
            {
              "internalType": "uint256",
              "name": "initialDefenderUnits",
              "type": "uint256"
            },
            {
              "internalType": "uint256",
              "name": "initialDefenderReaper",
              "type": "uint256"
            },
            {
              "internalType": "uint256",
              "name": "attackerBounty",
              "type": "uint256"
            },
            {
              "internalType": "uint256",
              "name": "defenderBounty",
              "type": "uint256"
            }
          ],
          "indexed": false,
          "internalType": "struct KILLGame.BattleSummary",
          "name": "summary",
          "type": "tuple"
        },
        {
          "indexed": false,
          "internalType": "uint256",
          "name": "targetBirthBlock",
          "type": "uint256"
        }
      ],
      "name": "Killed",
      "type": "event"
    },
    {
      "anonymous": false,
      "inputs": [
        {
          "indexed": true,
          "internalType": "address",
          "name": "agent",
          "type": "address"
        },
        {
          "indexed": false,
          "internalType": "uint16",
          "name": "fromStack",
          "type": "uint16"
        },
        {
          "indexed": false,
          "internalType": "uint16",
          "name": "toStack",
          "type": "uint16"
        },
        {
          "indexed": false,
          "internalType": "uint256",
          "name": "units",
          "type": "uint256"
        },
        {
          "indexed": false,
          "internalType": "uint256",
          "name": "reaper",
          "type": "uint256"
        },
        {
          "indexed": false,
          "internalType": "uint256",
          "name": "birthBlock",
          "type": "uint256"
        }
      ],
      "name": "Moved",
      "type": "event"
    },
    {
      "anonymous": false,
      "inputs": [
        {
          "indexed": true,
          "internalType": "address",
          "name": "previousOwner",
          "type": "address"
        },
        {
          "indexed": true,
          "internalType": "address",
          "name": "newOwner",
          "type": "address"
        }
      ],
      "name": "OwnershipTransferred",
      "type": "event"
    },
    {
      "anonymous": false,
      "inputs": [
        {
          "indexed": true,
          "internalType": "address",
          "name": "agent",
          "type": "address"
        },
        {
          "indexed": true,
          "internalType": "uint256",
          "name": "stackId",
          "type": "uint256"
        },
        {
          "indexed": false,
          "internalType": "uint256",
          "name": "units",
          "type": "uint256"
        },
        {
          "indexed": false,
          "internalType": "uint256",
          "name": "reapers",
          "type": "uint256"
        },
        {
          "indexed": false,
          "internalType": "uint256",
          "name": "birthBlock",
          "type": "uint256"
        }
      ],
      "name": "Spawned",
      "type": "event"
    },
    {
      "anonymous": false,
      "inputs": [
        {
          "indexed": true,
          "internalType": "address",
          "name": "operator",
          "type": "address"
        },
        {
          "indexed": true,
          "internalType": "address",
          "name": "from",
          "type": "address"
        },
        {
          "indexed": true,
          "internalType": "address",
          "name": "to",
          "type": "address"
        },
        {
          "indexed": false,
          "internalType": "uint256[]",
          "name": "ids",
          "type": "uint256[]"
        },
        {
          "indexed": false,
          "internalType": "uint256[]",
          "name": "values",
          "type": "uint256[]"
        }
      ],
      "name": "TransferBatch",
      "type": "event"
    },
    {
      "anonymous": false,
      "inputs": [
        {
          "indexed": true,
          "internalType": "address",
          "name": "operator",
          "type": "address"
        },
        {
          "indexed": true,
          "internalType": "address",
          "name": "from",
          "type": "address"
        },
        {
          "indexed": true,
          "internalType": "address",
          "name": "to",
          "type": "address"
        },
        {
          "indexed": false,
          "internalType": "uint256",
          "name": "id",
          "type": "uint256"
        },
        {
          "indexed": false,
          "internalType": "uint256",
          "name": "value",
          "type": "uint256"
        }
      ],
      "name": "TransferSingle",
      "type": "event"
    },
    {
      "anonymous": false,
      "inputs": [
        {
          "indexed": false,
          "internalType": "uint256",
          "name": "oldBps",
          "type": "uint256"
        },
        {
          "indexed": false,
          "internalType": "uint256",
          "name": "newBps",
          "type": "uint256"
        }
      ],
      "name": "TreasuryBpsUpdated",
      "type": "event"
    },
    {
      "anonymous": false,
      "inputs": [
        {
          "indexed": false,
          "internalType": "string",
          "name": "value",
          "type": "string"
        },
        {
          "indexed": true,
          "internalType": "uint256",
          "name": "id",
          "type": "uint256"
        }
      ],
      "name": "URI",
      "type": "event"
    },
    {
      "inputs": [],
      "name": "BLOCKS_PER_MULTIPLIER",
      "outputs": [
        {
          "internalType": "uint256",
          "name": "",
          "type": "uint256"
        }
      ],
      "stateMutability": "view",
      "type": "function"
    },
    {
      "inputs": [],
      "name": "BURN_BPS",
      "outputs": [
        {
          "internalType": "uint256",
          "name": "",
          "type": "uint256"
        }
      ],
      "stateMutability": "view",
      "type": "function"
    },
    {
      "inputs": [],
      "name": "GLOBAL_CAP_BPS",
      "outputs": [
        {
          "internalType": "uint256",
          "name": "",
          "type": "uint256"
        }
      ],
      "stateMutability": "view",
      "type": "function"
    },
    {
      "inputs": [],
      "name": "MAX_MULTIPLIER",
      "outputs": [
        {
          "internalType": "uint256",
          "name": "",
          "type": "uint256"
        }
      ],
      "stateMutability": "view",
      "type": "function"
    },
    {
      "inputs": [],
      "name": "MOVE_COST",
      "outputs": [
        {
          "internalType": "uint256",
          "name": "",
          "type": "uint256"
        }
      ],
      "stateMutability": "view",
      "type": "function"
    },
    {
      "inputs": [],
      "name": "SPAWN_COST_PER_POWER",
      "outputs": [
        {
          "internalType": "uint256",
          "name": "",
          "type": "uint256"
        }
      ],
      "stateMutability": "view",
      "type": "function"
    },
    {
      "inputs": [],
      "name": "THERMAL_PARITY",
      "outputs": [
        {
          "internalType": "uint256",
          "name": "",
          "type": "uint256"
        }
      ],
      "stateMutability": "view",
      "type": "function"
    },
    {
      "inputs": [
        {
          "internalType": "uint256",
          "name": "amt",
          "type": "uint256"
        }
      ],
      "name": "adminWithdraw",
      "outputs": [],
      "stateMutability": "nonpayable",
      "type": "function"
    },
    {
      "inputs": [
        {
          "internalType": "address",
          "name": "",
          "type": "address"
        },
        {
          "internalType": "uint256",
          "name": "",
          "type": "uint256"
        }
      ],
      "name": "agentStacks",
      "outputs": [
        {
          "internalType": "uint256",
          "name": "birthBlock",
          "type": "uint256"
        }
      ],
      "stateMutability": "view",
      "type": "function"
    },
    {
      "inputs": [
        {
          "internalType": "address",
          "name": "",
          "type": "address"
        }
      ],
      "name": "agentTotalProfit",
      "outputs": [
        {
          "internalType": "uint256",
          "name": "",
          "type": "uint256"
        }
      ],
      "stateMutability": "view",
      "type": "function"
    },
    {
      "inputs": [
        {
          "internalType": "address",
          "name": "account",
          "type": "address"
        },
        {
          "internalType": "uint256",
          "name": "id",
          "type": "uint256"
        }
      ],
      "name": "balanceOf",
      "outputs": [
        {
          "internalType": "uint256",
          "name": "",
          "type": "uint256"
        }
      ],
      "stateMutability": "view",
      "type": "function"
    },
    {
      "inputs": [
        {
          "internalType": "address[]",
          "name": "accounts",
          "type": "address[]"
        },
        {
          "internalType": "uint256[]",
          "name": "ids",
          "type": "uint256[]"
        }
      ],
      "name": "balanceOfBatch",
      "outputs": [
        {
          "internalType": "uint256[]",
          "name": "",
          "type": "uint256[]"
        }
      ],
      "stateMutability": "view",
      "type": "function"
    },
    {
      "inputs": [
        {
          "internalType": "address",
          "name": "agent",
          "type": "address"
        },
        {
          "internalType": "uint256",
          "name": "id",
          "type": "uint256"
        }
      ],
      "name": "getBirthBlock",
      "outputs": [
        {
          "internalType": "uint256",
          "name": "",
          "type": "uint256"
        }
      ],
      "stateMutability": "view",
      "type": "function"
    },
    {
      "inputs": [
        {
          "internalType": "uint16",
          "name": "stackId",
          "type": "uint16"
        }
      ],
      "name": "getFullStack",
      "outputs": [
        {
          "components": [
            {
              "internalType": "address",
              "name": "occupant",
              "type": "address"
            },
            {
              "internalType": "uint256",
              "name": "units",
              "type": "uint256"
            },
            {
              "internalType": "uint256",
              "name": "reapers",
              "type": "uint256"
            },
            {
              "internalType": "uint256",
              "name": "age",
              "type": "uint256"
            },
            {
              "internalType": "uint256",
              "name": "pendingBounty",
              "type": "uint256"
            }
          ],
          "internalType": "struct KILLGame.StackInfo[]",
          "name": "",
          "type": "tuple[]"
        }
      ],
      "stateMutability": "view",
      "type": "function"
    },
    {
      "inputs": [
        {
          "internalType": "address",
          "name": "agent",
          "type": "address"
        },
        {
          "internalType": "uint256",
          "name": "id",
          "type": "uint256"
        }
      ],
      "name": "getPendingBounty",
      "outputs": [
        {
          "internalType": "uint256",
          "name": "",
          "type": "uint256"
        }
      ],
      "stateMutability": "view",
      "type": "function"
    },
    {
      "inputs": [
        {
          "internalType": "address",
          "name": "account",
          "type": "address"
        },
        {
          "internalType": "address",
          "name": "operator",
          "type": "address"
        }
      ],
      "name": "isApprovedForAll",
      "outputs": [
        {
          "internalType": "bool",
          "name": "",
          "type": "bool"
        }
      ],
      "stateMutability": "view",
      "type": "function"
    },
    {
      "inputs": [
        {
          "internalType": "address",
          "name": "target",
          "type": "address"
        },
        {
          "internalType": "uint16",
          "name": "stackId",
          "type": "uint16"
        },
        {
          "internalType": "uint256",
          "name": "sentUnits",
          "type": "uint256"
        },
        {
          "internalType": "uint256",
          "name": "sentReaper",
          "type": "uint256"
        }
      ],
      "name": "kill",
      "outputs": [
        {
          "internalType": "uint256",
          "name": "attackerBounty",
          "type": "uint256"
        }
      ],
      "stateMutability": "nonpayable",
      "type": "function"
    },
    {
      "inputs": [],
      "name": "killToken",
      "outputs": [
        {
          "internalType": "contract IERC20",
          "name": "",
          "type": "address"
        }
      ],
      "stateMutability": "view",
      "type": "function"
    },
    {
      "inputs": [
        {
          "internalType": "uint16",
          "name": "fromStack",
          "type": "uint16"
        },
        {
          "internalType": "uint16",
          "name": "toStack",
          "type": "uint16"
        },
        {
          "internalType": "uint256",
          "name": "units",
          "type": "uint256"
        },
        {
          "internalType": "uint256",
          "name": "reaper",
          "type": "uint256"
        }
      ],
      "name": "move",
      "outputs": [],
      "stateMutability": "nonpayable",
      "type": "function"
    },
    {
      "inputs": [
        {
          "internalType": "bytes[]",
          "name": "data",
          "type": "bytes[]"
        }
      ],
      "name": "multicall",
      "outputs": [
        {
          "internalType": "bytes[]",
          "name": "results",
          "type": "bytes[]"
        }
      ],
      "stateMutability": "nonpayable",
      "type": "function"
    },
    {
      "inputs": [],
      "name": "owner",
      "outputs": [
        {
          "internalType": "address",
          "name": "",
          "type": "address"
        }
      ],
      "stateMutability": "view",
      "type": "function"
    },
    {
      "inputs": [],
      "name": "renounceOwnership",
      "outputs": [],
      "stateMutability": "nonpayable",
      "type": "function"
    },
    {
      "inputs": [
        {
          "internalType": "address",
          "name": "from",
          "type": "address"
        },
        {
          "internalType": "address",
          "name": "to",
          "type": "address"
        },
        {
          "internalType": "uint256[]",
          "name": "ids",
          "type": "uint256[]"
        },
        {
          "internalType": "uint256[]",
          "name": "values",
          "type": "uint256[]"
        },
        {
          "internalType": "bytes",
          "name": "data",
          "type": "bytes"
        }
      ],
      "name": "safeBatchTransferFrom",
      "outputs": [],
      "stateMutability": "nonpayable",
      "type": "function"
    },
    {
      "inputs": [
        {
          "internalType": "address",
          "name": "from",
          "type": "address"
        },
        {
          "internalType": "address",
          "name": "to",
          "type": "address"
        },
        {
          "internalType": "uint256",
          "name": "id",
          "type": "uint256"
        },
        {
          "internalType": "uint256",
          "name": "value",
          "type": "uint256"
        },
        {
          "internalType": "bytes",
          "name": "data",
          "type": "bytes"
        }
      ],
      "name": "safeTransferFrom",
      "outputs": [],
      "stateMutability": "nonpayable",
      "type": "function"
    },
    {
      "inputs": [
        {
          "internalType": "address",
          "name": "operator",
          "type": "address"
        },
        {
          "internalType": "bool",
          "name": "approved",
          "type": "bool"
        }
      ],
      "name": "setApprovalForAll",
      "outputs": [],
      "stateMutability": "nonpayable",
      "type": "function"
    },
    {
      "inputs": [
        {
          "internalType": "uint256",
          "name": "_newBps",
          "type": "uint256"
        }
      ],
      "name": "setTreasuryBps",
      "outputs": [],
      "stateMutability": "nonpayable",
      "type": "function"
    },
    {
      "inputs": [
        {
          "internalType": "uint16",
          "name": "stackId",
          "type": "uint16"
        },
        {
          "internalType": "uint256",
          "name": "amount",
          "type": "uint256"
        }
      ],
      "name": "spawn",
      "outputs": [],
      "stateMutability": "nonpayable",
      "type": "function"
    },
    {
      "inputs": [
        {
          "internalType": "bytes4",
          "name": "id",
          "type": "bytes4"
        }
      ],
      "name": "supportsInterface",
      "outputs": [
        {
          "internalType": "bool",
          "name": "",
          "type": "bool"
        }
      ],
      "stateMutability": "view",
      "type": "function"
    },
    {
      "inputs": [],
      "name": "totalKillAdded",
      "outputs": [
        {
          "internalType": "uint256",
          "name": "",
          "type": "uint256"
        }
      ],
      "stateMutability": "view",
      "type": "function"
    },
    {
      "inputs": [],
      "name": "totalKillBurned",
      "outputs": [
        {
          "internalType": "uint256",
          "name": "",
          "type": "uint256"
        }
      ],
      "stateMutability": "view",
      "type": "function"
    },
    {
      "inputs": [],
      "name": "totalKillExtracted",
      "outputs": [
        {
          "internalType": "uint256",
          "name": "",
          "type": "uint256"
        }
      ],
      "stateMutability": "view",
      "type": "function"
    },
    {
      "inputs": [],
      "name": "totalReaperKilled",
      "outputs": [
        {
          "internalType": "uint256",
          "name": "",
          "type": "uint256"
        }
      ],
      "stateMutability": "view",
      "type": "function"
    },
    {
      "inputs": [],
      "name": "totalUnitsKilled",
      "outputs": [
        {
          "internalType": "uint256",
          "name": "",
          "type": "uint256"
        }
      ],
      "stateMutability": "view",
      "type": "function"
    },
    {
      "inputs": [
        {
          "internalType": "address",
          "name": "newOwner",
          "type": "address"
        }
      ],
      "name": "transferOwnership",
      "outputs": [],
      "stateMutability": "nonpayable",
      "type": "function"
    },
    {
      "inputs": [],
      "name": "treasuryBps",
      "outputs": [
        {
          "internalType": "uint256",
          "name": "",
          "type": "uint256"
        }
      ],
      "stateMutability": "view",
      "type": "function"
    },
    {
      "inputs": [
        {
          "internalType": "uint256",
          "name": "",
          "type": "uint256"
        }
      ],
      "name": "uri",
      "outputs": [
        {
          "internalType": "string",
          "name": "",
          "type": "string"
        }
      ],
      "stateMutability": "view",
      "type": "function"
    }
  ],
  "bytecode": "0x60a060405260006005553480156200001657600080fd5b50604051620034ba380380620034ba833981016040819052620000399162000116565b336040518060600160405280602a815260200162003490602a91396200005f81620000b2565b5060016003556001600160a01b0381166200009457604051631e4fbdf760e01b81526000600482015260240160405180910390fd5b6200009f81620000c4565b506001600160a01b0316608052620002bb565b6002620000c08282620001ef565b5050565b600480546001600160a01b038381166001600160a01b0319831681179093556040519116919082907f8be0079c531659141344cd1fd0a4f28419497f9722a3daafe3b4186f6b6457e090600090a35050565b6000602082840312156200012957600080fd5b81516001600160a01b03811681146200014157600080fd5b9392505050565b634e487b7160e01b600052604160045260246000fd5b600181811c908216806200017357607f821691505b6020821081036200019457634e487b7160e01b600052602260045260246000fd5b50919050565b601f821115620001ea576000816000526020600020601f850160051c81016020861015620001c55750805b601f850160051c820191505b81811015620001e657828155600101620001d1565b5050505b505050565b81516001600160401b038111156200020b576200020b62000148565b62000223816200021c84546200015e565b846200019a565b602080601f8311600181146200025b5760008415620002425750858301515b600019600386901b1c1916600185901b178555620001e6565b600085815260208120601f198616915b828110156200028c578886015182559484019460019091019084016200026b565b5085821015620002ab5787850151600019600388901b60f8161c191681555b5050505050600190811b01905550565b608051613196620002fa600039600081816102a3015281816105f50152818161094f01528181610ea0015281816110d6015261218301526131966000f3fe608060405234801561001057600080fd5b506004361061021b5760003560e01c80637c5b4a3711610125578063bb6eb359116100ad578063ea075ee11161007c578063ea075ee114610479578063edbd5df81461048c578063ef0a1311146104b7578063f242432a146104d7578063f2fde38b146104ea57600080fd5b8063bb6eb35914610420578063c68e807514610433578063e74fe23714610453578063e985e9c51461046657600080fd5b806394456848116100f45780639445684814610368578063a22cb465146103b7578063a37a9fc01461032b578063ac9650d8146103ca578063b8011328146103ea57600080fd5b80637c5b4a371461037757806388b00adc1461038a5780638da5cb5b1461039357806391fa2a6a146103a457600080fd5b80634e1273f4116101a857806366d8153f1161017757806366d8153f146103455780636ba375151461034e578063715018a614610357578063781298821461035f57806379a9ed591461036857600080fd5b80634e1273f41461030b578063523c686a1461032b5780635635fdbc146103345780635d6a618d1461033d57600080fd5b80632bd7cd17116101ef5780632bd7cd171461029e5780632eb2c2d6146102dd5780632ee8174e146102f05780633e984e48146102f95780634dc10ea11461030257600080fd5b8062fdd58e1461022057806301ffc9a71461024657806309f61826146102695780630e89341c1461027e575b600080fd5b61023361022e366004612756565b6104fd565b6040519081526020015b60405180910390f35b610259610254366004612796565b610525565b604051901515815260200161023d565b61027c6102773660046127c5565b610530565b005b61029161028c3660046127e1565b61074f565b60405161023d919061284a565b6102c57f000000000000000000000000000000000000000000000000000000000000000081565b6040516001600160a01b03909116815260200161023d565b61027c6102eb3660046129a7565b6107e3565b61023360075481565b6102336109c481565b61023360055481565b61031e610319366004612a51565b61084a565b60405161023d9190612b4d565b61023361029a81565b61023360095481565b610233601481565b61023360085481565b61023361043881565b61027c610917565b61023360065481565b610233678ac7230489e8000081565b61027c6103853660046127e1565b61092b565b610233600a5481565b6004546001600160a01b03166102c5565b6102336103b2366004612b60565b6109c4565b61027c6103c5366004612bb0565b610c70565b6103dd6103d8366004612be7565b610c7b565b60405161023d9190612c5c565b6102336103f8366004612756565b6001600160a01b03919091166000908152600b60209081526040808320938352929052205490565b61027c61042e3660046127e1565b610d63565b610233610441366004612cc0565b600e6020526000908152604090205481565b61027c610461366004612cdb565b610ded565b610259610474366004612cfa565b611026565b610233610487366004612756565b611054565b61023361049a366004612756565b600b60209081526000928352604080842090915290825290205481565b6104ca6104c5366004612d2d565b611216565b60405161023d9190612d48565b61027c6104e5366004612dbf565b6114ad565b61027c6104f8366004612cc0565b61150c565b6000818152602081815260408083206001600160a01b03861684529091529020545b92915050565b600061051f8261154a565b61053861159a565b60008261ffff16118015610551575060d88261ffff1611155b6105925760405162461bcd60e51b815260206004820152600d60248201526c496e76616c696420537461636b60981b60448201526064015b60405180910390fd5b60006105a061029a83612e50565b905060006105b08261029a612e64565b6105ba9084612e7b565b905060006105d0678ac7230489e8000083612e64565b6040516323b872dd60e01b8152336004820152306024820152604481018290529091507f00000000000000000000000000000000000000000000000000000000000000006001600160a01b0316906323b872dd906064016020604051808303816000875af1158015610646573d6000803e3d6000fd5b505050506040513d601f19601f8201168201806040525081019061066a9190612e8e565b6106a15760405162461bcd60e51b815260206004820152600860248201526714185e4819985a5b60c21b6044820152606401610589565b60088054820190556106b83361ffff8716866115c4565b82156106d7576106d7336106d161ffff881660d8612e7b565b856115c4565b336000818152600b6020908152604080832061ffff8a168085529083529281902054815189815292830188905282820152519192917faf4ea7c0f51d4c33144122655ecd0051aa44b546b9daa750ab0d9144f3ed637e9181900360600190a361073e6116bb565b50505061074b6001600355565b5050565b60606002805461075e90612eab565b80601f016020809104026020016040519081016040528092919081815260200182805461078a90612eab565b80156107d75780601f106107ac576101008083540402835291602001916107d7565b820191906000526020600020905b8154815290600101906020018083116107ba57829003601f168201915b50505050509050919050565b336001600160a01b038616811480159061080457506108028682611026565b155b156108355760405163711bec9160e11b81526001600160a01b03808316600483015287166024820152604401610589565b6108428686868686611717565b505050505050565b6060815183511461087b5781518351604051635b05999160e01b815260048101929092526024820152604401610589565b6000835167ffffffffffffffff8111156108975761089761285d565b6040519080825280602002602001820160405280156108c0578160200160208202803683370190505b50905060005b845181101561090f576020808202860101516108ea906020808402870101516104fd565b8282815181106108fc576108fc612ee5565b60209081029190910101526001016108c6565b509392505050565b61091f61177e565b61092960006117ab565b565b61093361177e565b60405163a9059cbb60e01b8152336004820152602481018290527f00000000000000000000000000000000000000000000000000000000000000006001600160a01b03169063a9059cbb906044016020604051808303816000875af11580156109a0573d6000803e3d6000fd5b505050506040513d601f19601f8201168201806040525081019061074b9190612e8e565b60006109ce61159a565b61ffff841660006109e08260d8612e7b565b9050846109ed33846104fd565b10158015610a04575083610a0133836104fd565b10155b610a3d5760405162461bcd60e51b815260206004820152600a6024820152694c61636b20756e69747360b01b6044820152606401610589565b6001600160a01b0387163303610a885760405162461bcd60e51b815260206004820152601060248201526f21b0b73737ba1035b4b6361039b2b63360811b6044820152606401610589565b610ade604051806101400160405280600081526020016000815260200160008152602001600081526020016000815260200160008152602001600081526020016000815260200160008152602001600081525090565b85815260208101859052610af288846104fd565b60c0820152610b0188836104fd565b60e08201526001600160a01b0388166000908152600b6020908152604080832086845290915281205490610b388a86868b8b6117fd565b8051604080860191909152602082015160608087019190915290820151608086015281015160a08501529050610b708a868386611920565b6040820151825160068054919092010190556060820151602083015160078054919092010190559550610ba6338b878785611adb565b6040805184518152602080860151908201528482015181830152606080860151908201526080808601519082015260a0808601519082015260c0808601519082015260e08086015190820152610100808601519082015261012080860151908201526101408101849052905161ffff8b16916001600160a01b038d169133917f2c0ba6eda9140ba04ab07a25239250d2664c08a013d3ec03f3ec6f014f21a53991908190036101600190a4610c596116bb565b5050505050610c686001600355565b949350505050565b61074b338383611bfe565b6040805160008152602081019091526060908267ffffffffffffffff811115610ca657610ca661285d565b604051908082528060200260200182016040528015610cd957816020015b6060815260200190600190039081610cc45790505b50915060005b83811015610d5b57610d3630868684818110610cfd57610cfd612ee5565b9050602002810190610d0f9190612f0e565b85604051602001610d2293929190612f5c565b604051602081830303815290604052611c94565b838281518110610d4857610d48612ee5565b6020908102919091010152600101610cdf565b505092915050565b610d6b61177e565b612710811115610da85760405162461bcd60e51b81526020600482015260086024820152674d6178203130302560c01b6044820152606401610589565b600580549082905560408051828152602081018490527f6993bc581306fd40069a7f8d78fd994e52ce66bdacf741f949a3e4bdcf28ca80910160405180910390a15050565b610df561159a565b60008461ffff16118015610e0e575060d88461ffff1611155b8015610e1e575060008361ffff16115b8015610e2f575060d88361ffff1611155b8015610e405750610e408484611d0a565b610e775760405162461bcd60e51b8152602060048201526008602482015267426164206d6f766560c01b6044820152606401610589565b6040516323b872dd60e01b8152336004820152306024820152678ac7230489e8000060448201527f00000000000000000000000000000000000000000000000000000000000000006001600160a01b0316906323b872dd906064016020604051808303816000875af1158015610ef1573d6000803e3d6000fd5b505050506040513d601f19601f82011682018060405250810190610f159190612e8e565b610f4c5760405162461bcd60e51b815260206004820152600860248201526714185e4819985a5b60c21b6044820152606401610589565b60088054678ac7230489e800000190558115610f7557610f758461ffff168461ffff1684611e36565b8015610fa257610fa2610f8d61ffff861660d8612e7b565b610f9c61ffff861660d8612e7b565b83611e36565b336000818152600b6020908152604080832061ffff88811680865291845293829020548251948a1685529284015282018590526060820184905260808201527f377dc7145bd8ab426842504b448652c41dda00abb7f7c1df6bdfa40bd2a16f2c9060a00160405180910390a26110166116bb565b6110206001600355565b50505050565b6001600160a01b03918216600090815260016020908152604080832093909416825291909152205460ff1690565b6001600160a01b0382166000908152600b6020908152604080832084845290915281205480820361108957600091505061051f565b600060d8841161109957836110a4565b6110a460d885612efb565b905060006110b38260d8612e7b565b6040516370a0823160e01b81523060048201529091506000906001600160a01b037f000000000000000000000000000000000000000000000000000000000000000016906370a0823190602401602060405180830381865afa15801561111d573d6000803e3d6000fd5b505050506040513d601f19601f820116820180604052508101906111419190612f83565b9050600084431161115357600061115d565b61115d8543612efb565b9050600061116d61043883612e50565b611178906001612e7b565b90506014811115611187575060145b60006111938a866104fd565b61119f9061029a612e64565b6111a98b886104fd565b6111b39190612e7b565b905060006111c9678ac7230489e8000083612e64565b905060006111d78483612e64565b905060006127106111ea6109c489612e64565b6111f49190612e50565b90508082116112035781611205565b805b9d9c50505050505050505050505050565b606061ffff8216600061122a8260d8612e7b565b6000838152600c602090815260408083208054825181850281018501909352808352949550929390929183018282801561128d57602002820191906000526020600020905b81546001600160a01b0316815260019091019060200180831161126f575b505050505090506000805b825181101561130a57600d600086815260200190815260200160002060008483815181106112c8576112c8612ee5565b6020908102919091018101516001600160a01b031682528101919091526040016000205460ff161561130257816112fe81612f9c565b9250505b600101611298565b5060008167ffffffffffffffff8111156113265761132661285d565b60405190808252806020026020018201604052801561139257816020015b61137f6040518060a0016040528060006001600160a01b03168152602001600081526020016000815260200160008152602001600081525090565b8152602001906001900390816113445790505b5090506000805b84518110156114a05760008582815181106113b6576113b6612ee5565b60209081029190910181015160008a8152600d835260408082206001600160a01b0384168352909352919091205490915060ff1615611497576001600160a01b0381166000818152600b602090815260408083208c845282529182902054825160a08101909352928252810161142c848c6104fd565b815260200161143b848b6104fd565b815260200182431161144e576000611458565b6114588343612efb565b8152602001611467848c611054565b81525085858151811061147c5761147c612ee5565b6020026020010181905250838061149290612f9c565b945050505b50600101611399565b5090979650505050505050565b336001600160a01b03861681148015906114ce57506114cc8682611026565b155b156114ff5760405163711bec9160e11b81526001600160a01b03808316600483015287166024820152604401610589565b6108428686868686611f98565b61151461177e565b6001600160a01b03811661153e57604051631e4fbdf760e01b815260006004820152602401610589565b611547816117ab565b50565b60006001600160e01b03198216636cdb3d1360e11b148061157b57506001600160e01b031982166303a24d0760e21b145b8061051f57506301ffc9a760e01b6001600160e01b031983161461051f565b6002600354036115bd57604051633ee5aeb560e01b815260040160405180910390fd5b6002600355565b6115df83838360405180602001604052806000815250612026565b6001600160a01b0383166000908152600b602090815260408083208584529091528120549003611630576001600160a01b0383166000908152600b6020908152604080832085845290915290204390555b6000828152600d602090815260408083206001600160a01b038716845290915290205460ff166116b6576000828152600c602090815260408083208054600180820183559185528385200180546001600160a01b0319166001600160a01b038916908117909155868552600d8452828520908552909252909120805460ff191690911790555b505050565b600654600754600854600954600a546040805195865260208601949094528484019290925260608401526080830152517f6b8aeaa3365d2dfcb9acc94f0a7429b657b4f2008cfafb9b10297011e077c6509181900360a00190a1565b6001600160a01b03841661174157604051632bfa23e760e11b815260006004820152602401610589565b6001600160a01b03851661176a57604051626a0d4560e21b815260006004820152602401610589565b611777858585858561207f565b5050505050565b6004546001600160a01b031633146109295760405163118cdaa760e01b8152336004820152602401610589565b600480546001600160a01b038381166001600160a01b0319831681179093556040519116919082907f8be0079c531659141344cd1fd0a4f28419497f9722a3daafe3b4186f6b6457e090600090a35050565b6118286040518060800160405280600081526020016000815260200160008152602001600081525090565b60006118368361029a612e64565b6118409085612e7b565b9050600061184e88886104fd565b9050600061185c89886104fd565b90506000606461186e8361029a612e64565b6118789085612e7b565b61188390606e612e64565b61188d9190612e50565b90508060000361189b575060015b808411156118b6576040850183905260608501829052611913565b8685526020850186905260006118cc8580612e64565b905060006118da8380612e64565b9050806118e78387612e64565b6118f19190612e50565b6040880152806119018386612e64565b61190b9190612e50565b606088015250505b5050505095945050505050565b600080836060015161029a6119359190612e64565b84604001516119449190612e7b565b90506000846020015161029a61195a9190612e64565b85516119669190612e7b565b905060006119748284612e7b565b90508060000361198a5760009350505050610c68565b60006119968989611054565b9050600061029a8310156119c05761029a6119b18484612e64565b6119bb9190612e50565b6119c2565b815b905060006127106119d583611d4c612e64565b6119df9190612e50565b90508015611acd57836119f28783612e64565b6119fc9190612e50565b9650611a0833886120d2565b336000908152600e602052604081208054899290611a27908490612e7b565b909155506000905084611a3a8784612e64565b611a449190612e50565b9050611a508c826120d2565b6001600160a01b038c166000908152600e602052604081208054839290611a78908490612e7b565b9091555050610100890188905261012089018190526040518181526001600160a01b038d16907fdf7a5d9a98a2f71d704a4e6a4c0422d79ed27521ad9cfd55e985d5fb94cfaffe9060200160405180910390a2505b505050505050949350505050565b604081015115611af457611af48484836040015161222a565b606081015115611b0d57611b0d8483836060015161222a565b805115611b2357611b238584836000015161222a565b602081015115611b3c57611b3c8583836020015161222a565b611b4684846104fd565b158015611b5a5750611b5884836104fd565b155b15611b9a576000838152600d602090815260408083206001600160a01b03881684528252808320805460ff19169055600b82528083208684529091528120555b611ba485846104fd565b158015611bb85750611bb685836104fd565b155b15611777576000838152600d602090815260408083206001600160a01b03891684528252808320805460ff19169055600b82528083208684529091528120555050505050565b6001600160a01b038216611c275760405162ced3e160e81b815260006004820152602401610589565b6001600160a01b03838116600081815260016020908152604080832094871680845294825291829020805460ff191686151590811790915591519182527f17307eab39ab6107e8899845ad3d59bd9653f200f220920489ca2b5937696c31910160405180910390a3505050565b6060600080846001600160a01b031684604051611cb19190612fb5565b600060405180830381855af49150503d8060008114611cec576040519150601f19603f3d011682016040523d82523d6000602084013e611cf1565b606091505b5091509150611d01858383612292565b95945050505050565b600080611d18600185612fd1565b90506000611d27600185612fd1565b90506000611d36600684612ff3565b905060006006611d468186613014565b611d509190612ff3565b90506000611d5f602486613014565b90506000611d6e600686612ff3565b905060006006611d7e8188613014565b611d889190612ff3565b90506000611d97602488613014565b90508060010b8460010b13611db557611db08482613035565b611dbf565b611dbf8185613035565b8260010b8660010b13611ddb57611dd68684613035565b611de5565b611de58387613035565b8460010b8860010b13611e0157611dfc8886613035565b611e0b565b611e0b8589613035565b611e159190613058565b611e1f9190613058565b61ffff166001149850505050505050505092915050565b600060d88411611e465783611e51565b611e5160d885612efb565b9050600060d88411611e635783611e6e565b611e6e60d885612efb565b336000818152600b60209081526040808320878452909152902054919250611e9790878661222a565b611eb233868660405180602001604052806000815250612026565b6000828152600d6020908152604080832033845290915290205460ff16611f37576000828152600c602090815260408083208054600181810183559185528385200180546001600160a01b03191633908117909155868552600d84528285209085528352818420805460ff19169091179055600b825280832085845290915290208190555b611f4133846104fd565b158015611f5a5750611f583361022e8560d8612e7b565b155b15610842576000838152600d602090815260408083203384528252808320805460ff19169055600b8252808320868452909152812055505050505050565b6001600160a01b038416611fc257604051632bfa23e760e11b815260006004820152602401610589565b6001600160a01b038516611feb57604051626a0d4560e21b815260006004820152602401610589565b6040805160018082526020820186905281830190815260608201859052608082019092529061201d878784848761207f565b50505050505050565b6001600160a01b03841661205057604051632bfa23e760e11b815260006004820152602401610589565b604080516001808252602082018690528183019081526060820185905260808201909252906108426000878484875b61208b858585856122f1565b6001600160a01b0384161561177757825133906001036120c457602084810151908401516120bd838989858589612505565b5050610842565b610842818787878787612629565b801561074b576000612710600554836120eb9190612e64565b6120f59190612e50565b9050600061271061210861029a85612e64565b6121129190612e50565b90506000816121218486612efb565b61212b9190612efb565b9050806009600082825461213f9190612e7b565b9250508190555081600a60008282546121589190612e7b565b909155505060405163a9059cbb60e01b81526001600160a01b038681166004830152602482018390527f0000000000000000000000000000000000000000000000000000000000000000169063a9059cbb906044016020604051808303816000875af11580156121cc573d6000803e3d6000fd5b505050506040513d601f19601f820116820180604052508101906121f09190612e8e565b6117775760405162461bcd60e51b815260206004820152600b60248201526a14185e5bdd5d0819985a5b60aa1b6044820152606401610589565b6001600160a01b03831661225357604051626a0d4560e21b815260006004820152602401610589565b604080516001808252602082018590528183019081526060820184905260a082019092526000608082018181529192916117779187918590859061207f565b6060826122a7576122a282612712565b6122ea565b81511580156122be57506001600160a01b0384163b155b156122e757604051639996b31560e01b81526001600160a01b0385166004820152602401610589565b50805b9392505050565b80518251146123205781518151604051635b05999160e01b815260048101929092526024820152604401610589565b3360005b8351811015612426576020818102858101820151908501909101516001600160a01b038816156123d7576000828152602081815260408083206001600160a01b038c168452909152902054818110156123b0576040516303dee4c560e01b81526001600160a01b038a166004820152602481018290526044810183905260648101849052608401610589565b6000838152602081815260408083206001600160a01b038d16845290915290209082900390555b6001600160a01b0387161561241c576000828152602081815260408083206001600160a01b038b16845290915281208054839290612416908490612e7b565b90915550505b5050600101612324565b5082516001036124a75760208301516000906020840151909150856001600160a01b0316876001600160a01b0316846001600160a01b03167fc3d58168c5ae7397731d063d5bbf3d657854427343f4c083240f7aacaa2d0f628585604051612498929190918252602082015260400190565b60405180910390a45050611777565b836001600160a01b0316856001600160a01b0316826001600160a01b03167f4a39dc06d4c0dbc64b70af90fd698a233a518aa5d07e595d983b8c0526c8f7fb86866040516124f692919061307b565b60405180910390a45050505050565b6001600160a01b0384163b156108425760405163f23a6e6160e01b81526001600160a01b0385169063f23a6e619061254990899089908890889088906004016130a0565b6020604051808303816000875af1925050508015612584575060408051601f3d908101601f19168201909252612581918101906130e5565b60015b6125ed573d8080156125b2576040519150601f19603f3d011682016040523d82523d6000602084013e6125b7565b606091505b5080516000036125e557604051632bfa23e760e11b81526001600160a01b0386166004820152602401610589565b805160208201fd5b6001600160e01b0319811663f23a6e6160e01b1461201d57604051632bfa23e760e11b81526001600160a01b0386166004820152602401610589565b6001600160a01b0384163b156108425760405163bc197c8160e01b81526001600160a01b0385169063bc197c819061266d9089908990889088908890600401613102565b6020604051808303816000875af19250505080156126a8575060408051601f3d908101601f191682019092526126a5918101906130e5565b60015b6126d6573d8080156125b2576040519150601f19603f3d011682016040523d82523d6000602084013e6125b7565b6001600160e01b0319811663bc197c8160e01b1461201d57604051632bfa23e760e11b81526001600160a01b0386166004820152602401610589565b80511561272157805160208201fd5b60405163d6bda27560e01b815260040160405180910390fd5b80356001600160a01b038116811461275157600080fd5b919050565b6000806040838503121561276957600080fd5b6127728361273a565b946020939093013593505050565b6001600160e01b03198116811461154757600080fd5b6000602082840312156127a857600080fd5b81356122ea81612780565b803561ffff8116811461275157600080fd5b600080604083850312156127d857600080fd5b612772836127b3565b6000602082840312156127f357600080fd5b5035919050565b60005b838110156128155781810151838201526020016127fd565b50506000910152565b600081518084526128368160208601602086016127fa565b601f01601f19169290920160200192915050565b6020815260006122ea602083018461281e565b634e487b7160e01b600052604160045260246000fd5b604051601f8201601f1916810167ffffffffffffffff8111828210171561289c5761289c61285d565b604052919050565b600067ffffffffffffffff8211156128be576128be61285d565b5060051b60200190565b600082601f8301126128d957600080fd5b813560206128ee6128e9836128a4565b612873565b8083825260208201915060208460051b87010193508684111561291057600080fd5b602086015b8481101561292c5780358352918301918301612915565b509695505050505050565b600082601f83011261294857600080fd5b813567ffffffffffffffff8111156129625761296261285d565b612975601f8201601f1916602001612873565b81815284602083860101111561298a57600080fd5b816020850160208301376000918101602001919091529392505050565b600080600080600060a086880312156129bf57600080fd5b6129c88661273a565b94506129d66020870161273a565b9350604086013567ffffffffffffffff808211156129f357600080fd5b6129ff89838a016128c8565b94506060880135915080821115612a1557600080fd5b612a2189838a016128c8565b93506080880135915080821115612a3757600080fd5b50612a4488828901612937565b9150509295509295909350565b60008060408385031215612a6457600080fd5b823567ffffffffffffffff80821115612a7c57600080fd5b818501915085601f830112612a9057600080fd5b81356020612aa06128e9836128a4565b82815260059290921b84018101918181019089841115612abf57600080fd5b948201945b83861015612ae457612ad58661273a565b82529482019490820190612ac4565b96505086013592505080821115612afa57600080fd5b50612b07858286016128c8565b9150509250929050565b60008151808452602080850194506020840160005b83811015612b4257815187529582019590820190600101612b26565b509495945050505050565b6020815260006122ea6020830184612b11565b60008060008060808587031215612b7657600080fd5b612b7f8561273a565b9350612b8d602086016127b3565b93969395505050506040820135916060013590565b801515811461154757600080fd5b60008060408385031215612bc357600080fd5b612bcc8361273a565b91506020830135612bdc81612ba2565b809150509250929050565b60008060208385031215612bfa57600080fd5b823567ffffffffffffffff80821115612c1257600080fd5b818501915085601f830112612c2657600080fd5b813581811115612c3557600080fd5b8660208260051b8501011115612c4a57600080fd5b60209290920196919550909350505050565b600060208083016020845280855180835260408601915060408160051b87010192506020870160005b82811015612cb357603f19888603018452612ca185835161281e565b94509285019290850190600101612c85565b5092979650505050505050565b600060208284031215612cd257600080fd5b6122ea8261273a565b60008060008060808587031215612cf157600080fd5b612b7f856127b3565b60008060408385031215612d0d57600080fd5b612d168361273a565b9150612d246020840161273a565b90509250929050565b600060208284031215612d3f57600080fd5b6122ea826127b3565b602080825282518282018190526000919060409081850190868401855b82811015612db257815180516001600160a01b0316855286810151878601528581015186860152606080820151908601526080908101519085015260a09093019290850190600101612d65565b5091979650505050505050565b600080600080600060a08688031215612dd757600080fd5b612de08661273a565b9450612dee6020870161273a565b93506040860135925060608601359150608086013567ffffffffffffffff811115612e1857600080fd5b612a4488828901612937565b634e487b7160e01b600052601260045260246000fd5b634e487b7160e01b600052601160045260246000fd5b600082612e5f57612e5f612e24565b500490565b808202811582820484141761051f5761051f612e3a565b8082018082111561051f5761051f612e3a565b600060208284031215612ea057600080fd5b81516122ea81612ba2565b600181811c90821680612ebf57607f821691505b602082108103612edf57634e487b7160e01b600052602260045260246000fd5b50919050565b634e487b7160e01b600052603260045260246000fd5b8181038181111561051f5761051f612e3a565b6000808335601e19843603018112612f2557600080fd5b83018035915067ffffffffffffffff821115612f4057600080fd5b602001915036819003821315612f5557600080fd5b9250929050565b828482376000838201600081528351612f798183602088016127fa565b0195945050505050565b600060208284031215612f9557600080fd5b5051919050565b600060018201612fae57612fae612e3a565b5060010190565b60008251612fc78184602087016127fa565b9190910192915050565b61ffff828116828216039080821115612fec57612fec612e3a565b5092915050565b600061ffff8084168061300857613008612e24565b92169190910692915050565b600061ffff8084168061302957613029612e24565b92169190910492915050565b600182810b9082900b03617fff198112617fff8213171561051f5761051f612e3a565b600181810b9083900b01617fff8113617fff198212171561051f5761051f612e3a565b60408152600061308e6040830185612b11565b8281036020840152611d018185612b11565b6001600160a01b03868116825285166020820152604081018490526060810183905260a0608082018190526000906130da9083018461281e565b979650505050505050565b6000602082840312156130f757600080fd5b81516122ea81612780565b6001600160a01b0386811682528516602082015260a06040820181905260009061312e90830186612b11565b82810360608401526131408186612b11565b90508281036080840152613154818561281e565b9897505050505050505056fea2646970667358221220602510fb3d9f2f48533917f5471e795a57334c589a65791e9491e15cc76dad2164736f6c6343000818003368747470733a2f2f6170692e6b696c6c67616d652e61692f6d657461646174612f7b69647d2e6a736f6e",
  "linkReferences": {},
  "deployedLinkReferences": {}
}