{
  "_format": "hh-sol-artifact-1",
  "contractName": "KILLGame",
  "sourceName": "contracts/KillGame.sol",
  "abi": [
    {
      "inputs": [
        {
          "internalType": "address",
          "name": "_tokenAddress",
          "type": "address"
        }
      ],
      "stateMutability": "nonpayable",
      "type": "constructor"
    },
    {
      "inputs": [
        {
          "internalType": "address",
          "name": "sender",
          "type": "address"
        },
        {
          "internalType": "uint256",
          "name": "balance",
          "type": "uint256"
        },
        {
          "internalType": "uint256",
          "name": "needed",
          "type": "uint256"
        },
        {
          "internalType": "uint256",
          "name": "tokenId",
          "type": "uint256"
        }
      ],
      "name": "ERC1155InsufficientBalance",
      "type": "error"
    },
    {
      "inputs": [
        {
          "internalType": "address",
          "name": "approver",
          "type": "address"
        }
      ],
      "name": "ERC1155InvalidApprover",
      "type": "error"
    },
    {
      "inputs": [
        {
          "internalType": "uint256",
          "name": "idsLength",
          "type": "uint256"
        },
        {
          "internalType": "uint256",
          "name": "valuesLength",
          "type": "uint256"
        }
      ],
      "name": "ERC1155InvalidArrayLength",
      "type": "error"
    },
    {
      "inputs": [
        {
          "internalType": "address",
          "name": "operator",
          "type": "address"
        }
      ],
      "name": "ERC1155InvalidOperator",
      "type": "error"
    },
    {
      "inputs": [
        {
          "internalType": "address",
          "name": "receiver",
          "type": "address"
        }
      ],
      "name": "ERC1155InvalidReceiver",
      "type": "error"
    },
    {
      "inputs": [
        {
          "internalType": "address",
          "name": "sender",
          "type": "address"
        }
      ],
      "name": "ERC1155InvalidSender",
      "type": "error"
    },
    {
      "inputs": [
        {
          "internalType": "address",
          "name": "operator",
          "type": "address"
        },
        {
          "internalType": "address",
          "name": "owner",
          "type": "address"
        }
      ],
      "name": "ERC1155MissingApprovalForAll",
      "type": "error"
    },
    {
      "inputs": [
        {
          "internalType": "address",
          "name": "owner",
          "type": "address"
        }
      ],
      "name": "OwnableInvalidOwner",
      "type": "error"
    },
    {
      "inputs": [
        {
          "internalType": "address",
          "name": "account",
          "type": "address"
        }
      ],
      "name": "OwnableUnauthorizedAccount",
      "type": "error"
    },
    {
      "inputs": [],
      "name": "ReentrancyGuardReentrantCall",
      "type": "error"
    },
    {
      "anonymous": false,
      "inputs": [
        {
          "indexed": true,
          "internalType": "address",
          "name": "account",
          "type": "address"
        },
        {
          "indexed": true,
          "internalType": "address",
          "name": "operator",
          "type": "address"
        },
        {
          "indexed": false,
          "internalType": "bool",
          "name": "approved",
          "type": "bool"
        }
      ],
      "name": "ApprovalForAll",
      "type": "event"
    },
    {
      "anonymous": false,
      "inputs": [
        {
          "indexed": true,
          "internalType": "address",
          "name": "defender",
          "type": "address"
        },
        {
          "indexed": false,
          "internalType": "uint256",
          "name": "amount",
          "type": "uint256"
        }
      ],
      "name": "DefenderRewarded",
      "type": "event"
    },
    {
      "anonymous": false,
      "inputs": [
        {
          "indexed": false,
          "internalType": "uint256",
          "name": "totalUnitsKilled",
          "type": "uint256"
        },
        {
          "indexed": false,
          "internalType": "uint256",
          "name": "totalReaperKilled",
          "type": "uint256"
        },
        {
          "indexed": false,
          "internalType": "uint256",
          "name": "killAdded",
          "type": "uint256"
        },
        {
          "indexed": false,
          "internalType": "uint256",
          "name": "killExtracted",
          "type": "uint256"
        },
        {
          "indexed": false,
          "internalType": "uint256",
          "name": "killBurned",
          "type": "uint256"
        }
      ],
      "name": "GlobalStats",
      "type": "event"
    },
    {
      "anonymous": false,
      "inputs": [
        {
          "indexed": true,
          "internalType": "address",
          "name": "attacker",
          "type": "address"
        },
        {
          "indexed": true,
          "internalType": "address",
          "name": "target",
          "type": "address"
        },
        {
          "indexed": true,
          "internalType": "uint16",
          "name": "stackId",
          "type": "uint16"
        },
        {
          "components": [
            {
              "internalType": "uint256",
              "name": "attackerUnitsSent",
              "type": "uint256"
            },
            {
              "internalType": "uint256",
              "name": "attackerReaperSent",
              "type": "uint256"
            },
            {
              "internalType": "uint256",
              "name": "attackerUnitsLost",
              "type": "uint256"
            },
            {
              "internalType": "uint256",
              "name": "attackerReaperLost",
              "type": "uint256"
            },
            {
              "internalType": "uint256",
              "name": "targetUnitsLost",
              "type": "uint256"
            },
            {
              "internalType": "uint256",
              "name": "targetReaperLost",
              "type": "uint256"
            },
            {
              "internalType": "uint256",
              "name": "initialDefenderUnits",
              "type": "uint256"
            },
            {
              "internalType": "uint256",
              "name": "initialDefenderReaper",
              "type": "uint256"
            },
            {
              "internalType": "uint256",
              "name": "attackerBounty",
              "type": "uint256"
            },
            {
              "internalType": "uint256",
              "name": "defenderBounty",
              "type": "uint256"
            }
          ],
          "indexed": false,
          "internalType": "struct KILLGame.BattleSummary",
          "name": "summary",
          "type": "tuple"
        },
        {
          "indexed": false,
          "internalType": "uint256",
          "name": "targetBirthBlock",
          "type": "uint256"
        }
      ],
      "name": "Killed",
      "type": "event"
    },
    {
      "anonymous": false,
      "inputs": [
        {
          "indexed": true,
          "internalType": "address",
          "name": "agent",
          "type": "address"
        },
        {
          "indexed": false,
          "internalType": "uint16",
          "name": "fromStack",
          "type": "uint16"
        },
        {
          "indexed": false,
          "internalType": "uint16",
          "name": "toStack",
          "type": "uint16"
        },
        {
          "indexed": false,
          "internalType": "uint256",
          "name": "units",
          "type": "uint256"
        },
        {
          "indexed": false,
          "internalType": "uint256",
          "name": "reaper",
          "type": "uint256"
        },
        {
          "indexed": false,
          "internalType": "uint256",
          "name": "birthBlock",
          "type": "uint256"
        }
      ],
      "name": "Moved",
      "type": "event"
    },
    {
      "anonymous": false,
      "inputs": [
        {
          "indexed": true,
          "internalType": "address",
          "name": "previousOwner",
          "type": "address"
        },
        {
          "indexed": true,
          "internalType": "address",
          "name": "newOwner",
          "type": "address"
        }
      ],
      "name": "OwnershipTransferred",
      "type": "event"
    },
    {
      "anonymous": false,
      "inputs": [
        {
          "indexed": true,
          "internalType": "address",
          "name": "agent",
          "type": "address"
        },
        {
          "indexed": true,
          "internalType": "uint256",
          "name": "stackId",
          "type": "uint256"
        },
        {
          "indexed": false,
          "internalType": "uint256",
          "name": "units",
          "type": "uint256"
        },
        {
          "indexed": false,
          "internalType": "uint256",
          "name": "reapers",
          "type": "uint256"
        },
        {
          "indexed": false,
          "internalType": "uint256",
          "name": "birthBlock",
          "type": "uint256"
        }
      ],
      "name": "Spawned",
      "type": "event"
    },
    {
      "anonymous": false,
      "inputs": [
        {
          "indexed": true,
          "internalType": "address",
          "name": "operator",
          "type": "address"
        },
        {
          "indexed": true,
          "internalType": "address",
          "name": "from",
          "type": "address"
        },
        {
          "indexed": true,
          "internalType": "address",
          "name": "to",
          "type": "address"
        },
        {
          "indexed": false,
          "internalType": "uint256[]",
          "name": "ids",
          "type": "uint256[]"
        },
        {
          "indexed": false,
          "internalType": "uint256[]",
          "name": "values",
          "type": "uint256[]"
        }
      ],
      "name": "TransferBatch",
      "type": "event"
    },
    {
      "anonymous": false,
      "inputs": [
        {
          "indexed": true,
          "internalType": "address",
          "name": "operator",
          "type": "address"
        },
        {
          "indexed": true,
          "internalType": "address",
          "name": "from",
          "type": "address"
        },
        {
          "indexed": true,
          "internalType": "address",
          "name": "to",
          "type": "address"
        },
        {
          "indexed": false,
          "internalType": "uint256",
          "name": "id",
          "type": "uint256"
        },
        {
          "indexed": false,
          "internalType": "uint256",
          "name": "value",
          "type": "uint256"
        }
      ],
      "name": "TransferSingle",
      "type": "event"
    },
    {
      "anonymous": false,
      "inputs": [
        {
          "indexed": false,
          "internalType": "uint256",
          "name": "oldBps",
          "type": "uint256"
        },
        {
          "indexed": false,
          "internalType": "uint256",
          "name": "newBps",
          "type": "uint256"
        }
      ],
      "name": "TreasuryBpsUpdated",
      "type": "event"
    },
    {
      "anonymous": false,
      "inputs": [
        {
          "indexed": false,
          "internalType": "string",
          "name": "value",
          "type": "string"
        },
        {
          "indexed": true,
          "internalType": "uint256",
          "name": "id",
          "type": "uint256"
        }
      ],
      "name": "URI",
      "type": "event"
    },
    {
      "inputs": [],
      "name": "BURN_BPS",
      "outputs": [
        {
          "internalType": "uint256",
          "name": "",
          "type": "uint256"
        }
      ],
      "stateMutability": "view",
      "type": "function"
    },
    {
      "inputs": [],
      "name": "MOVE_COST",
      "outputs": [
        {
          "internalType": "uint256",
          "name": "",
          "type": "uint256"
        }
      ],
      "stateMutability": "view",
      "type": "function"
    },
    {
      "inputs": [],
      "name": "SPAWN_COST",
      "outputs": [
        {
          "internalType": "uint256",
          "name": "",
          "type": "uint256"
        }
      ],
      "stateMutability": "view",
      "type": "function"
    },
    {
      "inputs": [],
      "name": "THERMAL_PARITY",
      "outputs": [
        {
          "internalType": "uint256",
          "name": "",
          "type": "uint256"
        }
      ],
      "stateMutability": "view",
      "type": "function"
    },
    {
      "inputs": [
        {
          "internalType": "uint256",
          "name": "amt",
          "type": "uint256"
        }
      ],
      "name": "adminWithdraw",
      "outputs": [],
      "stateMutability": "nonpayable",
      "type": "function"
    },
    {
      "inputs": [
        {
          "internalType": "address",
          "name": "",
          "type": "address"
        },
        {
          "internalType": "uint256",
          "name": "",
          "type": "uint256"
        }
      ],
      "name": "agentStacks",
      "outputs": [
        {
          "internalType": "uint256",
          "name": "birthBlock",
          "type": "uint256"
        }
      ],
      "stateMutability": "view",
      "type": "function"
    },
    {
      "inputs": [
        {
          "internalType": "address",
          "name": "",
          "type": "address"
        }
      ],
      "name": "agentTotalProfit",
      "outputs": [
        {
          "internalType": "uint256",
          "name": "",
          "type": "uint256"
        }
      ],
      "stateMutability": "view",
      "type": "function"
    },
    {
      "inputs": [
        {
          "internalType": "address",
          "name": "account",
          "type": "address"
        },
        {
          "internalType": "uint256",
          "name": "id",
          "type": "uint256"
        }
      ],
      "name": "balanceOf",
      "outputs": [
        {
          "internalType": "uint256",
          "name": "",
          "type": "uint256"
        }
      ],
      "stateMutability": "view",
      "type": "function"
    },
    {
      "inputs": [
        {
          "internalType": "address[]",
          "name": "accounts",
          "type": "address[]"
        },
        {
          "internalType": "uint256[]",
          "name": "ids",
          "type": "uint256[]"
        }
      ],
      "name": "balanceOfBatch",
      "outputs": [
        {
          "internalType": "uint256[]",
          "name": "",
          "type": "uint256[]"
        }
      ],
      "stateMutability": "view",
      "type": "function"
    },
    {
      "inputs": [
        {
          "internalType": "address",
          "name": "agent",
          "type": "address"
        },
        {
          "internalType": "uint256",
          "name": "id",
          "type": "uint256"
        }
      ],
      "name": "getBirthBlock",
      "outputs": [
        {
          "internalType": "uint256",
          "name": "",
          "type": "uint256"
        }
      ],
      "stateMutability": "view",
      "type": "function"
    },
    {
      "inputs": [
        {
          "internalType": "uint16",
          "name": "stackId",
          "type": "uint16"
        }
      ],
      "name": "getFullStack",
      "outputs": [
        {
          "components": [
            {
              "internalType": "address",
              "name": "occupant",
              "type": "address"
            },
            {
              "internalType": "uint256",
              "name": "units",
              "type": "uint256"
            },
            {
              "internalType": "uint256",
              "name": "reapers",
              "type": "uint256"
            },
            {
              "internalType": "uint256",
              "name": "age",
              "type": "uint256"
            },
            {
              "internalType": "uint256",
              "name": "pendingBounty",
              "type": "uint256"
            }
          ],
          "internalType": "struct KILLGame.StackInfo[]",
          "name": "",
          "type": "tuple[]"
        }
      ],
      "stateMutability": "view",
      "type": "function"
    },
    {
      "inputs": [
        {
          "internalType": "address",
          "name": "agent",
          "type": "address"
        },
        {
          "internalType": "uint256",
          "name": "id",
          "type": "uint256"
        }
      ],
      "name": "getPendingBounty",
      "outputs": [
        {
          "internalType": "uint256",
          "name": "",
          "type": "uint256"
        }
      ],
      "stateMutability": "view",
      "type": "function"
    },
    {
      "inputs": [],
      "name": "getTreasuryStats",
      "outputs": [
        {
          "internalType": "uint256",
          "name": "totalTreasury",
          "type": "uint256"
        },
        {
          "internalType": "uint256",
          "name": "globalMaxBounty",
          "type": "uint256"
        }
      ],
      "stateMutability": "view",
      "type": "function"
    },
    {
      "inputs": [
        {
          "internalType": "address",
          "name": "account",
          "type": "address"
        },
        {
          "internalType": "address",
          "name": "operator",
          "type": "address"
        }
      ],
      "name": "isApprovedForAll",
      "outputs": [
        {
          "internalType": "bool",
          "name": "",
          "type": "bool"
        }
      ],
      "stateMutability": "view",
      "type": "function"
    },
    {
      "inputs": [
        {
          "internalType": "address",
          "name": "target",
          "type": "address"
        },
        {
          "internalType": "uint16",
          "name": "stackId",
          "type": "uint16"
        },
        {
          "internalType": "uint256",
          "name": "sentUnits",
          "type": "uint256"
        },
        {
          "internalType": "uint256",
          "name": "sentReaper",
          "type": "uint256"
        }
      ],
      "name": "kill",
      "outputs": [
        {
          "internalType": "uint256",
          "name": "attackerBounty",
          "type": "uint256"
        }
      ],
      "stateMutability": "nonpayable",
      "type": "function"
    },
    {
      "inputs": [],
      "name": "killToken",
      "outputs": [
        {
          "internalType": "contract IERC20",
          "name": "",
          "type": "address"
        }
      ],
      "stateMutability": "view",
      "type": "function"
    },
    {
      "inputs": [
        {
          "internalType": "uint16",
          "name": "fromStack",
          "type": "uint16"
        },
        {
          "internalType": "uint16",
          "name": "toStack",
          "type": "uint16"
        },
        {
          "internalType": "uint256",
          "name": "units",
          "type": "uint256"
        },
        {
          "internalType": "uint256",
          "name": "reaper",
          "type": "uint256"
        }
      ],
      "name": "move",
      "outputs": [],
      "stateMutability": "nonpayable",
      "type": "function"
    },
    {
      "inputs": [],
      "name": "owner",
      "outputs": [
        {
          "internalType": "address",
          "name": "",
          "type": "address"
        }
      ],
      "stateMutability": "view",
      "type": "function"
    },
    {
      "inputs": [],
      "name": "renounceOwnership",
      "outputs": [],
      "stateMutability": "nonpayable",
      "type": "function"
    },
    {
      "inputs": [
        {
          "internalType": "address",
          "name": "from",
          "type": "address"
        },
        {
          "internalType": "address",
          "name": "to",
          "type": "address"
        },
        {
          "internalType": "uint256[]",
          "name": "ids",
          "type": "uint256[]"
        },
        {
          "internalType": "uint256[]",
          "name": "values",
          "type": "uint256[]"
        },
        {
          "internalType": "bytes",
          "name": "data",
          "type": "bytes"
        }
      ],
      "name": "safeBatchTransferFrom",
      "outputs": [],
      "stateMutability": "nonpayable",
      "type": "function"
    },
    {
      "inputs": [
        {
          "internalType": "address",
          "name": "from",
          "type": "address"
        },
        {
          "internalType": "address",
          "name": "to",
          "type": "address"
        },
        {
          "internalType": "uint256",
          "name": "id",
          "type": "uint256"
        },
        {
          "internalType": "uint256",
          "name": "value",
          "type": "uint256"
        },
        {
          "internalType": "bytes",
          "name": "data",
          "type": "bytes"
        }
      ],
      "name": "safeTransferFrom",
      "outputs": [],
      "stateMutability": "nonpayable",
      "type": "function"
    },
    {
      "inputs": [
        {
          "internalType": "address",
          "name": "operator",
          "type": "address"
        },
        {
          "internalType": "bool",
          "name": "approved",
          "type": "bool"
        }
      ],
      "name": "setApprovalForAll",
      "outputs": [],
      "stateMutability": "nonpayable",
      "type": "function"
    },
    {
      "inputs": [
        {
          "internalType": "uint256",
          "name": "_newBps",
          "type": "uint256"
        }
      ],
      "name": "setTreasuryBps",
      "outputs": [],
      "stateMutability": "nonpayable",
      "type": "function"
    },
    {
      "inputs": [
        {
          "internalType": "uint16",
          "name": "stackId",
          "type": "uint16"
        },
        {
          "internalType": "uint256",
          "name": "amount",
          "type": "uint256"
        }
      ],
      "name": "spawn",
      "outputs": [],
      "stateMutability": "nonpayable",
      "type": "function"
    },
    {
      "inputs": [
        {
          "internalType": "bytes4",
          "name": "id",
          "type": "bytes4"
        }
      ],
      "name": "supportsInterface",
      "outputs": [
        {
          "internalType": "bool",
          "name": "",
          "type": "bool"
        }
      ],
      "stateMutability": "view",
      "type": "function"
    },
    {
      "inputs": [],
      "name": "totalKillAdded",
      "outputs": [
        {
          "internalType": "uint256",
          "name": "",
          "type": "uint256"
        }
      ],
      "stateMutability": "view",
      "type": "function"
    },
    {
      "inputs": [],
      "name": "totalKillBurned",
      "outputs": [
        {
          "internalType": "uint256",
          "name": "",
          "type": "uint256"
        }
      ],
      "stateMutability": "view",
      "type": "function"
    },
    {
      "inputs": [],
      "name": "totalKillExtracted",
      "outputs": [
        {
          "internalType": "uint256",
          "name": "",
          "type": "uint256"
        }
      ],
      "stateMutability": "view",
      "type": "function"
    },
    {
      "inputs": [],
      "name": "totalReaperKilled",
      "outputs": [
        {
          "internalType": "uint256",
          "name": "",
          "type": "uint256"
        }
      ],
      "stateMutability": "view",
      "type": "function"
    },
    {
      "inputs": [],
      "name": "totalUnitsKilled",
      "outputs": [
        {
          "internalType": "uint256",
          "name": "",
          "type": "uint256"
        }
      ],
      "stateMutability": "view",
      "type": "function"
    },
    {
      "inputs": [
        {
          "internalType": "address",
          "name": "newOwner",
          "type": "address"
        }
      ],
      "name": "transferOwnership",
      "outputs": [],
      "stateMutability": "nonpayable",
      "type": "function"
    },
    {
      "inputs": [],
      "name": "treasuryBps",
      "outputs": [
        {
          "internalType": "uint256",
          "name": "",
          "type": "uint256"
        }
      ],
      "stateMutability": "view",
      "type": "function"
    },
    {
      "inputs": [
        {
          "internalType": "uint256",
          "name": "",
          "type": "uint256"
        }
      ],
      "name": "uri",
      "outputs": [
        {
          "internalType": "string",
          "name": "",
          "type": "string"
        }
      ],
      "stateMutability": "view",
      "type": "function"
    }
  ],
  "bytecode": "0x60a06040526109c46005553480156200001757600080fd5b506040516200315b3803806200315b8339810160408190526200003a9162000117565b336040518060600160405280602a815260200162003131602a91396200006081620000b3565b5060016003556001600160a01b0381166200009557604051631e4fbdf760e01b81526000600482015260240160405180910390fd5b620000a081620000c5565b506001600160a01b0316608052620002bc565b6002620000c18282620001f0565b5050565b600480546001600160a01b038381166001600160a01b0319831681179093556040519116919082907f8be0079c531659141344cd1fd0a4f28419497f9722a3daafe3b4186f6b6457e090600090a35050565b6000602082840312156200012a57600080fd5b81516001600160a01b03811681146200014257600080fd5b9392505050565b634e487b7160e01b600052604160045260246000fd5b600181811c908216806200017457607f821691505b6020821081036200019557634e487b7160e01b600052602260045260246000fd5b50919050565b601f821115620001eb576000816000526020600020601f850160051c81016020861015620001c65750805b601f850160051c820191505b81811015620001e757828155600101620001d2565b5050505b505050565b81516001600160401b038111156200020c576200020c62000149565b62000224816200021d84546200015f565b846200019b565b602080601f8311600181146200025c5760008415620002435750858301515b600019600386901b1c1916600185901b178555620001e7565b600085815260208120601f198616915b828110156200028d578886015182559484019460019091019084016200026c565b5085821015620002ac5787850151600019600388901b60f8161c191681555b5050505050600190811b01905550565b608051612e2f62000302600039600081816102820152818161058d015281816108f601528181610cd001528181610e0d0152818161104701526120070152612e2f6000f3fe608060405234801561001057600080fd5b50600436106101fa5760003560e01c80638da5cb5b1161011a578063c704c3f1116100ad578063ea075ee11161007c578063ea075ee11461043b578063edbd5df81461044e578063ef0a131114610479578063f242432a14610499578063f2fde38b146104ac57600080fd5b8063c704c3f11461036d578063c8692e3f146103f8578063e74fe23714610415578063e985e9c51461042857600080fd5b8063a37a9fc0116100e9578063a37a9fc014610301578063b80113281461038f578063bb6eb359146103c5578063c68e8075146103d857600080fd5b80638da5cb5b1461034957806391fa2a6a1461035a578063944568481461036d578063a22cb4651461037c57600080fd5b80634e1273f411610192578063715018a611610161578063715018a61461031c57806378129882146103245780637c5b4a371461032d57806388b00adc1461034057600080fd5b80634e1273f4146102e1578063523c686a146103015780635635fdbc1461030a57806366d8153f1461031357600080fd5b80632bd7cd17116101ce5780632bd7cd171461027d5780632eb2c2d6146102bc5780632ee8174e146102cf5780634dc10ea1146102d857600080fd5b8062fdd58e146101ff57806301ffc9a71461022557806309f61826146102485780630e89341c1461025d575b600080fd5b61021261020d366004612553565b6104bf565b6040519081526020015b60405180910390f35b610238610233366004612593565b6104e7565b604051901515815260200161021c565b61025b6102563660046125c9565b6104f2565b005b61027061026b3660046125e5565b6106f6565b60405161021c9190612644565b6102a47f000000000000000000000000000000000000000000000000000000000000000081565b6040516001600160a01b03909116815260200161021c565b61025b6102ca3660046127a1565b61078a565b61021260075481565b61021260055481565b6102f46102ef36600461284b565b6107f1565b60405161021c9190612947565b61021261029a81565b61021260095481565b61021260085481565b61025b6108be565b61021260065481565b61025b61033b3660046125e5565b6108d2565b610212600a5481565b6004546001600160a01b03166102a4565b61021261036836600461295a565b61096b565b610212678ac7230489e8000081565b61025b61038a3660046129aa565b610c19565b61021261039d366004612553565b6001600160a01b03919091166000908152600b60209081526040808320938352929052205490565b61025b6103d33660046125e5565b610c24565b6102126103e63660046129e1565b600e6020526000908152604090205481565b610400610cae565b6040805192835260208301919091520161021c565b61025b6104233660046129fc565b610d5a565b610238610436366004612a1b565b610f8c565b610212610449366004612553565b610fba565b61021261045c366004612553565b600b60209081526000928352604080842090915290825290205481565b61048c610487366004612a4e565b61118c565b60405161021c9190612a69565b61025b6104a7366004612ae0565b61141f565b61025b6104ba3660046129e1565b61147e565b6000818152602081815260408083206001600160a01b03861684529091529020545b92915050565b60006104e1826114bc565b6104fa61150c565b60008261ffff16118015610513575060d88261ffff1611155b6105545760405162461bcd60e51b815260206004820152600d60248201526c496e76616c696420537461636b60981b60448201526064015b60405180910390fd5b6000610568678ac7230489e8000083612b5b565b6040516323b872dd60e01b8152336004820152306024820152604481018290529091507f00000000000000000000000000000000000000000000000000000000000000006001600160a01b0316906323b872dd906064016020604051808303816000875af11580156105de573d6000803e3d6000fd5b505050506040513d601f19601f820116820180604052508101906106029190612b72565b6106395760405162461bcd60e51b815260206004820152600860248201526714185e4819985a5b60c21b604482015260640161054b565b600061271061029a8302600a8054929091049091019055506008805482019055600061066761029a84612ba5565b9050610678338561ffff1685611536565b8015610697576106973361069161ffff871660d8612bb9565b83611536565b60408051848152602081018390524381830152905161ffff86169133917faf4ea7c0f51d4c33144122655ecd0051aa44b546b9daa750ab0d9144f3ed637e9181900360600190a36106e661162d565b50506106f26001600355565b5050565b60606002805461070590612bcc565b80601f016020809104026020016040519081016040528092919081815260200182805461073190612bcc565b801561077e5780601f106107535761010080835404028352916020019161077e565b820191906000526020600020905b81548152906001019060200180831161076157829003601f168201915b50505050509050919050565b336001600160a01b03861681148015906107ab57506107a98682610f8c565b155b156107dc5760405163711bec9160e11b81526001600160a01b0380831660048301528716602482015260440161054b565b6107e98686868686611689565b505050505050565b606081518351146108225781518351604051635b05999160e01b81526004810192909252602482015260440161054b565b6000835167ffffffffffffffff81111561083e5761083e612657565b604051908082528060200260200182016040528015610867578160200160208202803683370190505b50905060005b84518110156108b657602080820286010151610891906020808402870101516104bf565b8282815181106108a3576108a3612c06565b602090810291909101015260010161086d565b509392505050565b6108c66116f0565b6108d0600061171d565b565b6108da6116f0565b60405163a9059cbb60e01b8152336004820152602481018290527f00000000000000000000000000000000000000000000000000000000000000006001600160a01b03169063a9059cbb906044016020604051808303816000875af1158015610947573d6000803e3d6000fd5b505050506040513d601f19601f820116820180604052508101906106f29190612b72565b600061097561150c565b61ffff841660006109878260d8612bb9565b90508461099433846104bf565b101580156109ab5750836109a833836104bf565b10155b6109e45760405162461bcd60e51b815260206004820152600a6024820152694c61636b20756e69747360b01b604482015260640161054b565b6001600160a01b0387163303610a2f5760405162461bcd60e51b815260206004820152601060248201526f21b0b73737ba1035b4b6361039b2b63360811b604482015260640161054b565b610a85604051806101400160405280600081526020016000815260200160008152602001600081526020016000815260200160008152602001600081526020016000815260200160008152602001600081525090565b85815260208101859052610a9988846104bf565b60c0820152610aa888836104bf565b60e08201526001600160a01b0388166000908152600b6020908152604080832086845290915281205490610ae0338b87878c8c61176f565b8051604080860191909152602082015160608087019190915290820151608086015281015160a08501529050610b188a868386611893565b6040820151825160068054919092010190556060820151602083015160078054919092010190559550610b4f338b87878588611a4e565b6040805184518152602080860151908201528482015181830152606080860151908201526080808601519082015260a0808601519082015260c0808601519082015260e08086015190820152610100808601519082015261012080860151908201526101408101849052905161ffff8b16916001600160a01b038d169133917f2c0ba6eda9140ba04ab07a25239250d2664c08a013d3ec03f3ec6f014f21a53991908190036101600190a4610c0261162d565b5050505050610c116001600355565b949350505050565b6106f2338383611b72565b610c2c6116f0565b612710811115610c695760405162461bcd60e51b81526020600482015260086024820152674d6178203130302560c01b604482015260640161054b565b600580549082905560408051828152602081018490527f6993bc581306fd40069a7f8d78fd994e52ce66bdacf741f949a3e4bdcf28ca80910160405180910390a15050565b6040516370a0823160e01b815230600482015260009081906001600160a01b037f000000000000000000000000000000000000000000000000000000000000000016906370a0823190602401602060405180830381865afa158015610d17573d6000803e3d6000fd5b505050506040513d601f19601f82011682018060405250810190610d3b9190612c1c565b91506064610d4a836005612b5b565b610d549190612ba5565b90509091565b610d6261150c565b60008461ffff16118015610d7b575060d88461ffff1611155b8015610d8b575060008361ffff16115b8015610d9c575060d88361ffff1611155b8015610dad5750610dad8484611c08565b610de45760405162461bcd60e51b8152602060048201526008602482015267426164206d6f766560c01b604482015260640161054b565b6040516323b872dd60e01b8152336004820152306024820152678ac7230489e8000060448201527f00000000000000000000000000000000000000000000000000000000000000006001600160a01b0316906323b872dd906064016020604051808303816000875af1158015610e5e573d6000803e3d6000fd5b505050506040513d601f19601f82011682018060405250810190610e829190612b72565b610eb95760405162461bcd60e51b815260206004820152600860248201526714185e4819985a5b60c21b604482015260640161054b565b600a805467093e1b78ac69000001905560088054678ac7230489e800000190558115610ef257610ef28461ffff168461ffff1684611d34565b8015610f1f57610f1f610f0a61ffff861660d8612bb9565b610f1961ffff861660d8612bb9565b83611d34565b6040805161ffff8087168252851660208201529081018390526060810182905243608082015233907f377dc7145bd8ab426842504b448652c41dda00abb7f7c1df6bdfa40bd2a16f2c9060a00160405180910390a2610f7c61162d565b610f866001600355565b50505050565b6001600160a01b03918216600090815260016020908152604080832093909416825291909152205460ff1690565b6001600160a01b0382166000908152600b60209081526040808320848452909152812054801580610feb5750804311155b15610ffa5760009150506104e1565b600060d8841161100a5783611015565b61101560d885612c35565b905060006110248260d8612bb9565b6040516370a0823160e01b81523060048201529091506000906001600160a01b037f000000000000000000000000000000000000000000000000000000000000000016906370a0823190602401602060405180830381865afa15801561108e573d6000803e3d6000fd5b505050506040513d601f19601f820116820180604052508101906110b29190612c1c565b905060006402540be40060055486436110cb9190612c35565b6110d59085612b5b565b6110df9190612b5b565b6110e99190612ba5565b9050600060646110fa846005612b5b565b6111049190612ba5565b905060006111128a866104bf565b61111e9061029a612b5b565b6111288b886104bf565b6111329190612bb9565b90506000611148678ac7230489e8000083612b5b565b90506000611157826032612b5b565b90506000818510611168578161116a565b845b9050808611611179578561117b565b805b9d9c50505050505050505050505050565b606061ffff821660006111a08260d8612bb9565b6000838152600c602090815260408083208054825181850281018501909352808352949550929390929183018282801561120357602002820191906000526020600020905b81546001600160a01b031681526001909101906020018083116111e5575b505050505090506000805b825181101561128057600d6000868152602001908152602001600020600084838151811061123e5761123e612c06565b6020908102919091018101516001600160a01b031682528101919091526040016000205460ff1615611278578161127481612c48565b9250505b60010161120e565b5060008167ffffffffffffffff81111561129c5761129c612657565b60405190808252806020026020018201604052801561130857816020015b6112f56040518060a0016040528060006001600160a01b03168152602001600081526020016000815260200160008152602001600081525090565b8152602001906001900390816112ba5790505b5090506000805b845181101561141257600085828151811061132c5761132c612c06565b60209081029190910181015160008a8152600d835260408082206001600160a01b0384168352909352919091205490915060ff1615611409576040518060a00160405280826001600160a01b03168152602001611389838b6104bf565b8152602001611398838a6104bf565b81526001600160a01b0383166000908152600b602090815260408083208d84528252909120549101906113cb9043612c35565b81526020016113da838b610fba565b8152508484815181106113ef576113ef612c06565b6020026020010181905250828061140590612c48565b9350505b5060010161130f565b5090979650505050505050565b336001600160a01b0386168114801590611440575061143e8682610f8c565b155b156114715760405163711bec9160e11b81526001600160a01b0380831660048301528716602482015260440161054b565b6107e98686868686611e8a565b6114866116f0565b6001600160a01b0381166114b057604051631e4fbdf760e01b81526000600482015260240161054b565b6114b98161171d565b50565b60006001600160e01b03198216636cdb3d1360e11b14806114ed57506001600160e01b031982166303a24d0760e21b145b806104e157506301ffc9a760e01b6001600160e01b03198316146104e1565b60026003540361152f57604051633ee5aeb560e01b815260040160405180910390fd5b6002600355565b61155183838360405180602001604052806000815250611f18565b6001600160a01b0383166000908152600b6020908152604080832085845290915281205490036115a2576001600160a01b0383166000908152600b6020908152604080832085845290915290204390555b6000828152600d602090815260408083206001600160a01b038716845290915290205460ff16611628576000828152600c602090815260408083208054600180820183559185528385200180546001600160a01b0319166001600160a01b038916908117909155868552600d8452828520908552909252909120805460ff191690911790555b505050565b600654600754600854600954600a546040805195865260208601949094528484019290925260608401526080830152517f6b8aeaa3365d2dfcb9acc94f0a7429b657b4f2008cfafb9b10297011e077c6509181900360a00190a1565b6001600160a01b0384166116b357604051632bfa23e760e11b81526000600482015260240161054b565b6001600160a01b0385166116dc57604051626a0d4560e21b81526000600482015260240161054b565b6116e98585858585611f71565b5050505050565b6004546001600160a01b031633146108d05760405163118cdaa760e01b815233600482015260240161054b565b600480546001600160a01b038381166001600160a01b0319831681179093556040519116919082907f8be0079c531659141344cd1fd0a4f28419497f9722a3daafe3b4186f6b6457e090600090a35050565b61179a6040518060800160405280600081526020016000815260200160008152602001600081525090565b60006117a88361029a612b5b565b6117b29085612bb9565b905060006117c088886104bf565b905060006117ce89886104bf565b9050600060646117e08361029a612b5b565b6117ea9085612bb9565b6117f590606e612b5b565b6117ff9190612ba5565b90508060000361180d575060015b80841115611828576040850183905260608501829052611885565b86855260208501869052600061183e8580612b5b565b9050600061184c8380612b5b565b9050806118598387612b5b565b6118639190612ba5565b6040880152806118738386612b5b565b61187d9190612ba5565b606088015250505b505050509695505050505050565b600080836060015161029a6118a89190612b5b565b84604001516118b79190612bb9565b90506000846020015161029a6118cd9190612b5b565b85516118d99190612bb9565b905060006118e78284612bb9565b9050806000036118fd5760009350505050610c11565b60006119098989610fba565b9050600061029a8310156119335761029a6119248484612b5b565b61192e9190612ba5565b611935565b815b9050600061271061194883611d4c612b5b565b6119529190612ba5565b90508015611a4057836119658783612b5b565b61196f9190612ba5565b965061197b3388611fc4565b336000908152600e60205260408120805489929061199a908490612bb9565b9091555060009050846119ad8784612b5b565b6119b79190612ba5565b90506119c38c82611fc4565b6001600160a01b038c166000908152600e6020526040812080548392906119eb908490612bb9565b9091555050610100890188905261012089018190526040518181526001600160a01b038d16907fdf7a5d9a98a2f71d704a4e6a4c0422d79ed27521ad9cfd55e985d5fb94cfaffe9060200160405180910390a2505b505050505050949350505050565b604082015115611a6757611a67858584604001516120ae565b606082015115611a8057611a80858484606001516120ae565b815115611a9657611a96868584600001516120ae565b602082015115611aaf57611aaf868484602001516120ae565b611ab985856104bf565b158015611acd5750611acb85846104bf565b155b15611b0d576000848152600d602090815260408083206001600160a01b03891684528252808320805460ff19169055600b82528083208784529091528120555b611b1786856104bf565b158015611b2b5750611b2986846104bf565b155b156107e9576000848152600d602090815260408083206001600160a01b038a1684528252808320805460ff19169055600b8252808320878452909152812055505050505050565b6001600160a01b038216611b9b5760405162ced3e160e81b81526000600482015260240161054b565b6001600160a01b03838116600081815260016020908152604080832094871680845294825291829020805460ff191686151590811790915591519182527f17307eab39ab6107e8899845ad3d59bd9653f200f220920489ca2b5937696c31910160405180910390a3505050565b600080611c16600185612c61565b90506000611c25600185612c61565b90506000611c34600684612c83565b905060006006611c448186612ca4565b611c4e9190612c83565b90506000611c5d602486612ca4565b90506000611c6c600686612c83565b905060006006611c7c8188612ca4565b611c869190612c83565b90506000611c95602488612ca4565b90508060010b8460010b13611cb357611cae8482612cc5565b611cbd565b611cbd8185612cc5565b8260010b8660010b13611cd957611cd48684612cc5565b611ce3565b611ce38387612cc5565b8460010b8860010b13611cff57611cfa8886612cc5565b611d09565b611d098589612cc5565b611d139190612ce8565b611d1d9190612ce8565b61ffff166001149850505050505050505092915050565b611d3f3384836120ae565b600060d88411611d4f5783611d5a565b611d5a60d885612c35565b9050600060d88411611d6c5783611d77565b611d7760d885612c35565b336000818152600b602090815260408083208784529091528120819055919250611da190846104bf565b1180611dbb57506000611db93361020d8560d8612bb9565b115b6000838152600d6020908152604080832033808552908352818420805460ff19169515159590951790945580519182019052908152611dfe919086908690611f18565b336000818152600b602090815260408083208584528252808320439055600d8252808320938352929052205460ff166116e9576000818152600c602090815260408083208054600181810183559185528385200180546001600160a01b03191633908117909155858552600d8452828520908552909252909120805460ff191690911790555050505050565b6001600160a01b038416611eb457604051632bfa23e760e11b81526000600482015260240161054b565b6001600160a01b038516611edd57604051626a0d4560e21b81526000600482015260240161054b565b60408051600180825260208201869052818301908152606082018590526080820190925290611f0f8787848487611f71565b50505050505050565b6001600160a01b038416611f4257604051632bfa23e760e11b81526000600482015260240161054b565b604080516001808252602082018690528183019081526060820185905260808201909252906107e96000878484875b611f7d85858585612116565b6001600160a01b038416156116e95782513390600103611fb65760208481015190840151611faf83898985858961232a565b50506107e9565b6107e981878787878761244e565b80156106f2578060096000828254611fdc9190612bb9565b909155505060405163a9059cbb60e01b81526001600160a01b038381166004830152602482018390527f0000000000000000000000000000000000000000000000000000000000000000169063a9059cbb906044016020604051808303816000875af1158015612050573d6000803e3d6000fd5b505050506040513d601f19601f820116820180604052508101906120749190612b72565b6106f25760405162461bcd60e51b815260206004820152600b60248201526a14185e5bdd5d0819985a5b60aa1b604482015260640161054b565b6001600160a01b0383166120d757604051626a0d4560e21b81526000600482015260240161054b565b604080516001808252602082018590528183019081526060820184905260a082019092526000608082018181529192916116e991879185908590611f71565b80518251146121455781518151604051635b05999160e01b81526004810192909252602482015260440161054b565b3360005b835181101561224b576020818102858101820151908501909101516001600160a01b038816156121fc576000828152602081815260408083206001600160a01b038c168452909152902054818110156121d5576040516303dee4c560e01b81526001600160a01b038a16600482015260248101829052604481018390526064810184905260840161054b565b6000838152602081815260408083206001600160a01b038d16845290915290209082900390555b6001600160a01b03871615612241576000828152602081815260408083206001600160a01b038b1684529091528120805483929061223b908490612bb9565b90915550505b5050600101612149565b5082516001036122cc5760208301516000906020840151909150856001600160a01b0316876001600160a01b0316846001600160a01b03167fc3d58168c5ae7397731d063d5bbf3d657854427343f4c083240f7aacaa2d0f6285856040516122bd929190918252602082015260400190565b60405180910390a450506116e9565b836001600160a01b0316856001600160a01b0316826001600160a01b03167f4a39dc06d4c0dbc64b70af90fd698a233a518aa5d07e595d983b8c0526c8f7fb868660405161231b929190612d0b565b60405180910390a45050505050565b6001600160a01b0384163b156107e95760405163f23a6e6160e01b81526001600160a01b0385169063f23a6e619061236e9089908990889088908890600401612d39565b6020604051808303816000875af19250505080156123a9575060408051601f3d908101601f191682019092526123a691810190612d7e565b60015b612412573d8080156123d7576040519150601f19603f3d011682016040523d82523d6000602084013e6123dc565b606091505b50805160000361240a57604051632bfa23e760e11b81526001600160a01b038616600482015260240161054b565b805160208201fd5b6001600160e01b0319811663f23a6e6160e01b14611f0f57604051632bfa23e760e11b81526001600160a01b038616600482015260240161054b565b6001600160a01b0384163b156107e95760405163bc197c8160e01b81526001600160a01b0385169063bc197c81906124929089908990889088908890600401612d9b565b6020604051808303816000875af19250505080156124cd575060408051601f3d908101601f191682019092526124ca91810190612d7e565b60015b6124fb573d8080156123d7576040519150601f19603f3d011682016040523d82523d6000602084013e6123dc565b6001600160e01b0319811663bc197c8160e01b14611f0f57604051632bfa23e760e11b81526001600160a01b038616600482015260240161054b565b80356001600160a01b038116811461254e57600080fd5b919050565b6000806040838503121561256657600080fd5b61256f83612537565b946020939093013593505050565b6001600160e01b0319811681146114b957600080fd5b6000602082840312156125a557600080fd5b81356125b08161257d565b9392505050565b803561ffff8116811461254e57600080fd5b600080604083850312156125dc57600080fd5b61256f836125b7565b6000602082840312156125f757600080fd5b5035919050565b6000815180845260005b8181101561262457602081850181015186830182015201612608565b506000602082860101526020601f19601f83011685010191505092915050565b6020815260006125b060208301846125fe565b634e487b7160e01b600052604160045260246000fd5b604051601f8201601f1916810167ffffffffffffffff8111828210171561269657612696612657565b604052919050565b600067ffffffffffffffff8211156126b8576126b8612657565b5060051b60200190565b600082601f8301126126d357600080fd5b813560206126e86126e38361269e565b61266d565b8083825260208201915060208460051b87010193508684111561270a57600080fd5b602086015b84811015612726578035835291830191830161270f565b509695505050505050565b600082601f83011261274257600080fd5b813567ffffffffffffffff81111561275c5761275c612657565b61276f601f8201601f191660200161266d565b81815284602083860101111561278457600080fd5b816020850160208301376000918101602001919091529392505050565b600080600080600060a086880312156127b957600080fd5b6127c286612537565b94506127d060208701612537565b9350604086013567ffffffffffffffff808211156127ed57600080fd5b6127f989838a016126c2565b9450606088013591508082111561280f57600080fd5b61281b89838a016126c2565b9350608088013591508082111561283157600080fd5b5061283e88828901612731565b9150509295509295909350565b6000806040838503121561285e57600080fd5b823567ffffffffffffffff8082111561287657600080fd5b818501915085601f83011261288a57600080fd5b8135602061289a6126e38361269e565b82815260059290921b840181019181810190898411156128b957600080fd5b948201945b838610156128de576128cf86612537565b825294820194908201906128be565b965050860135925050808211156128f457600080fd5b50612901858286016126c2565b9150509250929050565b60008151808452602080850194506020840160005b8381101561293c57815187529582019590820190600101612920565b509495945050505050565b6020815260006125b0602083018461290b565b6000806000806080858703121561297057600080fd5b61297985612537565b9350612987602086016125b7565b93969395505050506040820135916060013590565b80151581146114b957600080fd5b600080604083850312156129bd57600080fd5b6129c683612537565b915060208301356129d68161299c565b809150509250929050565b6000602082840312156129f357600080fd5b6125b082612537565b60008060008060808587031215612a1257600080fd5b612979856125b7565b60008060408385031215612a2e57600080fd5b612a3783612537565b9150612a4560208401612537565b90509250929050565b600060208284031215612a6057600080fd5b6125b0826125b7565b602080825282518282018190526000919060409081850190868401855b82811015612ad357815180516001600160a01b0316855286810151878601528581015186860152606080820151908601526080908101519085015260a09093019290850190600101612a86565b5091979650505050505050565b600080600080600060a08688031215612af857600080fd5b612b0186612537565b9450612b0f60208701612537565b93506040860135925060608601359150608086013567ffffffffffffffff811115612b3957600080fd5b61283e88828901612731565b634e487b7160e01b600052601160045260246000fd5b80820281158282048414176104e1576104e1612b45565b600060208284031215612b8457600080fd5b81516125b08161299c565b634e487b7160e01b600052601260045260246000fd5b600082612bb457612bb4612b8f565b500490565b808201808211156104e1576104e1612b45565b600181811c90821680612be057607f821691505b602082108103612c0057634e487b7160e01b600052602260045260246000fd5b50919050565b634e487b7160e01b600052603260045260246000fd5b600060208284031215612c2e57600080fd5b5051919050565b818103818111156104e1576104e1612b45565b600060018201612c5a57612c5a612b45565b5060010190565b61ffff828116828216039080821115612c7c57612c7c612b45565b5092915050565b600061ffff80841680612c9857612c98612b8f565b92169190910692915050565b600061ffff80841680612cb957612cb9612b8f565b92169190910492915050565b600182810b9082900b03617fff198112617fff821317156104e1576104e1612b45565b600181810b9083900b01617fff8113617fff19821217156104e1576104e1612b45565b604081526000612d1e604083018561290b565b8281036020840152612d30818561290b565b95945050505050565b6001600160a01b03868116825285166020820152604081018490526060810183905260a060808201819052600090612d73908301846125fe565b979650505050505050565b600060208284031215612d9057600080fd5b81516125b08161257d565b6001600160a01b0386811682528516602082015260a060408201819052600090612dc79083018661290b565b8281036060840152612dd9818661290b565b90508281036080840152612ded81856125fe565b9897505050505050505056fea264697066735822122095db73f2a409fed9005e76478974a96d2b7ed7d17edd351c151147767028198f64736f6c6343000818003368747470733a2f2f6170692e6b696c6c67616d652e61692f6d657461646174612f7b69647d2e6a736f6e",
  "linkReferences": {},
  "deployedLinkReferences": {}
}