{
  "_format": "hh-sol-artifact-1",
  "contractName": "KILLGame",
  "sourceName": "contracts/KillGame.sol",
  "abi": [
    {
      "inputs": [
        {
          "internalType": "address",
          "name": "_tokenAddress",
          "type": "address"
        }
      ],
      "stateMutability": "nonpayable",
      "type": "constructor"
    },
    {
      "inputs": [
        {
          "internalType": "address",
          "name": "sender",
          "type": "address"
        },
        {
          "internalType": "uint256",
          "name": "balance",
          "type": "uint256"
        },
        {
          "internalType": "uint256",
          "name": "needed",
          "type": "uint256"
        },
        {
          "internalType": "uint256",
          "name": "tokenId",
          "type": "uint256"
        }
      ],
      "name": "ERC1155InsufficientBalance",
      "type": "error"
    },
    {
      "inputs": [
        {
          "internalType": "address",
          "name": "approver",
          "type": "address"
        }
      ],
      "name": "ERC1155InvalidApprover",
      "type": "error"
    },
    {
      "inputs": [
        {
          "internalType": "uint256",
          "name": "idsLength",
          "type": "uint256"
        },
        {
          "internalType": "uint256",
          "name": "valuesLength",
          "type": "uint256"
        }
      ],
      "name": "ERC1155InvalidArrayLength",
      "type": "error"
    },
    {
      "inputs": [
        {
          "internalType": "address",
          "name": "operator",
          "type": "address"
        }
      ],
      "name": "ERC1155InvalidOperator",
      "type": "error"
    },
    {
      "inputs": [
        {
          "internalType": "address",
          "name": "receiver",
          "type": "address"
        }
      ],
      "name": "ERC1155InvalidReceiver",
      "type": "error"
    },
    {
      "inputs": [
        {
          "internalType": "address",
          "name": "sender",
          "type": "address"
        }
      ],
      "name": "ERC1155InvalidSender",
      "type": "error"
    },
    {
      "inputs": [
        {
          "internalType": "address",
          "name": "operator",
          "type": "address"
        },
        {
          "internalType": "address",
          "name": "owner",
          "type": "address"
        }
      ],
      "name": "ERC1155MissingApprovalForAll",
      "type": "error"
    },
    {
      "inputs": [
        {
          "internalType": "address",
          "name": "owner",
          "type": "address"
        }
      ],
      "name": "OwnableInvalidOwner",
      "type": "error"
    },
    {
      "inputs": [
        {
          "internalType": "address",
          "name": "account",
          "type": "address"
        }
      ],
      "name": "OwnableUnauthorizedAccount",
      "type": "error"
    },
    {
      "inputs": [],
      "name": "ReentrancyGuardReentrantCall",
      "type": "error"
    },
    {
      "anonymous": false,
      "inputs": [
        {
          "indexed": true,
          "internalType": "address",
          "name": "account",
          "type": "address"
        },
        {
          "indexed": true,
          "internalType": "address",
          "name": "operator",
          "type": "address"
        },
        {
          "indexed": false,
          "internalType": "bool",
          "name": "approved",
          "type": "bool"
        }
      ],
      "name": "ApprovalForAll",
      "type": "event"
    },
    {
      "anonymous": false,
      "inputs": [
        {
          "indexed": true,
          "internalType": "address",
          "name": "defender",
          "type": "address"
        },
        {
          "indexed": false,
          "internalType": "uint256",
          "name": "amount",
          "type": "uint256"
        }
      ],
      "name": "DefenderRewarded",
      "type": "event"
    },
    {
      "anonymous": false,
      "inputs": [
        {
          "indexed": false,
          "internalType": "uint256",
          "name": "totalUnitsKilled",
          "type": "uint256"
        },
        {
          "indexed": false,
          "internalType": "uint256",
          "name": "totalReaperKilled",
          "type": "uint256"
        },
        {
          "indexed": false,
          "internalType": "uint256",
          "name": "killAdded",
          "type": "uint256"
        },
        {
          "indexed": false,
          "internalType": "uint256",
          "name": "killExtracted",
          "type": "uint256"
        },
        {
          "indexed": false,
          "internalType": "uint256",
          "name": "killBurned",
          "type": "uint256"
        }
      ],
      "name": "GlobalStats",
      "type": "event"
    },
    {
      "anonymous": false,
      "inputs": [
        {
          "indexed": true,
          "internalType": "address",
          "name": "attacker",
          "type": "address"
        },
        {
          "indexed": true,
          "internalType": "address",
          "name": "target",
          "type": "address"
        },
        {
          "indexed": true,
          "internalType": "uint16",
          "name": "stackId",
          "type": "uint16"
        },
        {
          "indexed": false,
          "internalType": "uint256",
          "name": "attackerUnitsLost",
          "type": "uint256"
        },
        {
          "indexed": false,
          "internalType": "uint256",
          "name": "attackerReaperLost",
          "type": "uint256"
        },
        {
          "indexed": false,
          "internalType": "uint256",
          "name": "targetUnitsLost",
          "type": "uint256"
        },
        {
          "indexed": false,
          "internalType": "uint256",
          "name": "targetReaperLost",
          "type": "uint256"
        },
        {
          "indexed": false,
          "internalType": "uint256",
          "name": "netBounty",
          "type": "uint256"
        },
        {
          "indexed": false,
          "internalType": "uint256",
          "name": "targetBirthBlock",
          "type": "uint256"
        }
      ],
      "name": "Killed",
      "type": "event"
    },
    {
      "anonymous": false,
      "inputs": [
        {
          "indexed": true,
          "internalType": "address",
          "name": "agent",
          "type": "address"
        },
        {
          "indexed": false,
          "internalType": "uint16",
          "name": "fromStack",
          "type": "uint16"
        },
        {
          "indexed": false,
          "internalType": "uint16",
          "name": "toStack",
          "type": "uint16"
        },
        {
          "indexed": false,
          "internalType": "uint256",
          "name": "units",
          "type": "uint256"
        },
        {
          "indexed": false,
          "internalType": "uint256",
          "name": "reaper",
          "type": "uint256"
        },
        {
          "indexed": false,
          "internalType": "uint256",
          "name": "birthBlock",
          "type": "uint256"
        }
      ],
      "name": "Moved",
      "type": "event"
    },
    {
      "anonymous": false,
      "inputs": [
        {
          "indexed": true,
          "internalType": "address",
          "name": "previousOwner",
          "type": "address"
        },
        {
          "indexed": true,
          "internalType": "address",
          "name": "newOwner",
          "type": "address"
        }
      ],
      "name": "OwnershipTransferred",
      "type": "event"
    },
    {
      "anonymous": false,
      "inputs": [
        {
          "indexed": true,
          "internalType": "address",
          "name": "agent",
          "type": "address"
        },
        {
          "indexed": true,
          "internalType": "uint256",
          "name": "stackId",
          "type": "uint256"
        },
        {
          "indexed": false,
          "internalType": "uint256",
          "name": "units",
          "type": "uint256"
        },
        {
          "indexed": false,
          "internalType": "uint256",
          "name": "reapers",
          "type": "uint256"
        },
        {
          "indexed": false,
          "internalType": "uint256",
          "name": "birthBlock",
          "type": "uint256"
        }
      ],
      "name": "Spawned",
      "type": "event"
    },
    {
      "anonymous": false,
      "inputs": [
        {
          "indexed": true,
          "internalType": "address",
          "name": "operator",
          "type": "address"
        },
        {
          "indexed": true,
          "internalType": "address",
          "name": "from",
          "type": "address"
        },
        {
          "indexed": true,
          "internalType": "address",
          "name": "to",
          "type": "address"
        },
        {
          "indexed": false,
          "internalType": "uint256[]",
          "name": "ids",
          "type": "uint256[]"
        },
        {
          "indexed": false,
          "internalType": "uint256[]",
          "name": "values",
          "type": "uint256[]"
        }
      ],
      "name": "TransferBatch",
      "type": "event"
    },
    {
      "anonymous": false,
      "inputs": [
        {
          "indexed": true,
          "internalType": "address",
          "name": "operator",
          "type": "address"
        },
        {
          "indexed": true,
          "internalType": "address",
          "name": "from",
          "type": "address"
        },
        {
          "indexed": true,
          "internalType": "address",
          "name": "to",
          "type": "address"
        },
        {
          "indexed": false,
          "internalType": "uint256",
          "name": "id",
          "type": "uint256"
        },
        {
          "indexed": false,
          "internalType": "uint256",
          "name": "value",
          "type": "uint256"
        }
      ],
      "name": "TransferSingle",
      "type": "event"
    },
    {
      "anonymous": false,
      "inputs": [
        {
          "indexed": false,
          "internalType": "uint256",
          "name": "oldBps",
          "type": "uint256"
        },
        {
          "indexed": false,
          "internalType": "uint256",
          "name": "newBps",
          "type": "uint256"
        }
      ],
      "name": "TreasuryBpsUpdated",
      "type": "event"
    },
    {
      "anonymous": false,
      "inputs": [
        {
          "indexed": false,
          "internalType": "string",
          "name": "value",
          "type": "string"
        },
        {
          "indexed": true,
          "internalType": "uint256",
          "name": "id",
          "type": "uint256"
        }
      ],
      "name": "URI",
      "type": "event"
    },
    {
      "inputs": [],
      "name": "BURN_BPS",
      "outputs": [
        {
          "internalType": "uint256",
          "name": "",
          "type": "uint256"
        }
      ],
      "stateMutability": "view",
      "type": "function"
    },
    {
      "inputs": [],
      "name": "BURN_OF_TREASURY_BPS",
      "outputs": [
        {
          "internalType": "uint256",
          "name": "",
          "type": "uint256"
        }
      ],
      "stateMutability": "view",
      "type": "function"
    },
    {
      "inputs": [],
      "name": "MOVE_COST",
      "outputs": [
        {
          "internalType": "uint256",
          "name": "",
          "type": "uint256"
        }
      ],
      "stateMutability": "view",
      "type": "function"
    },
    {
      "inputs": [],
      "name": "REAPER_SPAWN_COST",
      "outputs": [
        {
          "internalType": "uint256",
          "name": "",
          "type": "uint256"
        }
      ],
      "stateMutability": "view",
      "type": "function"
    },
    {
      "inputs": [],
      "name": "SENDER_BPS",
      "outputs": [
        {
          "internalType": "uint256",
          "name": "",
          "type": "uint256"
        }
      ],
      "stateMutability": "view",
      "type": "function"
    },
    {
      "inputs": [],
      "name": "SPAWN_COST",
      "outputs": [
        {
          "internalType": "uint256",
          "name": "",
          "type": "uint256"
        }
      ],
      "stateMutability": "view",
      "type": "function"
    },
    {
      "inputs": [
        {
          "internalType": "uint256",
          "name": "amt",
          "type": "uint256"
        }
      ],
      "name": "adminWithdraw",
      "outputs": [],
      "stateMutability": "nonpayable",
      "type": "function"
    },
    {
      "inputs": [
        {
          "internalType": "address",
          "name": "",
          "type": "address"
        },
        {
          "internalType": "uint256",
          "name": "",
          "type": "uint256"
        }
      ],
      "name": "agentStacks",
      "outputs": [
        {
          "internalType": "uint256",
          "name": "birthBlock",
          "type": "uint256"
        }
      ],
      "stateMutability": "view",
      "type": "function"
    },
    {
      "inputs": [
        {
          "internalType": "address",
          "name": "",
          "type": "address"
        }
      ],
      "name": "agentTotalProfit",
      "outputs": [
        {
          "internalType": "uint256",
          "name": "",
          "type": "uint256"
        }
      ],
      "stateMutability": "view",
      "type": "function"
    },
    {
      "inputs": [
        {
          "internalType": "address",
          "name": "account",
          "type": "address"
        },
        {
          "internalType": "uint256",
          "name": "id",
          "type": "uint256"
        }
      ],
      "name": "balanceOf",
      "outputs": [
        {
          "internalType": "uint256",
          "name": "",
          "type": "uint256"
        }
      ],
      "stateMutability": "view",
      "type": "function"
    },
    {
      "inputs": [
        {
          "internalType": "address[]",
          "name": "accounts",
          "type": "address[]"
        },
        {
          "internalType": "uint256[]",
          "name": "ids",
          "type": "uint256[]"
        }
      ],
      "name": "balanceOfBatch",
      "outputs": [
        {
          "internalType": "uint256[]",
          "name": "",
          "type": "uint256[]"
        }
      ],
      "stateMutability": "view",
      "type": "function"
    },
    {
      "inputs": [
        {
          "internalType": "address",
          "name": "agent",
          "type": "address"
        },
        {
          "internalType": "uint256",
          "name": "id",
          "type": "uint256"
        }
      ],
      "name": "getBirthBlock",
      "outputs": [
        {
          "internalType": "uint256",
          "name": "",
          "type": "uint256"
        }
      ],
      "stateMutability": "view",
      "type": "function"
    },
    {
      "inputs": [
        {
          "internalType": "uint16",
          "name": "stackId",
          "type": "uint16"
        }
      ],
      "name": "getFullStack",
      "outputs": [
        {
          "components": [
            {
              "internalType": "address",
              "name": "occupant",
              "type": "address"
            },
            {
              "internalType": "uint256",
              "name": "units",
              "type": "uint256"
            },
            {
              "internalType": "uint256",
              "name": "reapers",
              "type": "uint256"
            },
            {
              "internalType": "uint256",
              "name": "age",
              "type": "uint256"
            },
            {
              "internalType": "uint256",
              "name": "pendingBounty",
              "type": "uint256"
            }
          ],
          "internalType": "struct KILLGame.StackInfo[]",
          "name": "",
          "type": "tuple[]"
        }
      ],
      "stateMutability": "view",
      "type": "function"
    },
    {
      "inputs": [
        {
          "internalType": "address",
          "name": "agent",
          "type": "address"
        },
        {
          "internalType": "uint256",
          "name": "id",
          "type": "uint256"
        }
      ],
      "name": "getPendingBounty",
      "outputs": [
        {
          "internalType": "uint256",
          "name": "",
          "type": "uint256"
        }
      ],
      "stateMutability": "view",
      "type": "function"
    },
    {
      "inputs": [
        {
          "internalType": "address",
          "name": "account",
          "type": "address"
        },
        {
          "internalType": "address",
          "name": "operator",
          "type": "address"
        }
      ],
      "name": "isApprovedForAll",
      "outputs": [
        {
          "internalType": "bool",
          "name": "",
          "type": "bool"
        }
      ],
      "stateMutability": "view",
      "type": "function"
    },
    {
      "inputs": [
        {
          "internalType": "address",
          "name": "target",
          "type": "address"
        },
        {
          "internalType": "uint16",
          "name": "stackId",
          "type": "uint16"
        },
        {
          "internalType": "uint256",
          "name": "sentUnits",
          "type": "uint256"
        },
        {
          "internalType": "uint256",
          "name": "sentReaper",
          "type": "uint256"
        }
      ],
      "name": "kill",
      "outputs": [
        {
          "internalType": "uint256",
          "name": "attackerBounty",
          "type": "uint256"
        }
      ],
      "stateMutability": "nonpayable",
      "type": "function"
    },
    {
      "inputs": [],
      "name": "killToken",
      "outputs": [
        {
          "internalType": "contract IERC20",
          "name": "",
          "type": "address"
        }
      ],
      "stateMutability": "view",
      "type": "function"
    },
    {
      "inputs": [
        {
          "internalType": "uint16",
          "name": "fromStack",
          "type": "uint16"
        },
        {
          "internalType": "uint16",
          "name": "toStack",
          "type": "uint16"
        },
        {
          "internalType": "uint256",
          "name": "units",
          "type": "uint256"
        },
        {
          "internalType": "uint256",
          "name": "reaper",
          "type": "uint256"
        }
      ],
      "name": "move",
      "outputs": [],
      "stateMutability": "nonpayable",
      "type": "function"
    },
    {
      "inputs": [],
      "name": "owner",
      "outputs": [
        {
          "internalType": "address",
          "name": "",
          "type": "address"
        }
      ],
      "stateMutability": "view",
      "type": "function"
    },
    {
      "inputs": [],
      "name": "renounceOwnership",
      "outputs": [],
      "stateMutability": "nonpayable",
      "type": "function"
    },
    {
      "inputs": [
        {
          "internalType": "address",
          "name": "from",
          "type": "address"
        },
        {
          "internalType": "address",
          "name": "to",
          "type": "address"
        },
        {
          "internalType": "uint256[]",
          "name": "ids",
          "type": "uint256[]"
        },
        {
          "internalType": "uint256[]",
          "name": "values",
          "type": "uint256[]"
        },
        {
          "internalType": "bytes",
          "name": "data",
          "type": "bytes"
        }
      ],
      "name": "safeBatchTransferFrom",
      "outputs": [],
      "stateMutability": "nonpayable",
      "type": "function"
    },
    {
      "inputs": [
        {
          "internalType": "address",
          "name": "from",
          "type": "address"
        },
        {
          "internalType": "address",
          "name": "to",
          "type": "address"
        },
        {
          "internalType": "uint256",
          "name": "id",
          "type": "uint256"
        },
        {
          "internalType": "uint256",
          "name": "value",
          "type": "uint256"
        },
        {
          "internalType": "bytes",
          "name": "data",
          "type": "bytes"
        }
      ],
      "name": "safeTransferFrom",
      "outputs": [],
      "stateMutability": "nonpayable",
      "type": "function"
    },
    {
      "inputs": [
        {
          "internalType": "address",
          "name": "operator",
          "type": "address"
        },
        {
          "internalType": "bool",
          "name": "approved",
          "type": "bool"
        }
      ],
      "name": "setApprovalForAll",
      "outputs": [],
      "stateMutability": "nonpayable",
      "type": "function"
    },
    {
      "inputs": [
        {
          "internalType": "uint256",
          "name": "_newBps",
          "type": "uint256"
        }
      ],
      "name": "setTreasuryBps",
      "outputs": [],
      "stateMutability": "nonpayable",
      "type": "function"
    },
    {
      "inputs": [
        {
          "internalType": "uint16",
          "name": "stackId",
          "type": "uint16"
        },
        {
          "internalType": "uint256",
          "name": "amount",
          "type": "uint256"
        }
      ],
      "name": "spawn",
      "outputs": [],
      "stateMutability": "nonpayable",
      "type": "function"
    },
    {
      "inputs": [
        {
          "internalType": "bytes4",
          "name": "id",
          "type": "bytes4"
        }
      ],
      "name": "supportsInterface",
      "outputs": [
        {
          "internalType": "bool",
          "name": "",
          "type": "bool"
        }
      ],
      "stateMutability": "view",
      "type": "function"
    },
    {
      "inputs": [],
      "name": "totalKillBurned",
      "outputs": [
        {
          "internalType": "uint256",
          "name": "",
          "type": "uint256"
        }
      ],
      "stateMutability": "view",
      "type": "function"
    },
    {
      "inputs": [],
      "name": "totalKillExtracted",
      "outputs": [
        {
          "internalType": "uint256",
          "name": "",
          "type": "uint256"
        }
      ],
      "stateMutability": "view",
      "type": "function"
    },
    {
      "inputs": [],
      "name": "totalReaperKilled",
      "outputs": [
        {
          "internalType": "uint256",
          "name": "",
          "type": "uint256"
        }
      ],
      "stateMutability": "view",
      "type": "function"
    },
    {
      "inputs": [],
      "name": "totalUnitsKilled",
      "outputs": [
        {
          "internalType": "uint256",
          "name": "",
          "type": "uint256"
        }
      ],
      "stateMutability": "view",
      "type": "function"
    },
    {
      "inputs": [],
      "name": "totalUnitsMinted",
      "outputs": [
        {
          "internalType": "uint256",
          "name": "",
          "type": "uint256"
        }
      ],
      "stateMutability": "view",
      "type": "function"
    },
    {
      "inputs": [
        {
          "internalType": "address",
          "name": "newOwner",
          "type": "address"
        }
      ],
      "name": "transferOwnership",
      "outputs": [],
      "stateMutability": "nonpayable",
      "type": "function"
    },
    {
      "inputs": [],
      "name": "treasuryBalance",
      "outputs": [
        {
          "internalType": "uint256",
          "name": "",
          "type": "uint256"
        }
      ],
      "stateMutability": "view",
      "type": "function"
    },
    {
      "inputs": [],
      "name": "treasuryBps",
      "outputs": [
        {
          "internalType": "uint256",
          "name": "",
          "type": "uint256"
        }
      ],
      "stateMutability": "view",
      "type": "function"
    },
    {
      "inputs": [
        {
          "internalType": "uint256",
          "name": "",
          "type": "uint256"
        }
      ],
      "name": "uri",
      "outputs": [
        {
          "internalType": "string",
          "name": "",
          "type": "string"
        }
      ],
      "stateMutability": "view",
      "type": "function"
    }
  ],
  "bytecode": "0x60a06040526109c46005553480156200001757600080fd5b506040516200325d3803806200325d8339810160408190526200003a9162000117565b336040518060600160405280602a815260200162003233602a91396200006081620000b3565b5060016003556001600160a01b0381166200009557604051631e4fbdf760e01b81526000600482015260240160405180910390fd5b620000a081620000c5565b506001600160a01b0316608052620002bc565b6002620000c18282620001f0565b5050565b600480546001600160a01b038381166001600160a01b0319831681179093556040519116919082907f8be0079c531659141344cd1fd0a4f28419497f9722a3daafe3b4186f6b6457e090600090a35050565b6000602082840312156200012a57600080fd5b81516001600160a01b03811681146200014257600080fd5b9392505050565b634e487b7160e01b600052604160045260246000fd5b600181811c908216806200017457607f821691505b6020821081036200019557634e487b7160e01b600052602260045260246000fd5b50919050565b601f821115620001eb576000816000526020600020601f850160051c81016020861015620001c65750805b601f850160051c820191505b81811015620001e757828155600101620001d2565b5050505b505050565b81516001600160401b038111156200020c576200020c62000149565b62000224816200021d84546200015f565b846200019b565b602080601f8311600181146200025c5760008415620002435750858301515b600019600386901b1c1916600185901b178555620001e7565b600085815260208120601f198616915b828110156200028d578886015182559484019460019091019084016200026c565b5085821015620002ac5787850151600019600388901b60f8161c191681555b5050505050600190811b01905550565b608051612f2a62000309600039600081816102aa015281816105a90152818161098401528181610f69015281816111d401528181611af501528181611ba90152611c980152612f2a6000f3fe608060405234801561001057600080fd5b50600436106102105760003560e01c80637c5b4a3711610125578063c68e8075116100ad578063ea075ee11161007c578063ea075ee114610457578063edbd5df81461046a578063ef0a131114610495578063f242432a146104b5578063f2fde38b146104c857600080fd5b8063c68e807514610411578063c704c3f1146103a6578063e74fe23714610431578063e985e9c51461044457600080fd5b806394456848116100f457806394456848146103a6578063a22cb465146103b5578063a37a9fc01461025e578063b8011328146103c8578063bb6eb359146103fe57600080fd5b80637c5b4a371461036657806388b00adc146103795780638da5cb5b1461038257806391fa2a6a1461039357600080fd5b80632ee8174e116101a85780634e1273f4116101775780634e1273f41461031b5780635635fdbc1461033b57806358510ac814610344578063715018a614610355578063781298821461035d57600080fd5b80632ee8174e146102f7578063313dab20146103005780633b8726e2146103095780634dc10ea11461031257600080fd5b80630a08f3d0116101e45780630a08f3d01461027c5780630e89341c146102855780632bd7cd17146102a55780632eb2c2d6146102e457600080fd5b8062fdd58e1461021557806301ffc9a71461023b578063081e87b91461025e57806309f6182614610267575b600080fd5b61022861022336600461264e565b6104db565b6040519081526020015b60405180910390f35b61024e61024936600461268e565b610503565b6040519015158152602001610232565b61022861029a81565b61027a6102753660046126c4565b61050e565b005b61022860075481565b6102986102933660046126e0565b610784565b604051610232919061273f565b6102cc7f000000000000000000000000000000000000000000000000000000000000000081565b6040516001600160a01b039091168152602001610232565b61027a6102f236600461289c565b610818565b61022860095481565b61022860065481565b610228611d4c81565b61022860055481565b61032e610329366004612946565b61087f565b6040516102329190612a42565b610228600a5481565b6102286901690a1119cec590000081565b61027a61094c565b61022860085481565b61027a6103743660046126e0565b610960565b610228600b5481565b6004546001600160a01b03166102cc565b6102286103a1366004612a55565b6109f9565b610228678ac7230489e8000081565b61027a6103c3366004612aa5565b610dee565b6102286103d636600461264e565b6001600160a01b03919091166000908152600c60209081526040808320938352929052205490565b61027a61040c3660046126e0565b610df9565b61022861041f366004612adc565b600f6020526000908152604090205481565b61027a61043f366004612af7565b610e83565b61024e610452366004612b16565b61114e565b61022861046536600461264e565b61117c565b61022861047836600461264e565b600c60209081526000928352604080842090915290825290205481565b6104a86104a3366004612b49565b61128a565b6040516102329190612b64565b61027a6104c3366004612bdb565b6115c3565b61027a6104d6366004612adc565b611622565b6000818152602081815260408083206001600160a01b03861684529091529020545b92915050565b60006104fd82611660565b6105166116b0565b60008261ffff1611801561052f575060d88261ffff1611155b6105705760405162461bcd60e51b815260206004820152600d60248201526c496e76616c696420537461636b60981b60448201526064015b60405180910390fd5b6000610584678ac7230489e8000083612c56565b6040516323b872dd60e01b8152336004820152306024820152604481018290529091507f00000000000000000000000000000000000000000000000000000000000000006001600160a01b0316906323b872dd906064016020604051808303816000875af11580156105fa573d6000803e3d6000fd5b505050506040513d601f19601f8201168201806040525081019061061e9190612c6d565b6106555760405162461bcd60e51b815260206004820152600860248201526714185e4819985a5b60c21b6044820152606401610567565b600061271061029a830260068054929091048085039092019055600b80549091019055506007805483019055600061068f61029a84612ca0565b90506106a0338561ffff16856116da565b80156106bf576106bf336106b961ffff871660d8612cb4565b836116da565b60408051848152602081018390524381830152905161ffff86169133917faf4ea7c0f51d4c33144122655ecd0051aa44b546b9daa750ab0d9144f3ed637e9181900360600190a37f6b8aeaa3365d2dfcb9acc94f0a7429b657b4f2008cfafb9b10297011e077c650600854600954678ac7230489e800006007546107439190612c56565b600a54600b54604080519586526020860194909452928401919091526060830152608082015260a00160405180910390a150506107806001600355565b5050565b60606002805461079390612cc7565b80601f01602080910402602001604051908101604052809291908181526020018280546107bf90612cc7565b801561080c5780601f106107e15761010080835404028352916020019161080c565b820191906000526020600020905b8154815290600101906020018083116107ef57829003601f168201915b50505050509050919050565b336001600160a01b03861681148015906108395750610837868261114e565b155b1561086a5760405163711bec9160e11b81526001600160a01b03808316600483015287166024820152604401610567565b6108778686868686611792565b505050505050565b606081518351146108b05781518351604051635b05999160e01b815260048101929092526024820152604401610567565b6000835167ffffffffffffffff8111156108cc576108cc612752565b6040519080825280602002602001820160405280156108f5578160200160208202803683370190505b50905060005b84518110156109445760208082028601015161091f906020808402870101516104db565b82828151811061093157610931612d01565b60209081029190910101526001016108fb565b509392505050565b6109546117f9565b61095e6000611826565b565b6109686117f9565b60405163a9059cbb60e01b8152336004820152602481018290527f00000000000000000000000000000000000000000000000000000000000000006001600160a01b03169063a9059cbb906044016020604051808303816000875af11580156109d5573d6000803e3d6000fd5b505050506040513d601f19601f820116820180604052508101906107809190612c6d565b6000610a036116b0565b61ffff84166000610a158260d8612cb4565b905084610a2233846104db565b10158015610a39575083610a3633836104db565b10155b610a725760405162461bcd60e51b815260206004820152600a6024820152694c61636b20756e69747360b01b6044820152606401610567565b6001600160a01b0387166000908152600c6020908152604080832085845290915281205490610aa5338a86868b8b611878565b9050610ab189856104db565b816040015103610ae6576000848152600e602090815260408083206001600160a01b038d1684529091529020805460ff191690555b610af089846104db565b816060015103610b25576000838152600e602090815260408083206001600160a01b038d1684529091529020805460ff191690555b600081604001511180610b3c575060008160600151115b15610b8657610b558985836040015184606001516119d8565b9450610b613386611b8c565b336000908152600f602052604081208054879290610b80908490612cb4565b90915550505b8051600090151580610b9c575060008260200151115b15610c2d576901690a1119cec59000008260200151610bbb9190612c56565b8251610bd090678ac7230489e8000090612c56565b610bda9190612cb4565b90506064610be982604b612c56565b610bf39190612ca0565b9050610bff8a82611b8c565b6001600160a01b038a166000908152600f602052604081208054839290610c27908490612cb4565b90915550505b6040820151825160088054918301909101905560608301516020840151600980549190920101905515610c6957610c698a868460400151611d3f565b606082015115610c8257610c828a858460600151611d3f565b815115610c9857610c9833868460000151611d3f565b602082015115610cb157610cb133858460200151611d3f565b8151602080840151604080860151606080880151835196875294860193909352908401528201526080810187905260a0810184905261ffff8a16906001600160a01b038c169033907fe8cf87740e16519b389a47fd487b7c8330c651cf9af2e1a698676cb488a8cd4e9060c00160405180910390a4896001600160a01b03167fdf7a5d9a98a2f71d704a4e6a4c0422d79ed27521ad9cfd55e985d5fb94cfaffe82604051610d6191815260200190565b60405180910390a27f6b8aeaa3365d2dfcb9acc94f0a7429b657b4f2008cfafb9b10297011e077c650600854600954678ac7230489e80000600754610da69190612c56565b600a54600b54604080519586526020860194909452928401919091526060830152608082015260a00160405180910390a15050505050610de66001600355565b949350505050565b610780338383611da7565b610e016117f9565b612710811115610e3e5760405162461bcd60e51b81526020600482015260086024820152674d6178203130302560c01b6044820152606401610567565b600580549082905560408051828152602081018490527f6993bc581306fd40069a7f8d78fd994e52ce66bdacf741f949a3e4bdcf28ca80910160405180910390a15050565b610e8b6116b0565b60008461ffff16118015610ea4575060d88461ffff1611155b610edf5760405162461bcd60e51b815260206004820152600c60248201526b496e76616c69642046726f6d60a01b6044820152606401610567565b60008361ffff16118015610ef8575060d88361ffff1611155b8015610f095750610f098484611e3d565b610f405760405162461bcd60e51b8152602060048201526008602482015267426164206d6f766560c01b6044820152606401610567565b6040516323b872dd60e01b8152336004820152306024820152678ac7230489e8000060448201527f00000000000000000000000000000000000000000000000000000000000000006001600160a01b0316906323b872dd906064016020604051808303816000875af1158015610fba573d6000803e3d6000fd5b505050506040513d601f19601f82011682018060405250810190610fde9190612c6d565b6110155760405162461bcd60e51b815260206004820152600860248201526714185e4819985a5b60c21b6044820152606401610567565b60068054678189078bdd7f0000019055600b805467093e1b78ac690000019055811561104e5761104e8461ffff168461ffff1684611f69565b801561107b5761107b61106661ffff861660d8612cb4565b61107561ffff861660d8612cb4565b83611f69565b6040805161ffff8087168252851660208201529081018390526060810182905243608082015233907f377dc7145bd8ab426842504b448652c41dda00abb7f7c1df6bdfa40bd2a16f2c9060a00160405180910390a27f6b8aeaa3365d2dfcb9acc94f0a7429b657b4f2008cfafb9b10297011e077c650600854600954678ac7230489e8000060075461110d9190612c56565b600a54600b54604080519586526020860194909452928401919091526060830152608082015260a00160405180910390a16111486001600355565b50505050565b6001600160a01b03918216600090815260016020908152604080832093909416825291909152205460ff1690565b6001600160a01b0382166000908152600c602090815260408083208484529091528120548015806111ad5750804311155b156111bc5760009150506104fd565b6040516370a0823160e01b81523060048201526000907f00000000000000000000000000000000000000000000000000000000000000006001600160a01b0316906370a0823190602401602060405180830381865afa158015611223573d6000803e3d6000fd5b505050506040513d601f19601f820116820180604052508101906112479190612d17565b905060006112558343612d30565b90506402540be400600554828461126c9190612c56565b6112769190612c56565b6112809190612ca0565b9695505050505050565b606061ffff8216600061129e8260d8612cb4565b6000838152600d602090815260408083208054825181850281018501909352808352949550929390929183018282801561130157602002820191906000526020600020905b81546001600160a01b031681526001909101906020018083116112e3575b505050505090506000805b82518110156113d357600e6000868152602001908152602001600020600084838151811061133c5761133c612d01565b6020908102919091018101516001600160a01b031682528101919091526040016000205460ff16806113b85750600e6000858152602001908152602001600020600084838151811061139057611390612d01565b6020908102919091018101516001600160a01b031682528101919091526040016000205460ff165b156113cb57816113c781612d43565b9250505b60010161130c565b5060008167ffffffffffffffff8111156113ef576113ef612752565b60405190808252806020026020018201604052801561145b57816020015b6114486040518060a0016040528060006001600160a01b03168152602001600081526020016000815260200160008152602001600081525090565b81526020019060019003908161140d5790505b5090506000805b84518110156115b657600085828151811061147f5761147f612d01565b60209081029190910181015160008a8152600e835260408082206001600160a01b0384168352909352919091205490915060ff16806114e057506000878152600e602090815260408083206001600160a01b038516845290915290205460ff165b156115ad5760006114f1828a6104db565b905060006114ff838a6104db565b6001600160a01b0384166000818152600c602090815260408083208f845282529182902054825160a081018452938452908301869052908201839052919250606081018261154e576000611558565b6115588343612d30565b8152602001611567868d61117c565b611571878f61117c565b61157b9190612cb4565b81525087878151811061159057611590612d01565b602002602001018190525085806115a690612d43565b9650505050505b50600101611462565b5090979650505050505050565b336001600160a01b03861681148015906115e457506115e2868261114e565b155b156116155760405163711bec9160e11b81526001600160a01b03808316600483015287166024820152604401610567565b61087786868686866120d7565b61162a6117f9565b6001600160a01b03811661165457604051631e4fbdf760e01b815260006004820152602401610567565b61165d81611826565b50565b60006001600160e01b03198216636cdb3d1360e11b148061169157506001600160e01b031982166303a24d0760e21b145b806104fd57506301ffc9a760e01b6001600160e01b03198316146104fd565b6002600354036116d357604051633ee5aeb560e01b815260040160405180910390fd5b6002600355565b6116f583838360405180602001604052806000815250612165565b6001600160a01b0383166000818152600c602090815260408083208684528252808320439055600e8252808320938352929052205460ff1661178d576000828152600d602090815260408083208054600180820183559185528385200180546001600160a01b0319166001600160a01b038916908117909155868552600e8452828520908552909252909120805460ff191690911790555b505050565b6001600160a01b0384166117bc57604051632bfa23e760e11b815260006004820152602401610567565b6001600160a01b0385166117e557604051626a0d4560e21b815260006004820152602401610567565b6117f285858585856121be565b5050505050565b6004546001600160a01b0316331461095e5760405163118cdaa760e01b8152336004820152602401610567565b600480546001600160a01b038381166001600160a01b0319831681179093556040519116919082907f8be0079c531659141344cd1fd0a4f28419497f9722a3daafe3b4186f6b6457e090600090a35050565b6118a36040518060800160405280600081526020016000815260200160008152602001600081525090565b60006118b18361029a612c56565b6118bb9085612cb4565b905060006118c988886104db565b905060006118d789886104db565b9050886001600160a01b03168a6001600160a01b03160361190b576118fc8683612d30565b91506119088582612d30565b90505b6000606461191b8361029a612c56565b6119259085612cb4565b61193090606e612c56565b61193a9190612ca0565b905080600003611948575060015b8084111561196d576040850183905260608501829052600080865260208601526119ca565b8685526020850186905260006119838580612c56565b905060006119918380612c56565b90508061199e8387612c56565b6119a89190612ca0565b6040880152806119b88386612c56565b6119c29190612ca0565b606088015250505b505050509695505050505050565b6000806119ea866104658760d8612cb4565b6119f4878761117c565b6119fe9190612cb4565b90506000611a11876102238860d8612cb4565b611a1d9061029a612c56565b611a2788886104db565b611a319190612cb4565b905080600003611a4657600092505050610de6565b6000611a548561029a612c56565b611a5e9087612cb4565b9050600082611a6d8386612c56565b611a779190612ca0565b90506000612710611a8a611d4c84612c56565b611a949190612ca0565b905060006064611aac678ac7230489e8000086612c56565b611ab7906019612c56565b611ac19190612ca0565b90506000611acf8383612cb4565b6040516370a0823160e01b81523060048201529091506000906014906001600160a01b037f000000000000000000000000000000000000000000000000000000000000000016906370a0823190602401602060405180830381865afa158015611b3c573d6000803e3d6000fd5b505050506040513d601f19601f82011682018060405250810190611b609190612d17565b611b6a9190612ca0565b9050808211611b795781611b7b565b805b9d9c50505050505050505050505050565b8015610780576040516370a0823160e01b815230600482015281907f00000000000000000000000000000000000000000000000000000000000000006001600160a01b0316906370a0823190602401602060405180830381865afa158015611bf8573d6000803e3d6000fd5b505050506040513d601f19601f82011682018060405250810190611c1c9190612d17565b1015611c5b5760405162461bcd60e51b815260206004820152600e60248201526d547265617375727920656d70747960901b6044820152606401610567565b80600a6000828254611c6d9190612cb4565b909155505060405163a9059cbb60e01b81526001600160a01b038381166004830152602482018390527f0000000000000000000000000000000000000000000000000000000000000000169063a9059cbb906044016020604051808303816000875af1158015611ce1573d6000803e3d6000fd5b505050506040513d601f19601f82011682018060405250810190611d059190612c6d565b6107805760405162461bcd60e51b815260206004820152600b60248201526a14185e5bdd5d0819985a5b60aa1b6044820152606401610567565b6001600160a01b038316611d6857604051626a0d4560e21b815260006004820152602401610567565b604080516001808252602082018590528183019081526060820184905260a082019092526000608082018181529192916117f2918791859085906121be565b6001600160a01b038216611dd05760405162ced3e160e81b815260006004820152602401610567565b6001600160a01b03838116600081815260016020908152604080832094871680845294825291829020805460ff191686151590811790915591519182527f17307eab39ab6107e8899845ad3d59bd9653f200f220920489ca2b5937696c31910160405180910390a3505050565b600080611e4b600185612d5c565b90506000611e5a600185612d5c565b90506000611e69600684612d7e565b905060006006611e798186612d9f565b611e839190612d7e565b90506000611e92602486612d9f565b90506000611ea1600686612d7e565b905060006006611eb18188612d9f565b611ebb9190612d7e565b90506000611eca602488612d9f565b90508060010b8460010b13611ee857611ee38482612dc0565b611ef2565b611ef28185612dc0565b8260010b8660010b13611f0e57611f098684612dc0565b611f18565b611f188387612dc0565b8460010b8860010b13611f3457611f2f8886612dc0565b611f3e565b611f3e8589612dc0565b611f489190612de3565b611f529190612de3565b61ffff166001149850505050505050505092915050565b80611f7433856104db565b1015611fb75760405162461bcd60e51b8152602060048201526012602482015271496e73756666696369656e7420756e69747360701b6044820152606401610567565b611fc2338483611d3f565b611fcc33846104db565b600003612005576000838152600e602090815260408083203384528252808320805460ff19169055600c82528083208684529091528120555b61202033838360405180602001604052806000815250612165565b336000908152600c60209081526040808320858452909152812054900361205f57336000908152600c6020908152604080832085845290915290204390555b6000828152600e6020908152604080832033845290915290205460ff1661178d576000828152600d602090815260408083208054600181810183559185528385200180546001600160a01b03191633908117909155868552600e8452828520908552909252909120805460ff19169091179055505050565b6001600160a01b03841661210157604051632bfa23e760e11b815260006004820152602401610567565b6001600160a01b03851661212a57604051626a0d4560e21b815260006004820152602401610567565b6040805160018082526020820186905281830190815260608201859052608082019092529061215c87878484876121be565b50505050505050565b6001600160a01b03841661218f57604051632bfa23e760e11b815260006004820152602401610567565b604080516001808252602082018690528183019081526060820185905260808201909252906108776000878484875b6121ca85858585612211565b6001600160a01b038416156117f2578251339060010361220357602084810151908401516121fc838989858589612425565b5050610877565b610877818787878787612549565b80518251146122405781518151604051635b05999160e01b815260048101929092526024820152604401610567565b3360005b8351811015612346576020818102858101820151908501909101516001600160a01b038816156122f7576000828152602081815260408083206001600160a01b038c168452909152902054818110156122d0576040516303dee4c560e01b81526001600160a01b038a166004820152602481018290526044810183905260648101849052608401610567565b6000838152602081815260408083206001600160a01b038d16845290915290209082900390555b6001600160a01b0387161561233c576000828152602081815260408083206001600160a01b038b16845290915281208054839290612336908490612cb4565b90915550505b5050600101612244565b5082516001036123c75760208301516000906020840151909150856001600160a01b0316876001600160a01b0316846001600160a01b03167fc3d58168c5ae7397731d063d5bbf3d657854427343f4c083240f7aacaa2d0f6285856040516123b8929190918252602082015260400190565b60405180910390a450506117f2565b836001600160a01b0316856001600160a01b0316826001600160a01b03167f4a39dc06d4c0dbc64b70af90fd698a233a518aa5d07e595d983b8c0526c8f7fb8686604051612416929190612e06565b60405180910390a45050505050565b6001600160a01b0384163b156108775760405163f23a6e6160e01b81526001600160a01b0385169063f23a6e61906124699089908990889088908890600401612e34565b6020604051808303816000875af19250505080156124a4575060408051601f3d908101601f191682019092526124a191810190612e79565b60015b61250d573d8080156124d2576040519150601f19603f3d011682016040523d82523d6000602084013e6124d7565b606091505b50805160000361250557604051632bfa23e760e11b81526001600160a01b0386166004820152602401610567565b805160208201fd5b6001600160e01b0319811663f23a6e6160e01b1461215c57604051632bfa23e760e11b81526001600160a01b0386166004820152602401610567565b6001600160a01b0384163b156108775760405163bc197c8160e01b81526001600160a01b0385169063bc197c819061258d9089908990889088908890600401612e96565b6020604051808303816000875af19250505080156125c8575060408051601f3d908101601f191682019092526125c591810190612e79565b60015b6125f6573d8080156124d2576040519150601f19603f3d011682016040523d82523d6000602084013e6124d7565b6001600160e01b0319811663bc197c8160e01b1461215c57604051632bfa23e760e11b81526001600160a01b0386166004820152602401610567565b80356001600160a01b038116811461264957600080fd5b919050565b6000806040838503121561266157600080fd5b61266a83612632565b946020939093013593505050565b6001600160e01b03198116811461165d57600080fd5b6000602082840312156126a057600080fd5b81356126ab81612678565b9392505050565b803561ffff8116811461264957600080fd5b600080604083850312156126d757600080fd5b61266a836126b2565b6000602082840312156126f257600080fd5b5035919050565b6000815180845260005b8181101561271f57602081850181015186830182015201612703565b506000602082860101526020601f19601f83011685010191505092915050565b6020815260006126ab60208301846126f9565b634e487b7160e01b600052604160045260246000fd5b604051601f8201601f1916810167ffffffffffffffff8111828210171561279157612791612752565b604052919050565b600067ffffffffffffffff8211156127b3576127b3612752565b5060051b60200190565b600082601f8301126127ce57600080fd5b813560206127e36127de83612799565b612768565b8083825260208201915060208460051b87010193508684111561280557600080fd5b602086015b84811015612821578035835291830191830161280a565b509695505050505050565b600082601f83011261283d57600080fd5b813567ffffffffffffffff81111561285757612857612752565b61286a601f8201601f1916602001612768565b81815284602083860101111561287f57600080fd5b816020850160208301376000918101602001919091529392505050565b600080600080600060a086880312156128b457600080fd5b6128bd86612632565b94506128cb60208701612632565b9350604086013567ffffffffffffffff808211156128e857600080fd5b6128f489838a016127bd565b9450606088013591508082111561290a57600080fd5b61291689838a016127bd565b9350608088013591508082111561292c57600080fd5b506129398882890161282c565b9150509295509295909350565b6000806040838503121561295957600080fd5b823567ffffffffffffffff8082111561297157600080fd5b818501915085601f83011261298557600080fd5b813560206129956127de83612799565b82815260059290921b840181019181810190898411156129b457600080fd5b948201945b838610156129d9576129ca86612632565b825294820194908201906129b9565b965050860135925050808211156129ef57600080fd5b506129fc858286016127bd565b9150509250929050565b60008151808452602080850194506020840160005b83811015612a3757815187529582019590820190600101612a1b565b509495945050505050565b6020815260006126ab6020830184612a06565b60008060008060808587031215612a6b57600080fd5b612a7485612632565b9350612a82602086016126b2565b93969395505050506040820135916060013590565b801515811461165d57600080fd5b60008060408385031215612ab857600080fd5b612ac183612632565b91506020830135612ad181612a97565b809150509250929050565b600060208284031215612aee57600080fd5b6126ab82612632565b60008060008060808587031215612b0d57600080fd5b612a74856126b2565b60008060408385031215612b2957600080fd5b612b3283612632565b9150612b4060208401612632565b90509250929050565b600060208284031215612b5b57600080fd5b6126ab826126b2565b602080825282518282018190526000919060409081850190868401855b82811015612bce57815180516001600160a01b0316855286810151878601528581015186860152606080820151908601526080908101519085015260a09093019290850190600101612b81565b5091979650505050505050565b600080600080600060a08688031215612bf357600080fd5b612bfc86612632565b9450612c0a60208701612632565b93506040860135925060608601359150608086013567ffffffffffffffff811115612c3457600080fd5b6129398882890161282c565b634e487b7160e01b600052601160045260246000fd5b80820281158282048414176104fd576104fd612c40565b600060208284031215612c7f57600080fd5b81516126ab81612a97565b634e487b7160e01b600052601260045260246000fd5b600082612caf57612caf612c8a565b500490565b808201808211156104fd576104fd612c40565b600181811c90821680612cdb57607f821691505b602082108103612cfb57634e487b7160e01b600052602260045260246000fd5b50919050565b634e487b7160e01b600052603260045260246000fd5b600060208284031215612d2957600080fd5b5051919050565b818103818111156104fd576104fd612c40565b600060018201612d5557612d55612c40565b5060010190565b61ffff828116828216039080821115612d7757612d77612c40565b5092915050565b600061ffff80841680612d9357612d93612c8a565b92169190910692915050565b600061ffff80841680612db457612db4612c8a565b92169190910492915050565b600182810b9082900b03617fff198112617fff821317156104fd576104fd612c40565b600181810b9083900b01617fff8113617fff19821217156104fd576104fd612c40565b604081526000612e196040830185612a06565b8281036020840152612e2b8185612a06565b95945050505050565b6001600160a01b03868116825285166020820152604081018490526060810183905260a060808201819052600090612e6e908301846126f9565b979650505050505050565b600060208284031215612e8b57600080fd5b81516126ab81612678565b6001600160a01b0386811682528516602082015260a060408201819052600090612ec290830186612a06565b8281036060840152612ed48186612a06565b90508281036080840152612ee881856126f9565b9897505050505050505056fea26469706673582212201c8f94d9efd8378272cd8e3447f976a6ae922cfe6ec5563fc896018a9b81ce2064736f6c6343000818003368747470733a2f2f6170692e6b696c6c67616d652e61692f6d657461646174612f7b69647d2e6a736f6e",
  "linkReferences": {},
  "deployedLinkReferences": {}
}