{
  "_format": "hh-sol-artifact-1",
  "contractName": "KILLGame",
  "sourceName": "contracts/KillGame.sol",
  "abi": [
    {
      "inputs": [
        {
          "internalType": "address",
          "name": "_tokenAddress",
          "type": "address"
        }
      ],
      "stateMutability": "nonpayable",
      "type": "constructor"
    },
    {
      "inputs": [
        {
          "internalType": "address",
          "name": "sender",
          "type": "address"
        },
        {
          "internalType": "uint256",
          "name": "balance",
          "type": "uint256"
        },
        {
          "internalType": "uint256",
          "name": "needed",
          "type": "uint256"
        },
        {
          "internalType": "uint256",
          "name": "tokenId",
          "type": "uint256"
        }
      ],
      "name": "ERC1155InsufficientBalance",
      "type": "error"
    },
    {
      "inputs": [
        {
          "internalType": "address",
          "name": "approver",
          "type": "address"
        }
      ],
      "name": "ERC1155InvalidApprover",
      "type": "error"
    },
    {
      "inputs": [
        {
          "internalType": "uint256",
          "name": "idsLength",
          "type": "uint256"
        },
        {
          "internalType": "uint256",
          "name": "valuesLength",
          "type": "uint256"
        }
      ],
      "name": "ERC1155InvalidArrayLength",
      "type": "error"
    },
    {
      "inputs": [
        {
          "internalType": "address",
          "name": "operator",
          "type": "address"
        }
      ],
      "name": "ERC1155InvalidOperator",
      "type": "error"
    },
    {
      "inputs": [
        {
          "internalType": "address",
          "name": "receiver",
          "type": "address"
        }
      ],
      "name": "ERC1155InvalidReceiver",
      "type": "error"
    },
    {
      "inputs": [
        {
          "internalType": "address",
          "name": "sender",
          "type": "address"
        }
      ],
      "name": "ERC1155InvalidSender",
      "type": "error"
    },
    {
      "inputs": [
        {
          "internalType": "address",
          "name": "operator",
          "type": "address"
        },
        {
          "internalType": "address",
          "name": "owner",
          "type": "address"
        }
      ],
      "name": "ERC1155MissingApprovalForAll",
      "type": "error"
    },
    {
      "inputs": [
        {
          "internalType": "address",
          "name": "owner",
          "type": "address"
        }
      ],
      "name": "OwnableInvalidOwner",
      "type": "error"
    },
    {
      "inputs": [
        {
          "internalType": "address",
          "name": "account",
          "type": "address"
        }
      ],
      "name": "OwnableUnauthorizedAccount",
      "type": "error"
    },
    {
      "inputs": [],
      "name": "ReentrancyGuardReentrantCall",
      "type": "error"
    },
    {
      "anonymous": false,
      "inputs": [
        {
          "indexed": true,
          "internalType": "address",
          "name": "account",
          "type": "address"
        },
        {
          "indexed": true,
          "internalType": "address",
          "name": "operator",
          "type": "address"
        },
        {
          "indexed": false,
          "internalType": "bool",
          "name": "approved",
          "type": "bool"
        }
      ],
      "name": "ApprovalForAll",
      "type": "event"
    },
    {
      "anonymous": false,
      "inputs": [
        {
          "indexed": true,
          "internalType": "address",
          "name": "defender",
          "type": "address"
        },
        {
          "indexed": false,
          "internalType": "uint256",
          "name": "amount",
          "type": "uint256"
        }
      ],
      "name": "DefenderRewarded",
      "type": "event"
    },
    {
      "anonymous": false,
      "inputs": [
        {
          "indexed": false,
          "internalType": "uint256",
          "name": "totalUnitsKilled",
          "type": "uint256"
        },
        {
          "indexed": false,
          "internalType": "uint256",
          "name": "totalReaperKilled",
          "type": "uint256"
        },
        {
          "indexed": false,
          "internalType": "uint256",
          "name": "killAdded",
          "type": "uint256"
        },
        {
          "indexed": false,
          "internalType": "uint256",
          "name": "killExtracted",
          "type": "uint256"
        },
        {
          "indexed": false,
          "internalType": "uint256",
          "name": "killBurned",
          "type": "uint256"
        }
      ],
      "name": "GlobalStats",
      "type": "event"
    },
    {
      "anonymous": false,
      "inputs": [
        {
          "indexed": true,
          "internalType": "address",
          "name": "attacker",
          "type": "address"
        },
        {
          "indexed": true,
          "internalType": "address",
          "name": "target",
          "type": "address"
        },
        {
          "indexed": true,
          "internalType": "uint16",
          "name": "stackId",
          "type": "uint16"
        },
        {
          "components": [
            {
              "internalType": "uint256",
              "name": "attackerUnitsSent",
              "type": "uint256"
            },
            {
              "internalType": "uint256",
              "name": "attackerReaperSent",
              "type": "uint256"
            },
            {
              "internalType": "uint256",
              "name": "attackerUnitsLost",
              "type": "uint256"
            },
            {
              "internalType": "uint256",
              "name": "attackerReaperLost",
              "type": "uint256"
            },
            {
              "internalType": "uint256",
              "name": "targetUnitsLost",
              "type": "uint256"
            },
            {
              "internalType": "uint256",
              "name": "targetReaperLost",
              "type": "uint256"
            },
            {
              "internalType": "uint256",
              "name": "initialDefenderUnits",
              "type": "uint256"
            },
            {
              "internalType": "uint256",
              "name": "initialDefenderReaper",
              "type": "uint256"
            },
            {
              "internalType": "uint256",
              "name": "attackerBounty",
              "type": "uint256"
            },
            {
              "internalType": "uint256",
              "name": "defenderBounty",
              "type": "uint256"
            }
          ],
          "indexed": false,
          "internalType": "struct KILLGame.BattleSummary",
          "name": "summary",
          "type": "tuple"
        },
        {
          "indexed": false,
          "internalType": "uint256",
          "name": "targetBirthBlock",
          "type": "uint256"
        }
      ],
      "name": "Killed",
      "type": "event"
    },
    {
      "anonymous": false,
      "inputs": [
        {
          "indexed": true,
          "internalType": "address",
          "name": "agent",
          "type": "address"
        },
        {
          "indexed": false,
          "internalType": "uint16",
          "name": "fromStack",
          "type": "uint16"
        },
        {
          "indexed": false,
          "internalType": "uint16",
          "name": "toStack",
          "type": "uint16"
        },
        {
          "indexed": false,
          "internalType": "uint256",
          "name": "units",
          "type": "uint256"
        },
        {
          "indexed": false,
          "internalType": "uint256",
          "name": "reaper",
          "type": "uint256"
        },
        {
          "indexed": false,
          "internalType": "uint256",
          "name": "birthBlock",
          "type": "uint256"
        }
      ],
      "name": "Moved",
      "type": "event"
    },
    {
      "anonymous": false,
      "inputs": [
        {
          "indexed": true,
          "internalType": "address",
          "name": "previousOwner",
          "type": "address"
        },
        {
          "indexed": true,
          "internalType": "address",
          "name": "newOwner",
          "type": "address"
        }
      ],
      "name": "OwnershipTransferred",
      "type": "event"
    },
    {
      "anonymous": false,
      "inputs": [
        {
          "indexed": true,
          "internalType": "address",
          "name": "agent",
          "type": "address"
        },
        {
          "indexed": true,
          "internalType": "uint256",
          "name": "stackId",
          "type": "uint256"
        },
        {
          "indexed": false,
          "internalType": "uint256",
          "name": "units",
          "type": "uint256"
        },
        {
          "indexed": false,
          "internalType": "uint256",
          "name": "reapers",
          "type": "uint256"
        },
        {
          "indexed": false,
          "internalType": "uint256",
          "name": "birthBlock",
          "type": "uint256"
        }
      ],
      "name": "Spawned",
      "type": "event"
    },
    {
      "anonymous": false,
      "inputs": [
        {
          "indexed": true,
          "internalType": "address",
          "name": "operator",
          "type": "address"
        },
        {
          "indexed": true,
          "internalType": "address",
          "name": "from",
          "type": "address"
        },
        {
          "indexed": true,
          "internalType": "address",
          "name": "to",
          "type": "address"
        },
        {
          "indexed": false,
          "internalType": "uint256[]",
          "name": "ids",
          "type": "uint256[]"
        },
        {
          "indexed": false,
          "internalType": "uint256[]",
          "name": "values",
          "type": "uint256[]"
        }
      ],
      "name": "TransferBatch",
      "type": "event"
    },
    {
      "anonymous": false,
      "inputs": [
        {
          "indexed": true,
          "internalType": "address",
          "name": "operator",
          "type": "address"
        },
        {
          "indexed": true,
          "internalType": "address",
          "name": "from",
          "type": "address"
        },
        {
          "indexed": true,
          "internalType": "address",
          "name": "to",
          "type": "address"
        },
        {
          "indexed": false,
          "internalType": "uint256",
          "name": "id",
          "type": "uint256"
        },
        {
          "indexed": false,
          "internalType": "uint256",
          "name": "value",
          "type": "uint256"
        }
      ],
      "name": "TransferSingle",
      "type": "event"
    },
    {
      "anonymous": false,
      "inputs": [
        {
          "indexed": false,
          "internalType": "uint256",
          "name": "oldBps",
          "type": "uint256"
        },
        {
          "indexed": false,
          "internalType": "uint256",
          "name": "newBps",
          "type": "uint256"
        }
      ],
      "name": "TreasuryBpsUpdated",
      "type": "event"
    },
    {
      "anonymous": false,
      "inputs": [
        {
          "indexed": false,
          "internalType": "string",
          "name": "value",
          "type": "string"
        },
        {
          "indexed": true,
          "internalType": "uint256",
          "name": "id",
          "type": "uint256"
        }
      ],
      "name": "URI",
      "type": "event"
    },
    {
      "inputs": [],
      "name": "BURN_BPS",
      "outputs": [
        {
          "internalType": "uint256",
          "name": "",
          "type": "uint256"
        }
      ],
      "stateMutability": "view",
      "type": "function"
    },
    {
      "inputs": [],
      "name": "MOVE_COST",
      "outputs": [
        {
          "internalType": "uint256",
          "name": "",
          "type": "uint256"
        }
      ],
      "stateMutability": "view",
      "type": "function"
    },
    {
      "inputs": [],
      "name": "REAPER_SPAWN_COST",
      "outputs": [
        {
          "internalType": "uint256",
          "name": "",
          "type": "uint256"
        }
      ],
      "stateMutability": "view",
      "type": "function"
    },
    {
      "inputs": [],
      "name": "SENDER_BPS",
      "outputs": [
        {
          "internalType": "uint256",
          "name": "",
          "type": "uint256"
        }
      ],
      "stateMutability": "view",
      "type": "function"
    },
    {
      "inputs": [],
      "name": "SPAWN_COST",
      "outputs": [
        {
          "internalType": "uint256",
          "name": "",
          "type": "uint256"
        }
      ],
      "stateMutability": "view",
      "type": "function"
    },
    {
      "inputs": [
        {
          "internalType": "uint256",
          "name": "amt",
          "type": "uint256"
        }
      ],
      "name": "adminWithdraw",
      "outputs": [],
      "stateMutability": "nonpayable",
      "type": "function"
    },
    {
      "inputs": [
        {
          "internalType": "address",
          "name": "",
          "type": "address"
        },
        {
          "internalType": "uint256",
          "name": "",
          "type": "uint256"
        }
      ],
      "name": "agentStacks",
      "outputs": [
        {
          "internalType": "uint256",
          "name": "birthBlock",
          "type": "uint256"
        }
      ],
      "stateMutability": "view",
      "type": "function"
    },
    {
      "inputs": [
        {
          "internalType": "address",
          "name": "",
          "type": "address"
        }
      ],
      "name": "agentTotalProfit",
      "outputs": [
        {
          "internalType": "uint256",
          "name": "",
          "type": "uint256"
        }
      ],
      "stateMutability": "view",
      "type": "function"
    },
    {
      "inputs": [
        {
          "internalType": "address",
          "name": "account",
          "type": "address"
        },
        {
          "internalType": "uint256",
          "name": "id",
          "type": "uint256"
        }
      ],
      "name": "balanceOf",
      "outputs": [
        {
          "internalType": "uint256",
          "name": "",
          "type": "uint256"
        }
      ],
      "stateMutability": "view",
      "type": "function"
    },
    {
      "inputs": [
        {
          "internalType": "address[]",
          "name": "accounts",
          "type": "address[]"
        },
        {
          "internalType": "uint256[]",
          "name": "ids",
          "type": "uint256[]"
        }
      ],
      "name": "balanceOfBatch",
      "outputs": [
        {
          "internalType": "uint256[]",
          "name": "",
          "type": "uint256[]"
        }
      ],
      "stateMutability": "view",
      "type": "function"
    },
    {
      "inputs": [
        {
          "internalType": "address",
          "name": "agent",
          "type": "address"
        },
        {
          "internalType": "uint256",
          "name": "id",
          "type": "uint256"
        }
      ],
      "name": "getBirthBlock",
      "outputs": [
        {
          "internalType": "uint256",
          "name": "",
          "type": "uint256"
        }
      ],
      "stateMutability": "view",
      "type": "function"
    },
    {
      "inputs": [
        {
          "internalType": "uint16",
          "name": "stackId",
          "type": "uint16"
        }
      ],
      "name": "getFullStack",
      "outputs": [
        {
          "components": [
            {
              "internalType": "address",
              "name": "occupant",
              "type": "address"
            },
            {
              "internalType": "uint256",
              "name": "units",
              "type": "uint256"
            },
            {
              "internalType": "uint256",
              "name": "reapers",
              "type": "uint256"
            },
            {
              "internalType": "uint256",
              "name": "age",
              "type": "uint256"
            },
            {
              "internalType": "uint256",
              "name": "pendingBounty",
              "type": "uint256"
            }
          ],
          "internalType": "struct KILLGame.StackInfo[]",
          "name": "",
          "type": "tuple[]"
        }
      ],
      "stateMutability": "view",
      "type": "function"
    },
    {
      "inputs": [
        {
          "internalType": "address",
          "name": "agent",
          "type": "address"
        },
        {
          "internalType": "uint256",
          "name": "id",
          "type": "uint256"
        }
      ],
      "name": "getPendingBounty",
      "outputs": [
        {
          "internalType": "uint256",
          "name": "",
          "type": "uint256"
        }
      ],
      "stateMutability": "view",
      "type": "function"
    },
    {
      "inputs": [
        {
          "internalType": "address",
          "name": "account",
          "type": "address"
        },
        {
          "internalType": "address",
          "name": "operator",
          "type": "address"
        }
      ],
      "name": "isApprovedForAll",
      "outputs": [
        {
          "internalType": "bool",
          "name": "",
          "type": "bool"
        }
      ],
      "stateMutability": "view",
      "type": "function"
    },
    {
      "inputs": [
        {
          "internalType": "address",
          "name": "target",
          "type": "address"
        },
        {
          "internalType": "uint16",
          "name": "stackId",
          "type": "uint16"
        },
        {
          "internalType": "uint256",
          "name": "sentUnits",
          "type": "uint256"
        },
        {
          "internalType": "uint256",
          "name": "sentReaper",
          "type": "uint256"
        }
      ],
      "name": "kill",
      "outputs": [
        {
          "internalType": "uint256",
          "name": "attackerBounty",
          "type": "uint256"
        }
      ],
      "stateMutability": "nonpayable",
      "type": "function"
    },
    {
      "inputs": [],
      "name": "killToken",
      "outputs": [
        {
          "internalType": "contract IERC20",
          "name": "",
          "type": "address"
        }
      ],
      "stateMutability": "view",
      "type": "function"
    },
    {
      "inputs": [
        {
          "internalType": "uint16",
          "name": "fromStack",
          "type": "uint16"
        },
        {
          "internalType": "uint16",
          "name": "toStack",
          "type": "uint16"
        },
        {
          "internalType": "uint256",
          "name": "units",
          "type": "uint256"
        },
        {
          "internalType": "uint256",
          "name": "reaper",
          "type": "uint256"
        }
      ],
      "name": "move",
      "outputs": [],
      "stateMutability": "nonpayable",
      "type": "function"
    },
    {
      "inputs": [],
      "name": "owner",
      "outputs": [
        {
          "internalType": "address",
          "name": "",
          "type": "address"
        }
      ],
      "stateMutability": "view",
      "type": "function"
    },
    {
      "inputs": [],
      "name": "renounceOwnership",
      "outputs": [],
      "stateMutability": "nonpayable",
      "type": "function"
    },
    {
      "inputs": [
        {
          "internalType": "address",
          "name": "from",
          "type": "address"
        },
        {
          "internalType": "address",
          "name": "to",
          "type": "address"
        },
        {
          "internalType": "uint256[]",
          "name": "ids",
          "type": "uint256[]"
        },
        {
          "internalType": "uint256[]",
          "name": "values",
          "type": "uint256[]"
        },
        {
          "internalType": "bytes",
          "name": "data",
          "type": "bytes"
        }
      ],
      "name": "safeBatchTransferFrom",
      "outputs": [],
      "stateMutability": "nonpayable",
      "type": "function"
    },
    {
      "inputs": [
        {
          "internalType": "address",
          "name": "from",
          "type": "address"
        },
        {
          "internalType": "address",
          "name": "to",
          "type": "address"
        },
        {
          "internalType": "uint256",
          "name": "id",
          "type": "uint256"
        },
        {
          "internalType": "uint256",
          "name": "value",
          "type": "uint256"
        },
        {
          "internalType": "bytes",
          "name": "data",
          "type": "bytes"
        }
      ],
      "name": "safeTransferFrom",
      "outputs": [],
      "stateMutability": "nonpayable",
      "type": "function"
    },
    {
      "inputs": [
        {
          "internalType": "address",
          "name": "operator",
          "type": "address"
        },
        {
          "internalType": "bool",
          "name": "approved",
          "type": "bool"
        }
      ],
      "name": "setApprovalForAll",
      "outputs": [],
      "stateMutability": "nonpayable",
      "type": "function"
    },
    {
      "inputs": [
        {
          "internalType": "uint256",
          "name": "_newBps",
          "type": "uint256"
        }
      ],
      "name": "setTreasuryBps",
      "outputs": [],
      "stateMutability": "nonpayable",
      "type": "function"
    },
    {
      "inputs": [
        {
          "internalType": "uint16",
          "name": "stackId",
          "type": "uint16"
        },
        {
          "internalType": "uint256",
          "name": "amount",
          "type": "uint256"
        }
      ],
      "name": "spawn",
      "outputs": [],
      "stateMutability": "nonpayable",
      "type": "function"
    },
    {
      "inputs": [
        {
          "internalType": "bytes4",
          "name": "id",
          "type": "bytes4"
        }
      ],
      "name": "supportsInterface",
      "outputs": [
        {
          "internalType": "bool",
          "name": "",
          "type": "bool"
        }
      ],
      "stateMutability": "view",
      "type": "function"
    },
    {
      "inputs": [],
      "name": "totalKillBurned",
      "outputs": [
        {
          "internalType": "uint256",
          "name": "",
          "type": "uint256"
        }
      ],
      "stateMutability": "view",
      "type": "function"
    },
    {
      "inputs": [],
      "name": "totalKillExtracted",
      "outputs": [
        {
          "internalType": "uint256",
          "name": "",
          "type": "uint256"
        }
      ],
      "stateMutability": "view",
      "type": "function"
    },
    {
      "inputs": [],
      "name": "totalReaperKilled",
      "outputs": [
        {
          "internalType": "uint256",
          "name": "",
          "type": "uint256"
        }
      ],
      "stateMutability": "view",
      "type": "function"
    },
    {
      "inputs": [],
      "name": "totalUnitsKilled",
      "outputs": [
        {
          "internalType": "uint256",
          "name": "",
          "type": "uint256"
        }
      ],
      "stateMutability": "view",
      "type": "function"
    },
    {
      "inputs": [],
      "name": "totalUnitsMinted",
      "outputs": [
        {
          "internalType": "uint256",
          "name": "",
          "type": "uint256"
        }
      ],
      "stateMutability": "view",
      "type": "function"
    },
    {
      "inputs": [
        {
          "internalType": "address",
          "name": "newOwner",
          "type": "address"
        }
      ],
      "name": "transferOwnership",
      "outputs": [],
      "stateMutability": "nonpayable",
      "type": "function"
    },
    {
      "inputs": [],
      "name": "treasuryBalance",
      "outputs": [
        {
          "internalType": "uint256",
          "name": "",
          "type": "uint256"
        }
      ],
      "stateMutability": "view",
      "type": "function"
    },
    {
      "inputs": [],
      "name": "treasuryBps",
      "outputs": [
        {
          "internalType": "uint256",
          "name": "",
          "type": "uint256"
        }
      ],
      "stateMutability": "view",
      "type": "function"
    },
    {
      "inputs": [
        {
          "internalType": "uint256",
          "name": "",
          "type": "uint256"
        }
      ],
      "name": "uri",
      "outputs": [
        {
          "internalType": "string",
          "name": "",
          "type": "string"
        }
      ],
      "stateMutability": "view",
      "type": "function"
    }
  ],
  "bytecode": "0x60a06040526109c46005553480156200001757600080fd5b506040516200324a3803806200324a8339810160408190526200003a9162000117565b336040518060600160405280602a815260200162003220602a91396200006081620000b3565b5060016003556001600160a01b0381166200009557604051631e4fbdf760e01b81526000600482015260240160405180910390fd5b620000a081620000c5565b506001600160a01b0316608052620002bc565b6002620000c18282620001f0565b5050565b600480546001600160a01b038381166001600160a01b0319831681179093556040519116919082907f8be0079c531659141344cd1fd0a4f28419497f9722a3daafe3b4186f6b6457e090600090a35050565b6000602082840312156200012a57600080fd5b81516001600160a01b03811681146200014257600080fd5b9392505050565b634e487b7160e01b600052604160045260246000fd5b600181811c908216806200017457607f821691505b6020821081036200019557634e487b7160e01b600052602260045260246000fd5b50919050565b601f821115620001eb576000816000526020600020601f850160051c81016020861015620001c65750805b601f850160051c820191505b81811015620001e757828155600101620001d2565b5050505b505050565b81516001600160401b038111156200020c576200020c62000149565b62000224816200021d84546200015f565b846200019b565b602080601f8311600181146200025c5760008415620002435750858301515b600019600386901b1c1916600185901b178555620001e7565b600085815260208120601f198616915b828110156200028d578886015182559484019460019091019084016200026c565b5085821015620002ac5787850151600019600388901b60f8161c191681555b5050505050600190811b01905550565b608051612f1e62000302600039600081816102960152818161059e01528181610979015281816110110152818161127c01528181611bb20152611c8c0152612f1e6000f3fe608060405234801561001057600080fd5b50600436106102055760003560e01c806388b00adc1161011a578063c68e8075116100ad578063ea075ee11161007c578063ea075ee11461044c578063edbd5df81461045f578063ef0a13111461048a578063f242432a146104aa578063f2fde38b146104bd57600080fd5b8063c68e807514610406578063c704c3f114610392578063e74fe23714610426578063e985e9c51461043957600080fd5b8063a22cb465116100e9578063a22cb465146103a1578063a37a9fc0146103b4578063b8011328146103bd578063bb6eb359146103f357600080fd5b806388b00adc146103655780638da5cb5b1461036e57806391fa2a6a1461037f578063944568481461039257600080fd5b8063313dab201161019d5780635635fdbc1161016c5780635635fdbc1461032757806358510ac814610330578063715018a61461034157806378129882146103495780637c5b4a371461035257600080fd5b8063313dab20146102ec5780633b8726e2146102f55780634dc10ea1146102fe5780634e1273f41461030757600080fd5b80630e89341c116101d95780630e89341c146102715780632bd7cd17146102915780632eb2c2d6146102d05780632ee8174e146102e357600080fd5b8062fdd58e1461020a57806301ffc9a71461023057806309f61826146102535780630a08f3d014610268575b600080fd5b61021d610218366004612642565b6104d0565b6040519081526020015b60405180910390f35b61024361023e366004612682565b6104f8565b6040519015158152602001610227565b6102666102613660046126b8565b610503565b005b61021d60075481565b61028461027f3660046126d4565b610779565b6040516102279190612733565b6102b87f000000000000000000000000000000000000000000000000000000000000000081565b6040516001600160a01b039091168152602001610227565b6102666102de366004612890565b61080d565b61021d60095481565b61021d60065481565b61021d611d4c81565b61021d60055481565b61031a61031536600461293a565b610874565b6040516102279190612a36565b61021d600a5481565b61021d6901690a1119cec590000081565b610266610941565b61021d60085481565b6102666103603660046126d4565b610955565b61021d600b5481565b6004546001600160a01b03166102b8565b61021d61038d366004612a49565b6109ee565b61021d678ac7230489e8000081565b6102666103af366004612a99565b610ec9565b61021d61029a81565b61021d6103cb366004612642565b6001600160a01b03919091166000908152600c60209081526040808320938352929052205490565b6102666104013660046126d4565b610ed4565b61021d610414366004612ad0565b600f6020526000908152604090205481565b610266610434366004612aeb565b610f5e565b610243610447366004612b0a565b6111f6565b61021d61045a366004612642565b611224565b61021d61046d366004612642565b600c60209081526000928352604080842090915290825290205481565b61049d610498366004612b3d565b611332565b6040516102279190612b58565b6102666104b8366004612bcf565b61168a565b6102666104cb366004612ad0565b6116e9565b6000818152602081815260408083206001600160a01b03861684529091529020545b92915050565b60006104f282611727565b61050b611777565b60008261ffff16118015610524575060d88261ffff1611155b6105655760405162461bcd60e51b815260206004820152600d60248201526c496e76616c696420537461636b60981b60448201526064015b60405180910390fd5b6000610579678ac7230489e8000083612c4a565b6040516323b872dd60e01b8152336004820152306024820152604481018290529091507f00000000000000000000000000000000000000000000000000000000000000006001600160a01b0316906323b872dd906064016020604051808303816000875af11580156105ef573d6000803e3d6000fd5b505050506040513d601f19601f820116820180604052508101906106139190612c61565b61064a5760405162461bcd60e51b815260206004820152600860248201526714185e4819985a5b60c21b604482015260640161055c565b600061271061029a830260068054929091048085039092019055600b80549091019055506007805483019055600061068461029a84612c94565b9050610695338561ffff16856117a1565b80156106b4576106b4336106ae61ffff871660d8612ca8565b836117a1565b60408051848152602081018390524381830152905161ffff86169133917faf4ea7c0f51d4c33144122655ecd0051aa44b546b9daa750ab0d9144f3ed637e9181900360600190a37f6b8aeaa3365d2dfcb9acc94f0a7429b657b4f2008cfafb9b10297011e077c650600854600954678ac7230489e800006007546107389190612c4a565b600a54600b54604080519586526020860194909452928401919091526060830152608082015260a00160405180910390a150506107756001600355565b5050565b60606002805461078890612cbb565b80601f01602080910402602001604051908101604052809291908181526020018280546107b490612cbb565b80156108015780601f106107d657610100808354040283529160200191610801565b820191906000526020600020905b8154815290600101906020018083116107e457829003601f168201915b50505050509050919050565b336001600160a01b038616811480159061082e575061082c86826111f6565b155b1561085f5760405163711bec9160e11b81526001600160a01b0380831660048301528716602482015260440161055c565b61086c8686868686611859565b505050505050565b606081518351146108a55781518351604051635b05999160e01b81526004810192909252602482015260440161055c565b6000835167ffffffffffffffff8111156108c1576108c1612746565b6040519080825280602002602001820160405280156108ea578160200160208202803683370190505b50905060005b845181101561093957602080820286010151610914906020808402870101516104d0565b82828151811061092657610926612cf5565b60209081029190910101526001016108f0565b509392505050565b6109496118c0565b61095360006118ed565b565b61095d6118c0565b60405163a9059cbb60e01b8152336004820152602481018290527f00000000000000000000000000000000000000000000000000000000000000006001600160a01b03169063a9059cbb906044016020604051808303816000875af11580156109ca573d6000803e3d6000fd5b505050506040513d601f19601f820116820180604052508101906107759190612c61565b60006109f8611777565b61ffff84166000610a0a8260d8612ca8565b905084610a1733846104d0565b10158015610a2e575083610a2b33836104d0565b10155b610a675760405162461bcd60e51b815260206004820152600a6024820152694c61636b20756e69747360b01b604482015260640161055c565b610abd604051806101400160405280600081526020016000815260200160008152602001600081526020016000815260200160008152602001600081526020016000815260200160008152602001600081525090565b85815260208101859052610ad188846104d0565b60c0820152610ae088836104d0565b60e08201526001600160a01b0388166000908152600c6020908152604080832086845290915281205490610b18338b87878c8c61193f565b80516040808601919091526020820151606080870191909152908201805160808701529082015160a086015260c085015190519192509003610b7f576000858152600e602090815260408083206001600160a01b038e1684529091529020805460ff191690555b8260e00151816060015103610bb9576000848152600e602090815260408083206001600160a01b038e1684529091529020805460ff191690555b600081604001511180610bd0575060008160600151115b15610c1a57610be98a8683604001518460600151611a95565b9550610bf53387611c49565b336000908152600f602052604081208054889290610c14908490612ca8565b90915550505b61010083018690528051600090151580610c38575060008260200151115b15610cc9576901690a1119cec59000008260200151610c579190612c4a565b8251610c6c90678ac7230489e8000090612c4a565b610c769190612ca8565b90506064610c8582604b612c4a565b610c8f9190612c94565b9050610c9b8b82611c49565b6001600160a01b038b166000908152600f602052604081208054839290610cc3908490612ca8565b90915550505b61012084018190526040820151825160088054918301909101905560608301516020840151600980549190920101905515610d0d57610d0d8b878460400151611d33565b606082015115610d2657610d268b868460600151611d33565b815115610d3c57610d3c33878460000151611d33565b602082015115610d5557610d5533868460200151611d33565b6040805185518152602080870151908201528582015181830152606080870151908201526080808701519082015260a0808701519082015260c0808701519082015260e08087015190820152610100808701519082015261012080870151908201526101408101859052905161ffff8c16916001600160a01b038e169133917f2c0ba6eda9140ba04ab07a25239250d2664c08a013d3ec03f3ec6f014f21a53991908190036101600190a48a6001600160a01b03167fdf7a5d9a98a2f71d704a4e6a4c0422d79ed27521ad9cfd55e985d5fb94cfaffe82604051610e3b91815260200190565b60405180910390a27f6b8aeaa3365d2dfcb9acc94f0a7429b657b4f2008cfafb9b10297011e077c650600854600954678ac7230489e80000600754610e809190612c4a565b600a54600b54604080519586526020860194909452928401919091526060830152608082015260a00160405180910390a1505050505050610ec16001600355565b949350505050565b610775338383611d9b565b610edc6118c0565b612710811115610f195760405162461bcd60e51b81526020600482015260086024820152674d6178203130302560c01b604482015260640161055c565b600580549082905560408051828152602081018490527f6993bc581306fd40069a7f8d78fd994e52ce66bdacf741f949a3e4bdcf28ca80910160405180910390a15050565b610f66611777565b60008461ffff16118015610f7f575060d88461ffff1611155b8015610f8f575060008361ffff16115b8015610fa0575060d88361ffff1611155b8015610fb15750610fb18484611e31565b610fe85760405162461bcd60e51b8152602060048201526008602482015267426164206d6f766560c01b604482015260640161055c565b6040516323b872dd60e01b8152336004820152306024820152678ac7230489e8000060448201527f00000000000000000000000000000000000000000000000000000000000000006001600160a01b0316906323b872dd906064016020604051808303816000875af1158015611062573d6000803e3d6000fd5b505050506040513d601f19601f820116820180604052508101906110869190612c61565b6110bd5760405162461bcd60e51b815260206004820152600860248201526714185e4819985a5b60c21b604482015260640161055c565b60068054678189078bdd7f0000019055600b805467093e1b78ac69000001905581156110f6576110f68461ffff168461ffff1684611f5d565b80156111235761112361110e61ffff861660d8612ca8565b61111d61ffff861660d8612ca8565b83611f5d565b6040805161ffff8087168252851660208201529081018390526060810182905243608082015233907f377dc7145bd8ab426842504b448652c41dda00abb7f7c1df6bdfa40bd2a16f2c9060a00160405180910390a27f6b8aeaa3365d2dfcb9acc94f0a7429b657b4f2008cfafb9b10297011e077c650600854600954678ac7230489e800006007546111b59190612c4a565b600a54600b54604080519586526020860194909452928401919091526060830152608082015260a00160405180910390a16111f06001600355565b50505050565b6001600160a01b03918216600090815260016020908152604080832093909416825291909152205460ff1690565b6001600160a01b0382166000908152600c602090815260408083208484529091528120548015806112555750804311155b156112645760009150506104f2565b6040516370a0823160e01b81523060048201526000907f00000000000000000000000000000000000000000000000000000000000000006001600160a01b0316906370a0823190602401602060405180830381865afa1580156112cb573d6000803e3d6000fd5b505050506040513d601f19601f820116820180604052508101906112ef9190612d0b565b905060006112fd8343612d24565b90506402540be40060055482846113149190612c4a565b61131e9190612c4a565b6113289190612c94565b9695505050505050565b606061ffff821660006113468260d8612ca8565b6000838152600d60209081526040808320805482518185028101850190935280835294955092939092918301828280156113a957602002820191906000526020600020905b81546001600160a01b0316815260019091019060200180831161138b575b505050505090506000805b825181101561147b57600e600086815260200190815260200160002060008483815181106113e4576113e4612cf5565b6020908102919091018101516001600160a01b031682528101919091526040016000205460ff16806114605750600e6000858152602001908152602001600020600084838151811061143857611438612cf5565b6020908102919091018101516001600160a01b031682528101919091526040016000205460ff165b15611473578161146f81612d37565b9250505b6001016113b4565b5060008167ffffffffffffffff81111561149757611497612746565b60405190808252806020026020018201604052801561150357816020015b6114f06040518060a0016040528060006001600160a01b03168152602001600081526020016000815260200160008152602001600081525090565b8152602001906001900390816114b55790505b5090506000805b845181101561167d57600085828151811061152757611527612cf5565b60209081029190910181015160008a8152600e835260408082206001600160a01b0384168352909352919091205490915060ff168061158857506000878152600e602090815260408083206001600160a01b038516845290915290205460ff165b15611674576040518060a00160405280826001600160a01b031681526020016115b1838b6104d0565b81526020016115c0838a6104d0565b81526001600160a01b0383166000908152600c602090815260408083208d84528252909120549101906115f4576000611622565b6001600160a01b0383166000908152600c602090815260408083208d84529091529020546116229043612d24565b8152602001611631838a611224565b61163b848c611224565b6116459190612ca8565b81525084848151811061165a5761165a612cf5565b6020026020010181905250828061167090612d37565b9350505b5060010161150a565b5090979650505050505050565b336001600160a01b03861681148015906116ab57506116a986826111f6565b155b156116dc5760405163711bec9160e11b81526001600160a01b0380831660048301528716602482015260440161055c565b61086c86868686866120cb565b6116f16118c0565b6001600160a01b03811661171b57604051631e4fbdf760e01b81526000600482015260240161055c565b611724816118ed565b50565b60006001600160e01b03198216636cdb3d1360e11b148061175857506001600160e01b031982166303a24d0760e21b145b806104f257506301ffc9a760e01b6001600160e01b03198316146104f2565b60026003540361179a57604051633ee5aeb560e01b815260040160405180910390fd5b6002600355565b6117bc83838360405180602001604052806000815250612159565b6001600160a01b0383166000818152600c602090815260408083208684528252808320439055600e8252808320938352929052205460ff16611854576000828152600d602090815260408083208054600180820183559185528385200180546001600160a01b0319166001600160a01b038916908117909155868552600e8452828520908552909252909120805460ff191690911790555b505050565b6001600160a01b03841661188357604051632bfa23e760e11b81526000600482015260240161055c565b6001600160a01b0385166118ac57604051626a0d4560e21b81526000600482015260240161055c565b6118b985858585856121b2565b5050505050565b6004546001600160a01b031633146109535760405163118cdaa760e01b815233600482015260240161055c565b600480546001600160a01b038381166001600160a01b0319831681179093556040519116919082907f8be0079c531659141344cd1fd0a4f28419497f9722a3daafe3b4186f6b6457e090600090a35050565b61196a6040518060800160405280600081526020016000815260200160008152602001600081525090565b60006119788361029a612c4a565b6119829085612ca8565b9050600061199088886104d0565b9050600061199e89886104d0565b9050886001600160a01b03168a6001600160a01b0316036119d2576119c38683612d24565b91506119cf8582612d24565b90505b600060646119e28361029a612c4a565b6119ec9085612ca8565b6119f790606e612c4a565b611a019190612c94565b905080600003611a0f575060015b80841115611a2a576040850183905260608501829052611a87565b868552602085018690526000611a408580612c4a565b90506000611a4e8380612c4a565b905080611a5b8387612c4a565b611a659190612c94565b604088015280611a758386612c4a565b611a7f9190612c94565b606088015250505b505050509695505050505050565b600080611aa78661045a8760d8612ca8565b611ab18787611224565b611abb9190612ca8565b90506000611ace876102188860d8612ca8565b611ada9061029a612c4a565b611ae488886104d0565b611aee9190612ca8565b905080600003611b0357600092505050610ec1565b6000611b118561029a612c4a565b611b1b9087612ca8565b9050600082611b2a8386612c4a565b611b349190612c94565b90506000612710611b47611d4c84612c4a565b611b519190612c94565b905060006064611b69678ac7230489e8000086612c4a565b611b74906019612c4a565b611b7e9190612c94565b90506000611b8c8383612ca8565b6040516370a0823160e01b81523060048201529091506000906014906001600160a01b037f000000000000000000000000000000000000000000000000000000000000000016906370a0823190602401602060405180830381865afa158015611bf9573d6000803e3d6000fd5b505050506040513d601f19601f82011682018060405250810190611c1d9190612d0b565b611c279190612c94565b9050808211611c365781611c38565b805b9d9c50505050505050505050505050565b80156107755780600a6000828254611c619190612ca8565b909155505060405163a9059cbb60e01b81526001600160a01b038381166004830152602482018390527f0000000000000000000000000000000000000000000000000000000000000000169063a9059cbb906044016020604051808303816000875af1158015611cd5573d6000803e3d6000fd5b505050506040513d601f19601f82011682018060405250810190611cf99190612c61565b6107755760405162461bcd60e51b815260206004820152600b60248201526a14185e5bdd5d0819985a5b60aa1b604482015260640161055c565b6001600160a01b038316611d5c57604051626a0d4560e21b81526000600482015260240161055c565b604080516001808252602082018590528183019081526060820184905260a082019092526000608082018181529192916118b9918791859085906121b2565b6001600160a01b038216611dc45760405162ced3e160e81b81526000600482015260240161055c565b6001600160a01b03838116600081815260016020908152604080832094871680845294825291829020805460ff191686151590811790915591519182527f17307eab39ab6107e8899845ad3d59bd9653f200f220920489ca2b5937696c31910160405180910390a3505050565b600080611e3f600185612d50565b90506000611e4e600185612d50565b90506000611e5d600684612d72565b905060006006611e6d8186612d93565b611e779190612d72565b90506000611e86602486612d93565b90506000611e95600686612d72565b905060006006611ea58188612d93565b611eaf9190612d72565b90506000611ebe602488612d93565b90508060010b8460010b13611edc57611ed78482612db4565b611ee6565b611ee68185612db4565b8260010b8660010b13611f0257611efd8684612db4565b611f0c565b611f0c8387612db4565b8460010b8860010b13611f2857611f238886612db4565b611f32565b611f328589612db4565b611f3c9190612dd7565b611f469190612dd7565b61ffff166001149850505050505050505092915050565b80611f6833856104d0565b1015611fab5760405162461bcd60e51b8152602060048201526012602482015271496e73756666696369656e7420756e69747360701b604482015260640161055c565b611fb6338483611d33565b611fc033846104d0565b600003611ff9576000838152600e602090815260408083203384528252808320805460ff19169055600c82528083208684529091528120555b61201433838360405180602001604052806000815250612159565b336000908152600c60209081526040808320858452909152812054900361205357336000908152600c6020908152604080832085845290915290204390555b6000828152600e6020908152604080832033845290915290205460ff16611854576000828152600d602090815260408083208054600181810183559185528385200180546001600160a01b03191633908117909155868552600e8452828520908552909252909120805460ff19169091179055505050565b6001600160a01b0384166120f557604051632bfa23e760e11b81526000600482015260240161055c565b6001600160a01b03851661211e57604051626a0d4560e21b81526000600482015260240161055c565b6040805160018082526020820186905281830190815260608201859052608082019092529061215087878484876121b2565b50505050505050565b6001600160a01b03841661218357604051632bfa23e760e11b81526000600482015260240161055c565b6040805160018082526020820186905281830190815260608201859052608082019092529061086c6000878484875b6121be85858585612205565b6001600160a01b038416156118b957825133906001036121f757602084810151908401516121f0838989858589612419565b505061086c565b61086c81878787878761253d565b80518251146122345781518151604051635b05999160e01b81526004810192909252602482015260440161055c565b3360005b835181101561233a576020818102858101820151908501909101516001600160a01b038816156122eb576000828152602081815260408083206001600160a01b038c168452909152902054818110156122c4576040516303dee4c560e01b81526001600160a01b038a16600482015260248101829052604481018390526064810184905260840161055c565b6000838152602081815260408083206001600160a01b038d16845290915290209082900390555b6001600160a01b03871615612330576000828152602081815260408083206001600160a01b038b1684529091528120805483929061232a908490612ca8565b90915550505b5050600101612238565b5082516001036123bb5760208301516000906020840151909150856001600160a01b0316876001600160a01b0316846001600160a01b03167fc3d58168c5ae7397731d063d5bbf3d657854427343f4c083240f7aacaa2d0f6285856040516123ac929190918252602082015260400190565b60405180910390a450506118b9565b836001600160a01b0316856001600160a01b0316826001600160a01b03167f4a39dc06d4c0dbc64b70af90fd698a233a518aa5d07e595d983b8c0526c8f7fb868660405161240a929190612dfa565b60405180910390a45050505050565b6001600160a01b0384163b1561086c5760405163f23a6e6160e01b81526001600160a01b0385169063f23a6e619061245d9089908990889088908890600401612e28565b6020604051808303816000875af1925050508015612498575060408051601f3d908101601f1916820190925261249591810190612e6d565b60015b612501573d8080156124c6576040519150601f19603f3d011682016040523d82523d6000602084013e6124cb565b606091505b5080516000036124f957604051632bfa23e760e11b81526001600160a01b038616600482015260240161055c565b805160208201fd5b6001600160e01b0319811663f23a6e6160e01b1461215057604051632bfa23e760e11b81526001600160a01b038616600482015260240161055c565b6001600160a01b0384163b1561086c5760405163bc197c8160e01b81526001600160a01b0385169063bc197c81906125819089908990889088908890600401612e8a565b6020604051808303816000875af19250505080156125bc575060408051601f3d908101601f191682019092526125b991810190612e6d565b60015b6125ea573d8080156124c6576040519150601f19603f3d011682016040523d82523d6000602084013e6124cb565b6001600160e01b0319811663bc197c8160e01b1461215057604051632bfa23e760e11b81526001600160a01b038616600482015260240161055c565b80356001600160a01b038116811461263d57600080fd5b919050565b6000806040838503121561265557600080fd5b61265e83612626565b946020939093013593505050565b6001600160e01b03198116811461172457600080fd5b60006020828403121561269457600080fd5b813561269f8161266c565b9392505050565b803561ffff8116811461263d57600080fd5b600080604083850312156126cb57600080fd5b61265e836126a6565b6000602082840312156126e657600080fd5b5035919050565b6000815180845260005b81811015612713576020818501810151868301820152016126f7565b506000602082860101526020601f19601f83011685010191505092915050565b60208152600061269f60208301846126ed565b634e487b7160e01b600052604160045260246000fd5b604051601f8201601f1916810167ffffffffffffffff8111828210171561278557612785612746565b604052919050565b600067ffffffffffffffff8211156127a7576127a7612746565b5060051b60200190565b600082601f8301126127c257600080fd5b813560206127d76127d28361278d565b61275c565b8083825260208201915060208460051b8701019350868411156127f957600080fd5b602086015b8481101561281557803583529183019183016127fe565b509695505050505050565b600082601f83011261283157600080fd5b813567ffffffffffffffff81111561284b5761284b612746565b61285e601f8201601f191660200161275c565b81815284602083860101111561287357600080fd5b816020850160208301376000918101602001919091529392505050565b600080600080600060a086880312156128a857600080fd5b6128b186612626565b94506128bf60208701612626565b9350604086013567ffffffffffffffff808211156128dc57600080fd5b6128e889838a016127b1565b945060608801359150808211156128fe57600080fd5b61290a89838a016127b1565b9350608088013591508082111561292057600080fd5b5061292d88828901612820565b9150509295509295909350565b6000806040838503121561294d57600080fd5b823567ffffffffffffffff8082111561296557600080fd5b818501915085601f83011261297957600080fd5b813560206129896127d28361278d565b82815260059290921b840181019181810190898411156129a857600080fd5b948201945b838610156129cd576129be86612626565b825294820194908201906129ad565b965050860135925050808211156129e357600080fd5b506129f0858286016127b1565b9150509250929050565b60008151808452602080850194506020840160005b83811015612a2b57815187529582019590820190600101612a0f565b509495945050505050565b60208152600061269f60208301846129fa565b60008060008060808587031215612a5f57600080fd5b612a6885612626565b9350612a76602086016126a6565b93969395505050506040820135916060013590565b801515811461172457600080fd5b60008060408385031215612aac57600080fd5b612ab583612626565b91506020830135612ac581612a8b565b809150509250929050565b600060208284031215612ae257600080fd5b61269f82612626565b60008060008060808587031215612b0157600080fd5b612a68856126a6565b60008060408385031215612b1d57600080fd5b612b2683612626565b9150612b3460208401612626565b90509250929050565b600060208284031215612b4f57600080fd5b61269f826126a6565b602080825282518282018190526000919060409081850190868401855b82811015612bc257815180516001600160a01b0316855286810151878601528581015186860152606080820151908601526080908101519085015260a09093019290850190600101612b75565b5091979650505050505050565b600080600080600060a08688031215612be757600080fd5b612bf086612626565b9450612bfe60208701612626565b93506040860135925060608601359150608086013567ffffffffffffffff811115612c2857600080fd5b61292d88828901612820565b634e487b7160e01b600052601160045260246000fd5b80820281158282048414176104f2576104f2612c34565b600060208284031215612c7357600080fd5b815161269f81612a8b565b634e487b7160e01b600052601260045260246000fd5b600082612ca357612ca3612c7e565b500490565b808201808211156104f2576104f2612c34565b600181811c90821680612ccf57607f821691505b602082108103612cef57634e487b7160e01b600052602260045260246000fd5b50919050565b634e487b7160e01b600052603260045260246000fd5b600060208284031215612d1d57600080fd5b5051919050565b818103818111156104f2576104f2612c34565b600060018201612d4957612d49612c34565b5060010190565b61ffff828116828216039080821115612d6b57612d6b612c34565b5092915050565b600061ffff80841680612d8757612d87612c7e565b92169190910692915050565b600061ffff80841680612da857612da8612c7e565b92169190910492915050565b600182810b9082900b03617fff198112617fff821317156104f2576104f2612c34565b600181810b9083900b01617fff8113617fff19821217156104f2576104f2612c34565b604081526000612e0d60408301856129fa565b8281036020840152612e1f81856129fa565b95945050505050565b6001600160a01b03868116825285166020820152604081018490526060810183905260a060808201819052600090612e62908301846126ed565b979650505050505050565b600060208284031215612e7f57600080fd5b815161269f8161266c565b6001600160a01b0386811682528516602082015260a060408201819052600090612eb6908301866129fa565b8281036060840152612ec881866129fa565b90508281036080840152612edc81856126ed565b9897505050505050505056fea264697066735822122046423d86dfa5badf325e964672a22a3d9beac511e32e74d5c6f4cbbf8b6405f064736f6c6343000818003368747470733a2f2f6170692e6b696c6c67616d652e61692f6d657461646174612f7b69647d2e6a736f6e",
  "linkReferences": {},
  "deployedLinkReferences": {}
}