{
  "_format": "hh-sol-artifact-1",
  "contractName": "KILLGame",
  "sourceName": "contracts/KillGame.sol",
  "abi": [
    {
      "inputs": [
        {
          "internalType": "address",
          "name": "_tokenAddress",
          "type": "address"
        }
      ],
      "stateMutability": "nonpayable",
      "type": "constructor"
    },
    {
      "inputs": [
        {
          "internalType": "address",
          "name": "target",
          "type": "address"
        }
      ],
      "name": "AddressEmptyCode",
      "type": "error"
    },
    {
      "inputs": [
        {
          "internalType": "address",
          "name": "sender",
          "type": "address"
        },
        {
          "internalType": "uint256",
          "name": "balance",
          "type": "uint256"
        },
        {
          "internalType": "uint256",
          "name": "needed",
          "type": "uint256"
        },
        {
          "internalType": "uint256",
          "name": "tokenId",
          "type": "uint256"
        }
      ],
      "name": "ERC1155InsufficientBalance",
      "type": "error"
    },
    {
      "inputs": [
        {
          "internalType": "address",
          "name": "approver",
          "type": "address"
        }
      ],
      "name": "ERC1155InvalidApprover",
      "type": "error"
    },
    {
      "inputs": [
        {
          "internalType": "uint256",
          "name": "idsLength",
          "type": "uint256"
        },
        {
          "internalType": "uint256",
          "name": "valuesLength",
          "type": "uint256"
        }
      ],
      "name": "ERC1155InvalidArrayLength",
      "type": "error"
    },
    {
      "inputs": [
        {
          "internalType": "address",
          "name": "operator",
          "type": "address"
        }
      ],
      "name": "ERC1155InvalidOperator",
      "type": "error"
    },
    {
      "inputs": [
        {
          "internalType": "address",
          "name": "receiver",
          "type": "address"
        }
      ],
      "name": "ERC1155InvalidReceiver",
      "type": "error"
    },
    {
      "inputs": [
        {
          "internalType": "address",
          "name": "sender",
          "type": "address"
        }
      ],
      "name": "ERC1155InvalidSender",
      "type": "error"
    },
    {
      "inputs": [
        {
          "internalType": "address",
          "name": "operator",
          "type": "address"
        },
        {
          "internalType": "address",
          "name": "owner",
          "type": "address"
        }
      ],
      "name": "ERC1155MissingApprovalForAll",
      "type": "error"
    },
    {
      "inputs": [],
      "name": "FailedCall",
      "type": "error"
    },
    {
      "inputs": [
        {
          "internalType": "address",
          "name": "owner",
          "type": "address"
        }
      ],
      "name": "OwnableInvalidOwner",
      "type": "error"
    },
    {
      "inputs": [
        {
          "internalType": "address",
          "name": "account",
          "type": "address"
        }
      ],
      "name": "OwnableUnauthorizedAccount",
      "type": "error"
    },
    {
      "inputs": [],
      "name": "ReentrancyGuardReentrantCall",
      "type": "error"
    },
    {
      "anonymous": false,
      "inputs": [
        {
          "indexed": true,
          "internalType": "address",
          "name": "account",
          "type": "address"
        },
        {
          "indexed": true,
          "internalType": "address",
          "name": "operator",
          "type": "address"
        },
        {
          "indexed": false,
          "internalType": "bool",
          "name": "approved",
          "type": "bool"
        }
      ],
      "name": "ApprovalForAll",
      "type": "event"
    },
    {
      "anonymous": false,
      "inputs": [
        {
          "indexed": true,
          "internalType": "address",
          "name": "defender",
          "type": "address"
        },
        {
          "indexed": false,
          "internalType": "uint256",
          "name": "amount",
          "type": "uint256"
        }
      ],
      "name": "DefenderRewarded",
      "type": "event"
    },
    {
      "anonymous": false,
      "inputs": [
        {
          "indexed": false,
          "internalType": "uint256",
          "name": "totalUnitsKilled",
          "type": "uint256"
        },
        {
          "indexed": false,
          "internalType": "uint256",
          "name": "totalReaperKilled",
          "type": "uint256"
        },
        {
          "indexed": false,
          "internalType": "uint256",
          "name": "killAdded",
          "type": "uint256"
        },
        {
          "indexed": false,
          "internalType": "uint256",
          "name": "killExtracted",
          "type": "uint256"
        },
        {
          "indexed": false,
          "internalType": "uint256",
          "name": "killBurned",
          "type": "uint256"
        }
      ],
      "name": "GlobalStats",
      "type": "event"
    },
    {
      "anonymous": false,
      "inputs": [
        {
          "indexed": true,
          "internalType": "address",
          "name": "attacker",
          "type": "address"
        },
        {
          "indexed": true,
          "internalType": "address",
          "name": "target",
          "type": "address"
        },
        {
          "indexed": true,
          "internalType": "uint16",
          "name": "stackId",
          "type": "uint16"
        },
        {
          "components": [
            {
              "internalType": "uint256",
              "name": "attackerUnitsSent",
              "type": "uint256"
            },
            {
              "internalType": "uint256",
              "name": "attackerReaperSent",
              "type": "uint256"
            },
            {
              "internalType": "uint256",
              "name": "attackerUnitsLost",
              "type": "uint256"
            },
            {
              "internalType": "uint256",
              "name": "attackerReaperLost",
              "type": "uint256"
            },
            {
              "internalType": "uint256",
              "name": "targetUnitsLost",
              "type": "uint256"
            },
            {
              "internalType": "uint256",
              "name": "targetReaperLost",
              "type": "uint256"
            },
            {
              "internalType": "uint256",
              "name": "initialDefenderUnits",
              "type": "uint256"
            },
            {
              "internalType": "uint256",
              "name": "initialDefenderReaper",
              "type": "uint256"
            },
            {
              "internalType": "uint256",
              "name": "attackerBounty",
              "type": "uint256"
            },
            {
              "internalType": "uint256",
              "name": "defenderBounty",
              "type": "uint256"
            }
          ],
          "indexed": false,
          "internalType": "struct KILLGame.BattleSummary",
          "name": "summary",
          "type": "tuple"
        },
        {
          "indexed": false,
          "internalType": "uint256",
          "name": "targetBirthBlock",
          "type": "uint256"
        }
      ],
      "name": "Killed",
      "type": "event"
    },
    {
      "anonymous": false,
      "inputs": [
        {
          "indexed": true,
          "internalType": "address",
          "name": "agent",
          "type": "address"
        },
        {
          "indexed": false,
          "internalType": "uint16",
          "name": "fromStack",
          "type": "uint16"
        },
        {
          "indexed": false,
          "internalType": "uint16",
          "name": "toStack",
          "type": "uint16"
        },
        {
          "indexed": false,
          "internalType": "uint256",
          "name": "units",
          "type": "uint256"
        },
        {
          "indexed": false,
          "internalType": "uint256",
          "name": "reaper",
          "type": "uint256"
        },
        {
          "indexed": false,
          "internalType": "uint256",
          "name": "birthBlock",
          "type": "uint256"
        }
      ],
      "name": "Moved",
      "type": "event"
    },
    {
      "anonymous": false,
      "inputs": [
        {
          "indexed": true,
          "internalType": "address",
          "name": "previousOwner",
          "type": "address"
        },
        {
          "indexed": true,
          "internalType": "address",
          "name": "newOwner",
          "type": "address"
        }
      ],
      "name": "OwnershipTransferred",
      "type": "event"
    },
    {
      "anonymous": false,
      "inputs": [
        {
          "indexed": true,
          "internalType": "address",
          "name": "agent",
          "type": "address"
        },
        {
          "indexed": true,
          "internalType": "uint256",
          "name": "stackId",
          "type": "uint256"
        },
        {
          "indexed": false,
          "internalType": "uint256",
          "name": "units",
          "type": "uint256"
        },
        {
          "indexed": false,
          "internalType": "uint256",
          "name": "reapers",
          "type": "uint256"
        },
        {
          "indexed": false,
          "internalType": "uint256",
          "name": "birthBlock",
          "type": "uint256"
        }
      ],
      "name": "Spawned",
      "type": "event"
    },
    {
      "anonymous": false,
      "inputs": [
        {
          "indexed": true,
          "internalType": "address",
          "name": "operator",
          "type": "address"
        },
        {
          "indexed": true,
          "internalType": "address",
          "name": "from",
          "type": "address"
        },
        {
          "indexed": true,
          "internalType": "address",
          "name": "to",
          "type": "address"
        },
        {
          "indexed": false,
          "internalType": "uint256[]",
          "name": "ids",
          "type": "uint256[]"
        },
        {
          "indexed": false,
          "internalType": "uint256[]",
          "name": "values",
          "type": "uint256[]"
        }
      ],
      "name": "TransferBatch",
      "type": "event"
    },
    {
      "anonymous": false,
      "inputs": [
        {
          "indexed": true,
          "internalType": "address",
          "name": "operator",
          "type": "address"
        },
        {
          "indexed": true,
          "internalType": "address",
          "name": "from",
          "type": "address"
        },
        {
          "indexed": true,
          "internalType": "address",
          "name": "to",
          "type": "address"
        },
        {
          "indexed": false,
          "internalType": "uint256",
          "name": "id",
          "type": "uint256"
        },
        {
          "indexed": false,
          "internalType": "uint256",
          "name": "value",
          "type": "uint256"
        }
      ],
      "name": "TransferSingle",
      "type": "event"
    },
    {
      "anonymous": false,
      "inputs": [
        {
          "indexed": false,
          "internalType": "uint256",
          "name": "oldBps",
          "type": "uint256"
        },
        {
          "indexed": false,
          "internalType": "uint256",
          "name": "newBps",
          "type": "uint256"
        }
      ],
      "name": "TreasuryBpsUpdated",
      "type": "event"
    },
    {
      "anonymous": false,
      "inputs": [
        {
          "indexed": false,
          "internalType": "string",
          "name": "value",
          "type": "string"
        },
        {
          "indexed": true,
          "internalType": "uint256",
          "name": "id",
          "type": "uint256"
        }
      ],
      "name": "URI",
      "type": "event"
    },
    {
      "inputs": [],
      "name": "BLOCKS_PER_MULTIPLIER",
      "outputs": [
        {
          "internalType": "uint256",
          "name": "",
          "type": "uint256"
        }
      ],
      "stateMutability": "view",
      "type": "function"
    },
    {
      "inputs": [],
      "name": "BURN_BPS",
      "outputs": [
        {
          "internalType": "uint256",
          "name": "",
          "type": "uint256"
        }
      ],
      "stateMutability": "view",
      "type": "function"
    },
    {
      "inputs": [],
      "name": "GLOBAL_CAP_BPS",
      "outputs": [
        {
          "internalType": "uint256",
          "name": "",
          "type": "uint256"
        }
      ],
      "stateMutability": "view",
      "type": "function"
    },
    {
      "inputs": [],
      "name": "MAX_MULTIPLIER",
      "outputs": [
        {
          "internalType": "uint256",
          "name": "",
          "type": "uint256"
        }
      ],
      "stateMutability": "view",
      "type": "function"
    },
    {
      "inputs": [],
      "name": "MOVE_COST",
      "outputs": [
        {
          "internalType": "uint256",
          "name": "",
          "type": "uint256"
        }
      ],
      "stateMutability": "view",
      "type": "function"
    },
    {
      "inputs": [],
      "name": "SPAWN_COST_PER_POWER",
      "outputs": [
        {
          "internalType": "uint256",
          "name": "",
          "type": "uint256"
        }
      ],
      "stateMutability": "view",
      "type": "function"
    },
    {
      "inputs": [],
      "name": "THERMAL_PARITY",
      "outputs": [
        {
          "internalType": "uint256",
          "name": "",
          "type": "uint256"
        }
      ],
      "stateMutability": "view",
      "type": "function"
    },
    {
      "inputs": [
        {
          "internalType": "uint256",
          "name": "amt",
          "type": "uint256"
        }
      ],
      "name": "adminWithdraw",
      "outputs": [],
      "stateMutability": "nonpayable",
      "type": "function"
    },
    {
      "inputs": [
        {
          "internalType": "address",
          "name": "",
          "type": "address"
        },
        {
          "internalType": "uint256",
          "name": "",
          "type": "uint256"
        }
      ],
      "name": "agentStacks",
      "outputs": [
        {
          "internalType": "uint256",
          "name": "birthBlock",
          "type": "uint256"
        }
      ],
      "stateMutability": "view",
      "type": "function"
    },
    {
      "inputs": [
        {
          "internalType": "address",
          "name": "",
          "type": "address"
        }
      ],
      "name": "agentTotalProfit",
      "outputs": [
        {
          "internalType": "uint256",
          "name": "",
          "type": "uint256"
        }
      ],
      "stateMutability": "view",
      "type": "function"
    },
    {
      "inputs": [
        {
          "internalType": "address",
          "name": "account",
          "type": "address"
        },
        {
          "internalType": "uint256",
          "name": "id",
          "type": "uint256"
        }
      ],
      "name": "balanceOf",
      "outputs": [
        {
          "internalType": "uint256",
          "name": "",
          "type": "uint256"
        }
      ],
      "stateMutability": "view",
      "type": "function"
    },
    {
      "inputs": [
        {
          "internalType": "address[]",
          "name": "accounts",
          "type": "address[]"
        },
        {
          "internalType": "uint256[]",
          "name": "ids",
          "type": "uint256[]"
        }
      ],
      "name": "balanceOfBatch",
      "outputs": [
        {
          "internalType": "uint256[]",
          "name": "",
          "type": "uint256[]"
        }
      ],
      "stateMutability": "view",
      "type": "function"
    },
    {
      "inputs": [
        {
          "internalType": "address",
          "name": "agent",
          "type": "address"
        },
        {
          "internalType": "uint256",
          "name": "id",
          "type": "uint256"
        }
      ],
      "name": "getBirthBlock",
      "outputs": [
        {
          "internalType": "uint256",
          "name": "",
          "type": "uint256"
        }
      ],
      "stateMutability": "view",
      "type": "function"
    },
    {
      "inputs": [
        {
          "internalType": "uint16",
          "name": "stackId",
          "type": "uint16"
        }
      ],
      "name": "getFullStack",
      "outputs": [
        {
          "components": [
            {
              "internalType": "address",
              "name": "occupant",
              "type": "address"
            },
            {
              "internalType": "uint256",
              "name": "units",
              "type": "uint256"
            },
            {
              "internalType": "uint256",
              "name": "reapers",
              "type": "uint256"
            },
            {
              "internalType": "uint256",
              "name": "age",
              "type": "uint256"
            },
            {
              "internalType": "uint256",
              "name": "pendingBounty",
              "type": "uint256"
            }
          ],
          "internalType": "struct KILLGame.StackInfo[]",
          "name": "",
          "type": "tuple[]"
        }
      ],
      "stateMutability": "view",
      "type": "function"
    },
    {
      "inputs": [
        {
          "internalType": "address",
          "name": "agent",
          "type": "address"
        },
        {
          "internalType": "uint256",
          "name": "id",
          "type": "uint256"
        }
      ],
      "name": "getPendingBounty",
      "outputs": [
        {
          "internalType": "uint256",
          "name": "",
          "type": "uint256"
        }
      ],
      "stateMutability": "view",
      "type": "function"
    },
    {
      "inputs": [
        {
          "internalType": "address",
          "name": "account",
          "type": "address"
        },
        {
          "internalType": "address",
          "name": "operator",
          "type": "address"
        }
      ],
      "name": "isApprovedForAll",
      "outputs": [
        {
          "internalType": "bool",
          "name": "",
          "type": "bool"
        }
      ],
      "stateMutability": "view",
      "type": "function"
    },
    {
      "inputs": [
        {
          "internalType": "address",
          "name": "target",
          "type": "address"
        },
        {
          "internalType": "uint16",
          "name": "stackId",
          "type": "uint16"
        },
        {
          "internalType": "uint256",
          "name": "sentUnits",
          "type": "uint256"
        },
        {
          "internalType": "uint256",
          "name": "sentReaper",
          "type": "uint256"
        }
      ],
      "name": "kill",
      "outputs": [
        {
          "internalType": "uint256",
          "name": "attackerBounty",
          "type": "uint256"
        }
      ],
      "stateMutability": "nonpayable",
      "type": "function"
    },
    {
      "inputs": [],
      "name": "killToken",
      "outputs": [
        {
          "internalType": "contract IERC20",
          "name": "",
          "type": "address"
        }
      ],
      "stateMutability": "view",
      "type": "function"
    },
    {
      "inputs": [
        {
          "internalType": "uint16",
          "name": "fromStack",
          "type": "uint16"
        },
        {
          "internalType": "uint16",
          "name": "toStack",
          "type": "uint16"
        },
        {
          "internalType": "uint256",
          "name": "units",
          "type": "uint256"
        },
        {
          "internalType": "uint256",
          "name": "reaper",
          "type": "uint256"
        }
      ],
      "name": "move",
      "outputs": [],
      "stateMutability": "nonpayable",
      "type": "function"
    },
    {
      "inputs": [
        {
          "internalType": "bytes[]",
          "name": "data",
          "type": "bytes[]"
        }
      ],
      "name": "multicall",
      "outputs": [
        {
          "internalType": "bytes[]",
          "name": "results",
          "type": "bytes[]"
        }
      ],
      "stateMutability": "nonpayable",
      "type": "function"
    },
    {
      "inputs": [],
      "name": "owner",
      "outputs": [
        {
          "internalType": "address",
          "name": "",
          "type": "address"
        }
      ],
      "stateMutability": "view",
      "type": "function"
    },
    {
      "inputs": [],
      "name": "renounceOwnership",
      "outputs": [],
      "stateMutability": "nonpayable",
      "type": "function"
    },
    {
      "inputs": [
        {
          "internalType": "address",
          "name": "from",
          "type": "address"
        },
        {
          "internalType": "address",
          "name": "to",
          "type": "address"
        },
        {
          "internalType": "uint256[]",
          "name": "ids",
          "type": "uint256[]"
        },
        {
          "internalType": "uint256[]",
          "name": "values",
          "type": "uint256[]"
        },
        {
          "internalType": "bytes",
          "name": "data",
          "type": "bytes"
        }
      ],
      "name": "safeBatchTransferFrom",
      "outputs": [],
      "stateMutability": "nonpayable",
      "type": "function"
    },
    {
      "inputs": [
        {
          "internalType": "address",
          "name": "from",
          "type": "address"
        },
        {
          "internalType": "address",
          "name": "to",
          "type": "address"
        },
        {
          "internalType": "uint256",
          "name": "id",
          "type": "uint256"
        },
        {
          "internalType": "uint256",
          "name": "value",
          "type": "uint256"
        },
        {
          "internalType": "bytes",
          "name": "data",
          "type": "bytes"
        }
      ],
      "name": "safeTransferFrom",
      "outputs": [],
      "stateMutability": "nonpayable",
      "type": "function"
    },
    {
      "inputs": [
        {
          "internalType": "address",
          "name": "operator",
          "type": "address"
        },
        {
          "internalType": "bool",
          "name": "approved",
          "type": "bool"
        }
      ],
      "name": "setApprovalForAll",
      "outputs": [],
      "stateMutability": "nonpayable",
      "type": "function"
    },
    {
      "inputs": [
        {
          "internalType": "uint256",
          "name": "_newBps",
          "type": "uint256"
        }
      ],
      "name": "setTreasuryBps",
      "outputs": [],
      "stateMutability": "nonpayable",
      "type": "function"
    },
    {
      "inputs": [],
      "name": "snapshotTreasury",
      "outputs": [
        {
          "internalType": "uint256",
          "name": "",
          "type": "uint256"
        }
      ],
      "stateMutability": "view",
      "type": "function"
    },
    {
      "inputs": [
        {
          "internalType": "uint16",
          "name": "stackId",
          "type": "uint16"
        },
        {
          "internalType": "uint256",
          "name": "amount",
          "type": "uint256"
        }
      ],
      "name": "spawn",
      "outputs": [],
      "stateMutability": "nonpayable",
      "type": "function"
    },
    {
      "inputs": [
        {
          "internalType": "bytes4",
          "name": "id",
          "type": "bytes4"
        }
      ],
      "name": "supportsInterface",
      "outputs": [
        {
          "internalType": "bool",
          "name": "",
          "type": "bool"
        }
      ],
      "stateMutability": "view",
      "type": "function"
    },
    {
      "inputs": [],
      "name": "totalKillAdded",
      "outputs": [
        {
          "internalType": "uint256",
          "name": "",
          "type": "uint256"
        }
      ],
      "stateMutability": "view",
      "type": "function"
    },
    {
      "inputs": [],
      "name": "totalKillBurned",
      "outputs": [
        {
          "internalType": "uint256",
          "name": "",
          "type": "uint256"
        }
      ],
      "stateMutability": "view",
      "type": "function"
    },
    {
      "inputs": [],
      "name": "totalKillExtracted",
      "outputs": [
        {
          "internalType": "uint256",
          "name": "",
          "type": "uint256"
        }
      ],
      "stateMutability": "view",
      "type": "function"
    },
    {
      "inputs": [],
      "name": "totalReaperKilled",
      "outputs": [
        {
          "internalType": "uint256",
          "name": "",
          "type": "uint256"
        }
      ],
      "stateMutability": "view",
      "type": "function"
    },
    {
      "inputs": [],
      "name": "totalUnitsKilled",
      "outputs": [
        {
          "internalType": "uint256",
          "name": "",
          "type": "uint256"
        }
      ],
      "stateMutability": "view",
      "type": "function"
    },
    {
      "inputs": [
        {
          "internalType": "address",
          "name": "newOwner",
          "type": "address"
        }
      ],
      "name": "transferOwnership",
      "outputs": [],
      "stateMutability": "nonpayable",
      "type": "function"
    },
    {
      "inputs": [],
      "name": "treasuryBps",
      "outputs": [
        {
          "internalType": "uint256",
          "name": "",
          "type": "uint256"
        }
      ],
      "stateMutability": "view",
      "type": "function"
    },
    {
      "inputs": [
        {
          "internalType": "uint256",
          "name": "",
          "type": "uint256"
        }
      ],
      "name": "uri",
      "outputs": [
        {
          "internalType": "string",
          "name": "",
          "type": "string"
        }
      ],
      "stateMutability": "view",
      "type": "function"
    }
  ],
  "bytecode": "0x60a060405260006005553480156200001657600080fd5b50604051620036363803806200363683398101604081905262000039916200011b565b336040518060600160405280602a81526020016200360c602a91396200005f81620000b7565b5060016003556001600160a01b0381166200009457604051631e4fbdf760e01b81526000600482015260240160405180910390fd5b6200009f81620000c9565b506001600160a01b03166080526000600655620002c0565b6002620000c58282620001f4565b5050565b600480546001600160a01b038381166001600160a01b0319831681179093556040519116919082907f8be0079c531659141344cd1fd0a4f28419497f9722a3daafe3b4186f6b6457e090600090a35050565b6000602082840312156200012e57600080fd5b81516001600160a01b03811681146200014657600080fd5b9392505050565b634e487b7160e01b600052604160045260246000fd5b600181811c908216806200017857607f821691505b6020821081036200019957634e487b7160e01b600052602260045260246000fd5b50919050565b601f821115620001ef576000816000526020600020601f850160051c81016020861015620001ca5750805b601f850160051c820191505b81811015620001eb57828155600101620001d6565b5050505b505050565b81516001600160401b038111156200021057620002106200014d565b620002288162000221845462000163565b846200019f565b602080601f831160018114620002605760008415620002475750858301515b600019600386901b1c1916600185901b178555620001eb565b600085815260208120601f198616915b82811015620002915788860151825594840194600190910190840162000270565b5085821015620002b05787850151600019600388901b60f8161c191681555b5050505050600190811b01905550565b6080516132f862000314600039600081816102ae0152818161060901528181610751015281816109d601528181610a6101528181610d8601528181611042015281816111b601526122e501526132f86000f3fe608060405234801561001057600080fd5b50600436106102265760003560e01c80637c5b4a3711610130578063b8011328116100b8578063ea075ee11161007c578063ea075ee11461048d578063edbd5df8146104a0578063ef0a1311146104cb578063f242432a146104eb578063f2fde38b146104fe57600080fd5b8063b8011328146103fe578063bb6eb35914610434578063c68e807514610447578063e74fe23714610467578063e985e9c51461047a57600080fd5b806391fa2a6a116100ff57806391fa2a6a146103b85780639445684814610373578063a22cb465146103cb578063a37a9fc014610336578063ac9650d8146103de57600080fd5b80637c5b4a3714610382578063809ac3091461039557806388b00adc1461039e5780638da5cb5b146103a757600080fd5b80634e1273f4116101b357806366d8153f1161018257806366d8153f146103505780636ba3751514610359578063715018a614610362578063781298821461036a57806379a9ed591461037357600080fd5b80634e1273f414610316578063523c686a146103365780635635fdbc1461033f5780635d6a618d1461034857600080fd5b80632bd7cd17116101fa5780632bd7cd17146102a95780632eb2c2d6146102e85780632ee8174e146102fb5780633e984e48146103045780634dc10ea11461030d57600080fd5b8062fdd58e1461022b57806301ffc9a71461025157806309f61826146102745780630e89341c14610289575b600080fd5b61023e6102393660046128b8565b610511565b6040519081526020015b60405180910390f35b61026461025f3660046128f8565b610539565b6040519015158152602001610248565b610287610282366004612927565b610544565b005b61029c610297366004612943565b6107d6565b60405161024891906129ac565b6102d07f000000000000000000000000000000000000000000000000000000000000000081565b6040516001600160a01b039091168152602001610248565b6102876102f6366004612b09565b61086a565b61023e60085481565b61023e6109c481565b61023e60055481565b610329610324366004612bb3565b6108d1565b6040516102489190612caf565b61023e61029a81565b61023e600a5481565b61023e601481565b61023e60095481565b61023e61043881565b61028761099e565b61023e60075481565b61023e678ac7230489e8000081565b610287610390366004612943565b6109b2565b61023e60065481565b61023e600b5481565b6004546001600160a01b03166102d0565b61023e6103c6366004612cc2565b610ada565b6102876103d9366004612d12565b610e12565b6103f16103ec366004612d49565b610e1d565b6040516102489190612dbe565b61023e61040c3660046128b8565b6001600160a01b03919091166000908152600c60209081526040808320938352929052205490565b610287610442366004612943565b610f05565b61023e610455366004612e22565b600f6020526000908152604090205481565b610287610475366004612e3d565b610f8f565b610264610488366004612e5c565b61123c565b61023e61049b3660046128b8565b61126a565b61023e6104ae3660046128b8565b600c60209081526000928352604080842090915290825290205481565b6104de6104d9366004612e8f565b61138f565b6040516102489190612eaa565b6102876104f9366004612f21565b611622565b61028761050c366004612e22565b611681565b6000818152602081815260408083206001600160a01b03861684529091529020545b92915050565b6000610533826116bf565b61054c61170f565b60008261ffff16118015610565575060d88261ffff1611155b6105a65760405162461bcd60e51b815260206004820152600d60248201526c496e76616c696420537461636b60981b60448201526064015b60405180910390fd5b60006105b461029a83612fb2565b905060006105c48261029a612fc6565b6105ce9084612fdd565b905060006105e4678ac7230489e8000083612fc6565b6040516323b872dd60e01b8152336004820152306024820152604481018290529091507f00000000000000000000000000000000000000000000000000000000000000006001600160a01b0316906323b872dd906064016020604051808303816000875af115801561065a573d6000803e3d6000fd5b505050506040513d601f19601f8201168201806040525081019061067e9190612ff0565b6106b55760405162461bcd60e51b815260206004820152600860248201526714185e4819985a5b60c21b604482015260640161059d565b60098054820190556106cc3361ffff871686611739565b82156106eb576106eb336106e561ffff881660d8612fdd565b85611739565b60408051858152602081018590524381830152905161ffff87169133917faf4ea7c0f51d4c33144122655ecd0051aa44b546b9daa750ab0d9144f3ed637e9181900360600190a361073a611830565b50506040516370a0823160e01b81523060048201527f00000000000000000000000000000000000000000000000000000000000000006001600160a01b031691506370a0823190602401602060405180830381865afa1580156107a1573d6000803e3d6000fd5b505050506040513d601f19601f820116820180604052508101906107c5919061300d565b6006556107d26001600355565b5050565b6060600280546107e590613026565b80601f016020809104026020016040519081016040528092919081815260200182805461081190613026565b801561085e5780601f106108335761010080835404028352916020019161085e565b820191906000526020600020905b81548152906001019060200180831161084157829003601f168201915b50505050509050919050565b336001600160a01b038616811480159061088b5750610889868261123c565b155b156108bc5760405163711bec9160e11b81526001600160a01b0380831660048301528716602482015260440161059d565b6108c9868686868661188c565b505050505050565b606081518351146109025781518351604051635b05999160e01b81526004810192909252602482015260440161059d565b6000835167ffffffffffffffff81111561091e5761091e6129bf565b604051908082528060200260200182016040528015610947578160200160208202803683370190505b50905060005b84518110156109965760208082028601015161097190602080840287010151610511565b82828151811061098357610983613060565b602090810291909101015260010161094d565b509392505050565b6109a66118f3565b6109b06000611920565b565b6109ba6118f3565b60405163a9059cbb60e01b8152336004820152602481018290527f00000000000000000000000000000000000000000000000000000000000000006001600160a01b03169063a9059cbb906044016020604051808303816000875af1158015610a27573d6000803e3d6000fd5b505050506040513d601f19601f82011682018060405250810190610a4b9190612ff0565b506040516370a0823160e01b81523060048201527f00000000000000000000000000000000000000000000000000000000000000006001600160a01b0316906370a0823190602401602060405180830381865afa158015610ab0573d6000803e3d6000fd5b505050506040513d601f19601f82011682018060405250810190610ad4919061300d565b60065550565b6000610ae461170f565b61ffff84166000610af68260d8612fdd565b905084610b033384610511565b10158015610b1a575083610b173383610511565b10155b610b535760405162461bcd60e51b815260206004820152600a6024820152694c61636b20756e69747360b01b604482015260640161059d565b6001600160a01b0387163303610b9e5760405162461bcd60e51b815260206004820152601060248201526f21b0b73737ba1035b4b6361039b2b63360811b604482015260640161059d565b610bf4604051806101400160405280600081526020016000815260200160008152602001600081526020016000815260200160008152602001600081526020016000815260200160008152602001600081525090565b85815260208101859052610c088884610511565b60c0820152610c178883610511565b60e08201526001600160a01b0388166000908152600c6020908152604080832086845290915281205490610c4e8a86868b8b611972565b8051604080860191909152602082015160608087019190915290820151608086015281015160a08501529050610c868a868386611a95565b6040820151825160078054919092010190556060820151602083015160088054919092010190559550610cbc338b878785611c50565b6040805184518152602080860151908201528482015181830152606080860151908201526080808601519082015260a0808601519082015260c0808601519082015260e08086015190820152610100808601519082015261012080860151908201526101408101849052905161ffff8b16916001600160a01b038d169133917f2c0ba6eda9140ba04ab07a25239250d2664c08a013d3ec03f3ec6f014f21a53991908190036101600190a4610d6f611830565b50506040516370a0823160e01b81523060048201527f00000000000000000000000000000000000000000000000000000000000000006001600160a01b031693506370a0823192506024019050602060405180830381865afa158015610dd9573d6000803e3d6000fd5b505050506040513d601f19601f82011682018060405250810190610dfd919061300d565b600655610e0a6001600355565b949350505050565b6107d2338383611d73565b6040805160008152602081019091526060908267ffffffffffffffff811115610e4857610e486129bf565b604051908082528060200260200182016040528015610e7b57816020015b6060815260200190600190039081610e665790505b50915060005b83811015610efd57610ed830868684818110610e9f57610e9f613060565b9050602002810190610eb19190613089565b85604051602001610ec4939291906130d7565b604051602081830303815290604052611e09565b838281518110610eea57610eea613060565b6020908102919091010152600101610e81565b505092915050565b610f0d6118f3565b612710811115610f4a5760405162461bcd60e51b81526020600482015260086024820152674d6178203130302560c01b604482015260640161059d565b600580549082905560408051828152602081018490527f6993bc581306fd40069a7f8d78fd994e52ce66bdacf741f949a3e4bdcf28ca80910160405180910390a15050565b610f9761170f565b60008461ffff16118015610fb0575060d88461ffff1611155b8015610fc0575060008361ffff16115b8015610fd1575060d88361ffff1611155b8015610fe25750610fe28484611e7f565b6110195760405162461bcd60e51b8152602060048201526008602482015267426164206d6f766560c01b604482015260640161059d565b6040516323b872dd60e01b8152336004820152306024820152678ac7230489e8000060448201527f00000000000000000000000000000000000000000000000000000000000000006001600160a01b0316906323b872dd906064016020604051808303816000875af1158015611093573d6000803e3d6000fd5b505050506040513d601f19601f820116820180604052508101906110b79190612ff0565b6110ee5760405162461bcd60e51b815260206004820152600860248201526714185e4819985a5b60c21b604482015260640161059d565b60098054678ac7230489e800000190558115611117576111178461ffff168461ffff1684611fab565b80156111445761114461112f61ffff861660d8612fdd565b61113e61ffff861660d8612fdd565b83611fab565b6040805161ffff8087168252851660208201529081018390526060810182905243608082015233907f377dc7145bd8ab426842504b448652c41dda00abb7f7c1df6bdfa40bd2a16f2c9060a00160405180910390a26111a1611830565b6040516370a0823160e01b81523060048201527f00000000000000000000000000000000000000000000000000000000000000006001600160a01b0316906370a0823190602401602060405180830381865afa158015611205573d6000803e3d6000fd5b505050506040513d601f19601f82011682018060405250810190611229919061300d565b6006556112366001600355565b50505050565b6001600160a01b03918216600090815260016020908152604080832093909416825291909152205460ff1690565b6001600160a01b0382166000908152600c6020908152604080832084845290915281205480158061129b5750804311155b156112aa576000915050610533565b600060d884116112ba57836112c5565b6112c560d885613076565b905060006112d48260d8612fdd565b905060006112e28443613076565b905060006112f261043883612fb2565b90506014811115611301575060145b600061130d8985610511565b6113199061029a612fc6565b6113238a87610511565b61132d9190612fdd565b9050600082611344678ac7230489e8000084612fc6565b61134e9190612fc6565b905060006127106109c46006546113659190612fc6565b61136f9190612fb2565b905080821161137e5781611380565b805b9b9a5050505050505050505050565b606061ffff821660006113a38260d8612fdd565b6000838152600d602090815260408083208054825181850281018501909352808352949550929390929183018282801561140657602002820191906000526020600020905b81546001600160a01b031681526001909101906020018083116113e8575b505050505090506000805b825181101561148357600e6000868152602001908152602001600020600084838151811061144157611441613060565b6020908102919091018101516001600160a01b031682528101919091526040016000205460ff161561147b5781611477816130fe565b9250505b600101611411565b5060008167ffffffffffffffff81111561149f5761149f6129bf565b60405190808252806020026020018201604052801561150b57816020015b6114f86040518060a0016040528060006001600160a01b03168152602001600081526020016000815260200160008152602001600081525090565b8152602001906001900390816114bd5790505b5090506000805b845181101561161557600085828151811061152f5761152f613060565b60209081029190910181015160008a8152600e835260408082206001600160a01b0384168352909352919091205490915060ff161561160c576040518060a00160405280826001600160a01b0316815260200161158c838b610511565b815260200161159b838a610511565b81526001600160a01b0383166000908152600c602090815260408083208d84528252909120549101906115ce9043613076565b81526020016115dd838b61126a565b8152508484815181106115f2576115f2613060565b60200260200101819052508280611608906130fe565b9350505b50600101611512565b5090979650505050505050565b336001600160a01b03861681148015906116435750611641868261123c565b155b156116745760405163711bec9160e11b81526001600160a01b0380831660048301528716602482015260440161059d565b6108c986868686866120fa565b6116896118f3565b6001600160a01b0381166116b357604051631e4fbdf760e01b81526000600482015260240161059d565b6116bc81611920565b50565b60006001600160e01b03198216636cdb3d1360e11b14806116f057506001600160e01b031982166303a24d0760e21b145b8061053357506301ffc9a760e01b6001600160e01b0319831614610533565b60026003540361173257604051633ee5aeb560e01b815260040160405180910390fd5b6002600355565b61175483838360405180602001604052806000815250612188565b6001600160a01b0383166000908152600c6020908152604080832085845290915281205490036117a5576001600160a01b0383166000908152600c6020908152604080832085845290915290204390555b6000828152600e602090815260408083206001600160a01b038716845290915290205460ff1661182b576000828152600d602090815260408083208054600180820183559185528385200180546001600160a01b0319166001600160a01b038916908117909155868552600e8452828520908552909252909120805460ff191690911790555b505050565b600754600854600954600a54600b546040805195865260208601949094528484019290925260608401526080830152517f6b8aeaa3365d2dfcb9acc94f0a7429b657b4f2008cfafb9b10297011e077c6509181900360a00190a1565b6001600160a01b0384166118b657604051632bfa23e760e11b81526000600482015260240161059d565b6001600160a01b0385166118df57604051626a0d4560e21b81526000600482015260240161059d565b6118ec85858585856121e1565b5050505050565b6004546001600160a01b031633146109b05760405163118cdaa760e01b815233600482015260240161059d565b600480546001600160a01b038381166001600160a01b0319831681179093556040519116919082907f8be0079c531659141344cd1fd0a4f28419497f9722a3daafe3b4186f6b6457e090600090a35050565b61199d6040518060800160405280600081526020016000815260200160008152602001600081525090565b60006119ab8361029a612fc6565b6119b59085612fdd565b905060006119c38888610511565b905060006119d18988610511565b9050600060646119e38361029a612fc6565b6119ed9085612fdd565b6119f890606e612fc6565b611a029190612fb2565b905080600003611a10575060015b80841115611a2b576040850183905260608501829052611a88565b868552602085018690526000611a418580612fc6565b90506000611a4f8380612fc6565b905080611a5c8387612fc6565b611a669190612fb2565b604088015280611a768386612fc6565b611a809190612fb2565b606088015250505b5050505095945050505050565b600080836060015161029a611aaa9190612fc6565b8460400151611ab99190612fdd565b90506000846020015161029a611acf9190612fc6565b8551611adb9190612fdd565b90506000611ae98284612fdd565b905080600003611aff5760009350505050610e0a565b6000611b0b898961126a565b9050600061029a831015611b355761029a611b268484612fc6565b611b309190612fb2565b611b37565b815b90506000612710611b4a83611d4c612fc6565b611b549190612fb2565b90508015611c425783611b678783612fc6565b611b719190612fb2565b9650611b7d3388612234565b336000908152600f602052604081208054899290611b9c908490612fdd565b909155506000905084611baf8784612fc6565b611bb99190612fb2565b9050611bc58c82612234565b6001600160a01b038c166000908152600f602052604081208054839290611bed908490612fdd565b9091555050610100890188905261012089018190526040518181526001600160a01b038d16907fdf7a5d9a98a2f71d704a4e6a4c0422d79ed27521ad9cfd55e985d5fb94cfaffe9060200160405180910390a2505b505050505050949350505050565b604081015115611c6957611c698484836040015161238c565b606081015115611c8257611c828483836060015161238c565b805115611c9857611c988584836000015161238c565b602081015115611cb157611cb18583836020015161238c565b611cbb8484610511565b158015611ccf5750611ccd8483610511565b155b15611d0f576000838152600e602090815260408083206001600160a01b03881684528252808320805460ff19169055600c82528083208684529091528120555b611d198584610511565b158015611d2d5750611d2b8583610511565b155b156118ec576000838152600e602090815260408083206001600160a01b03891684528252808320805460ff19169055600c82528083208684529091528120555050505050565b6001600160a01b038216611d9c5760405162ced3e160e81b81526000600482015260240161059d565b6001600160a01b03838116600081815260016020908152604080832094871680845294825291829020805460ff191686151590811790915591519182527f17307eab39ab6107e8899845ad3d59bd9653f200f220920489ca2b5937696c31910160405180910390a3505050565b6060600080846001600160a01b031684604051611e269190613117565b600060405180830381855af49150503d8060008114611e61576040519150601f19603f3d011682016040523d82523d6000602084013e611e66565b606091505b5091509150611e768583836123f4565b95945050505050565b600080611e8d600185613133565b90506000611e9c600185613133565b90506000611eab600684613155565b905060006006611ebb8186613176565b611ec59190613155565b90506000611ed4602486613176565b90506000611ee3600686613155565b905060006006611ef38188613176565b611efd9190613155565b90506000611f0c602488613176565b90508060010b8460010b13611f2a57611f258482613197565b611f34565b611f348185613197565b8260010b8660010b13611f5057611f4b8684613197565b611f5a565b611f5a8387613197565b8460010b8860010b13611f7657611f718886613197565b611f80565b611f808589613197565b611f8a91906131ba565b611f9491906131ba565b61ffff166001149850505050505050505092915050565b600060d88411611fbb5783611fc6565b611fc660d885613076565b9050600060d88411611fd85783611fe3565b611fe360d885613076565b9050611ff033868561238c565b61200b33858560405180602001604052806000815250612188565b336000818152600c602090815260408083208684528252808320439081905585845281842055600e8252808320938352929052205460ff1661209a576000818152600d602090815260408083208054600181810183559185528385200180546001600160a01b03191633908117909155858552600e8452828520908552909252909120805460ff191690911790555b6120a43383610511565b1580156120bd57506120bb336102398460d8612fdd565b155b156118ec576000828152600e602090815260408083203384528252808320805460ff19169055600c82528083208584529091528120555050505050565b6001600160a01b03841661212457604051632bfa23e760e11b81526000600482015260240161059d565b6001600160a01b03851661214d57604051626a0d4560e21b81526000600482015260240161059d565b6040805160018082526020820186905281830190815260608201859052608082019092529061217f87878484876121e1565b50505050505050565b6001600160a01b0384166121b257604051632bfa23e760e11b81526000600482015260240161059d565b604080516001808252602082018690528183019081526060820185905260808201909252906108c96000878484875b6121ed85858585612453565b6001600160a01b038416156118ec5782513390600103612226576020848101519084015161221f838989858589612667565b50506108c9565b6108c981878787878761278b565b80156107d25760006127106005548361224d9190612fc6565b6122579190612fb2565b9050600061271061226a61029a85612fc6565b6122749190612fb2565b90506000816122838486613076565b61228d9190613076565b905080600a60008282546122a19190612fdd565b9250508190555081600b60008282546122ba9190612fdd565b909155505060405163a9059cbb60e01b81526001600160a01b038681166004830152602482018390527f0000000000000000000000000000000000000000000000000000000000000000169063a9059cbb906044016020604051808303816000875af115801561232e573d6000803e3d6000fd5b505050506040513d601f19601f820116820180604052508101906123529190612ff0565b6118ec5760405162461bcd60e51b815260206004820152600b60248201526a14185e5bdd5d0819985a5b60aa1b604482015260640161059d565b6001600160a01b0383166123b557604051626a0d4560e21b81526000600482015260240161059d565b604080516001808252602082018590528183019081526060820184905260a082019092526000608082018181529192916118ec918791859085906121e1565b6060826124095761240482612874565b61244c565b815115801561242057506001600160a01b0384163b155b1561244957604051639996b31560e01b81526001600160a01b038516600482015260240161059d565b50805b9392505050565b80518251146124825781518151604051635b05999160e01b81526004810192909252602482015260440161059d565b3360005b8351811015612588576020818102858101820151908501909101516001600160a01b03881615612539576000828152602081815260408083206001600160a01b038c16845290915290205481811015612512576040516303dee4c560e01b81526001600160a01b038a16600482015260248101829052604481018390526064810184905260840161059d565b6000838152602081815260408083206001600160a01b038d16845290915290209082900390555b6001600160a01b0387161561257e576000828152602081815260408083206001600160a01b038b16845290915281208054839290612578908490612fdd565b90915550505b5050600101612486565b5082516001036126095760208301516000906020840151909150856001600160a01b0316876001600160a01b0316846001600160a01b03167fc3d58168c5ae7397731d063d5bbf3d657854427343f4c083240f7aacaa2d0f6285856040516125fa929190918252602082015260400190565b60405180910390a450506118ec565b836001600160a01b0316856001600160a01b0316826001600160a01b03167f4a39dc06d4c0dbc64b70af90fd698a233a518aa5d07e595d983b8c0526c8f7fb86866040516126589291906131dd565b60405180910390a45050505050565b6001600160a01b0384163b156108c95760405163f23a6e6160e01b81526001600160a01b0385169063f23a6e61906126ab9089908990889088908890600401613202565b6020604051808303816000875af19250505080156126e6575060408051601f3d908101601f191682019092526126e391810190613247565b60015b61274f573d808015612714576040519150601f19603f3d011682016040523d82523d6000602084013e612719565b606091505b50805160000361274757604051632bfa23e760e11b81526001600160a01b038616600482015260240161059d565b805160208201fd5b6001600160e01b0319811663f23a6e6160e01b1461217f57604051632bfa23e760e11b81526001600160a01b038616600482015260240161059d565b6001600160a01b0384163b156108c95760405163bc197c8160e01b81526001600160a01b0385169063bc197c81906127cf9089908990889088908890600401613264565b6020604051808303816000875af192505050801561280a575060408051601f3d908101601f1916820190925261280791810190613247565b60015b612838573d808015612714576040519150601f19603f3d011682016040523d82523d6000602084013e612719565b6001600160e01b0319811663bc197c8160e01b1461217f57604051632bfa23e760e11b81526001600160a01b038616600482015260240161059d565b80511561288357805160208201fd5b60405163d6bda27560e01b815260040160405180910390fd5b80356001600160a01b03811681146128b357600080fd5b919050565b600080604083850312156128cb57600080fd5b6128d48361289c565b946020939093013593505050565b6001600160e01b0319811681146116bc57600080fd5b60006020828403121561290a57600080fd5b813561244c816128e2565b803561ffff811681146128b357600080fd5b6000806040838503121561293a57600080fd5b6128d483612915565b60006020828403121561295557600080fd5b5035919050565b60005b8381101561297757818101518382015260200161295f565b50506000910152565b6000815180845261299881602086016020860161295c565b601f01601f19169290920160200192915050565b60208152600061244c6020830184612980565b634e487b7160e01b600052604160045260246000fd5b604051601f8201601f1916810167ffffffffffffffff811182821017156129fe576129fe6129bf565b604052919050565b600067ffffffffffffffff821115612a2057612a206129bf565b5060051b60200190565b600082601f830112612a3b57600080fd5b81356020612a50612a4b83612a06565b6129d5565b8083825260208201915060208460051b870101935086841115612a7257600080fd5b602086015b84811015612a8e5780358352918301918301612a77565b509695505050505050565b600082601f830112612aaa57600080fd5b813567ffffffffffffffff811115612ac457612ac46129bf565b612ad7601f8201601f19166020016129d5565b818152846020838601011115612aec57600080fd5b816020850160208301376000918101602001919091529392505050565b600080600080600060a08688031215612b2157600080fd5b612b2a8661289c565b9450612b386020870161289c565b9350604086013567ffffffffffffffff80821115612b5557600080fd5b612b6189838a01612a2a565b94506060880135915080821115612b7757600080fd5b612b8389838a01612a2a565b93506080880135915080821115612b9957600080fd5b50612ba688828901612a99565b9150509295509295909350565b60008060408385031215612bc657600080fd5b823567ffffffffffffffff80821115612bde57600080fd5b818501915085601f830112612bf257600080fd5b81356020612c02612a4b83612a06565b82815260059290921b84018101918181019089841115612c2157600080fd5b948201945b83861015612c4657612c378661289c565b82529482019490820190612c26565b96505086013592505080821115612c5c57600080fd5b50612c6985828601612a2a565b9150509250929050565b60008151808452602080850194506020840160005b83811015612ca457815187529582019590820190600101612c88565b509495945050505050565b60208152600061244c6020830184612c73565b60008060008060808587031215612cd857600080fd5b612ce18561289c565b9350612cef60208601612915565b93969395505050506040820135916060013590565b80151581146116bc57600080fd5b60008060408385031215612d2557600080fd5b612d2e8361289c565b91506020830135612d3e81612d04565b809150509250929050565b60008060208385031215612d5c57600080fd5b823567ffffffffffffffff80821115612d7457600080fd5b818501915085601f830112612d8857600080fd5b813581811115612d9757600080fd5b8660208260051b8501011115612dac57600080fd5b60209290920196919550909350505050565b600060208083016020845280855180835260408601915060408160051b87010192506020870160005b82811015612e1557603f19888603018452612e03858351612980565b94509285019290850190600101612de7565b5092979650505050505050565b600060208284031215612e3457600080fd5b61244c8261289c565b60008060008060808587031215612e5357600080fd5b612ce185612915565b60008060408385031215612e6f57600080fd5b612e788361289c565b9150612e866020840161289c565b90509250929050565b600060208284031215612ea157600080fd5b61244c82612915565b602080825282518282018190526000919060409081850190868401855b82811015612f1457815180516001600160a01b0316855286810151878601528581015186860152606080820151908601526080908101519085015260a09093019290850190600101612ec7565b5091979650505050505050565b600080600080600060a08688031215612f3957600080fd5b612f428661289c565b9450612f506020870161289c565b93506040860135925060608601359150608086013567ffffffffffffffff811115612f7a57600080fd5b612ba688828901612a99565b634e487b7160e01b600052601260045260246000fd5b634e487b7160e01b600052601160045260246000fd5b600082612fc157612fc1612f86565b500490565b808202811582820484141761053357610533612f9c565b8082018082111561053357610533612f9c565b60006020828403121561300257600080fd5b815161244c81612d04565b60006020828403121561301f57600080fd5b5051919050565b600181811c9082168061303a57607f821691505b60208210810361305a57634e487b7160e01b600052602260045260246000fd5b50919050565b634e487b7160e01b600052603260045260246000fd5b8181038181111561053357610533612f9c565b6000808335601e198436030181126130a057600080fd5b83018035915067ffffffffffffffff8211156130bb57600080fd5b6020019150368190038213156130d057600080fd5b9250929050565b8284823760008382016000815283516130f481836020880161295c565b0195945050505050565b60006001820161311057613110612f9c565b5060010190565b6000825161312981846020870161295c565b9190910192915050565b61ffff82811682821603908082111561314e5761314e612f9c565b5092915050565b600061ffff8084168061316a5761316a612f86565b92169190910692915050565b600061ffff8084168061318b5761318b612f86565b92169190910492915050565b600182810b9082900b03617fff198112617fff8213171561053357610533612f9c565b600181810b9083900b01617fff8113617fff198212171561053357610533612f9c565b6040815260006131f06040830185612c73565b8281036020840152611e768185612c73565b6001600160a01b03868116825285166020820152604081018490526060810183905260a06080820181905260009061323c90830184612980565b979650505050505050565b60006020828403121561325957600080fd5b815161244c816128e2565b6001600160a01b0386811682528516602082015260a06040820181905260009061329090830186612c73565b82810360608401526132a28186612c73565b905082810360808401526132b68185612980565b9897505050505050505056fea2646970667358221220a5f5d4c81bda255b858d03d69f547eee1cc1b5369448ffab4b78a01db1acaabc64736f6c6343000818003368747470733a2f2f6170692e6b696c6c67616d652e61692f6d657461646174612f7b69647d2e6a736f6e",
  "linkReferences": {},
  "deployedLinkReferences": {}
}