{
  "_format": "hh-sol-artifact-1",
  "contractName": "KILLGame",
  "sourceName": "contracts/KillGame.sol",
  "abi": [
    {
      "inputs": [
        {
          "internalType": "address",
          "name": "_tokenAddress",
          "type": "address"
        }
      ],
      "stateMutability": "nonpayable",
      "type": "constructor"
    },
    {
      "inputs": [
        {
          "internalType": "address",
          "name": "target",
          "type": "address"
        }
      ],
      "name": "AddressEmptyCode",
      "type": "error"
    },
    {
      "inputs": [
        {
          "internalType": "address",
          "name": "sender",
          "type": "address"
        },
        {
          "internalType": "uint256",
          "name": "balance",
          "type": "uint256"
        },
        {
          "internalType": "uint256",
          "name": "needed",
          "type": "uint256"
        },
        {
          "internalType": "uint256",
          "name": "tokenId",
          "type": "uint256"
        }
      ],
      "name": "ERC1155InsufficientBalance",
      "type": "error"
    },
    {
      "inputs": [
        {
          "internalType": "address",
          "name": "approver",
          "type": "address"
        }
      ],
      "name": "ERC1155InvalidApprover",
      "type": "error"
    },
    {
      "inputs": [
        {
          "internalType": "uint256",
          "name": "idsLength",
          "type": "uint256"
        },
        {
          "internalType": "uint256",
          "name": "valuesLength",
          "type": "uint256"
        }
      ],
      "name": "ERC1155InvalidArrayLength",
      "type": "error"
    },
    {
      "inputs": [
        {
          "internalType": "address",
          "name": "operator",
          "type": "address"
        }
      ],
      "name": "ERC1155InvalidOperator",
      "type": "error"
    },
    {
      "inputs": [
        {
          "internalType": "address",
          "name": "receiver",
          "type": "address"
        }
      ],
      "name": "ERC1155InvalidReceiver",
      "type": "error"
    },
    {
      "inputs": [
        {
          "internalType": "address",
          "name": "sender",
          "type": "address"
        }
      ],
      "name": "ERC1155InvalidSender",
      "type": "error"
    },
    {
      "inputs": [
        {
          "internalType": "address",
          "name": "operator",
          "type": "address"
        },
        {
          "internalType": "address",
          "name": "owner",
          "type": "address"
        }
      ],
      "name": "ERC1155MissingApprovalForAll",
      "type": "error"
    },
    {
      "inputs": [],
      "name": "FailedCall",
      "type": "error"
    },
    {
      "inputs": [
        {
          "internalType": "address",
          "name": "owner",
          "type": "address"
        }
      ],
      "name": "OwnableInvalidOwner",
      "type": "error"
    },
    {
      "inputs": [
        {
          "internalType": "address",
          "name": "account",
          "type": "address"
        }
      ],
      "name": "OwnableUnauthorizedAccount",
      "type": "error"
    },
    {
      "inputs": [],
      "name": "ReentrancyGuardReentrantCall",
      "type": "error"
    },
    {
      "anonymous": false,
      "inputs": [
        {
          "indexed": true,
          "internalType": "address",
          "name": "account",
          "type": "address"
        },
        {
          "indexed": true,
          "internalType": "address",
          "name": "operator",
          "type": "address"
        },
        {
          "indexed": false,
          "internalType": "bool",
          "name": "approved",
          "type": "bool"
        }
      ],
      "name": "ApprovalForAll",
      "type": "event"
    },
    {
      "anonymous": false,
      "inputs": [
        {
          "indexed": true,
          "internalType": "address",
          "name": "defender",
          "type": "address"
        },
        {
          "indexed": false,
          "internalType": "uint256",
          "name": "amount",
          "type": "uint256"
        }
      ],
      "name": "DefenderRewarded",
      "type": "event"
    },
    {
      "anonymous": false,
      "inputs": [
        {
          "indexed": false,
          "internalType": "uint256",
          "name": "totalUnitsKilled",
          "type": "uint256"
        },
        {
          "indexed": false,
          "internalType": "uint256",
          "name": "totalReaperKilled",
          "type": "uint256"
        },
        {
          "indexed": false,
          "internalType": "uint256",
          "name": "killAdded",
          "type": "uint256"
        },
        {
          "indexed": false,
          "internalType": "uint256",
          "name": "killExtracted",
          "type": "uint256"
        },
        {
          "indexed": false,
          "internalType": "uint256",
          "name": "killBurned",
          "type": "uint256"
        }
      ],
      "name": "GlobalStats",
      "type": "event"
    },
    {
      "anonymous": false,
      "inputs": [
        {
          "indexed": true,
          "internalType": "address",
          "name": "attacker",
          "type": "address"
        },
        {
          "indexed": true,
          "internalType": "address",
          "name": "target",
          "type": "address"
        },
        {
          "indexed": true,
          "internalType": "uint16",
          "name": "stackId",
          "type": "uint16"
        },
        {
          "components": [
            {
              "internalType": "uint256",
              "name": "attackerUnitsSent",
              "type": "uint256"
            },
            {
              "internalType": "uint256",
              "name": "attackerReaperSent",
              "type": "uint256"
            },
            {
              "internalType": "uint256",
              "name": "attackerUnitsLost",
              "type": "uint256"
            },
            {
              "internalType": "uint256",
              "name": "attackerReaperLost",
              "type": "uint256"
            },
            {
              "internalType": "uint256",
              "name": "targetUnitsLost",
              "type": "uint256"
            },
            {
              "internalType": "uint256",
              "name": "targetReaperLost",
              "type": "uint256"
            },
            {
              "internalType": "uint256",
              "name": "initialDefenderUnits",
              "type": "uint256"
            },
            {
              "internalType": "uint256",
              "name": "initialDefenderReaper",
              "type": "uint256"
            },
            {
              "internalType": "uint256",
              "name": "attackerBounty",
              "type": "uint256"
            },
            {
              "internalType": "uint256",
              "name": "defenderBounty",
              "type": "uint256"
            }
          ],
          "indexed": false,
          "internalType": "struct KILLGame.BattleSummary",
          "name": "summary",
          "type": "tuple"
        },
        {
          "indexed": false,
          "internalType": "uint256",
          "name": "targetBirthBlock",
          "type": "uint256"
        }
      ],
      "name": "Killed",
      "type": "event"
    },
    {
      "anonymous": false,
      "inputs": [
        {
          "indexed": true,
          "internalType": "address",
          "name": "agent",
          "type": "address"
        },
        {
          "indexed": false,
          "internalType": "uint16",
          "name": "fromStack",
          "type": "uint16"
        },
        {
          "indexed": false,
          "internalType": "uint16",
          "name": "toStack",
          "type": "uint16"
        },
        {
          "indexed": false,
          "internalType": "uint256",
          "name": "units",
          "type": "uint256"
        },
        {
          "indexed": false,
          "internalType": "uint256",
          "name": "reaper",
          "type": "uint256"
        },
        {
          "indexed": false,
          "internalType": "uint256",
          "name": "birthBlock",
          "type": "uint256"
        }
      ],
      "name": "Moved",
      "type": "event"
    },
    {
      "anonymous": false,
      "inputs": [
        {
          "indexed": true,
          "internalType": "address",
          "name": "previousOwner",
          "type": "address"
        },
        {
          "indexed": true,
          "internalType": "address",
          "name": "newOwner",
          "type": "address"
        }
      ],
      "name": "OwnershipTransferred",
      "type": "event"
    },
    {
      "anonymous": false,
      "inputs": [
        {
          "indexed": true,
          "internalType": "address",
          "name": "agent",
          "type": "address"
        },
        {
          "indexed": true,
          "internalType": "uint256",
          "name": "stackId",
          "type": "uint256"
        },
        {
          "indexed": false,
          "internalType": "uint256",
          "name": "units",
          "type": "uint256"
        },
        {
          "indexed": false,
          "internalType": "uint256",
          "name": "reapers",
          "type": "uint256"
        },
        {
          "indexed": false,
          "internalType": "uint256",
          "name": "birthBlock",
          "type": "uint256"
        }
      ],
      "name": "Spawned",
      "type": "event"
    },
    {
      "anonymous": false,
      "inputs": [
        {
          "indexed": true,
          "internalType": "address",
          "name": "operator",
          "type": "address"
        },
        {
          "indexed": true,
          "internalType": "address",
          "name": "from",
          "type": "address"
        },
        {
          "indexed": true,
          "internalType": "address",
          "name": "to",
          "type": "address"
        },
        {
          "indexed": false,
          "internalType": "uint256[]",
          "name": "ids",
          "type": "uint256[]"
        },
        {
          "indexed": false,
          "internalType": "uint256[]",
          "name": "values",
          "type": "uint256[]"
        }
      ],
      "name": "TransferBatch",
      "type": "event"
    },
    {
      "anonymous": false,
      "inputs": [
        {
          "indexed": true,
          "internalType": "address",
          "name": "operator",
          "type": "address"
        },
        {
          "indexed": true,
          "internalType": "address",
          "name": "from",
          "type": "address"
        },
        {
          "indexed": true,
          "internalType": "address",
          "name": "to",
          "type": "address"
        },
        {
          "indexed": false,
          "internalType": "uint256",
          "name": "id",
          "type": "uint256"
        },
        {
          "indexed": false,
          "internalType": "uint256",
          "name": "value",
          "type": "uint256"
        }
      ],
      "name": "TransferSingle",
      "type": "event"
    },
    {
      "anonymous": false,
      "inputs": [
        {
          "indexed": false,
          "internalType": "uint256",
          "name": "oldBps",
          "type": "uint256"
        },
        {
          "indexed": false,
          "internalType": "uint256",
          "name": "newBps",
          "type": "uint256"
        }
      ],
      "name": "TreasuryBpsUpdated",
      "type": "event"
    },
    {
      "anonymous": false,
      "inputs": [
        {
          "indexed": false,
          "internalType": "string",
          "name": "value",
          "type": "string"
        },
        {
          "indexed": true,
          "internalType": "uint256",
          "name": "id",
          "type": "uint256"
        }
      ],
      "name": "URI",
      "type": "event"
    },
    {
      "inputs": [],
      "name": "BURN_BPS",
      "outputs": [
        {
          "internalType": "uint256",
          "name": "",
          "type": "uint256"
        }
      ],
      "stateMutability": "view",
      "type": "function"
    },
    {
      "inputs": [],
      "name": "MOVE_COST",
      "outputs": [
        {
          "internalType": "uint256",
          "name": "",
          "type": "uint256"
        }
      ],
      "stateMutability": "view",
      "type": "function"
    },
    {
      "inputs": [],
      "name": "SPAWN_COST",
      "outputs": [
        {
          "internalType": "uint256",
          "name": "",
          "type": "uint256"
        }
      ],
      "stateMutability": "view",
      "type": "function"
    },
    {
      "inputs": [],
      "name": "THERMAL_PARITY",
      "outputs": [
        {
          "internalType": "uint256",
          "name": "",
          "type": "uint256"
        }
      ],
      "stateMutability": "view",
      "type": "function"
    },
    {
      "inputs": [
        {
          "internalType": "uint256",
          "name": "amt",
          "type": "uint256"
        }
      ],
      "name": "adminWithdraw",
      "outputs": [],
      "stateMutability": "nonpayable",
      "type": "function"
    },
    {
      "inputs": [
        {
          "internalType": "address",
          "name": "",
          "type": "address"
        },
        {
          "internalType": "uint256",
          "name": "",
          "type": "uint256"
        }
      ],
      "name": "agentStacks",
      "outputs": [
        {
          "internalType": "uint256",
          "name": "birthBlock",
          "type": "uint256"
        }
      ],
      "stateMutability": "view",
      "type": "function"
    },
    {
      "inputs": [
        {
          "internalType": "address",
          "name": "",
          "type": "address"
        }
      ],
      "name": "agentTotalProfit",
      "outputs": [
        {
          "internalType": "uint256",
          "name": "",
          "type": "uint256"
        }
      ],
      "stateMutability": "view",
      "type": "function"
    },
    {
      "inputs": [
        {
          "internalType": "address",
          "name": "account",
          "type": "address"
        },
        {
          "internalType": "uint256",
          "name": "id",
          "type": "uint256"
        }
      ],
      "name": "balanceOf",
      "outputs": [
        {
          "internalType": "uint256",
          "name": "",
          "type": "uint256"
        }
      ],
      "stateMutability": "view",
      "type": "function"
    },
    {
      "inputs": [
        {
          "internalType": "address[]",
          "name": "accounts",
          "type": "address[]"
        },
        {
          "internalType": "uint256[]",
          "name": "ids",
          "type": "uint256[]"
        }
      ],
      "name": "balanceOfBatch",
      "outputs": [
        {
          "internalType": "uint256[]",
          "name": "",
          "type": "uint256[]"
        }
      ],
      "stateMutability": "view",
      "type": "function"
    },
    {
      "inputs": [
        {
          "internalType": "address",
          "name": "agent",
          "type": "address"
        },
        {
          "internalType": "uint256",
          "name": "id",
          "type": "uint256"
        }
      ],
      "name": "getBirthBlock",
      "outputs": [
        {
          "internalType": "uint256",
          "name": "",
          "type": "uint256"
        }
      ],
      "stateMutability": "view",
      "type": "function"
    },
    {
      "inputs": [
        {
          "internalType": "uint16",
          "name": "stackId",
          "type": "uint16"
        }
      ],
      "name": "getFullStack",
      "outputs": [
        {
          "components": [
            {
              "internalType": "address",
              "name": "occupant",
              "type": "address"
            },
            {
              "internalType": "uint256",
              "name": "units",
              "type": "uint256"
            },
            {
              "internalType": "uint256",
              "name": "reapers",
              "type": "uint256"
            },
            {
              "internalType": "uint256",
              "name": "age",
              "type": "uint256"
            },
            {
              "internalType": "uint256",
              "name": "pendingBounty",
              "type": "uint256"
            }
          ],
          "internalType": "struct KILLGame.StackInfo[]",
          "name": "",
          "type": "tuple[]"
        }
      ],
      "stateMutability": "view",
      "type": "function"
    },
    {
      "inputs": [
        {
          "internalType": "address",
          "name": "agent",
          "type": "address"
        },
        {
          "internalType": "uint256",
          "name": "id",
          "type": "uint256"
        }
      ],
      "name": "getPendingBounty",
      "outputs": [
        {
          "internalType": "uint256",
          "name": "",
          "type": "uint256"
        }
      ],
      "stateMutability": "view",
      "type": "function"
    },
    {
      "inputs": [],
      "name": "getTreasuryStats",
      "outputs": [
        {
          "internalType": "uint256",
          "name": "totalTreasury",
          "type": "uint256"
        },
        {
          "internalType": "uint256",
          "name": "globalMaxBounty",
          "type": "uint256"
        }
      ],
      "stateMutability": "view",
      "type": "function"
    },
    {
      "inputs": [
        {
          "internalType": "address",
          "name": "account",
          "type": "address"
        },
        {
          "internalType": "address",
          "name": "operator",
          "type": "address"
        }
      ],
      "name": "isApprovedForAll",
      "outputs": [
        {
          "internalType": "bool",
          "name": "",
          "type": "bool"
        }
      ],
      "stateMutability": "view",
      "type": "function"
    },
    {
      "inputs": [
        {
          "internalType": "address",
          "name": "target",
          "type": "address"
        },
        {
          "internalType": "uint16",
          "name": "stackId",
          "type": "uint16"
        },
        {
          "internalType": "uint256",
          "name": "sentUnits",
          "type": "uint256"
        },
        {
          "internalType": "uint256",
          "name": "sentReaper",
          "type": "uint256"
        }
      ],
      "name": "kill",
      "outputs": [
        {
          "internalType": "uint256",
          "name": "attackerBounty",
          "type": "uint256"
        }
      ],
      "stateMutability": "nonpayable",
      "type": "function"
    },
    {
      "inputs": [],
      "name": "killToken",
      "outputs": [
        {
          "internalType": "contract IERC20",
          "name": "",
          "type": "address"
        }
      ],
      "stateMutability": "view",
      "type": "function"
    },
    {
      "inputs": [
        {
          "internalType": "uint16",
          "name": "fromStack",
          "type": "uint16"
        },
        {
          "internalType": "uint16",
          "name": "toStack",
          "type": "uint16"
        },
        {
          "internalType": "uint256",
          "name": "units",
          "type": "uint256"
        },
        {
          "internalType": "uint256",
          "name": "reaper",
          "type": "uint256"
        }
      ],
      "name": "move",
      "outputs": [],
      "stateMutability": "nonpayable",
      "type": "function"
    },
    {
      "inputs": [
        {
          "internalType": "bytes[]",
          "name": "data",
          "type": "bytes[]"
        }
      ],
      "name": "multicall",
      "outputs": [
        {
          "internalType": "bytes[]",
          "name": "results",
          "type": "bytes[]"
        }
      ],
      "stateMutability": "nonpayable",
      "type": "function"
    },
    {
      "inputs": [],
      "name": "owner",
      "outputs": [
        {
          "internalType": "address",
          "name": "",
          "type": "address"
        }
      ],
      "stateMutability": "view",
      "type": "function"
    },
    {
      "inputs": [],
      "name": "renounceOwnership",
      "outputs": [],
      "stateMutability": "nonpayable",
      "type": "function"
    },
    {
      "inputs": [
        {
          "internalType": "address",
          "name": "from",
          "type": "address"
        },
        {
          "internalType": "address",
          "name": "to",
          "type": "address"
        },
        {
          "internalType": "uint256[]",
          "name": "ids",
          "type": "uint256[]"
        },
        {
          "internalType": "uint256[]",
          "name": "values",
          "type": "uint256[]"
        },
        {
          "internalType": "bytes",
          "name": "data",
          "type": "bytes"
        }
      ],
      "name": "safeBatchTransferFrom",
      "outputs": [],
      "stateMutability": "nonpayable",
      "type": "function"
    },
    {
      "inputs": [
        {
          "internalType": "address",
          "name": "from",
          "type": "address"
        },
        {
          "internalType": "address",
          "name": "to",
          "type": "address"
        },
        {
          "internalType": "uint256",
          "name": "id",
          "type": "uint256"
        },
        {
          "internalType": "uint256",
          "name": "value",
          "type": "uint256"
        },
        {
          "internalType": "bytes",
          "name": "data",
          "type": "bytes"
        }
      ],
      "name": "safeTransferFrom",
      "outputs": [],
      "stateMutability": "nonpayable",
      "type": "function"
    },
    {
      "inputs": [
        {
          "internalType": "address",
          "name": "operator",
          "type": "address"
        },
        {
          "internalType": "bool",
          "name": "approved",
          "type": "bool"
        }
      ],
      "name": "setApprovalForAll",
      "outputs": [],
      "stateMutability": "nonpayable",
      "type": "function"
    },
    {
      "inputs": [
        {
          "internalType": "uint256",
          "name": "_newBps",
          "type": "uint256"
        }
      ],
      "name": "setTreasuryBps",
      "outputs": [],
      "stateMutability": "nonpayable",
      "type": "function"
    },
    {
      "inputs": [
        {
          "internalType": "uint16",
          "name": "stackId",
          "type": "uint16"
        },
        {
          "internalType": "uint256",
          "name": "amount",
          "type": "uint256"
        }
      ],
      "name": "spawn",
      "outputs": [],
      "stateMutability": "nonpayable",
      "type": "function"
    },
    {
      "inputs": [
        {
          "internalType": "bytes4",
          "name": "id",
          "type": "bytes4"
        }
      ],
      "name": "supportsInterface",
      "outputs": [
        {
          "internalType": "bool",
          "name": "",
          "type": "bool"
        }
      ],
      "stateMutability": "view",
      "type": "function"
    },
    {
      "inputs": [],
      "name": "totalKillAdded",
      "outputs": [
        {
          "internalType": "uint256",
          "name": "",
          "type": "uint256"
        }
      ],
      "stateMutability": "view",
      "type": "function"
    },
    {
      "inputs": [],
      "name": "totalKillBurned",
      "outputs": [
        {
          "internalType": "uint256",
          "name": "",
          "type": "uint256"
        }
      ],
      "stateMutability": "view",
      "type": "function"
    },
    {
      "inputs": [],
      "name": "totalKillExtracted",
      "outputs": [
        {
          "internalType": "uint256",
          "name": "",
          "type": "uint256"
        }
      ],
      "stateMutability": "view",
      "type": "function"
    },
    {
      "inputs": [],
      "name": "totalReaperKilled",
      "outputs": [
        {
          "internalType": "uint256",
          "name": "",
          "type": "uint256"
        }
      ],
      "stateMutability": "view",
      "type": "function"
    },
    {
      "inputs": [],
      "name": "totalUnitsKilled",
      "outputs": [
        {
          "internalType": "uint256",
          "name": "",
          "type": "uint256"
        }
      ],
      "stateMutability": "view",
      "type": "function"
    },
    {
      "inputs": [
        {
          "internalType": "address",
          "name": "newOwner",
          "type": "address"
        }
      ],
      "name": "transferOwnership",
      "outputs": [],
      "stateMutability": "nonpayable",
      "type": "function"
    },
    {
      "inputs": [],
      "name": "treasuryBps",
      "outputs": [
        {
          "internalType": "uint256",
          "name": "",
          "type": "uint256"
        }
      ],
      "stateMutability": "view",
      "type": "function"
    },
    {
      "inputs": [
        {
          "internalType": "uint256",
          "name": "",
          "type": "uint256"
        }
      ],
      "name": "uri",
      "outputs": [
        {
          "internalType": "string",
          "name": "",
          "type": "string"
        }
      ],
      "stateMutability": "view",
      "type": "function"
    }
  ],
  "bytecode": "0x60a06040526113886005553480156200001757600080fd5b50604051620034c8380380620034c88339810160408190526200003a9162000117565b336040518060600160405280602a81526020016200349e602a91396200006081620000b3565b5060016003556001600160a01b0381166200009557604051631e4fbdf760e01b81526000600482015260240160405180910390fd5b620000a081620000c5565b506001600160a01b0316608052620002bc565b6002620000c18282620001f0565b5050565b600480546001600160a01b038381166001600160a01b0319831681179093556040519116919082907f8be0079c531659141344cd1fd0a4f28419497f9722a3daafe3b4186f6b6457e090600090a35050565b6000602082840312156200012a57600080fd5b81516001600160a01b03811681146200014257600080fd5b9392505050565b634e487b7160e01b600052604160045260246000fd5b600181811c908216806200017457607f821691505b6020821081036200019557634e487b7160e01b600052602260045260246000fd5b50919050565b601f821115620001eb576000816000526020600020601f850160051c81016020861015620001c65750805b601f850160051c820191505b81811015620001e757828155600101620001d2565b5050505b505050565b81516001600160401b038111156200020c576200020c62000149565b62000224816200021d84546200015f565b846200019b565b602080601f8311600181146200025c5760008415620002435750858301515b600019600386901b1c1916600185901b178555620001e7565b600085815260208120601f198616915b828110156200028d578886015182559484019460019091019084016200026c565b5085821015620002ac5787850151600019600388901b60f8161c191681555b5050505050600190811b01905550565b60805161319c620003026000396000818161028d015281816105b80152818161092101528181610de301528181610f200152818161115a0152612189015261319c6000f3fe608060405234801561001057600080fd5b50600436106102055760003560e01c806391fa2a6a1161011a578063c704c3f1116100ad578063ea075ee11161007c578063ea075ee114610466578063edbd5df814610479578063ef0a1311146104a4578063f242432a146104c4578063f2fde38b146104d757600080fd5b8063c704c3f114610378578063c8692e3f14610423578063e74fe23714610440578063e985e9c51461045357600080fd5b8063ac9650d8116100e9578063ac9650d81461039a578063b8011328146103ba578063bb6eb359146103f0578063c68e80751461040357600080fd5b806391fa2a6a146103655780639445684814610378578063a22cb46514610387578063a37a9fc01461030c57600080fd5b80634e1273f41161019d578063715018a61161016c578063715018a614610327578063781298821461032f5780637c5b4a371461033857806388b00adc1461034b5780638da5cb5b1461035457600080fd5b80634e1273f4146102ec578063523c686a1461030c5780635635fdbc1461031557806366d8153f1461031e57600080fd5b80632bd7cd17116101d95780632bd7cd17146102885780632eb2c2d6146102c75780632ee8174e146102da5780634dc10ea1146102e357600080fd5b8062fdd58e1461020a57806301ffc9a71461023057806309f61826146102535780630e89341c14610268575b600080fd5b61021d61021836600461275c565b6104ea565b6040519081526020015b60405180910390f35b61024361023e36600461279c565b610512565b6040519015158152602001610227565b6102666102613660046127cb565b61051d565b005b61027b6102763660046127e7565b610721565b6040516102279190612850565b6102af7f000000000000000000000000000000000000000000000000000000000000000081565b6040516001600160a01b039091168152602001610227565b6102666102d53660046129ad565b6107b5565b61021d60075481565b61021d60055481565b6102ff6102fa366004612a57565b61081c565b6040516102279190612b53565b61021d61029a81565b61021d60095481565b61021d60085481565b6102666108e9565b61021d60065481565b6102666103463660046127e7565b6108fd565b61021d600a5481565b6004546001600160a01b03166102af565b61021d610373366004612b66565b610996565b61021d678ac7230489e8000081565b610266610395366004612bb6565b610c44565b6103ad6103a8366004612bed565b610c4f565b6040516102279190612c62565b61021d6103c836600461275c565b6001600160a01b03919091166000908152600b60209081526040808320938352929052205490565b6102666103fe3660046127e7565b610d37565b61021d610411366004612cc6565b600e6020526000908152604090205481565b61042b610dc1565b60408051928352602083019190915201610227565b61026661044e366004612ce1565b610e6d565b610243610461366004612d00565b61109f565b61021d61047436600461275c565b6110cd565b61021d61048736600461275c565b600b60209081526000928352604080842090915290825290205481565b6104b76104b2366004612d33565b61129f565b6040516102279190612d4e565b6102666104d2366004612dc5565b611532565b6102666104e5366004612cc6565b611591565b6000818152602081815260408083206001600160a01b03861684529091529020545b92915050565b600061050c826115cf565b61052561161f565b60008261ffff1611801561053e575060d88261ffff1611155b61057f5760405162461bcd60e51b815260206004820152600d60248201526c496e76616c696420537461636b60981b60448201526064015b60405180910390fd5b6000610593678ac7230489e8000083612e40565b6040516323b872dd60e01b8152336004820152306024820152604481018290529091507f00000000000000000000000000000000000000000000000000000000000000006001600160a01b0316906323b872dd906064016020604051808303816000875af1158015610609573d6000803e3d6000fd5b505050506040513d601f19601f8201168201806040525081019061062d9190612e57565b6106645760405162461bcd60e51b815260206004820152600860248201526714185e4819985a5b60c21b6044820152606401610576565b600061271061029a8302600a8054929091049091019055506008805482019055600061069261029a84612e8a565b90506106a3338561ffff1685611649565b80156106c2576106c2336106bc61ffff871660d8612e9e565b83611649565b60408051848152602081018390524381830152905161ffff86169133917faf4ea7c0f51d4c33144122655ecd0051aa44b546b9daa750ab0d9144f3ed637e9181900360600190a3610711611740565b505061071d6001600355565b5050565b60606002805461073090612eb1565b80601f016020809104026020016040519081016040528092919081815260200182805461075c90612eb1565b80156107a95780601f1061077e576101008083540402835291602001916107a9565b820191906000526020600020905b81548152906001019060200180831161078c57829003601f168201915b50505050509050919050565b336001600160a01b03861681148015906107d657506107d4868261109f565b155b156108075760405163711bec9160e11b81526001600160a01b03808316600483015287166024820152604401610576565b610814868686868661179c565b505050505050565b6060815183511461084d5781518351604051635b05999160e01b815260048101929092526024820152604401610576565b6000835167ffffffffffffffff81111561086957610869612863565b604051908082528060200260200182016040528015610892578160200160208202803683370190505b50905060005b84518110156108e1576020808202860101516108bc906020808402870101516104ea565b8282815181106108ce576108ce612eeb565b6020908102919091010152600101610898565b509392505050565b6108f1611803565b6108fb6000611830565b565b610905611803565b60405163a9059cbb60e01b8152336004820152602481018290527f00000000000000000000000000000000000000000000000000000000000000006001600160a01b03169063a9059cbb906044016020604051808303816000875af1158015610972573d6000803e3d6000fd5b505050506040513d601f19601f8201168201806040525081019061071d9190612e57565b60006109a061161f565b61ffff841660006109b28260d8612e9e565b9050846109bf33846104ea565b101580156109d65750836109d333836104ea565b10155b610a0f5760405162461bcd60e51b815260206004820152600a6024820152694c61636b20756e69747360b01b6044820152606401610576565b6001600160a01b0387163303610a5a5760405162461bcd60e51b815260206004820152601060248201526f21b0b73737ba1035b4b6361039b2b63360811b6044820152606401610576565b610ab0604051806101400160405280600081526020016000815260200160008152602001600081526020016000815260200160008152602001600081526020016000815260200160008152602001600081525090565b85815260208101859052610ac488846104ea565b60c0820152610ad388836104ea565b60e08201526001600160a01b0388166000908152600b6020908152604080832086845290915281205490610b0b338b87878c8c611882565b8051604080860191909152602082015160608087019190915290820151608086015281015160a08501529050610b438a8683866119a6565b6040820151825160068054919092010190556060820151602083015160078054919092010190559550610b7a338b87878588611b61565b6040805184518152602080860151908201528482015181830152606080860151908201526080808601519082015260a0808601519082015260c0808601519082015260e08086015190820152610100808601519082015261012080860151908201526101408101849052905161ffff8b16916001600160a01b038d169133917f2c0ba6eda9140ba04ab07a25239250d2664c08a013d3ec03f3ec6f014f21a53991908190036101600190a4610c2d611740565b5050505050610c3c6001600355565b949350505050565b61071d338383611c85565b6040805160008152602081019091526060908267ffffffffffffffff811115610c7a57610c7a612863565b604051908082528060200260200182016040528015610cad57816020015b6060815260200190600190039081610c985790505b50915060005b83811015610d2f57610d0a30868684818110610cd157610cd1612eeb565b9050602002810190610ce39190612f14565b85604051602001610cf693929190612f62565b604051602081830303815290604052611d1b565b838281518110610d1c57610d1c612eeb565b6020908102919091010152600101610cb3565b505092915050565b610d3f611803565b612710811115610d7c5760405162461bcd60e51b81526020600482015260086024820152674d6178203130302560c01b6044820152606401610576565b600580549082905560408051828152602081018490527f6993bc581306fd40069a7f8d78fd994e52ce66bdacf741f949a3e4bdcf28ca80910160405180910390a15050565b6040516370a0823160e01b815230600482015260009081906001600160a01b037f000000000000000000000000000000000000000000000000000000000000000016906370a0823190602401602060405180830381865afa158015610e2a573d6000803e3d6000fd5b505050506040513d601f19601f82011682018060405250810190610e4e9190612f89565b91506064610e5d836005612e40565b610e679190612e8a565b90509091565b610e7561161f565b60008461ffff16118015610e8e575060d88461ffff1611155b8015610e9e575060008361ffff16115b8015610eaf575060d88361ffff1611155b8015610ec05750610ec08484611d91565b610ef75760405162461bcd60e51b8152602060048201526008602482015267426164206d6f766560c01b6044820152606401610576565b6040516323b872dd60e01b8152336004820152306024820152678ac7230489e8000060448201527f00000000000000000000000000000000000000000000000000000000000000006001600160a01b0316906323b872dd906064016020604051808303816000875af1158015610f71573d6000803e3d6000fd5b505050506040513d601f19601f82011682018060405250810190610f959190612e57565b610fcc5760405162461bcd60e51b815260206004820152600860248201526714185e4819985a5b60c21b6044820152606401610576565b600a805467093e1b78ac69000001905560088054678ac7230489e800000190558115611005576110058461ffff168461ffff1684611ebd565b80156110325761103261101d61ffff861660d8612e9e565b61102c61ffff861660d8612e9e565b83611ebd565b6040805161ffff8087168252851660208201529081018390526060810182905243608082015233907f377dc7145bd8ab426842504b448652c41dda00abb7f7c1df6bdfa40bd2a16f2c9060a00160405180910390a261108f611740565b6110996001600355565b50505050565b6001600160a01b03918216600090815260016020908152604080832093909416825291909152205460ff1690565b6001600160a01b0382166000908152600b602090815260408083208484529091528120548015806110fe5750804311155b1561110d57600091505061050c565b600060d8841161111d5783611128565b61112860d885612f01565b905060006111378260d8612e9e565b6040516370a0823160e01b81523060048201529091506000906001600160a01b037f000000000000000000000000000000000000000000000000000000000000000016906370a0823190602401602060405180830381865afa1580156111a1573d6000803e3d6000fd5b505050506040513d601f19601f820116820180604052508101906111c59190612f89565b905060006402540be40060055486436111de9190612f01565b6111e89085612e40565b6111f29190612e40565b6111fc9190612e8a565b90506000606461120d846005612e40565b6112179190612e8a565b905060006112258a866104ea565b6112319061029a612e40565b61123b8b886104ea565b6112459190612e9e565b9050600061125b678ac7230489e8000083612e40565b9050600061126a826032612e40565b9050600081851061127b578161127d565b845b905080861161128c578561128e565b805b9d9c50505050505050505050505050565b606061ffff821660006112b38260d8612e9e565b6000838152600c602090815260408083208054825181850281018501909352808352949550929390929183018282801561131657602002820191906000526020600020905b81546001600160a01b031681526001909101906020018083116112f8575b505050505090506000805b825181101561139357600d6000868152602001908152602001600020600084838151811061135157611351612eeb565b6020908102919091018101516001600160a01b031682528101919091526040016000205460ff161561138b578161138781612fa2565b9250505b600101611321565b5060008167ffffffffffffffff8111156113af576113af612863565b60405190808252806020026020018201604052801561141b57816020015b6114086040518060a0016040528060006001600160a01b03168152602001600081526020016000815260200160008152602001600081525090565b8152602001906001900390816113cd5790505b5090506000805b845181101561152557600085828151811061143f5761143f612eeb565b60209081029190910181015160008a8152600d835260408082206001600160a01b0384168352909352919091205490915060ff161561151c576040518060a00160405280826001600160a01b0316815260200161149c838b6104ea565b81526020016114ab838a6104ea565b81526001600160a01b0383166000908152600b602090815260408083208d84528252909120549101906114de9043612f01565b81526020016114ed838b6110cd565b81525084848151811061150257611502612eeb565b6020026020010181905250828061151890612fa2565b9350505b50600101611422565b5090979650505050505050565b336001600160a01b03861681148015906115535750611551868261109f565b155b156115845760405163711bec9160e11b81526001600160a01b03808316600483015287166024820152604401610576565b610814868686868661200c565b611599611803565b6001600160a01b0381166115c357604051631e4fbdf760e01b815260006004820152602401610576565b6115cc81611830565b50565b60006001600160e01b03198216636cdb3d1360e11b148061160057506001600160e01b031982166303a24d0760e21b145b8061050c57506301ffc9a760e01b6001600160e01b031983161461050c565b60026003540361164257604051633ee5aeb560e01b815260040160405180910390fd5b6002600355565b6116648383836040518060200160405280600081525061209a565b6001600160a01b0383166000908152600b6020908152604080832085845290915281205490036116b5576001600160a01b0383166000908152600b6020908152604080832085845290915290204390555b6000828152600d602090815260408083206001600160a01b038716845290915290205460ff1661173b576000828152600c602090815260408083208054600180820183559185528385200180546001600160a01b0319166001600160a01b038916908117909155868552600d8452828520908552909252909120805460ff191690911790555b505050565b600654600754600854600954600a546040805195865260208601949094528484019290925260608401526080830152517f6b8aeaa3365d2dfcb9acc94f0a7429b657b4f2008cfafb9b10297011e077c6509181900360a00190a1565b6001600160a01b0384166117c657604051632bfa23e760e11b815260006004820152602401610576565b6001600160a01b0385166117ef57604051626a0d4560e21b815260006004820152602401610576565b6117fc85858585856120f3565b5050505050565b6004546001600160a01b031633146108fb5760405163118cdaa760e01b8152336004820152602401610576565b600480546001600160a01b038381166001600160a01b0319831681179093556040519116919082907f8be0079c531659141344cd1fd0a4f28419497f9722a3daafe3b4186f6b6457e090600090a35050565b6118ad6040518060800160405280600081526020016000815260200160008152602001600081525090565b60006118bb8361029a612e40565b6118c59085612e9e565b905060006118d388886104ea565b905060006118e189886104ea565b9050600060646118f38361029a612e40565b6118fd9085612e9e565b61190890606e612e40565b6119129190612e8a565b905080600003611920575060015b8084111561193b576040850183905260608501829052611998565b8685526020850186905260006119518580612e40565b9050600061195f8380612e40565b90508061196c8387612e40565b6119769190612e8a565b6040880152806119868386612e40565b6119909190612e8a565b606088015250505b505050509695505050505050565b600080836060015161029a6119bb9190612e40565b84604001516119ca9190612e9e565b90506000846020015161029a6119e09190612e40565b85516119ec9190612e9e565b905060006119fa8284612e9e565b905080600003611a105760009350505050610c3c565b6000611a1c89896110cd565b9050600061029a831015611a465761029a611a378484612e40565b611a419190612e8a565b611a48565b815b90506000612710611a5b83611d4c612e40565b611a659190612e8a565b90508015611b535783611a788783612e40565b611a829190612e8a565b9650611a8e3388612146565b336000908152600e602052604081208054899290611aad908490612e9e565b909155506000905084611ac08784612e40565b611aca9190612e8a565b9050611ad68c82612146565b6001600160a01b038c166000908152600e602052604081208054839290611afe908490612e9e565b9091555050610100890188905261012089018190526040518181526001600160a01b038d16907fdf7a5d9a98a2f71d704a4e6a4c0422d79ed27521ad9cfd55e985d5fb94cfaffe9060200160405180910390a2505b505050505050949350505050565b604082015115611b7a57611b7a85858460400151612230565b606082015115611b9357611b9385848460600151612230565b815115611ba957611ba986858460000151612230565b602082015115611bc257611bc286848460200151612230565b611bcc85856104ea565b158015611be05750611bde85846104ea565b155b15611c20576000848152600d602090815260408083206001600160a01b03891684528252808320805460ff19169055600b82528083208784529091528120555b611c2a86856104ea565b158015611c3e5750611c3c86846104ea565b155b15610814576000848152600d602090815260408083206001600160a01b038a1684528252808320805460ff19169055600b8252808320878452909152812055505050505050565b6001600160a01b038216611cae5760405162ced3e160e81b815260006004820152602401610576565b6001600160a01b03838116600081815260016020908152604080832094871680845294825291829020805460ff191686151590811790915591519182527f17307eab39ab6107e8899845ad3d59bd9653f200f220920489ca2b5937696c31910160405180910390a3505050565b6060600080846001600160a01b031684604051611d389190612fbb565b600060405180830381855af49150503d8060008114611d73576040519150601f19603f3d011682016040523d82523d6000602084013e611d78565b606091505b5091509150611d88858383612298565b95945050505050565b600080611d9f600185612fd7565b90506000611dae600185612fd7565b90506000611dbd600684612ff9565b905060006006611dcd818661301a565b611dd79190612ff9565b90506000611de660248661301a565b90506000611df5600686612ff9565b905060006006611e05818861301a565b611e0f9190612ff9565b90506000611e1e60248861301a565b90508060010b8460010b13611e3c57611e37848261303b565b611e46565b611e46818561303b565b8260010b8660010b13611e6257611e5d868461303b565b611e6c565b611e6c838761303b565b8460010b8860010b13611e8857611e83888661303b565b611e92565b611e92858961303b565b611e9c919061305e565b611ea6919061305e565b61ffff166001149850505050505050505092915050565b600060d88411611ecd5783611ed8565b611ed860d885612f01565b9050600060d88411611eea5783611ef5565b611ef560d885612f01565b9050611f02338685612230565b611f1d3385856040518060200160405280600081525061209a565b336000818152600b602090815260408083208684528252808320439081905585845281842055600d8252808320938352929052205460ff16611fac576000818152600c602090815260408083208054600181810183559185528385200180546001600160a01b03191633908117909155858552600d8452828520908552909252909120805460ff191690911790555b611fb633836104ea565b158015611fcf5750611fcd336102188460d8612e9e565b155b156117fc576000828152600d602090815260408083203384528252808320805460ff19169055600b82528083208584529091528120555050505050565b6001600160a01b03841661203657604051632bfa23e760e11b815260006004820152602401610576565b6001600160a01b03851661205f57604051626a0d4560e21b815260006004820152602401610576565b6040805160018082526020820186905281830190815260608201859052608082019092529061209187878484876120f3565b50505050505050565b6001600160a01b0384166120c457604051632bfa23e760e11b815260006004820152602401610576565b604080516001808252602082018690528183019081526060820185905260808201909252906108146000878484875b6120ff858585856122f7565b6001600160a01b038416156117fc5782513390600103612138576020848101519084015161213183898985858961250b565b5050610814565b61081481878787878761262f565b801561071d57806009600082825461215e9190612e9e565b909155505060405163a9059cbb60e01b81526001600160a01b038381166004830152602482018390527f0000000000000000000000000000000000000000000000000000000000000000169063a9059cbb906044016020604051808303816000875af11580156121d2573d6000803e3d6000fd5b505050506040513d601f19601f820116820180604052508101906121f69190612e57565b61071d5760405162461bcd60e51b815260206004820152600b60248201526a14185e5bdd5d0819985a5b60aa1b6044820152606401610576565b6001600160a01b03831661225957604051626a0d4560e21b815260006004820152602401610576565b604080516001808252602082018590528183019081526060820184905260a082019092526000608082018181529192916117fc918791859085906120f3565b6060826122ad576122a882612718565b6122f0565b81511580156122c457506001600160a01b0384163b155b156122ed57604051639996b31560e01b81526001600160a01b0385166004820152602401610576565b50805b9392505050565b80518251146123265781518151604051635b05999160e01b815260048101929092526024820152604401610576565b3360005b835181101561242c576020818102858101820151908501909101516001600160a01b038816156123dd576000828152602081815260408083206001600160a01b038c168452909152902054818110156123b6576040516303dee4c560e01b81526001600160a01b038a166004820152602481018290526044810183905260648101849052608401610576565b6000838152602081815260408083206001600160a01b038d16845290915290209082900390555b6001600160a01b03871615612422576000828152602081815260408083206001600160a01b038b1684529091528120805483929061241c908490612e9e565b90915550505b505060010161232a565b5082516001036124ad5760208301516000906020840151909150856001600160a01b0316876001600160a01b0316846001600160a01b03167fc3d58168c5ae7397731d063d5bbf3d657854427343f4c083240f7aacaa2d0f62858560405161249e929190918252602082015260400190565b60405180910390a450506117fc565b836001600160a01b0316856001600160a01b0316826001600160a01b03167f4a39dc06d4c0dbc64b70af90fd698a233a518aa5d07e595d983b8c0526c8f7fb86866040516124fc929190613081565b60405180910390a45050505050565b6001600160a01b0384163b156108145760405163f23a6e6160e01b81526001600160a01b0385169063f23a6e619061254f90899089908890889088906004016130a6565b6020604051808303816000875af192505050801561258a575060408051601f3d908101601f19168201909252612587918101906130eb565b60015b6125f3573d8080156125b8576040519150601f19603f3d011682016040523d82523d6000602084013e6125bd565b606091505b5080516000036125eb57604051632bfa23e760e11b81526001600160a01b0386166004820152602401610576565b805160208201fd5b6001600160e01b0319811663f23a6e6160e01b1461209157604051632bfa23e760e11b81526001600160a01b0386166004820152602401610576565b6001600160a01b0384163b156108145760405163bc197c8160e01b81526001600160a01b0385169063bc197c81906126739089908990889088908890600401613108565b6020604051808303816000875af19250505080156126ae575060408051601f3d908101601f191682019092526126ab918101906130eb565b60015b6126dc573d8080156125b8576040519150601f19603f3d011682016040523d82523d6000602084013e6125bd565b6001600160e01b0319811663bc197c8160e01b1461209157604051632bfa23e760e11b81526001600160a01b0386166004820152602401610576565b80511561272757805160208201fd5b60405163d6bda27560e01b815260040160405180910390fd5b80356001600160a01b038116811461275757600080fd5b919050565b6000806040838503121561276f57600080fd5b61277883612740565b946020939093013593505050565b6001600160e01b0319811681146115cc57600080fd5b6000602082840312156127ae57600080fd5b81356122f081612786565b803561ffff8116811461275757600080fd5b600080604083850312156127de57600080fd5b612778836127b9565b6000602082840312156127f957600080fd5b5035919050565b60005b8381101561281b578181015183820152602001612803565b50506000910152565b6000815180845261283c816020860160208601612800565b601f01601f19169290920160200192915050565b6020815260006122f06020830184612824565b634e487b7160e01b600052604160045260246000fd5b604051601f8201601f1916810167ffffffffffffffff811182821017156128a2576128a2612863565b604052919050565b600067ffffffffffffffff8211156128c4576128c4612863565b5060051b60200190565b600082601f8301126128df57600080fd5b813560206128f46128ef836128aa565b612879565b8083825260208201915060208460051b87010193508684111561291657600080fd5b602086015b84811015612932578035835291830191830161291b565b509695505050505050565b600082601f83011261294e57600080fd5b813567ffffffffffffffff81111561296857612968612863565b61297b601f8201601f1916602001612879565b81815284602083860101111561299057600080fd5b816020850160208301376000918101602001919091529392505050565b600080600080600060a086880312156129c557600080fd5b6129ce86612740565b94506129dc60208701612740565b9350604086013567ffffffffffffffff808211156129f957600080fd5b612a0589838a016128ce565b94506060880135915080821115612a1b57600080fd5b612a2789838a016128ce565b93506080880135915080821115612a3d57600080fd5b50612a4a8882890161293d565b9150509295509295909350565b60008060408385031215612a6a57600080fd5b823567ffffffffffffffff80821115612a8257600080fd5b818501915085601f830112612a9657600080fd5b81356020612aa66128ef836128aa565b82815260059290921b84018101918181019089841115612ac557600080fd5b948201945b83861015612aea57612adb86612740565b82529482019490820190612aca565b96505086013592505080821115612b0057600080fd5b50612b0d858286016128ce565b9150509250929050565b60008151808452602080850194506020840160005b83811015612b4857815187529582019590820190600101612b2c565b509495945050505050565b6020815260006122f06020830184612b17565b60008060008060808587031215612b7c57600080fd5b612b8585612740565b9350612b93602086016127b9565b93969395505050506040820135916060013590565b80151581146115cc57600080fd5b60008060408385031215612bc957600080fd5b612bd283612740565b91506020830135612be281612ba8565b809150509250929050565b60008060208385031215612c0057600080fd5b823567ffffffffffffffff80821115612c1857600080fd5b818501915085601f830112612c2c57600080fd5b813581811115612c3b57600080fd5b8660208260051b8501011115612c5057600080fd5b60209290920196919550909350505050565b600060208083016020845280855180835260408601915060408160051b87010192506020870160005b82811015612cb957603f19888603018452612ca7858351612824565b94509285019290850190600101612c8b565b5092979650505050505050565b600060208284031215612cd857600080fd5b6122f082612740565b60008060008060808587031215612cf757600080fd5b612b85856127b9565b60008060408385031215612d1357600080fd5b612d1c83612740565b9150612d2a60208401612740565b90509250929050565b600060208284031215612d4557600080fd5b6122f0826127b9565b602080825282518282018190526000919060409081850190868401855b82811015612db857815180516001600160a01b0316855286810151878601528581015186860152606080820151908601526080908101519085015260a09093019290850190600101612d6b565b5091979650505050505050565b600080600080600060a08688031215612ddd57600080fd5b612de686612740565b9450612df460208701612740565b93506040860135925060608601359150608086013567ffffffffffffffff811115612e1e57600080fd5b612a4a8882890161293d565b634e487b7160e01b600052601160045260246000fd5b808202811582820484141761050c5761050c612e2a565b600060208284031215612e6957600080fd5b81516122f081612ba8565b634e487b7160e01b600052601260045260246000fd5b600082612e9957612e99612e74565b500490565b8082018082111561050c5761050c612e2a565b600181811c90821680612ec557607f821691505b602082108103612ee557634e487b7160e01b600052602260045260246000fd5b50919050565b634e487b7160e01b600052603260045260246000fd5b8181038181111561050c5761050c612e2a565b6000808335601e19843603018112612f2b57600080fd5b83018035915067ffffffffffffffff821115612f4657600080fd5b602001915036819003821315612f5b57600080fd5b9250929050565b828482376000838201600081528351612f7f818360208801612800565b0195945050505050565b600060208284031215612f9b57600080fd5b5051919050565b600060018201612fb457612fb4612e2a565b5060010190565b60008251612fcd818460208701612800565b9190910192915050565b61ffff828116828216039080821115612ff257612ff2612e2a565b5092915050565b600061ffff8084168061300e5761300e612e74565b92169190910692915050565b600061ffff8084168061302f5761302f612e74565b92169190910492915050565b600182810b9082900b03617fff198112617fff8213171561050c5761050c612e2a565b600181810b9083900b01617fff8113617fff198212171561050c5761050c612e2a565b6040815260006130946040830185612b17565b8281036020840152611d888185612b17565b6001600160a01b03868116825285166020820152604081018490526060810183905260a0608082018190526000906130e090830184612824565b979650505050505050565b6000602082840312156130fd57600080fd5b81516122f081612786565b6001600160a01b0386811682528516602082015260a06040820181905260009061313490830186612b17565b82810360608401526131468186612b17565b9050828103608084015261315a8185612824565b9897505050505050505056fea264697066735822122011cfbf451fe228ff1a6be29d87186aa5c2b49e65768c32035c76cca13f46895e64736f6c6343000818003368747470733a2f2f6170692e6b696c6c67616d652e61692f6d657461646174612f7b69647d2e6a736f6e",
  "linkReferences": {},
  "deployedLinkReferences": {}
}