{
  "_format": "hh-sol-artifact-1",
  "contractName": "KILLGame",
  "sourceName": "contracts/KillGame.sol",
  "abi": [
    {
      "inputs": [
        {
          "internalType": "address",
          "name": "_tokenAddress",
          "type": "address"
        }
      ],
      "stateMutability": "nonpayable",
      "type": "constructor"
    },
    {
      "inputs": [
        {
          "internalType": "address",
          "name": "target",
          "type": "address"
        }
      ],
      "name": "AddressEmptyCode",
      "type": "error"
    },
    {
      "inputs": [
        {
          "internalType": "address",
          "name": "sender",
          "type": "address"
        },
        {
          "internalType": "uint256",
          "name": "balance",
          "type": "uint256"
        },
        {
          "internalType": "uint256",
          "name": "needed",
          "type": "uint256"
        },
        {
          "internalType": "uint256",
          "name": "tokenId",
          "type": "uint256"
        }
      ],
      "name": "ERC1155InsufficientBalance",
      "type": "error"
    },
    {
      "inputs": [
        {
          "internalType": "address",
          "name": "approver",
          "type": "address"
        }
      ],
      "name": "ERC1155InvalidApprover",
      "type": "error"
    },
    {
      "inputs": [
        {
          "internalType": "uint256",
          "name": "idsLength",
          "type": "uint256"
        },
        {
          "internalType": "uint256",
          "name": "valuesLength",
          "type": "uint256"
        }
      ],
      "name": "ERC1155InvalidArrayLength",
      "type": "error"
    },
    {
      "inputs": [
        {
          "internalType": "address",
          "name": "operator",
          "type": "address"
        }
      ],
      "name": "ERC1155InvalidOperator",
      "type": "error"
    },
    {
      "inputs": [
        {
          "internalType": "address",
          "name": "receiver",
          "type": "address"
        }
      ],
      "name": "ERC1155InvalidReceiver",
      "type": "error"
    },
    {
      "inputs": [
        {
          "internalType": "address",
          "name": "sender",
          "type": "address"
        }
      ],
      "name": "ERC1155InvalidSender",
      "type": "error"
    },
    {
      "inputs": [
        {
          "internalType": "address",
          "name": "operator",
          "type": "address"
        },
        {
          "internalType": "address",
          "name": "owner",
          "type": "address"
        }
      ],
      "name": "ERC1155MissingApprovalForAll",
      "type": "error"
    },
    {
      "inputs": [],
      "name": "FailedCall",
      "type": "error"
    },
    {
      "inputs": [
        {
          "internalType": "address",
          "name": "owner",
          "type": "address"
        }
      ],
      "name": "OwnableInvalidOwner",
      "type": "error"
    },
    {
      "inputs": [
        {
          "internalType": "address",
          "name": "account",
          "type": "address"
        }
      ],
      "name": "OwnableUnauthorizedAccount",
      "type": "error"
    },
    {
      "inputs": [],
      "name": "ReentrancyGuardReentrantCall",
      "type": "error"
    },
    {
      "anonymous": false,
      "inputs": [
        {
          "indexed": true,
          "internalType": "address",
          "name": "account",
          "type": "address"
        },
        {
          "indexed": true,
          "internalType": "address",
          "name": "operator",
          "type": "address"
        },
        {
          "indexed": false,
          "internalType": "bool",
          "name": "approved",
          "type": "bool"
        }
      ],
      "name": "ApprovalForAll",
      "type": "event"
    },
    {
      "anonymous": false,
      "inputs": [
        {
          "indexed": false,
          "internalType": "uint256",
          "name": "totalUnitsKilled",
          "type": "uint256"
        },
        {
          "indexed": false,
          "internalType": "uint256",
          "name": "totalReaperKilled",
          "type": "uint256"
        },
        {
          "indexed": false,
          "internalType": "uint256",
          "name": "killAdded",
          "type": "uint256"
        },
        {
          "indexed": false,
          "internalType": "uint256",
          "name": "killExtracted",
          "type": "uint256"
        },
        {
          "indexed": false,
          "internalType": "uint256",
          "name": "killBurned",
          "type": "uint256"
        }
      ],
      "name": "GlobalStats",
      "type": "event"
    },
    {
      "anonymous": false,
      "inputs": [
        {
          "indexed": true,
          "internalType": "address",
          "name": "attacker",
          "type": "address"
        },
        {
          "indexed": true,
          "internalType": "address",
          "name": "target",
          "type": "address"
        },
        {
          "indexed": true,
          "internalType": "uint16",
          "name": "stackId",
          "type": "uint16"
        },
        {
          "components": [
            {
              "internalType": "uint256",
              "name": "attackerUnitsSent",
              "type": "uint256"
            },
            {
              "internalType": "uint256",
              "name": "attackerReaperSent",
              "type": "uint256"
            },
            {
              "internalType": "uint256",
              "name": "attackerUnitsLost",
              "type": "uint256"
            },
            {
              "internalType": "uint256",
              "name": "attackerReaperLost",
              "type": "uint256"
            },
            {
              "internalType": "uint256",
              "name": "targetUnitsLost",
              "type": "uint256"
            },
            {
              "internalType": "uint256",
              "name": "targetReaperLost",
              "type": "uint256"
            },
            {
              "internalType": "uint256",
              "name": "initialDefenderUnits",
              "type": "uint256"
            },
            {
              "internalType": "uint256",
              "name": "initialDefenderReaper",
              "type": "uint256"
            },
            {
              "internalType": "uint256",
              "name": "attackerBounty",
              "type": "uint256"
            },
            {
              "internalType": "uint256",
              "name": "defenderBounty",
              "type": "uint256"
            }
          ],
          "indexed": false,
          "internalType": "struct KILLGame.BattleSummary",
          "name": "summary",
          "type": "tuple"
        },
        {
          "indexed": false,
          "internalType": "uint256",
          "name": "targetBirthBlock",
          "type": "uint256"
        }
      ],
      "name": "Killed",
      "type": "event"
    },
    {
      "anonymous": false,
      "inputs": [
        {
          "indexed": true,
          "internalType": "address",
          "name": "agent",
          "type": "address"
        },
        {
          "indexed": false,
          "internalType": "uint16",
          "name": "fromStack",
          "type": "uint16"
        },
        {
          "indexed": false,
          "internalType": "uint16",
          "name": "toStack",
          "type": "uint16"
        },
        {
          "indexed": false,
          "internalType": "uint256",
          "name": "units",
          "type": "uint256"
        },
        {
          "indexed": false,
          "internalType": "uint256",
          "name": "reaper",
          "type": "uint256"
        },
        {
          "indexed": false,
          "internalType": "uint256",
          "name": "birthBlock",
          "type": "uint256"
        }
      ],
      "name": "Moved",
      "type": "event"
    },
    {
      "anonymous": false,
      "inputs": [
        {
          "indexed": true,
          "internalType": "address",
          "name": "previousOwner",
          "type": "address"
        },
        {
          "indexed": true,
          "internalType": "address",
          "name": "newOwner",
          "type": "address"
        }
      ],
      "name": "OwnershipTransferred",
      "type": "event"
    },
    {
      "anonymous": false,
      "inputs": [
        {
          "indexed": true,
          "internalType": "address",
          "name": "agent",
          "type": "address"
        },
        {
          "indexed": true,
          "internalType": "uint256",
          "name": "stackId",
          "type": "uint256"
        },
        {
          "indexed": false,
          "internalType": "uint256",
          "name": "units",
          "type": "uint256"
        },
        {
          "indexed": false,
          "internalType": "uint256",
          "name": "reapers",
          "type": "uint256"
        },
        {
          "indexed": false,
          "internalType": "uint256",
          "name": "birthBlock",
          "type": "uint256"
        }
      ],
      "name": "Spawned",
      "type": "event"
    },
    {
      "anonymous": false,
      "inputs": [
        {
          "indexed": true,
          "internalType": "address",
          "name": "operator",
          "type": "address"
        },
        {
          "indexed": true,
          "internalType": "address",
          "name": "from",
          "type": "address"
        },
        {
          "indexed": true,
          "internalType": "address",
          "name": "to",
          "type": "address"
        },
        {
          "indexed": false,
          "internalType": "uint256[]",
          "name": "ids",
          "type": "uint256[]"
        },
        {
          "indexed": false,
          "internalType": "uint256[]",
          "name": "values",
          "type": "uint256[]"
        }
      ],
      "name": "TransferBatch",
      "type": "event"
    },
    {
      "anonymous": false,
      "inputs": [
        {
          "indexed": true,
          "internalType": "address",
          "name": "operator",
          "type": "address"
        },
        {
          "indexed": true,
          "internalType": "address",
          "name": "from",
          "type": "address"
        },
        {
          "indexed": true,
          "internalType": "address",
          "name": "to",
          "type": "address"
        },
        {
          "indexed": false,
          "internalType": "uint256",
          "name": "id",
          "type": "uint256"
        },
        {
          "indexed": false,
          "internalType": "uint256",
          "name": "value",
          "type": "uint256"
        }
      ],
      "name": "TransferSingle",
      "type": "event"
    },
    {
      "anonymous": false,
      "inputs": [
        {
          "indexed": false,
          "internalType": "uint256",
          "name": "oldBps",
          "type": "uint256"
        },
        {
          "indexed": false,
          "internalType": "uint256",
          "name": "newBps",
          "type": "uint256"
        }
      ],
      "name": "TreasuryBpsUpdated",
      "type": "event"
    },
    {
      "anonymous": false,
      "inputs": [
        {
          "indexed": false,
          "internalType": "string",
          "name": "value",
          "type": "string"
        },
        {
          "indexed": true,
          "internalType": "uint256",
          "name": "id",
          "type": "uint256"
        }
      ],
      "name": "URI",
      "type": "event"
    },
    {
      "inputs": [],
      "name": "BLOCKS_PER_MULTIPLIER",
      "outputs": [
        {
          "internalType": "uint256",
          "name": "",
          "type": "uint256"
        }
      ],
      "stateMutability": "view",
      "type": "function"
    },
    {
      "inputs": [],
      "name": "BURN_BPS",
      "outputs": [
        {
          "internalType": "uint256",
          "name": "",
          "type": "uint256"
        }
      ],
      "stateMutability": "view",
      "type": "function"
    },
    {
      "inputs": [],
      "name": "GLOBAL_CAP_BPS",
      "outputs": [
        {
          "internalType": "uint256",
          "name": "",
          "type": "uint256"
        }
      ],
      "stateMutability": "view",
      "type": "function"
    },
    {
      "inputs": [],
      "name": "MAX_MULTIPLIER",
      "outputs": [
        {
          "internalType": "uint256",
          "name": "",
          "type": "uint256"
        }
      ],
      "stateMutability": "view",
      "type": "function"
    },
    {
      "inputs": [],
      "name": "MOVE_COST",
      "outputs": [
        {
          "internalType": "uint256",
          "name": "",
          "type": "uint256"
        }
      ],
      "stateMutability": "view",
      "type": "function"
    },
    {
      "inputs": [],
      "name": "SPAWN_COST_PER_POWER",
      "outputs": [
        {
          "internalType": "uint256",
          "name": "",
          "type": "uint256"
        }
      ],
      "stateMutability": "view",
      "type": "function"
    },
    {
      "inputs": [],
      "name": "THERMAL_PARITY",
      "outputs": [
        {
          "internalType": "uint256",
          "name": "",
          "type": "uint256"
        }
      ],
      "stateMutability": "view",
      "type": "function"
    },
    {
      "inputs": [
        {
          "internalType": "uint256",
          "name": "amt",
          "type": "uint256"
        }
      ],
      "name": "adminWithdraw",
      "outputs": [],
      "stateMutability": "nonpayable",
      "type": "function"
    },
    {
      "inputs": [
        {
          "internalType": "address",
          "name": "",
          "type": "address"
        },
        {
          "internalType": "uint256",
          "name": "",
          "type": "uint256"
        }
      ],
      "name": "agentStacks",
      "outputs": [
        {
          "internalType": "uint256",
          "name": "birthBlock",
          "type": "uint256"
        }
      ],
      "stateMutability": "view",
      "type": "function"
    },
    {
      "inputs": [
        {
          "internalType": "address",
          "name": "",
          "type": "address"
        }
      ],
      "name": "agentTotalProfit",
      "outputs": [
        {
          "internalType": "uint256",
          "name": "",
          "type": "uint256"
        }
      ],
      "stateMutability": "view",
      "type": "function"
    },
    {
      "inputs": [
        {
          "internalType": "address",
          "name": "account",
          "type": "address"
        },
        {
          "internalType": "uint256",
          "name": "id",
          "type": "uint256"
        }
      ],
      "name": "balanceOf",
      "outputs": [
        {
          "internalType": "uint256",
          "name": "",
          "type": "uint256"
        }
      ],
      "stateMutability": "view",
      "type": "function"
    },
    {
      "inputs": [
        {
          "internalType": "address[]",
          "name": "accounts",
          "type": "address[]"
        },
        {
          "internalType": "uint256[]",
          "name": "ids",
          "type": "uint256[]"
        }
      ],
      "name": "balanceOfBatch",
      "outputs": [
        {
          "internalType": "uint256[]",
          "name": "",
          "type": "uint256[]"
        }
      ],
      "stateMutability": "view",
      "type": "function"
    },
    {
      "inputs": [
        {
          "internalType": "address",
          "name": "agent",
          "type": "address"
        },
        {
          "internalType": "uint256",
          "name": "id",
          "type": "uint256"
        }
      ],
      "name": "getBirthBlock",
      "outputs": [
        {
          "internalType": "uint256",
          "name": "",
          "type": "uint256"
        }
      ],
      "stateMutability": "view",
      "type": "function"
    },
    {
      "inputs": [
        {
          "internalType": "uint16",
          "name": "stackId",
          "type": "uint16"
        }
      ],
      "name": "getFullStack",
      "outputs": [
        {
          "components": [
            {
              "internalType": "address",
              "name": "occupant",
              "type": "address"
            },
            {
              "internalType": "uint256",
              "name": "units",
              "type": "uint256"
            },
            {
              "internalType": "uint256",
              "name": "reapers",
              "type": "uint256"
            },
            {
              "internalType": "uint256",
              "name": "age",
              "type": "uint256"
            },
            {
              "internalType": "uint256",
              "name": "pendingBounty",
              "type": "uint256"
            }
          ],
          "internalType": "struct KILLGame.StackInfo[]",
          "name": "",
          "type": "tuple[]"
        }
      ],
      "stateMutability": "view",
      "type": "function"
    },
    {
      "inputs": [
        {
          "internalType": "address",
          "name": "agent",
          "type": "address"
        },
        {
          "internalType": "uint256",
          "name": "id",
          "type": "uint256"
        }
      ],
      "name": "getPendingBounty",
      "outputs": [
        {
          "internalType": "uint256",
          "name": "",
          "type": "uint256"
        }
      ],
      "stateMutability": "view",
      "type": "function"
    },
    {
      "inputs": [
        {
          "internalType": "address",
          "name": "account",
          "type": "address"
        },
        {
          "internalType": "address",
          "name": "operator",
          "type": "address"
        }
      ],
      "name": "isApprovedForAll",
      "outputs": [
        {
          "internalType": "bool",
          "name": "",
          "type": "bool"
        }
      ],
      "stateMutability": "view",
      "type": "function"
    },
    {
      "inputs": [
        {
          "internalType": "address",
          "name": "target",
          "type": "address"
        },
        {
          "internalType": "uint16",
          "name": "stackId",
          "type": "uint16"
        },
        {
          "internalType": "uint256",
          "name": "sentUnits",
          "type": "uint256"
        },
        {
          "internalType": "uint256",
          "name": "sentReaper",
          "type": "uint256"
        }
      ],
      "name": "kill",
      "outputs": [
        {
          "internalType": "uint256",
          "name": "attackerBounty",
          "type": "uint256"
        }
      ],
      "stateMutability": "nonpayable",
      "type": "function"
    },
    {
      "inputs": [],
      "name": "killToken",
      "outputs": [
        {
          "internalType": "contract IERC20",
          "name": "",
          "type": "address"
        }
      ],
      "stateMutability": "view",
      "type": "function"
    },
    {
      "inputs": [
        {
          "internalType": "uint16",
          "name": "fromStack",
          "type": "uint16"
        },
        {
          "internalType": "uint16",
          "name": "toStack",
          "type": "uint16"
        },
        {
          "internalType": "uint256",
          "name": "units",
          "type": "uint256"
        },
        {
          "internalType": "uint256",
          "name": "reaper",
          "type": "uint256"
        }
      ],
      "name": "move",
      "outputs": [],
      "stateMutability": "nonpayable",
      "type": "function"
    },
    {
      "inputs": [
        {
          "internalType": "bytes[]",
          "name": "data",
          "type": "bytes[]"
        }
      ],
      "name": "multicall",
      "outputs": [
        {
          "internalType": "bytes[]",
          "name": "results",
          "type": "bytes[]"
        }
      ],
      "stateMutability": "nonpayable",
      "type": "function"
    },
    {
      "inputs": [],
      "name": "owner",
      "outputs": [
        {
          "internalType": "address",
          "name": "",
          "type": "address"
        }
      ],
      "stateMutability": "view",
      "type": "function"
    },
    {
      "inputs": [],
      "name": "renounceOwnership",
      "outputs": [],
      "stateMutability": "nonpayable",
      "type": "function"
    },
    {
      "inputs": [
        {
          "internalType": "address",
          "name": "from",
          "type": "address"
        },
        {
          "internalType": "address",
          "name": "to",
          "type": "address"
        },
        {
          "internalType": "uint256[]",
          "name": "ids",
          "type": "uint256[]"
        },
        {
          "internalType": "uint256[]",
          "name": "values",
          "type": "uint256[]"
        },
        {
          "internalType": "bytes",
          "name": "data",
          "type": "bytes"
        }
      ],
      "name": "safeBatchTransferFrom",
      "outputs": [],
      "stateMutability": "nonpayable",
      "type": "function"
    },
    {
      "inputs": [
        {
          "internalType": "address",
          "name": "from",
          "type": "address"
        },
        {
          "internalType": "address",
          "name": "to",
          "type": "address"
        },
        {
          "internalType": "uint256",
          "name": "id",
          "type": "uint256"
        },
        {
          "internalType": "uint256",
          "name": "value",
          "type": "uint256"
        },
        {
          "internalType": "bytes",
          "name": "data",
          "type": "bytes"
        }
      ],
      "name": "safeTransferFrom",
      "outputs": [],
      "stateMutability": "nonpayable",
      "type": "function"
    },
    {
      "inputs": [
        {
          "internalType": "address",
          "name": "operator",
          "type": "address"
        },
        {
          "internalType": "bool",
          "name": "approved",
          "type": "bool"
        }
      ],
      "name": "setApprovalForAll",
      "outputs": [],
      "stateMutability": "nonpayable",
      "type": "function"
    },
    {
      "inputs": [
        {
          "internalType": "uint256",
          "name": "_newBps",
          "type": "uint256"
        }
      ],
      "name": "setTreasuryBps",
      "outputs": [],
      "stateMutability": "nonpayable",
      "type": "function"
    },
    {
      "inputs": [
        {
          "internalType": "uint16",
          "name": "stackId",
          "type": "uint16"
        },
        {
          "internalType": "uint256",
          "name": "amount",
          "type": "uint256"
        }
      ],
      "name": "spawn",
      "outputs": [],
      "stateMutability": "nonpayable",
      "type": "function"
    },
    {
      "inputs": [
        {
          "internalType": "uint256",
          "name": "",
          "type": "uint256"
        }
      ],
      "name": "stackHeads",
      "outputs": [
        {
          "internalType": "address",
          "name": "",
          "type": "address"
        }
      ],
      "stateMutability": "view",
      "type": "function"
    },
    {
      "inputs": [
        {
          "internalType": "uint256",
          "name": "",
          "type": "uint256"
        },
        {
          "internalType": "address",
          "name": "",
          "type": "address"
        }
      ],
      "name": "stackNodes",
      "outputs": [
        {
          "internalType": "address",
          "name": "prev",
          "type": "address"
        },
        {
          "internalType": "address",
          "name": "next",
          "type": "address"
        },
        {
          "internalType": "bool",
          "name": "exists",
          "type": "bool"
        }
      ],
      "stateMutability": "view",
      "type": "function"
    },
    {
      "inputs": [
        {
          "internalType": "bytes4",
          "name": "id",
          "type": "bytes4"
        }
      ],
      "name": "supportsInterface",
      "outputs": [
        {
          "internalType": "bool",
          "name": "",
          "type": "bool"
        }
      ],
      "stateMutability": "view",
      "type": "function"
    },
    {
      "inputs": [],
      "name": "totalKillAdded",
      "outputs": [
        {
          "internalType": "uint256",
          "name": "",
          "type": "uint256"
        }
      ],
      "stateMutability": "view",
      "type": "function"
    },
    {
      "inputs": [],
      "name": "totalKillBurned",
      "outputs": [
        {
          "internalType": "uint256",
          "name": "",
          "type": "uint256"
        }
      ],
      "stateMutability": "view",
      "type": "function"
    },
    {
      "inputs": [],
      "name": "totalKillExtracted",
      "outputs": [
        {
          "internalType": "uint256",
          "name": "",
          "type": "uint256"
        }
      ],
      "stateMutability": "view",
      "type": "function"
    },
    {
      "inputs": [],
      "name": "totalReaperKilled",
      "outputs": [
        {
          "internalType": "uint256",
          "name": "",
          "type": "uint256"
        }
      ],
      "stateMutability": "view",
      "type": "function"
    },
    {
      "inputs": [],
      "name": "totalUnitsKilled",
      "outputs": [
        {
          "internalType": "uint256",
          "name": "",
          "type": "uint256"
        }
      ],
      "stateMutability": "view",
      "type": "function"
    },
    {
      "inputs": [
        {
          "internalType": "address",
          "name": "newOwner",
          "type": "address"
        }
      ],
      "name": "transferOwnership",
      "outputs": [],
      "stateMutability": "nonpayable",
      "type": "function"
    },
    {
      "inputs": [],
      "name": "treasuryBps",
      "outputs": [
        {
          "internalType": "uint256",
          "name": "",
          "type": "uint256"
        }
      ],
      "stateMutability": "view",
      "type": "function"
    },
    {
      "inputs": [
        {
          "internalType": "uint256",
          "name": "",
          "type": "uint256"
        }
      ],
      "name": "uri",
      "outputs": [
        {
          "internalType": "string",
          "name": "",
          "type": "string"
        }
      ],
      "stateMutability": "view",
      "type": "function"
    }
  ],
  "bytecode": "0x60a0346200022d576001600160401b0390601f6200389438819003918201601f1916830191848311848410176200021757808492604094855283396020938491810103126200022d57516001600160a01b039384821693918490036200022d57825190606082019081118282101762000217578352602a81527f68747470733a2f2f6170692e6b696c6c67616d652e61692f6d65746164617461828201526917bdb4b23e973539b7b760b11b8382015260025491600192600181811c911680156200020c575b82821014620001f657601f8111620001c1575b50600260009081528181209382905b818310620001a95750505001516001600160b01b0319169055605560025560016003553315620001925760048054336001600160a01b0319821681179092559151939091167f8be0079c531659141344cd1fd0a4f28419497f9722a3daafe3b4186f6b6457e0600080a3600060055560805261366190816200023382396080518181816104740152818161073001528181610cc70152818161139f01528181611fb7015261303f0152f35b51631e4fbdf760e01b815260006004820152602490fd5b848401518655948501949281019291810191620000e7565b6002600052836002601f84600020930160051c830192015b828110620001e9575050620000d8565b60008155018490620001d9565b634e487b7160e01b600052602260045260246000fd5b90607f1690620000c5565b634e487b7160e01b600052604160045260246000fd5b600080fdfe6080604052600436101561001257600080fd5b60003560e01c8062fdd58e1461026757806301ffc9a71461026257806309f618261461025d5780630e89341c146102585780632bd7cd17146102535780632eb2c2d61461024e5780632ee8174e146102495780633e984e48146102445780634dc10ea11461023f5780634e1273f41461023a578063523c686a146101f95780635635fdbc146102355780635d6a618d1461023057806366d8153f1461022b5780636ba3751514610226578063715018a614610221578063781298821461021c57806379a9ed59146102035780637c5b4a371461021757806388b00adc146102125780638da5cb5b1461020d57806391fa2a6a146102085780639445684814610203578063a22cb465146101fe578063a37a9fc0146101f9578063ac9650d8146101f4578063b8011328146101d1578063bb6eb359146101ef578063c4e571c5146101ea578063c68e8075146101e5578063e74fe237146101e0578063e985e9c5146101db578063ea075ee1146101d6578063edbd5df8146101d1578063ef0a1311146101cc578063f242432a146101c7578063f2fde38b146101c25763fe610d40146101bd57600080fd5b611980565b6118e1565b6117b4565b6115ff565b611176565b61155e565b6114fc565b611312565b6112d8565b611264565b6111be565b611110565b610b55565b610fce565b610c64565b610d5a565b610d33565b610d15565b610c87565b610c46565b610be7565b610bca565b610bac565b610b90565b610b72565b610a9a565b610a37565b610a1a565b6109fc565b6108c4565b610710565b610607565b6103ed565b610311565b6102b1565b600435906001600160a01b038216820361028257565b600080fd5b602435906001600160a01b038216820361028257565b35906001600160a01b038216820361028257565b346102825760403660031901126102825760206102f66102cf61026c565b602435600052600083526040600020906001600160a01b0316600052602052604060002090565b54604051908152f35b6001600160e01b031981160361028257565b346102825760203660031901126102825760206001600160e01b0319600435610339816102ff565b167fd9b67a260000000000000000000000000000000000000000000000000000000081149081156103a1575b8115610377575b506040519015158152f35b7f01ffc9a7000000000000000000000000000000000000000000000000000000009150143861036c565b7f0e89341c0000000000000000000000000000000000000000000000000000000081149150610365565b6004359061ffff8216820361028257565b6024359061ffff8216820361028257565b34610282576040366003190112610282576104066103cb565b61ffff60243591610415612191565b1690811515806105a0575b610429906119e2565b61029a810461044861044361043d83611a63565b84611b0f565b611a7f565b6040516323b872dd60e01b815233600482015230602482015260448101829052919060208360648160007f00000000000000000000000000000000000000000000000000000000000000006001600160a01b03165af190811561059b576104dc6104e5927faf4ea7c0f51d4c33144122655ecd0051aa44b546b9daa750ab0d9144f3ed637e9560009161056c575b50611b3d565b60085401600855565b6104f08385336121cc565b80610554575b61052684610517336001600160a01b0316600052600b602052604060002090565b90600052602052604060002090565b54604080519485526020850192909252908301523391606090a361054861225b565b6105526001600355565b005b6105678161056186611af3565b336121cc565b6104f6565b61058e915060203d602011610594575b61058681836107a7565b810190611b1c565b386104d6565b503d61057c565b611b31565b5060d8821115610420565b60005b8381106105be5750506000910152565b81810151838201526020016105ae565b906020916105e7815180928185528580860191016105ab565b601f01601f1916010190565b9060206106049281815201906105ce565b90565b346102825760208060031936011261028257604051906000906002546001918160011c9260018316928315610706575b6020851084146106f25784875260208701939081156106d35750600114610679575b61067586610669818803826107a7565b604051918291826105f3565b0390f35b6002600090815294509192917f405787fa12a823e0f2b7631cc41b3ba8828b3321ca811111fa75cd3aa3bb5ace5b8386106106c257505050910190506106698261067538610659565b8054858701529482019481016106a7565b60ff1916845250505090151560051b0190506106698261067538610659565b602486634e487b7160e01b81526022600452fd5b93607f1693610637565b346102825760003660031901126102825760206040516001600160a01b037f0000000000000000000000000000000000000000000000000000000000000000168152f35b634e487b7160e01b600052604160045260246000fd5b6060810190811067ffffffffffffffff82111761078657604052565b610754565b6020810190811067ffffffffffffffff82111761078657604052565b90601f8019910116810190811067ffffffffffffffff82111761078657604052565b6040519060a0820182811067ffffffffffffffff82111761078657604052565b67ffffffffffffffff81116107865760051b60200190565b9080601f8301121561028257602090823561081b816107e9565b9361082960405195866107a7565b81855260208086019260051b82010192831161028257602001905b828210610852575050505090565b81358152908301908301610844565b67ffffffffffffffff811161078657601f01601f191660200190565b81601f820112156102825780359061089482610861565b926108a260405194856107a7565b8284526020838301011161028257816000926020809301838601378301015290565b346102825760a0366003190112610282576108dd61026c565b6108e5610287565b906044359167ffffffffffffffff908184116102825761090a60049436908601610801565b90606435838111610282576109229036908701610801565b926084359081116102825761093a903690870161087d565b936001600160a01b038082169033821415806109c7575b61099a57831615610982571561096b576105529550612d5a565b602486600060405191626a0d4560e21b8352820152fd5b602487600060405191632bfa23e760e11b8352820152fd5b6040805163711bec9160e11b815233818b019081526001600160a01b038616602082015290918291010390fd5b5081600052600160205260ff6109f4336040600020906001600160a01b0316600052602052604060002090565b541615610951565b34610282576000366003190112610282576020600754604051908152f35b346102825760003660031901126102825760206040516109c48152f35b34610282576000366003190112610282576020600554604051908152f35b90815180825260208080930193019160005b828110610a75575050505090565b835185529381019392810192600101610a67565b906020610604928181520190610a55565b346102825760403660031901126102825760043567ffffffffffffffff8082116102825736602383011215610282578160040135610ad7816107e9565b92610ae560405194856107a7565b8184526020916024602086019160051b8301019136831161028257602401905b828210610b3e57856024358681116102825761067591610b2c610b32923690600401610801565b90611bdf565b60405191829182610a89565b838091610b4a8461029d565b815201910190610b05565b3461028257600036600319011261028257602060405161029a8152f35b34610282576000366003190112610282576020600954604051908152f35b3461028257600036600319011261028257602060405160148152f35b34610282576000366003190112610282576020600854604051908152f35b346102825760003660031901126102825760206040516104388152f35b3461028257600080600319360112610c4357610c016122ac565b806001600160a01b036004546001600160a01b03198116600455167f8be0079c531659141344cd1fd0a4f28419497f9722a3daafe3b4186f6b6457e08280a380f35b80fd5b34610282576000366003190112610282576020600654604051908152f35b34610282576000366003190112610282576020604051678ac7230489e800008152f35b3461028257602036600319011261028257610ca06122ac565b60405163a9059cbb60e01b81523360048083019190915235602482015260208160448160007f00000000000000000000000000000000000000000000000000000000000000006001600160a01b03165af1801561059b57610cfd57005b6105529060203d6020116105945761058681836107a7565b34610282576000366003190112610282576020600a54604051908152f35b346102825760003660031901126102825760206001600160a01b0360045416604051908152f35b3461028257608036600319011261028257610675610d7661026c565b610d7e6103dc565b60443590610ebe7f2c0ba6eda9140ba04ab07a25239250d2664c08a013d3ec03f3ec6f014f21a539610f9461ffff60643594610db8612191565b1694610f1986610dc781611af3565b610e27610dfa33610de2856000526000602052604060002090565b906001600160a01b0316600052602052604060002090565b548986610e1533610de2876000526000602052604060002090565b549210159182610fb9575b5050611c9d565b81610eeb6001600160a01b038c1699610e428b331415611ce8565b8c610e4b611d33565b9a8b92898452806020850152610e6f83610de2886000526000602052604060002090565b54610e8884610de28a6000526000602052604060002090565b54918160c08701528260e0870152610eb788610517876001600160a01b0316600052600b602052604060002090565b549b6122f0565b958691825160408501526020830151606085015260408301516080850152606083015160a08501526123ca565b9a610f1384805160408201510160065401600655606060208201519101510160075401600755565b336124ef565b6040519182913395836101409093929193610160810194805182526020810151602083015260408101516040830152606081015160608301526080810151608083015260a081015160a083015260c081015160c083015260e081015160e0830152610100808201519083015261012080910151908201520152565b0390a4610f9f61225b565b610fa96001600355565b6040519081529081906020820190565b101590508938610e20565b8015150361028257565b3461028257604036600319011261028257610fe761026c565b602435610ff381610fc4565b6001600160a01b03821691821561107b5761102e903360005260016020526040600020906001600160a01b0316600052602052604060002090565b60ff1981541660ff831515161790557f17307eab39ab6107e8899845ad3d59bd9653f200f220920489ca2b5937696c3160405180611076339482919091602081019215159052565b0390a3005b60246040517fced3e10000000000000000000000000000000000000000000000000000000000815260006004820152fd5b6020808201906020835283518092526040830192602060408460051b8301019501936000915b8483106110e25750505050505090565b9091929394958480611100600193603f198682030187528a516105ce565b98019301930191949392906110d2565b346102825760203660031901126102825767ffffffffffffffff6004358181116102825736602382011215610282578060040135918211610282573660248360051b830101116102825761067591602461116a9201611e3d565b604051918291826110ac565b34610282576040366003190112610282576001600160a01b0361119761026c565b16600052600b60205260406000206024356000526020526020604060002054604051908152f35b34610282576020366003190112610282576004356111da6122ac565b61271081116112205760058054908290556040805191825260208201929092527f6993bc581306fd40069a7f8d78fd994e52ce66bdacf741f949a3e4bdcf28ca809190a1005b606460405162461bcd60e51b815260206004820152600860248201527f4d617820313030250000000000000000000000000000000000000000000000006044820152fd5b346102825760403660031901126102825760606112aa611282610287565b600435600052600c6020526040600020906001600160a01b0316600052602052604060002090565b60ff6001600160a01b03600181845416930154906040519384528116602084015260a01c1615156040820152f35b34610282576020366003190112610282576001600160a01b036112f961026c565b16600052600e6020526020604060002054604051908152f35b346102825760803660031901126102825761132b6103cb565b6113336103dc565b60443560643591611342612191565b61ffff80851693841515806114f1575b806114e6575b806114d9575b806114c4575b61136d90611edf565b6040516323b872dd60e01b8152336004820152306024820152678ac7230489e8000060448201529160208360648160007f00000000000000000000000000000000000000000000000000000000000000006001600160a01b03165af190811561059b577f377dc7145bd8ab426842504b448652c41dda00abb7f7c1df6bdfa40bd2a16f2c9661140a61144e936114839660009161056c5750611b3d565b61141f678ac7230489e8000060085401600855565b866114b2575b838061148e575b5050336000908152600b60205260409020908516600052602052604060002090565b549060405194859433988691959493909260809360a084019761ffff8092168552166020840152604083015260608201520152565b0390a261054861225b565b61149a6114ab92611af3565b6114a5848916611af3565b90612823565b388361142c565b6114bf8783881683612823565b611425565b5061136d6114d2848861276f565b9050611364565b5060d8828416111561135e565b508183161515611358565b5060d8851115611352565b3461028257604036600319011261028257602060ff61155261151c61026c565b6001600160a01b0361152c610287565b9116600052600184526040600020906001600160a01b0316600052602052604060002090565b54166040519015158152f35b3461028257604036600319011261028257602061158561157c61026c565b60243590611f39565b604051908152f35b60208082019080835283518092528060408094019401926000905b8382106115b757505050505090565b845180516001600160a01b0316875280840151878501528082015187830152606080820151908801526080908101519087015260a090950194938201936001909101906115a8565b34610282576020806003193601126102825761ffff61161c6103cb565b1661162681611af3565b60009161164d61164082600052600d602052604060002090565b546001600160a01b031690565b6001600160a01b03811661178857506116658361210b565b9361167d61164083600052600d602052604060002090565b926000935b8585106116975760405180610675898261158d565b61177a600161176c836116c28861051785976001600160a01b0316600052600b602052604060002090565b546116db82610de28b6000526000602052604060002090565b54906116f583610de28a6000526000602052604060002090565b54906000908043116000146117825761170f915043611da0565b6117198b85611f39565b916117226107c9565b6001600160a01b0386168152938b85015260408401526060830152608082015261174c8a8d611bcb565b52611757898c611bcb565b50610de288600052600c602052604060002090565b01546001600160a01b031690565b940193611682565b5061170f565b92600161176c61179a6117af936120fc565b95610de285600052600c602052604060002090565b61164d565b346102825760a0366003190112610282576117cd61026c565b6117d5610287565b60843567ffffffffffffffff8111610282576117f590369060040161087d565b906001600160a01b038084169033821415806118ac575b6118855782161561186d5715611856576105529261184e6064356044359160405192600184526020840152604083019160018352606084015260808301604052565b929091612d5a565b6024604051626a0d4560e21b815260006004820152fd5b6024604051632bfa23e760e11b815260006004820152fd5b60405163711bec9160e11b81523360048201526001600160a01b0386166024820152604490fd5b5081600052600160205260ff6118d9336040600020906001600160a01b0316600052602052604060002090565b54161561180c565b34610282576020366003190112610282576118fa61026c565b6119026122ac565b6001600160a01b0380911690811561194f57600454826001600160a01b0319821617600455167f8be0079c531659141344cd1fd0a4f28419497f9722a3daafe3b4186f6b6457e0600080a3005b60246040517f1e4fbdf700000000000000000000000000000000000000000000000000000000815260006004820152fd5b3461028257602036600319011261028257600435600052600d60205260206001600160a01b0360406000205416604051908152f35b6119de9160005260006020526040600020906001600160a01b0316600052602052604060002090565b5490565b156119e957565b606460405162461bcd60e51b815260206004820152600d60248201527f496e76616c696420537461636b000000000000000000000000000000000000006044820152fd5b634e487b7160e01b600052601160045260246000fd5b8115611a4d570490565b634e487b7160e01b600052601260045260246000fd5b9061029a91828102928184041490151715611a7a57565b611a2d565b90678ac7230489e8000091828102928184041490151715611a7a57565b906109c491828102928184041490151715611a7a57565b90606e820291808304606e1490151715611a7a57565b90611d4c91828102928184041490151715611a7a57565b81810292918115918404141715611a7a57565b9060d88201809211611a7a57565b6001019081600111611a7a57565b91908201809211611a7a57565b90816020910312610282575161060481610fc4565b6040513d6000823e3d90fd5b15611b4457565b606460405162461bcd60e51b815260206004820152600860248201527f506179206661696c0000000000000000000000000000000000000000000000006044820152fd5b60405190611b958261076a565b600282526040366020840137565b634e487b7160e01b600052603260045260246000fd5b805115611bc65760200190565b611ba3565b8051821015611bc65760209160051b010190565b91909180518351808203611c62575050805190611c14611bfe836107e9565b92611c0c60405194856107a7565b8084526107e9565b60209190601f1901368484013760005b8151811015611c5a5780611c4960019260051b85808287010151918a010151906119b5565b611c538287611bcb565b5201611c24565b509193505050565b6040517f5b05999100000000000000000000000000000000000000000000000000000000815260048101919091526024810191909152604490fd5b15611ca457565b606460405162461bcd60e51b815260206004820152600a60248201527f4c61636b20756e697473000000000000000000000000000000000000000000006044820152fd5b15611cef57565b606460405162461bcd60e51b815260206004820152601060248201527f43616e6e6f74206b696c6c2073656c66000000000000000000000000000000006044820152fd5b60405190610140820182811067ffffffffffffffff82111761078657604052816101206000918281528260208201528260408201528260608201528260808201528260a08201528260c08201528260e0820152826101008201520152565b60d719810191908211611a7a57565b91908203918211611a7a57565b60405190611dba8261078b565b60008252565b9190811015611bc65760051b81013590601e198136030182121561028257019081359167ffffffffffffffff8311610282576020018236038113610282579190565b60209081611e3b939594611e2f8760405198899585870137840191838301600081528151948592016105ab565b010380855201836107a7565b565b604051611e498161078b565b60008152611e56836107e9565b92611e6460405194856107a7565b808452601f19611e73826107e9565b0160005b818110611ece57505060005b818110611e91575050505090565b80611eb2611eac85611ea6600195878a611dc0565b90611e02565b30612706565b611ebc8288611bcb565b52611ec78187611bcb565b5001611e83565b806060602080938901015201611e77565b15611ee657565b606460405162461bcd60e51b815260206004820152600860248201527f426164206d6f76650000000000000000000000000000000000000000000000006044820152fd5b90816020910312610282575190565b611f5a82610517836001600160a01b0316600052600b602052604060002090565b549182156120f45760d88111156120ee57611f7490611d91565b905b611f7f82611af3565b6040517f70a08231000000000000000000000000000000000000000000000000000000008152306004820152939091906020856024817f00000000000000000000000000000000000000000000000000000000000000006001600160a01b03165afa94851561059b576000956120ab575b509261207a92612074926120829580431160001461209d5761043861201861201e9243611da0565b04611b01565b9260148411612094575b9161206961206383610de261205161044396610de261206f996000526000602052604060002090565b54946000526000602052604060002090565b54611a63565b90611b0f565b611ae0565b92611a9c565b612710900490565b908181111561208f575090565b905090565b60149350612028565b5061201e6104386000612018565b6120829491955092612074926120db61207a9560203d6020116120e7575b6120d381836107a7565b810190611f2a565b96929550925092611ff0565b503d6120c9565b90611f76565b505050600090565b6000198114611a7a5760010190565b90612115826107e9565b604061212460405192836107a7565b8382528193612135601f19916107e9565b019060005b8281106121475750505050565b81519060a082019180831067ffffffffffffffff8411176107865760209284526000815282600081830152600085830152600060608301526000608083015282870101520161213a565b6002600354146121a2576002600355565b60046040517f3ee5aeb5000000000000000000000000000000000000000000000000000000008152fd5b906121e96040516121dc8161078b565b600094858252838561292c565b60d88111156122565760d7198101908111611a7a575b6001600160a01b03821692838152600b6020526040812082825260205260408120541561222d575b50505050565b61224d938152600b60205260408120828252602052604043912055612a75565b38808080612227565b6121ff565b7f6b8aeaa3365d2dfcb9acc94f0a7429b657b4f2008cfafb9b10297011e077c65060a060065460075460085460095490600a54926040519485526020850152604084015260608301526080820152a1565b6001600160a01b036004541633036122c057565b60246040517f118cdaa7000000000000000000000000000000000000000000000000000000008152336004820152fd5b9291604051936080850185811067ffffffffffffffff821117610786576040526000855260208501906000825260408601916000835260608701946000865261233b61043d82611a63565b9161236061235961235461234e8b611a63565b89611b0f565b611ab3565b6064900490565b9384156123c1575b898585111561237c57505050505050525290565b61239f6123bc999a956123b098956123b5956123a89b956123b095525280611ae0565b97868997611ae0565b978892611ae0565b611a43565b9052611ae0565b905290565b60019450612368565b9093926000946123f86123e860408601516120696060880151611a63565b9461206960208251920151611a63565b6124028186611b0f565b9182156124e35761207a6124196124299287611f39565b8461029a81106124c95750611ac9565b9485612438575b505050505050565b859750916123b061248492612458836123b06124a8976101209a9b611ae0565b996124638b33612f99565b336000908152600e6020526040902061247d8c8254611b0f565b9055611ae0565b9361248f8582612f99565b6001600160a01b0316600052600e602052604060002090565b6124b3848254611b0f565b9055846101008201520152388080808080612430565b6124d6906124de92611ae0565b61029a900490565b611ac9565b50600096505050505050565b929193604081018051158015906126c9575b612656575b50805115801590612649575b6125c5575b5061253081610de2866000526000602052604060002090565b5415806125a5575b612595575b508161255781610de2866000526000602052604060002090565b54159182612573575b505061256a575050565b611e3b916130c1565b61258c9250610de2906000526000602052604060002090565b54158138612560565b61259f90846130c1565b3861253d565b506125be81610de2846000526000602052604060002090565b5415612538565b6125fa906125d1611b88565b6125d9611b88565b916000908051612628575b6020018051612600575b50808252825285613098565b38612517565b9061262291876126108386611bcb565b525161261c8286611bcb565b526120fc565b386125ee565b90508761263483611bb9565b52805161264084611bb9565b526001906125e4565b5060208101511515612512565b61268d90612662611b88565b61266a611b88565b9160009080516126a9575b50606085018051612693575b50808252825284613098565b38612506565b906126a391886126108386611bcb565b38612681565b9050886126b583611bb9565b52516126c083611bb9565b52600138612675565b5060608201511515612501565b3d15612701573d906126e782610861565b916126f560405193846107a7565b82523d6000602084013e565b606090565b60008061060493602081519101845af461271e6126d6565b9161322c565b61ffff9081166000190191908211611a7a57565b600191820b910b0390617fff198212617fff831317611a7a57565b9060010b9060010b0190617fff198212617fff831317611a7a57565b61280061280061278a61278461280794612724565b94612724565b61ffff8095166127e66006916001978084830616890b93818060248184818189041606168d0b9504168b0b96169160248180848606168d0b93818187041606168c0b9304168a0b9481811360001461281457906127e691612738565b915b8181131561280b57906127fa91612738565b90612753565b61ffff1690565b1490565b6127fa91612738565b61281d91612738565b916127e8565b919060d88311156129215760d719830190838211611a7a5761286e91925b60d88211156129165761285f8161285784611d91565b965b336132bf565b612867611dad565b913361292c565b61288633610de2836000526000602052604060002090565b5415806128fd575b6128ec575b506128b581610517336001600160a01b0316600052600b602052604060002090565b54156128be5750565b611e3b90436128e482610517336001600160a01b0316600052600b602052604060002090565b553390612a75565b6128f79033906130c1565b38612893565b5061291061290a82611af3565b336119b5565b1561288e565b61285f818396612859565b61286e908392612841565b909291926001600160a01b03821693841561186d5761296860405192600184526020840152604083019160018352606084015260808301604052565b928151845190818103611c6257505060005b82518110156129c2578060019160051b6129ba6129b287610de2602080868b010151958c010151946000526000602052604060002090565b918254611b0f565b90550161297a565b509291936001825114600014612a395760208281015184820151604080519283529282015260009133917fc3d58168c5ae7397731d063d5bbf3d657854427343f4c083240f7aacaa2d0f629190a45b8051600103612a2f5790602080611e3b9593015191015191336135bf565b611e3b93336133c2565b60006040517f4a39dc06d4c0dbc64b70af90fd698a233a518aa5d07e595d983b8c0526c8f7fb339180612a6d888883613309565b0390a4612a11565b9081600052600c60205260ff6001612aa4836040600020906001600160a01b0316600052602052604060002090565b015460a01c16612bf057612bb3611e3b926001600160a01b0380612ad283600052600d602052604060002090565b541690604051612ae18161076a565b60008152612b55602082019284845260016040840193818552612b3583612b168c610de28c600052600c602052604060002090565b92511682906001600160a01b03166001600160a01b0319825416179055565b0193511683906001600160a01b03166001600160a01b0319825416179055565b5181547fffffffffffffffffffffff00ffffffffffffffffffffffffffffffffffffffff1690151560a01b74ff0000000000000000000000000000000000000000161790558381612bce575b5050600052600d602052604060002090565b906001600160a01b03166001600160a01b0319825416179055565b612bb3612be992610de285600052600c602052604060002090565b3883612ba1565b5050565b9291908051825190818103611c6257505060005b8151811015612cb9578060051b602080828501015191850101516001600160a01b038716612c3b575b5050600101612c08565b612c5387610de2846000526000602052604060002090565b54818110612c825787610de26001959493612c7a9303936000526000602052604060002090565b559038612c31565b6040516303dee4c560e01b81526001600160a01b038916600482015260248101919091526044810182905260648101839052608490fd5b5090600092939160018151148414612d1b576020908101519181015160408051938452918301526001600160a01b03929092169133917fc3d58168c5ae7397731d063d5bbf3d657854427343f4c083240f7aacaa2d0f6291819081015b0390a4565b90916001600160a01b037f4a39dc06d4c0dbc64b70af90fd698a233a518aa5d07e595d983b8c0526c8f7fb91612d166040519283921695339583613309565b949190918151845190818103611c6257505060005b8251811015612e5a578060051b9060208083860101519287010151856001600160a01b0393848b16612dd4575b6001948216612daf575b50505001612d6f565b612dca91610de26129b2926000526000602052604060002090565b9055388581612da6565b9192939050612df18a610de2846000526000602052604060002090565b54838110612e235791879184600196959403612e1b8d610de2856000526000602052604060002090565b559450612d9c565b6040516303dee4c560e01b81526001600160a01b038c16600482015260248101919091526044810184905260648101839052608490fd5b509491939290936001855114600014612f05576020858101518382015160408051928352928201526001600160a01b03838116929086169133917fc3d58168c5ae7397731d063d5bbf3d657854427343f4c083240f7aacaa2d0f6291a45b6001600160a01b038116612ece575b5050505050565b8451600103612ef457602080612eea96015192015192336135f4565b3880808080612ec7565b612f00949192336134bd565b612eea565b6001600160a01b03604051818316918516907f4a39dc06d4c0dbc64b70af90fd698a233a518aa5d07e595d983b8c0526c8f7fb339180612f46888c83613309565b0390a4612eb8565b15612f5557565b606460405162461bcd60e51b815260206004820152600b60248201527f5061796f7574206661696c0000000000000000000000000000000000000000006044820152fd5b81612fa2575050565b61303191602091613000612ffb612fde612fc161207a60055487611ae0565b94612fd9612fd161207a83611a63565b968792611da0565b611da0565b93612ff3612fee86600954611b0f565b600955565b600a54611b0f565b600a55565b604051938492839263a9059cbb60e01b845260048401602090939291936001600160a01b0360408201951681520152565b038160006001600160a01b037f0000000000000000000000000000000000000000000000000000000000000000165af1801561059b57611e3b91600091613079575b50612f4e565b613092915060203d6020116105945761058681836107a7565b38613073565b91906001600160a01b0383161561185657611e3b9260006040516130bb8161078b565b52612bf4565b906130da81610de284600052600c602052604060002090565b916001830180549260ff8460a01c1615612ec7576000946131d89461318e610517946001600160a01b0392838061311887546001600160a01b031690565b1615158b1461320e57505061164061313782546001600160a01b031690565b60016131726131508b600052600c602052604060002090565b88546001600160a01b03166001600160a01b0316600052602052604060002090565b01906001600160a01b03166001600160a01b0319825416179055565b9081166131db575b50506131bf6131b382610de286600052600c602052604060002090565b60016000918281550155565b6001600160a01b0316600052600b602052604060002090565b55565b612bb36131f261320793546001600160a01b031690565b91610de287600052600c602052604060002090565b3880613196565b6132279116612bb389600052600d602052604060002090565b611640565b9061326b575080511561324157602081519101fd5b60046040517fd6bda275000000000000000000000000000000000000000000000000000000008152fd5b815115806132b6575b61327c575090565b6024906001600160a01b03604051917f9996b315000000000000000000000000000000000000000000000000000000008352166004820152fd5b50803b15613274565b906001600160a01b0382161561185657611e3b926132fa60405192600184526020840152604083019160018352606084015260808301604052565b9160006040516130bb8161078b565b909161332061060493604084526040840190610a55565b916020818403910152610a55565b908160209103126102825751610604816102ff565b9261337361060495936001600160a01b03613381941686526000602087015260a0604087015260a0860190610a55565b908482036060860152610a55565b9160808184039101526105ce565b9390610604959361337391613381946001600160a01b03809216885216602087015260a0604087015260a0860190610a55565b9293919093843b6133d4575050505050565b6020916133f7604051948593849363bc197c8160e01b9889865260048601613343565b038160006001600160a01b0388165af16000918161348c575b5061344f578261341e6126d6565b805191908261344857604051632bfa23e760e11b81526001600160a01b0383166004820152602490fd5b6020915001fd5b6001600160e01b0319160361346957503880808080612ec7565b604051632bfa23e760e11b81526001600160a01b03919091166004820152602490fd5b6134af91925060203d6020116134b6575b6134a781836107a7565b81019061332e565b9038613410565b503d61349d565b939290949194853b6134d157505050505050565b6134f4602093604051958694859463bc197c8160e01b998a87526004870161338f565b038160006001600160a01b0388165af160009181613536575b5061351b578261341e6126d6565b6001600160e01b031916036134695750388080808080612430565b61355091925060203d6020116134b6576134a781836107a7565b903861350d565b909260a0926001600160a01b036106049695168352600060208401526040830152606082015281608082015201906105ce565b919261060495949160a0946001600160a01b0380921685521660208401526040830152606082015281608082015201906105ce565b9293919093843b6135d1575050505050565b6020916133f7604051948593849363f23a6e6160e01b9889865260048601613557565b939290949194853b61360857505050505050565b6134f4602093604051958694859463f23a6e6160e01b998a87526004870161358a56fea2646970667358221220f2b103f3a9a542e9726afd10ef2e70d903dce74f4e8facccc63ff24b9df827ed64736f6c63430008180033",
  "linkReferences": {},
  "deployedLinkReferences": {}
}