{
  "_format": "hh-sol-artifact-1",
  "contractName": "KILLGame",
  "sourceName": "contracts/KillGame.sol",
  "abi": [
    {
      "inputs": [
        {
          "internalType": "address",
          "name": "_tokenAddress",
          "type": "address"
        }
      ],
      "stateMutability": "nonpayable",
      "type": "constructor"
    },
    {
      "inputs": [
        {
          "internalType": "address",
          "name": "sender",
          "type": "address"
        },
        {
          "internalType": "uint256",
          "name": "balance",
          "type": "uint256"
        },
        {
          "internalType": "uint256",
          "name": "needed",
          "type": "uint256"
        },
        {
          "internalType": "uint256",
          "name": "tokenId",
          "type": "uint256"
        }
      ],
      "name": "ERC1155InsufficientBalance",
      "type": "error"
    },
    {
      "inputs": [
        {
          "internalType": "address",
          "name": "approver",
          "type": "address"
        }
      ],
      "name": "ERC1155InvalidApprover",
      "type": "error"
    },
    {
      "inputs": [
        {
          "internalType": "uint256",
          "name": "idsLength",
          "type": "uint256"
        },
        {
          "internalType": "uint256",
          "name": "valuesLength",
          "type": "uint256"
        }
      ],
      "name": "ERC1155InvalidArrayLength",
      "type": "error"
    },
    {
      "inputs": [
        {
          "internalType": "address",
          "name": "operator",
          "type": "address"
        }
      ],
      "name": "ERC1155InvalidOperator",
      "type": "error"
    },
    {
      "inputs": [
        {
          "internalType": "address",
          "name": "receiver",
          "type": "address"
        }
      ],
      "name": "ERC1155InvalidReceiver",
      "type": "error"
    },
    {
      "inputs": [
        {
          "internalType": "address",
          "name": "sender",
          "type": "address"
        }
      ],
      "name": "ERC1155InvalidSender",
      "type": "error"
    },
    {
      "inputs": [
        {
          "internalType": "address",
          "name": "operator",
          "type": "address"
        },
        {
          "internalType": "address",
          "name": "owner",
          "type": "address"
        }
      ],
      "name": "ERC1155MissingApprovalForAll",
      "type": "error"
    },
    {
      "inputs": [
        {
          "internalType": "address",
          "name": "owner",
          "type": "address"
        }
      ],
      "name": "OwnableInvalidOwner",
      "type": "error"
    },
    {
      "inputs": [
        {
          "internalType": "address",
          "name": "account",
          "type": "address"
        }
      ],
      "name": "OwnableUnauthorizedAccount",
      "type": "error"
    },
    {
      "inputs": [],
      "name": "ReentrancyGuardReentrantCall",
      "type": "error"
    },
    {
      "anonymous": false,
      "inputs": [
        {
          "indexed": true,
          "internalType": "address",
          "name": "account",
          "type": "address"
        },
        {
          "indexed": true,
          "internalType": "address",
          "name": "operator",
          "type": "address"
        },
        {
          "indexed": false,
          "internalType": "bool",
          "name": "approved",
          "type": "bool"
        }
      ],
      "name": "ApprovalForAll",
      "type": "event"
    },
    {
      "anonymous": false,
      "inputs": [
        {
          "indexed": true,
          "internalType": "address",
          "name": "attacker",
          "type": "address"
        },
        {
          "indexed": true,
          "internalType": "address",
          "name": "target",
          "type": "address"
        },
        {
          "indexed": true,
          "internalType": "uint16",
          "name": "cube",
          "type": "uint16"
        },
        {
          "indexed": false,
          "internalType": "uint256",
          "name": "attackerStdLost",
          "type": "uint256"
        },
        {
          "indexed": false,
          "internalType": "uint256",
          "name": "attackerBstLost",
          "type": "uint256"
        },
        {
          "indexed": false,
          "internalType": "uint256",
          "name": "targetStdLost",
          "type": "uint256"
        },
        {
          "indexed": false,
          "internalType": "uint256",
          "name": "targetBstLost",
          "type": "uint256"
        },
        {
          "indexed": false,
          "internalType": "uint256",
          "name": "netBounty",
          "type": "uint256"
        }
      ],
      "name": "Killed",
      "type": "event"
    },
    {
      "anonymous": false,
      "inputs": [
        {
          "indexed": true,
          "internalType": "address",
          "name": "agent",
          "type": "address"
        },
        {
          "indexed": false,
          "internalType": "uint16",
          "name": "fromCube",
          "type": "uint16"
        },
        {
          "indexed": false,
          "internalType": "uint16",
          "name": "toCube",
          "type": "uint16"
        },
        {
          "indexed": false,
          "internalType": "uint256",
          "name": "standardUnits",
          "type": "uint256"
        },
        {
          "indexed": false,
          "internalType": "uint256",
          "name": "boostedUnits",
          "type": "uint256"
        }
      ],
      "name": "Moved",
      "type": "event"
    },
    {
      "anonymous": false,
      "inputs": [
        {
          "indexed": true,
          "internalType": "address",
          "name": "previousOwner",
          "type": "address"
        },
        {
          "indexed": true,
          "internalType": "address",
          "name": "newOwner",
          "type": "address"
        }
      ],
      "name": "OwnershipTransferred",
      "type": "event"
    },
    {
      "anonymous": false,
      "inputs": [
        {
          "indexed": true,
          "internalType": "address",
          "name": "agent",
          "type": "address"
        },
        {
          "indexed": true,
          "internalType": "uint256",
          "name": "cube",
          "type": "uint256"
        },
        {
          "indexed": false,
          "internalType": "uint256",
          "name": "units",
          "type": "uint256"
        }
      ],
      "name": "Spawned",
      "type": "event"
    },
    {
      "anonymous": false,
      "inputs": [
        {
          "indexed": true,
          "internalType": "address",
          "name": "operator",
          "type": "address"
        },
        {
          "indexed": true,
          "internalType": "address",
          "name": "from",
          "type": "address"
        },
        {
          "indexed": true,
          "internalType": "address",
          "name": "to",
          "type": "address"
        },
        {
          "indexed": false,
          "internalType": "uint256[]",
          "name": "ids",
          "type": "uint256[]"
        },
        {
          "indexed": false,
          "internalType": "uint256[]",
          "name": "values",
          "type": "uint256[]"
        }
      ],
      "name": "TransferBatch",
      "type": "event"
    },
    {
      "anonymous": false,
      "inputs": [
        {
          "indexed": true,
          "internalType": "address",
          "name": "operator",
          "type": "address"
        },
        {
          "indexed": true,
          "internalType": "address",
          "name": "from",
          "type": "address"
        },
        {
          "indexed": true,
          "internalType": "address",
          "name": "to",
          "type": "address"
        },
        {
          "indexed": false,
          "internalType": "uint256",
          "name": "id",
          "type": "uint256"
        },
        {
          "indexed": false,
          "internalType": "uint256",
          "name": "value",
          "type": "uint256"
        }
      ],
      "name": "TransferSingle",
      "type": "event"
    },
    {
      "anonymous": false,
      "inputs": [
        {
          "indexed": false,
          "internalType": "string",
          "name": "value",
          "type": "string"
        },
        {
          "indexed": true,
          "internalType": "uint256",
          "name": "id",
          "type": "uint256"
        }
      ],
      "name": "URI",
      "type": "event"
    },
    {
      "inputs": [],
      "name": "BOOST_REQUIRED",
      "outputs": [
        {
          "internalType": "uint256",
          "name": "",
          "type": "uint256"
        }
      ],
      "stateMutability": "view",
      "type": "function"
    },
    {
      "inputs": [],
      "name": "BURN_BPS",
      "outputs": [
        {
          "internalType": "uint256",
          "name": "",
          "type": "uint256"
        }
      ],
      "stateMutability": "view",
      "type": "function"
    },
    {
      "inputs": [],
      "name": "SPAWN_COST",
      "outputs": [
        {
          "internalType": "uint256",
          "name": "",
          "type": "uint256"
        }
      ],
      "stateMutability": "view",
      "type": "function"
    },
    {
      "inputs": [],
      "name": "TREASURY_BPS",
      "outputs": [
        {
          "internalType": "uint256",
          "name": "",
          "type": "uint256"
        }
      ],
      "stateMutability": "view",
      "type": "function"
    },
    {
      "inputs": [
        {
          "internalType": "uint256",
          "name": "amt",
          "type": "uint256"
        }
      ],
      "name": "adminWithdraw",
      "outputs": [],
      "stateMutability": "nonpayable",
      "type": "function"
    },
    {
      "inputs": [
        {
          "internalType": "address",
          "name": "",
          "type": "address"
        },
        {
          "internalType": "uint256",
          "name": "",
          "type": "uint256"
        }
      ],
      "name": "agentStacks",
      "outputs": [
        {
          "internalType": "uint256",
          "name": "birthBlock",
          "type": "uint256"
        }
      ],
      "stateMutability": "view",
      "type": "function"
    },
    {
      "inputs": [
        {
          "internalType": "address",
          "name": "account",
          "type": "address"
        },
        {
          "internalType": "uint256",
          "name": "id",
          "type": "uint256"
        }
      ],
      "name": "balanceOf",
      "outputs": [
        {
          "internalType": "uint256",
          "name": "",
          "type": "uint256"
        }
      ],
      "stateMutability": "view",
      "type": "function"
    },
    {
      "inputs": [
        {
          "internalType": "address[]",
          "name": "accounts",
          "type": "address[]"
        },
        {
          "internalType": "uint256[]",
          "name": "ids",
          "type": "uint256[]"
        }
      ],
      "name": "balanceOfBatch",
      "outputs": [
        {
          "internalType": "uint256[]",
          "name": "",
          "type": "uint256[]"
        }
      ],
      "stateMutability": "view",
      "type": "function"
    },
    {
      "inputs": [
        {
          "internalType": "address",
          "name": "agent",
          "type": "address"
        },
        {
          "internalType": "uint256",
          "name": "id",
          "type": "uint256"
        }
      ],
      "name": "getPendingBounty",
      "outputs": [
        {
          "internalType": "uint256",
          "name": "",
          "type": "uint256"
        }
      ],
      "stateMutability": "view",
      "type": "function"
    },
    {
      "inputs": [
        {
          "internalType": "uint16",
          "name": "cube",
          "type": "uint16"
        },
        {
          "internalType": "bool",
          "name": "b",
          "type": "bool"
        }
      ],
      "name": "getRipeStacks",
      "outputs": [
        {
          "internalType": "address[]",
          "name": "a",
          "type": "address[]"
        },
        {
          "internalType": "uint256[]",
          "name": "ag",
          "type": "uint256[]"
        }
      ],
      "stateMutability": "view",
      "type": "function"
    },
    {
      "inputs": [
        {
          "internalType": "address",
          "name": "account",
          "type": "address"
        },
        {
          "internalType": "address",
          "name": "operator",
          "type": "address"
        }
      ],
      "name": "isApprovedForAll",
      "outputs": [
        {
          "internalType": "bool",
          "name": "",
          "type": "bool"
        }
      ],
      "stateMutability": "view",
      "type": "function"
    },
    {
      "inputs": [
        {
          "internalType": "address",
          "name": "target",
          "type": "address"
        },
        {
          "internalType": "uint16",
          "name": "cube",
          "type": "uint16"
        },
        {
          "internalType": "uint256",
          "name": "sentStd",
          "type": "uint256"
        },
        {
          "internalType": "uint256",
          "name": "sentBst",
          "type": "uint256"
        }
      ],
      "name": "kill",
      "outputs": [
        {
          "internalType": "uint256",
          "name": "netBounty",
          "type": "uint256"
        }
      ],
      "stateMutability": "nonpayable",
      "type": "function"
    },
    {
      "inputs": [],
      "name": "killToken",
      "outputs": [
        {
          "internalType": "contract IERC20",
          "name": "",
          "type": "address"
        }
      ],
      "stateMutability": "view",
      "type": "function"
    },
    {
      "inputs": [
        {
          "internalType": "uint16",
          "name": "fromCube",
          "type": "uint16"
        },
        {
          "internalType": "uint16",
          "name": "toCube",
          "type": "uint16"
        },
        {
          "internalType": "uint256",
          "name": "stdUnits",
          "type": "uint256"
        },
        {
          "internalType": "uint256",
          "name": "bstUnits",
          "type": "uint256"
        }
      ],
      "name": "move",
      "outputs": [],
      "stateMutability": "nonpayable",
      "type": "function"
    },
    {
      "inputs": [],
      "name": "owner",
      "outputs": [
        {
          "internalType": "address",
          "name": "",
          "type": "address"
        }
      ],
      "stateMutability": "view",
      "type": "function"
    },
    {
      "inputs": [],
      "name": "renounceOwnership",
      "outputs": [],
      "stateMutability": "nonpayable",
      "type": "function"
    },
    {
      "inputs": [
        {
          "internalType": "address",
          "name": "from",
          "type": "address"
        },
        {
          "internalType": "address",
          "name": "to",
          "type": "address"
        },
        {
          "internalType": "uint256[]",
          "name": "ids",
          "type": "uint256[]"
        },
        {
          "internalType": "uint256[]",
          "name": "values",
          "type": "uint256[]"
        },
        {
          "internalType": "bytes",
          "name": "data",
          "type": "bytes"
        }
      ],
      "name": "safeBatchTransferFrom",
      "outputs": [],
      "stateMutability": "nonpayable",
      "type": "function"
    },
    {
      "inputs": [
        {
          "internalType": "address",
          "name": "from",
          "type": "address"
        },
        {
          "internalType": "address",
          "name": "to",
          "type": "address"
        },
        {
          "internalType": "uint256",
          "name": "id",
          "type": "uint256"
        },
        {
          "internalType": "uint256",
          "name": "value",
          "type": "uint256"
        },
        {
          "internalType": "bytes",
          "name": "data",
          "type": "bytes"
        }
      ],
      "name": "safeTransferFrom",
      "outputs": [],
      "stateMutability": "nonpayable",
      "type": "function"
    },
    {
      "inputs": [
        {
          "internalType": "address",
          "name": "operator",
          "type": "address"
        },
        {
          "internalType": "bool",
          "name": "approved",
          "type": "bool"
        }
      ],
      "name": "setApprovalForAll",
      "outputs": [],
      "stateMutability": "nonpayable",
      "type": "function"
    },
    {
      "inputs": [
        {
          "internalType": "uint16",
          "name": "cube",
          "type": "uint16"
        },
        {
          "internalType": "uint256",
          "name": "units",
          "type": "uint256"
        }
      ],
      "name": "spawn",
      "outputs": [],
      "stateMutability": "nonpayable",
      "type": "function"
    },
    {
      "inputs": [
        {
          "internalType": "bytes4",
          "name": "id",
          "type": "bytes4"
        }
      ],
      "name": "supportsInterface",
      "outputs": [
        {
          "internalType": "bool",
          "name": "",
          "type": "bool"
        }
      ],
      "stateMutability": "view",
      "type": "function"
    },
    {
      "inputs": [],
      "name": "totalUnitsMinted",
      "outputs": [
        {
          "internalType": "uint256",
          "name": "",
          "type": "uint256"
        }
      ],
      "stateMutability": "view",
      "type": "function"
    },
    {
      "inputs": [
        {
          "internalType": "address",
          "name": "newOwner",
          "type": "address"
        }
      ],
      "name": "transferOwnership",
      "outputs": [],
      "stateMutability": "nonpayable",
      "type": "function"
    },
    {
      "inputs": [],
      "name": "treasuryBalance",
      "outputs": [
        {
          "internalType": "uint256",
          "name": "",
          "type": "uint256"
        }
      ],
      "stateMutability": "view",
      "type": "function"
    },
    {
      "inputs": [
        {
          "internalType": "uint256",
          "name": "",
          "type": "uint256"
        }
      ],
      "name": "uri",
      "outputs": [
        {
          "internalType": "string",
          "name": "",
          "type": "string"
        }
      ],
      "stateMutability": "view",
      "type": "function"
    }
  ],
  "bytecode": "0x60a06040523480156200001157600080fd5b5060405162002ab638038062002ab6833981016040819052620000349162000111565b336040518060600160405280602a815260200162002a8c602a91396200005a81620000ad565b5060016003556001600160a01b0381166200008f57604051631e4fbdf760e01b81526000600482015260240160405180910390fd5b6200009a81620000bf565b506001600160a01b0316608052620002b6565b6002620000bb8282620001ea565b5050565b600480546001600160a01b038381166001600160a01b0319831681179093556040519116919082907f8be0079c531659141344cd1fd0a4f28419497f9722a3daafe3b4186f6b6457e090600090a35050565b6000602082840312156200012457600080fd5b81516001600160a01b03811681146200013c57600080fd5b9392505050565b634e487b7160e01b600052604160045260246000fd5b600181811c908216806200016e57607f821691505b6020821081036200018f57634e487b7160e01b600052602260045260246000fd5b50919050565b601f821115620001e5576000816000526020600020601f850160051c81016020861015620001c05750805b601f850160051c820191505b81811015620001e157828155600101620001cc565b5050505b505050565b81516001600160401b0381111562000206576200020662000143565b6200021e8162000217845462000159565b8462000195565b602080601f8311600181146200025657600084156200023d5750858301515b600019600386901b1c1916600185901b178555620001e1565b600085815260208120601f198616915b82811015620002875788860151825594840194600190910190840162000266565b5085821015620002a65787850151600019600388901b60f8161c191681555b5050505050600190811b01905550565b6080516127a5620002e7600039600081816102030152818161043501528181610b630152610e4d01526127a56000f3fe608060405234801561001057600080fd5b50600436106101725760003560e01c8063715018a6116100de578063c704c3f111610097578063ea075ee111610071578063ea075ee114610333578063edbd5df814610346578063f242432a14610371578063f2fde38b1461038457600080fd5b8063c704c3f1146102fe578063e74fe2371461030d578063e985e9c51461032057600080fd5b8063715018a6146102ac5780637c5b4a37146102b45780638da5cb5b146102c757806391fa2a6a146102d8578063a22cb465146102eb578063a37a9fc01461026257600080fd5b80632eb2c2d6116101305780632eb2c2d61461023d578063313dab20146102505780634c25d197146102595780634cf5317b146102625780634e1273f41461026b57806355ebad591461028b57600080fd5b8062fdd58e1461017757806301ffc9a71461019d57806309f61826146101c05780630a08f3d0146101d55780630e89341c146101de5780632bd7cd17146101fe575b600080fd5b61018a610185366004611efe565b610397565b6040519081526020015b60405180910390f35b6101b06101ab366004611f3e565b6103bf565b6040519015158152602001610194565b6101d36101ce366004611f6d565b6103ca565b005b61018a60065481565b6101f16101ec366004611f89565b610630565b6040516101949190611fe8565b6102257f000000000000000000000000000000000000000000000000000000000000000081565b6040516001600160a01b039091168152602001610194565b6101d361024b366004612145565b6106c4565b61018a60055481565b61018a61247681565b61018a61029a81565b61027e6102793660046121ef565b61072b565b60405161019491906122eb565b61029e61029936600461230c565b6107f8565b604051610194929190612343565b6101d3610b2b565b6101d36102c2366004611f89565b610b3f565b6004546001600160a01b0316610225565b61018a6102e63660046123a4565b610bd8565b6101d36102f93660046123e6565b61112b565b61018a678ac7230489e8000081565b6101d361031b366004612402565b611136565b6101b061032e366004612421565b611286565b61018a610341366004611efe565b6112b4565b61018a610354366004611efe565b600760209081526000928352604080842090915290825290205481565b6101d361037f366004612454565b611337565b6101d36103923660046124b9565b611396565b6000818152602081815260408083206001600160a01b03861684529091529020545b92915050565b60006103b9826113d4565b6103d2611424565b60008261ffff161180156103eb575060d88261ffff1611155b61042b5760405162461bcd60e51b815260206004820152600c60248201526b496e76616c6964204375626560a01b60448201526064015b60405180910390fd5b6001600160a01b037f0000000000000000000000000000000000000000000000000000000000000000166323b872dd333061046e678ac7230489e80000866124ea565b6040516001600160e01b031960e086901b1681526001600160a01b03938416600482015292909116602483015260448201526064016020604051808303816000875af11580156104c2573d6000803e3d6000fd5b505050506040513d601f19601f820116820180604052508101906104e69190612501565b61051d5760405162461bcd60e51b815260206004820152600860248201526714185e4819985a5b60c21b6044820152606401610422565b612710612476610535678ac7230489e80000846124ea565b61053f91906124ea565b6105499190612534565b6005600082825461055a9190612548565b90915550506006805490829060006105728385612548565b909155506000905061058661029a83612534565b61029a6006546105969190612534565b6105a0919061255b565b905060006105ae828561255b565b905080156105c5576105c5338661ffff168361144e565b81156105e4576105e4336105de61ffff881660d8612548565b8461144e565b60405184815261ffff86169033907fd5fd522cbcc1631fc34044a6a2d3242adb07fb2d862b28f5215ad524dde676349060200160405180910390a350505061062c6001600355565b5050565b60606002805461063f9061256e565b80601f016020809104026020016040519081016040528092919081815260200182805461066b9061256e565b80156106b85780601f1061068d576101008083540402835291602001916106b8565b820191906000526020600020905b81548152906001019060200180831161069b57829003601f168201915b50505050509050919050565b336001600160a01b03861681148015906106e557506106e38682611286565b155b156107165760405163711bec9160e11b81526001600160a01b03808316600483015287166024820152604401610422565b6107238686868686611506565b505050505050565b6060815183511461075c5781518351604051635b05999160e01b815260048101929092526024820152604401610422565b6000835167ffffffffffffffff81111561077857610778611ffb565b6040519080825280602002602001820160405280156107a1578160200160208202803683370190505b50905060005b84518110156107f0576020808202860101516107cb90602080840287010151610397565b8282815181106107dd576107dd6125a8565b60209081029190910101526001016107a7565b509392505050565b60608060008361080c578461ffff1661081b565b61081b61ffff861660d8612548565b60008181526008602090815260408083208054825181850281018501909352808352949550929390929183018282801561087e57602002820191906000526020600020905b81546001600160a01b03168152600190910190602001808311610860575b505050505090506000805b8251811015610929576009600085815260200190815260200160002060008483815181106108b9576108b96125a8565b6020908102919091018101516001600160a01b031682528101919091526040016000205460ff16801561090e5750600061090c8483815181106108fe576108fe6125a8565b602002602001015186610397565b115b15610921578161091d816125be565b9250505b600101610889565b508067ffffffffffffffff81111561094357610943611ffb565b60405190808252806020026020018201604052801561096c578160200160208202803683370190505b5094508067ffffffffffffffff81111561098857610988611ffb565b6040519080825280602002602001820160405280156109b1578160200160208202803683370190505b5093506000805b8351811015610b1f576009600086815260200190815260200160002060008583815181106109e8576109e86125a8565b6020908102919091018101516001600160a01b031682528101919091526040016000205460ff168015610a3d57506000610a3b858381518110610a2d57610a2d6125a8565b602002602001015187610397565b115b15610b1757838181518110610a5457610a546125a8565b6020026020010151878381518110610a6e57610a6e6125a8565b60200260200101906001600160a01b031690816001600160a01b03168152505060076000858381518110610aa457610aa46125a8565b60200260200101516001600160a01b03166001600160a01b0316815260200190815260200160002060008681526020019081526020016000206000015443610aec919061255b565b868381518110610afe57610afe6125a8565b602090810291909101015281610b13816125be565b9250505b6001016109b8565b50505050509250929050565b610b3361156d565b610b3d600061159a565b565b610b4761156d565b60405163a9059cbb60e01b8152336004820152602481018290527f00000000000000000000000000000000000000000000000000000000000000006001600160a01b03169063a9059cbb906044016020604051808303816000875af1158015610bb4573d6000803e3d6000fd5b505050506040513d601f19601f8201168201806040525081019061062c9190612501565b6000610be2611424565b61ffff84166000610bf48260d8612548565b90506000610c048561029a6124ea565b610c0e9087612548565b905060008111610c4b5760405162461bcd60e51b81526020600482015260086024820152674e6f20666f72636560c01b6044820152606401610422565b85610c563385610397565b10158015610c6d575084610c6a3384610397565b10155b610ca65760405162461bcd60e51b815260206004820152600a6024820152694c61636b20756e69747360b01b6044820152606401610422565b60006064610cb48a85610397565b610cc09061029a6124ea565b610cca8b87610397565b610cd49190612548565b610cdf90606e6124ea565b610ce99190612534565b905060008111610d275760405162461bcd60e51b8152602060048201526009602482015268139bc81d185c99d95d60ba1b6044820152606401610422565b610d526040518060800160405280600081526020016000815260200160008152602001600081525090565b81831115610f4b57610d648a86610397565b6040820152610d738a85610397565b6060820152610d8283806124ea565b610d8c83806124ea565b610d96908a6124ea565b610da09190612534565b8152610dac83806124ea565b610db683806124ea565b610dc090896124ea565b610dca9190612534565b60208201526000610ddb8b866112b4565b610de58c886112b4565b610def9190612548565b90506000612710610e0261029a846124ea565b610e0c9190612534565b9050610e18818361255b565b97508160056000828254610e2c919061255b565b909155505060405163a9059cbb60e01b8152336004820152602481018990527f00000000000000000000000000000000000000000000000000000000000000006001600160a01b03169063a9059cbb906044016020604051808303816000875af1158015610e9e573d6000803e3d6000fd5b505050506040513d601f19601f82011682018060405250810190610ec29190612501565b610efc5760405162461bcd60e51b815260206004820152600b60248201526a14185e5bdd5d0819985a5b60aa1b6044820152606401610422565b505060008581526009602081815260408084206001600160a01b038f16808652908352818520805460ff1990811690915589865293835281852090855290915290912080549091169055611045565b87815260208101879052610f5f82806124ea565b610f6984806124ea565b610f738c88610397565b610f7d91906124ea565b610f879190612534565b6040820152610f9682806124ea565b610fa084806124ea565b610faa8c87610397565b610fb491906124ea565b610fbe9190612534565b6060820152604081015160009650610fd68b87610397565b036110065760008581526009602090815260408083206001600160a01b038e1684529091529020805460ff191690555b80606001516110158b86610397565b036110455760008481526009602090815260408083206001600160a01b038e1684529091529020805460ff191690555b60408101511561105e5761105e8a8683604001516115ec565b606081015115611077576110778a8583606001516115ec565b80511561108d5761108d338683600001516115ec565b6020810151156110a6576110a6338583602001516115ec565b8051602080830151604080850151606080870151835196875294860193909352908401528201526080810187905261ffff8a16906001600160a01b038c169033907fc677cddfd89fe6d048279040021220dd1b729c5b47ef0c43009647057c70afe59060a00160405180910390a450505050506111236001600355565b949350505050565b61062c338383611654565b60008461ffff1611801561114f575060d88461ffff1611155b61118a5760405162461bcd60e51b815260206004820152600c60248201526b496e76616c69642046726f6d60a01b6044820152606401610422565b60008361ffff161180156111a3575060d88361ffff1611155b80156111b457506111b484846116ea565b6111eb5760405162461bcd60e51b8152602060048201526008602482015267426164206d6f766560c01b6044820152606401610422565b8115611204576112048461ffff168461ffff168461184b565b80156112315761123161121c61ffff861660d8612548565b61122b61ffff861660d8612548565b8361184b565b6040805161ffff8087168252851660208201529081018390526060810182905233907f0521d9fe7f242e95c66e4bb3df47d09ca5041e0c3c214789be1e9ef6d10243939060800160405180910390a250505050565b6001600160a01b03918216600090815260016020908152604080832093909416825291909152205460ff1690565b6001600160a01b038216600090815260076020908152604080832084845290915281205481036112e6575060006103b9565b6001600160a01b0383166000908152600760209081526040808320858452909152902054620f424090611319904361255b565b60055461132691906124ea565b6113309190612534565b9392505050565b336001600160a01b038616811480159061135857506113568682611286565b155b156113895760405163711bec9160e11b81526001600160a01b03808316600483015287166024820152604401610422565b6107238686868686611987565b61139e61156d565b6001600160a01b0381166113c857604051631e4fbdf760e01b815260006004820152602401610422565b6113d18161159a565b50565b60006001600160e01b03198216636cdb3d1360e11b148061140557506001600160e01b031982166303a24d0760e21b145b806103b957506301ffc9a760e01b6001600160e01b03198316146103b9565b60026003540361144757604051633ee5aeb560e01b815260040160405180910390fd5b6002600355565b61146983838360405180602001604052806000815250611a15565b6001600160a01b0383166000818152600760209081526040808320868452825280832043905560098252808320938352929052205460ff166115015760008281526008602090815260408083208054600180820183559185528385200180546001600160a01b0319166001600160a01b03891690811790915586855260098452828520908552909252909120805460ff191690911790555b505050565b6001600160a01b03841661153057604051632bfa23e760e11b815260006004820152602401610422565b6001600160a01b03851661155957604051626a0d4560e21b815260006004820152602401610422565b6115668585858585611a6e565b5050505050565b6004546001600160a01b03163314610b3d5760405163118cdaa760e01b8152336004820152602401610422565b600480546001600160a01b038381166001600160a01b0319831681179093556040519116919082907f8be0079c531659141344cd1fd0a4f28419497f9722a3daafe3b4186f6b6457e090600090a35050565b6001600160a01b03831661161557604051626a0d4560e21b815260006004820152602401610422565b604080516001808252602082018590528183019081526060820184905260a0820190925260006080820181815291929161156691879185908590611a6e565b6001600160a01b03821661167d5760405162ced3e160e81b815260006004820152602401610422565b6001600160a01b03838116600081815260016020908152604080832094871680845294825291829020805460ff191686151590811790915591519182527f17307eab39ab6107e8899845ad3d59bd9653f200f220920489ca2b5937696c31910160405180910390a3505050565b60008161ffff168361ffff161480611704575061ffff8316155b80611711575061ffff8216155b1561171e575060006103b9565b600061172b6001856125d7565b9050600061173a6001856125d7565b905060006117496006846125f9565b905060006006611759818661261a565b61176391906125f9565b9050600061177260248661261a565b905060006117816006866125f9565b905060006006611791818861261a565b61179b91906125f9565b905060006117aa60248861261a565b905060008160010b8560010b136117ca576117c5858361263b565b6117d4565b6117d4828661263b565b8360010b8760010b136117f0576117eb878561263b565b6117fa565b6117fa848861263b565b8560010b8960010b1361181657611811898761263b565b611820565b611820868a61263b565b61182a919061265e565b611834919061265e565b61ffff166001149c9b505050505050505050505050565b806118563385610397565b10156118995760405162461bcd60e51b8152602060048201526012602482015271496e73756666696369656e7420756e69747360701b6044820152606401610422565b6118a43384836115ec565b6118bf33838360405180602001604052806000815250611a15565b33600081815260076020908152604080832086845290915290204390556118e69084610397565b60000361190f5760008381526009602090815260408083203384529091529020805460ff191690555b600082815260096020908152604080832033845290915290205460ff166115015760008281526008602090815260408083208054600181810183559185528385200180546001600160a01b0319163390811790915586855260098452828520908552909252909120805460ff19169091179055505050565b6001600160a01b0384166119b157604051632bfa23e760e11b815260006004820152602401610422565b6001600160a01b0385166119da57604051626a0d4560e21b815260006004820152602401610422565b60408051600180825260208201869052818301908152606082018590526080820190925290611a0c8787848487611a6e565b50505050505050565b6001600160a01b038416611a3f57604051632bfa23e760e11b815260006004820152602401610422565b604080516001808252602082018690528183019081526060820185905260808201909252906107236000878484875b611a7a85858585611ac1565b6001600160a01b038416156115665782513390600103611ab35760208481015190840151611aac838989858589611cd5565b5050610723565b610723818787878787611df9565b8051825114611af05781518151604051635b05999160e01b815260048101929092526024820152604401610422565b3360005b8351811015611bf6576020818102858101820151908501909101516001600160a01b03881615611ba7576000828152602081815260408083206001600160a01b038c16845290915290205481811015611b80576040516303dee4c560e01b81526001600160a01b038a166004820152602481018290526044810183905260648101849052608401610422565b6000838152602081815260408083206001600160a01b038d16845290915290209082900390555b6001600160a01b03871615611bec576000828152602081815260408083206001600160a01b038b16845290915281208054839290611be6908490612548565b90915550505b5050600101611af4565b508251600103611c775760208301516000906020840151909150856001600160a01b0316876001600160a01b0316846001600160a01b03167fc3d58168c5ae7397731d063d5bbf3d657854427343f4c083240f7aacaa2d0f628585604051611c68929190918252602082015260400190565b60405180910390a45050611566565b836001600160a01b0316856001600160a01b0316826001600160a01b03167f4a39dc06d4c0dbc64b70af90fd698a233a518aa5d07e595d983b8c0526c8f7fb8686604051611cc6929190612681565b60405180910390a45050505050565b6001600160a01b0384163b156107235760405163f23a6e6160e01b81526001600160a01b0385169063f23a6e6190611d1990899089908890889088906004016126af565b6020604051808303816000875af1925050508015611d54575060408051601f3d908101601f19168201909252611d51918101906126f4565b60015b611dbd573d808015611d82576040519150601f19603f3d011682016040523d82523d6000602084013e611d87565b606091505b508051600003611db557604051632bfa23e760e11b81526001600160a01b0386166004820152602401610422565b805160208201fd5b6001600160e01b0319811663f23a6e6160e01b14611a0c57604051632bfa23e760e11b81526001600160a01b0386166004820152602401610422565b6001600160a01b0384163b156107235760405163bc197c8160e01b81526001600160a01b0385169063bc197c8190611e3d9089908990889088908890600401612711565b6020604051808303816000875af1925050508015611e78575060408051601f3d908101601f19168201909252611e75918101906126f4565b60015b611ea6573d808015611d82576040519150601f19603f3d011682016040523d82523d6000602084013e611d87565b6001600160e01b0319811663bc197c8160e01b14611a0c57604051632bfa23e760e11b81526001600160a01b0386166004820152602401610422565b80356001600160a01b0381168114611ef957600080fd5b919050565b60008060408385031215611f1157600080fd5b611f1a83611ee2565b946020939093013593505050565b6001600160e01b0319811681146113d157600080fd5b600060208284031215611f5057600080fd5b813561133081611f28565b803561ffff81168114611ef957600080fd5b60008060408385031215611f8057600080fd5b611f1a83611f5b565b600060208284031215611f9b57600080fd5b5035919050565b6000815180845260005b81811015611fc857602081850181015186830182015201611fac565b506000602082860101526020601f19601f83011685010191505092915050565b6020815260006113306020830184611fa2565b634e487b7160e01b600052604160045260246000fd5b604051601f8201601f1916810167ffffffffffffffff8111828210171561203a5761203a611ffb565b604052919050565b600067ffffffffffffffff82111561205c5761205c611ffb565b5060051b60200190565b600082601f83011261207757600080fd5b8135602061208c61208783612042565b612011565b8083825260208201915060208460051b8701019350868411156120ae57600080fd5b602086015b848110156120ca57803583529183019183016120b3565b509695505050505050565b600082601f8301126120e657600080fd5b813567ffffffffffffffff81111561210057612100611ffb565b612113601f8201601f1916602001612011565b81815284602083860101111561212857600080fd5b816020850160208301376000918101602001919091529392505050565b600080600080600060a0868803121561215d57600080fd5b61216686611ee2565b945061217460208701611ee2565b9350604086013567ffffffffffffffff8082111561219157600080fd5b61219d89838a01612066565b945060608801359150808211156121b357600080fd5b6121bf89838a01612066565b935060808801359150808211156121d557600080fd5b506121e2888289016120d5565b9150509295509295909350565b6000806040838503121561220257600080fd5b823567ffffffffffffffff8082111561221a57600080fd5b818501915085601f83011261222e57600080fd5b8135602061223e61208783612042565b82815260059290921b8401810191818101908984111561225d57600080fd5b948201945b838610156122825761227386611ee2565b82529482019490820190612262565b9650508601359250508082111561229857600080fd5b506122a585828601612066565b9150509250929050565b60008151808452602080850194506020840160005b838110156122e0578151875295820195908201906001016122c4565b509495945050505050565b60208152600061133060208301846122af565b80151581146113d157600080fd5b6000806040838503121561231f57600080fd5b61232883611f5b565b91506020830135612338816122fe565b809150509250929050565b604080825283519082018190526000906020906060840190828701845b828110156123855781516001600160a01b031684529284019290840190600101612360565b505050838103602085015261239a81866122af565b9695505050505050565b600080600080608085870312156123ba57600080fd5b6123c385611ee2565b93506123d160208601611f5b565b93969395505050506040820135916060013590565b600080604083850312156123f957600080fd5b61232883611ee2565b6000806000806080858703121561241857600080fd5b6123c385611f5b565b6000806040838503121561243457600080fd5b61243d83611ee2565b915061244b60208401611ee2565b90509250929050565b600080600080600060a0868803121561246c57600080fd5b61247586611ee2565b945061248360208701611ee2565b93506040860135925060608601359150608086013567ffffffffffffffff8111156124ad57600080fd5b6121e2888289016120d5565b6000602082840312156124cb57600080fd5b61133082611ee2565b634e487b7160e01b600052601160045260246000fd5b80820281158282048414176103b9576103b96124d4565b60006020828403121561251357600080fd5b8151611330816122fe565b634e487b7160e01b600052601260045260246000fd5b6000826125435761254361251e565b500490565b808201808211156103b9576103b96124d4565b818103818111156103b9576103b96124d4565b600181811c9082168061258257607f821691505b6020821081036125a257634e487b7160e01b600052602260045260246000fd5b50919050565b634e487b7160e01b600052603260045260246000fd5b6000600182016125d0576125d06124d4565b5060010190565b61ffff8281168282160390808211156125f2576125f26124d4565b5092915050565b600061ffff8084168061260e5761260e61251e565b92169190910692915050565b600061ffff8084168061262f5761262f61251e565b92169190910492915050565b600182810b9082900b03617fff198112617fff821317156103b9576103b96124d4565b600181810b9083900b01617fff8113617fff19821217156103b9576103b96124d4565b60408152600061269460408301856122af565b82810360208401526126a681856122af565b95945050505050565b6001600160a01b03868116825285166020820152604081018490526060810183905260a0608082018190526000906126e990830184611fa2565b979650505050505050565b60006020828403121561270657600080fd5b815161133081611f28565b6001600160a01b0386811682528516602082015260a06040820181905260009061273d908301866122af565b828103606084015261274f81866122af565b905082810360808401526127638185611fa2565b9897505050505050505056fea264697066735822122043b5f83e94c1e712f50d6b2307d3082ef4c01cd1336d2dc7406e73bda8bf695464736f6c6343000818003368747470733a2f2f6170692e6b696c6c67616d652e61692f6d657461646174612f7b69647d2e6a736f6e",
  "linkReferences": {},
  "deployedLinkReferences": {}
}