{
  "_format": "hh-sol-artifact-1",
  "contractName": "KILLGame",
  "sourceName": "contracts/KillGame.sol",
  "abi": [
    {
      "inputs": [
        {
          "internalType": "address",
          "name": "_tokenAddress",
          "type": "address"
        }
      ],
      "stateMutability": "nonpayable",
      "type": "constructor"
    },
    {
      "anonymous": false,
      "inputs": [
        {
          "indexed": true,
          "internalType": "address",
          "name": "account",
          "type": "address"
        },
        {
          "indexed": true,
          "internalType": "address",
          "name": "operator",
          "type": "address"
        },
        {
          "indexed": false,
          "internalType": "bool",
          "name": "approved",
          "type": "bool"
        }
      ],
      "name": "ApprovalForAll",
      "type": "event"
    },
    {
      "anonymous": false,
      "inputs": [
        {
          "indexed": true,
          "internalType": "address",
          "name": "attacker",
          "type": "address"
        },
        {
          "indexed": true,
          "internalType": "address",
          "name": "target",
          "type": "address"
        },
        {
          "indexed": false,
          "internalType": "uint256",
          "name": "tokenId",
          "type": "uint256"
        },
        {
          "indexed": false,
          "internalType": "uint256",
          "name": "unitsKilled",
          "type": "uint256"
        },
        {
          "indexed": false,
          "internalType": "uint256",
          "name": "bountyPaid",
          "type": "uint256"
        }
      ],
      "name": "Killed",
      "type": "event"
    },
    {
      "anonymous": false,
      "inputs": [
        {
          "indexed": true,
          "internalType": "address",
          "name": "agent",
          "type": "address"
        },
        {
          "indexed": false,
          "internalType": "uint256",
          "name": "fromTokenId",
          "type": "uint256"
        },
        {
          "indexed": false,
          "internalType": "uint256",
          "name": "toTokenId",
          "type": "uint256"
        },
        {
          "indexed": false,
          "internalType": "uint256",
          "name": "units",
          "type": "uint256"
        }
      ],
      "name": "Moved",
      "type": "event"
    },
    {
      "anonymous": false,
      "inputs": [
        {
          "indexed": true,
          "internalType": "address",
          "name": "agent",
          "type": "address"
        },
        {
          "indexed": true,
          "internalType": "uint256",
          "name": "tokenId",
          "type": "uint256"
        },
        {
          "indexed": false,
          "internalType": "uint256",
          "name": "units",
          "type": "uint256"
        }
      ],
      "name": "Spawned",
      "type": "event"
    },
    {
      "anonymous": false,
      "inputs": [
        {
          "indexed": true,
          "internalType": "address",
          "name": "operator",
          "type": "address"
        },
        {
          "indexed": true,
          "internalType": "address",
          "name": "from",
          "type": "address"
        },
        {
          "indexed": true,
          "internalType": "address",
          "name": "to",
          "type": "address"
        },
        {
          "indexed": false,
          "internalType": "uint256[]",
          "name": "ids",
          "type": "uint256[]"
        },
        {
          "indexed": false,
          "internalType": "uint256[]",
          "name": "values",
          "type": "uint256[]"
        }
      ],
      "name": "TransferBatch",
      "type": "event"
    },
    {
      "anonymous": false,
      "inputs": [
        {
          "indexed": true,
          "internalType": "address",
          "name": "operator",
          "type": "address"
        },
        {
          "indexed": true,
          "internalType": "address",
          "name": "from",
          "type": "address"
        },
        {
          "indexed": true,
          "internalType": "address",
          "name": "to",
          "type": "address"
        },
        {
          "indexed": false,
          "internalType": "uint256",
          "name": "id",
          "type": "uint256"
        },
        {
          "indexed": false,
          "internalType": "uint256",
          "name": "value",
          "type": "uint256"
        }
      ],
      "name": "TransferSingle",
      "type": "event"
    },
    {
      "anonymous": false,
      "inputs": [
        {
          "indexed": false,
          "internalType": "string",
          "name": "value",
          "type": "string"
        },
        {
          "indexed": true,
          "internalType": "uint256",
          "name": "id",
          "type": "uint256"
        }
      ],
      "name": "URI",
      "type": "event"
    },
    {
      "inputs": [],
      "name": "BOOST_RECOIL",
      "outputs": [
        {
          "internalType": "uint256",
          "name": "",
          "type": "uint256"
        }
      ],
      "stateMutability": "view",
      "type": "function"
    },
    {
      "inputs": [],
      "name": "BOOST_REQUIRED",
      "outputs": [
        {
          "internalType": "uint256",
          "name": "",
          "type": "uint256"
        }
      ],
      "stateMutability": "view",
      "type": "function"
    },
    {
      "inputs": [],
      "name": "BURN_BPS",
      "outputs": [
        {
          "internalType": "uint256",
          "name": "",
          "type": "uint256"
        }
      ],
      "stateMutability": "view",
      "type": "function"
    },
    {
      "inputs": [],
      "name": "SPAWN_COST",
      "outputs": [
        {
          "internalType": "uint256",
          "name": "",
          "type": "uint256"
        }
      ],
      "stateMutability": "view",
      "type": "function"
    },
    {
      "inputs": [],
      "name": "TREASURY_BPS",
      "outputs": [
        {
          "internalType": "uint256",
          "name": "",
          "type": "uint256"
        }
      ],
      "stateMutability": "view",
      "type": "function"
    },
    {
      "inputs": [
        {
          "internalType": "address",
          "name": "",
          "type": "address"
        },
        {
          "internalType": "uint256",
          "name": "",
          "type": "uint256"
        }
      ],
      "name": "agentStacks",
      "outputs": [
        {
          "internalType": "uint256",
          "name": "birthBlock",
          "type": "uint256"
        }
      ],
      "stateMutability": "view",
      "type": "function"
    },
    {
      "inputs": [
        {
          "internalType": "address",
          "name": "account",
          "type": "address"
        },
        {
          "internalType": "uint256",
          "name": "id",
          "type": "uint256"
        }
      ],
      "name": "balanceOf",
      "outputs": [
        {
          "internalType": "uint256",
          "name": "",
          "type": "uint256"
        }
      ],
      "stateMutability": "view",
      "type": "function"
    },
    {
      "inputs": [
        {
          "internalType": "address[]",
          "name": "accounts",
          "type": "address[]"
        },
        {
          "internalType": "uint256[]",
          "name": "ids",
          "type": "uint256[]"
        }
      ],
      "name": "balanceOfBatch",
      "outputs": [
        {
          "internalType": "uint256[]",
          "name": "",
          "type": "uint256[]"
        }
      ],
      "stateMutability": "view",
      "type": "function"
    },
    {
      "inputs": [
        {
          "internalType": "address",
          "name": "agent",
          "type": "address"
        },
        {
          "internalType": "uint256",
          "name": "tokenId",
          "type": "uint256"
        }
      ],
      "name": "getPendingBounty",
      "outputs": [
        {
          "internalType": "uint256",
          "name": "",
          "type": "uint256"
        }
      ],
      "stateMutability": "view",
      "type": "function"
    },
    {
      "inputs": [
        {
          "internalType": "uint16",
          "name": "cube",
          "type": "uint16"
        },
        {
          "internalType": "bool",
          "name": "boosted",
          "type": "bool"
        }
      ],
      "name": "getRipeStacks",
      "outputs": [
        {
          "internalType": "address[]",
          "name": "agents",
          "type": "address[]"
        },
        {
          "internalType": "uint256[]",
          "name": "ages",
          "type": "uint256[]"
        }
      ],
      "stateMutability": "view",
      "type": "function"
    },
    {
      "inputs": [
        {
          "internalType": "address",
          "name": "account",
          "type": "address"
        },
        {
          "internalType": "address",
          "name": "operator",
          "type": "address"
        }
      ],
      "name": "isApprovedForAll",
      "outputs": [
        {
          "internalType": "bool",
          "name": "",
          "type": "bool"
        }
      ],
      "stateMutability": "view",
      "type": "function"
    },
    {
      "inputs": [
        {
          "internalType": "address",
          "name": "target",
          "type": "address"
        },
        {
          "internalType": "uint16",
          "name": "cube",
          "type": "uint16"
        },
        {
          "internalType": "uint256",
          "name": "amountToKill",
          "type": "uint256"
        },
        {
          "internalType": "bool",
          "name": "boosted",
          "type": "bool"
        }
      ],
      "name": "kill",
      "outputs": [
        {
          "internalType": "uint256",
          "name": "netBounty",
          "type": "uint256"
        }
      ],
      "stateMutability": "nonpayable",
      "type": "function"
    },
    {
      "inputs": [],
      "name": "killToken",
      "outputs": [
        {
          "internalType": "contract IERC20",
          "name": "",
          "type": "address"
        }
      ],
      "stateMutability": "view",
      "type": "function"
    },
    {
      "inputs": [
        {
          "internalType": "uint16",
          "name": "fromCube",
          "type": "uint16"
        },
        {
          "internalType": "uint16",
          "name": "toCube",
          "type": "uint16"
        },
        {
          "internalType": "uint256",
          "name": "units",
          "type": "uint256"
        },
        {
          "internalType": "bool",
          "name": "boosted",
          "type": "bool"
        }
      ],
      "name": "move",
      "outputs": [],
      "stateMutability": "nonpayable",
      "type": "function"
    },
    {
      "inputs": [
        {
          "internalType": "address",
          "name": "from",
          "type": "address"
        },
        {
          "internalType": "address",
          "name": "to",
          "type": "address"
        },
        {
          "internalType": "uint256[]",
          "name": "ids",
          "type": "uint256[]"
        },
        {
          "internalType": "uint256[]",
          "name": "amounts",
          "type": "uint256[]"
        },
        {
          "internalType": "bytes",
          "name": "data",
          "type": "bytes"
        }
      ],
      "name": "safeBatchTransferFrom",
      "outputs": [],
      "stateMutability": "nonpayable",
      "type": "function"
    },
    {
      "inputs": [
        {
          "internalType": "address",
          "name": "from",
          "type": "address"
        },
        {
          "internalType": "address",
          "name": "to",
          "type": "address"
        },
        {
          "internalType": "uint256",
          "name": "id",
          "type": "uint256"
        },
        {
          "internalType": "uint256",
          "name": "amount",
          "type": "uint256"
        },
        {
          "internalType": "bytes",
          "name": "data",
          "type": "bytes"
        }
      ],
      "name": "safeTransferFrom",
      "outputs": [],
      "stateMutability": "nonpayable",
      "type": "function"
    },
    {
      "inputs": [
        {
          "internalType": "address",
          "name": "operator",
          "type": "address"
        },
        {
          "internalType": "bool",
          "name": "approved",
          "type": "bool"
        }
      ],
      "name": "setApprovalForAll",
      "outputs": [],
      "stateMutability": "nonpayable",
      "type": "function"
    },
    {
      "inputs": [
        {
          "internalType": "uint16",
          "name": "cube",
          "type": "uint16"
        },
        {
          "internalType": "uint256",
          "name": "units",
          "type": "uint256"
        },
        {
          "internalType": "bool",
          "name": "boosted",
          "type": "bool"
        }
      ],
      "name": "spawn",
      "outputs": [],
      "stateMutability": "nonpayable",
      "type": "function"
    },
    {
      "inputs": [
        {
          "internalType": "bytes4",
          "name": "interfaceId",
          "type": "bytes4"
        }
      ],
      "name": "supportsInterface",
      "outputs": [
        {
          "internalType": "bool",
          "name": "",
          "type": "bool"
        }
      ],
      "stateMutability": "view",
      "type": "function"
    },
    {
      "inputs": [],
      "name": "treasuryBalance",
      "outputs": [
        {
          "internalType": "uint256",
          "name": "",
          "type": "uint256"
        }
      ],
      "stateMutability": "view",
      "type": "function"
    },
    {
      "inputs": [
        {
          "internalType": "uint256",
          "name": "",
          "type": "uint256"
        }
      ],
      "name": "uri",
      "outputs": [
        {
          "internalType": "string",
          "name": "",
          "type": "string"
        }
      ],
      "stateMutability": "view",
      "type": "function"
    }
  ],
  "bytecode": "0x60a06040523480156200001157600080fd5b506040516200452738038062004527833981810160405281019062000037919062000125565b6040518060600160405280602a8152602001620044fd602a91396200006281620000a660201b60201c565b5060016003819055508073ffffffffffffffffffffffffffffffffffffffff1660808173ffffffffffffffffffffffffffffffffffffffff168152505050620004b8565b8060029081620000b79190620003d1565b5050565b600080fd5b600073ffffffffffffffffffffffffffffffffffffffff82169050919050565b6000620000ed82620000c0565b9050919050565b620000ff81620000e0565b81146200010b57600080fd5b50565b6000815190506200011f81620000f4565b92915050565b6000602082840312156200013e576200013d620000bb565b5b60006200014e848285016200010e565b91505092915050565b600081519050919050565b7f4e487b7100000000000000000000000000000000000000000000000000000000600052604160045260246000fd5b7f4e487b7100000000000000000000000000000000000000000000000000000000600052602260045260246000fd5b60006002820490506001821680620001d957607f821691505b602082108103620001ef57620001ee62000191565b5b50919050565b60008190508160005260206000209050919050565b60006020601f8301049050919050565b600082821b905092915050565b600060088302620002597fffffffffffffffffffffffffffffffffffffffffffffffffffffffffffffffff826200021a565b6200026586836200021a565b95508019841693508086168417925050509392505050565b6000819050919050565b6000819050919050565b6000620002b2620002ac620002a6846200027d565b62000287565b6200027d565b9050919050565b6000819050919050565b620002ce8362000291565b620002e6620002dd82620002b9565b84845462000227565b825550505050565b600090565b620002fd620002ee565b6200030a818484620002c3565b505050565b5b81811015620003325762000326600082620002f3565b60018101905062000310565b5050565b601f82111562000381576200034b81620001f5565b62000356846200020a565b8101602085101562000366578190505b6200037e62000375856200020a565b8301826200030f565b50505b505050565b600082821c905092915050565b6000620003a66000198460080262000386565b1980831691505092915050565b6000620003c1838362000393565b9150826002028217905092915050565b620003dc8262000157565b67ffffffffffffffff811115620003f857620003f762000162565b5b620004048254620001c0565b6200041182828562000336565b600060209050601f83116001811462000449576000841562000434578287015190505b620004408582620003b3565b865550620004b0565b601f1984166200045986620001f5565b60005b8281101562000483578489015182556001820191506020850194506020810190506200045c565b86831015620004a357848901516200049f601f89168262000393565b8355505b6001600288020188555050505b505050505050565b60805161401b620004e2600039600081816105ba01528181610a6c015261115f015261401b6000f3fe608060405234801561001057600080fd5b50600436106101365760003560e01c806355ebad59116100b8578063a37a9fc01161007c578063a37a9fc014610362578063c704c3f114610380578063e985e9c51461039e578063ea075ee1146103ce578063edbd5df8146103fe578063f242432a1461042e57610136565b806355ebad59146102ad5780635d69a710146102de5780636950ed03146102fa5780637a2b372014610316578063a22cb4651461034657610136565b8063313dab20116100ff578063313dab201461020557806344b70ac4146102235780634c25d197146102415780634cf5317b1461025f5780634e1273f41461027d57610136565b8062fdd58e1461013b57806301ffc9a71461016b5780630e89341c1461019b5780632bd7cd17146101cb5780632eb2c2d6146101e9575b600080fd5b61015560048036038101906101509190612691565b61044a565b60405161016291906126e0565b60405180910390f35b61018560048036038101906101809190612753565b610512565b604051610192919061279b565b60405180910390f35b6101b560048036038101906101b091906127b6565b610524565b6040516101c29190612873565b60405180910390f35b6101d36105b8565b6040516101e091906128f4565b60405180910390f35b61020360048036038101906101fe9190612b0c565b6105dc565b005b61020d61067d565b60405161021a91906126e0565b60405180910390f35b61022b610683565b60405161023891906126e0565b60405180910390f35b610249610688565b60405161025691906126e0565b60405180910390f35b61026761068e565b60405161027491906126e0565b60405180910390f35b61029760048036038101906102929190612c9e565b610694565b6040516102a49190612dd4565b60405180910390f35b6102c760048036038101906102c29190612e5c565b6107a7565b6040516102d5929190612f5a565b60405180910390f35b6102f860048036038101906102f39190612f91565b610a25565b005b610314600480360381019061030f9190612fe4565b610d8d565b005b610330600480360381019061032b919061304b565b610fe5565b60405161033d91906126e0565b60405180910390f35b610360600480360381019061035b91906130b2565b6112b8565b005b61036a6112ce565b60405161037791906126e0565b60405180910390f35b6103886112d4565b60405161039591906126e0565b60405180910390f35b6103b860048036038101906103b391906130f2565b6112e0565b6040516103c5919061279b565b60405180910390f35b6103e860048036038101906103e39190612691565b611374565b6040516103f591906126e0565b60405180910390f35b61041860048036038101906104139190612691565b6113fd565b60405161042591906126e0565b60405180910390f35b61044860048036038101906104439190613132565b611428565b005b60008073ffffffffffffffffffffffffffffffffffffffff168373ffffffffffffffffffffffffffffffffffffffff16036104ba576040517f08c379a00000000000000000000000000000000000000000000000000000000081526004016104b19061323b565b60405180910390fd5b60008083815260200190815260200160002060008473ffffffffffffffffffffffffffffffffffffffff1673ffffffffffffffffffffffffffffffffffffffff16815260200190815260200160002054905092915050565b600061051d826114c9565b9050919050565b6060600280546105339061328a565b80601f016020809104026020016040519081016040528092919081815260200182805461055f9061328a565b80156105ac5780601f10610581576101008083540402835291602001916105ac565b820191906000526020600020905b81548152906001019060200180831161058f57829003601f168201915b50505050509050919050565b7f000000000000000000000000000000000000000000000000000000000000000081565b6105e46115ab565b73ffffffffffffffffffffffffffffffffffffffff168573ffffffffffffffffffffffffffffffffffffffff16148061062a5750610629856106246115ab565b6112e0565b5b610669576040517f08c379a00000000000000000000000000000000000000000000000000000000081526004016106609061332d565b60405180910390fd5b61067685858585856115b3565b5050505050565b60045481565b604281565b61247681565b61029a81565b606081518351146106da576040517f08c379a00000000000000000000000000000000000000000000000000000000081526004016106d1906133bf565b60405180910390fd5b6000835167ffffffffffffffff8111156106f7576106f6612914565b5b6040519080825280602002602001820160405280156107255781602001602082028036833780820191505090505b50905060005b845181101561079c5761077285828151811061074a576107496133df565b5b6020026020010151858381518110610765576107646133df565b5b602002602001015161044a565b828281518110610785576107846133df565b5b60200260200101818152505080600101905061072b565b508091505092915050565b6060806000836107bb578461ffff166107cd565b60d88561ffff166107cc919061343d565b5b905060006006600083815260200190815260200160002080548060200260200160405190810160405280929190818152602001828054801561086457602002820191906000526020600020905b8160009054906101000a900473ffffffffffffffffffffffffffffffffffffffff1673ffffffffffffffffffffffffffffffffffffffff168152602001906001019080831161081a575b50505050509050805167ffffffffffffffff81111561088657610885612914565b5b6040519080825280602002602001820160405280156108b45781602001602082028036833780820191505090505b509350805167ffffffffffffffff8111156108d2576108d1612914565b5b6040519080825280602002602001820160405280156109005781602001602082028036833780820191505090505b50925060005b8151811015610a1b576000828281518110610924576109236133df565b5b60200260200101519050600061093a828661044a565b1115610a0d5780868381518110610954576109536133df565b5b602002602001019073ffffffffffffffffffffffffffffffffffffffff16908173ffffffffffffffffffffffffffffffffffffffff1681525050600560008273ffffffffffffffffffffffffffffffffffffffff1673ffffffffffffffffffffffffffffffffffffffff168152602001908152602001600020600085815260200190815260200160002060000154436109ed9190613471565b858381518110610a00576109ff6133df565b5b6020026020010181815250505b508080600101915050610906565b5050509250929050565b610a2d6118ce565b600081610a3e578361ffff16610a50565b60d88461ffff16610a4f919061343d565b5b90506000678ac7230489e8000084610a6891906134a5565b90507f000000000000000000000000000000000000000000000000000000000000000073ffffffffffffffffffffffffffffffffffffffff166323b872dd3330846040518463ffffffff1660e01b8152600401610ac7939291906134f6565b6020604051808303816000875af1158015610ae6573d6000803e3d6000fd5b505050506040513d601f19601f82011682018060405250810190610b0a9190613542565b610b49576040517f08c379a0000000000000000000000000000000000000000000000000000000008152600401610b40906135bb565b60405180910390fd5b61271061247682610b5a91906134a5565b610b64919061360a565b60046000828254610b75919061343d565b92505081905550610b973383866040518060200160405280600081525061191d565b43600560003373ffffffffffffffffffffffffffffffffffffffff1673ffffffffffffffffffffffffffffffffffffffff1681526020019081526020016000206000848152602001908152602001600020600001819055506007600083815260200190815260200160002060003373ffffffffffffffffffffffffffffffffffffffff1673ffffffffffffffffffffffffffffffffffffffff16815260200190815260200160002060009054906101000a900460ff16610d2f5760066000838152602001908152602001600020339080600181540180825580915050600190039060005260206000200160009091909190916101000a81548173ffffffffffffffffffffffffffffffffffffffff021916908373ffffffffffffffffffffffffffffffffffffffff16021790555060016007600084815260200190815260200160002060003373ffffffffffffffffffffffffffffffffffffffff1673ffffffffffffffffffffffffffffffffffffffff16815260200190815260200160002060006101000a81548160ff0219169083151502179055505b813373ffffffffffffffffffffffffffffffffffffffff167fd5fd522cbcc1631fc34044a6a2d3242adb07fb2d862b28f5215ad524dde6763486604051610d7691906126e0565b60405180910390a35050610d88611acd565b505050565b600081610d9e578461ffff16610db0565b60d88561ffff16610daf919061343d565b5b9050600082610dc3578461ffff16610dd5565b60d88561ffff16610dd4919061343d565b5b9050610df33333848760405180602001604052806000815250611ad7565b43600560003373ffffffffffffffffffffffffffffffffffffffff1673ffffffffffffffffffffffffffffffffffffffff1681526020019081526020016000206000838152602001908152602001600020600001819055506007600082815260200190815260200160002060003373ffffffffffffffffffffffffffffffffffffffff1673ffffffffffffffffffffffffffffffffffffffff16815260200190815260200160002060009054906101000a900460ff16610f8b5760066000828152602001908152602001600020339080600181540180825580915050600190039060005260206000200160009091909190916101000a81548173ffffffffffffffffffffffffffffffffffffffff021916908373ffffffffffffffffffffffffffffffffffffffff16021790555060016007600083815260200190815260200160002060003373ffffffffffffffffffffffffffffffffffffffff1673ffffffffffffffffffffffffffffffffffffffff16815260200190815260200160002060006101000a81548160ff0219169083151502179055505b3373ffffffffffffffffffffffffffffffffffffffff167fd90667fc01ab4bc3eacbfafd214b4ec561704309a60f0430b09107ea38702b17838387604051610fd59392919061363b565b60405180910390a2505050505050565b6000610fef6118ce565b600082611000578461ffff16611012565b60d88561ffff16611011919061343d565b5b905060008361102d5760028561102891906134a5565b61103c565b61029a8561103b91906134a5565b5b905080611049338461044a565b101561108a576040517f08c379a0000000000000000000000000000000000000000000000000000000008152600401611081906136be565b60405180910390fd5b84611095888461044a565b10156110d6576040517f08c379a00000000000000000000000000000000000000000000000000000000081526004016110cd9061372a565b60405180910390fd5b60006110e28884611374565b90506000856110f157866110ff565b6042876110fe91906134a5565b5b905061110c898589611d72565b611117338583611d72565b600061271061029a8461112a91906134a5565b611134919061360a565b905080836111429190613471565b955082600460008282546111569190613471565b925050819055507f000000000000000000000000000000000000000000000000000000000000000073ffffffffffffffffffffffffffffffffffffffff1663a9059cbb33886040518363ffffffff1660e01b81526004016111b892919061374a565b6020604051808303816000875af11580156111d7573d6000803e3d6000fd5b505050506040513d601f19601f820116820180604052508101906111fb9190613542565b61123a576040517f08c379a0000000000000000000000000000000000000000000000000000000008152600401611231906137bf565b60405180910390fd5b8973ffffffffffffffffffffffffffffffffffffffff163373ffffffffffffffffffffffffffffffffffffffff167f3a0f8ff9630ddea131e18c99eea14235d84cb8eae4e672cce74d13aa37a4b177878b8a60405161129b9392919061363b565b60405180910390a350505050506112b0611acd565b949350505050565b6112ca6112c36115ab565b8383611fb8565b5050565b61029a81565b678ac7230489e8000081565b6000600160008473ffffffffffffffffffffffffffffffffffffffff1673ffffffffffffffffffffffffffffffffffffffff16815260200190815260200160002060008373ffffffffffffffffffffffffffffffffffffffff1673ffffffffffffffffffffffffffffffffffffffff16815260200190815260200160002060009054906101000a900460ff16905092915050565b600080600560008573ffffffffffffffffffffffffffffffffffffffff1673ffffffffffffffffffffffffffffffffffffffff168152602001908152602001600020600084815260200190815260200160002060000154436113d69190613471565b9050620f4240816004546113ea91906134a5565b6113f4919061360a565b91505092915050565b6005602052816000526040600020602052806000526040600020600091509150508060000154905081565b6114306115ab565b73ffffffffffffffffffffffffffffffffffffffff168573ffffffffffffffffffffffffffffffffffffffff1614806114765750611475856114706115ab565b6112e0565b5b6114b5576040517f08c379a00000000000000000000000000000000000000000000000000000000081526004016114ac9061332d565b60405180910390fd5b6114c28585858585611ad7565b5050505050565b60007fd9b67a26000000000000000000000000000000000000000000000000000000007bffffffffffffffffffffffffffffffffffffffffffffffffffffffff1916827bffffffffffffffffffffffffffffffffffffffffffffffffffffffff1916148061159457507f0e89341c000000000000000000000000000000000000000000000000000000007bffffffffffffffffffffffffffffffffffffffffffffffffffffffff1916827bffffffffffffffffffffffffffffffffffffffffffffffffffffffff1916145b806115a457506115a382612124565b5b9050919050565b600033905090565b81518351146115f7576040517f08c379a00000000000000000000000000000000000000000000000000000000081526004016115ee90613851565b60405180910390fd5b600073ffffffffffffffffffffffffffffffffffffffff168473ffffffffffffffffffffffffffffffffffffffff1603611666576040517f08c379a000000000000000000000000000000000000000000000000000000000815260040161165d906138e3565b60405180910390fd5b60006116706115ab565b905061168081878787878761218e565b60005b845181101561182b5760008582815181106116a1576116a06133df565b5b6020026020010151905060008583815181106116c0576116bf6133df565b5b60200260200101519050600080600084815260200190815260200160002060008b73ffffffffffffffffffffffffffffffffffffffff1673ffffffffffffffffffffffffffffffffffffffff16815260200190815260200160002054905081811015611761576040517f08c379a000000000000000000000000000000000000000000000000000000000815260040161175890613975565b60405180910390fd5b81810360008085815260200190815260200160002060008c73ffffffffffffffffffffffffffffffffffffffff1673ffffffffffffffffffffffffffffffffffffffff168152602001908152602001600020819055508160008085815260200190815260200160002060008b73ffffffffffffffffffffffffffffffffffffffff1673ffffffffffffffffffffffffffffffffffffffff1681526020019081526020016000206000828254611816919061343d565b92505081905550505050806001019050611683565b508473ffffffffffffffffffffffffffffffffffffffff168673ffffffffffffffffffffffffffffffffffffffff168273ffffffffffffffffffffffffffffffffffffffff167f4a39dc06d4c0dbc64b70af90fd698a233a518aa5d07e595d983b8c0526c8f7fb87876040516118a2929190613995565b60405180910390a46118b8818787878787612196565b6118c681878787878761219e565b505050505050565b600260035403611913576040517f08c379a000000000000000000000000000000000000000000000000000000000815260040161190a90613a18565b60405180910390fd5b6002600381905550565b600073ffffffffffffffffffffffffffffffffffffffff168473ffffffffffffffffffffffffffffffffffffffff160361198c576040517f08c379a000000000000000000000000000000000000000000000000000000000815260040161198390613aaa565b60405180910390fd5b60006119966115ab565b905060006119a385612375565b905060006119b085612375565b90506119c18360008985858961218e565b8460008088815260200190815260200160002060008973ffffffffffffffffffffffffffffffffffffffff1673ffffffffffffffffffffffffffffffffffffffff1681526020019081526020016000206000828254611a20919061343d565b925050819055508673ffffffffffffffffffffffffffffffffffffffff16600073ffffffffffffffffffffffffffffffffffffffff168473ffffffffffffffffffffffffffffffffffffffff167fc3d58168c5ae7397731d063d5bbf3d657854427343f4c083240f7aacaa2d0f628989604051611a9e929190613aca565b60405180910390a4611ab583600089858589612196565b611ac4836000898989896123ef565b50505050505050565b6001600381905550565b600073ffffffffffffffffffffffffffffffffffffffff168473ffffffffffffffffffffffffffffffffffffffff1603611b46576040517f08c379a0000000000000000000000000000000000000000000000000000000008152600401611b3d906138e3565b60405180910390fd5b6000611b506115ab565b90506000611b5d85612375565b90506000611b6a85612375565b9050611b7a83898985858961218e565b600080600088815260200190815260200160002060008a73ffffffffffffffffffffffffffffffffffffffff1673ffffffffffffffffffffffffffffffffffffffff16815260200190815260200160002054905085811015611c11576040517f08c379a0000000000000000000000000000000000000000000000000000000008152600401611c0890613975565b60405180910390fd5b85810360008089815260200190815260200160002060008b73ffffffffffffffffffffffffffffffffffffffff1673ffffffffffffffffffffffffffffffffffffffff168152602001908152602001600020819055508560008089815260200190815260200160002060008a73ffffffffffffffffffffffffffffffffffffffff1673ffffffffffffffffffffffffffffffffffffffff1681526020019081526020016000206000828254611cc6919061343d565b925050819055508773ffffffffffffffffffffffffffffffffffffffff168973ffffffffffffffffffffffffffffffffffffffff168573ffffffffffffffffffffffffffffffffffffffff167fc3d58168c5ae7397731d063d5bbf3d657854427343f4c083240f7aacaa2d0f628a8a604051611d43929190613aca565b60405180910390a4611d59848a8a86868a612196565b611d67848a8a8a8a8a6123ef565b505050505050505050565b600073ffffffffffffffffffffffffffffffffffffffff168373ffffffffffffffffffffffffffffffffffffffff1603611de1576040517f08c379a0000000000000000000000000000000000000000000000000000000008152600401611dd890613b65565b60405180910390fd5b6000611deb6115ab565b90506000611df884612375565b90506000611e0584612375565b9050611e258387600085856040518060200160405280600081525061218e565b600080600087815260200190815260200160002060008873ffffffffffffffffffffffffffffffffffffffff1673ffffffffffffffffffffffffffffffffffffffff16815260200190815260200160002054905084811015611ebc576040517f08c379a0000000000000000000000000000000000000000000000000000000008152600401611eb390613bf7565b60405180910390fd5b84810360008088815260200190815260200160002060008973ffffffffffffffffffffffffffffffffffffffff1673ffffffffffffffffffffffffffffffffffffffff16815260200190815260200160002081905550600073ffffffffffffffffffffffffffffffffffffffff168773ffffffffffffffffffffffffffffffffffffffff168573ffffffffffffffffffffffffffffffffffffffff167fc3d58168c5ae7397731d063d5bbf3d657854427343f4c083240f7aacaa2d0f628989604051611f89929190613aca565b60405180910390a4611faf84886000868660405180602001604052806000815250612196565b50505050505050565b8173ffffffffffffffffffffffffffffffffffffffff168373ffffffffffffffffffffffffffffffffffffffff1603612026576040517f08c379a000000000000000000000000000000000000000000000000000000000815260040161201d90613c89565b60405180910390fd5b80600160008573ffffffffffffffffffffffffffffffffffffffff1673ffffffffffffffffffffffffffffffffffffffff16815260200190815260200160002060008473ffffffffffffffffffffffffffffffffffffffff1673ffffffffffffffffffffffffffffffffffffffff16815260200190815260200160002060006101000a81548160ff0219169083151502179055508173ffffffffffffffffffffffffffffffffffffffff168373ffffffffffffffffffffffffffffffffffffffff167f17307eab39ab6107e8899845ad3d59bd9653f200f220920489ca2b5937696c3183604051612117919061279b565b60405180910390a3505050565b60007f01ffc9a7000000000000000000000000000000000000000000000000000000007bffffffffffffffffffffffffffffffffffffffffffffffffffffffff1916827bffffffffffffffffffffffffffffffffffffffffffffffffffffffff1916149050919050565b505050505050565b505050505050565b6121bd8473ffffffffffffffffffffffffffffffffffffffff166125c6565b1561236d578373ffffffffffffffffffffffffffffffffffffffff1663bc197c8187878686866040518663ffffffff1660e01b8152600401612203959493929190613cfe565b6020604051808303816000875af192505050801561223f57506040513d601f19601f8201168201806040525081019061223c9190613d7b565b60015b6122e45761224b613db5565b806308c379a0036122a7575061225f613dd7565b8061226a57506122a9565b806040517f08c379a000000000000000000000000000000000000000000000000000000000815260040161229e9190612873565b60405180910390fd5b505b6040517f08c379a00000000000000000000000000000000000000000000000000000000081526004016122db90613ed9565b60405180910390fd5b63bc197c8160e01b7bffffffffffffffffffffffffffffffffffffffffffffffffffffffff1916817bffffffffffffffffffffffffffffffffffffffffffffffffffffffff19161461236b576040517f08c379a000000000000000000000000000000000000000000000000000000000815260040161236290613f6b565b60405180910390fd5b505b505050505050565b60606000600167ffffffffffffffff81111561239457612393612914565b5b6040519080825280602002602001820160405280156123c25781602001602082028036833780820191505090505b50905082816000815181106123da576123d96133df565b5b60200260200101818152505080915050919050565b61240e8473ffffffffffffffffffffffffffffffffffffffff166125c6565b156125be578373ffffffffffffffffffffffffffffffffffffffff1663f23a6e6187878686866040518663ffffffff1660e01b8152600401612454959493929190613f8b565b6020604051808303816000875af192505050801561249057506040513d601f19601f8201168201806040525081019061248d9190613d7b565b60015b6125355761249c613db5565b806308c379a0036124f857506124b0613dd7565b806124bb57506124fa565b806040517f08c379a00000000000000000000000000000000000000000000000000000000081526004016124ef9190612873565b60405180910390fd5b505b6040517f08c379a000000000000000000000000000000000000000000000000000000000815260040161252c90613ed9565b60405180910390fd5b63f23a6e6160e01b7bffffffffffffffffffffffffffffffffffffffffffffffffffffffff1916817bffffffffffffffffffffffffffffffffffffffffffffffffffffffff1916146125bc576040517f08c379a00000000000000000000000000000000000000000000000000000000081526004016125b390613f6b565b60405180910390fd5b505b505050505050565b6000808273ffffffffffffffffffffffffffffffffffffffff163b119050919050565b6000604051905090565b600080fd5b600080fd5b600073ffffffffffffffffffffffffffffffffffffffff82169050919050565b6000612628826125fd565b9050919050565b6126388161261d565b811461264357600080fd5b50565b6000813590506126558161262f565b92915050565b6000819050919050565b61266e8161265b565b811461267957600080fd5b50565b60008135905061268b81612665565b92915050565b600080604083850312156126a8576126a76125f3565b5b60006126b685828601612646565b92505060206126c78582860161267c565b9150509250929050565b6126da8161265b565b82525050565b60006020820190506126f560008301846126d1565b92915050565b60007fffffffff0000000000000000000000000000000000000000000000000000000082169050919050565b612730816126fb565b811461273b57600080fd5b50565b60008135905061274d81612727565b92915050565b600060208284031215612769576127686125f3565b5b60006127778482850161273e565b91505092915050565b60008115159050919050565b61279581612780565b82525050565b60006020820190506127b0600083018461278c565b92915050565b6000602082840312156127cc576127cb6125f3565b5b60006127da8482850161267c565b91505092915050565b600081519050919050565b600082825260208201905092915050565b60005b8381101561281d578082015181840152602081019050612802565b60008484015250505050565b6000601f19601f8301169050919050565b6000612845826127e3565b61284f81856127ee565b935061285f8185602086016127ff565b61286881612829565b840191505092915050565b6000602082019050818103600083015261288d818461283a565b905092915050565b6000819050919050565b60006128ba6128b56128b0846125fd565b612895565b6125fd565b9050919050565b60006128cc8261289f565b9050919050565b60006128de826128c1565b9050919050565b6128ee816128d3565b82525050565b600060208201905061290960008301846128e5565b92915050565b600080fd5b7f4e487b7100000000000000000000000000000000000000000000000000000000600052604160045260246000fd5b61294c82612829565b810181811067ffffffffffffffff8211171561296b5761296a612914565b5b80604052505050565b600061297e6125e9565b905061298a8282612943565b919050565b600067ffffffffffffffff8211156129aa576129a9612914565b5b602082029050602081019050919050565b600080fd5b60006129d36129ce8461298f565b612974565b905080838252602082019050602084028301858111156129f6576129f56129bb565b5b835b81811015612a1f5780612a0b888261267c565b8452602084019350506020810190506129f8565b5050509392505050565b600082601f830112612a3e57612a3d61290f565b5b8135612a4e8482602086016129c0565b91505092915050565b600080fd5b600067ffffffffffffffff821115612a7757612a76612914565b5b612a8082612829565b9050602081019050919050565b82818337600083830152505050565b6000612aaf612aaa84612a5c565b612974565b905082815260208101848484011115612acb57612aca612a57565b5b612ad6848285612a8d565b509392505050565b600082601f830112612af357612af261290f565b5b8135612b03848260208601612a9c565b91505092915050565b600080600080600060a08688031215612b2857612b276125f3565b5b6000612b3688828901612646565b9550506020612b4788828901612646565b945050604086013567ffffffffffffffff811115612b6857612b676125f8565b5b612b7488828901612a29565b935050606086013567ffffffffffffffff811115612b9557612b946125f8565b5b612ba188828901612a29565b925050608086013567ffffffffffffffff811115612bc257612bc16125f8565b5b612bce88828901612ade565b9150509295509295909350565b600067ffffffffffffffff821115612bf657612bf5612914565b5b602082029050602081019050919050565b6000612c1a612c1584612bdb565b612974565b90508083825260208201905060208402830185811115612c3d57612c3c6129bb565b5b835b81811015612c665780612c528882612646565b845260208401935050602081019050612c3f565b5050509392505050565b600082601f830112612c8557612c8461290f565b5b8135612c95848260208601612c07565b91505092915050565b60008060408385031215612cb557612cb46125f3565b5b600083013567ffffffffffffffff811115612cd357612cd26125f8565b5b612cdf85828601612c70565b925050602083013567ffffffffffffffff811115612d0057612cff6125f8565b5b612d0c85828601612a29565b9150509250929050565b600081519050919050565b600082825260208201905092915050565b6000819050602082019050919050565b612d4b8161265b565b82525050565b6000612d5d8383612d42565b60208301905092915050565b6000602082019050919050565b6000612d8182612d16565b612d8b8185612d21565b9350612d9683612d32565b8060005b83811015612dc7578151612dae8882612d51565b9750612db983612d69565b925050600181019050612d9a565b5085935050505092915050565b60006020820190508181036000830152612dee8184612d76565b905092915050565b600061ffff82169050919050565b612e0d81612df6565b8114612e1857600080fd5b50565b600081359050612e2a81612e04565b92915050565b612e3981612780565b8114612e4457600080fd5b50565b600081359050612e5681612e30565b92915050565b60008060408385031215612e7357612e726125f3565b5b6000612e8185828601612e1b565b9250506020612e9285828601612e47565b9150509250929050565b600081519050919050565b600082825260208201905092915050565b6000819050602082019050919050565b612ed18161261d565b82525050565b6000612ee38383612ec8565b60208301905092915050565b6000602082019050919050565b6000612f0782612e9c565b612f118185612ea7565b9350612f1c83612eb8565b8060005b83811015612f4d578151612f348882612ed7565b9750612f3f83612eef565b925050600181019050612f20565b5085935050505092915050565b60006040820190508181036000830152612f748185612efc565b90508181036020830152612f888184612d76565b90509392505050565b600080600060608486031215612faa57612fa96125f3565b5b6000612fb886828701612e1b565b9350506020612fc98682870161267c565b9250506040612fda86828701612e47565b9150509250925092565b60008060008060808587031215612ffe57612ffd6125f3565b5b600061300c87828801612e1b565b945050602061301d87828801612e1b565b935050604061302e8782880161267c565b925050606061303f87828801612e47565b91505092959194509250565b60008060008060808587031215613065576130646125f3565b5b600061307387828801612646565b945050602061308487828801612e1b565b93505060406130958782880161267c565b92505060606130a687828801612e47565b91505092959194509250565b600080604083850312156130c9576130c86125f3565b5b60006130d785828601612646565b92505060206130e885828601612e47565b9150509250929050565b60008060408385031215613109576131086125f3565b5b600061311785828601612646565b925050602061312885828601612646565b9150509250929050565b600080600080600060a0868803121561314e5761314d6125f3565b5b600061315c88828901612646565b955050602061316d88828901612646565b945050604061317e8882890161267c565b935050606061318f8882890161267c565b925050608086013567ffffffffffffffff8111156131b0576131af6125f8565b5b6131bc88828901612ade565b9150509295509295909350565b7f455243313135353a2061646472657373207a65726f206973206e6f742061207660008201527f616c6964206f776e657200000000000000000000000000000000000000000000602082015250565b6000613225602a836127ee565b9150613230826131c9565b604082019050919050565b6000602082019050818103600083015261325481613218565b9050919050565b7f4e487b7100000000000000000000000000000000000000000000000000000000600052602260045260246000fd5b600060028204905060018216806132a257607f821691505b6020821081036132b5576132b461325b565b5b50919050565b7f455243313135353a2063616c6c6572206973206e6f7420746f6b656e206f776e60008201527f6572206f7220617070726f766564000000000000000000000000000000000000602082015250565b6000613317602e836127ee565b9150613322826132bb565b604082019050919050565b600060208201905081810360008301526133468161330a565b9050919050565b7f455243313135353a206163636f756e747320616e6420696473206c656e67746860008201527f206d69736d617463680000000000000000000000000000000000000000000000602082015250565b60006133a96029836127ee565b91506133b48261334d565b604082019050919050565b600060208201905081810360008301526133d88161339c565b9050919050565b7f4e487b7100000000000000000000000000000000000000000000000000000000600052603260045260246000fd5b7f4e487b7100000000000000000000000000000000000000000000000000000000600052601160045260246000fd5b60006134488261265b565b91506134538361265b565b925082820190508082111561346b5761346a61340e565b5b92915050565b600061347c8261265b565b91506134878361265b565b925082820390508181111561349f5761349e61340e565b5b92915050565b60006134b08261265b565b91506134bb8361265b565b92508282026134c98161265b565b915082820484148315176134e0576134df61340e565b5b5092915050565b6134f08161261d565b82525050565b600060608201905061350b60008301866134e7565b61351860208301856134e7565b61352560408301846126d1565b949350505050565b60008151905061353c81612e30565b92915050565b600060208284031215613558576135576125f3565b5b60006135668482850161352d565b91505092915050565b7f537061776e205061796d656e74204661696c6564000000000000000000000000600082015250565b60006135a56014836127ee565b91506135b08261356f565b602082019050919050565b600060208201905081810360008301526135d481613598565b9050919050565b7f4e487b7100000000000000000000000000000000000000000000000000000000600052601260045260246000fd5b60006136158261265b565b91506136208361265b565b9250826136305761362f6135db565b5b828204905092915050565b600060608201905061365060008301866126d1565b61365d60208301856126d1565b61366a60408301846126d1565b949350505050565b7f496e73756666696369656e7420466f7263650000000000000000000000000000600082015250565b60006136a86012836127ee565b91506136b382613672565b602082019050919050565b600060208201905081810360008301526136d78161369b565b9050919050565b7f54617267657420737461636b20746f6f20736d616c6c00000000000000000000600082015250565b60006137146016836127ee565b915061371f826136de565b602082019050919050565b6000602082019050818103600083015261374381613707565b9050919050565b600060408201905061375f60008301856134e7565b61376c60208301846126d1565b9392505050565b7f426f756e7479205472616e73666572204661696c656400000000000000000000600082015250565b60006137a96016836127ee565b91506137b482613773565b602082019050919050565b600060208201905081810360008301526137d88161379c565b9050919050565b7f455243313135353a2069647320616e6420616d6f756e7473206c656e6774682060008201527f6d69736d61746368000000000000000000000000000000000000000000000000602082015250565b600061383b6028836127ee565b9150613846826137df565b604082019050919050565b6000602082019050818103600083015261386a8161382e565b9050919050565b7f455243313135353a207472616e7366657220746f20746865207a65726f20616460008201527f6472657373000000000000000000000000000000000000000000000000000000602082015250565b60006138cd6025836127ee565b91506138d882613871565b604082019050919050565b600060208201905081810360008301526138fc816138c0565b9050919050565b7f455243313135353a20696e73756666696369656e742062616c616e636520666f60008201527f72207472616e7366657200000000000000000000000000000000000000000000602082015250565b600061395f602a836127ee565b915061396a82613903565b604082019050919050565b6000602082019050818103600083015261398e81613952565b9050919050565b600060408201905081810360008301526139af8185612d76565b905081810360208301526139c38184612d76565b90509392505050565b7f5265656e7472616e637947756172643a207265656e7472616e742063616c6c00600082015250565b6000613a02601f836127ee565b9150613a0d826139cc565b602082019050919050565b60006020820190508181036000830152613a31816139f5565b9050919050565b7f455243313135353a206d696e7420746f20746865207a65726f2061646472657360008201527f7300000000000000000000000000000000000000000000000000000000000000602082015250565b6000613a946021836127ee565b9150613a9f82613a38565b604082019050919050565b60006020820190508181036000830152613ac381613a87565b9050919050565b6000604082019050613adf60008301856126d1565b613aec60208301846126d1565b9392505050565b7f455243313135353a206275726e2066726f6d20746865207a65726f206164647260008201527f6573730000000000000000000000000000000000000000000000000000000000602082015250565b6000613b4f6023836127ee565b9150613b5a82613af3565b604082019050919050565b60006020820190508181036000830152613b7e81613b42565b9050919050565b7f455243313135353a206275726e20616d6f756e7420657863656564732062616c60008201527f616e636500000000000000000000000000000000000000000000000000000000602082015250565b6000613be16024836127ee565b9150613bec82613b85565b604082019050919050565b60006020820190508181036000830152613c1081613bd4565b9050919050565b7f455243313135353a2073657474696e6720617070726f76616c2073746174757360008201527f20666f722073656c660000000000000000000000000000000000000000000000602082015250565b6000613c736029836127ee565b9150613c7e82613c17565b604082019050919050565b60006020820190508181036000830152613ca281613c66565b9050919050565b600081519050919050565b600082825260208201905092915050565b6000613cd082613ca9565b613cda8185613cb4565b9350613cea8185602086016127ff565b613cf381612829565b840191505092915050565b600060a082019050613d1360008301886134e7565b613d2060208301876134e7565b8181036040830152613d328186612d76565b90508181036060830152613d468185612d76565b90508181036080830152613d5a8184613cc5565b90509695505050505050565b600081519050613d7581612727565b92915050565b600060208284031215613d9157613d906125f3565b5b6000613d9f84828501613d66565b91505092915050565b60008160e01c9050919050565b600060033d1115613dd45760046000803e613dd1600051613da8565b90505b90565b600060443d10613e6457613de96125e9565b60043d036004823e80513d602482011167ffffffffffffffff82111715613e11575050613e64565b808201805167ffffffffffffffff811115613e2f5750505050613e64565b80602083010160043d038501811115613e4c575050505050613e64565b613e5b82602001850186612943565b82955050505050505b90565b7f455243313135353a207472616e7366657220746f206e6f6e2d4552433131353560008201527f526563656976657220696d706c656d656e746572000000000000000000000000602082015250565b6000613ec36034836127ee565b9150613ece82613e67565b604082019050919050565b60006020820190508181036000830152613ef281613eb6565b9050919050565b7f455243313135353a204552433131353552656365697665722072656a6563746560008201527f6420746f6b656e73000000000000000000000000000000000000000000000000602082015250565b6000613f556028836127ee565b9150613f6082613ef9565b604082019050919050565b60006020820190508181036000830152613f8481613f48565b9050919050565b600060a082019050613fa060008301886134e7565b613fad60208301876134e7565b613fba60408301866126d1565b613fc760608301856126d1565b8181036080830152613fd98184613cc5565b9050969550505050505056fea26469706673582212208ff40f37cb92b0c1ecea284b4003baa722bb11e8c6f2700ff0c6f13dbb42dfb564736f6c6343000818003368747470733a2f2f6170692e6b696c6c67616d652e61692f6d657461646174612f7b69647d2e6a736f6e",
  "linkReferences": {},
  "deployedLinkReferences": {}
}