{
  "_format": "hh-sol-artifact-1",
  "contractName": "KILLGame",
  "sourceName": "contracts/KillGame.sol",
  "abi": [
    {
      "inputs": [],
      "stateMutability": "nonpayable",
      "type": "constructor"
    },
    {
      "anonymous": false,
      "inputs": [
        {
          "indexed": true,
          "internalType": "address",
          "name": "account",
          "type": "address"
        },
        {
          "indexed": true,
          "internalType": "address",
          "name": "operator",
          "type": "address"
        },
        {
          "indexed": false,
          "internalType": "bool",
          "name": "approved",
          "type": "bool"
        }
      ],
      "name": "ApprovalForAll",
      "type": "event"
    },
    {
      "anonymous": false,
      "inputs": [
        {
          "indexed": true,
          "internalType": "address",
          "name": "operator",
          "type": "address"
        },
        {
          "indexed": true,
          "internalType": "address",
          "name": "from",
          "type": "address"
        },
        {
          "indexed": true,
          "internalType": "address",
          "name": "to",
          "type": "address"
        },
        {
          "indexed": false,
          "internalType": "uint256[]",
          "name": "ids",
          "type": "uint256[]"
        },
        {
          "indexed": false,
          "internalType": "uint256[]",
          "name": "values",
          "type": "uint256[]"
        }
      ],
      "name": "TransferBatch",
      "type": "event"
    },
    {
      "anonymous": false,
      "inputs": [
        {
          "indexed": true,
          "internalType": "address",
          "name": "operator",
          "type": "address"
        },
        {
          "indexed": true,
          "internalType": "address",
          "name": "from",
          "type": "address"
        },
        {
          "indexed": true,
          "internalType": "address",
          "name": "to",
          "type": "address"
        },
        {
          "indexed": false,
          "internalType": "uint256",
          "name": "id",
          "type": "uint256"
        },
        {
          "indexed": false,
          "internalType": "uint256",
          "name": "value",
          "type": "uint256"
        }
      ],
      "name": "TransferSingle",
      "type": "event"
    },
    {
      "anonymous": false,
      "inputs": [
        {
          "indexed": false,
          "internalType": "string",
          "name": "value",
          "type": "string"
        },
        {
          "indexed": true,
          "internalType": "uint256",
          "name": "id",
          "type": "uint256"
        }
      ],
      "name": "URI",
      "type": "event"
    },
    {
      "inputs": [],
      "name": "BOOST_RECOIL",
      "outputs": [
        {
          "internalType": "uint256",
          "name": "",
          "type": "uint256"
        }
      ],
      "stateMutability": "view",
      "type": "function"
    },
    {
      "inputs": [],
      "name": "BOOST_REQUIRED",
      "outputs": [
        {
          "internalType": "uint256",
          "name": "",
          "type": "uint256"
        }
      ],
      "stateMutability": "view",
      "type": "function"
    },
    {
      "inputs": [],
      "name": "BURN_BPS",
      "outputs": [
        {
          "internalType": "uint256",
          "name": "",
          "type": "uint256"
        }
      ],
      "stateMutability": "view",
      "type": "function"
    },
    {
      "inputs": [],
      "name": "SPAWN_COST",
      "outputs": [
        {
          "internalType": "uint256",
          "name": "",
          "type": "uint256"
        }
      ],
      "stateMutability": "view",
      "type": "function"
    },
    {
      "inputs": [],
      "name": "TREASURY_BPS",
      "outputs": [
        {
          "internalType": "uint256",
          "name": "",
          "type": "uint256"
        }
      ],
      "stateMutability": "view",
      "type": "function"
    },
    {
      "inputs": [
        {
          "internalType": "address",
          "name": "",
          "type": "address"
        },
        {
          "internalType": "uint256",
          "name": "",
          "type": "uint256"
        }
      ],
      "name": "agentStacks",
      "outputs": [
        {
          "internalType": "uint256",
          "name": "birthBlock",
          "type": "uint256"
        }
      ],
      "stateMutability": "view",
      "type": "function"
    },
    {
      "inputs": [
        {
          "internalType": "address",
          "name": "account",
          "type": "address"
        },
        {
          "internalType": "uint256",
          "name": "id",
          "type": "uint256"
        }
      ],
      "name": "balanceOf",
      "outputs": [
        {
          "internalType": "uint256",
          "name": "",
          "type": "uint256"
        }
      ],
      "stateMutability": "view",
      "type": "function"
    },
    {
      "inputs": [
        {
          "internalType": "address[]",
          "name": "accounts",
          "type": "address[]"
        },
        {
          "internalType": "uint256[]",
          "name": "ids",
          "type": "uint256[]"
        }
      ],
      "name": "balanceOfBatch",
      "outputs": [
        {
          "internalType": "uint256[]",
          "name": "",
          "type": "uint256[]"
        }
      ],
      "stateMutability": "view",
      "type": "function"
    },
    {
      "inputs": [
        {
          "internalType": "address",
          "name": "agent",
          "type": "address"
        },
        {
          "internalType": "uint256",
          "name": "tokenId",
          "type": "uint256"
        }
      ],
      "name": "getPendingBounty",
      "outputs": [
        {
          "internalType": "uint256",
          "name": "",
          "type": "uint256"
        }
      ],
      "stateMutability": "view",
      "type": "function"
    },
    {
      "inputs": [
        {
          "internalType": "uint16",
          "name": "",
          "type": "uint16"
        }
      ],
      "name": "grid",
      "outputs": [
        {
          "internalType": "uint16",
          "name": "id",
          "type": "uint16"
        },
        {
          "internalType": "uint256",
          "name": "totalUnits",
          "type": "uint256"
        }
      ],
      "stateMutability": "view",
      "type": "function"
    },
    {
      "inputs": [
        {
          "internalType": "address",
          "name": "account",
          "type": "address"
        },
        {
          "internalType": "address",
          "name": "operator",
          "type": "address"
        }
      ],
      "name": "isApprovedForAll",
      "outputs": [
        {
          "internalType": "bool",
          "name": "",
          "type": "bool"
        }
      ],
      "stateMutability": "view",
      "type": "function"
    },
    {
      "inputs": [
        {
          "internalType": "address",
          "name": "target",
          "type": "address"
        },
        {
          "internalType": "uint16",
          "name": "cube",
          "type": "uint16"
        },
        {
          "internalType": "uint256",
          "name": "amountToKill",
          "type": "uint256"
        },
        {
          "internalType": "bool",
          "name": "boosted",
          "type": "bool"
        }
      ],
      "name": "kill",
      "outputs": [
        {
          "internalType": "uint256",
          "name": "bountyPaid",
          "type": "uint256"
        }
      ],
      "stateMutability": "nonpayable",
      "type": "function"
    },
    {
      "inputs": [
        {
          "internalType": "uint16",
          "name": "fromCube",
          "type": "uint16"
        },
        {
          "internalType": "uint16",
          "name": "toCube",
          "type": "uint16"
        },
        {
          "internalType": "uint256",
          "name": "units",
          "type": "uint256"
        },
        {
          "internalType": "bool",
          "name": "boosted",
          "type": "bool"
        }
      ],
      "name": "move",
      "outputs": [],
      "stateMutability": "nonpayable",
      "type": "function"
    },
    {
      "inputs": [
        {
          "internalType": "address",
          "name": "from",
          "type": "address"
        },
        {
          "internalType": "address",
          "name": "to",
          "type": "address"
        },
        {
          "internalType": "uint256[]",
          "name": "ids",
          "type": "uint256[]"
        },
        {
          "internalType": "uint256[]",
          "name": "amounts",
          "type": "uint256[]"
        },
        {
          "internalType": "bytes",
          "name": "data",
          "type": "bytes"
        }
      ],
      "name": "safeBatchTransferFrom",
      "outputs": [],
      "stateMutability": "nonpayable",
      "type": "function"
    },
    {
      "inputs": [
        {
          "internalType": "address",
          "name": "from",
          "type": "address"
        },
        {
          "internalType": "address",
          "name": "to",
          "type": "address"
        },
        {
          "internalType": "uint256",
          "name": "id",
          "type": "uint256"
        },
        {
          "internalType": "uint256",
          "name": "amount",
          "type": "uint256"
        },
        {
          "internalType": "bytes",
          "name": "data",
          "type": "bytes"
        }
      ],
      "name": "safeTransferFrom",
      "outputs": [],
      "stateMutability": "nonpayable",
      "type": "function"
    },
    {
      "inputs": [
        {
          "internalType": "address",
          "name": "operator",
          "type": "address"
        },
        {
          "internalType": "bool",
          "name": "approved",
          "type": "bool"
        }
      ],
      "name": "setApprovalForAll",
      "outputs": [],
      "stateMutability": "nonpayable",
      "type": "function"
    },
    {
      "inputs": [
        {
          "internalType": "uint16",
          "name": "cube",
          "type": "uint16"
        },
        {
          "internalType": "uint256",
          "name": "units",
          "type": "uint256"
        },
        {
          "internalType": "bool",
          "name": "boosted",
          "type": "bool"
        }
      ],
      "name": "spawn",
      "outputs": [],
      "stateMutability": "payable",
      "type": "function"
    },
    {
      "inputs": [
        {
          "internalType": "bytes4",
          "name": "interfaceId",
          "type": "bytes4"
        }
      ],
      "name": "supportsInterface",
      "outputs": [
        {
          "internalType": "bool",
          "name": "",
          "type": "bool"
        }
      ],
      "stateMutability": "view",
      "type": "function"
    },
    {
      "inputs": [],
      "name": "treasuryBalance",
      "outputs": [
        {
          "internalType": "uint256",
          "name": "",
          "type": "uint256"
        }
      ],
      "stateMutability": "view",
      "type": "function"
    },
    {
      "inputs": [
        {
          "internalType": "uint256",
          "name": "",
          "type": "uint256"
        }
      ],
      "name": "uri",
      "outputs": [
        {
          "internalType": "string",
          "name": "",
          "type": "string"
        }
      ],
      "stateMutability": "view",
      "type": "function"
    }
  ],
  "bytecode": "0x60806040523480156200001157600080fd5b506040518060600160405280602a815260200162003929602a91396200003d816200004c60201b60201c565b506001600381905550620003c2565b80600290816200005d9190620002db565b5050565b600081519050919050565b7f4e487b7100000000000000000000000000000000000000000000000000000000600052604160045260246000fd5b7f4e487b7100000000000000000000000000000000000000000000000000000000600052602260045260246000fd5b60006002820490506001821680620000e357607f821691505b602082108103620000f957620000f86200009b565b5b50919050565b60008190508160005260206000209050919050565b60006020601f8301049050919050565b600082821b905092915050565b600060088302620001637fffffffffffffffffffffffffffffffffffffffffffffffffffffffffffffffff8262000124565b6200016f868362000124565b95508019841693508086168417925050509392505050565b6000819050919050565b6000819050919050565b6000620001bc620001b6620001b08462000187565b62000191565b62000187565b9050919050565b6000819050919050565b620001d8836200019b565b620001f0620001e782620001c3565b84845462000131565b825550505050565b600090565b62000207620001f8565b62000214818484620001cd565b505050565b5b818110156200023c5762000230600082620001fd565b6001810190506200021a565b5050565b601f8211156200028b576200025581620000ff565b620002608462000114565b8101602085101562000270578190505b620002886200027f8562000114565b83018262000219565b50505b505050565b600082821c905092915050565b6000620002b06000198460080262000290565b1980831691505092915050565b6000620002cb83836200029d565b9150826002028217905092915050565b620002e68262000061565b67ffffffffffffffff8111156200030257620003016200006c565b5b6200030e8254620000ca565b6200031b82828562000240565b600060209050601f8311600181146200035357600084156200033e578287015190505b6200034a8582620002bd565b865550620003ba565b601f1984166200036386620000ff565b60005b828110156200038d5784890151825560018201915060208501945060208101905062000366565b86831015620003ad5784890151620003a9601f8916826200029d565b8355505b6001600288020188555050505b505050505050565b61355780620003d26000396000f3fe60806040526004361061011e5760003560e01c80636950ed03116100a0578063cd000d3311610064578063cd000d33146103ed578063e985e9c51461042b578063ea075ee114610468578063edbd5df8146104a5578063f242432a146104e25761011e565b80636950ed03146103085780637a2b372014610331578063a22cb4651461036e578063a37a9fc014610397578063c704c3f1146103c25761011e565b806344b70ac4116100e757806344b70ac41461022e5780634c25d197146102595780634cf5317b146102845780634e1273f4146102af5780635d69a710146102ec5761011e565b8062fdd58e1461012357806301ffc9a7146101605780630e89341c1461019d5780632eb2c2d6146101da578063313dab2014610203575b600080fd5b34801561012f57600080fd5b5061014a60048036038101906101459190611f34565b61050b565b6040516101579190611f83565b60405180910390f35b34801561016c57600080fd5b5061018760048036038101906101829190611ff6565b6105d3565b604051610194919061203e565b60405180910390f35b3480156101a957600080fd5b506101c460048036038101906101bf9190612059565b6105e5565b6040516101d19190612116565b60405180910390f35b3480156101e657600080fd5b5061020160048036038101906101fc9190612335565b610679565b005b34801561020f57600080fd5b5061021861071a565b6040516102259190611f83565b60405180910390f35b34801561023a57600080fd5b50610243610720565b6040516102509190611f83565b60405180910390f35b34801561026557600080fd5b5061026e610725565b60405161027b9190611f83565b60405180910390f35b34801561029057600080fd5b5061029961072b565b6040516102a69190611f83565b60405180910390f35b3480156102bb57600080fd5b506102d660048036038101906102d191906124c7565b610731565b6040516102e391906125fd565b60405180910390f35b61030660048036038101906103019190612685565b610844565b005b34801561031457600080fd5b5061032f600480360381019061032a91906126d8565b610927565b005b34801561033d57600080fd5b506103586004803603810190610353919061273f565b6109ed565b6040516103659190611f83565b60405180910390f35b34801561037a57600080fd5b50610395600480360381019061039091906127a6565b610b31565b005b3480156103a357600080fd5b506103ac610b47565b6040516103b99190611f83565b60405180910390f35b3480156103ce57600080fd5b506103d7610b4d565b6040516103e49190611f83565b60405180910390f35b3480156103f957600080fd5b50610414600480360381019061040f91906127e6565b610b52565b604051610422929190612822565b60405180910390f35b34801561043757600080fd5b50610452600480360381019061044d919061284b565b610b84565b60405161045f919061203e565b60405180910390f35b34801561047457600080fd5b5061048f600480360381019061048a9190611f34565b610c18565b60405161049c9190611f83565b60405180910390f35b3480156104b157600080fd5b506104cc60048036038101906104c79190611f34565b610ca0565b6040516104d99190611f83565b60405180910390f35b3480156104ee57600080fd5b506105096004803603810190610504919061288b565b610ccb565b005b60008073ffffffffffffffffffffffffffffffffffffffff168373ffffffffffffffffffffffffffffffffffffffff160361057b576040517f08c379a000000000000000000000000000000000000000000000000000000000815260040161057290612994565b60405180910390fd5b60008083815260200190815260200160002060008473ffffffffffffffffffffffffffffffffffffffff1673ffffffffffffffffffffffffffffffffffffffff16815260200190815260200160002054905092915050565b60006105de82610d6c565b9050919050565b6060600280546105f4906129e3565b80601f0160208091040260200160405190810160405280929190818152602001828054610620906129e3565b801561066d5780601f106106425761010080835404028352916020019161066d565b820191906000526020600020905b81548152906001019060200180831161065057829003601f168201915b50505050509050919050565b610681610e4e565b73ffffffffffffffffffffffffffffffffffffffff168573ffffffffffffffffffffffffffffffffffffffff1614806106c757506106c6856106c1610e4e565b610b84565b5b610706576040517f08c379a00000000000000000000000000000000000000000000000000000000081526004016106fd90612a86565b60405180910390fd5b6107138585858585610e56565b5050505050565b60065481565b604281565b61247681565b61029a81565b60608151835114610777576040517f08c379a000000000000000000000000000000000000000000000000000000000815260040161076e90612b18565b60405180910390fd5b6000835167ffffffffffffffff8111156107945761079361213d565b5b6040519080825280602002602001820160405280156107c25781602001602082028036833780820191505090505b50905060005b84518110156108395761080f8582815181106107e7576107e6612b38565b5b602002602001015185838151811061080257610801612b38565b5b602002602001015161050b565b82828151811061082257610821612b38565b5b6020026020010181815250508060010190506107c8565b508091505092915050565b600081610855578361ffff16610867565b60d88461ffff166108669190612b96565b5b90506000600a846108789190612bca565b90506127106124768261088b9190612bca565b6108959190612c3b565b600660008282546108a69190612b96565b925050819055506108c833838660405180602001604052806000815250611171565b43600460003373ffffffffffffffffffffffffffffffffffffffff1673ffffffffffffffffffffffffffffffffffffffff1681526020019081526020016000206000848152602001908152602001600020600001819055505050505050565b600081610938578461ffff1661094a565b60d88561ffff166109499190612b96565b5b905060008261095d578461ffff1661096f565b60d88561ffff1661096e9190612b96565b5b905061098d3333848760405180602001604052806000815250611321565b43600460003373ffffffffffffffffffffffffffffffffffffffff1673ffffffffffffffffffffffffffffffffffffffff168152602001908152602001600020600083815260200190815260200160002060000181905550505050505050565b60006109f76115bc565b600082610a08578461ffff16610a1a565b60d88561ffff16610a199190612b96565b5b9050600083610a3557600285610a309190612bca565b610a44565b61029a85610a439190612bca565b5b905080610a51338461050b565b1015610a92576040517f08c379a0000000000000000000000000000000000000000000000000000000008152600401610a8990612cb8565b60405180910390fd5b610a9c8783610c18565b9250600084610aab5785610ab9565b604286610ab89190612bca565b5b9050610ac688848861160b565b610ad133848361160b565b600061271061029a86610ae49190612bca565b610aee9190612c3b565b905060008186610afe9190612cd8565b90508560066000828254610b129190612cd8565b925050819055508095505050505050610b29611851565b949350505050565b610b43610b3c610e4e565b838361185b565b5050565b61029a81565b600a81565b60056020528060005260406000206000915090508060000160009054906101000a900461ffff16908060010154905082565b6000600160008473ffffffffffffffffffffffffffffffffffffffff1673ffffffffffffffffffffffffffffffffffffffff16815260200190815260200160002060008373ffffffffffffffffffffffffffffffffffffffff1673ffffffffffffffffffffffffffffffffffffffff16815260200190815260200160002060009054906101000a900460ff16905092915050565b600080600460008573ffffffffffffffffffffffffffffffffffffffff1673ffffffffffffffffffffffffffffffffffffffff16815260200190815260200160002060008481526020019081526020016000206000015443610c7a9190612cd8565b905061271081600654610c8d9190612bca565b610c979190612c3b565b91505092915050565b6004602052816000526040600020602052806000526040600020600091509150508060000154905081565b610cd3610e4e565b73ffffffffffffffffffffffffffffffffffffffff168573ffffffffffffffffffffffffffffffffffffffff161480610d195750610d1885610d13610e4e565b610b84565b5b610d58576040517f08c379a0000000000000000000000000000000000000000000000000000000008152600401610d4f90612a86565b60405180910390fd5b610d658585858585611321565b5050505050565b60007fd9b67a26000000000000000000000000000000000000000000000000000000007bffffffffffffffffffffffffffffffffffffffffffffffffffffffff1916827bffffffffffffffffffffffffffffffffffffffffffffffffffffffff19161480610e3757507f0e89341c000000000000000000000000000000000000000000000000000000007bffffffffffffffffffffffffffffffffffffffffffffffffffffffff1916827bffffffffffffffffffffffffffffffffffffffffffffffffffffffff1916145b80610e475750610e46826119c7565b5b9050919050565b600033905090565b8151835114610e9a576040517f08c379a0000000000000000000000000000000000000000000000000000000008152600401610e9190612d7e565b60405180910390fd5b600073ffffffffffffffffffffffffffffffffffffffff168473ffffffffffffffffffffffffffffffffffffffff1603610f09576040517f08c379a0000000000000000000000000000000000000000000000000000000008152600401610f0090612e10565b60405180910390fd5b6000610f13610e4e565b9050610f23818787878787611a31565b60005b84518110156110ce576000858281518110610f4457610f43612b38565b5b602002602001015190506000858381518110610f6357610f62612b38565b5b60200260200101519050600080600084815260200190815260200160002060008b73ffffffffffffffffffffffffffffffffffffffff1673ffffffffffffffffffffffffffffffffffffffff16815260200190815260200160002054905081811015611004576040517f08c379a0000000000000000000000000000000000000000000000000000000008152600401610ffb90612ea2565b60405180910390fd5b81810360008085815260200190815260200160002060008c73ffffffffffffffffffffffffffffffffffffffff1673ffffffffffffffffffffffffffffffffffffffff168152602001908152602001600020819055508160008085815260200190815260200160002060008b73ffffffffffffffffffffffffffffffffffffffff1673ffffffffffffffffffffffffffffffffffffffff16815260200190815260200160002060008282546110b99190612b96565b92505081905550505050806001019050610f26565b508473ffffffffffffffffffffffffffffffffffffffff168673ffffffffffffffffffffffffffffffffffffffff168273ffffffffffffffffffffffffffffffffffffffff167f4a39dc06d4c0dbc64b70af90fd698a233a518aa5d07e595d983b8c0526c8f7fb8787604051611145929190612ec2565b60405180910390a461115b818787878787611a39565b611169818787878787611a41565b505050505050565b600073ffffffffffffffffffffffffffffffffffffffff168473ffffffffffffffffffffffffffffffffffffffff16036111e0576040517f08c379a00000000000000000000000000000000000000000000000000000000081526004016111d790612f6b565b60405180910390fd5b60006111ea610e4e565b905060006111f785611c18565b9050600061120485611c18565b905061121583600089858589611a31565b8460008088815260200190815260200160002060008973ffffffffffffffffffffffffffffffffffffffff1673ffffffffffffffffffffffffffffffffffffffff16815260200190815260200160002060008282546112749190612b96565b925050819055508673ffffffffffffffffffffffffffffffffffffffff16600073ffffffffffffffffffffffffffffffffffffffff168473ffffffffffffffffffffffffffffffffffffffff167fc3d58168c5ae7397731d063d5bbf3d657854427343f4c083240f7aacaa2d0f6289896040516112f2929190612f8b565b60405180910390a461130983600089858589611a39565b61131883600089898989611c92565b50505050505050565b600073ffffffffffffffffffffffffffffffffffffffff168473ffffffffffffffffffffffffffffffffffffffff1603611390576040517f08c379a000000000000000000000000000000000000000000000000000000000815260040161138790612e10565b60405180910390fd5b600061139a610e4e565b905060006113a785611c18565b905060006113b485611c18565b90506113c4838989858589611a31565b600080600088815260200190815260200160002060008a73ffffffffffffffffffffffffffffffffffffffff1673ffffffffffffffffffffffffffffffffffffffff1681526020019081526020016000205490508581101561145b576040517f08c379a000000000000000000000000000000000000000000000000000000000815260040161145290612ea2565b60405180910390fd5b85810360008089815260200190815260200160002060008b73ffffffffffffffffffffffffffffffffffffffff1673ffffffffffffffffffffffffffffffffffffffff168152602001908152602001600020819055508560008089815260200190815260200160002060008a73ffffffffffffffffffffffffffffffffffffffff1673ffffffffffffffffffffffffffffffffffffffff16815260200190815260200160002060008282546115109190612b96565b925050819055508773ffffffffffffffffffffffffffffffffffffffff168973ffffffffffffffffffffffffffffffffffffffff168573ffffffffffffffffffffffffffffffffffffffff167fc3d58168c5ae7397731d063d5bbf3d657854427343f4c083240f7aacaa2d0f628a8a60405161158d929190612f8b565b60405180910390a46115a3848a8a86868a611a39565b6115b1848a8a8a8a8a611c92565b505050505050505050565b600260035403611601576040517f08c379a00000000000000000000000000000000000000000000000000000000081526004016115f890613000565b60405180910390fd5b6002600381905550565b600073ffffffffffffffffffffffffffffffffffffffff168373ffffffffffffffffffffffffffffffffffffffff160361167a576040517f08c379a000000000000000000000000000000000000000000000000000000000815260040161167190613092565b60405180910390fd5b6000611684610e4e565b9050600061169184611c18565b9050600061169e84611c18565b90506116be83876000858560405180602001604052806000815250611a31565b600080600087815260200190815260200160002060008873ffffffffffffffffffffffffffffffffffffffff1673ffffffffffffffffffffffffffffffffffffffff16815260200190815260200160002054905084811015611755576040517f08c379a000000000000000000000000000000000000000000000000000000000815260040161174c90613124565b60405180910390fd5b84810360008088815260200190815260200160002060008973ffffffffffffffffffffffffffffffffffffffff1673ffffffffffffffffffffffffffffffffffffffff16815260200190815260200160002081905550600073ffffffffffffffffffffffffffffffffffffffff168773ffffffffffffffffffffffffffffffffffffffff168573ffffffffffffffffffffffffffffffffffffffff167fc3d58168c5ae7397731d063d5bbf3d657854427343f4c083240f7aacaa2d0f628989604051611822929190612f8b565b60405180910390a461184884886000868660405180602001604052806000815250611a39565b50505050505050565b6001600381905550565b8173ffffffffffffffffffffffffffffffffffffffff168373ffffffffffffffffffffffffffffffffffffffff16036118c9576040517f08c379a00000000000000000000000000000000000000000000000000000000081526004016118c0906131b6565b60405180910390fd5b80600160008573ffffffffffffffffffffffffffffffffffffffff1673ffffffffffffffffffffffffffffffffffffffff16815260200190815260200160002060008473ffffffffffffffffffffffffffffffffffffffff1673ffffffffffffffffffffffffffffffffffffffff16815260200190815260200160002060006101000a81548160ff0219169083151502179055508173ffffffffffffffffffffffffffffffffffffffff168373ffffffffffffffffffffffffffffffffffffffff167f17307eab39ab6107e8899845ad3d59bd9653f200f220920489ca2b5937696c31836040516119ba919061203e565b60405180910390a3505050565b60007f01ffc9a7000000000000000000000000000000000000000000000000000000007bffffffffffffffffffffffffffffffffffffffffffffffffffffffff1916827bffffffffffffffffffffffffffffffffffffffffffffffffffffffff1916149050919050565b505050505050565b505050505050565b611a608473ffffffffffffffffffffffffffffffffffffffff16611e69565b15611c10578373ffffffffffffffffffffffffffffffffffffffff1663bc197c8187878686866040518663ffffffff1660e01b8152600401611aa695949392919061323a565b6020604051808303816000875af1925050508015611ae257506040513d601f19601f82011682018060405250810190611adf91906132b7565b60015b611b8757611aee6132f1565b806308c379a003611b4a5750611b02613313565b80611b0d5750611b4c565b806040517f08c379a0000000000000000000000000000000000000000000000000000000008152600401611b419190612116565b60405180910390fd5b505b6040517f08c379a0000000000000000000000000000000000000000000000000000000008152600401611b7e90613415565b60405180910390fd5b63bc197c8160e01b7bffffffffffffffffffffffffffffffffffffffffffffffffffffffff1916817bffffffffffffffffffffffffffffffffffffffffffffffffffffffff191614611c0e576040517f08c379a0000000000000000000000000000000000000000000000000000000008152600401611c05906134a7565b60405180910390fd5b505b505050505050565b60606000600167ffffffffffffffff811115611c3757611c3661213d565b5b604051908082528060200260200182016040528015611c655781602001602082028036833780820191505090505b5090508281600081518110611c7d57611c7c612b38565b5b60200260200101818152505080915050919050565b611cb18473ffffffffffffffffffffffffffffffffffffffff16611e69565b15611e61578373ffffffffffffffffffffffffffffffffffffffff1663f23a6e6187878686866040518663ffffffff1660e01b8152600401611cf79594939291906134c7565b6020604051808303816000875af1925050508015611d3357506040513d601f19601f82011682018060405250810190611d3091906132b7565b60015b611dd857611d3f6132f1565b806308c379a003611d9b5750611d53613313565b80611d5e5750611d9d565b806040517f08c379a0000000000000000000000000000000000000000000000000000000008152600401611d929190612116565b60405180910390fd5b505b6040517f08c379a0000000000000000000000000000000000000000000000000000000008152600401611dcf90613415565b60405180910390fd5b63f23a6e6160e01b7bffffffffffffffffffffffffffffffffffffffffffffffffffffffff1916817bffffffffffffffffffffffffffffffffffffffffffffffffffffffff191614611e5f576040517f08c379a0000000000000000000000000000000000000000000000000000000008152600401611e56906134a7565b60405180910390fd5b505b505050505050565b6000808273ffffffffffffffffffffffffffffffffffffffff163b119050919050565b6000604051905090565b600080fd5b600080fd5b600073ffffffffffffffffffffffffffffffffffffffff82169050919050565b6000611ecb82611ea0565b9050919050565b611edb81611ec0565b8114611ee657600080fd5b50565b600081359050611ef881611ed2565b92915050565b6000819050919050565b611f1181611efe565b8114611f1c57600080fd5b50565b600081359050611f2e81611f08565b92915050565b60008060408385031215611f4b57611f4a611e96565b5b6000611f5985828601611ee9565b9250506020611f6a85828601611f1f565b9150509250929050565b611f7d81611efe565b82525050565b6000602082019050611f986000830184611f74565b92915050565b60007fffffffff0000000000000000000000000000000000000000000000000000000082169050919050565b611fd381611f9e565b8114611fde57600080fd5b50565b600081359050611ff081611fca565b92915050565b60006020828403121561200c5761200b611e96565b5b600061201a84828501611fe1565b91505092915050565b60008115159050919050565b61203881612023565b82525050565b6000602082019050612053600083018461202f565b92915050565b60006020828403121561206f5761206e611e96565b5b600061207d84828501611f1f565b91505092915050565b600081519050919050565b600082825260208201905092915050565b60005b838110156120c05780820151818401526020810190506120a5565b60008484015250505050565b6000601f19601f8301169050919050565b60006120e882612086565b6120f28185612091565b93506121028185602086016120a2565b61210b816120cc565b840191505092915050565b6000602082019050818103600083015261213081846120dd565b905092915050565b600080fd5b7f4e487b7100000000000000000000000000000000000000000000000000000000600052604160045260246000fd5b612175826120cc565b810181811067ffffffffffffffff821117156121945761219361213d565b5b80604052505050565b60006121a7611e8c565b90506121b3828261216c565b919050565b600067ffffffffffffffff8211156121d3576121d261213d565b5b602082029050602081019050919050565b600080fd5b60006121fc6121f7846121b8565b61219d565b9050808382526020820190506020840283018581111561221f5761221e6121e4565b5b835b8181101561224857806122348882611f1f565b845260208401935050602081019050612221565b5050509392505050565b600082601f83011261226757612266612138565b5b81356122778482602086016121e9565b91505092915050565b600080fd5b600067ffffffffffffffff8211156122a05761229f61213d565b5b6122a9826120cc565b9050602081019050919050565b82818337600083830152505050565b60006122d86122d384612285565b61219d565b9050828152602081018484840111156122f4576122f3612280565b5b6122ff8482856122b6565b509392505050565b600082601f83011261231c5761231b612138565b5b813561232c8482602086016122c5565b91505092915050565b600080600080600060a0868803121561235157612350611e96565b5b600061235f88828901611ee9565b955050602061237088828901611ee9565b945050604086013567ffffffffffffffff81111561239157612390611e9b565b5b61239d88828901612252565b935050606086013567ffffffffffffffff8111156123be576123bd611e9b565b5b6123ca88828901612252565b925050608086013567ffffffffffffffff8111156123eb576123ea611e9b565b5b6123f788828901612307565b9150509295509295909350565b600067ffffffffffffffff82111561241f5761241e61213d565b5b602082029050602081019050919050565b600061244361243e84612404565b61219d565b90508083825260208201905060208402830185811115612466576124656121e4565b5b835b8181101561248f578061247b8882611ee9565b845260208401935050602081019050612468565b5050509392505050565b600082601f8301126124ae576124ad612138565b5b81356124be848260208601612430565b91505092915050565b600080604083850312156124de576124dd611e96565b5b600083013567ffffffffffffffff8111156124fc576124fb611e9b565b5b61250885828601612499565b925050602083013567ffffffffffffffff81111561252957612528611e9b565b5b61253585828601612252565b9150509250929050565b600081519050919050565b600082825260208201905092915050565b6000819050602082019050919050565b61257481611efe565b82525050565b6000612586838361256b565b60208301905092915050565b6000602082019050919050565b60006125aa8261253f565b6125b4818561254a565b93506125bf8361255b565b8060005b838110156125f05781516125d7888261257a565b97506125e283612592565b9250506001810190506125c3565b5085935050505092915050565b60006020820190508181036000830152612617818461259f565b905092915050565b600061ffff82169050919050565b6126368161261f565b811461264157600080fd5b50565b6000813590506126538161262d565b92915050565b61266281612023565b811461266d57600080fd5b50565b60008135905061267f81612659565b92915050565b60008060006060848603121561269e5761269d611e96565b5b60006126ac86828701612644565b93505060206126bd86828701611f1f565b92505060406126ce86828701612670565b9150509250925092565b600080600080608085870312156126f2576126f1611e96565b5b600061270087828801612644565b945050602061271187828801612644565b935050604061272287828801611f1f565b925050606061273387828801612670565b91505092959194509250565b6000806000806080858703121561275957612758611e96565b5b600061276787828801611ee9565b945050602061277887828801612644565b935050604061278987828801611f1f565b925050606061279a87828801612670565b91505092959194509250565b600080604083850312156127bd576127bc611e96565b5b60006127cb85828601611ee9565b92505060206127dc85828601612670565b9150509250929050565b6000602082840312156127fc576127fb611e96565b5b600061280a84828501612644565b91505092915050565b61281c8161261f565b82525050565b60006040820190506128376000830185612813565b6128446020830184611f74565b9392505050565b6000806040838503121561286257612861611e96565b5b600061287085828601611ee9565b925050602061288185828601611ee9565b9150509250929050565b600080600080600060a086880312156128a7576128a6611e96565b5b60006128b588828901611ee9565b95505060206128c688828901611ee9565b94505060406128d788828901611f1f565b93505060606128e888828901611f1f565b925050608086013567ffffffffffffffff81111561290957612908611e9b565b5b61291588828901612307565b9150509295509295909350565b7f455243313135353a2061646472657373207a65726f206973206e6f742061207660008201527f616c6964206f776e657200000000000000000000000000000000000000000000602082015250565b600061297e602a83612091565b915061298982612922565b604082019050919050565b600060208201905081810360008301526129ad81612971565b9050919050565b7f4e487b7100000000000000000000000000000000000000000000000000000000600052602260045260246000fd5b600060028204905060018216806129fb57607f821691505b602082108103612a0e57612a0d6129b4565b5b50919050565b7f455243313135353a2063616c6c6572206973206e6f7420746f6b656e206f776e60008201527f6572206f7220617070726f766564000000000000000000000000000000000000602082015250565b6000612a70602e83612091565b9150612a7b82612a14565b604082019050919050565b60006020820190508181036000830152612a9f81612a63565b9050919050565b7f455243313135353a206163636f756e747320616e6420696473206c656e67746860008201527f206d69736d617463680000000000000000000000000000000000000000000000602082015250565b6000612b02602983612091565b9150612b0d82612aa6565b604082019050919050565b60006020820190508181036000830152612b3181612af5565b9050919050565b7f4e487b7100000000000000000000000000000000000000000000000000000000600052603260045260246000fd5b7f4e487b7100000000000000000000000000000000000000000000000000000000600052601160045260246000fd5b6000612ba182611efe565b9150612bac83611efe565b9250828201905080821115612bc457612bc3612b67565b5b92915050565b6000612bd582611efe565b9150612be083611efe565b9250828202612bee81611efe565b91508282048414831517612c0557612c04612b67565b5b5092915050565b7f4e487b7100000000000000000000000000000000000000000000000000000000600052601260045260246000fd5b6000612c4682611efe565b9150612c5183611efe565b925082612c6157612c60612c0c565b5b828204905092915050565b7f496e73756666696369656e7420466f7263650000000000000000000000000000600082015250565b6000612ca2601283612091565b9150612cad82612c6c565b602082019050919050565b60006020820190508181036000830152612cd181612c95565b9050919050565b6000612ce382611efe565b9150612cee83611efe565b9250828203905081811115612d0657612d05612b67565b5b92915050565b7f455243313135353a2069647320616e6420616d6f756e7473206c656e6774682060008201527f6d69736d61746368000000000000000000000000000000000000000000000000602082015250565b6000612d68602883612091565b9150612d7382612d0c565b604082019050919050565b60006020820190508181036000830152612d9781612d5b565b9050919050565b7f455243313135353a207472616e7366657220746f20746865207a65726f20616460008201527f6472657373000000000000000000000000000000000000000000000000000000602082015250565b6000612dfa602583612091565b9150612e0582612d9e565b604082019050919050565b60006020820190508181036000830152612e2981612ded565b9050919050565b7f455243313135353a20696e73756666696369656e742062616c616e636520666f60008201527f72207472616e7366657200000000000000000000000000000000000000000000602082015250565b6000612e8c602a83612091565b9150612e9782612e30565b604082019050919050565b60006020820190508181036000830152612ebb81612e7f565b9050919050565b60006040820190508181036000830152612edc818561259f565b90508181036020830152612ef0818461259f565b90509392505050565b7f455243313135353a206d696e7420746f20746865207a65726f2061646472657360008201527f7300000000000000000000000000000000000000000000000000000000000000602082015250565b6000612f55602183612091565b9150612f6082612ef9565b604082019050919050565b60006020820190508181036000830152612f8481612f48565b9050919050565b6000604082019050612fa06000830185611f74565b612fad6020830184611f74565b9392505050565b7f5265656e7472616e637947756172643a207265656e7472616e742063616c6c00600082015250565b6000612fea601f83612091565b9150612ff582612fb4565b602082019050919050565b6000602082019050818103600083015261301981612fdd565b9050919050565b7f455243313135353a206275726e2066726f6d20746865207a65726f206164647260008201527f6573730000000000000000000000000000000000000000000000000000000000602082015250565b600061307c602383612091565b915061308782613020565b604082019050919050565b600060208201905081810360008301526130ab8161306f565b9050919050565b7f455243313135353a206275726e20616d6f756e7420657863656564732062616c60008201527f616e636500000000000000000000000000000000000000000000000000000000602082015250565b600061310e602483612091565b9150613119826130b2565b604082019050919050565b6000602082019050818103600083015261313d81613101565b9050919050565b7f455243313135353a2073657474696e6720617070726f76616c2073746174757360008201527f20666f722073656c660000000000000000000000000000000000000000000000602082015250565b60006131a0602983612091565b91506131ab82613144565b604082019050919050565b600060208201905081810360008301526131cf81613193565b9050919050565b6131df81611ec0565b82525050565b600081519050919050565b600082825260208201905092915050565b600061320c826131e5565b61321681856131f0565b93506132268185602086016120a2565b61322f816120cc565b840191505092915050565b600060a08201905061324f60008301886131d6565b61325c60208301876131d6565b818103604083015261326e818661259f565b90508181036060830152613282818561259f565b905081810360808301526132968184613201565b90509695505050505050565b6000815190506132b181611fca565b92915050565b6000602082840312156132cd576132cc611e96565b5b60006132db848285016132a2565b91505092915050565b60008160e01c9050919050565b600060033d11156133105760046000803e61330d6000516132e4565b90505b90565b600060443d106133a057613325611e8c565b60043d036004823e80513d602482011167ffffffffffffffff8211171561334d5750506133a0565b808201805167ffffffffffffffff81111561336b57505050506133a0565b80602083010160043d0385018111156133885750505050506133a0565b6133978260200185018661216c565b82955050505050505b90565b7f455243313135353a207472616e7366657220746f206e6f6e2d4552433131353560008201527f526563656976657220696d706c656d656e746572000000000000000000000000602082015250565b60006133ff603483612091565b915061340a826133a3565b604082019050919050565b6000602082019050818103600083015261342e816133f2565b9050919050565b7f455243313135353a204552433131353552656365697665722072656a6563746560008201527f6420746f6b656e73000000000000000000000000000000000000000000000000602082015250565b6000613491602883612091565b915061349c82613435565b604082019050919050565b600060208201905081810360008301526134c081613484565b9050919050565b600060a0820190506134dc60008301886131d6565b6134e960208301876131d6565b6134f66040830186611f74565b6135036060830185611f74565b81810360808301526135158184613201565b9050969550505050505056fea2646970667358221220697ef072309f41191db12634e758b53cb6ea285f954cb91a6a8870266c13982164736f6c6343000818003368747470733a2f2f6170692e6b696c6c67616d652e61692f6d657461646174612f7b69647d2e6a736f6e",
  "linkReferences": {},
  "deployedLinkReferences": {}
}