{
  "_format": "hh-sol-artifact-1",
  "contractName": "KILLFaucet",
  "sourceName": "contracts/KillFaucet.sol",
  "abi": [
    {
      "inputs": [
        {
          "internalType": "address",
          "name": "_killToken",
          "type": "address"
        }
      ],
      "stateMutability": "nonpayable",
      "type": "constructor"
    },
    {
      "inputs": [],
      "name": "ReentrancyGuardReentrantCall",
      "type": "error"
    },
    {
      "anonymous": false,
      "inputs": [
        {
          "indexed": true,
          "internalType": "address",
          "name": "agent",
          "type": "address"
        },
        {
          "indexed": false,
          "internalType": "uint256",
          "name": "amount",
          "type": "uint256"
        }
      ],
      "name": "TokensPulled",
      "type": "event"
    },
    {
      "inputs": [],
      "name": "MIN_AGENT_BALANCE",
      "outputs": [
        {
          "internalType": "uint256",
          "name": "",
          "type": "uint256"
        }
      ],
      "stateMutability": "view",
      "type": "function"
    },
    {
      "inputs": [
        {
          "internalType": "address",
          "name": "",
          "type": "address"
        }
      ],
      "name": "hasClaimed",
      "outputs": [
        {
          "internalType": "bool",
          "name": "",
          "type": "bool"
        }
      ],
      "stateMutability": "view",
      "type": "function"
    },
    {
      "inputs": [],
      "name": "killToken",
      "outputs": [
        {
          "internalType": "contract IERC20",
          "name": "",
          "type": "address"
        }
      ],
      "stateMutability": "view",
      "type": "function"
    },
    {
      "inputs": [],
      "name": "pullKill",
      "outputs": [],
      "stateMutability": "nonpayable",
      "type": "function"
    }
  ],
  "bytecode": "0x60a060405234801561001057600080fd5b506040516105f93803806105f983398101604081905261002f91610045565b60016000556001600160a01b0316608052610075565b60006020828403121561005757600080fd5b81516001600160a01b038116811461006e57600080fd5b9392505050565b6080516105556100a46000396000818160560152818161016c01528181610234015261037c01526105556000f3fe608060405234801561001057600080fd5b506004361061004c5760003560e01c80632bd7cd171461005157806373b2e80e14610095578063b9cc45fc146100c8578063e13598ad146100d2575b600080fd5b6100787f000000000000000000000000000000000000000000000000000000000000000081565b6040516001600160a01b0390911681526020015b60405180910390f35b6100b86100a3366004610492565b60016020526000908152604090205460ff1681565b604051901515815260200161008c565b6100d06100ef565b005b6100e1670de0b6b3a764000081565b60405190815260200161008c565b6100f7610468565b3360009081526001602052604090205460ff161561014d5760405162461bcd60e51b815260206004820152600e60248201526d105b1c9958591e481c1d5b1b195960921b60448201526064015b60405180910390fd5b6040516370a0823160e01b8152336004820152670de0b6b3a7640000907f00000000000000000000000000000000000000000000000000000000000000006001600160a01b0316906370a0823190602401602060405180830381865afa1580156101bb573d6000803e3d6000fd5b505050506040513d601f19601f820116820180604052508101906101df91906104c2565b101561021c5760405162461bcd60e51b815260206004820152600c60248201526b139bdd08185b881859d95b9d60a21b6044820152606401610144565b6040516370a0823160e01b81523060048201526000907f00000000000000000000000000000000000000000000000000000000000000006001600160a01b0316906370a0823190602401602060405180830381865afa158015610283573d6000803e3d6000fd5b505050506040513d601f19601f820116820180604052508101906102a791906104c2565b9050600081116102e85760405162461bcd60e51b815260206004820152600c60248201526b46617563657420656d70747960a01b6044820152606401610144565b60006102f5600a836104db565b90506000811161033a5760405162461bcd60e51b815260206004820152601060248201526f105b5bdd5b9d081d1bdbc81cdb585b1b60821b6044820152606401610144565b33600081815260016020819052604091829020805460ff191690911790555163a9059cbb60e01b81526004810191909152602481018290526001600160a01b037f0000000000000000000000000000000000000000000000000000000000000000169063a9059cbb906044016020604051808303816000875af11580156103c5573d6000803e3d6000fd5b505050506040513d601f19601f820116820180604052508101906103e991906104fd565b6104255760405162461bcd60e51b815260206004820152600d60248201526c151c985b9cd9995c8819985a5b609a1b6044820152606401610144565b60405181815233907f3c3f210f5fb914ad3522d4b423e3db16130d0409700cb7b1827ccc90f341ac2f9060200160405180910390a250506104666001600055565b565b60026000540361048b57604051633ee5aeb560e01b815260040160405180910390fd5b6002600055565b6000602082840312156104a457600080fd5b81356001600160a01b03811681146104bb57600080fd5b9392505050565b6000602082840312156104d457600080fd5b5051919050565b6000826104f857634e487b7160e01b600052601260045260246000fd5b500490565b60006020828403121561050f57600080fd5b815180151581146104bb57600080fdfea2646970667358221220b5e2c6563ae2599d98cf7dfcce90e659ca6a583ca1e864f29f2121295cb5012364736f6c63430008180033",
  "linkReferences": {},
  "deployedLinkReferences": {}
}