{
  "_format": "hh-sol-artifact-1",
  "contractName": "KILLFaucet",
  "sourceName": "contracts/KillFaucet.sol",
  "abi": [
    {
      "inputs": [
        {
          "internalType": "address",
          "name": "_killToken",
          "type": "address"
        }
      ],
      "stateMutability": "nonpayable",
      "type": "constructor"
    },
    {
      "anonymous": false,
      "inputs": [
        {
          "indexed": true,
          "internalType": "address",
          "name": "agent",
          "type": "address"
        },
        {
          "indexed": false,
          "internalType": "uint256",
          "name": "amount",
          "type": "uint256"
        }
      ],
      "name": "TokensPulled",
      "type": "event"
    },
    {
      "inputs": [],
      "name": "MIN_AGENT_BALANCE",
      "outputs": [
        {
          "internalType": "uint256",
          "name": "",
          "type": "uint256"
        }
      ],
      "stateMutability": "view",
      "type": "function"
    },
    {
      "inputs": [],
      "name": "PULL_AMOUNT",
      "outputs": [
        {
          "internalType": "uint256",
          "name": "",
          "type": "uint256"
        }
      ],
      "stateMutability": "view",
      "type": "function"
    },
    {
      "inputs": [
        {
          "internalType": "address",
          "name": "",
          "type": "address"
        }
      ],
      "name": "hasClaimed",
      "outputs": [
        {
          "internalType": "bool",
          "name": "",
          "type": "bool"
        }
      ],
      "stateMutability": "view",
      "type": "function"
    },
    {
      "inputs": [],
      "name": "killToken",
      "outputs": [
        {
          "internalType": "contract IERC20",
          "name": "",
          "type": "address"
        }
      ],
      "stateMutability": "view",
      "type": "function"
    },
    {
      "inputs": [],
      "name": "pullKill",
      "outputs": [],
      "stateMutability": "nonpayable",
      "type": "function"
    }
  ],
  "bytecode": "0x60a060405234801561001057600080fd5b5060405161057438038061057483398101604081905261002f91610040565b6001600160a01b0316608052610070565b60006020828403121561005257600080fd5b81516001600160a01b038116811461006957600080fd5b9392505050565b6080516104d561009f6000396000818160610152818161018001528181610251015261034201526104d56000f3fe608060405234801561001057600080fd5b50600436106100575760003560e01c80632bd7cd171461005c57806373b2e80e146100a0578063b9cc45fc146100d3578063d8eb104b146100dd578063e13598ad146100fc575b600080fd5b6100837f000000000000000000000000000000000000000000000000000000000000000081565b6040516001600160a01b0390911681526020015b60405180910390f35b6100c36100ae366004610434565b60006020819052908152604090205460ff1681565b6040519015158152602001610097565b6100db61010b565b005b6100ee698d07eeae14c52c40000081565b604051908152602001610097565b6100ee670de0b6b3a764000081565b3360009081526020819052604090205460ff16156101615760405162461bcd60e51b815260206004820152600e60248201526d105b1c9958591e481c1d5b1b195960921b60448201526064015b60405180910390fd5b6040516370a0823160e01b8152336004820152670de0b6b3a7640000907f00000000000000000000000000000000000000000000000000000000000000006001600160a01b0316906370a0823190602401602060405180830381865afa1580156101cf573d6000803e3d6000fd5b505050506040513d601f19601f820116820180604052508101906101f39190610464565b10156102305760405162461bcd60e51b815260206004820152600c60248201526b139bdd08185b881859d95b9d60a21b6044820152606401610158565b6040516370a0823160e01b8152306004820152698d07eeae14c52c400000907f00000000000000000000000000000000000000000000000000000000000000006001600160a01b0316906370a0823190602401602060405180830381865afa1580156102a0573d6000803e3d6000fd5b505050506040513d601f19601f820116820180604052508101906102c49190610464565b10156103015760405162461bcd60e51b815260206004820152600c60248201526b46617563657420656d70747960a01b6044820152606401610158565b3360008181526020819052604090819020805460ff191660011790555163a9059cbb60e01b81526004810191909152698d07eeae14c52c40000060248201527f00000000000000000000000000000000000000000000000000000000000000006001600160a01b03169063a9059cbb906044016020604051808303816000875af1158015610393573d6000803e3d6000fd5b505050506040513d601f19601f820116820180604052508101906103b7919061047d565b6103f35760405162461bcd60e51b815260206004820152600d60248201526c151c985b9cd9995c8819985a5b609a1b6044820152606401610158565b604051698d07eeae14c52c400000815233907f3c3f210f5fb914ad3522d4b423e3db16130d0409700cb7b1827ccc90f341ac2f9060200160405180910390a2565b60006020828403121561044657600080fd5b81356001600160a01b038116811461045d57600080fd5b9392505050565b60006020828403121561047657600080fd5b5051919050565b60006020828403121561048f57600080fd5b8151801515811461045d57600080fdfea2646970667358221220e90616f2c4cf351c36745f62c565a30a83b0cafe6c6b059b1555f36d9ce1a4e164736f6c63430008180033",
  "linkReferences": {},
  "deployedLinkReferences": {}
}