{
  "_format": "hh-sol-artifact-1",
  "contractName": "KILLGame",
  "sourceName": "contracts/KillGame.sol",
  "abi": [
    {
      "inputs": [
        {
          "internalType": "address",
          "name": "_tokenAddress",
          "type": "address"
        }
      ],
      "stateMutability": "nonpayable",
      "type": "constructor"
    },
    {
      "inputs": [
        {
          "internalType": "address",
          "name": "sender",
          "type": "address"
        },
        {
          "internalType": "uint256",
          "name": "balance",
          "type": "uint256"
        },
        {
          "internalType": "uint256",
          "name": "needed",
          "type": "uint256"
        },
        {
          "internalType": "uint256",
          "name": "tokenId",
          "type": "uint256"
        }
      ],
      "name": "ERC1155InsufficientBalance",
      "type": "error"
    },
    {
      "inputs": [
        {
          "internalType": "address",
          "name": "approver",
          "type": "address"
        }
      ],
      "name": "ERC1155InvalidApprover",
      "type": "error"
    },
    {
      "inputs": [
        {
          "internalType": "uint256",
          "name": "idsLength",
          "type": "uint256"
        },
        {
          "internalType": "uint256",
          "name": "valuesLength",
          "type": "uint256"
        }
      ],
      "name": "ERC1155InvalidArrayLength",
      "type": "error"
    },
    {
      "inputs": [
        {
          "internalType": "address",
          "name": "operator",
          "type": "address"
        }
      ],
      "name": "ERC1155InvalidOperator",
      "type": "error"
    },
    {
      "inputs": [
        {
          "internalType": "address",
          "name": "receiver",
          "type": "address"
        }
      ],
      "name": "ERC1155InvalidReceiver",
      "type": "error"
    },
    {
      "inputs": [
        {
          "internalType": "address",
          "name": "sender",
          "type": "address"
        }
      ],
      "name": "ERC1155InvalidSender",
      "type": "error"
    },
    {
      "inputs": [
        {
          "internalType": "address",
          "name": "operator",
          "type": "address"
        },
        {
          "internalType": "address",
          "name": "owner",
          "type": "address"
        }
      ],
      "name": "ERC1155MissingApprovalForAll",
      "type": "error"
    },
    {
      "inputs": [
        {
          "internalType": "address",
          "name": "owner",
          "type": "address"
        }
      ],
      "name": "OwnableInvalidOwner",
      "type": "error"
    },
    {
      "inputs": [
        {
          "internalType": "address",
          "name": "account",
          "type": "address"
        }
      ],
      "name": "OwnableUnauthorizedAccount",
      "type": "error"
    },
    {
      "inputs": [],
      "name": "ReentrancyGuardReentrantCall",
      "type": "error"
    },
    {
      "anonymous": false,
      "inputs": [
        {
          "indexed": true,
          "internalType": "address",
          "name": "account",
          "type": "address"
        },
        {
          "indexed": true,
          "internalType": "address",
          "name": "operator",
          "type": "address"
        },
        {
          "indexed": false,
          "internalType": "bool",
          "name": "approved",
          "type": "bool"
        }
      ],
      "name": "ApprovalForAll",
      "type": "event"
    },
    {
      "anonymous": false,
      "inputs": [
        {
          "indexed": true,
          "internalType": "address",
          "name": "defender",
          "type": "address"
        },
        {
          "indexed": false,
          "internalType": "uint256",
          "name": "amount",
          "type": "uint256"
        }
      ],
      "name": "DefenderRewarded",
      "type": "event"
    },
    {
      "anonymous": false,
      "inputs": [
        {
          "indexed": false,
          "internalType": "uint256",
          "name": "totalUnitsKilled",
          "type": "uint256"
        },
        {
          "indexed": false,
          "internalType": "uint256",
          "name": "totalReaperKilled",
          "type": "uint256"
        },
        {
          "indexed": false,
          "internalType": "uint256",
          "name": "killAdded",
          "type": "uint256"
        },
        {
          "indexed": false,
          "internalType": "uint256",
          "name": "killExtracted",
          "type": "uint256"
        },
        {
          "indexed": false,
          "internalType": "uint256",
          "name": "killBurned",
          "type": "uint256"
        }
      ],
      "name": "GlobalStats",
      "type": "event"
    },
    {
      "anonymous": false,
      "inputs": [
        {
          "indexed": true,
          "internalType": "address",
          "name": "attacker",
          "type": "address"
        },
        {
          "indexed": true,
          "internalType": "address",
          "name": "target",
          "type": "address"
        },
        {
          "indexed": true,
          "internalType": "uint16",
          "name": "stackId",
          "type": "uint16"
        },
        {
          "indexed": false,
          "internalType": "uint256",
          "name": "attackerUnitsLost",
          "type": "uint256"
        },
        {
          "indexed": false,
          "internalType": "uint256",
          "name": "attackerReaperLost",
          "type": "uint256"
        },
        {
          "indexed": false,
          "internalType": "uint256",
          "name": "targetUnitsLost",
          "type": "uint256"
        },
        {
          "indexed": false,
          "internalType": "uint256",
          "name": "targetReaperLost",
          "type": "uint256"
        },
        {
          "indexed": false,
          "internalType": "uint256",
          "name": "netBounty",
          "type": "uint256"
        },
        {
          "indexed": false,
          "internalType": "uint256",
          "name": "targetBirthBlock",
          "type": "uint256"
        }
      ],
      "name": "Killed",
      "type": "event"
    },
    {
      "anonymous": false,
      "inputs": [
        {
          "indexed": true,
          "internalType": "address",
          "name": "agent",
          "type": "address"
        },
        {
          "indexed": false,
          "internalType": "uint16",
          "name": "fromStack",
          "type": "uint16"
        },
        {
          "indexed": false,
          "internalType": "uint16",
          "name": "toStack",
          "type": "uint16"
        },
        {
          "indexed": false,
          "internalType": "uint256",
          "name": "units",
          "type": "uint256"
        },
        {
          "indexed": false,
          "internalType": "uint256",
          "name": "reaper",
          "type": "uint256"
        },
        {
          "indexed": false,
          "internalType": "uint256",
          "name": "birthBlock",
          "type": "uint256"
        }
      ],
      "name": "Moved",
      "type": "event"
    },
    {
      "anonymous": false,
      "inputs": [
        {
          "indexed": true,
          "internalType": "address",
          "name": "previousOwner",
          "type": "address"
        },
        {
          "indexed": true,
          "internalType": "address",
          "name": "newOwner",
          "type": "address"
        }
      ],
      "name": "OwnershipTransferred",
      "type": "event"
    },
    {
      "anonymous": false,
      "inputs": [
        {
          "indexed": true,
          "internalType": "address",
          "name": "agent",
          "type": "address"
        },
        {
          "indexed": true,
          "internalType": "uint256",
          "name": "stackId",
          "type": "uint256"
        },
        {
          "indexed": false,
          "internalType": "uint256",
          "name": "units",
          "type": "uint256"
        },
        {
          "indexed": false,
          "internalType": "uint256",
          "name": "birthBlock",
          "type": "uint256"
        }
      ],
      "name": "Spawned",
      "type": "event"
    },
    {
      "anonymous": false,
      "inputs": [
        {
          "indexed": true,
          "internalType": "address",
          "name": "operator",
          "type": "address"
        },
        {
          "indexed": true,
          "internalType": "address",
          "name": "from",
          "type": "address"
        },
        {
          "indexed": true,
          "internalType": "address",
          "name": "to",
          "type": "address"
        },
        {
          "indexed": false,
          "internalType": "uint256[]",
          "name": "ids",
          "type": "uint256[]"
        },
        {
          "indexed": false,
          "internalType": "uint256[]",
          "name": "values",
          "type": "uint256[]"
        }
      ],
      "name": "TransferBatch",
      "type": "event"
    },
    {
      "anonymous": false,
      "inputs": [
        {
          "indexed": true,
          "internalType": "address",
          "name": "operator",
          "type": "address"
        },
        {
          "indexed": true,
          "internalType": "address",
          "name": "from",
          "type": "address"
        },
        {
          "indexed": true,
          "internalType": "address",
          "name": "to",
          "type": "address"
        },
        {
          "indexed": false,
          "internalType": "uint256",
          "name": "id",
          "type": "uint256"
        },
        {
          "indexed": false,
          "internalType": "uint256",
          "name": "value",
          "type": "uint256"
        }
      ],
      "name": "TransferSingle",
      "type": "event"
    },
    {
      "anonymous": false,
      "inputs": [
        {
          "indexed": false,
          "internalType": "string",
          "name": "value",
          "type": "string"
        },
        {
          "indexed": true,
          "internalType": "uint256",
          "name": "id",
          "type": "uint256"
        }
      ],
      "name": "URI",
      "type": "event"
    },
    {
      "inputs": [],
      "name": "BURN_BPS",
      "outputs": [
        {
          "internalType": "uint256",
          "name": "",
          "type": "uint256"
        }
      ],
      "stateMutability": "view",
      "type": "function"
    },
    {
      "inputs": [],
      "name": "BURN_OF_TREASURY_BPS",
      "outputs": [
        {
          "internalType": "uint256",
          "name": "",
          "type": "uint256"
        }
      ],
      "stateMutability": "view",
      "type": "function"
    },
    {
      "inputs": [],
      "name": "MOVE_COST",
      "outputs": [
        {
          "internalType": "uint256",
          "name": "",
          "type": "uint256"
        }
      ],
      "stateMutability": "view",
      "type": "function"
    },
    {
      "inputs": [],
      "name": "REAPER_SPAWN_COST",
      "outputs": [
        {
          "internalType": "uint256",
          "name": "",
          "type": "uint256"
        }
      ],
      "stateMutability": "view",
      "type": "function"
    },
    {
      "inputs": [],
      "name": "SENDER_BPS",
      "outputs": [
        {
          "internalType": "uint256",
          "name": "",
          "type": "uint256"
        }
      ],
      "stateMutability": "view",
      "type": "function"
    },
    {
      "inputs": [],
      "name": "SPAWN_COST",
      "outputs": [
        {
          "internalType": "uint256",
          "name": "",
          "type": "uint256"
        }
      ],
      "stateMutability": "view",
      "type": "function"
    },
    {
      "inputs": [],
      "name": "TREASURY_BPS",
      "outputs": [
        {
          "internalType": "uint256",
          "name": "",
          "type": "uint256"
        }
      ],
      "stateMutability": "view",
      "type": "function"
    },
    {
      "inputs": [
        {
          "internalType": "uint256",
          "name": "amt",
          "type": "uint256"
        }
      ],
      "name": "adminWithdraw",
      "outputs": [],
      "stateMutability": "nonpayable",
      "type": "function"
    },
    {
      "inputs": [
        {
          "internalType": "address",
          "name": "",
          "type": "address"
        },
        {
          "internalType": "uint256",
          "name": "",
          "type": "uint256"
        }
      ],
      "name": "agentStacks",
      "outputs": [
        {
          "internalType": "uint256",
          "name": "birthBlock",
          "type": "uint256"
        }
      ],
      "stateMutability": "view",
      "type": "function"
    },
    {
      "inputs": [
        {
          "internalType": "address",
          "name": "",
          "type": "address"
        }
      ],
      "name": "agentTotalProfit",
      "outputs": [
        {
          "internalType": "uint256",
          "name": "",
          "type": "uint256"
        }
      ],
      "stateMutability": "view",
      "type": "function"
    },
    {
      "inputs": [
        {
          "internalType": "address",
          "name": "account",
          "type": "address"
        },
        {
          "internalType": "uint256",
          "name": "id",
          "type": "uint256"
        }
      ],
      "name": "balanceOf",
      "outputs": [
        {
          "internalType": "uint256",
          "name": "",
          "type": "uint256"
        }
      ],
      "stateMutability": "view",
      "type": "function"
    },
    {
      "inputs": [
        {
          "internalType": "address[]",
          "name": "accounts",
          "type": "address[]"
        },
        {
          "internalType": "uint256[]",
          "name": "ids",
          "type": "uint256[]"
        }
      ],
      "name": "balanceOfBatch",
      "outputs": [
        {
          "internalType": "uint256[]",
          "name": "",
          "type": "uint256[]"
        }
      ],
      "stateMutability": "view",
      "type": "function"
    },
    {
      "inputs": [
        {
          "internalType": "address",
          "name": "agent",
          "type": "address"
        },
        {
          "internalType": "uint256",
          "name": "id",
          "type": "uint256"
        }
      ],
      "name": "getBirthBlock",
      "outputs": [
        {
          "internalType": "uint256",
          "name": "",
          "type": "uint256"
        }
      ],
      "stateMutability": "view",
      "type": "function"
    },
    {
      "inputs": [
        {
          "internalType": "uint16",
          "name": "stackId",
          "type": "uint16"
        }
      ],
      "name": "getFullStack",
      "outputs": [
        {
          "components": [
            {
              "internalType": "address",
              "name": "occupant",
              "type": "address"
            },
            {
              "internalType": "uint256",
              "name": "units",
              "type": "uint256"
            },
            {
              "internalType": "uint256",
              "name": "reapers",
              "type": "uint256"
            },
            {
              "internalType": "uint256",
              "name": "age",
              "type": "uint256"
            },
            {
              "internalType": "uint256",
              "name": "pendingBounty",
              "type": "uint256"
            }
          ],
          "internalType": "struct KILLGame.StackInfo[]",
          "name": "",
          "type": "tuple[]"
        }
      ],
      "stateMutability": "view",
      "type": "function"
    },
    {
      "inputs": [
        {
          "internalType": "address",
          "name": "agent",
          "type": "address"
        },
        {
          "internalType": "uint256",
          "name": "id",
          "type": "uint256"
        }
      ],
      "name": "getPendingBounty",
      "outputs": [
        {
          "internalType": "uint256",
          "name": "",
          "type": "uint256"
        }
      ],
      "stateMutability": "view",
      "type": "function"
    },
    {
      "inputs": [
        {
          "internalType": "address",
          "name": "account",
          "type": "address"
        },
        {
          "internalType": "address",
          "name": "operator",
          "type": "address"
        }
      ],
      "name": "isApprovedForAll",
      "outputs": [
        {
          "internalType": "bool",
          "name": "",
          "type": "bool"
        }
      ],
      "stateMutability": "view",
      "type": "function"
    },
    {
      "inputs": [
        {
          "internalType": "address",
          "name": "target",
          "type": "address"
        },
        {
          "internalType": "uint16",
          "name": "stackId",
          "type": "uint16"
        },
        {
          "internalType": "uint256",
          "name": "sentUnits",
          "type": "uint256"
        },
        {
          "internalType": "uint256",
          "name": "sentReaper",
          "type": "uint256"
        }
      ],
      "name": "kill",
      "outputs": [
        {
          "internalType": "uint256",
          "name": "attackerBounty",
          "type": "uint256"
        }
      ],
      "stateMutability": "nonpayable",
      "type": "function"
    },
    {
      "inputs": [],
      "name": "killToken",
      "outputs": [
        {
          "internalType": "contract IERC20",
          "name": "",
          "type": "address"
        }
      ],
      "stateMutability": "view",
      "type": "function"
    },
    {
      "inputs": [
        {
          "internalType": "uint16",
          "name": "fromStack",
          "type": "uint16"
        },
        {
          "internalType": "uint16",
          "name": "toStack",
          "type": "uint16"
        },
        {
          "internalType": "uint256",
          "name": "units",
          "type": "uint256"
        },
        {
          "internalType": "uint256",
          "name": "reaper",
          "type": "uint256"
        }
      ],
      "name": "move",
      "outputs": [],
      "stateMutability": "nonpayable",
      "type": "function"
    },
    {
      "inputs": [],
      "name": "owner",
      "outputs": [
        {
          "internalType": "address",
          "name": "",
          "type": "address"
        }
      ],
      "stateMutability": "view",
      "type": "function"
    },
    {
      "inputs": [],
      "name": "renounceOwnership",
      "outputs": [],
      "stateMutability": "nonpayable",
      "type": "function"
    },
    {
      "inputs": [
        {
          "internalType": "address",
          "name": "from",
          "type": "address"
        },
        {
          "internalType": "address",
          "name": "to",
          "type": "address"
        },
        {
          "internalType": "uint256[]",
          "name": "ids",
          "type": "uint256[]"
        },
        {
          "internalType": "uint256[]",
          "name": "values",
          "type": "uint256[]"
        },
        {
          "internalType": "bytes",
          "name": "data",
          "type": "bytes"
        }
      ],
      "name": "safeBatchTransferFrom",
      "outputs": [],
      "stateMutability": "nonpayable",
      "type": "function"
    },
    {
      "inputs": [
        {
          "internalType": "address",
          "name": "from",
          "type": "address"
        },
        {
          "internalType": "address",
          "name": "to",
          "type": "address"
        },
        {
          "internalType": "uint256",
          "name": "id",
          "type": "uint256"
        },
        {
          "internalType": "uint256",
          "name": "value",
          "type": "uint256"
        },
        {
          "internalType": "bytes",
          "name": "data",
          "type": "bytes"
        }
      ],
      "name": "safeTransferFrom",
      "outputs": [],
      "stateMutability": "nonpayable",
      "type": "function"
    },
    {
      "inputs": [
        {
          "internalType": "address",
          "name": "operator",
          "type": "address"
        },
        {
          "internalType": "bool",
          "name": "approved",
          "type": "bool"
        }
      ],
      "name": "setApprovalForAll",
      "outputs": [],
      "stateMutability": "nonpayable",
      "type": "function"
    },
    {
      "inputs": [
        {
          "internalType": "uint16",
          "name": "stackId",
          "type": "uint16"
        },
        {
          "internalType": "uint256",
          "name": "amount",
          "type": "uint256"
        }
      ],
      "name": "spawn",
      "outputs": [],
      "stateMutability": "nonpayable",
      "type": "function"
    },
    {
      "inputs": [
        {
          "internalType": "bytes4",
          "name": "id",
          "type": "bytes4"
        }
      ],
      "name": "supportsInterface",
      "outputs": [
        {
          "internalType": "bool",
          "name": "",
          "type": "bool"
        }
      ],
      "stateMutability": "view",
      "type": "function"
    },
    {
      "inputs": [],
      "name": "totalKillBurned",
      "outputs": [
        {
          "internalType": "uint256",
          "name": "",
          "type": "uint256"
        }
      ],
      "stateMutability": "view",
      "type": "function"
    },
    {
      "inputs": [],
      "name": "totalKillExtracted",
      "outputs": [
        {
          "internalType": "uint256",
          "name": "",
          "type": "uint256"
        }
      ],
      "stateMutability": "view",
      "type": "function"
    },
    {
      "inputs": [],
      "name": "totalReaperKilled",
      "outputs": [
        {
          "internalType": "uint256",
          "name": "",
          "type": "uint256"
        }
      ],
      "stateMutability": "view",
      "type": "function"
    },
    {
      "inputs": [],
      "name": "totalUnitsKilled",
      "outputs": [
        {
          "internalType": "uint256",
          "name": "",
          "type": "uint256"
        }
      ],
      "stateMutability": "view",
      "type": "function"
    },
    {
      "inputs": [],
      "name": "totalUnitsMinted",
      "outputs": [
        {
          "internalType": "uint256",
          "name": "",
          "type": "uint256"
        }
      ],
      "stateMutability": "view",
      "type": "function"
    },
    {
      "inputs": [
        {
          "internalType": "address",
          "name": "newOwner",
          "type": "address"
        }
      ],
      "name": "transferOwnership",
      "outputs": [],
      "stateMutability": "nonpayable",
      "type": "function"
    },
    {
      "inputs": [],
      "name": "treasuryBalance",
      "outputs": [
        {
          "internalType": "uint256",
          "name": "",
          "type": "uint256"
        }
      ],
      "stateMutability": "view",
      "type": "function"
    },
    {
      "inputs": [
        {
          "internalType": "uint256",
          "name": "",
          "type": "uint256"
        }
      ],
      "name": "uri",
      "outputs": [
        {
          "internalType": "string",
          "name": "",
          "type": "string"
        }
      ],
      "stateMutability": "view",
      "type": "function"
    }
  ],
  "bytecode": "0x60a06040523480156200001157600080fd5b506040516200307e3803806200307e833981016040819052620000349162000111565b336040518060600160405280602a815260200162003054602a91396200005a81620000ad565b5060016003556001600160a01b0381166200008f57604051631e4fbdf760e01b81526000600482015260240160405180910390fd5b6200009a81620000bf565b506001600160a01b0316608052620002b6565b6002620000bb8282620001ea565b5050565b600480546001600160a01b038381166001600160a01b0319831681179093556040519116919082907f8be0079c531659141344cd1fd0a4f28419497f9722a3daafe3b4186f6b6457e090600090a35050565b6000602082840312156200012457600080fd5b81516001600160a01b03811681146200013c57600080fd5b9392505050565b634e487b7160e01b600052604160045260246000fd5b600181811c908216806200016e57607f821691505b6020821081036200018f57634e487b7160e01b600052602260045260246000fd5b50919050565b601f821115620001e5576000816000526020600020601f850160051c81016020861015620001c05750805b601f850160051c820191505b81811015620001e157828155600101620001cc565b5050505b505050565b81516001600160401b0381111562000206576200020662000143565b6200021e8162000217845462000159565b8462000195565b602080601f8311600181146200025657600084156200023d5750858301515b600019600386901b1c1916600185901b178555620001e1565b600085815260208120601f198616915b82811015620002875788860151825594840194600190910190840162000266565b5085821015620002a65787850151600019600388901b60f8161c191681555b5050505050600190811b01905550565b608051612d66620002ee6000396000818161029f0152818161058b015281816109c401528181610f050152611aa00152612d666000f3fe608060405234801561001057600080fd5b50600436106102055760003560e01c80637c5b4a371161011a578063c68e8075116100ad578063ea075ee11161007c578063ea075ee114610439578063edbd5df81461044c578063ef0a131114610477578063f242432a14610497578063f2fde38b146104aa57600080fd5b8063c68e8075146103f3578063c704c3f11461039b578063e74fe23714610413578063e985e9c51461042657600080fd5b806394456848116100e9578063944568481461039b578063a22cb465146103aa578063a37a9fc014610253578063b8011328146103bd57600080fd5b80637c5b4a371461035b57806388b00adc1461036e5780638da5cb5b1461037757806391fa2a6a1461038857600080fd5b80632ee8174e1161019d5780634e1273f41161016c5780634e1273f4146103105780635635fdbc1461033057806358510ac814610339578063715018a61461034a578063781298821461035257600080fd5b80632ee8174e146102ec578063313dab20146102f55780633b8726e2146102fe5780634c25d1971461030757600080fd5b80630a08f3d0116101d95780630a08f3d0146102715780630e89341c1461027a5780632bd7cd171461029a5780632eb2c2d6146102d957600080fd5b8062fdd58e1461020a57806301ffc9a714610230578063081e87b91461025357806309f618261461025c575b600080fd5b61021d6102183660046124aa565b6104bd565b6040519081526020015b60405180910390f35b61024361023e3660046124ea565b6104e5565b6040519015158152602001610227565b61021d61029a81565b61026f61026a366004612519565b6104f0565b005b61021d60065481565b61028d610288366004612535565b6107c4565b6040516102279190612594565b6102c17f000000000000000000000000000000000000000000000000000000000000000081565b6040516001600160a01b039091168152602001610227565b61026f6102e73660046126f1565b610858565b61021d60085481565b61021d60055481565b61021d611d4c81565b61021d6109c481565b61032361031e36600461279b565b6108bf565b6040516102279190612897565b61021d60095481565b61021d6901690a1119cec590000081565b61026f61098c565b61021d60075481565b61026f610369366004612535565b6109a0565b61021d600a5481565b6004546001600160a01b03166102c1565b61021d6103963660046128aa565b610a39565b61021d678ac7230489e8000081565b61026f6103b83660046128fa565b610e14565b61021d6103cb3660046124aa565b6001600160a01b03919091166000908152600b60209081526040808320938352929052205490565b61021d610401366004612931565b600e6020526000908152604090205481565b61026f61042136600461294c565b610e1f565b61024361043436600461296b565b611137565b61021d6104473660046124aa565b611165565b61021d61045a3660046124aa565b600b60209081526000928352604080842090915290825290205481565b61048a61048536600461299e565b6111e8565b60405161022791906129b9565b61026f6104a5366004612a30565b611521565b61026f6104b8366004612931565b611580565b6000818152602081815260408083206001600160a01b03861684529091529020545b92915050565b60006104df826115be565b6104f861160e565b60008261ffff16118015610511575060d88261ffff1611155b6105525760405162461bcd60e51b815260206004820152600d60248201526c496e76616c696420537461636b60981b60448201526064015b60405180910390fd5b6000610566678ac7230489e8000083612aab565b6040516323b872dd60e01b8152336004820152306024820152604481018290529091507f00000000000000000000000000000000000000000000000000000000000000006001600160a01b0316906323b872dd906064016020604051808303816000875af11580156105dc573d6000803e3d6000fd5b505050506040513d601f19601f820116820180604052508101906106009190612ac2565b6106375760405162461bcd60e51b815260206004820152600860248201526714185e4819985a5b60c21b6044820152606401610549565b600061271061064861029a84612aab565b6106529190612af5565b905060006106608284612b09565b905080600560008282546106749190612b1c565b9250508190555081600a600082825461068d9190612b1c565b90915550506006805490859060006106a58385612b1c565b90915550600090506106b961029a83612af5565b61029a6006546106c99190612af5565b6106d39190612b09565b90506106e4338861ffff1688611638565b801561070357610703336106fd61ffff8a1660d8612b1c565b83611638565b6040805187815243602082015261ffff89169133917f21427a790373fad598033d2f191dd9fc550d58054a7f361c0af4895c351eeaf2910160405180910390a37f6b8aeaa3365d2dfcb9acc94f0a7429b657b4f2008cfafb9b10297011e077c650600754600854678ac7230489e800006006546107809190612aab565b600954600a54604080519586526020860194909452928401919091526060830152608082015260a00160405180910390a150505050506107c06001600355565b5050565b6060600280546107d390612b2f565b80601f01602080910402602001604051908101604052809291908181526020018280546107ff90612b2f565b801561084c5780601f106108215761010080835404028352916020019161084c565b820191906000526020600020905b81548152906001019060200180831161082f57829003601f168201915b50505050509050919050565b336001600160a01b038616811480159061087957506108778682611137565b155b156108aa5760405163711bec9160e11b81526001600160a01b03808316600483015287166024820152604401610549565b6108b786868686866116f0565b505050505050565b606081518351146108f05781518351604051635b05999160e01b815260048101929092526024820152604401610549565b6000835167ffffffffffffffff81111561090c5761090c6125a7565b604051908082528060200260200182016040528015610935578160200160208202803683370190505b50905060005b84518110156109845760208082028601015161095f906020808402870101516104bd565b82828151811061097157610971612b69565b602090810291909101015260010161093b565b509392505050565b610994611757565b61099e6000611784565b565b6109a8611757565b60405163a9059cbb60e01b8152336004820152602481018290527f00000000000000000000000000000000000000000000000000000000000000006001600160a01b03169063a9059cbb906044016020604051808303816000875af1158015610a15573d6000803e3d6000fd5b505050506040513d601f19601f820116820180604052508101906107c09190612ac2565b6000610a4361160e565b61ffff84166000610a558260d8612b1c565b905084610a6233846104bd565b10158015610a79575083610a7633836104bd565b10155b610ab25760405162461bcd60e51b815260206004820152600a6024820152694c61636b20756e69747360b01b6044820152606401610549565b6001600160a01b0387166000908152600b6020908152604080832085845290915281205490610ae5338a86868b8b6117d6565b9050610af189856104bd565b816040015103610b26576000848152600d602090815260408083206001600160a01b038d1684529091529020805460ff191690555b610b3089846104bd565b816060015103610b65576000838152600d602090815260408083206001600160a01b038d1684529091529020805460ff191690555b600081604001511180610b7c575060008160600151115b15610bc657610b95898583604001518460600151611936565b9450610ba133866119fd565b336000908152600e602052604081208054879290610bc0908490612b1c565b90915550505b8051600090151580610bdc575060008260200151115b15610c6d576901690a1119cec59000008260200151610bfb9190612aab565b8251610c1090678ac7230489e8000090612aab565b610c1a9190612b1c565b90506064610c2982604b612aab565b610c339190612af5565b9050610c3f8a826119fd565b6001600160a01b038a166000908152600e602052604081208054839290610c67908490612b1c565b90915550505b610c7682611b47565b604082015115610c8f57610c8f8a868460400151611b9b565b606082015115610ca857610ca88a858460600151611b9b565b815115610cbe57610cbe33868460000151611b9b565b602082015115610cd757610cd733858460200151611b9b565b8151602080840151604080860151606080880151835196875294860193909352908401528201526080810187905260a0810184905261ffff8a16906001600160a01b038c169033907fe8cf87740e16519b389a47fd487b7c8330c651cf9af2e1a698676cb488a8cd4e9060c00160405180910390a4896001600160a01b03167fdf7a5d9a98a2f71d704a4e6a4c0422d79ed27521ad9cfd55e985d5fb94cfaffe82604051610d8791815260200190565b60405180910390a27f6b8aeaa3365d2dfcb9acc94f0a7429b657b4f2008cfafb9b10297011e077c650600754600854678ac7230489e80000600654610dcc9190612aab565b600954600a54604080519586526020860194909452928401919091526060830152608082015260a00160405180910390a15050505050610e0c6001600355565b949350505050565b6107c0338383611c03565b610e2761160e565b60008461ffff16118015610e40575060d88461ffff1611155b610e7b5760405162461bcd60e51b815260206004820152600c60248201526b496e76616c69642046726f6d60a01b6044820152606401610549565b60008361ffff16118015610e94575060d88361ffff1611155b8015610ea55750610ea58484611c99565b610edc5760405162461bcd60e51b8152602060048201526008602482015267426164206d6f766560c01b6044820152606401610549565b6040516323b872dd60e01b8152336004820152306024820152678ac7230489e8000060448201527f00000000000000000000000000000000000000000000000000000000000000006001600160a01b0316906323b872dd906064016020604051808303816000875af1158015610f56573d6000803e3d6000fd5b505050506040513d601f19601f82011682018060405250810190610f7a9190612ac2565b610fb15760405162461bcd60e51b815260206004820152600860248201526714185e4819985a5b60c21b6044820152606401610549565b6000612710610fca61029a678ac7230489e80000612aab565b610fd49190612af5565b90506000610fea82678ac7230489e80000612b09565b90508060056000828254610ffe9190612b1c565b9250508190555081600a60008282546110179190612b1c565b90915550508315611035576110358661ffff168661ffff1686611dc5565b82156110625761106261104d61ffff881660d8612b1c565b61105c61ffff881660d8612b1c565b85611dc5565b6040805161ffff8089168252871660208201529081018590526060810184905243608082015233907f377dc7145bd8ab426842504b448652c41dda00abb7f7c1df6bdfa40bd2a16f2c9060a00160405180910390a27f6b8aeaa3365d2dfcb9acc94f0a7429b657b4f2008cfafb9b10297011e077c650600754600854678ac7230489e800006006546110f49190612aab565b600954600a54604080519586526020860194909452928401919091526060830152608082015260a00160405180910390a150506111316001600355565b50505050565b6001600160a01b03918216600090815260016020908152604080832093909416825291909152205460ff1690565b6001600160a01b0382166000908152600b602090815260408083208484529091528120548103611197575060006104df565b6001600160a01b0383166000908152600b60209081526040808320858452909152902054620f4240906111ca9043612b09565b6005546111d79190612aab565b6111e19190612af5565b9392505050565b606061ffff821660006111fc8260d8612b1c565b6000838152600c602090815260408083208054825181850281018501909352808352949550929390929183018282801561125f57602002820191906000526020600020905b81546001600160a01b03168152600190910190602001808311611241575b505050505090506000805b825181101561133157600d6000868152602001908152602001600020600084838151811061129a5761129a612b69565b6020908102919091018101516001600160a01b031682528101919091526040016000205460ff16806113165750600d600085815260200190815260200160002060008483815181106112ee576112ee612b69565b6020908102919091018101516001600160a01b031682528101919091526040016000205460ff165b15611329578161132581612b7f565b9250505b60010161126a565b5060008167ffffffffffffffff81111561134d5761134d6125a7565b6040519080825280602002602001820160405280156113b957816020015b6113a66040518060a0016040528060006001600160a01b03168152602001600081526020016000815260200160008152602001600081525090565b81526020019060019003908161136b5790505b5090506000805b84518110156115145760008582815181106113dd576113dd612b69565b60209081029190910181015160008a8152600d835260408082206001600160a01b0384168352909352919091205490915060ff168061143e57506000878152600d602090815260408083206001600160a01b038516845290915290205460ff165b1561150b57600061144f828a6104bd565b9050600061145d838a6104bd565b6001600160a01b0384166000818152600b602090815260408083208f845282529182902054825160a08101845293845290830186905290820183905291925060608101826114ac5760006114b6565b6114b68343612b09565b81526020016114c5868d611165565b6114cf878f611165565b6114d99190612b1c565b8152508787815181106114ee576114ee612b69565b6020026020010181905250858061150490612b7f565b9650505050505b506001016113c0565b5090979650505050505050565b336001600160a01b038616811480159061154257506115408682611137565b155b156115735760405163711bec9160e11b81526001600160a01b03808316600483015287166024820152604401610549565b6108b78686868686611f33565b611588611757565b6001600160a01b0381166115b257604051631e4fbdf760e01b815260006004820152602401610549565b6115bb81611784565b50565b60006001600160e01b03198216636cdb3d1360e11b14806115ef57506001600160e01b031982166303a24d0760e21b145b806104df57506301ffc9a760e01b6001600160e01b03198316146104df565b60026003540361163157604051633ee5aeb560e01b815260040160405180910390fd5b6002600355565b61165383838360405180602001604052806000815250611fc1565b6001600160a01b0383166000818152600b602090815260408083208684528252808320439055600d8252808320938352929052205460ff166116eb576000828152600c602090815260408083208054600180820183559185528385200180546001600160a01b0319166001600160a01b038916908117909155868552600d8452828520908552909252909120805460ff191690911790555b505050565b6001600160a01b03841661171a57604051632bfa23e760e11b815260006004820152602401610549565b6001600160a01b03851661174357604051626a0d4560e21b815260006004820152602401610549565b611750858585858561201a565b5050505050565b6004546001600160a01b0316331461099e5760405163118cdaa760e01b8152336004820152602401610549565b600480546001600160a01b038381166001600160a01b0319831681179093556040519116919082907f8be0079c531659141344cd1fd0a4f28419497f9722a3daafe3b4186f6b6457e090600090a35050565b6118016040518060800160405280600081526020016000815260200160008152602001600081525090565b600061180f8361029a612aab565b6118199085612b1c565b9050600061182788886104bd565b9050600061183589886104bd565b9050886001600160a01b03168a6001600160a01b0316036118695761185a8683612b09565b91506118668582612b09565b90505b600060646118798361029a612aab565b6118839085612b1c565b61188e90606e612aab565b6118989190612af5565b9050806000036118a6575060015b808411156118cb57604085018390526060850182905260008086526020860152611928565b8685526020850186905260006118e18580612aab565b905060006118ef8380612aab565b9050806118fc8387612aab565b6119069190612af5565b6040880152806119168386612aab565b6119209190612af5565b606088015250505b505050509695505050505050565b600080611948866104478760d8612b1c565b6119528787611165565b61195c9190612b1c565b9050600061196f876102188860d8612b1c565b61197b9061029a612aab565b61198588886104bd565b61198f9190612b1c565b9050806000036119a457600092505050610e0c565b60006119b28561029a612aab565b6119bc9087612b1c565b90506000826119cb8386612aab565b6119d59190612af5565b90506127106119e6611d4c83612aab565b6119f09190612af5565b9998505050505050505050565b80156107c057806005541015611a4a5760405162461bcd60e51b8152602060048201526012602482015271547265617375727920756e646572666c6f7760701b6044820152606401610549565b8060056000828254611a5c9190612b09565b925050819055508060096000828254611a759190612b1c565b909155505060405163a9059cbb60e01b81526001600160a01b038381166004830152602482018390527f0000000000000000000000000000000000000000000000000000000000000000169063a9059cbb906044016020604051808303816000875af1158015611ae9573d6000803e3d6000fd5b505050506040513d601f19601f82011682018060405250810190611b0d9190612ac2565b6107c05760405162461bcd60e51b815260206004820152600b60248201526a14185e5bdd5d0819985a5b60aa1b6044820152606401610549565b60408101518151611b589190612b1c565b60076000828254611b699190612b1c565b909155505060608101516020820151611b829190612b1c565b60086000828254611b939190612b1c565b909155505050565b6001600160a01b038316611bc457604051626a0d4560e21b815260006004820152602401610549565b604080516001808252602082018590528183019081526060820184905260a082019092526000608082018181529192916117509187918590859061201a565b6001600160a01b038216611c2c5760405162ced3e160e81b815260006004820152602401610549565b6001600160a01b03838116600081815260016020908152604080832094871680845294825291829020805460ff191686151590811790915591519182527f17307eab39ab6107e8899845ad3d59bd9653f200f220920489ca2b5937696c31910160405180910390a3505050565b600080611ca7600185612b98565b90506000611cb6600185612b98565b90506000611cc5600684612bba565b905060006006611cd58186612bdb565b611cdf9190612bba565b90506000611cee602486612bdb565b90506000611cfd600686612bba565b905060006006611d0d8188612bdb565b611d179190612bba565b90506000611d26602488612bdb565b90508060010b8460010b13611d4457611d3f8482612bfc565b611d4e565b611d4e8185612bfc565b8260010b8660010b13611d6a57611d658684612bfc565b611d74565b611d748387612bfc565b8460010b8860010b13611d9057611d8b8886612bfc565b611d9a565b611d9a8589612bfc565b611da49190612c1f565b611dae9190612c1f565b61ffff166001149850505050505050505092915050565b80611dd033856104bd565b1015611e135760405162461bcd60e51b8152602060048201526012602482015271496e73756666696369656e7420756e69747360701b6044820152606401610549565b611e1e338483611b9b565b611e2833846104bd565b600003611e61576000838152600d602090815260408083203384528252808320805460ff19169055600b82528083208684529091528120555b611e7c33838360405180602001604052806000815250611fc1565b336000908152600b602090815260408083208584529091528120549003611ebb57336000908152600b6020908152604080832085845290915290204390555b6000828152600d6020908152604080832033845290915290205460ff166116eb576000828152600c602090815260408083208054600181810183559185528385200180546001600160a01b03191633908117909155868552600d8452828520908552909252909120805460ff19169091179055505050565b6001600160a01b038416611f5d57604051632bfa23e760e11b815260006004820152602401610549565b6001600160a01b038516611f8657604051626a0d4560e21b815260006004820152602401610549565b60408051600180825260208201869052818301908152606082018590526080820190925290611fb8878784848761201a565b50505050505050565b6001600160a01b038416611feb57604051632bfa23e760e11b815260006004820152602401610549565b604080516001808252602082018690528183019081526060820185905260808201909252906108b76000878484875b6120268585858561206d565b6001600160a01b03841615611750578251339060010361205f5760208481015190840151612058838989858589612281565b50506108b7565b6108b78187878787876123a5565b805182511461209c5781518151604051635b05999160e01b815260048101929092526024820152604401610549565b3360005b83518110156121a2576020818102858101820151908501909101516001600160a01b03881615612153576000828152602081815260408083206001600160a01b038c1684529091529020548181101561212c576040516303dee4c560e01b81526001600160a01b038a166004820152602481018290526044810183905260648101849052608401610549565b6000838152602081815260408083206001600160a01b038d16845290915290209082900390555b6001600160a01b03871615612198576000828152602081815260408083206001600160a01b038b16845290915281208054839290612192908490612b1c565b90915550505b50506001016120a0565b5082516001036122235760208301516000906020840151909150856001600160a01b0316876001600160a01b0316846001600160a01b03167fc3d58168c5ae7397731d063d5bbf3d657854427343f4c083240f7aacaa2d0f628585604051612214929190918252602082015260400190565b60405180910390a45050611750565b836001600160a01b0316856001600160a01b0316826001600160a01b03167f4a39dc06d4c0dbc64b70af90fd698a233a518aa5d07e595d983b8c0526c8f7fb8686604051612272929190612c42565b60405180910390a45050505050565b6001600160a01b0384163b156108b75760405163f23a6e6160e01b81526001600160a01b0385169063f23a6e61906122c59089908990889088908890600401612c70565b6020604051808303816000875af1925050508015612300575060408051601f3d908101601f191682019092526122fd91810190612cb5565b60015b612369573d80801561232e576040519150601f19603f3d011682016040523d82523d6000602084013e612333565b606091505b50805160000361236157604051632bfa23e760e11b81526001600160a01b0386166004820152602401610549565b805160208201fd5b6001600160e01b0319811663f23a6e6160e01b14611fb857604051632bfa23e760e11b81526001600160a01b0386166004820152602401610549565b6001600160a01b0384163b156108b75760405163bc197c8160e01b81526001600160a01b0385169063bc197c81906123e99089908990889088908890600401612cd2565b6020604051808303816000875af1925050508015612424575060408051601f3d908101601f1916820190925261242191810190612cb5565b60015b612452573d80801561232e576040519150601f19603f3d011682016040523d82523d6000602084013e612333565b6001600160e01b0319811663bc197c8160e01b14611fb857604051632bfa23e760e11b81526001600160a01b0386166004820152602401610549565b80356001600160a01b03811681146124a557600080fd5b919050565b600080604083850312156124bd57600080fd5b6124c68361248e565b946020939093013593505050565b6001600160e01b0319811681146115bb57600080fd5b6000602082840312156124fc57600080fd5b81356111e1816124d4565b803561ffff811681146124a557600080fd5b6000806040838503121561252c57600080fd5b6124c683612507565b60006020828403121561254757600080fd5b5035919050565b6000815180845260005b8181101561257457602081850181015186830182015201612558565b506000602082860101526020601f19601f83011685010191505092915050565b6020815260006111e1602083018461254e565b634e487b7160e01b600052604160045260246000fd5b604051601f8201601f1916810167ffffffffffffffff811182821017156125e6576125e66125a7565b604052919050565b600067ffffffffffffffff821115612608576126086125a7565b5060051b60200190565b600082601f83011261262357600080fd5b81356020612638612633836125ee565b6125bd565b8083825260208201915060208460051b87010193508684111561265a57600080fd5b602086015b84811015612676578035835291830191830161265f565b509695505050505050565b600082601f83011261269257600080fd5b813567ffffffffffffffff8111156126ac576126ac6125a7565b6126bf601f8201601f19166020016125bd565b8181528460208386010111156126d457600080fd5b816020850160208301376000918101602001919091529392505050565b600080600080600060a0868803121561270957600080fd5b6127128661248e565b94506127206020870161248e565b9350604086013567ffffffffffffffff8082111561273d57600080fd5b61274989838a01612612565b9450606088013591508082111561275f57600080fd5b61276b89838a01612612565b9350608088013591508082111561278157600080fd5b5061278e88828901612681565b9150509295509295909350565b600080604083850312156127ae57600080fd5b823567ffffffffffffffff808211156127c657600080fd5b818501915085601f8301126127da57600080fd5b813560206127ea612633836125ee565b82815260059290921b8401810191818101908984111561280957600080fd5b948201945b8386101561282e5761281f8661248e565b8252948201949082019061280e565b9650508601359250508082111561284457600080fd5b5061285185828601612612565b9150509250929050565b60008151808452602080850194506020840160005b8381101561288c57815187529582019590820190600101612870565b509495945050505050565b6020815260006111e1602083018461285b565b600080600080608085870312156128c057600080fd5b6128c98561248e565b93506128d760208601612507565b93969395505050506040820135916060013590565b80151581146115bb57600080fd5b6000806040838503121561290d57600080fd5b6129168361248e565b91506020830135612926816128ec565b809150509250929050565b60006020828403121561294357600080fd5b6111e18261248e565b6000806000806080858703121561296257600080fd5b6128c985612507565b6000806040838503121561297e57600080fd5b6129878361248e565b91506129956020840161248e565b90509250929050565b6000602082840312156129b057600080fd5b6111e182612507565b602080825282518282018190526000919060409081850190868401855b82811015612a2357815180516001600160a01b0316855286810151878601528581015186860152606080820151908601526080908101519085015260a090930192908501906001016129d6565b5091979650505050505050565b600080600080600060a08688031215612a4857600080fd5b612a518661248e565b9450612a5f6020870161248e565b93506040860135925060608601359150608086013567ffffffffffffffff811115612a8957600080fd5b61278e88828901612681565b634e487b7160e01b600052601160045260246000fd5b80820281158282048414176104df576104df612a95565b600060208284031215612ad457600080fd5b81516111e1816128ec565b634e487b7160e01b600052601260045260246000fd5b600082612b0457612b04612adf565b500490565b818103818111156104df576104df612a95565b808201808211156104df576104df612a95565b600181811c90821680612b4357607f821691505b602082108103612b6357634e487b7160e01b600052602260045260246000fd5b50919050565b634e487b7160e01b600052603260045260246000fd5b600060018201612b9157612b91612a95565b5060010190565b61ffff828116828216039080821115612bb357612bb3612a95565b5092915050565b600061ffff80841680612bcf57612bcf612adf565b92169190910692915050565b600061ffff80841680612bf057612bf0612adf565b92169190910492915050565b600182810b9082900b03617fff198112617fff821317156104df576104df612a95565b600181810b9083900b01617fff8113617fff19821217156104df576104df612a95565b604081526000612c55604083018561285b565b8281036020840152612c67818561285b565b95945050505050565b6001600160a01b03868116825285166020820152604081018490526060810183905260a060808201819052600090612caa9083018461254e565b979650505050505050565b600060208284031215612cc757600080fd5b81516111e1816124d4565b6001600160a01b0386811682528516602082015260a060408201819052600090612cfe9083018661285b565b8281036060840152612d10818661285b565b90508281036080840152612d24818561254e565b9897505050505050505056fea26469706673582212206136205140d93d45fcdca510a44a80b51aedf3cc79dd5074cc0c8aceba0eec4864736f6c6343000818003368747470733a2f2f6170692e6b696c6c67616d652e61692f6d657461646174612f7b69647d2e6a736f6e",
  "linkReferences": {},
  "deployedLinkReferences": {}
}