{
  "_format": "hh-sol-artifact-1",
  "contractName": "KILLGame",
  "sourceName": "contracts/KillGame.sol",
  "abi": [
    {
      "inputs": [
        {
          "internalType": "address",
          "name": "_tokenAddress",
          "type": "address"
        }
      ],
      "stateMutability": "nonpayable",
      "type": "constructor"
    },
    {
      "inputs": [
        {
          "internalType": "address",
          "name": "sender",
          "type": "address"
        },
        {
          "internalType": "uint256",
          "name": "balance",
          "type": "uint256"
        },
        {
          "internalType": "uint256",
          "name": "needed",
          "type": "uint256"
        },
        {
          "internalType": "uint256",
          "name": "tokenId",
          "type": "uint256"
        }
      ],
      "name": "ERC1155InsufficientBalance",
      "type": "error"
    },
    {
      "inputs": [
        {
          "internalType": "address",
          "name": "approver",
          "type": "address"
        }
      ],
      "name": "ERC1155InvalidApprover",
      "type": "error"
    },
    {
      "inputs": [
        {
          "internalType": "uint256",
          "name": "idsLength",
          "type": "uint256"
        },
        {
          "internalType": "uint256",
          "name": "valuesLength",
          "type": "uint256"
        }
      ],
      "name": "ERC1155InvalidArrayLength",
      "type": "error"
    },
    {
      "inputs": [
        {
          "internalType": "address",
          "name": "operator",
          "type": "address"
        }
      ],
      "name": "ERC1155InvalidOperator",
      "type": "error"
    },
    {
      "inputs": [
        {
          "internalType": "address",
          "name": "receiver",
          "type": "address"
        }
      ],
      "name": "ERC1155InvalidReceiver",
      "type": "error"
    },
    {
      "inputs": [
        {
          "internalType": "address",
          "name": "sender",
          "type": "address"
        }
      ],
      "name": "ERC1155InvalidSender",
      "type": "error"
    },
    {
      "inputs": [
        {
          "internalType": "address",
          "name": "operator",
          "type": "address"
        },
        {
          "internalType": "address",
          "name": "owner",
          "type": "address"
        }
      ],
      "name": "ERC1155MissingApprovalForAll",
      "type": "error"
    },
    {
      "inputs": [
        {
          "internalType": "address",
          "name": "owner",
          "type": "address"
        }
      ],
      "name": "OwnableInvalidOwner",
      "type": "error"
    },
    {
      "inputs": [
        {
          "internalType": "address",
          "name": "account",
          "type": "address"
        }
      ],
      "name": "OwnableUnauthorizedAccount",
      "type": "error"
    },
    {
      "inputs": [],
      "name": "ReentrancyGuardReentrantCall",
      "type": "error"
    },
    {
      "anonymous": false,
      "inputs": [
        {
          "indexed": true,
          "internalType": "address",
          "name": "account",
          "type": "address"
        },
        {
          "indexed": true,
          "internalType": "address",
          "name": "operator",
          "type": "address"
        },
        {
          "indexed": false,
          "internalType": "bool",
          "name": "approved",
          "type": "bool"
        }
      ],
      "name": "ApprovalForAll",
      "type": "event"
    },
    {
      "anonymous": false,
      "inputs": [
        {
          "indexed": true,
          "internalType": "address",
          "name": "attacker",
          "type": "address"
        },
        {
          "indexed": true,
          "internalType": "address",
          "name": "target",
          "type": "address"
        },
        {
          "indexed": true,
          "internalType": "uint16",
          "name": "cube",
          "type": "uint16"
        },
        {
          "indexed": false,
          "internalType": "uint256",
          "name": "attackerStdLost",
          "type": "uint256"
        },
        {
          "indexed": false,
          "internalType": "uint256",
          "name": "attackerBstLost",
          "type": "uint256"
        },
        {
          "indexed": false,
          "internalType": "uint256",
          "name": "targetStdLost",
          "type": "uint256"
        },
        {
          "indexed": false,
          "internalType": "uint256",
          "name": "targetBstLost",
          "type": "uint256"
        },
        {
          "indexed": false,
          "internalType": "uint256",
          "name": "netBounty",
          "type": "uint256"
        }
      ],
      "name": "Killed",
      "type": "event"
    },
    {
      "anonymous": false,
      "inputs": [
        {
          "indexed": true,
          "internalType": "address",
          "name": "agent",
          "type": "address"
        },
        {
          "indexed": false,
          "internalType": "uint16",
          "name": "fromCube",
          "type": "uint16"
        },
        {
          "indexed": false,
          "internalType": "uint16",
          "name": "toCube",
          "type": "uint16"
        },
        {
          "indexed": false,
          "internalType": "uint256",
          "name": "standardUnits",
          "type": "uint256"
        },
        {
          "indexed": false,
          "internalType": "uint256",
          "name": "boostedUnits",
          "type": "uint256"
        }
      ],
      "name": "Moved",
      "type": "event"
    },
    {
      "anonymous": false,
      "inputs": [
        {
          "indexed": true,
          "internalType": "address",
          "name": "previousOwner",
          "type": "address"
        },
        {
          "indexed": true,
          "internalType": "address",
          "name": "newOwner",
          "type": "address"
        }
      ],
      "name": "OwnershipTransferred",
      "type": "event"
    },
    {
      "anonymous": false,
      "inputs": [
        {
          "indexed": true,
          "internalType": "address",
          "name": "agent",
          "type": "address"
        },
        {
          "indexed": true,
          "internalType": "uint256",
          "name": "cube",
          "type": "uint256"
        },
        {
          "indexed": false,
          "internalType": "uint256",
          "name": "units",
          "type": "uint256"
        }
      ],
      "name": "Spawned",
      "type": "event"
    },
    {
      "anonymous": false,
      "inputs": [
        {
          "indexed": true,
          "internalType": "address",
          "name": "operator",
          "type": "address"
        },
        {
          "indexed": true,
          "internalType": "address",
          "name": "from",
          "type": "address"
        },
        {
          "indexed": true,
          "internalType": "address",
          "name": "to",
          "type": "address"
        },
        {
          "indexed": false,
          "internalType": "uint256[]",
          "name": "ids",
          "type": "uint256[]"
        },
        {
          "indexed": false,
          "internalType": "uint256[]",
          "name": "values",
          "type": "uint256[]"
        }
      ],
      "name": "TransferBatch",
      "type": "event"
    },
    {
      "anonymous": false,
      "inputs": [
        {
          "indexed": true,
          "internalType": "address",
          "name": "operator",
          "type": "address"
        },
        {
          "indexed": true,
          "internalType": "address",
          "name": "from",
          "type": "address"
        },
        {
          "indexed": true,
          "internalType": "address",
          "name": "to",
          "type": "address"
        },
        {
          "indexed": false,
          "internalType": "uint256",
          "name": "id",
          "type": "uint256"
        },
        {
          "indexed": false,
          "internalType": "uint256",
          "name": "value",
          "type": "uint256"
        }
      ],
      "name": "TransferSingle",
      "type": "event"
    },
    {
      "anonymous": false,
      "inputs": [
        {
          "indexed": false,
          "internalType": "string",
          "name": "value",
          "type": "string"
        },
        {
          "indexed": true,
          "internalType": "uint256",
          "name": "id",
          "type": "uint256"
        }
      ],
      "name": "URI",
      "type": "event"
    },
    {
      "inputs": [],
      "name": "BOOST_REQUIRED",
      "outputs": [
        {
          "internalType": "uint256",
          "name": "",
          "type": "uint256"
        }
      ],
      "stateMutability": "view",
      "type": "function"
    },
    {
      "inputs": [],
      "name": "BURN_BPS",
      "outputs": [
        {
          "internalType": "uint256",
          "name": "",
          "type": "uint256"
        }
      ],
      "stateMutability": "view",
      "type": "function"
    },
    {
      "inputs": [],
      "name": "SPAWN_COST",
      "outputs": [
        {
          "internalType": "uint256",
          "name": "",
          "type": "uint256"
        }
      ],
      "stateMutability": "view",
      "type": "function"
    },
    {
      "inputs": [],
      "name": "TREASURY_BPS",
      "outputs": [
        {
          "internalType": "uint256",
          "name": "",
          "type": "uint256"
        }
      ],
      "stateMutability": "view",
      "type": "function"
    },
    {
      "inputs": [
        {
          "internalType": "uint256",
          "name": "amt",
          "type": "uint256"
        }
      ],
      "name": "adminWithdraw",
      "outputs": [],
      "stateMutability": "nonpayable",
      "type": "function"
    },
    {
      "inputs": [
        {
          "internalType": "address",
          "name": "",
          "type": "address"
        },
        {
          "internalType": "uint256",
          "name": "",
          "type": "uint256"
        }
      ],
      "name": "agentStacks",
      "outputs": [
        {
          "internalType": "uint256",
          "name": "birthBlock",
          "type": "uint256"
        }
      ],
      "stateMutability": "view",
      "type": "function"
    },
    {
      "inputs": [
        {
          "internalType": "address",
          "name": "account",
          "type": "address"
        },
        {
          "internalType": "uint256",
          "name": "id",
          "type": "uint256"
        }
      ],
      "name": "balanceOf",
      "outputs": [
        {
          "internalType": "uint256",
          "name": "",
          "type": "uint256"
        }
      ],
      "stateMutability": "view",
      "type": "function"
    },
    {
      "inputs": [
        {
          "internalType": "address[]",
          "name": "accounts",
          "type": "address[]"
        },
        {
          "internalType": "uint256[]",
          "name": "ids",
          "type": "uint256[]"
        }
      ],
      "name": "balanceOfBatch",
      "outputs": [
        {
          "internalType": "uint256[]",
          "name": "",
          "type": "uint256[]"
        }
      ],
      "stateMutability": "view",
      "type": "function"
    },
    {
      "inputs": [
        {
          "internalType": "address",
          "name": "agent",
          "type": "address"
        },
        {
          "internalType": "uint256",
          "name": "id",
          "type": "uint256"
        }
      ],
      "name": "getPendingBounty",
      "outputs": [
        {
          "internalType": "uint256",
          "name": "",
          "type": "uint256"
        }
      ],
      "stateMutability": "view",
      "type": "function"
    },
    {
      "inputs": [
        {
          "internalType": "uint16",
          "name": "cube",
          "type": "uint16"
        },
        {
          "internalType": "bool",
          "name": "b",
          "type": "bool"
        }
      ],
      "name": "getRipeStacks",
      "outputs": [
        {
          "internalType": "address[]",
          "name": "a",
          "type": "address[]"
        },
        {
          "internalType": "uint256[]",
          "name": "ag",
          "type": "uint256[]"
        }
      ],
      "stateMutability": "view",
      "type": "function"
    },
    {
      "inputs": [
        {
          "internalType": "address",
          "name": "account",
          "type": "address"
        },
        {
          "internalType": "address",
          "name": "operator",
          "type": "address"
        }
      ],
      "name": "isApprovedForAll",
      "outputs": [
        {
          "internalType": "bool",
          "name": "",
          "type": "bool"
        }
      ],
      "stateMutability": "view",
      "type": "function"
    },
    {
      "inputs": [
        {
          "internalType": "address",
          "name": "target",
          "type": "address"
        },
        {
          "internalType": "uint16",
          "name": "cube",
          "type": "uint16"
        },
        {
          "internalType": "uint256",
          "name": "sentStd",
          "type": "uint256"
        },
        {
          "internalType": "uint256",
          "name": "sentBst",
          "type": "uint256"
        }
      ],
      "name": "kill",
      "outputs": [
        {
          "internalType": "uint256",
          "name": "netBounty",
          "type": "uint256"
        }
      ],
      "stateMutability": "nonpayable",
      "type": "function"
    },
    {
      "inputs": [],
      "name": "killToken",
      "outputs": [
        {
          "internalType": "contract IERC20",
          "name": "",
          "type": "address"
        }
      ],
      "stateMutability": "view",
      "type": "function"
    },
    {
      "inputs": [
        {
          "internalType": "uint16",
          "name": "fromCube",
          "type": "uint16"
        },
        {
          "internalType": "uint16",
          "name": "toCube",
          "type": "uint16"
        },
        {
          "internalType": "uint256",
          "name": "stdUnits",
          "type": "uint256"
        },
        {
          "internalType": "uint256",
          "name": "bstUnits",
          "type": "uint256"
        }
      ],
      "name": "move",
      "outputs": [],
      "stateMutability": "nonpayable",
      "type": "function"
    },
    {
      "inputs": [],
      "name": "owner",
      "outputs": [
        {
          "internalType": "address",
          "name": "",
          "type": "address"
        }
      ],
      "stateMutability": "view",
      "type": "function"
    },
    {
      "inputs": [],
      "name": "renounceOwnership",
      "outputs": [],
      "stateMutability": "nonpayable",
      "type": "function"
    },
    {
      "inputs": [
        {
          "internalType": "address",
          "name": "from",
          "type": "address"
        },
        {
          "internalType": "address",
          "name": "to",
          "type": "address"
        },
        {
          "internalType": "uint256[]",
          "name": "ids",
          "type": "uint256[]"
        },
        {
          "internalType": "uint256[]",
          "name": "values",
          "type": "uint256[]"
        },
        {
          "internalType": "bytes",
          "name": "data",
          "type": "bytes"
        }
      ],
      "name": "safeBatchTransferFrom",
      "outputs": [],
      "stateMutability": "nonpayable",
      "type": "function"
    },
    {
      "inputs": [
        {
          "internalType": "address",
          "name": "from",
          "type": "address"
        },
        {
          "internalType": "address",
          "name": "to",
          "type": "address"
        },
        {
          "internalType": "uint256",
          "name": "id",
          "type": "uint256"
        },
        {
          "internalType": "uint256",
          "name": "value",
          "type": "uint256"
        },
        {
          "internalType": "bytes",
          "name": "data",
          "type": "bytes"
        }
      ],
      "name": "safeTransferFrom",
      "outputs": [],
      "stateMutability": "nonpayable",
      "type": "function"
    },
    {
      "inputs": [
        {
          "internalType": "address",
          "name": "operator",
          "type": "address"
        },
        {
          "internalType": "bool",
          "name": "approved",
          "type": "bool"
        }
      ],
      "name": "setApprovalForAll",
      "outputs": [],
      "stateMutability": "nonpayable",
      "type": "function"
    },
    {
      "inputs": [
        {
          "internalType": "uint16",
          "name": "cube",
          "type": "uint16"
        },
        {
          "internalType": "uint256",
          "name": "units",
          "type": "uint256"
        }
      ],
      "name": "spawn",
      "outputs": [],
      "stateMutability": "nonpayable",
      "type": "function"
    },
    {
      "inputs": [
        {
          "internalType": "bytes4",
          "name": "id",
          "type": "bytes4"
        }
      ],
      "name": "supportsInterface",
      "outputs": [
        {
          "internalType": "bool",
          "name": "",
          "type": "bool"
        }
      ],
      "stateMutability": "view",
      "type": "function"
    },
    {
      "inputs": [],
      "name": "totalUnitsMinted",
      "outputs": [
        {
          "internalType": "uint256",
          "name": "",
          "type": "uint256"
        }
      ],
      "stateMutability": "view",
      "type": "function"
    },
    {
      "inputs": [
        {
          "internalType": "address",
          "name": "newOwner",
          "type": "address"
        }
      ],
      "name": "transferOwnership",
      "outputs": [],
      "stateMutability": "nonpayable",
      "type": "function"
    },
    {
      "inputs": [],
      "name": "treasuryBalance",
      "outputs": [
        {
          "internalType": "uint256",
          "name": "",
          "type": "uint256"
        }
      ],
      "stateMutability": "view",
      "type": "function"
    },
    {
      "inputs": [
        {
          "internalType": "uint256",
          "name": "",
          "type": "uint256"
        }
      ],
      "name": "uri",
      "outputs": [
        {
          "internalType": "string",
          "name": "",
          "type": "string"
        }
      ],
      "stateMutability": "view",
      "type": "function"
    }
  ],
  "bytecode": "0x60a06040523480156200001157600080fd5b5060405162002ade38038062002ade833981016040819052620000349162000111565b336040518060600160405280602a815260200162002ab4602a91396200005a81620000ad565b5060016003556001600160a01b0381166200008f57604051631e4fbdf760e01b81526000600482015260240160405180910390fd5b6200009a81620000bf565b506001600160a01b0316608052620002b6565b6002620000bb8282620001ea565b5050565b600480546001600160a01b038381166001600160a01b0319831681179093556040519116919082907f8be0079c531659141344cd1fd0a4f28419497f9722a3daafe3b4186f6b6457e090600090a35050565b6000602082840312156200012457600080fd5b81516001600160a01b03811681146200013c57600080fd5b9392505050565b634e487b7160e01b600052604160045260246000fd5b600181811c908216806200016e57607f821691505b6020821081036200018f57634e487b7160e01b600052602260045260246000fd5b50919050565b601f821115620001e5576000816000526020600020601f850160051c81016020861015620001c05750805b601f850160051c820191505b81811015620001e157828155600101620001cc565b5050505b505050565b81516001600160401b0381111562000206576200020662000143565b6200021e8162000217845462000159565b8462000195565b602080601f8311600181146200025657600084156200023d5750858301515b600019600386901b1c1916600185901b178555620001e1565b600085815260208120601f198616915b82811015620002875788860151825594840194600190910190840162000266565b5085821015620002a65787850151600019600388901b60f8161c191681555b5050505050600190811b01905550565b6080516127cd620002e7600039600081816102030152818161043501528181610b630152610e4401526127cd6000f3fe608060405234801561001057600080fd5b50600436106101725760003560e01c8063715018a6116100de578063c704c3f111610097578063ea075ee111610071578063ea075ee114610333578063edbd5df814610346578063f242432a14610371578063f2fde38b1461038457600080fd5b8063c704c3f1146102fe578063e74fe2371461030d578063e985e9c51461032057600080fd5b8063715018a6146102ac5780637c5b4a37146102b45780638da5cb5b146102c757806391fa2a6a146102d8578063a22cb465146102eb578063a37a9fc01461026257600080fd5b80632eb2c2d6116101305780632eb2c2d61461023d578063313dab20146102505780634c25d197146102595780634cf5317b146102625780634e1273f41461026b57806355ebad591461028b57600080fd5b8062fdd58e1461017757806301ffc9a71461019d57806309f61826146101c05780630a08f3d0146101d55780630e89341c146101de5780632bd7cd17146101fe575b600080fd5b61018a610185366004611f26565b610397565b6040519081526020015b60405180910390f35b6101b06101ab366004611f66565b6103bf565b6040519015158152602001610194565b6101d36101ce366004611f95565b6103ca565b005b61018a60065481565b6101f16101ec366004611fb1565b610630565b6040516101949190612010565b6102257f000000000000000000000000000000000000000000000000000000000000000081565b6040516001600160a01b039091168152602001610194565b6101d361024b36600461216d565b6106c4565b61018a60055481565b61018a61247681565b61018a61029a81565b61027e610279366004612217565b61072b565b6040516101949190612313565b61029e610299366004612334565b6107f8565b60405161019492919061236b565b6101d3610b2b565b6101d36102c2366004611fb1565b610b3f565b6004546001600160a01b0316610225565b61018a6102e63660046123cc565b610bd8565b6101d36102f936600461240e565b611153565b61018a678ac7230489e8000081565b6101d361031b36600461242a565b61115e565b6101b061032e366004612449565b6112ae565b61018a610341366004611f26565b6112dc565b61018a610354366004611f26565b600760209081526000928352604080842090915290825290205481565b6101d361037f36600461247c565b61135f565b6101d36103923660046124e1565b6113be565b6000818152602081815260408083206001600160a01b03861684529091529020545b92915050565b60006103b9826113fc565b6103d261144c565b60008261ffff161180156103eb575060d88261ffff1611155b61042b5760405162461bcd60e51b815260206004820152600c60248201526b496e76616c6964204375626560a01b60448201526064015b60405180910390fd5b6001600160a01b037f0000000000000000000000000000000000000000000000000000000000000000166323b872dd333061046e678ac7230489e8000086612512565b6040516001600160e01b031960e086901b1681526001600160a01b03938416600482015292909116602483015260448201526064016020604051808303816000875af11580156104c2573d6000803e3d6000fd5b505050506040513d601f19601f820116820180604052508101906104e69190612529565b61051d5760405162461bcd60e51b815260206004820152600860248201526714185e4819985a5b60c21b6044820152606401610422565b612710612476610535678ac7230489e8000084612512565b61053f9190612512565b610549919061255c565b6005600082825461055a9190612570565b90915550506006805490829060006105728385612570565b909155506000905061058661029a8361255c565b61029a600654610596919061255c565b6105a09190612583565b905060006105ae8285612583565b905080156105c5576105c5338661ffff1683611476565b81156105e4576105e4336105de61ffff881660d8612570565b84611476565b60405184815261ffff86169033907fd5fd522cbcc1631fc34044a6a2d3242adb07fb2d862b28f5215ad524dde676349060200160405180910390a350505061062c6001600355565b5050565b60606002805461063f90612596565b80601f016020809104026020016040519081016040528092919081815260200182805461066b90612596565b80156106b85780601f1061068d576101008083540402835291602001916106b8565b820191906000526020600020905b81548152906001019060200180831161069b57829003601f168201915b50505050509050919050565b336001600160a01b03861681148015906106e557506106e386826112ae565b155b156107165760405163711bec9160e11b81526001600160a01b03808316600483015287166024820152604401610422565b610723868686868661152e565b505050505050565b6060815183511461075c5781518351604051635b05999160e01b815260048101929092526024820152604401610422565b6000835167ffffffffffffffff81111561077857610778612023565b6040519080825280602002602001820160405280156107a1578160200160208202803683370190505b50905060005b84518110156107f0576020808202860101516107cb90602080840287010151610397565b8282815181106107dd576107dd6125d0565b60209081029190910101526001016107a7565b509392505050565b60608060008361080c578461ffff1661081b565b61081b61ffff861660d8612570565b60008181526008602090815260408083208054825181850281018501909352808352949550929390929183018282801561087e57602002820191906000526020600020905b81546001600160a01b03168152600190910190602001808311610860575b505050505090506000805b8251811015610929576009600085815260200190815260200160002060008483815181106108b9576108b96125d0565b6020908102919091018101516001600160a01b031682528101919091526040016000205460ff16801561090e5750600061090c8483815181106108fe576108fe6125d0565b602002602001015186610397565b115b15610921578161091d816125e6565b9250505b600101610889565b508067ffffffffffffffff81111561094357610943612023565b60405190808252806020026020018201604052801561096c578160200160208202803683370190505b5094508067ffffffffffffffff81111561098857610988612023565b6040519080825280602002602001820160405280156109b1578160200160208202803683370190505b5093506000805b8351811015610b1f576009600086815260200190815260200160002060008583815181106109e8576109e86125d0565b6020908102919091018101516001600160a01b031682528101919091526040016000205460ff168015610a3d57506000610a3b858381518110610a2d57610a2d6125d0565b602002602001015187610397565b115b15610b1757838181518110610a5457610a546125d0565b6020026020010151878381518110610a6e57610a6e6125d0565b60200260200101906001600160a01b031690816001600160a01b03168152505060076000858381518110610aa457610aa46125d0565b60200260200101516001600160a01b03166001600160a01b0316815260200190815260200160002060008681526020019081526020016000206000015443610aec9190612583565b868381518110610afe57610afe6125d0565b602090810291909101015281610b13816125e6565b9250505b6001016109b8565b50505050509250929050565b610b33611595565b610b3d60006115c2565b565b610b47611595565b60405163a9059cbb60e01b8152336004820152602481018290527f00000000000000000000000000000000000000000000000000000000000000006001600160a01b03169063a9059cbb906044016020604051808303816000875af1158015610bb4573d6000803e3d6000fd5b505050506040513d601f19601f8201168201806040525081019061062c9190612529565b6000610be261144c565b61ffff84166000610bf48260d8612570565b905084610c013384610397565b10158015610c18575083610c153383610397565b10155b610c515760405162461bcd60e51b815260206004820152600a6024820152694c61636b20756e69747360b01b6044820152606401610422565b610c7c6040518060800160405280600081526020016000815260200160008152602001600081525090565b6000610c8a8661029a612512565b610c949088612570565b905060008111610cd15760405162461bcd60e51b81526020600482015260086024820152674e6f20666f72636560c01b6044820152606401610422565b600080610cde8b87610397565b90506000610cec8c87610397565b90506001600160a01b038c163303610d1757610d088a83612583565b9150610d148982612583565b90505b6000610d258261029a612512565b610d2f9084612570565b905060008111610d40576001610d57565b6064610d4d82606e612512565b610d57919061255c565b6040870193909352506060850152905080821115610f4257610d798280612512565b610d838280612512565b610d8d908a612512565b610d97919061255c565b8352610da38280612512565b610dad8280612512565b610db79089612512565b610dc1919061255c565b60208401526000610dd28b866112dc565b610ddc8c886112dc565b610de69190612570565b90506000612710610df961029a84612512565b610e03919061255c565b9050610e0f8183612583565b97508160056000828254610e239190612583565b909155505060405163a9059cbb60e01b8152336004820152602481018990527f00000000000000000000000000000000000000000000000000000000000000006001600160a01b03169063a9059cbb906044016020604051808303816000875af1158015610e95573d6000803e3d6000fd5b505050506040513d601f19601f82011682018060405250810190610eb99190612529565b610ef35760405162461bcd60e51b815260206004820152600b60248201526a14185e5bdd5d0819985a5b60aa1b6044820152606401610422565b505060008581526009602081815260408084206001600160a01b038f16808652908352818520805460ff199081169091558986529383528185209085529091529091208054909116905561106d565b8783526020830187905260408301516060840151610f608380612512565b610f6a8580612512565b610f749084612512565b610f7e919061255c565b6040860152610f8d8380612512565b610f978580612512565b610fa19083612512565b610fab919061255c565b6060860152604085015160009850820361100f5760006009600089815260200190815260200160002060008e6001600160a01b03166001600160a01b0316815260200190815260200160002060006101000a81548160ff0219169083151502179055505b8460600151810361106a5760006009600088815260200190815260200160002060008e6001600160a01b03166001600160a01b0316815260200190815260200160002060006101000a81548160ff0219169083151502179055505b50505b604083015115611086576110868a868560400151611614565b60608301511561109f5761109f8a858560600151611614565b8251156110b5576110b533868560000151611614565b6020830151156110ce576110ce33858560200151611614565b8251602080850151604080870151606080890151835196875294860193909352908401528201526080810187905261ffff8a16906001600160a01b038c169033907fc677cddfd89fe6d048279040021220dd1b729c5b47ef0c43009647057c70afe59060a00160405180910390a4505050505061114b6001600355565b949350505050565b61062c33838361167c565b60008461ffff16118015611177575060d88461ffff1611155b6111b25760405162461bcd60e51b815260206004820152600c60248201526b496e76616c69642046726f6d60a01b6044820152606401610422565b60008361ffff161180156111cb575060d88361ffff1611155b80156111dc57506111dc8484611712565b6112135760405162461bcd60e51b8152602060048201526008602482015267426164206d6f766560c01b6044820152606401610422565b811561122c5761122c8461ffff168461ffff1684611873565b80156112595761125961124461ffff861660d8612570565b61125361ffff861660d8612570565b83611873565b6040805161ffff8087168252851660208201529081018390526060810182905233907f0521d9fe7f242e95c66e4bb3df47d09ca5041e0c3c214789be1e9ef6d10243939060800160405180910390a250505050565b6001600160a01b03918216600090815260016020908152604080832093909416825291909152205460ff1690565b6001600160a01b0382166000908152600760209081526040808320848452909152812054810361130e575060006103b9565b6001600160a01b0383166000908152600760209081526040808320858452909152902054620f4240906113419043612583565b60055461134e9190612512565b611358919061255c565b9392505050565b336001600160a01b0386168114801590611380575061137e86826112ae565b155b156113b15760405163711bec9160e11b81526001600160a01b03808316600483015287166024820152604401610422565b61072386868686866119af565b6113c6611595565b6001600160a01b0381166113f057604051631e4fbdf760e01b815260006004820152602401610422565b6113f9816115c2565b50565b60006001600160e01b03198216636cdb3d1360e11b148061142d57506001600160e01b031982166303a24d0760e21b145b806103b957506301ffc9a760e01b6001600160e01b03198316146103b9565b60026003540361146f57604051633ee5aeb560e01b815260040160405180910390fd5b6002600355565b61149183838360405180602001604052806000815250611a3d565b6001600160a01b0383166000818152600760209081526040808320868452825280832043905560098252808320938352929052205460ff166115295760008281526008602090815260408083208054600180820183559185528385200180546001600160a01b0319166001600160a01b03891690811790915586855260098452828520908552909252909120805460ff191690911790555b505050565b6001600160a01b03841661155857604051632bfa23e760e11b815260006004820152602401610422565b6001600160a01b03851661158157604051626a0d4560e21b815260006004820152602401610422565b61158e8585858585611a96565b5050505050565b6004546001600160a01b03163314610b3d5760405163118cdaa760e01b8152336004820152602401610422565b600480546001600160a01b038381166001600160a01b0319831681179093556040519116919082907f8be0079c531659141344cd1fd0a4f28419497f9722a3daafe3b4186f6b6457e090600090a35050565b6001600160a01b03831661163d57604051626a0d4560e21b815260006004820152602401610422565b604080516001808252602082018590528183019081526060820184905260a0820190925260006080820181815291929161158e91879185908590611a96565b6001600160a01b0382166116a55760405162ced3e160e81b815260006004820152602401610422565b6001600160a01b03838116600081815260016020908152604080832094871680845294825291829020805460ff191686151590811790915591519182527f17307eab39ab6107e8899845ad3d59bd9653f200f220920489ca2b5937696c31910160405180910390a3505050565b60008161ffff168361ffff16148061172c575061ffff8316155b80611739575061ffff8216155b15611746575060006103b9565b60006117536001856125ff565b905060006117626001856125ff565b90506000611771600684612621565b9050600060066117818186612642565b61178b9190612621565b9050600061179a602486612642565b905060006117a9600686612621565b9050600060066117b98188612642565b6117c39190612621565b905060006117d2602488612642565b905060008160010b8560010b136117f2576117ed8583612663565b6117fc565b6117fc8286612663565b8360010b8760010b13611818576118138785612663565b611822565b6118228488612663565b8560010b8960010b1361183e576118398987612663565b611848565b611848868a612663565b6118529190612686565b61185c9190612686565b61ffff166001149c9b505050505050505050505050565b8061187e3385610397565b10156118c15760405162461bcd60e51b8152602060048201526012602482015271496e73756666696369656e7420756e69747360701b6044820152606401610422565b6118cc338483611614565b6118e733838360405180602001604052806000815250611a3d565b336000818152600760209081526040808320868452909152902043905561190e9084610397565b6000036119375760008381526009602090815260408083203384529091529020805460ff191690555b600082815260096020908152604080832033845290915290205460ff166115295760008281526008602090815260408083208054600181810183559185528385200180546001600160a01b0319163390811790915586855260098452828520908552909252909120805460ff19169091179055505050565b6001600160a01b0384166119d957604051632bfa23e760e11b815260006004820152602401610422565b6001600160a01b038516611a0257604051626a0d4560e21b815260006004820152602401610422565b60408051600180825260208201869052818301908152606082018590526080820190925290611a348787848487611a96565b50505050505050565b6001600160a01b038416611a6757604051632bfa23e760e11b815260006004820152602401610422565b604080516001808252602082018690528183019081526060820185905260808201909252906107236000878484875b611aa285858585611ae9565b6001600160a01b0384161561158e5782513390600103611adb5760208481015190840151611ad4838989858589611cfd565b5050610723565b610723818787878787611e21565b8051825114611b185781518151604051635b05999160e01b815260048101929092526024820152604401610422565b3360005b8351811015611c1e576020818102858101820151908501909101516001600160a01b03881615611bcf576000828152602081815260408083206001600160a01b038c16845290915290205481811015611ba8576040516303dee4c560e01b81526001600160a01b038a166004820152602481018290526044810183905260648101849052608401610422565b6000838152602081815260408083206001600160a01b038d16845290915290209082900390555b6001600160a01b03871615611c14576000828152602081815260408083206001600160a01b038b16845290915281208054839290611c0e908490612570565b90915550505b5050600101611b1c565b508251600103611c9f5760208301516000906020840151909150856001600160a01b0316876001600160a01b0316846001600160a01b03167fc3d58168c5ae7397731d063d5bbf3d657854427343f4c083240f7aacaa2d0f628585604051611c90929190918252602082015260400190565b60405180910390a4505061158e565b836001600160a01b0316856001600160a01b0316826001600160a01b03167f4a39dc06d4c0dbc64b70af90fd698a233a518aa5d07e595d983b8c0526c8f7fb8686604051611cee9291906126a9565b60405180910390a45050505050565b6001600160a01b0384163b156107235760405163f23a6e6160e01b81526001600160a01b0385169063f23a6e6190611d4190899089908890889088906004016126d7565b6020604051808303816000875af1925050508015611d7c575060408051601f3d908101601f19168201909252611d799181019061271c565b60015b611de5573d808015611daa576040519150601f19603f3d011682016040523d82523d6000602084013e611daf565b606091505b508051600003611ddd57604051632bfa23e760e11b81526001600160a01b0386166004820152602401610422565b805160208201fd5b6001600160e01b0319811663f23a6e6160e01b14611a3457604051632bfa23e760e11b81526001600160a01b0386166004820152602401610422565b6001600160a01b0384163b156107235760405163bc197c8160e01b81526001600160a01b0385169063bc197c8190611e659089908990889088908890600401612739565b6020604051808303816000875af1925050508015611ea0575060408051601f3d908101601f19168201909252611e9d9181019061271c565b60015b611ece573d808015611daa576040519150601f19603f3d011682016040523d82523d6000602084013e611daf565b6001600160e01b0319811663bc197c8160e01b14611a3457604051632bfa23e760e11b81526001600160a01b0386166004820152602401610422565b80356001600160a01b0381168114611f2157600080fd5b919050565b60008060408385031215611f3957600080fd5b611f4283611f0a565b946020939093013593505050565b6001600160e01b0319811681146113f957600080fd5b600060208284031215611f7857600080fd5b813561135881611f50565b803561ffff81168114611f2157600080fd5b60008060408385031215611fa857600080fd5b611f4283611f83565b600060208284031215611fc357600080fd5b5035919050565b6000815180845260005b81811015611ff057602081850181015186830182015201611fd4565b506000602082860101526020601f19601f83011685010191505092915050565b6020815260006113586020830184611fca565b634e487b7160e01b600052604160045260246000fd5b604051601f8201601f1916810167ffffffffffffffff8111828210171561206257612062612023565b604052919050565b600067ffffffffffffffff82111561208457612084612023565b5060051b60200190565b600082601f83011261209f57600080fd5b813560206120b46120af8361206a565b612039565b8083825260208201915060208460051b8701019350868411156120d657600080fd5b602086015b848110156120f257803583529183019183016120db565b509695505050505050565b600082601f83011261210e57600080fd5b813567ffffffffffffffff81111561212857612128612023565b61213b601f8201601f1916602001612039565b81815284602083860101111561215057600080fd5b816020850160208301376000918101602001919091529392505050565b600080600080600060a0868803121561218557600080fd5b61218e86611f0a565b945061219c60208701611f0a565b9350604086013567ffffffffffffffff808211156121b957600080fd5b6121c589838a0161208e565b945060608801359150808211156121db57600080fd5b6121e789838a0161208e565b935060808801359150808211156121fd57600080fd5b5061220a888289016120fd565b9150509295509295909350565b6000806040838503121561222a57600080fd5b823567ffffffffffffffff8082111561224257600080fd5b818501915085601f83011261225657600080fd5b813560206122666120af8361206a565b82815260059290921b8401810191818101908984111561228557600080fd5b948201945b838610156122aa5761229b86611f0a565b8252948201949082019061228a565b965050860135925050808211156122c057600080fd5b506122cd8582860161208e565b9150509250929050565b60008151808452602080850194506020840160005b83811015612308578151875295820195908201906001016122ec565b509495945050505050565b60208152600061135860208301846122d7565b80151581146113f957600080fd5b6000806040838503121561234757600080fd5b61235083611f83565b9150602083013561236081612326565b809150509250929050565b604080825283519082018190526000906020906060840190828701845b828110156123ad5781516001600160a01b031684529284019290840190600101612388565b50505083810360208501526123c281866122d7565b9695505050505050565b600080600080608085870312156123e257600080fd5b6123eb85611f0a565b93506123f960208601611f83565b93969395505050506040820135916060013590565b6000806040838503121561242157600080fd5b61235083611f0a565b6000806000806080858703121561244057600080fd5b6123eb85611f83565b6000806040838503121561245c57600080fd5b61246583611f0a565b915061247360208401611f0a565b90509250929050565b600080600080600060a0868803121561249457600080fd5b61249d86611f0a565b94506124ab60208701611f0a565b93506040860135925060608601359150608086013567ffffffffffffffff8111156124d557600080fd5b61220a888289016120fd565b6000602082840312156124f357600080fd5b61135882611f0a565b634e487b7160e01b600052601160045260246000fd5b80820281158282048414176103b9576103b96124fc565b60006020828403121561253b57600080fd5b815161135881612326565b634e487b7160e01b600052601260045260246000fd5b60008261256b5761256b612546565b500490565b808201808211156103b9576103b96124fc565b818103818111156103b9576103b96124fc565b600181811c908216806125aa57607f821691505b6020821081036125ca57634e487b7160e01b600052602260045260246000fd5b50919050565b634e487b7160e01b600052603260045260246000fd5b6000600182016125f8576125f86124fc565b5060010190565b61ffff82811682821603908082111561261a5761261a6124fc565b5092915050565b600061ffff8084168061263657612636612546565b92169190910692915050565b600061ffff8084168061265757612657612546565b92169190910492915050565b600182810b9082900b03617fff198112617fff821317156103b9576103b96124fc565b600181810b9083900b01617fff8113617fff19821217156103b9576103b96124fc565b6040815260006126bc60408301856122d7565b82810360208401526126ce81856122d7565b95945050505050565b6001600160a01b03868116825285166020820152604081018490526060810183905260a06080820181905260009061271190830184611fca565b979650505050505050565b60006020828403121561272e57600080fd5b815161135881611f50565b6001600160a01b0386811682528516602082015260a060408201819052600090612765908301866122d7565b828103606084015261277781866122d7565b9050828103608084015261278b8185611fca565b9897505050505050505056fea26469706673582212202059950544c832088269ccd1fb41ed8d4f21bb3a99751ad72a15968f92eec0ea64736f6c6343000818003368747470733a2f2f6170692e6b696c6c67616d652e61692f6d657461646174612f7b69647d2e6a736f6e",
  "linkReferences": {},
  "deployedLinkReferences": {}
}