{
  "_format": "hh-sol-artifact-1",
  "contractName": "KILLGame",
  "sourceName": "contracts/KillGame.sol",
  "abi": [
    {
      "inputs": [
        {
          "internalType": "address",
          "name": "_tokenAddress",
          "type": "address"
        }
      ],
      "stateMutability": "nonpayable",
      "type": "constructor"
    },
    {
      "inputs": [
        {
          "internalType": "address",
          "name": "sender",
          "type": "address"
        },
        {
          "internalType": "uint256",
          "name": "balance",
          "type": "uint256"
        },
        {
          "internalType": "uint256",
          "name": "needed",
          "type": "uint256"
        },
        {
          "internalType": "uint256",
          "name": "tokenId",
          "type": "uint256"
        }
      ],
      "name": "ERC1155InsufficientBalance",
      "type": "error"
    },
    {
      "inputs": [
        {
          "internalType": "address",
          "name": "approver",
          "type": "address"
        }
      ],
      "name": "ERC1155InvalidApprover",
      "type": "error"
    },
    {
      "inputs": [
        {
          "internalType": "uint256",
          "name": "idsLength",
          "type": "uint256"
        },
        {
          "internalType": "uint256",
          "name": "valuesLength",
          "type": "uint256"
        }
      ],
      "name": "ERC1155InvalidArrayLength",
      "type": "error"
    },
    {
      "inputs": [
        {
          "internalType": "address",
          "name": "operator",
          "type": "address"
        }
      ],
      "name": "ERC1155InvalidOperator",
      "type": "error"
    },
    {
      "inputs": [
        {
          "internalType": "address",
          "name": "receiver",
          "type": "address"
        }
      ],
      "name": "ERC1155InvalidReceiver",
      "type": "error"
    },
    {
      "inputs": [
        {
          "internalType": "address",
          "name": "sender",
          "type": "address"
        }
      ],
      "name": "ERC1155InvalidSender",
      "type": "error"
    },
    {
      "inputs": [
        {
          "internalType": "address",
          "name": "operator",
          "type": "address"
        },
        {
          "internalType": "address",
          "name": "owner",
          "type": "address"
        }
      ],
      "name": "ERC1155MissingApprovalForAll",
      "type": "error"
    },
    {
      "inputs": [
        {
          "internalType": "address",
          "name": "owner",
          "type": "address"
        }
      ],
      "name": "OwnableInvalidOwner",
      "type": "error"
    },
    {
      "inputs": [
        {
          "internalType": "address",
          "name": "account",
          "type": "address"
        }
      ],
      "name": "OwnableUnauthorizedAccount",
      "type": "error"
    },
    {
      "inputs": [],
      "name": "ReentrancyGuardReentrantCall",
      "type": "error"
    },
    {
      "anonymous": false,
      "inputs": [
        {
          "indexed": true,
          "internalType": "address",
          "name": "account",
          "type": "address"
        },
        {
          "indexed": true,
          "internalType": "address",
          "name": "operator",
          "type": "address"
        },
        {
          "indexed": false,
          "internalType": "bool",
          "name": "approved",
          "type": "bool"
        }
      ],
      "name": "ApprovalForAll",
      "type": "event"
    },
    {
      "anonymous": false,
      "inputs": [
        {
          "indexed": false,
          "internalType": "uint256",
          "name": "totalUnitsKilled",
          "type": "uint256"
        },
        {
          "indexed": false,
          "internalType": "uint256",
          "name": "totalReaperKilled",
          "type": "uint256"
        },
        {
          "indexed": false,
          "internalType": "uint256",
          "name": "killAdded",
          "type": "uint256"
        },
        {
          "indexed": false,
          "internalType": "uint256",
          "name": "killExtracted",
          "type": "uint256"
        },
        {
          "indexed": false,
          "internalType": "uint256",
          "name": "killBurned",
          "type": "uint256"
        }
      ],
      "name": "GlobalStats",
      "type": "event"
    },
    {
      "anonymous": false,
      "inputs": [
        {
          "indexed": true,
          "internalType": "address",
          "name": "attacker",
          "type": "address"
        },
        {
          "indexed": true,
          "internalType": "address",
          "name": "target",
          "type": "address"
        },
        {
          "indexed": true,
          "internalType": "uint16",
          "name": "cube",
          "type": "uint16"
        },
        {
          "indexed": false,
          "internalType": "uint256",
          "name": "attackerUnitsLost",
          "type": "uint256"
        },
        {
          "indexed": false,
          "internalType": "uint256",
          "name": "attackerReaperLost",
          "type": "uint256"
        },
        {
          "indexed": false,
          "internalType": "uint256",
          "name": "targetUnitsLost",
          "type": "uint256"
        },
        {
          "indexed": false,
          "internalType": "uint256",
          "name": "targetReaperLost",
          "type": "uint256"
        },
        {
          "indexed": false,
          "internalType": "uint256",
          "name": "netBounty",
          "type": "uint256"
        }
      ],
      "name": "Killed",
      "type": "event"
    },
    {
      "anonymous": false,
      "inputs": [
        {
          "indexed": true,
          "internalType": "address",
          "name": "agent",
          "type": "address"
        },
        {
          "indexed": false,
          "internalType": "uint16",
          "name": "fromCube",
          "type": "uint16"
        },
        {
          "indexed": false,
          "internalType": "uint16",
          "name": "toCube",
          "type": "uint16"
        },
        {
          "indexed": false,
          "internalType": "uint256",
          "name": "units",
          "type": "uint256"
        },
        {
          "indexed": false,
          "internalType": "uint256",
          "name": "reaper",
          "type": "uint256"
        }
      ],
      "name": "Moved",
      "type": "event"
    },
    {
      "anonymous": false,
      "inputs": [
        {
          "indexed": true,
          "internalType": "address",
          "name": "previousOwner",
          "type": "address"
        },
        {
          "indexed": true,
          "internalType": "address",
          "name": "newOwner",
          "type": "address"
        }
      ],
      "name": "OwnershipTransferred",
      "type": "event"
    },
    {
      "anonymous": false,
      "inputs": [
        {
          "indexed": true,
          "internalType": "address",
          "name": "agent",
          "type": "address"
        },
        {
          "indexed": true,
          "internalType": "uint256",
          "name": "cube",
          "type": "uint256"
        },
        {
          "indexed": false,
          "internalType": "uint256",
          "name": "units",
          "type": "uint256"
        }
      ],
      "name": "Spawned",
      "type": "event"
    },
    {
      "anonymous": false,
      "inputs": [
        {
          "indexed": true,
          "internalType": "address",
          "name": "operator",
          "type": "address"
        },
        {
          "indexed": true,
          "internalType": "address",
          "name": "from",
          "type": "address"
        },
        {
          "indexed": true,
          "internalType": "address",
          "name": "to",
          "type": "address"
        },
        {
          "indexed": false,
          "internalType": "uint256[]",
          "name": "ids",
          "type": "uint256[]"
        },
        {
          "indexed": false,
          "internalType": "uint256[]",
          "name": "values",
          "type": "uint256[]"
        }
      ],
      "name": "TransferBatch",
      "type": "event"
    },
    {
      "anonymous": false,
      "inputs": [
        {
          "indexed": true,
          "internalType": "address",
          "name": "operator",
          "type": "address"
        },
        {
          "indexed": true,
          "internalType": "address",
          "name": "from",
          "type": "address"
        },
        {
          "indexed": true,
          "internalType": "address",
          "name": "to",
          "type": "address"
        },
        {
          "indexed": false,
          "internalType": "uint256",
          "name": "id",
          "type": "uint256"
        },
        {
          "indexed": false,
          "internalType": "uint256",
          "name": "value",
          "type": "uint256"
        }
      ],
      "name": "TransferSingle",
      "type": "event"
    },
    {
      "anonymous": false,
      "inputs": [
        {
          "indexed": false,
          "internalType": "string",
          "name": "value",
          "type": "string"
        },
        {
          "indexed": true,
          "internalType": "uint256",
          "name": "id",
          "type": "uint256"
        }
      ],
      "name": "URI",
      "type": "event"
    },
    {
      "inputs": [],
      "name": "BURN_BPS",
      "outputs": [
        {
          "internalType": "uint256",
          "name": "",
          "type": "uint256"
        }
      ],
      "stateMutability": "view",
      "type": "function"
    },
    {
      "inputs": [],
      "name": "SPAWN_COST",
      "outputs": [
        {
          "internalType": "uint256",
          "name": "",
          "type": "uint256"
        }
      ],
      "stateMutability": "view",
      "type": "function"
    },
    {
      "inputs": [],
      "name": "TREASURY_BPS",
      "outputs": [
        {
          "internalType": "uint256",
          "name": "",
          "type": "uint256"
        }
      ],
      "stateMutability": "view",
      "type": "function"
    },
    {
      "inputs": [
        {
          "internalType": "uint256",
          "name": "amt",
          "type": "uint256"
        }
      ],
      "name": "adminWithdraw",
      "outputs": [],
      "stateMutability": "nonpayable",
      "type": "function"
    },
    {
      "inputs": [
        {
          "internalType": "address",
          "name": "",
          "type": "address"
        },
        {
          "internalType": "uint256",
          "name": "",
          "type": "uint256"
        }
      ],
      "name": "agentStacks",
      "outputs": [
        {
          "internalType": "uint256",
          "name": "birthBlock",
          "type": "uint256"
        }
      ],
      "stateMutability": "view",
      "type": "function"
    },
    {
      "inputs": [
        {
          "internalType": "address",
          "name": "account",
          "type": "address"
        },
        {
          "internalType": "uint256",
          "name": "id",
          "type": "uint256"
        }
      ],
      "name": "balanceOf",
      "outputs": [
        {
          "internalType": "uint256",
          "name": "",
          "type": "uint256"
        }
      ],
      "stateMutability": "view",
      "type": "function"
    },
    {
      "inputs": [
        {
          "internalType": "address[]",
          "name": "accounts",
          "type": "address[]"
        },
        {
          "internalType": "uint256[]",
          "name": "ids",
          "type": "uint256[]"
        }
      ],
      "name": "balanceOfBatch",
      "outputs": [
        {
          "internalType": "uint256[]",
          "name": "",
          "type": "uint256[]"
        }
      ],
      "stateMutability": "view",
      "type": "function"
    },
    {
      "inputs": [
        {
          "internalType": "address",
          "name": "agent",
          "type": "address"
        },
        {
          "internalType": "uint256",
          "name": "id",
          "type": "uint256"
        }
      ],
      "name": "getPendingBounty",
      "outputs": [
        {
          "internalType": "uint256",
          "name": "",
          "type": "uint256"
        }
      ],
      "stateMutability": "view",
      "type": "function"
    },
    {
      "inputs": [
        {
          "internalType": "uint16",
          "name": "cube",
          "type": "uint16"
        },
        {
          "internalType": "bool",
          "name": "b",
          "type": "bool"
        }
      ],
      "name": "getRipeStacks",
      "outputs": [
        {
          "internalType": "address[]",
          "name": "a",
          "type": "address[]"
        },
        {
          "internalType": "uint256[]",
          "name": "ag",
          "type": "uint256[]"
        }
      ],
      "stateMutability": "view",
      "type": "function"
    },
    {
      "inputs": [
        {
          "internalType": "address",
          "name": "account",
          "type": "address"
        },
        {
          "internalType": "address",
          "name": "operator",
          "type": "address"
        }
      ],
      "name": "isApprovedForAll",
      "outputs": [
        {
          "internalType": "bool",
          "name": "",
          "type": "bool"
        }
      ],
      "stateMutability": "view",
      "type": "function"
    },
    {
      "inputs": [
        {
          "internalType": "address",
          "name": "target",
          "type": "address"
        },
        {
          "internalType": "uint16",
          "name": "cube",
          "type": "uint16"
        },
        {
          "internalType": "uint256",
          "name": "sentUnits",
          "type": "uint256"
        },
        {
          "internalType": "uint256",
          "name": "sentReaper",
          "type": "uint256"
        }
      ],
      "name": "kill",
      "outputs": [
        {
          "internalType": "uint256",
          "name": "netBounty",
          "type": "uint256"
        }
      ],
      "stateMutability": "nonpayable",
      "type": "function"
    },
    {
      "inputs": [],
      "name": "killToken",
      "outputs": [
        {
          "internalType": "contract IERC20",
          "name": "",
          "type": "address"
        }
      ],
      "stateMutability": "view",
      "type": "function"
    },
    {
      "inputs": [
        {
          "internalType": "uint16",
          "name": "fromCube",
          "type": "uint16"
        },
        {
          "internalType": "uint16",
          "name": "toCube",
          "type": "uint16"
        },
        {
          "internalType": "uint256",
          "name": "units",
          "type": "uint256"
        },
        {
          "internalType": "uint256",
          "name": "reaper",
          "type": "uint256"
        }
      ],
      "name": "move",
      "outputs": [],
      "stateMutability": "nonpayable",
      "type": "function"
    },
    {
      "inputs": [],
      "name": "owner",
      "outputs": [
        {
          "internalType": "address",
          "name": "",
          "type": "address"
        }
      ],
      "stateMutability": "view",
      "type": "function"
    },
    {
      "inputs": [],
      "name": "renounceOwnership",
      "outputs": [],
      "stateMutability": "nonpayable",
      "type": "function"
    },
    {
      "inputs": [
        {
          "internalType": "address",
          "name": "from",
          "type": "address"
        },
        {
          "internalType": "address",
          "name": "to",
          "type": "address"
        },
        {
          "internalType": "uint256[]",
          "name": "ids",
          "type": "uint256[]"
        },
        {
          "internalType": "uint256[]",
          "name": "values",
          "type": "uint256[]"
        },
        {
          "internalType": "bytes",
          "name": "data",
          "type": "bytes"
        }
      ],
      "name": "safeBatchTransferFrom",
      "outputs": [],
      "stateMutability": "nonpayable",
      "type": "function"
    },
    {
      "inputs": [
        {
          "internalType": "address",
          "name": "from",
          "type": "address"
        },
        {
          "internalType": "address",
          "name": "to",
          "type": "address"
        },
        {
          "internalType": "uint256",
          "name": "id",
          "type": "uint256"
        },
        {
          "internalType": "uint256",
          "name": "value",
          "type": "uint256"
        },
        {
          "internalType": "bytes",
          "name": "data",
          "type": "bytes"
        }
      ],
      "name": "safeTransferFrom",
      "outputs": [],
      "stateMutability": "nonpayable",
      "type": "function"
    },
    {
      "inputs": [
        {
          "internalType": "address",
          "name": "operator",
          "type": "address"
        },
        {
          "internalType": "bool",
          "name": "approved",
          "type": "bool"
        }
      ],
      "name": "setApprovalForAll",
      "outputs": [],
      "stateMutability": "nonpayable",
      "type": "function"
    },
    {
      "inputs": [
        {
          "internalType": "uint16",
          "name": "cube",
          "type": "uint16"
        },
        {
          "internalType": "uint256",
          "name": "amount",
          "type": "uint256"
        }
      ],
      "name": "spawn",
      "outputs": [],
      "stateMutability": "nonpayable",
      "type": "function"
    },
    {
      "inputs": [
        {
          "internalType": "bytes4",
          "name": "id",
          "type": "bytes4"
        }
      ],
      "name": "supportsInterface",
      "outputs": [
        {
          "internalType": "bool",
          "name": "",
          "type": "bool"
        }
      ],
      "stateMutability": "view",
      "type": "function"
    },
    {
      "inputs": [],
      "name": "totalKillBurned",
      "outputs": [
        {
          "internalType": "uint256",
          "name": "",
          "type": "uint256"
        }
      ],
      "stateMutability": "view",
      "type": "function"
    },
    {
      "inputs": [],
      "name": "totalKillExtracted",
      "outputs": [
        {
          "internalType": "uint256",
          "name": "",
          "type": "uint256"
        }
      ],
      "stateMutability": "view",
      "type": "function"
    },
    {
      "inputs": [],
      "name": "totalReaperKilled",
      "outputs": [
        {
          "internalType": "uint256",
          "name": "",
          "type": "uint256"
        }
      ],
      "stateMutability": "view",
      "type": "function"
    },
    {
      "inputs": [],
      "name": "totalUnitsKilled",
      "outputs": [
        {
          "internalType": "uint256",
          "name": "",
          "type": "uint256"
        }
      ],
      "stateMutability": "view",
      "type": "function"
    },
    {
      "inputs": [],
      "name": "totalUnitsMinted",
      "outputs": [
        {
          "internalType": "uint256",
          "name": "",
          "type": "uint256"
        }
      ],
      "stateMutability": "view",
      "type": "function"
    },
    {
      "inputs": [
        {
          "internalType": "address",
          "name": "newOwner",
          "type": "address"
        }
      ],
      "name": "transferOwnership",
      "outputs": [],
      "stateMutability": "nonpayable",
      "type": "function"
    },
    {
      "inputs": [],
      "name": "treasuryBalance",
      "outputs": [
        {
          "internalType": "uint256",
          "name": "",
          "type": "uint256"
        }
      ],
      "stateMutability": "view",
      "type": "function"
    },
    {
      "inputs": [
        {
          "internalType": "uint256",
          "name": "",
          "type": "uint256"
        }
      ],
      "name": "uri",
      "outputs": [
        {
          "internalType": "string",
          "name": "",
          "type": "string"
        }
      ],
      "stateMutability": "view",
      "type": "function"
    }
  ],
  "bytecode": "0x60a06040523480156200001157600080fd5b5060405162002c3738038062002c37833981016040819052620000349162000111565b336040518060600160405280602a815260200162002c0d602a91396200005a81620000ad565b5060016003556001600160a01b0381166200008f57604051631e4fbdf760e01b81526000600482015260240160405180910390fd5b6200009a81620000bf565b506001600160a01b0316608052620002b6565b6002620000bb8282620001ea565b5050565b600480546001600160a01b038381166001600160a01b0319831681179093556040519116919082907f8be0079c531659141344cd1fd0a4f28419497f9722a3daafe3b4186f6b6457e090600090a35050565b6000602082840312156200012457600080fd5b81516001600160a01b03811681146200013c57600080fd5b9392505050565b634e487b7160e01b600052604160045260246000fd5b600181811c908216806200016e57607f821691505b6020821081036200018f57634e487b7160e01b600052602260045260246000fd5b50919050565b601f821115620001e5576000816000526020600020601f850160051c81016020861015620001c05750805b601f850160051c820191505b81811015620001e157828155600101620001cc565b5050505b505050565b81516001600160401b0381111562000206576200020662000143565b6200021e8162000217845462000159565b8462000195565b602080601f8311600181146200025657600084156200023d5750858301515b600019600386901b1c1916600185901b178555620001e1565b600085815260208120601f198616915b82811015620002875788860151825594840194600190910190840162000266565b5085821015620002a65787850151600019600388901b60f8161c191681555b5050505050600190811b01905550565b608051612926620002e760003960008181610254015281816104aa01528181610c460152610f1701526129266000f3fe608060405234801561001057600080fd5b50600436106101c35760003560e01c806378129882116100f9578063c704c3f111610097578063ea075ee111610071578063ea075ee1146103a8578063edbd5df8146103bb578063f242432a146103e6578063f2fde38b146103f957600080fd5b8063c704c3f114610373578063e74fe23714610382578063e985e9c51461039557600080fd5b80638da5cb5b116100d35780638da5cb5b1461033357806391fa2a6a14610344578063a22cb46514610357578063a37a9fc01461036a57600080fd5b8063781298821461030e5780637c5b4a371461031757806388b00adc1461032a57600080fd5b80632ee8174e116101665780634e1273f4116101405780634e1273f4146102bc57806355ebad59146102dc5780635635fdbc146102fd578063715018a61461030657600080fd5b80632ee8174e146102a1578063313dab20146102aa5780634c25d197146102b357600080fd5b80630a08f3d0116101a25780630a08f3d0146102265780630e89341c1461022f5780632bd7cd171461024f5780632eb2c2d61461028e57600080fd5b8062fdd58e146101c857806301ffc9a7146101ee57806309f6182614610211575b600080fd5b6101db6101d636600461207f565b61040c565b6040519081526020015b60405180910390f35b6102016101fc3660046120bf565b610434565b60405190151581526020016101e5565b61022461021f3660046120ee565b61043f565b005b6101db60065481565b61024261023d36600461210a565b610713565b6040516101e59190612169565b6102767f000000000000000000000000000000000000000000000000000000000000000081565b6040516001600160a01b0390911681526020016101e5565b61022461029c3660046122c6565b6107a7565b6101db60085481565b6101db60055481565b6101db61247681565b6102cf6102ca366004612370565b61080e565b6040516101e5919061246c565b6102ef6102ea36600461248d565b6108db565b6040516101e59291906124c4565b6101db60095481565b610224610c0e565b6101db60075481565b61022461032536600461210a565b610c22565b6101db600a5481565b6004546001600160a01b0316610276565b6101db610352366004612525565b610cbb565b610224610365366004612567565b6112e1565b6101db61029a81565b6101db678ac7230489e8000081565b610224610390366004612583565b6112ec565b6102016103a33660046125a2565b61143c565b6101db6103b636600461207f565b61146a565b6101db6103c936600461207f565b600b60209081526000928352604080842090915290825290205481565b6102246103f43660046125d5565b6114ed565b61022461040736600461263a565b61154c565b6000818152602081815260408083206001600160a01b03861684529091529020545b92915050565b600061042e8261158a565b6104476115da565b60008261ffff16118015610460575060d88261ffff1611155b6104a05760405162461bcd60e51b815260206004820152600c60248201526b496e76616c6964204375626560a01b60448201526064015b60405180910390fd5b6001600160a01b037f0000000000000000000000000000000000000000000000000000000000000000166323b872dd33306104e3678ac7230489e800008661266b565b6040516001600160e01b031960e086901b1681526001600160a01b03938416600482015292909116602483015260448201526064016020604051808303816000875af1158015610537573d6000803e3d6000fd5b505050506040513d601f19601f8201168201806040525081019061055b9190612682565b6105925760405162461bcd60e51b815260206004820152600860248201526714185e4819985a5b60c21b6044820152606401610497565b6127106124766105aa678ac7230489e800008461266b565b6105b4919061266b565b6105be91906126b5565b600560008282546105cf91906126c9565b90915550506006805490829060006105e783856126c9565b90915550600090506105fb61029a836126b5565b61029a60065461060b91906126b5565b61061591906126dc565b9050600061062382856126dc565b9050801561063a5761063a338661ffff1683611604565b8115610659576106593361065361ffff881660d86126c9565b84611604565b60405184815261ffff86169033907fd5fd522cbcc1631fc34044a6a2d3242adb07fb2d862b28f5215ad524dde676349060200160405180910390a37f6b8aeaa3365d2dfcb9acc94f0a7429b657b4f2008cfafb9b10297011e077c650600754600854678ac7230489e800006006546106d1919061266b565b600954600a54604080519586526020860194909452928401919091526060830152608082015260a00160405180910390a150505061070f6001600355565b5050565b606060028054610722906126ef565b80601f016020809104026020016040519081016040528092919081815260200182805461074e906126ef565b801561079b5780601f106107705761010080835404028352916020019161079b565b820191906000526020600020905b81548152906001019060200180831161077e57829003601f168201915b50505050509050919050565b336001600160a01b03861681148015906107c857506107c6868261143c565b155b156107f95760405163711bec9160e11b81526001600160a01b03808316600483015287166024820152604401610497565b61080686868686866116bc565b505050505050565b6060815183511461083f5781518351604051635b05999160e01b815260048101929092526024820152604401610497565b6000835167ffffffffffffffff81111561085b5761085b61217c565b604051908082528060200260200182016040528015610884578160200160208202803683370190505b50905060005b84518110156108d3576020808202860101516108ae9060208084028701015161040c565b8282815181106108c0576108c0612729565b602090810291909101015260010161088a565b509392505050565b6060806000836108ef578461ffff166108fe565b6108fe61ffff861660d86126c9565b6000818152600c602090815260408083208054825181850281018501909352808352949550929390929183018282801561096157602002820191906000526020600020905b81546001600160a01b03168152600190910190602001808311610943575b505050505090506000805b8251811015610a0c57600d6000858152602001908152602001600020600084838151811061099c5761099c612729565b6020908102919091018101516001600160a01b031682528101919091526040016000205460ff1680156109f1575060006109ef8483815181106109e1576109e1612729565b60200260200101518661040c565b115b15610a045781610a008161273f565b9250505b60010161096c565b508067ffffffffffffffff811115610a2657610a2661217c565b604051908082528060200260200182016040528015610a4f578160200160208202803683370190505b5094508067ffffffffffffffff811115610a6b57610a6b61217c565b604051908082528060200260200182016040528015610a94578160200160208202803683370190505b5093506000805b8351811015610c0257600d60008681526020019081526020016000206000858381518110610acb57610acb612729565b6020908102919091018101516001600160a01b031682528101919091526040016000205460ff168015610b2057506000610b1e858381518110610b1057610b10612729565b60200260200101518761040c565b115b15610bfa57838181518110610b3757610b37612729565b6020026020010151878381518110610b5157610b51612729565b60200260200101906001600160a01b031690816001600160a01b031681525050600b6000858381518110610b8757610b87612729565b60200260200101516001600160a01b03166001600160a01b0316815260200190815260200160002060008681526020019081526020016000206000015443610bcf91906126dc565b868381518110610be157610be1612729565b602090810291909101015281610bf68161273f565b9250505b600101610a9b565b50505050509250929050565b610c16611723565b610c206000611750565b565b610c2a611723565b60405163a9059cbb60e01b8152336004820152602481018290527f00000000000000000000000000000000000000000000000000000000000000006001600160a01b03169063a9059cbb906044016020604051808303816000875af1158015610c97573d6000803e3d6000fd5b505050506040513d601f19601f8201168201806040525081019061070f9190612682565b6000610cc56115da565b61ffff84166000610cd78260d86126c9565b905084610ce4338461040c565b10158015610cfb575083610cf8338361040c565b10155b610d345760405162461bcd60e51b815260206004820152600a6024820152694c61636b20756e69747360b01b6044820152606401610497565b610d5f6040518060800160405280600081526020016000815260200160008152602001600081525090565b6000610d6d8661029a61266b565b610d7790886126c9565b9050600080610d868b8761040c565b90506000610d948c8761040c565b90506001600160a01b038c163303610dbf57610db08a836126dc565b9150610dbc89826126dc565b90505b6064610dcd8261029a61266b565b610dd790846126c9565b610de290606e61266b565b610dec91906126b5565b925082600003610dfb57600192505b604085019190915260608401528082111561101557610e1a828061266b565b610e24828061266b565b610e2e908a61266b565b610e3891906126b5565b8352610e44828061266b565b610e4e828061266b565b610e58908961266b565b610e6291906126b5565b60208401526000610e738b8661146a565b610e7d8c8861146a565b610e8791906126c9565b90506000612710610e9a61029a8461266b565b610ea491906126b5565b9050610eb081836126dc565b97508160056000828254610ec491906126dc565b9250508190555080600a6000828254610edd91906126c9565b925050819055508760096000828254610ef691906126c9565b909155505060405163a9059cbb60e01b8152336004820152602481018990527f00000000000000000000000000000000000000000000000000000000000000006001600160a01b03169063a9059cbb906044016020604051808303816000875af1158015610f68573d6000803e3d6000fd5b505050506040513d601f19601f82011682018060405250810190610f8c9190612682565b610fc65760405162461bcd60e51b815260206004820152600b60248201526a14185e5bdd5d0819985a5b60aa1b6044820152606401610497565b50506000858152600d602081815260408084206001600160a01b038f16808652908352818520805460ff199081169091558986529383528185209085529091529091208054909116905561113c565b8783526020830187905260408301516060840151611033838061266b565b61103d858061266b565b611047908461266b565b61105191906126b5565b6040860152611060838061266b565b61106a858061266b565b611074908361266b565b61107e91906126b5565b6060860152604085015182036110de576000600d600089815260200190815260200160002060008e6001600160a01b03166001600160a01b0316815260200190815260200160002060006101000a81548160ff0219169083151502179055505b84606001518103611139576000600d600088815260200190815260200160002060008e6001600160a01b03166001600160a01b0316815260200190815260200160002060006101000a81548160ff0219169083151502179055505b50505b6040830151835161114d91906126c9565b6007600082825461115e91906126c9565b90915550506060830151602084015161117791906126c9565b6008600082825461118891906126c9565b90915550506040830151156111a6576111a68a8685604001516117a2565b6060830151156111bf576111bf8a8585606001516117a2565b8251156111d5576111d5338685600001516117a2565b6020830151156111ee576111ee338585602001516117a2565b8251602080850151604080870151606080890151835196875294860193909352908401528201526080810187905261ffff8a16906001600160a01b038c169033907fc677cddfd89fe6d048279040021220dd1b729c5b47ef0c43009647057c70afe59060a00160405180910390a47f6b8aeaa3365d2dfcb9acc94f0a7429b657b4f2008cfafb9b10297011e077c650600754600854678ac7230489e80000600654611299919061266b565b600954600a54604080519586526020860194909452928401919091526060830152608082015260a00160405180910390a150505050506112d96001600355565b949350505050565b61070f33838361180a565b60008461ffff16118015611305575060d88461ffff1611155b6113405760405162461bcd60e51b815260206004820152600c60248201526b496e76616c69642046726f6d60a01b6044820152606401610497565b60008361ffff16118015611359575060d88361ffff1611155b801561136a575061136a84846118a0565b6113a15760405162461bcd60e51b8152602060048201526008602482015267426164206d6f766560c01b6044820152606401610497565b81156113ba576113ba8461ffff168461ffff16846119cc565b80156113e7576113e76113d261ffff861660d86126c9565b6113e161ffff861660d86126c9565b836119cc565b6040805161ffff8087168252851660208201529081018390526060810182905233907f0521d9fe7f242e95c66e4bb3df47d09ca5041e0c3c214789be1e9ef6d10243939060800160405180910390a250505050565b6001600160a01b03918216600090815260016020908152604080832093909416825291909152205460ff1690565b6001600160a01b0382166000908152600b60209081526040808320848452909152812054810361149c5750600061042e565b6001600160a01b0383166000908152600b60209081526040808320858452909152902054620f4240906114cf90436126dc565b6005546114dc919061266b565b6114e691906126b5565b9392505050565b336001600160a01b038616811480159061150e575061150c868261143c565b155b1561153f5760405163711bec9160e11b81526001600160a01b03808316600483015287166024820152604401610497565b6108068686868686611b08565b611554611723565b6001600160a01b03811661157e57604051631e4fbdf760e01b815260006004820152602401610497565b61158781611750565b50565b60006001600160e01b03198216636cdb3d1360e11b14806115bb57506001600160e01b031982166303a24d0760e21b145b8061042e57506301ffc9a760e01b6001600160e01b031983161461042e565b6002600354036115fd57604051633ee5aeb560e01b815260040160405180910390fd5b6002600355565b61161f83838360405180602001604052806000815250611b96565b6001600160a01b0383166000818152600b602090815260408083208684528252808320439055600d8252808320938352929052205460ff166116b7576000828152600c602090815260408083208054600180820183559185528385200180546001600160a01b0319166001600160a01b038916908117909155868552600d8452828520908552909252909120805460ff191690911790555b505050565b6001600160a01b0384166116e657604051632bfa23e760e11b815260006004820152602401610497565b6001600160a01b03851661170f57604051626a0d4560e21b815260006004820152602401610497565b61171c8585858585611bef565b5050505050565b6004546001600160a01b03163314610c205760405163118cdaa760e01b8152336004820152602401610497565b600480546001600160a01b038381166001600160a01b0319831681179093556040519116919082907f8be0079c531659141344cd1fd0a4f28419497f9722a3daafe3b4186f6b6457e090600090a35050565b6001600160a01b0383166117cb57604051626a0d4560e21b815260006004820152602401610497565b604080516001808252602082018590528183019081526060820184905260a0820190925260006080820181815291929161171c91879185908590611bef565b6001600160a01b0382166118335760405162ced3e160e81b815260006004820152602401610497565b6001600160a01b03838116600081815260016020908152604080832094871680845294825291829020805460ff191686151590811790915591519182527f17307eab39ab6107e8899845ad3d59bd9653f200f220920489ca2b5937696c31910160405180910390a3505050565b6000806118ae600185612758565b905060006118bd600185612758565b905060006118cc60068461277a565b9050600060066118dc818661279b565b6118e6919061277a565b905060006118f560248661279b565b9050600061190460068661277a565b905060006006611914818861279b565b61191e919061277a565b9050600061192d60248861279b565b90508060010b8460010b1361194b5761194684826127bc565b611955565b61195581856127bc565b8260010b8660010b136119715761196c86846127bc565b61197b565b61197b83876127bc565b8460010b8860010b136119975761199288866127bc565b6119a1565b6119a185896127bc565b6119ab91906127df565b6119b591906127df565b61ffff166001149850505050505050505092915050565b806119d7338561040c565b1015611a1a5760405162461bcd60e51b8152602060048201526012602482015271496e73756666696369656e7420756e69747360701b6044820152606401610497565b611a253384836117a2565b611a4033838360405180602001604052806000815250611b96565b336000818152600b602090815260408083208684529091529020439055611a67908461040c565b600003611a90576000838152600d602090815260408083203384529091529020805460ff191690555b6000828152600d6020908152604080832033845290915290205460ff166116b7576000828152600c602090815260408083208054600181810183559185528385200180546001600160a01b03191633908117909155868552600d8452828520908552909252909120805460ff19169091179055505050565b6001600160a01b038416611b3257604051632bfa23e760e11b815260006004820152602401610497565b6001600160a01b038516611b5b57604051626a0d4560e21b815260006004820152602401610497565b60408051600180825260208201869052818301908152606082018590526080820190925290611b8d8787848487611bef565b50505050505050565b6001600160a01b038416611bc057604051632bfa23e760e11b815260006004820152602401610497565b604080516001808252602082018690528183019081526060820185905260808201909252906108066000878484875b611bfb85858585611c42565b6001600160a01b0384161561171c5782513390600103611c345760208481015190840151611c2d838989858589611e56565b5050610806565b610806818787878787611f7a565b8051825114611c715781518151604051635b05999160e01b815260048101929092526024820152604401610497565b3360005b8351811015611d77576020818102858101820151908501909101516001600160a01b03881615611d28576000828152602081815260408083206001600160a01b038c16845290915290205481811015611d01576040516303dee4c560e01b81526001600160a01b038a166004820152602481018290526044810183905260648101849052608401610497565b6000838152602081815260408083206001600160a01b038d16845290915290209082900390555b6001600160a01b03871615611d6d576000828152602081815260408083206001600160a01b038b16845290915281208054839290611d679084906126c9565b90915550505b5050600101611c75565b508251600103611df85760208301516000906020840151909150856001600160a01b0316876001600160a01b0316846001600160a01b03167fc3d58168c5ae7397731d063d5bbf3d657854427343f4c083240f7aacaa2d0f628585604051611de9929190918252602082015260400190565b60405180910390a4505061171c565b836001600160a01b0316856001600160a01b0316826001600160a01b03167f4a39dc06d4c0dbc64b70af90fd698a233a518aa5d07e595d983b8c0526c8f7fb8686604051611e47929190612802565b60405180910390a45050505050565b6001600160a01b0384163b156108065760405163f23a6e6160e01b81526001600160a01b0385169063f23a6e6190611e9a9089908990889088908890600401612830565b6020604051808303816000875af1925050508015611ed5575060408051601f3d908101601f19168201909252611ed291810190612875565b60015b611f3e573d808015611f03576040519150601f19603f3d011682016040523d82523d6000602084013e611f08565b606091505b508051600003611f3657604051632bfa23e760e11b81526001600160a01b0386166004820152602401610497565b805160208201fd5b6001600160e01b0319811663f23a6e6160e01b14611b8d57604051632bfa23e760e11b81526001600160a01b0386166004820152602401610497565b6001600160a01b0384163b156108065760405163bc197c8160e01b81526001600160a01b0385169063bc197c8190611fbe9089908990889088908890600401612892565b6020604051808303816000875af1925050508015611ff9575060408051601f3d908101601f19168201909252611ff691810190612875565b60015b612027573d808015611f03576040519150601f19603f3d011682016040523d82523d6000602084013e611f08565b6001600160e01b0319811663bc197c8160e01b14611b8d57604051632bfa23e760e11b81526001600160a01b0386166004820152602401610497565b80356001600160a01b038116811461207a57600080fd5b919050565b6000806040838503121561209257600080fd5b61209b83612063565b946020939093013593505050565b6001600160e01b03198116811461158757600080fd5b6000602082840312156120d157600080fd5b81356114e6816120a9565b803561ffff8116811461207a57600080fd5b6000806040838503121561210157600080fd5b61209b836120dc565b60006020828403121561211c57600080fd5b5035919050565b6000815180845260005b818110156121495760208185018101518683018201520161212d565b506000602082860101526020601f19601f83011685010191505092915050565b6020815260006114e66020830184612123565b634e487b7160e01b600052604160045260246000fd5b604051601f8201601f1916810167ffffffffffffffff811182821017156121bb576121bb61217c565b604052919050565b600067ffffffffffffffff8211156121dd576121dd61217c565b5060051b60200190565b600082601f8301126121f857600080fd5b8135602061220d612208836121c3565b612192565b8083825260208201915060208460051b87010193508684111561222f57600080fd5b602086015b8481101561224b5780358352918301918301612234565b509695505050505050565b600082601f83011261226757600080fd5b813567ffffffffffffffff8111156122815761228161217c565b612294601f8201601f1916602001612192565b8181528460208386010111156122a957600080fd5b816020850160208301376000918101602001919091529392505050565b600080600080600060a086880312156122de57600080fd5b6122e786612063565b94506122f560208701612063565b9350604086013567ffffffffffffffff8082111561231257600080fd5b61231e89838a016121e7565b9450606088013591508082111561233457600080fd5b61234089838a016121e7565b9350608088013591508082111561235657600080fd5b5061236388828901612256565b9150509295509295909350565b6000806040838503121561238357600080fd5b823567ffffffffffffffff8082111561239b57600080fd5b818501915085601f8301126123af57600080fd5b813560206123bf612208836121c3565b82815260059290921b840181019181810190898411156123de57600080fd5b948201945b83861015612403576123f486612063565b825294820194908201906123e3565b9650508601359250508082111561241957600080fd5b50612426858286016121e7565b9150509250929050565b60008151808452602080850194506020840160005b8381101561246157815187529582019590820190600101612445565b509495945050505050565b6020815260006114e66020830184612430565b801515811461158757600080fd5b600080604083850312156124a057600080fd5b6124a9836120dc565b915060208301356124b98161247f565b809150509250929050565b604080825283519082018190526000906020906060840190828701845b828110156125065781516001600160a01b0316845292840192908401906001016124e1565b505050838103602085015261251b8186612430565b9695505050505050565b6000806000806080858703121561253b57600080fd5b61254485612063565b9350612552602086016120dc565b93969395505050506040820135916060013590565b6000806040838503121561257a57600080fd5b6124a983612063565b6000806000806080858703121561259957600080fd5b612544856120dc565b600080604083850312156125b557600080fd5b6125be83612063565b91506125cc60208401612063565b90509250929050565b600080600080600060a086880312156125ed57600080fd5b6125f686612063565b945061260460208701612063565b93506040860135925060608601359150608086013567ffffffffffffffff81111561262e57600080fd5b61236388828901612256565b60006020828403121561264c57600080fd5b6114e682612063565b634e487b7160e01b600052601160045260246000fd5b808202811582820484141761042e5761042e612655565b60006020828403121561269457600080fd5b81516114e68161247f565b634e487b7160e01b600052601260045260246000fd5b6000826126c4576126c461269f565b500490565b8082018082111561042e5761042e612655565b8181038181111561042e5761042e612655565b600181811c9082168061270357607f821691505b60208210810361272357634e487b7160e01b600052602260045260246000fd5b50919050565b634e487b7160e01b600052603260045260246000fd5b60006001820161275157612751612655565b5060010190565b61ffff82811682821603908082111561277357612773612655565b5092915050565b600061ffff8084168061278f5761278f61269f565b92169190910692915050565b600061ffff808416806127b0576127b061269f565b92169190910492915050565b600182810b9082900b03617fff198112617fff8213171561042e5761042e612655565b600181810b9083900b01617fff8113617fff198212171561042e5761042e612655565b6040815260006128156040830185612430565b82810360208401526128278185612430565b95945050505050565b6001600160a01b03868116825285166020820152604081018490526060810183905260a06080820181905260009061286a90830184612123565b979650505050505050565b60006020828403121561288757600080fd5b81516114e6816120a9565b6001600160a01b0386811682528516602082015260a0604082018190526000906128be90830186612430565b82810360608401526128d08186612430565b905082810360808401526128e48185612123565b9897505050505050505056fea26469706673582212207f96c8543aa566446d86a92e430bf7617bcffb1b0718fc356e8b25b16a96caf964736f6c6343000818003368747470733a2f2f6170692e6b696c6c67616d652e61692f6d657461646174612f7b69647d2e6a736f6e",
  "linkReferences": {},
  "deployedLinkReferences": {}
}