{
  "_format": "hh-sol-artifact-1",
  "contractName": "KILLGame",
  "sourceName": "contracts/KillGame.sol",
  "abi": [
    {
      "inputs": [
        {
          "internalType": "address",
          "name": "_tokenAddress",
          "type": "address"
        }
      ],
      "stateMutability": "nonpayable",
      "type": "constructor"
    },
    {
      "inputs": [
        {
          "internalType": "address",
          "name": "sender",
          "type": "address"
        },
        {
          "internalType": "uint256",
          "name": "balance",
          "type": "uint256"
        },
        {
          "internalType": "uint256",
          "name": "needed",
          "type": "uint256"
        },
        {
          "internalType": "uint256",
          "name": "tokenId",
          "type": "uint256"
        }
      ],
      "name": "ERC1155InsufficientBalance",
      "type": "error"
    },
    {
      "inputs": [
        {
          "internalType": "address",
          "name": "approver",
          "type": "address"
        }
      ],
      "name": "ERC1155InvalidApprover",
      "type": "error"
    },
    {
      "inputs": [
        {
          "internalType": "uint256",
          "name": "idsLength",
          "type": "uint256"
        },
        {
          "internalType": "uint256",
          "name": "valuesLength",
          "type": "uint256"
        }
      ],
      "name": "ERC1155InvalidArrayLength",
      "type": "error"
    },
    {
      "inputs": [
        {
          "internalType": "address",
          "name": "operator",
          "type": "address"
        }
      ],
      "name": "ERC1155InvalidOperator",
      "type": "error"
    },
    {
      "inputs": [
        {
          "internalType": "address",
          "name": "receiver",
          "type": "address"
        }
      ],
      "name": "ERC1155InvalidReceiver",
      "type": "error"
    },
    {
      "inputs": [
        {
          "internalType": "address",
          "name": "sender",
          "type": "address"
        }
      ],
      "name": "ERC1155InvalidSender",
      "type": "error"
    },
    {
      "inputs": [
        {
          "internalType": "address",
          "name": "operator",
          "type": "address"
        },
        {
          "internalType": "address",
          "name": "owner",
          "type": "address"
        }
      ],
      "name": "ERC1155MissingApprovalForAll",
      "type": "error"
    },
    {
      "inputs": [
        {
          "internalType": "address",
          "name": "owner",
          "type": "address"
        }
      ],
      "name": "OwnableInvalidOwner",
      "type": "error"
    },
    {
      "inputs": [
        {
          "internalType": "address",
          "name": "account",
          "type": "address"
        }
      ],
      "name": "OwnableUnauthorizedAccount",
      "type": "error"
    },
    {
      "inputs": [],
      "name": "ReentrancyGuardReentrantCall",
      "type": "error"
    },
    {
      "anonymous": false,
      "inputs": [
        {
          "indexed": true,
          "internalType": "address",
          "name": "account",
          "type": "address"
        },
        {
          "indexed": true,
          "internalType": "address",
          "name": "operator",
          "type": "address"
        },
        {
          "indexed": false,
          "internalType": "bool",
          "name": "approved",
          "type": "bool"
        }
      ],
      "name": "ApprovalForAll",
      "type": "event"
    },
    {
      "anonymous": false,
      "inputs": [
        {
          "indexed": false,
          "internalType": "uint256",
          "name": "totalUnitsKilled",
          "type": "uint256"
        },
        {
          "indexed": false,
          "internalType": "uint256",
          "name": "totalReaperKilled",
          "type": "uint256"
        },
        {
          "indexed": false,
          "internalType": "uint256",
          "name": "killAdded",
          "type": "uint256"
        },
        {
          "indexed": false,
          "internalType": "uint256",
          "name": "killExtracted",
          "type": "uint256"
        },
        {
          "indexed": false,
          "internalType": "uint256",
          "name": "killBurned",
          "type": "uint256"
        }
      ],
      "name": "GlobalStats",
      "type": "event"
    },
    {
      "anonymous": false,
      "inputs": [
        {
          "indexed": true,
          "internalType": "address",
          "name": "attacker",
          "type": "address"
        },
        {
          "indexed": true,
          "internalType": "address",
          "name": "target",
          "type": "address"
        },
        {
          "indexed": true,
          "internalType": "uint16",
          "name": "stackId",
          "type": "uint16"
        },
        {
          "indexed": false,
          "internalType": "uint256",
          "name": "attackerUnitsLost",
          "type": "uint256"
        },
        {
          "indexed": false,
          "internalType": "uint256",
          "name": "attackerReaperLost",
          "type": "uint256"
        },
        {
          "indexed": false,
          "internalType": "uint256",
          "name": "targetUnitsLost",
          "type": "uint256"
        },
        {
          "indexed": false,
          "internalType": "uint256",
          "name": "targetReaperLost",
          "type": "uint256"
        },
        {
          "indexed": false,
          "internalType": "uint256",
          "name": "netBounty",
          "type": "uint256"
        },
        {
          "indexed": false,
          "internalType": "uint256",
          "name": "targetBirthBlock",
          "type": "uint256"
        }
      ],
      "name": "Killed",
      "type": "event"
    },
    {
      "anonymous": false,
      "inputs": [
        {
          "indexed": true,
          "internalType": "address",
          "name": "agent",
          "type": "address"
        },
        {
          "indexed": false,
          "internalType": "uint16",
          "name": "fromStack",
          "type": "uint16"
        },
        {
          "indexed": false,
          "internalType": "uint16",
          "name": "toStack",
          "type": "uint16"
        },
        {
          "indexed": false,
          "internalType": "uint256",
          "name": "units",
          "type": "uint256"
        },
        {
          "indexed": false,
          "internalType": "uint256",
          "name": "reaper",
          "type": "uint256"
        },
        {
          "indexed": false,
          "internalType": "uint256",
          "name": "birthBlock",
          "type": "uint256"
        }
      ],
      "name": "Moved",
      "type": "event"
    },
    {
      "anonymous": false,
      "inputs": [
        {
          "indexed": true,
          "internalType": "address",
          "name": "previousOwner",
          "type": "address"
        },
        {
          "indexed": true,
          "internalType": "address",
          "name": "newOwner",
          "type": "address"
        }
      ],
      "name": "OwnershipTransferred",
      "type": "event"
    },
    {
      "anonymous": false,
      "inputs": [
        {
          "indexed": true,
          "internalType": "address",
          "name": "agent",
          "type": "address"
        },
        {
          "indexed": true,
          "internalType": "uint256",
          "name": "stackId",
          "type": "uint256"
        },
        {
          "indexed": false,
          "internalType": "uint256",
          "name": "units",
          "type": "uint256"
        },
        {
          "indexed": false,
          "internalType": "uint256",
          "name": "birthBlock",
          "type": "uint256"
        }
      ],
      "name": "Spawned",
      "type": "event"
    },
    {
      "anonymous": false,
      "inputs": [
        {
          "indexed": true,
          "internalType": "address",
          "name": "operator",
          "type": "address"
        },
        {
          "indexed": true,
          "internalType": "address",
          "name": "from",
          "type": "address"
        },
        {
          "indexed": true,
          "internalType": "address",
          "name": "to",
          "type": "address"
        },
        {
          "indexed": false,
          "internalType": "uint256[]",
          "name": "ids",
          "type": "uint256[]"
        },
        {
          "indexed": false,
          "internalType": "uint256[]",
          "name": "values",
          "type": "uint256[]"
        }
      ],
      "name": "TransferBatch",
      "type": "event"
    },
    {
      "anonymous": false,
      "inputs": [
        {
          "indexed": true,
          "internalType": "address",
          "name": "operator",
          "type": "address"
        },
        {
          "indexed": true,
          "internalType": "address",
          "name": "from",
          "type": "address"
        },
        {
          "indexed": true,
          "internalType": "address",
          "name": "to",
          "type": "address"
        },
        {
          "indexed": false,
          "internalType": "uint256",
          "name": "id",
          "type": "uint256"
        },
        {
          "indexed": false,
          "internalType": "uint256",
          "name": "value",
          "type": "uint256"
        }
      ],
      "name": "TransferSingle",
      "type": "event"
    },
    {
      "anonymous": false,
      "inputs": [
        {
          "indexed": false,
          "internalType": "string",
          "name": "value",
          "type": "string"
        },
        {
          "indexed": true,
          "internalType": "uint256",
          "name": "id",
          "type": "uint256"
        }
      ],
      "name": "URI",
      "type": "event"
    },
    {
      "inputs": [],
      "name": "BURN_BPS",
      "outputs": [
        {
          "internalType": "uint256",
          "name": "",
          "type": "uint256"
        }
      ],
      "stateMutability": "view",
      "type": "function"
    },
    {
      "inputs": [],
      "name": "SPAWN_COST",
      "outputs": [
        {
          "internalType": "uint256",
          "name": "",
          "type": "uint256"
        }
      ],
      "stateMutability": "view",
      "type": "function"
    },
    {
      "inputs": [],
      "name": "TREASURY_BPS",
      "outputs": [
        {
          "internalType": "uint256",
          "name": "",
          "type": "uint256"
        }
      ],
      "stateMutability": "view",
      "type": "function"
    },
    {
      "inputs": [
        {
          "internalType": "uint256",
          "name": "amt",
          "type": "uint256"
        }
      ],
      "name": "adminWithdraw",
      "outputs": [],
      "stateMutability": "nonpayable",
      "type": "function"
    },
    {
      "inputs": [
        {
          "internalType": "address",
          "name": "",
          "type": "address"
        },
        {
          "internalType": "uint256",
          "name": "",
          "type": "uint256"
        }
      ],
      "name": "agentStacks",
      "outputs": [
        {
          "internalType": "uint256",
          "name": "birthBlock",
          "type": "uint256"
        }
      ],
      "stateMutability": "view",
      "type": "function"
    },
    {
      "inputs": [
        {
          "internalType": "address",
          "name": "account",
          "type": "address"
        },
        {
          "internalType": "uint256",
          "name": "id",
          "type": "uint256"
        }
      ],
      "name": "balanceOf",
      "outputs": [
        {
          "internalType": "uint256",
          "name": "",
          "type": "uint256"
        }
      ],
      "stateMutability": "view",
      "type": "function"
    },
    {
      "inputs": [
        {
          "internalType": "address[]",
          "name": "accounts",
          "type": "address[]"
        },
        {
          "internalType": "uint256[]",
          "name": "ids",
          "type": "uint256[]"
        }
      ],
      "name": "balanceOfBatch",
      "outputs": [
        {
          "internalType": "uint256[]",
          "name": "",
          "type": "uint256[]"
        }
      ],
      "stateMutability": "view",
      "type": "function"
    },
    {
      "inputs": [
        {
          "internalType": "address",
          "name": "agent",
          "type": "address"
        },
        {
          "internalType": "uint256",
          "name": "id",
          "type": "uint256"
        }
      ],
      "name": "getPendingBounty",
      "outputs": [
        {
          "internalType": "uint256",
          "name": "",
          "type": "uint256"
        }
      ],
      "stateMutability": "view",
      "type": "function"
    },
    {
      "inputs": [
        {
          "internalType": "uint16",
          "name": "stackId",
          "type": "uint16"
        },
        {
          "internalType": "bool",
          "name": "b",
          "type": "bool"
        }
      ],
      "name": "getRipeStacks",
      "outputs": [
        {
          "internalType": "address[]",
          "name": "a",
          "type": "address[]"
        },
        {
          "internalType": "uint256[]",
          "name": "ag",
          "type": "uint256[]"
        }
      ],
      "stateMutability": "view",
      "type": "function"
    },
    {
      "inputs": [
        {
          "internalType": "address",
          "name": "account",
          "type": "address"
        },
        {
          "internalType": "address",
          "name": "operator",
          "type": "address"
        }
      ],
      "name": "isApprovedForAll",
      "outputs": [
        {
          "internalType": "bool",
          "name": "",
          "type": "bool"
        }
      ],
      "stateMutability": "view",
      "type": "function"
    },
    {
      "inputs": [
        {
          "internalType": "address",
          "name": "target",
          "type": "address"
        },
        {
          "internalType": "uint16",
          "name": "stackId",
          "type": "uint16"
        },
        {
          "internalType": "uint256",
          "name": "sentUnits",
          "type": "uint256"
        },
        {
          "internalType": "uint256",
          "name": "sentReaper",
          "type": "uint256"
        }
      ],
      "name": "kill",
      "outputs": [
        {
          "internalType": "uint256",
          "name": "netBounty",
          "type": "uint256"
        }
      ],
      "stateMutability": "nonpayable",
      "type": "function"
    },
    {
      "inputs": [],
      "name": "killToken",
      "outputs": [
        {
          "internalType": "contract IERC20",
          "name": "",
          "type": "address"
        }
      ],
      "stateMutability": "view",
      "type": "function"
    },
    {
      "inputs": [
        {
          "internalType": "uint16",
          "name": "fromStack",
          "type": "uint16"
        },
        {
          "internalType": "uint16",
          "name": "toStack",
          "type": "uint16"
        },
        {
          "internalType": "uint256",
          "name": "units",
          "type": "uint256"
        },
        {
          "internalType": "uint256",
          "name": "reaper",
          "type": "uint256"
        }
      ],
      "name": "move",
      "outputs": [],
      "stateMutability": "nonpayable",
      "type": "function"
    },
    {
      "inputs": [],
      "name": "owner",
      "outputs": [
        {
          "internalType": "address",
          "name": "",
          "type": "address"
        }
      ],
      "stateMutability": "view",
      "type": "function"
    },
    {
      "inputs": [],
      "name": "renounceOwnership",
      "outputs": [],
      "stateMutability": "nonpayable",
      "type": "function"
    },
    {
      "inputs": [
        {
          "internalType": "address",
          "name": "from",
          "type": "address"
        },
        {
          "internalType": "address",
          "name": "to",
          "type": "address"
        },
        {
          "internalType": "uint256[]",
          "name": "ids",
          "type": "uint256[]"
        },
        {
          "internalType": "uint256[]",
          "name": "values",
          "type": "uint256[]"
        },
        {
          "internalType": "bytes",
          "name": "data",
          "type": "bytes"
        }
      ],
      "name": "safeBatchTransferFrom",
      "outputs": [],
      "stateMutability": "nonpayable",
      "type": "function"
    },
    {
      "inputs": [
        {
          "internalType": "address",
          "name": "from",
          "type": "address"
        },
        {
          "internalType": "address",
          "name": "to",
          "type": "address"
        },
        {
          "internalType": "uint256",
          "name": "id",
          "type": "uint256"
        },
        {
          "internalType": "uint256",
          "name": "value",
          "type": "uint256"
        },
        {
          "internalType": "bytes",
          "name": "data",
          "type": "bytes"
        }
      ],
      "name": "safeTransferFrom",
      "outputs": [],
      "stateMutability": "nonpayable",
      "type": "function"
    },
    {
      "inputs": [
        {
          "internalType": "address",
          "name": "operator",
          "type": "address"
        },
        {
          "internalType": "bool",
          "name": "approved",
          "type": "bool"
        }
      ],
      "name": "setApprovalForAll",
      "outputs": [],
      "stateMutability": "nonpayable",
      "type": "function"
    },
    {
      "inputs": [
        {
          "internalType": "uint16",
          "name": "stackId",
          "type": "uint16"
        },
        {
          "internalType": "uint256",
          "name": "amount",
          "type": "uint256"
        }
      ],
      "name": "spawn",
      "outputs": [],
      "stateMutability": "nonpayable",
      "type": "function"
    },
    {
      "inputs": [
        {
          "internalType": "bytes4",
          "name": "id",
          "type": "bytes4"
        }
      ],
      "name": "supportsInterface",
      "outputs": [
        {
          "internalType": "bool",
          "name": "",
          "type": "bool"
        }
      ],
      "stateMutability": "view",
      "type": "function"
    },
    {
      "inputs": [],
      "name": "totalKillBurned",
      "outputs": [
        {
          "internalType": "uint256",
          "name": "",
          "type": "uint256"
        }
      ],
      "stateMutability": "view",
      "type": "function"
    },
    {
      "inputs": [],
      "name": "totalKillExtracted",
      "outputs": [
        {
          "internalType": "uint256",
          "name": "",
          "type": "uint256"
        }
      ],
      "stateMutability": "view",
      "type": "function"
    },
    {
      "inputs": [],
      "name": "totalReaperKilled",
      "outputs": [
        {
          "internalType": "uint256",
          "name": "",
          "type": "uint256"
        }
      ],
      "stateMutability": "view",
      "type": "function"
    },
    {
      "inputs": [],
      "name": "totalUnitsKilled",
      "outputs": [
        {
          "internalType": "uint256",
          "name": "",
          "type": "uint256"
        }
      ],
      "stateMutability": "view",
      "type": "function"
    },
    {
      "inputs": [],
      "name": "totalUnitsMinted",
      "outputs": [
        {
          "internalType": "uint256",
          "name": "",
          "type": "uint256"
        }
      ],
      "stateMutability": "view",
      "type": "function"
    },
    {
      "inputs": [
        {
          "internalType": "address",
          "name": "newOwner",
          "type": "address"
        }
      ],
      "name": "transferOwnership",
      "outputs": [],
      "stateMutability": "nonpayable",
      "type": "function"
    },
    {
      "inputs": [],
      "name": "treasuryBalance",
      "outputs": [
        {
          "internalType": "uint256",
          "name": "",
          "type": "uint256"
        }
      ],
      "stateMutability": "view",
      "type": "function"
    },
    {
      "inputs": [
        {
          "internalType": "uint256",
          "name": "",
          "type": "uint256"
        }
      ],
      "name": "uri",
      "outputs": [
        {
          "internalType": "string",
          "name": "",
          "type": "string"
        }
      ],
      "stateMutability": "view",
      "type": "function"
    }
  ],
  "bytecode": "0x60a06040523480156200001157600080fd5b5060405162002cea38038062002cea833981016040819052620000349162000111565b336040518060600160405280602a815260200162002cc0602a91396200005a81620000ad565b5060016003556001600160a01b0381166200008f57604051631e4fbdf760e01b81526000600482015260240160405180910390fd5b6200009a81620000bf565b506001600160a01b0316608052620002b6565b6002620000bb8282620001ea565b5050565b600480546001600160a01b038381166001600160a01b0319831681179093556040519116919082907f8be0079c531659141344cd1fd0a4f28419497f9722a3daafe3b4186f6b6457e090600090a35050565b6000602082840312156200012457600080fd5b81516001600160a01b03811681146200013c57600080fd5b9392505050565b634e487b7160e01b600052604160045260246000fd5b600181811c908216806200016e57607f821691505b6020821081036200018f57634e487b7160e01b600052602260045260246000fd5b50919050565b601f821115620001e5576000816000526020600020601f850160051c81016020861015620001c05750805b601f850160051c820191505b81811015620001e157828155600101620001cc565b5050505b505050565b81516001600160401b0381111562000206576200020662000143565b6200021e8162000217845462000159565b8462000195565b602080601f8311600181146200025657600084156200023d5750858301515b600019600386901b1c1916600185901b178555620001e1565b600085815260208120601f198616915b82811015620002875788860151825594840194600190910190840162000266565b5085821015620002a65787850151600019600388901b60f8161c191681555b5050505050600190811b01905550565b6080516129d9620002e760003960008181610254015281816104da01528181610c5b0152610ef801526129d96000f3fe608060405234801561001057600080fd5b50600436106101c35760003560e01c806378129882116100f9578063c704c3f111610097578063ea075ee111610071578063ea075ee1146103a8578063edbd5df8146103bb578063f242432a146103e6578063f2fde38b146103f957600080fd5b8063c704c3f114610373578063e74fe23714610382578063e985e9c51461039557600080fd5b80638da5cb5b116100d35780638da5cb5b1461033357806391fa2a6a14610344578063a22cb46514610357578063a37a9fc01461036a57600080fd5b8063781298821461030e5780637c5b4a371461031757806388b00adc1461032a57600080fd5b80632ee8174e116101665780634e1273f4116101405780634e1273f4146102bc57806355ebad59146102dc5780635635fdbc146102fd578063715018a61461030657600080fd5b80632ee8174e146102a1578063313dab20146102aa5780634c25d197146102b357600080fd5b80630a08f3d0116101a25780630a08f3d0146102265780630e89341c1461022f5780632bd7cd171461024f5780632eb2c2d61461028e57600080fd5b8062fdd58e146101c857806301ffc9a7146101ee57806309f6182614610211575b600080fd5b6101db6101d6366004612132565b61040c565b6040519081526020015b60405180910390f35b6102016101fc366004612172565b610434565b60405190151581526020016101e5565b61022461021f3660046121a1565b61043f565b005b6101db60065481565b61024261023d3660046121bd565b610728565b6040516101e5919061221c565b6102767f000000000000000000000000000000000000000000000000000000000000000081565b6040516001600160a01b0390911681526020016101e5565b61022461029c366004612379565b6107bc565b6101db60085481565b6101db60055481565b6101db61247681565b6102cf6102ca366004612423565b610823565b6040516101e5919061251f565b6102ef6102ea366004612540565b6108f0565b6040516101e5929190612577565b6101db60095481565b610224610c23565b6101db60075481565b6102246103253660046121bd565b610c37565b6101db600a5481565b6004546001600160a01b0316610276565b6101db6103523660046125d8565b610cd0565b61022461036536600461261a565b611320565b6101db61029a81565b6101db678ac7230489e8000081565b610224610390366004612636565b61132b565b6102016103a3366004612655565b6114ef565b6101db6103b6366004612132565b61151d565b6101db6103c9366004612132565b600b60209081526000928352604080842090915290825290205481565b6102246103f4366004612688565b6115a0565b6102246104073660046126ed565b6115ff565b6000818152602081815260408083206001600160a01b03861684529091529020545b92915050565b600061042e8261163d565b61044761168d565b60008261ffff16118015610460575060d88261ffff1611155b6104a15760405162461bcd60e51b815260206004820152600d60248201526c496e76616c696420537461636b60981b60448201526064015b60405180910390fd5b60006104b5678ac7230489e800008361271e565b6040516323b872dd60e01b8152336004820152306024820152604481018290529091507f00000000000000000000000000000000000000000000000000000000000000006001600160a01b0316906323b872dd906064016020604051808303816000875af115801561052b573d6000803e3d6000fd5b505050506040513d601f19601f8201168201806040525081019061054f9190612735565b6105865760405162461bcd60e51b815260206004820152600860248201526714185e4819985a5b60c21b6044820152606401610498565b60006127106105976124768461271e565b6105a19190612768565b905060006105af828461277c565b905081600560008282546105c3919061278f565b9250508190555080600a60008282546105dc919061278f565b90915550506006805490859060006105f4838561278f565b909155506000905061060861029a83612768565b61029a6006546106189190612768565b610622919061277c565b90506000610630828861277c565b9050801561064757610647338961ffff16836116b7565b8115610666576106663361066061ffff8b1660d861278f565b846116b7565b6040805188815243602082015261ffff8a169133917f21427a790373fad598033d2f191dd9fc550d58054a7f361c0af4895c351eeaf2910160405180910390a37f6b8aeaa3365d2dfcb9acc94f0a7429b657b4f2008cfafb9b10297011e077c650600754600854678ac7230489e800006006546106e3919061271e565b600954600a54604080519586526020860194909452928401919091526060830152608082015260a00160405180910390a15050505050506107246001600355565b5050565b606060028054610737906127a2565b80601f0160208091040260200160405190810160405280929190818152602001828054610763906127a2565b80156107b05780601f10610785576101008083540402835291602001916107b0565b820191906000526020600020905b81548152906001019060200180831161079357829003601f168201915b50505050509050919050565b336001600160a01b03861681148015906107dd57506107db86826114ef565b155b1561080e5760405163711bec9160e11b81526001600160a01b03808316600483015287166024820152604401610498565b61081b868686868661176f565b505050505050565b606081518351146108545781518351604051635b05999160e01b815260048101929092526024820152604401610498565b6000835167ffffffffffffffff8111156108705761087061222f565b604051908082528060200260200182016040528015610899578160200160208202803683370190505b50905060005b84518110156108e8576020808202860101516108c39060208084028701015161040c565b8282815181106108d5576108d56127dc565b602090810291909101015260010161089f565b509392505050565b606080600083610904578461ffff16610913565b61091361ffff861660d861278f565b6000818152600c602090815260408083208054825181850281018501909352808352949550929390929183018282801561097657602002820191906000526020600020905b81546001600160a01b03168152600190910190602001808311610958575b505050505090506000805b8251811015610a2157600d600085815260200190815260200160002060008483815181106109b1576109b16127dc565b6020908102919091018101516001600160a01b031682528101919091526040016000205460ff168015610a0657506000610a048483815181106109f6576109f66127dc565b60200260200101518661040c565b115b15610a195781610a15816127f2565b9250505b600101610981565b508067ffffffffffffffff811115610a3b57610a3b61222f565b604051908082528060200260200182016040528015610a64578160200160208202803683370190505b5094508067ffffffffffffffff811115610a8057610a8061222f565b604051908082528060200260200182016040528015610aa9578160200160208202803683370190505b5093506000805b8351811015610c1757600d60008681526020019081526020016000206000858381518110610ae057610ae06127dc565b6020908102919091018101516001600160a01b031682528101919091526040016000205460ff168015610b3557506000610b33858381518110610b2557610b256127dc565b60200260200101518761040c565b115b15610c0f57838181518110610b4c57610b4c6127dc565b6020026020010151878381518110610b6657610b666127dc565b60200260200101906001600160a01b031690816001600160a01b031681525050600b6000858381518110610b9c57610b9c6127dc565b60200260200101516001600160a01b03166001600160a01b0316815260200190815260200160002060008681526020019081526020016000206000015443610be4919061277c565b868381518110610bf657610bf66127dc565b602090810291909101015281610c0b816127f2565b9250505b600101610ab0565b50505050509250929050565b610c2b6117d6565b610c356000611803565b565b610c3f6117d6565b60405163a9059cbb60e01b8152336004820152602481018290527f00000000000000000000000000000000000000000000000000000000000000006001600160a01b03169063a9059cbb906044016020604051808303816000875af1158015610cac573d6000803e3d6000fd5b505050506040513d601f19601f820116820180604052508101906107249190612735565b6000610cda61168d565b61ffff84166000610cec8260d861278f565b905084610cf9338461040c565b10158015610d10575083610d0d338361040c565b10155b610d495760405162461bcd60e51b815260206004820152600a6024820152694c61636b20756e69747360b01b6044820152606401610498565b610d746040518060800160405280600081526020016000815260200160008152602001600081525090565b6001600160a01b0388166000908152600b6020908152604080832086845290915281205490610da58761029a61271e565b610daf908961278f565b9050600080610dbe8c8861040c565b90506000610dcc8d8861040c565b90506001600160a01b038d163303610df757610de88b8361277c565b9150610df48a8261277c565b90505b6064610e058261029a61271e565b610e0f908461278f565b610e1a90606e61271e565b610e249190612768565b925082600003610e3357600192505b604086019190915260608501528082111561104c576000610e548c8761151d565b610e5e8d8961151d565b610e68919061278f565b90506000612710610e7b61029a8461271e565b610e859190612768565b9050610e91818361277c565b98508160056000828254610ea5919061277c565b9250508190555080600a6000828254610ebe919061278f565b925050819055508860096000828254610ed7919061278f565b909155505060405163a9059cbb60e01b8152336004820152602481018a90527f00000000000000000000000000000000000000000000000000000000000000006001600160a01b03169063a9059cbb906044016020604051808303816000875af1158015610f49573d6000803e3d6000fd5b505050506040513d601f19601f82011682018060405250810190610f6d9190612735565b610fa75760405162461bcd60e51b815260206004820152600b60248201526a14185e5bdd5d0819985a5b60aa1b6044820152606401610498565b6000600d60008a815260200190815260200160002060008f6001600160a01b03166001600160a01b0316815260200190815260200160002060006101000a81548160ff0219169083151502179055506000600d600089815260200190815260200160002060008f6001600160a01b03166001600160a01b0316815260200190815260200160002060006101000a81548160ff0219169083151502179055505050611173565b888452602084018890526040840151606085015161106a838061271e565b611074858061271e565b61107e908461271e565b6110889190612768565b6040870152611097838061271e565b6110a1858061271e565b6110ab908361271e565b6110b59190612768565b606087015260408601518203611115576000600d60008a815260200190815260200160002060008f6001600160a01b03166001600160a01b0316815260200190815260200160002060006101000a81548160ff0219169083151502179055505b85606001518103611170576000600d600089815260200190815260200160002060008f6001600160a01b03166001600160a01b0316815260200190815260200160002060006101000a81548160ff0219169083151502179055505b50505b60408401518451611184919061278f565b60076000828254611195919061278f565b9091555050606084015160208501516111ae919061278f565b600860008282546111bf919061278f565b90915550506040840151156111dd576111dd8b878660400151611855565b6060840151156111f6576111f68b868660600151611855565b83511561120c5761120c33878660000151611855565b6020840151156112255761122533868660200151611855565b83516020808601516040808801516060808a0151835196875294860193909352908401528201526080810188905260a0810184905261ffff8b16906001600160a01b038d169033907fe8cf87740e16519b389a47fd487b7c8330c651cf9af2e1a698676cb488a8cd4e9060c00160405180910390a47f6b8aeaa3365d2dfcb9acc94f0a7429b657b4f2008cfafb9b10297011e077c650600754600854678ac7230489e800006006546112d7919061271e565b600954600a54604080519586526020860194909452928401919091526060830152608082015260a00160405180910390a15050505050506113186001600355565b949350505050565b6107243383836118bd565b60008461ffff16118015611344575060d88461ffff1611155b61137f5760405162461bcd60e51b815260206004820152600c60248201526b496e76616c69642046726f6d60a01b6044820152606401610498565b60008361ffff16118015611398575060d88361ffff1611155b80156113a957506113a98484611953565b6113e05760405162461bcd60e51b8152602060048201526008602482015267426164206d6f766560c01b6044820152606401610498565b81156113f9576113f98461ffff168461ffff1684611a7f565b80156114265761142661141161ffff861660d861278f565b61142061ffff861660d861278f565b83611a7f565b6040805161ffff8087168252851660208201529081018390526060810182905243608082015233907f377dc7145bd8ab426842504b448652c41dda00abb7f7c1df6bdfa40bd2a16f2c9060a00160405180910390a27f6b8aeaa3365d2dfcb9acc94f0a7429b657b4f2008cfafb9b10297011e077c650600754600854678ac7230489e800006006546114b8919061271e565b600954600a54604080519586526020860194909452928401919091526060830152608082015260a00160405180910390a150505050565b6001600160a01b03918216600090815260016020908152604080832093909416825291909152205460ff1690565b6001600160a01b0382166000908152600b60209081526040808320848452909152812054810361154f5750600061042e565b6001600160a01b0383166000908152600b60209081526040808320858452909152902054620f424090611582904361277c565b60055461158f919061271e565b6115999190612768565b9392505050565b336001600160a01b03861681148015906115c157506115bf86826114ef565b155b156115f25760405163711bec9160e11b81526001600160a01b03808316600483015287166024820152604401610498565b61081b8686868686611bbb565b6116076117d6565b6001600160a01b03811661163157604051631e4fbdf760e01b815260006004820152602401610498565b61163a81611803565b50565b60006001600160e01b03198216636cdb3d1360e11b148061166e57506001600160e01b031982166303a24d0760e21b145b8061042e57506301ffc9a760e01b6001600160e01b031983161461042e565b6002600354036116b057604051633ee5aeb560e01b815260040160405180910390fd5b6002600355565b6116d283838360405180602001604052806000815250611c49565b6001600160a01b0383166000818152600b602090815260408083208684528252808320439055600d8252808320938352929052205460ff1661176a576000828152600c602090815260408083208054600180820183559185528385200180546001600160a01b0319166001600160a01b038916908117909155868552600d8452828520908552909252909120805460ff191690911790555b505050565b6001600160a01b03841661179957604051632bfa23e760e11b815260006004820152602401610498565b6001600160a01b0385166117c257604051626a0d4560e21b815260006004820152602401610498565b6117cf8585858585611ca2565b5050505050565b6004546001600160a01b03163314610c355760405163118cdaa760e01b8152336004820152602401610498565b600480546001600160a01b038381166001600160a01b0319831681179093556040519116919082907f8be0079c531659141344cd1fd0a4f28419497f9722a3daafe3b4186f6b6457e090600090a35050565b6001600160a01b03831661187e57604051626a0d4560e21b815260006004820152602401610498565b604080516001808252602082018590528183019081526060820184905260a082019092526000608082018181529192916117cf91879185908590611ca2565b6001600160a01b0382166118e65760405162ced3e160e81b815260006004820152602401610498565b6001600160a01b03838116600081815260016020908152604080832094871680845294825291829020805460ff191686151590811790915591519182527f17307eab39ab6107e8899845ad3d59bd9653f200f220920489ca2b5937696c31910160405180910390a3505050565b60008061196160018561280b565b9050600061197060018561280b565b9050600061197f60068461282d565b90506000600661198f818661284e565b611999919061282d565b905060006119a860248661284e565b905060006119b760068661282d565b9050600060066119c7818861284e565b6119d1919061282d565b905060006119e060248861284e565b90508060010b8460010b136119fe576119f9848261286f565b611a08565b611a08818561286f565b8260010b8660010b13611a2457611a1f868461286f565b611a2e565b611a2e838761286f565b8460010b8860010b13611a4a57611a45888661286f565b611a54565b611a54858961286f565b611a5e9190612892565b611a689190612892565b61ffff166001149850505050505050505092915050565b80611a8a338561040c565b1015611acd5760405162461bcd60e51b8152602060048201526012602482015271496e73756666696369656e7420756e69747360701b6044820152606401610498565b611ad8338483611855565b611af333838360405180602001604052806000815250611c49565b336000818152600b602090815260408083208684529091529020439055611b1a908461040c565b600003611b43576000838152600d602090815260408083203384529091529020805460ff191690555b6000828152600d6020908152604080832033845290915290205460ff1661176a576000828152600c602090815260408083208054600181810183559185528385200180546001600160a01b03191633908117909155868552600d8452828520908552909252909120805460ff19169091179055505050565b6001600160a01b038416611be557604051632bfa23e760e11b815260006004820152602401610498565b6001600160a01b038516611c0e57604051626a0d4560e21b815260006004820152602401610498565b60408051600180825260208201869052818301908152606082018590526080820190925290611c408787848487611ca2565b50505050505050565b6001600160a01b038416611c7357604051632bfa23e760e11b815260006004820152602401610498565b6040805160018082526020820186905281830190815260608201859052608082019092529061081b6000878484875b611cae85858585611cf5565b6001600160a01b038416156117cf5782513390600103611ce75760208481015190840151611ce0838989858589611f09565b505061081b565b61081b81878787878761202d565b8051825114611d245781518151604051635b05999160e01b815260048101929092526024820152604401610498565b3360005b8351811015611e2a576020818102858101820151908501909101516001600160a01b03881615611ddb576000828152602081815260408083206001600160a01b038c16845290915290205481811015611db4576040516303dee4c560e01b81526001600160a01b038a166004820152602481018290526044810183905260648101849052608401610498565b6000838152602081815260408083206001600160a01b038d16845290915290209082900390555b6001600160a01b03871615611e20576000828152602081815260408083206001600160a01b038b16845290915281208054839290611e1a90849061278f565b90915550505b5050600101611d28565b508251600103611eab5760208301516000906020840151909150856001600160a01b0316876001600160a01b0316846001600160a01b03167fc3d58168c5ae7397731d063d5bbf3d657854427343f4c083240f7aacaa2d0f628585604051611e9c929190918252602082015260400190565b60405180910390a450506117cf565b836001600160a01b0316856001600160a01b0316826001600160a01b03167f4a39dc06d4c0dbc64b70af90fd698a233a518aa5d07e595d983b8c0526c8f7fb8686604051611efa9291906128b5565b60405180910390a45050505050565b6001600160a01b0384163b1561081b5760405163f23a6e6160e01b81526001600160a01b0385169063f23a6e6190611f4d90899089908890889088906004016128e3565b6020604051808303816000875af1925050508015611f88575060408051601f3d908101601f19168201909252611f8591810190612928565b60015b611ff1573d808015611fb6576040519150601f19603f3d011682016040523d82523d6000602084013e611fbb565b606091505b508051600003611fe957604051632bfa23e760e11b81526001600160a01b0386166004820152602401610498565b805160208201fd5b6001600160e01b0319811663f23a6e6160e01b14611c4057604051632bfa23e760e11b81526001600160a01b0386166004820152602401610498565b6001600160a01b0384163b1561081b5760405163bc197c8160e01b81526001600160a01b0385169063bc197c81906120719089908990889088908890600401612945565b6020604051808303816000875af19250505080156120ac575060408051601f3d908101601f191682019092526120a991810190612928565b60015b6120da573d808015611fb6576040519150601f19603f3d011682016040523d82523d6000602084013e611fbb565b6001600160e01b0319811663bc197c8160e01b14611c4057604051632bfa23e760e11b81526001600160a01b0386166004820152602401610498565b80356001600160a01b038116811461212d57600080fd5b919050565b6000806040838503121561214557600080fd5b61214e83612116565b946020939093013593505050565b6001600160e01b03198116811461163a57600080fd5b60006020828403121561218457600080fd5b81356115998161215c565b803561ffff8116811461212d57600080fd5b600080604083850312156121b457600080fd5b61214e8361218f565b6000602082840312156121cf57600080fd5b5035919050565b6000815180845260005b818110156121fc576020818501810151868301820152016121e0565b506000602082860101526020601f19601f83011685010191505092915050565b60208152600061159960208301846121d6565b634e487b7160e01b600052604160045260246000fd5b604051601f8201601f1916810167ffffffffffffffff8111828210171561226e5761226e61222f565b604052919050565b600067ffffffffffffffff8211156122905761229061222f565b5060051b60200190565b600082601f8301126122ab57600080fd5b813560206122c06122bb83612276565b612245565b8083825260208201915060208460051b8701019350868411156122e257600080fd5b602086015b848110156122fe57803583529183019183016122e7565b509695505050505050565b600082601f83011261231a57600080fd5b813567ffffffffffffffff8111156123345761233461222f565b612347601f8201601f1916602001612245565b81815284602083860101111561235c57600080fd5b816020850160208301376000918101602001919091529392505050565b600080600080600060a0868803121561239157600080fd5b61239a86612116565b94506123a860208701612116565b9350604086013567ffffffffffffffff808211156123c557600080fd5b6123d189838a0161229a565b945060608801359150808211156123e757600080fd5b6123f389838a0161229a565b9350608088013591508082111561240957600080fd5b5061241688828901612309565b9150509295509295909350565b6000806040838503121561243657600080fd5b823567ffffffffffffffff8082111561244e57600080fd5b818501915085601f83011261246257600080fd5b813560206124726122bb83612276565b82815260059290921b8401810191818101908984111561249157600080fd5b948201945b838610156124b6576124a786612116565b82529482019490820190612496565b965050860135925050808211156124cc57600080fd5b506124d98582860161229a565b9150509250929050565b60008151808452602080850194506020840160005b83811015612514578151875295820195908201906001016124f8565b509495945050505050565b60208152600061159960208301846124e3565b801515811461163a57600080fd5b6000806040838503121561255357600080fd5b61255c8361218f565b9150602083013561256c81612532565b809150509250929050565b604080825283519082018190526000906020906060840190828701845b828110156125b95781516001600160a01b031684529284019290840190600101612594565b50505083810360208501526125ce81866124e3565b9695505050505050565b600080600080608085870312156125ee57600080fd5b6125f785612116565b93506126056020860161218f565b93969395505050506040820135916060013590565b6000806040838503121561262d57600080fd5b61255c83612116565b6000806000806080858703121561264c57600080fd5b6125f78561218f565b6000806040838503121561266857600080fd5b61267183612116565b915061267f60208401612116565b90509250929050565b600080600080600060a086880312156126a057600080fd5b6126a986612116565b94506126b760208701612116565b93506040860135925060608601359150608086013567ffffffffffffffff8111156126e157600080fd5b61241688828901612309565b6000602082840312156126ff57600080fd5b61159982612116565b634e487b7160e01b600052601160045260246000fd5b808202811582820484141761042e5761042e612708565b60006020828403121561274757600080fd5b815161159981612532565b634e487b7160e01b600052601260045260246000fd5b60008261277757612777612752565b500490565b8181038181111561042e5761042e612708565b8082018082111561042e5761042e612708565b600181811c908216806127b657607f821691505b6020821081036127d657634e487b7160e01b600052602260045260246000fd5b50919050565b634e487b7160e01b600052603260045260246000fd5b60006001820161280457612804612708565b5060010190565b61ffff82811682821603908082111561282657612826612708565b5092915050565b600061ffff8084168061284257612842612752565b92169190910692915050565b600061ffff8084168061286357612863612752565b92169190910492915050565b600182810b9082900b03617fff198112617fff8213171561042e5761042e612708565b600181810b9083900b01617fff8113617fff198212171561042e5761042e612708565b6040815260006128c860408301856124e3565b82810360208401526128da81856124e3565b95945050505050565b6001600160a01b03868116825285166020820152604081018490526060810183905260a06080820181905260009061291d908301846121d6565b979650505050505050565b60006020828403121561293a57600080fd5b81516115998161215c565b6001600160a01b0386811682528516602082015260a060408201819052600090612971908301866124e3565b828103606084015261298381866124e3565b9050828103608084015261299781856121d6565b9897505050505050505056fea264697066735822122051bb2ee95f7da6b7a8a9a411b3a7a6d96fb8ea9e233b94306d1eff7880dd52c164736f6c6343000818003368747470733a2f2f6170692e6b696c6c67616d652e61692f6d657461646174612f7b69647d2e6a736f6e",
  "linkReferences": {},
  "deployedLinkReferences": {}
}