{
  "_format": "hh-sol-artifact-1",
  "contractName": "KILLGame",
  "sourceName": "contracts/KillGame.sol",
  "abi": [
    {
      "inputs": [
        {
          "internalType": "address",
          "name": "_tokenAddress",
          "type": "address"
        }
      ],
      "stateMutability": "nonpayable",
      "type": "constructor"
    },
    {
      "inputs": [
        {
          "internalType": "address",
          "name": "sender",
          "type": "address"
        },
        {
          "internalType": "uint256",
          "name": "balance",
          "type": "uint256"
        },
        {
          "internalType": "uint256",
          "name": "needed",
          "type": "uint256"
        },
        {
          "internalType": "uint256",
          "name": "tokenId",
          "type": "uint256"
        }
      ],
      "name": "ERC1155InsufficientBalance",
      "type": "error"
    },
    {
      "inputs": [
        {
          "internalType": "address",
          "name": "approver",
          "type": "address"
        }
      ],
      "name": "ERC1155InvalidApprover",
      "type": "error"
    },
    {
      "inputs": [
        {
          "internalType": "uint256",
          "name": "idsLength",
          "type": "uint256"
        },
        {
          "internalType": "uint256",
          "name": "valuesLength",
          "type": "uint256"
        }
      ],
      "name": "ERC1155InvalidArrayLength",
      "type": "error"
    },
    {
      "inputs": [
        {
          "internalType": "address",
          "name": "operator",
          "type": "address"
        }
      ],
      "name": "ERC1155InvalidOperator",
      "type": "error"
    },
    {
      "inputs": [
        {
          "internalType": "address",
          "name": "receiver",
          "type": "address"
        }
      ],
      "name": "ERC1155InvalidReceiver",
      "type": "error"
    },
    {
      "inputs": [
        {
          "internalType": "address",
          "name": "sender",
          "type": "address"
        }
      ],
      "name": "ERC1155InvalidSender",
      "type": "error"
    },
    {
      "inputs": [
        {
          "internalType": "address",
          "name": "operator",
          "type": "address"
        },
        {
          "internalType": "address",
          "name": "owner",
          "type": "address"
        }
      ],
      "name": "ERC1155MissingApprovalForAll",
      "type": "error"
    },
    {
      "inputs": [
        {
          "internalType": "address",
          "name": "owner",
          "type": "address"
        }
      ],
      "name": "OwnableInvalidOwner",
      "type": "error"
    },
    {
      "inputs": [
        {
          "internalType": "address",
          "name": "account",
          "type": "address"
        }
      ],
      "name": "OwnableUnauthorizedAccount",
      "type": "error"
    },
    {
      "inputs": [],
      "name": "ReentrancyGuardReentrantCall",
      "type": "error"
    },
    {
      "anonymous": false,
      "inputs": [
        {
          "indexed": true,
          "internalType": "address",
          "name": "account",
          "type": "address"
        },
        {
          "indexed": true,
          "internalType": "address",
          "name": "operator",
          "type": "address"
        },
        {
          "indexed": false,
          "internalType": "bool",
          "name": "approved",
          "type": "bool"
        }
      ],
      "name": "ApprovalForAll",
      "type": "event"
    },
    {
      "anonymous": false,
      "inputs": [
        {
          "indexed": true,
          "internalType": "address",
          "name": "defender",
          "type": "address"
        },
        {
          "indexed": false,
          "internalType": "uint256",
          "name": "amount",
          "type": "uint256"
        }
      ],
      "name": "DefenderRewarded",
      "type": "event"
    },
    {
      "anonymous": false,
      "inputs": [
        {
          "indexed": false,
          "internalType": "uint256",
          "name": "totalUnitsKilled",
          "type": "uint256"
        },
        {
          "indexed": false,
          "internalType": "uint256",
          "name": "totalReaperKilled",
          "type": "uint256"
        },
        {
          "indexed": false,
          "internalType": "uint256",
          "name": "killAdded",
          "type": "uint256"
        },
        {
          "indexed": false,
          "internalType": "uint256",
          "name": "killExtracted",
          "type": "uint256"
        },
        {
          "indexed": false,
          "internalType": "uint256",
          "name": "killBurned",
          "type": "uint256"
        }
      ],
      "name": "GlobalStats",
      "type": "event"
    },
    {
      "anonymous": false,
      "inputs": [
        {
          "indexed": true,
          "internalType": "address",
          "name": "attacker",
          "type": "address"
        },
        {
          "indexed": true,
          "internalType": "address",
          "name": "target",
          "type": "address"
        },
        {
          "indexed": true,
          "internalType": "uint16",
          "name": "stackId",
          "type": "uint16"
        },
        {
          "components": [
            {
              "internalType": "uint256",
              "name": "attackerUnitsSent",
              "type": "uint256"
            },
            {
              "internalType": "uint256",
              "name": "attackerReaperSent",
              "type": "uint256"
            },
            {
              "internalType": "uint256",
              "name": "attackerUnitsLost",
              "type": "uint256"
            },
            {
              "internalType": "uint256",
              "name": "attackerReaperLost",
              "type": "uint256"
            },
            {
              "internalType": "uint256",
              "name": "targetUnitsLost",
              "type": "uint256"
            },
            {
              "internalType": "uint256",
              "name": "targetReaperLost",
              "type": "uint256"
            },
            {
              "internalType": "uint256",
              "name": "initialDefenderUnits",
              "type": "uint256"
            },
            {
              "internalType": "uint256",
              "name": "initialDefenderReaper",
              "type": "uint256"
            },
            {
              "internalType": "uint256",
              "name": "attackerBounty",
              "type": "uint256"
            },
            {
              "internalType": "uint256",
              "name": "defenderBounty",
              "type": "uint256"
            }
          ],
          "indexed": false,
          "internalType": "struct KILLGame.BattleSummary",
          "name": "summary",
          "type": "tuple"
        },
        {
          "indexed": false,
          "internalType": "uint256",
          "name": "targetBirthBlock",
          "type": "uint256"
        }
      ],
      "name": "Killed",
      "type": "event"
    },
    {
      "anonymous": false,
      "inputs": [
        {
          "indexed": true,
          "internalType": "address",
          "name": "agent",
          "type": "address"
        },
        {
          "indexed": false,
          "internalType": "uint16",
          "name": "fromStack",
          "type": "uint16"
        },
        {
          "indexed": false,
          "internalType": "uint16",
          "name": "toStack",
          "type": "uint16"
        },
        {
          "indexed": false,
          "internalType": "uint256",
          "name": "units",
          "type": "uint256"
        },
        {
          "indexed": false,
          "internalType": "uint256",
          "name": "reaper",
          "type": "uint256"
        },
        {
          "indexed": false,
          "internalType": "uint256",
          "name": "birthBlock",
          "type": "uint256"
        }
      ],
      "name": "Moved",
      "type": "event"
    },
    {
      "anonymous": false,
      "inputs": [
        {
          "indexed": true,
          "internalType": "address",
          "name": "previousOwner",
          "type": "address"
        },
        {
          "indexed": true,
          "internalType": "address",
          "name": "newOwner",
          "type": "address"
        }
      ],
      "name": "OwnershipTransferred",
      "type": "event"
    },
    {
      "anonymous": false,
      "inputs": [
        {
          "indexed": true,
          "internalType": "address",
          "name": "agent",
          "type": "address"
        },
        {
          "indexed": true,
          "internalType": "uint256",
          "name": "stackId",
          "type": "uint256"
        },
        {
          "indexed": false,
          "internalType": "uint256",
          "name": "units",
          "type": "uint256"
        },
        {
          "indexed": false,
          "internalType": "uint256",
          "name": "reapers",
          "type": "uint256"
        },
        {
          "indexed": false,
          "internalType": "uint256",
          "name": "birthBlock",
          "type": "uint256"
        }
      ],
      "name": "Spawned",
      "type": "event"
    },
    {
      "anonymous": false,
      "inputs": [
        {
          "indexed": true,
          "internalType": "address",
          "name": "operator",
          "type": "address"
        },
        {
          "indexed": true,
          "internalType": "address",
          "name": "from",
          "type": "address"
        },
        {
          "indexed": true,
          "internalType": "address",
          "name": "to",
          "type": "address"
        },
        {
          "indexed": false,
          "internalType": "uint256[]",
          "name": "ids",
          "type": "uint256[]"
        },
        {
          "indexed": false,
          "internalType": "uint256[]",
          "name": "values",
          "type": "uint256[]"
        }
      ],
      "name": "TransferBatch",
      "type": "event"
    },
    {
      "anonymous": false,
      "inputs": [
        {
          "indexed": true,
          "internalType": "address",
          "name": "operator",
          "type": "address"
        },
        {
          "indexed": true,
          "internalType": "address",
          "name": "from",
          "type": "address"
        },
        {
          "indexed": true,
          "internalType": "address",
          "name": "to",
          "type": "address"
        },
        {
          "indexed": false,
          "internalType": "uint256",
          "name": "id",
          "type": "uint256"
        },
        {
          "indexed": false,
          "internalType": "uint256",
          "name": "value",
          "type": "uint256"
        }
      ],
      "name": "TransferSingle",
      "type": "event"
    },
    {
      "anonymous": false,
      "inputs": [
        {
          "indexed": false,
          "internalType": "uint256",
          "name": "oldBps",
          "type": "uint256"
        },
        {
          "indexed": false,
          "internalType": "uint256",
          "name": "newBps",
          "type": "uint256"
        }
      ],
      "name": "TreasuryBpsUpdated",
      "type": "event"
    },
    {
      "anonymous": false,
      "inputs": [
        {
          "indexed": false,
          "internalType": "string",
          "name": "value",
          "type": "string"
        },
        {
          "indexed": true,
          "internalType": "uint256",
          "name": "id",
          "type": "uint256"
        }
      ],
      "name": "URI",
      "type": "event"
    },
    {
      "inputs": [],
      "name": "BURN_BPS",
      "outputs": [
        {
          "internalType": "uint256",
          "name": "",
          "type": "uint256"
        }
      ],
      "stateMutability": "view",
      "type": "function"
    },
    {
      "inputs": [],
      "name": "MOVE_COST",
      "outputs": [
        {
          "internalType": "uint256",
          "name": "",
          "type": "uint256"
        }
      ],
      "stateMutability": "view",
      "type": "function"
    },
    {
      "inputs": [],
      "name": "SPAWN_COST",
      "outputs": [
        {
          "internalType": "uint256",
          "name": "",
          "type": "uint256"
        }
      ],
      "stateMutability": "view",
      "type": "function"
    },
    {
      "inputs": [],
      "name": "THERMAL_PARITY",
      "outputs": [
        {
          "internalType": "uint256",
          "name": "",
          "type": "uint256"
        }
      ],
      "stateMutability": "view",
      "type": "function"
    },
    {
      "inputs": [
        {
          "internalType": "uint256",
          "name": "amt",
          "type": "uint256"
        }
      ],
      "name": "adminWithdraw",
      "outputs": [],
      "stateMutability": "nonpayable",
      "type": "function"
    },
    {
      "inputs": [
        {
          "internalType": "address",
          "name": "",
          "type": "address"
        },
        {
          "internalType": "uint256",
          "name": "",
          "type": "uint256"
        }
      ],
      "name": "agentStacks",
      "outputs": [
        {
          "internalType": "uint256",
          "name": "birthBlock",
          "type": "uint256"
        }
      ],
      "stateMutability": "view",
      "type": "function"
    },
    {
      "inputs": [
        {
          "internalType": "address",
          "name": "",
          "type": "address"
        }
      ],
      "name": "agentTotalProfit",
      "outputs": [
        {
          "internalType": "uint256",
          "name": "",
          "type": "uint256"
        }
      ],
      "stateMutability": "view",
      "type": "function"
    },
    {
      "inputs": [
        {
          "internalType": "address",
          "name": "account",
          "type": "address"
        },
        {
          "internalType": "uint256",
          "name": "id",
          "type": "uint256"
        }
      ],
      "name": "balanceOf",
      "outputs": [
        {
          "internalType": "uint256",
          "name": "",
          "type": "uint256"
        }
      ],
      "stateMutability": "view",
      "type": "function"
    },
    {
      "inputs": [
        {
          "internalType": "address[]",
          "name": "accounts",
          "type": "address[]"
        },
        {
          "internalType": "uint256[]",
          "name": "ids",
          "type": "uint256[]"
        }
      ],
      "name": "balanceOfBatch",
      "outputs": [
        {
          "internalType": "uint256[]",
          "name": "",
          "type": "uint256[]"
        }
      ],
      "stateMutability": "view",
      "type": "function"
    },
    {
      "inputs": [
        {
          "internalType": "address",
          "name": "agent",
          "type": "address"
        },
        {
          "internalType": "uint256",
          "name": "id",
          "type": "uint256"
        }
      ],
      "name": "getBirthBlock",
      "outputs": [
        {
          "internalType": "uint256",
          "name": "",
          "type": "uint256"
        }
      ],
      "stateMutability": "view",
      "type": "function"
    },
    {
      "inputs": [
        {
          "internalType": "uint16",
          "name": "stackId",
          "type": "uint16"
        }
      ],
      "name": "getFullStack",
      "outputs": [
        {
          "components": [
            {
              "internalType": "address",
              "name": "occupant",
              "type": "address"
            },
            {
              "internalType": "uint256",
              "name": "units",
              "type": "uint256"
            },
            {
              "internalType": "uint256",
              "name": "reapers",
              "type": "uint256"
            },
            {
              "internalType": "uint256",
              "name": "age",
              "type": "uint256"
            },
            {
              "internalType": "uint256",
              "name": "pendingBounty",
              "type": "uint256"
            }
          ],
          "internalType": "struct KILLGame.StackInfo[]",
          "name": "",
          "type": "tuple[]"
        }
      ],
      "stateMutability": "view",
      "type": "function"
    },
    {
      "inputs": [
        {
          "internalType": "address",
          "name": "agent",
          "type": "address"
        },
        {
          "internalType": "uint256",
          "name": "id",
          "type": "uint256"
        }
      ],
      "name": "getPendingBounty",
      "outputs": [
        {
          "internalType": "uint256",
          "name": "",
          "type": "uint256"
        }
      ],
      "stateMutability": "view",
      "type": "function"
    },
    {
      "inputs": [],
      "name": "getTreasuryStats",
      "outputs": [
        {
          "internalType": "uint256",
          "name": "totalTreasury",
          "type": "uint256"
        },
        {
          "internalType": "uint256",
          "name": "globalMaxBounty",
          "type": "uint256"
        }
      ],
      "stateMutability": "view",
      "type": "function"
    },
    {
      "inputs": [
        {
          "internalType": "address",
          "name": "account",
          "type": "address"
        },
        {
          "internalType": "address",
          "name": "operator",
          "type": "address"
        }
      ],
      "name": "isApprovedForAll",
      "outputs": [
        {
          "internalType": "bool",
          "name": "",
          "type": "bool"
        }
      ],
      "stateMutability": "view",
      "type": "function"
    },
    {
      "inputs": [
        {
          "internalType": "address",
          "name": "target",
          "type": "address"
        },
        {
          "internalType": "uint16",
          "name": "stackId",
          "type": "uint16"
        },
        {
          "internalType": "uint256",
          "name": "sentUnits",
          "type": "uint256"
        },
        {
          "internalType": "uint256",
          "name": "sentReaper",
          "type": "uint256"
        }
      ],
      "name": "kill",
      "outputs": [
        {
          "internalType": "uint256",
          "name": "attackerBounty",
          "type": "uint256"
        }
      ],
      "stateMutability": "nonpayable",
      "type": "function"
    },
    {
      "inputs": [],
      "name": "killToken",
      "outputs": [
        {
          "internalType": "contract IERC20",
          "name": "",
          "type": "address"
        }
      ],
      "stateMutability": "view",
      "type": "function"
    },
    {
      "inputs": [
        {
          "internalType": "uint16",
          "name": "fromStack",
          "type": "uint16"
        },
        {
          "internalType": "uint16",
          "name": "toStack",
          "type": "uint16"
        },
        {
          "internalType": "uint256",
          "name": "units",
          "type": "uint256"
        },
        {
          "internalType": "uint256",
          "name": "reaper",
          "type": "uint256"
        }
      ],
      "name": "move",
      "outputs": [],
      "stateMutability": "nonpayable",
      "type": "function"
    },
    {
      "inputs": [],
      "name": "owner",
      "outputs": [
        {
          "internalType": "address",
          "name": "",
          "type": "address"
        }
      ],
      "stateMutability": "view",
      "type": "function"
    },
    {
      "inputs": [],
      "name": "renounceOwnership",
      "outputs": [],
      "stateMutability": "nonpayable",
      "type": "function"
    },
    {
      "inputs": [
        {
          "internalType": "address",
          "name": "from",
          "type": "address"
        },
        {
          "internalType": "address",
          "name": "to",
          "type": "address"
        },
        {
          "internalType": "uint256[]",
          "name": "ids",
          "type": "uint256[]"
        },
        {
          "internalType": "uint256[]",
          "name": "values",
          "type": "uint256[]"
        },
        {
          "internalType": "bytes",
          "name": "data",
          "type": "bytes"
        }
      ],
      "name": "safeBatchTransferFrom",
      "outputs": [],
      "stateMutability": "nonpayable",
      "type": "function"
    },
    {
      "inputs": [
        {
          "internalType": "address",
          "name": "from",
          "type": "address"
        },
        {
          "internalType": "address",
          "name": "to",
          "type": "address"
        },
        {
          "internalType": "uint256",
          "name": "id",
          "type": "uint256"
        },
        {
          "internalType": "uint256",
          "name": "value",
          "type": "uint256"
        },
        {
          "internalType": "bytes",
          "name": "data",
          "type": "bytes"
        }
      ],
      "name": "safeTransferFrom",
      "outputs": [],
      "stateMutability": "nonpayable",
      "type": "function"
    },
    {
      "inputs": [
        {
          "internalType": "address",
          "name": "operator",
          "type": "address"
        },
        {
          "internalType": "bool",
          "name": "approved",
          "type": "bool"
        }
      ],
      "name": "setApprovalForAll",
      "outputs": [],
      "stateMutability": "nonpayable",
      "type": "function"
    },
    {
      "inputs": [
        {
          "internalType": "uint256",
          "name": "_newBps",
          "type": "uint256"
        }
      ],
      "name": "setTreasuryBps",
      "outputs": [],
      "stateMutability": "nonpayable",
      "type": "function"
    },
    {
      "inputs": [
        {
          "internalType": "uint16",
          "name": "stackId",
          "type": "uint16"
        },
        {
          "internalType": "uint256",
          "name": "amount",
          "type": "uint256"
        }
      ],
      "name": "spawn",
      "outputs": [],
      "stateMutability": "nonpayable",
      "type": "function"
    },
    {
      "inputs": [
        {
          "internalType": "bytes4",
          "name": "id",
          "type": "bytes4"
        }
      ],
      "name": "supportsInterface",
      "outputs": [
        {
          "internalType": "bool",
          "name": "",
          "type": "bool"
        }
      ],
      "stateMutability": "view",
      "type": "function"
    },
    {
      "inputs": [],
      "name": "totalKillBurned",
      "outputs": [
        {
          "internalType": "uint256",
          "name": "",
          "type": "uint256"
        }
      ],
      "stateMutability": "view",
      "type": "function"
    },
    {
      "inputs": [],
      "name": "totalKillExtracted",
      "outputs": [
        {
          "internalType": "uint256",
          "name": "",
          "type": "uint256"
        }
      ],
      "stateMutability": "view",
      "type": "function"
    },
    {
      "inputs": [],
      "name": "totalReaperKilled",
      "outputs": [
        {
          "internalType": "uint256",
          "name": "",
          "type": "uint256"
        }
      ],
      "stateMutability": "view",
      "type": "function"
    },
    {
      "inputs": [],
      "name": "totalUnitsKilled",
      "outputs": [
        {
          "internalType": "uint256",
          "name": "",
          "type": "uint256"
        }
      ],
      "stateMutability": "view",
      "type": "function"
    },
    {
      "inputs": [
        {
          "internalType": "address",
          "name": "newOwner",
          "type": "address"
        }
      ],
      "name": "transferOwnership",
      "outputs": [],
      "stateMutability": "nonpayable",
      "type": "function"
    },
    {
      "inputs": [],
      "name": "treasuryBps",
      "outputs": [
        {
          "internalType": "uint256",
          "name": "",
          "type": "uint256"
        }
      ],
      "stateMutability": "view",
      "type": "function"
    },
    {
      "inputs": [
        {
          "internalType": "uint256",
          "name": "",
          "type": "uint256"
        }
      ],
      "name": "uri",
      "outputs": [
        {
          "internalType": "string",
          "name": "",
          "type": "string"
        }
      ],
      "stateMutability": "view",
      "type": "function"
    }
  ],
  "bytecode": "0x60a06040526109c46005553480156200001757600080fd5b50604051620030ba380380620030ba8339810160408190526200003a9162000117565b336040518060600160405280602a815260200162003090602a91396200006081620000b3565b5060016003556001600160a01b0381166200009557604051631e4fbdf760e01b81526000600482015260240160405180910390fd5b620000a081620000c5565b506001600160a01b0316608052620002bc565b6002620000c18282620001f0565b5050565b600480546001600160a01b038381166001600160a01b0319831681179093556040519116919082907f8be0079c531659141344cd1fd0a4f28419497f9722a3daafe3b4186f6b6457e090600090a35050565b6000602082840312156200012a57600080fd5b81516001600160a01b03811681146200014257600080fd5b9392505050565b634e487b7160e01b600052604160045260246000fd5b600181811c908216806200017457607f821691505b6020821081036200019557634e487b7160e01b600052602260045260246000fd5b50919050565b601f821115620001eb576000816000526020600020601f850160051c81016020861015620001c65750805b601f850160051c820191505b81811015620001e757828155600101620001d2565b5050505b505050565b81516001600160401b038111156200020c576200020c62000149565b62000224816200021d84546200015f565b846200019b565b602080601f8311600181146200025c5760008415620002435750858301515b600019600386901b1c1916600185901b178555620001e7565b600085815260208120601f198616915b828110156200028d578886015182559484019460019091019084016200026c565b5085821015620002ac5787850151600019600388901b60f8161c191681555b5050505050600190811b01905550565b608051612d8e620003026000396000818161027701528181610579015281816108cf01528181610ca101528181610dde015281816110000152611f660152612d8e6000f3fe608060405234801561001057600080fd5b50600436106101ef5760003560e01c806391fa2a6a1161010f578063c8692e3f116100a2578063edbd5df811610071578063edbd5df81461043a578063ef0a131114610465578063f242432a14610485578063f2fde38b1461049857600080fd5b8063c8692e3f146103e4578063e74fe23714610401578063e985e9c514610414578063ea075ee11461042757600080fd5b8063b8011328116100de578063b80113281461037b578063bb6eb359146103b1578063c68e8075146103c4578063c704c3f11461035957600080fd5b806391fa2a6a146103465780639445684814610359578063a22cb46514610368578063a37a9fc0146102f657600080fd5b80634e1273f411610187578063781298821161015657806378129882146103105780637c5b4a371461031957806388b00adc1461032c5780638da5cb5b1461033557600080fd5b80634e1273f4146102d6578063523c686a146102f65780635635fdbc146102ff578063715018a61461030857600080fd5b80632bd7cd17116101c35780632bd7cd17146102725780632eb2c2d6146102b15780632ee8174e146102c45780634dc10ea1146102cd57600080fd5b8062fdd58e146101f457806301ffc9a71461021a57806309f618261461023d5780630e89341c14610252575b600080fd5b6102076102023660046124b2565b6104ab565b6040519081526020015b60405180910390f35b61022d6102283660046124f2565b6104d3565b6040519015158152602001610211565b61025061024b366004612528565b6104de565b005b610265610260366004612544565b6106cf565b60405161021191906125a3565b6102997f000000000000000000000000000000000000000000000000000000000000000081565b6040516001600160a01b039091168152602001610211565b6102506102bf366004612700565b610763565b61020760075481565b61020760055481565b6102e96102e43660046127aa565b6107ca565b60405161021191906128a6565b61020761029a81565b61020760085481565b610250610897565b61020760065481565b610250610327366004612544565b6108ab565b61020760095481565b6004546001600160a01b0316610299565b6102076103543660046128b9565b610944565b610207678ac7230489e8000081565b610250610376366004612909565b610bea565b6102076103893660046124b2565b6001600160a01b03919091166000908152600a60209081526040808320938352929052205490565b6102506103bf366004612544565b610bf5565b6102076103d2366004612940565b600d6020526000908152604090205481565b6103ec610c7f565b60408051928352602083019190915201610211565b61025061040f36600461295b565b610d2b565b61022d61042236600461297a565b610f45565b6102076104353660046124b2565b610f73565b6102076104483660046124b2565b600a60209081526000928352604080842090915290825290205481565b6104786104733660046129ad565b611145565b60405161021191906129c8565b610250610493366004612a3f565b6113d8565b6102506104a6366004612940565b611437565b6000818152602081815260408083206001600160a01b03861684529091529020545b92915050565b60006104cd82611475565b6104e66114c5565b60008261ffff161180156104ff575060d88261ffff1611155b6105405760405162461bcd60e51b815260206004820152600d60248201526c496e76616c696420537461636b60981b60448201526064015b60405180910390fd5b6000610554678ac7230489e8000083612aba565b6040516323b872dd60e01b8152336004820152306024820152604481018290529091507f00000000000000000000000000000000000000000000000000000000000000006001600160a01b0316906323b872dd906064016020604051808303816000875af11580156105ca573d6000803e3d6000fd5b505050506040513d601f19601f820116820180604052508101906105ee9190612ad1565b6106255760405162461bcd60e51b815260206004820152600860248201526714185e4819985a5b60c21b6044820152606401610537565b61271061029a820260098054929091049091019055600061064861029a84612b04565b9050610659338561ffff16856114ef565b8015610678576106783361067261ffff871660d8612b18565b836114ef565b60408051848152602081018390524381830152905161ffff86169133917faf4ea7c0f51d4c33144122655ecd0051aa44b546b9daa750ab0d9144f3ed637e9181900360600190a350506106cb6001600355565b5050565b6060600280546106de90612b2b565b80601f016020809104026020016040519081016040528092919081815260200182805461070a90612b2b565b80156107575780601f1061072c57610100808354040283529160200191610757565b820191906000526020600020905b81548152906001019060200180831161073a57829003601f168201915b50505050509050919050565b336001600160a01b038616811480159061078457506107828682610f45565b155b156107b55760405163711bec9160e11b81526001600160a01b03808316600483015287166024820152604401610537565b6107c286868686866115e6565b505050505050565b606081518351146107fb5781518351604051635b05999160e01b815260048101929092526024820152604401610537565b6000835167ffffffffffffffff811115610817576108176125b6565b604051908082528060200260200182016040528015610840578160200160208202803683370190505b50905060005b845181101561088f5760208082028601015161086a906020808402870101516104ab565b82828151811061087c5761087c612b65565b6020908102919091010152600101610846565b509392505050565b61089f61164d565b6108a9600061167a565b565b6108b361164d565b60405163a9059cbb60e01b8152336004820152602481018290527f00000000000000000000000000000000000000000000000000000000000000006001600160a01b03169063a9059cbb906044016020604051808303816000875af1158015610920573d6000803e3d6000fd5b505050506040513d601f19601f820116820180604052508101906106cb9190612ad1565b600061094e6114c5565b61ffff841660006109608260d8612b18565b90508461096d33846104ab565b1015801561098457508361098133836104ab565b10155b6109bd5760405162461bcd60e51b815260206004820152600a6024820152694c61636b20756e69747360b01b6044820152606401610537565b6001600160a01b0387163303610a085760405162461bcd60e51b815260206004820152601060248201526f21b0b73737ba1035b4b6361039b2b63360811b6044820152606401610537565b610a5e604051806101400160405280600081526020016000815260200160008152602001600081526020016000815260200160008152602001600081526020016000815260200160008152602001600081525090565b85815260208101859052610a7288846104ab565b60c0820152610a8188836104ab565b60e08201526001600160a01b0388166000908152600a6020908152604080832086845290915281205490610ab9338b87878c8c6116cc565b8051604080860191909152602082015160608087019190915290820151608086015281015160a08501529050610af18a8683866117f0565b6040820151825160068054919092010190556060820151602083015160078054919092010190559550610b28338b878785886119ad565b6040805184518152602080860151908201528482015181830152606080860151908201526080808601519082015260a0808601519082015260c0808601519082015260e08086015190820152610100808601519082015261012080860151908201526101408101849052905161ffff8b16916001600160a01b038d169133917f2c0ba6eda9140ba04ab07a25239250d2664c08a013d3ec03f3ec6f014f21a53991908190036101600190a45050505050610be26001600355565b949350505050565b6106cb338383611ad1565b610bfd61164d565b612710811115610c3a5760405162461bcd60e51b81526020600482015260086024820152674d6178203130302560c01b6044820152606401610537565b600580549082905560408051828152602081018490527f6993bc581306fd40069a7f8d78fd994e52ce66bdacf741f949a3e4bdcf28ca80910160405180910390a15050565b6040516370a0823160e01b815230600482015260009081906001600160a01b037f000000000000000000000000000000000000000000000000000000000000000016906370a0823190602401602060405180830381865afa158015610ce8573d6000803e3d6000fd5b505050506040513d601f19601f82011682018060405250810190610d0c9190612b7b565b91506064610d1b836005612aba565b610d259190612b04565b90509091565b610d336114c5565b60008461ffff16118015610d4c575060d88461ffff1611155b8015610d5c575060008361ffff16115b8015610d6d575060d88361ffff1611155b8015610d7e5750610d7e8484611b67565b610db55760405162461bcd60e51b8152602060048201526008602482015267426164206d6f766560c01b6044820152606401610537565b6040516323b872dd60e01b8152336004820152306024820152678ac7230489e8000060448201527f00000000000000000000000000000000000000000000000000000000000000006001600160a01b0316906323b872dd906064016020604051808303816000875af1158015610e2f573d6000803e3d6000fd5b505050506040513d601f19601f82011682018060405250810190610e539190612ad1565b610e8a5760405162461bcd60e51b815260206004820152600860248201526714185e4819985a5b60c21b6044820152606401610537565b6009805467093e1b78ac6900000190558115610eb357610eb38461ffff168461ffff1684611c93565b8015610ee057610ee0610ecb61ffff861660d8612b18565b610eda61ffff861660d8612b18565b83611c93565b6040805161ffff8087168252851660208201529081018390526060810182905243608082015233907f377dc7145bd8ab426842504b448652c41dda00abb7f7c1df6bdfa40bd2a16f2c9060a00160405180910390a2610f3f6001600355565b50505050565b6001600160a01b03918216600090815260016020908152604080832093909416825291909152205460ff1690565b6001600160a01b0382166000908152600a60209081526040808320848452909152812054801580610fa45750804311155b15610fb35760009150506104cd565b600060d88411610fc35783610fce565b610fce60d885612b94565b90506000610fdd8260d8612b18565b6040516370a0823160e01b81523060048201529091506000906001600160a01b037f000000000000000000000000000000000000000000000000000000000000000016906370a0823190602401602060405180830381865afa158015611047573d6000803e3d6000fd5b505050506040513d601f19601f8201168201806040525081019061106b9190612b7b565b905060006402540be40060055486436110849190612b94565b61108e9085612aba565b6110989190612aba565b6110a29190612b04565b9050600060646110b3846005612aba565b6110bd9190612b04565b905060006110cb8a866104ab565b6110d79061029a612aba565b6110e18b886104ab565b6110eb9190612b18565b90506000611101678ac7230489e8000083612aba565b90506000611110826032612aba565b905060008185106111215781611123565b845b90508086116111325785611134565b805b9d9c50505050505050505050505050565b606061ffff821660006111598260d8612b18565b6000838152600b60209081526040808320805482518185028101850190935280835294955092939092918301828280156111bc57602002820191906000526020600020905b81546001600160a01b0316815260019091019060200180831161119e575b505050505090506000805b825181101561123957600c600086815260200190815260200160002060008483815181106111f7576111f7612b65565b6020908102919091018101516001600160a01b031682528101919091526040016000205460ff1615611231578161122d81612ba7565b9250505b6001016111c7565b5060008167ffffffffffffffff811115611255576112556125b6565b6040519080825280602002602001820160405280156112c157816020015b6112ae6040518060a0016040528060006001600160a01b03168152602001600081526020016000815260200160008152602001600081525090565b8152602001906001900390816112735790505b5090506000805b84518110156113cb5760008582815181106112e5576112e5612b65565b60209081029190910181015160008a8152600c835260408082206001600160a01b0384168352909352919091205490915060ff16156113c2576040518060a00160405280826001600160a01b03168152602001611342838b6104ab565b8152602001611351838a6104ab565b81526001600160a01b0383166000908152600a602090815260408083208d84528252909120549101906113849043612b94565b8152602001611393838b610f73565b8152508484815181106113a8576113a8612b65565b602002602001018190525082806113be90612ba7565b9350505b506001016112c8565b5090979650505050505050565b336001600160a01b03861681148015906113f957506113f78682610f45565b155b1561142a5760405163711bec9160e11b81526001600160a01b03808316600483015287166024820152604401610537565b6107c28686868686611de9565b61143f61164d565b6001600160a01b03811661146957604051631e4fbdf760e01b815260006004820152602401610537565b6114728161167a565b50565b60006001600160e01b03198216636cdb3d1360e11b14806114a657506001600160e01b031982166303a24d0760e21b145b806104cd57506301ffc9a760e01b6001600160e01b03198316146104cd565b6002600354036114e857604051633ee5aeb560e01b815260040160405180910390fd5b6002600355565b61150a83838360405180602001604052806000815250611e77565b6001600160a01b0383166000908152600a60209081526040808320858452909152812054900361155b576001600160a01b0383166000908152600a6020908152604080832085845290915290204390555b6000828152600c602090815260408083206001600160a01b038716845290915290205460ff166115e1576000828152600b602090815260408083208054600180820183559185528385200180546001600160a01b0319166001600160a01b038916908117909155868552600c8452828520908552909252909120805460ff191690911790555b505050565b6001600160a01b03841661161057604051632bfa23e760e11b815260006004820152602401610537565b6001600160a01b03851661163957604051626a0d4560e21b815260006004820152602401610537565b6116468585858585611ed0565b5050505050565b6004546001600160a01b031633146108a95760405163118cdaa760e01b8152336004820152602401610537565b600480546001600160a01b038381166001600160a01b0319831681179093556040519116919082907f8be0079c531659141344cd1fd0a4f28419497f9722a3daafe3b4186f6b6457e090600090a35050565b6116f76040518060800160405280600081526020016000815260200160008152602001600081525090565b60006117058361029a612aba565b61170f9085612b18565b9050600061171d88886104ab565b9050600061172b89886104ab565b90506000606461173d8361029a612aba565b6117479085612b18565b61175290606e612aba565b61175c9190612b04565b90508060000361176a575060015b808411156117855760408501839052606085018290526117e2565b86855260208501869052600061179b8580612aba565b905060006117a98380612aba565b9050806117b68387612aba565b6117c09190612b04565b6040880152806117d08386612aba565b6117da9190612b04565b606088015250505b505050509695505050505050565b6000806000846060015161029a6118079190612aba565b85604001516118169190612b18565b90506000856020015161029a61182c9190612aba565b86516118389190612b18565b905060006118468284612b18565b90508060000361185d576000945050505050610be2565b60006118698a8a610f73565b905061029a8210156118915761029a6118828383612aba565b61188c9190612b04565b611893565b805b9450600090506127106118a886611d4c612aba565b6118b29190612b04565b905080156119a057816118c58583612aba565b6118cf9190612b04565b95506118db3387611f23565b336000908152600d6020526040812080548892906118fa908490612b18565b90915550600090508261190d8584612aba565b6119179190612b04565b90506119238b82611f23565b6001600160a01b038b166000908152600d60205260408120805483929061194b908490612b18565b9091555050610100880187905261012088018190526040518181526001600160a01b038c16907fdf7a5d9a98a2f71d704a4e6a4c0422d79ed27521ad9cfd55e985d5fb94cfaffe9060200160405180910390a2505b5050505050949350505050565b6040820151156119c6576119c68585846040015161200d565b6060820151156119df576119df8584846060015161200d565b8151156119f5576119f58685846000015161200d565b602082015115611a0e57611a0e8684846020015161200d565b611a1885856104ab565b158015611a2c5750611a2a85846104ab565b155b15611a6c576000848152600c602090815260408083206001600160a01b03891684528252808320805460ff19169055600a82528083208784529091528120555b611a7686856104ab565b158015611a8a5750611a8886846104ab565b155b156107c2576000848152600c602090815260408083206001600160a01b038a1684528252808320805460ff19169055600a8252808320878452909152812055505050505050565b6001600160a01b038216611afa5760405162ced3e160e81b815260006004820152602401610537565b6001600160a01b03838116600081815260016020908152604080832094871680845294825291829020805460ff191686151590811790915591519182527f17307eab39ab6107e8899845ad3d59bd9653f200f220920489ca2b5937696c31910160405180910390a3505050565b600080611b75600185612bc0565b90506000611b84600185612bc0565b90506000611b93600684612be2565b905060006006611ba38186612c03565b611bad9190612be2565b90506000611bbc602486612c03565b90506000611bcb600686612be2565b905060006006611bdb8188612c03565b611be59190612be2565b90506000611bf4602488612c03565b90508060010b8460010b13611c1257611c0d8482612c24565b611c1c565b611c1c8185612c24565b8260010b8660010b13611c3857611c338684612c24565b611c42565b611c428387612c24565b8460010b8860010b13611c5e57611c598886612c24565b611c68565b611c688589612c24565b611c729190612c47565b611c7c9190612c47565b61ffff166001149850505050505050505092915050565b611c9e33848361200d565b600060d88411611cae5783611cb9565b611cb960d885612b94565b9050600060d88411611ccb5783611cd6565b611cd660d885612b94565b336000818152600a602090815260408083208784529091528120819055919250611d0090846104ab565b1180611d1a57506000611d18336102028560d8612b18565b115b6000838152600c6020908152604080832033808552908352818420805460ff19169515159590951790945580519182019052908152611d5d919086908690611e77565b336000818152600a602090815260408083208584528252808320439055600c8252808320938352929052205460ff16611646576000818152600b602090815260408083208054600181810183559185528385200180546001600160a01b03191633908117909155858552600c8452828520908552909252909120805460ff191690911790555050505050565b6001600160a01b038416611e1357604051632bfa23e760e11b815260006004820152602401610537565b6001600160a01b038516611e3c57604051626a0d4560e21b815260006004820152602401610537565b60408051600180825260208201869052818301908152606082018590526080820190925290611e6e8787848487611ed0565b50505050505050565b6001600160a01b038416611ea157604051632bfa23e760e11b815260006004820152602401610537565b604080516001808252602082018690528183019081526060820185905260808201909252906107c26000878484875b611edc85858585612075565b6001600160a01b038416156116465782513390600103611f155760208481015190840151611f0e838989858589612289565b50506107c2565b6107c28187878787876123ad565b80156106cb578060086000828254611f3b9190612b18565b909155505060405163a9059cbb60e01b81526001600160a01b038381166004830152602482018390527f0000000000000000000000000000000000000000000000000000000000000000169063a9059cbb906044016020604051808303816000875af1158015611faf573d6000803e3d6000fd5b505050506040513d601f19601f82011682018060405250810190611fd39190612ad1565b6106cb5760405162461bcd60e51b815260206004820152600b60248201526a14185e5bdd5d0819985a5b60aa1b6044820152606401610537565b6001600160a01b03831661203657604051626a0d4560e21b815260006004820152602401610537565b604080516001808252602082018590528183019081526060820184905260a0820190925260006080820181815291929161164691879185908590611ed0565b80518251146120a45781518151604051635b05999160e01b815260048101929092526024820152604401610537565b3360005b83518110156121aa576020818102858101820151908501909101516001600160a01b0388161561215b576000828152602081815260408083206001600160a01b038c16845290915290205481811015612134576040516303dee4c560e01b81526001600160a01b038a166004820152602481018290526044810183905260648101849052608401610537565b6000838152602081815260408083206001600160a01b038d16845290915290209082900390555b6001600160a01b038716156121a0576000828152602081815260408083206001600160a01b038b1684529091528120805483929061219a908490612b18565b90915550505b50506001016120a8565b50825160010361222b5760208301516000906020840151909150856001600160a01b0316876001600160a01b0316846001600160a01b03167fc3d58168c5ae7397731d063d5bbf3d657854427343f4c083240f7aacaa2d0f62858560405161221c929190918252602082015260400190565b60405180910390a45050611646565b836001600160a01b0316856001600160a01b0316826001600160a01b03167f4a39dc06d4c0dbc64b70af90fd698a233a518aa5d07e595d983b8c0526c8f7fb868660405161227a929190612c6a565b60405180910390a45050505050565b6001600160a01b0384163b156107c25760405163f23a6e6160e01b81526001600160a01b0385169063f23a6e61906122cd9089908990889088908890600401612c98565b6020604051808303816000875af1925050508015612308575060408051601f3d908101601f1916820190925261230591810190612cdd565b60015b612371573d808015612336576040519150601f19603f3d011682016040523d82523d6000602084013e61233b565b606091505b50805160000361236957604051632bfa23e760e11b81526001600160a01b0386166004820152602401610537565b805160208201fd5b6001600160e01b0319811663f23a6e6160e01b14611e6e57604051632bfa23e760e11b81526001600160a01b0386166004820152602401610537565b6001600160a01b0384163b156107c25760405163bc197c8160e01b81526001600160a01b0385169063bc197c81906123f19089908990889088908890600401612cfa565b6020604051808303816000875af192505050801561242c575060408051601f3d908101601f1916820190925261242991810190612cdd565b60015b61245a573d808015612336576040519150601f19603f3d011682016040523d82523d6000602084013e61233b565b6001600160e01b0319811663bc197c8160e01b14611e6e57604051632bfa23e760e11b81526001600160a01b0386166004820152602401610537565b80356001600160a01b03811681146124ad57600080fd5b919050565b600080604083850312156124c557600080fd5b6124ce83612496565b946020939093013593505050565b6001600160e01b03198116811461147257600080fd5b60006020828403121561250457600080fd5b813561250f816124dc565b9392505050565b803561ffff811681146124ad57600080fd5b6000806040838503121561253b57600080fd5b6124ce83612516565b60006020828403121561255657600080fd5b5035919050565b6000815180845260005b8181101561258357602081850181015186830182015201612567565b506000602082860101526020601f19601f83011685010191505092915050565b60208152600061250f602083018461255d565b634e487b7160e01b600052604160045260246000fd5b604051601f8201601f1916810167ffffffffffffffff811182821017156125f5576125f56125b6565b604052919050565b600067ffffffffffffffff821115612617576126176125b6565b5060051b60200190565b600082601f83011261263257600080fd5b81356020612647612642836125fd565b6125cc565b8083825260208201915060208460051b87010193508684111561266957600080fd5b602086015b84811015612685578035835291830191830161266e565b509695505050505050565b600082601f8301126126a157600080fd5b813567ffffffffffffffff8111156126bb576126bb6125b6565b6126ce601f8201601f19166020016125cc565b8181528460208386010111156126e357600080fd5b816020850160208301376000918101602001919091529392505050565b600080600080600060a0868803121561271857600080fd5b61272186612496565b945061272f60208701612496565b9350604086013567ffffffffffffffff8082111561274c57600080fd5b61275889838a01612621565b9450606088013591508082111561276e57600080fd5b61277a89838a01612621565b9350608088013591508082111561279057600080fd5b5061279d88828901612690565b9150509295509295909350565b600080604083850312156127bd57600080fd5b823567ffffffffffffffff808211156127d557600080fd5b818501915085601f8301126127e957600080fd5b813560206127f9612642836125fd565b82815260059290921b8401810191818101908984111561281857600080fd5b948201945b8386101561283d5761282e86612496565b8252948201949082019061281d565b9650508601359250508082111561285357600080fd5b5061286085828601612621565b9150509250929050565b60008151808452602080850194506020840160005b8381101561289b5781518752958201959082019060010161287f565b509495945050505050565b60208152600061250f602083018461286a565b600080600080608085870312156128cf57600080fd5b6128d885612496565b93506128e660208601612516565b93969395505050506040820135916060013590565b801515811461147257600080fd5b6000806040838503121561291c57600080fd5b61292583612496565b91506020830135612935816128fb565b809150509250929050565b60006020828403121561295257600080fd5b61250f82612496565b6000806000806080858703121561297157600080fd5b6128d885612516565b6000806040838503121561298d57600080fd5b61299683612496565b91506129a460208401612496565b90509250929050565b6000602082840312156129bf57600080fd5b61250f82612516565b602080825282518282018190526000919060409081850190868401855b82811015612a3257815180516001600160a01b0316855286810151878601528581015186860152606080820151908601526080908101519085015260a090930192908501906001016129e5565b5091979650505050505050565b600080600080600060a08688031215612a5757600080fd5b612a6086612496565b9450612a6e60208701612496565b93506040860135925060608601359150608086013567ffffffffffffffff811115612a9857600080fd5b61279d88828901612690565b634e487b7160e01b600052601160045260246000fd5b80820281158282048414176104cd576104cd612aa4565b600060208284031215612ae357600080fd5b815161250f816128fb565b634e487b7160e01b600052601260045260246000fd5b600082612b1357612b13612aee565b500490565b808201808211156104cd576104cd612aa4565b600181811c90821680612b3f57607f821691505b602082108103612b5f57634e487b7160e01b600052602260045260246000fd5b50919050565b634e487b7160e01b600052603260045260246000fd5b600060208284031215612b8d57600080fd5b5051919050565b818103818111156104cd576104cd612aa4565b600060018201612bb957612bb9612aa4565b5060010190565b61ffff828116828216039080821115612bdb57612bdb612aa4565b5092915050565b600061ffff80841680612bf757612bf7612aee565b92169190910692915050565b600061ffff80841680612c1857612c18612aee565b92169190910492915050565b600182810b9082900b03617fff198112617fff821317156104cd576104cd612aa4565b600181810b9083900b01617fff8113617fff19821217156104cd576104cd612aa4565b604081526000612c7d604083018561286a565b8281036020840152612c8f818561286a565b95945050505050565b6001600160a01b03868116825285166020820152604081018490526060810183905260a060808201819052600090612cd29083018461255d565b979650505050505050565b600060208284031215612cef57600080fd5b815161250f816124dc565b6001600160a01b0386811682528516602082015260a060408201819052600090612d269083018661286a565b8281036060840152612d38818661286a565b90508281036080840152612d4c818561255d565b9897505050505050505056fea2646970667358221220e98c76399b944afaa1da1cacf5a27e4271b1bd5908d6a8979c4d9a86192ebae264736f6c6343000818003368747470733a2f2f6170692e6b696c6c67616d652e61692f6d657461646174612f7b69647d2e6a736f6e",
  "linkReferences": {},
  "deployedLinkReferences": {}
}