{
  "_format": "hh-sol-artifact-1",
  "contractName": "KILLGame",
  "sourceName": "contracts/KillGame.sol",
  "abi": [
    {
      "inputs": [
        {
          "internalType": "address",
          "name": "_tokenAddress",
          "type": "address"
        }
      ],
      "stateMutability": "nonpayable",
      "type": "constructor"
    },
    {
      "inputs": [
        {
          "internalType": "address",
          "name": "target",
          "type": "address"
        }
      ],
      "name": "AddressEmptyCode",
      "type": "error"
    },
    {
      "inputs": [
        {
          "internalType": "address",
          "name": "sender",
          "type": "address"
        },
        {
          "internalType": "uint256",
          "name": "balance",
          "type": "uint256"
        },
        {
          "internalType": "uint256",
          "name": "needed",
          "type": "uint256"
        },
        {
          "internalType": "uint256",
          "name": "tokenId",
          "type": "uint256"
        }
      ],
      "name": "ERC1155InsufficientBalance",
      "type": "error"
    },
    {
      "inputs": [
        {
          "internalType": "address",
          "name": "approver",
          "type": "address"
        }
      ],
      "name": "ERC1155InvalidApprover",
      "type": "error"
    },
    {
      "inputs": [
        {
          "internalType": "uint256",
          "name": "idsLength",
          "type": "uint256"
        },
        {
          "internalType": "uint256",
          "name": "valuesLength",
          "type": "uint256"
        }
      ],
      "name": "ERC1155InvalidArrayLength",
      "type": "error"
    },
    {
      "inputs": [
        {
          "internalType": "address",
          "name": "operator",
          "type": "address"
        }
      ],
      "name": "ERC1155InvalidOperator",
      "type": "error"
    },
    {
      "inputs": [
        {
          "internalType": "address",
          "name": "receiver",
          "type": "address"
        }
      ],
      "name": "ERC1155InvalidReceiver",
      "type": "error"
    },
    {
      "inputs": [
        {
          "internalType": "address",
          "name": "sender",
          "type": "address"
        }
      ],
      "name": "ERC1155InvalidSender",
      "type": "error"
    },
    {
      "inputs": [
        {
          "internalType": "address",
          "name": "operator",
          "type": "address"
        },
        {
          "internalType": "address",
          "name": "owner",
          "type": "address"
        }
      ],
      "name": "ERC1155MissingApprovalForAll",
      "type": "error"
    },
    {
      "inputs": [],
      "name": "FailedCall",
      "type": "error"
    },
    {
      "inputs": [
        {
          "internalType": "address",
          "name": "owner",
          "type": "address"
        }
      ],
      "name": "OwnableInvalidOwner",
      "type": "error"
    },
    {
      "inputs": [
        {
          "internalType": "address",
          "name": "account",
          "type": "address"
        }
      ],
      "name": "OwnableUnauthorizedAccount",
      "type": "error"
    },
    {
      "inputs": [],
      "name": "ReentrancyGuardReentrantCall",
      "type": "error"
    },
    {
      "anonymous": false,
      "inputs": [
        {
          "indexed": true,
          "internalType": "address",
          "name": "account",
          "type": "address"
        },
        {
          "indexed": true,
          "internalType": "address",
          "name": "operator",
          "type": "address"
        },
        {
          "indexed": false,
          "internalType": "bool",
          "name": "approved",
          "type": "bool"
        }
      ],
      "name": "ApprovalForAll",
      "type": "event"
    },
    {
      "anonymous": false,
      "inputs": [
        {
          "indexed": true,
          "internalType": "address",
          "name": "defender",
          "type": "address"
        },
        {
          "indexed": false,
          "internalType": "uint256",
          "name": "amount",
          "type": "uint256"
        }
      ],
      "name": "DefenderRewarded",
      "type": "event"
    },
    {
      "anonymous": false,
      "inputs": [
        {
          "indexed": false,
          "internalType": "uint256",
          "name": "totalUnitsKilled",
          "type": "uint256"
        },
        {
          "indexed": false,
          "internalType": "uint256",
          "name": "totalReaperKilled",
          "type": "uint256"
        },
        {
          "indexed": false,
          "internalType": "uint256",
          "name": "killAdded",
          "type": "uint256"
        },
        {
          "indexed": false,
          "internalType": "uint256",
          "name": "killExtracted",
          "type": "uint256"
        },
        {
          "indexed": false,
          "internalType": "uint256",
          "name": "killBurned",
          "type": "uint256"
        }
      ],
      "name": "GlobalStats",
      "type": "event"
    },
    {
      "anonymous": false,
      "inputs": [
        {
          "indexed": true,
          "internalType": "address",
          "name": "attacker",
          "type": "address"
        },
        {
          "indexed": true,
          "internalType": "address",
          "name": "target",
          "type": "address"
        },
        {
          "indexed": true,
          "internalType": "uint16",
          "name": "stackId",
          "type": "uint16"
        },
        {
          "components": [
            {
              "internalType": "uint256",
              "name": "attackerUnitsSent",
              "type": "uint256"
            },
            {
              "internalType": "uint256",
              "name": "attackerReaperSent",
              "type": "uint256"
            },
            {
              "internalType": "uint256",
              "name": "attackerUnitsLost",
              "type": "uint256"
            },
            {
              "internalType": "uint256",
              "name": "attackerReaperLost",
              "type": "uint256"
            },
            {
              "internalType": "uint256",
              "name": "targetUnitsLost",
              "type": "uint256"
            },
            {
              "internalType": "uint256",
              "name": "targetReaperLost",
              "type": "uint256"
            },
            {
              "internalType": "uint256",
              "name": "initialDefenderUnits",
              "type": "uint256"
            },
            {
              "internalType": "uint256",
              "name": "initialDefenderReaper",
              "type": "uint256"
            },
            {
              "internalType": "uint256",
              "name": "attackerBounty",
              "type": "uint256"
            },
            {
              "internalType": "uint256",
              "name": "defenderBounty",
              "type": "uint256"
            }
          ],
          "indexed": false,
          "internalType": "struct KILLGame.BattleSummary",
          "name": "summary",
          "type": "tuple"
        },
        {
          "indexed": false,
          "internalType": "uint256",
          "name": "targetBirthBlock",
          "type": "uint256"
        }
      ],
      "name": "Killed",
      "type": "event"
    },
    {
      "anonymous": false,
      "inputs": [
        {
          "indexed": true,
          "internalType": "address",
          "name": "agent",
          "type": "address"
        },
        {
          "indexed": false,
          "internalType": "uint16",
          "name": "fromStack",
          "type": "uint16"
        },
        {
          "indexed": false,
          "internalType": "uint16",
          "name": "toStack",
          "type": "uint16"
        },
        {
          "indexed": false,
          "internalType": "uint256",
          "name": "units",
          "type": "uint256"
        },
        {
          "indexed": false,
          "internalType": "uint256",
          "name": "reaper",
          "type": "uint256"
        },
        {
          "indexed": false,
          "internalType": "uint256",
          "name": "birthBlock",
          "type": "uint256"
        }
      ],
      "name": "Moved",
      "type": "event"
    },
    {
      "anonymous": false,
      "inputs": [
        {
          "indexed": true,
          "internalType": "address",
          "name": "previousOwner",
          "type": "address"
        },
        {
          "indexed": true,
          "internalType": "address",
          "name": "newOwner",
          "type": "address"
        }
      ],
      "name": "OwnershipTransferred",
      "type": "event"
    },
    {
      "anonymous": false,
      "inputs": [
        {
          "indexed": true,
          "internalType": "address",
          "name": "agent",
          "type": "address"
        },
        {
          "indexed": true,
          "internalType": "uint256",
          "name": "stackId",
          "type": "uint256"
        },
        {
          "indexed": false,
          "internalType": "uint256",
          "name": "units",
          "type": "uint256"
        },
        {
          "indexed": false,
          "internalType": "uint256",
          "name": "reapers",
          "type": "uint256"
        },
        {
          "indexed": false,
          "internalType": "uint256",
          "name": "birthBlock",
          "type": "uint256"
        }
      ],
      "name": "Spawned",
      "type": "event"
    },
    {
      "anonymous": false,
      "inputs": [
        {
          "indexed": true,
          "internalType": "address",
          "name": "operator",
          "type": "address"
        },
        {
          "indexed": true,
          "internalType": "address",
          "name": "from",
          "type": "address"
        },
        {
          "indexed": true,
          "internalType": "address",
          "name": "to",
          "type": "address"
        },
        {
          "indexed": false,
          "internalType": "uint256[]",
          "name": "ids",
          "type": "uint256[]"
        },
        {
          "indexed": false,
          "internalType": "uint256[]",
          "name": "values",
          "type": "uint256[]"
        }
      ],
      "name": "TransferBatch",
      "type": "event"
    },
    {
      "anonymous": false,
      "inputs": [
        {
          "indexed": true,
          "internalType": "address",
          "name": "operator",
          "type": "address"
        },
        {
          "indexed": true,
          "internalType": "address",
          "name": "from",
          "type": "address"
        },
        {
          "indexed": true,
          "internalType": "address",
          "name": "to",
          "type": "address"
        },
        {
          "indexed": false,
          "internalType": "uint256",
          "name": "id",
          "type": "uint256"
        },
        {
          "indexed": false,
          "internalType": "uint256",
          "name": "value",
          "type": "uint256"
        }
      ],
      "name": "TransferSingle",
      "type": "event"
    },
    {
      "anonymous": false,
      "inputs": [
        {
          "indexed": false,
          "internalType": "uint256",
          "name": "oldBps",
          "type": "uint256"
        },
        {
          "indexed": false,
          "internalType": "uint256",
          "name": "newBps",
          "type": "uint256"
        }
      ],
      "name": "TreasuryBpsUpdated",
      "type": "event"
    },
    {
      "anonymous": false,
      "inputs": [
        {
          "indexed": false,
          "internalType": "string",
          "name": "value",
          "type": "string"
        },
        {
          "indexed": true,
          "internalType": "uint256",
          "name": "id",
          "type": "uint256"
        }
      ],
      "name": "URI",
      "type": "event"
    },
    {
      "inputs": [],
      "name": "BLOCKS_PER_MULTIPLIER",
      "outputs": [
        {
          "internalType": "uint256",
          "name": "",
          "type": "uint256"
        }
      ],
      "stateMutability": "view",
      "type": "function"
    },
    {
      "inputs": [],
      "name": "BURN_BPS",
      "outputs": [
        {
          "internalType": "uint256",
          "name": "",
          "type": "uint256"
        }
      ],
      "stateMutability": "view",
      "type": "function"
    },
    {
      "inputs": [],
      "name": "GLOBAL_CAP_BPS",
      "outputs": [
        {
          "internalType": "uint256",
          "name": "",
          "type": "uint256"
        }
      ],
      "stateMutability": "view",
      "type": "function"
    },
    {
      "inputs": [],
      "name": "MAX_MULTIPLIER",
      "outputs": [
        {
          "internalType": "uint256",
          "name": "",
          "type": "uint256"
        }
      ],
      "stateMutability": "view",
      "type": "function"
    },
    {
      "inputs": [],
      "name": "MOVE_COST",
      "outputs": [
        {
          "internalType": "uint256",
          "name": "",
          "type": "uint256"
        }
      ],
      "stateMutability": "view",
      "type": "function"
    },
    {
      "inputs": [],
      "name": "SPAWN_COST_PER_POWER",
      "outputs": [
        {
          "internalType": "uint256",
          "name": "",
          "type": "uint256"
        }
      ],
      "stateMutability": "view",
      "type": "function"
    },
    {
      "inputs": [],
      "name": "THERMAL_PARITY",
      "outputs": [
        {
          "internalType": "uint256",
          "name": "",
          "type": "uint256"
        }
      ],
      "stateMutability": "view",
      "type": "function"
    },
    {
      "inputs": [
        {
          "internalType": "uint256",
          "name": "amt",
          "type": "uint256"
        }
      ],
      "name": "adminWithdraw",
      "outputs": [],
      "stateMutability": "nonpayable",
      "type": "function"
    },
    {
      "inputs": [
        {
          "internalType": "address",
          "name": "",
          "type": "address"
        },
        {
          "internalType": "uint256",
          "name": "",
          "type": "uint256"
        }
      ],
      "name": "agentStacks",
      "outputs": [
        {
          "internalType": "uint256",
          "name": "birthBlock",
          "type": "uint256"
        }
      ],
      "stateMutability": "view",
      "type": "function"
    },
    {
      "inputs": [
        {
          "internalType": "address",
          "name": "",
          "type": "address"
        }
      ],
      "name": "agentTotalProfit",
      "outputs": [
        {
          "internalType": "uint256",
          "name": "",
          "type": "uint256"
        }
      ],
      "stateMutability": "view",
      "type": "function"
    },
    {
      "inputs": [
        {
          "internalType": "address",
          "name": "account",
          "type": "address"
        },
        {
          "internalType": "uint256",
          "name": "id",
          "type": "uint256"
        }
      ],
      "name": "balanceOf",
      "outputs": [
        {
          "internalType": "uint256",
          "name": "",
          "type": "uint256"
        }
      ],
      "stateMutability": "view",
      "type": "function"
    },
    {
      "inputs": [
        {
          "internalType": "address[]",
          "name": "accounts",
          "type": "address[]"
        },
        {
          "internalType": "uint256[]",
          "name": "ids",
          "type": "uint256[]"
        }
      ],
      "name": "balanceOfBatch",
      "outputs": [
        {
          "internalType": "uint256[]",
          "name": "",
          "type": "uint256[]"
        }
      ],
      "stateMutability": "view",
      "type": "function"
    },
    {
      "inputs": [
        {
          "internalType": "address",
          "name": "agent",
          "type": "address"
        },
        {
          "internalType": "uint256",
          "name": "id",
          "type": "uint256"
        }
      ],
      "name": "getBirthBlock",
      "outputs": [
        {
          "internalType": "uint256",
          "name": "",
          "type": "uint256"
        }
      ],
      "stateMutability": "view",
      "type": "function"
    },
    {
      "inputs": [
        {
          "internalType": "uint16",
          "name": "stackId",
          "type": "uint16"
        }
      ],
      "name": "getFullStack",
      "outputs": [
        {
          "components": [
            {
              "internalType": "address",
              "name": "occupant",
              "type": "address"
            },
            {
              "internalType": "uint256",
              "name": "units",
              "type": "uint256"
            },
            {
              "internalType": "uint256",
              "name": "reapers",
              "type": "uint256"
            },
            {
              "internalType": "uint256",
              "name": "age",
              "type": "uint256"
            },
            {
              "internalType": "uint256",
              "name": "pendingBounty",
              "type": "uint256"
            }
          ],
          "internalType": "struct KILLGame.StackInfo[]",
          "name": "",
          "type": "tuple[]"
        }
      ],
      "stateMutability": "view",
      "type": "function"
    },
    {
      "inputs": [
        {
          "internalType": "address",
          "name": "agent",
          "type": "address"
        },
        {
          "internalType": "uint256",
          "name": "id",
          "type": "uint256"
        }
      ],
      "name": "getPendingBounty",
      "outputs": [
        {
          "internalType": "uint256",
          "name": "",
          "type": "uint256"
        }
      ],
      "stateMutability": "view",
      "type": "function"
    },
    {
      "inputs": [
        {
          "internalType": "address",
          "name": "account",
          "type": "address"
        },
        {
          "internalType": "address",
          "name": "operator",
          "type": "address"
        }
      ],
      "name": "isApprovedForAll",
      "outputs": [
        {
          "internalType": "bool",
          "name": "",
          "type": "bool"
        }
      ],
      "stateMutability": "view",
      "type": "function"
    },
    {
      "inputs": [
        {
          "internalType": "address",
          "name": "target",
          "type": "address"
        },
        {
          "internalType": "uint16",
          "name": "stackId",
          "type": "uint16"
        },
        {
          "internalType": "uint256",
          "name": "sentUnits",
          "type": "uint256"
        },
        {
          "internalType": "uint256",
          "name": "sentReaper",
          "type": "uint256"
        }
      ],
      "name": "kill",
      "outputs": [
        {
          "internalType": "uint256",
          "name": "attackerBounty",
          "type": "uint256"
        }
      ],
      "stateMutability": "nonpayable",
      "type": "function"
    },
    {
      "inputs": [],
      "name": "killToken",
      "outputs": [
        {
          "internalType": "contract IERC20",
          "name": "",
          "type": "address"
        }
      ],
      "stateMutability": "view",
      "type": "function"
    },
    {
      "inputs": [
        {
          "internalType": "uint16",
          "name": "fromStack",
          "type": "uint16"
        },
        {
          "internalType": "uint16",
          "name": "toStack",
          "type": "uint16"
        },
        {
          "internalType": "uint256",
          "name": "units",
          "type": "uint256"
        },
        {
          "internalType": "uint256",
          "name": "reaper",
          "type": "uint256"
        }
      ],
      "name": "move",
      "outputs": [],
      "stateMutability": "nonpayable",
      "type": "function"
    },
    {
      "inputs": [
        {
          "internalType": "bytes[]",
          "name": "data",
          "type": "bytes[]"
        }
      ],
      "name": "multicall",
      "outputs": [
        {
          "internalType": "bytes[]",
          "name": "results",
          "type": "bytes[]"
        }
      ],
      "stateMutability": "nonpayable",
      "type": "function"
    },
    {
      "inputs": [],
      "name": "owner",
      "outputs": [
        {
          "internalType": "address",
          "name": "",
          "type": "address"
        }
      ],
      "stateMutability": "view",
      "type": "function"
    },
    {
      "inputs": [],
      "name": "renounceOwnership",
      "outputs": [],
      "stateMutability": "nonpayable",
      "type": "function"
    },
    {
      "inputs": [
        {
          "internalType": "address",
          "name": "from",
          "type": "address"
        },
        {
          "internalType": "address",
          "name": "to",
          "type": "address"
        },
        {
          "internalType": "uint256[]",
          "name": "ids",
          "type": "uint256[]"
        },
        {
          "internalType": "uint256[]",
          "name": "values",
          "type": "uint256[]"
        },
        {
          "internalType": "bytes",
          "name": "data",
          "type": "bytes"
        }
      ],
      "name": "safeBatchTransferFrom",
      "outputs": [],
      "stateMutability": "nonpayable",
      "type": "function"
    },
    {
      "inputs": [
        {
          "internalType": "address",
          "name": "from",
          "type": "address"
        },
        {
          "internalType": "address",
          "name": "to",
          "type": "address"
        },
        {
          "internalType": "uint256",
          "name": "id",
          "type": "uint256"
        },
        {
          "internalType": "uint256",
          "name": "value",
          "type": "uint256"
        },
        {
          "internalType": "bytes",
          "name": "data",
          "type": "bytes"
        }
      ],
      "name": "safeTransferFrom",
      "outputs": [],
      "stateMutability": "nonpayable",
      "type": "function"
    },
    {
      "inputs": [
        {
          "internalType": "address",
          "name": "operator",
          "type": "address"
        },
        {
          "internalType": "bool",
          "name": "approved",
          "type": "bool"
        }
      ],
      "name": "setApprovalForAll",
      "outputs": [],
      "stateMutability": "nonpayable",
      "type": "function"
    },
    {
      "inputs": [
        {
          "internalType": "uint256",
          "name": "_newBps",
          "type": "uint256"
        }
      ],
      "name": "setTreasuryBps",
      "outputs": [],
      "stateMutability": "nonpayable",
      "type": "function"
    },
    {
      "inputs": [
        {
          "internalType": "uint16",
          "name": "stackId",
          "type": "uint16"
        },
        {
          "internalType": "uint256",
          "name": "amount",
          "type": "uint256"
        }
      ],
      "name": "spawn",
      "outputs": [],
      "stateMutability": "nonpayable",
      "type": "function"
    },
    {
      "inputs": [
        {
          "internalType": "bytes4",
          "name": "id",
          "type": "bytes4"
        }
      ],
      "name": "supportsInterface",
      "outputs": [
        {
          "internalType": "bool",
          "name": "",
          "type": "bool"
        }
      ],
      "stateMutability": "view",
      "type": "function"
    },
    {
      "inputs": [],
      "name": "totalKillAdded",
      "outputs": [
        {
          "internalType": "uint256",
          "name": "",
          "type": "uint256"
        }
      ],
      "stateMutability": "view",
      "type": "function"
    },
    {
      "inputs": [],
      "name": "totalKillBurned",
      "outputs": [
        {
          "internalType": "uint256",
          "name": "",
          "type": "uint256"
        }
      ],
      "stateMutability": "view",
      "type": "function"
    },
    {
      "inputs": [],
      "name": "totalKillExtracted",
      "outputs": [
        {
          "internalType": "uint256",
          "name": "",
          "type": "uint256"
        }
      ],
      "stateMutability": "view",
      "type": "function"
    },
    {
      "inputs": [],
      "name": "totalReaperKilled",
      "outputs": [
        {
          "internalType": "uint256",
          "name": "",
          "type": "uint256"
        }
      ],
      "stateMutability": "view",
      "type": "function"
    },
    {
      "inputs": [],
      "name": "totalUnitsKilled",
      "outputs": [
        {
          "internalType": "uint256",
          "name": "",
          "type": "uint256"
        }
      ],
      "stateMutability": "view",
      "type": "function"
    },
    {
      "inputs": [
        {
          "internalType": "address",
          "name": "newOwner",
          "type": "address"
        }
      ],
      "name": "transferOwnership",
      "outputs": [],
      "stateMutability": "nonpayable",
      "type": "function"
    },
    {
      "inputs": [],
      "name": "treasuryBps",
      "outputs": [
        {
          "internalType": "uint256",
          "name": "",
          "type": "uint256"
        }
      ],
      "stateMutability": "view",
      "type": "function"
    },
    {
      "inputs": [
        {
          "internalType": "uint256",
          "name": "",
          "type": "uint256"
        }
      ],
      "name": "uri",
      "outputs": [
        {
          "internalType": "string",
          "name": "",
          "type": "string"
        }
      ],
      "stateMutability": "view",
      "type": "function"
    }
  ],
  "bytecode": "0x60a060405260006005553480156200001657600080fd5b506040516200346638038062003466833981016040819052620000399162000116565b336040518060600160405280602a81526020016200343c602a91396200005f81620000b2565b5060016003556001600160a01b0381166200009457604051631e4fbdf760e01b81526000600482015260240160405180910390fd5b6200009f81620000c4565b506001600160a01b0316608052620002bb565b6002620000c08282620001ef565b5050565b600480546001600160a01b038381166001600160a01b0319831681179093556040519116919082907f8be0079c531659141344cd1fd0a4f28419497f9722a3daafe3b4186f6b6457e090600090a35050565b6000602082840312156200012957600080fd5b81516001600160a01b03811681146200014157600080fd5b9392505050565b634e487b7160e01b600052604160045260246000fd5b600181811c908216806200017357607f821691505b6020821081036200019457634e487b7160e01b600052602260045260246000fd5b50919050565b601f821115620001ea576000816000526020600020601f850160051c81016020861015620001c55750805b601f850160051c820191505b81811015620001e657828155600101620001d1565b5050505b505050565b81516001600160401b038111156200020b576200020b62000148565b62000223816200021c84546200015e565b846200019a565b602080601f8311600181146200025b5760008415620002425750858301515b600019600386901b1c1916600185901b178555620001e6565b600085815260208120601f198616915b828110156200028c578886015182559484019460019091019084016200026b565b5085821015620002ab5787850151600019600388901b60f8161c191681555b5050505050600190811b01905550565b608051613142620002fa600039600081816102a3015281816105f50152818161093701528181610e88015281816110b2015261212f01526131426000f3fe608060405234801561001057600080fd5b506004361061021b5760003560e01c80637c5b4a3711610125578063bb6eb359116100ad578063ea075ee11161007c578063ea075ee114610479578063edbd5df81461048c578063ef0a1311146104b7578063f242432a146104d7578063f2fde38b146104ea57600080fd5b8063bb6eb35914610420578063c68e807514610433578063e74fe23714610453578063e985e9c51461046657600080fd5b806394456848116100f45780639445684814610368578063a22cb465146103b7578063a37a9fc01461032b578063ac9650d8146103ca578063b8011328146103ea57600080fd5b80637c5b4a371461037757806388b00adc1461038a5780638da5cb5b1461039357806391fa2a6a146103a457600080fd5b80634e1273f4116101a857806366d8153f1161017757806366d8153f146103455780636ba375151461034e578063715018a614610357578063781298821461035f57806379a9ed591461036857600080fd5b80634e1273f41461030b578063523c686a1461032b5780635635fdbc146103345780635d6a618d1461033d57600080fd5b80632bd7cd17116101ef5780632bd7cd171461029e5780632eb2c2d6146102dd5780632ee8174e146102f05780633e984e48146102f95780634dc10ea11461030257600080fd5b8062fdd58e1461022057806301ffc9a71461024657806309f61826146102695780630e89341c1461027e575b600080fd5b61023361022e366004612702565b6104fd565b6040519081526020015b60405180910390f35b610259610254366004612742565b610525565b604051901515815260200161023d565b61027c610277366004612771565b610530565b005b61029161028c36600461278d565b610737565b60405161023d91906127f6565b6102c57f000000000000000000000000000000000000000000000000000000000000000081565b6040516001600160a01b03909116815260200161023d565b61027c6102eb366004612953565b6107cb565b61023360075481565b6102336109c481565b61023360055481565b61031e6103193660046129fd565b610832565b60405161023d9190612af9565b61023361029a81565b61023360095481565b610233601481565b61023360085481565b61023361043881565b61027c6108ff565b61023360065481565b610233678ac7230489e8000081565b61027c61038536600461278d565b610913565b610233600a5481565b6004546001600160a01b03166102c5565b6102336103b2366004612b0c565b6109ac565b61027c6103c5366004612b5c565b610c58565b6103dd6103d8366004612b93565b610c63565b60405161023d9190612c08565b6102336103f8366004612702565b6001600160a01b03919091166000908152600b60209081526040808320938352929052205490565b61027c61042e36600461278d565b610d4b565b610233610441366004612c6c565b600e6020526000908152604090205481565b61027c610461366004612c87565b610dd5565b610259610474366004612ca6565b610ff7565b610233610487366004612702565b611025565b61023361049a366004612702565b600b60209081526000928352604080842090915290825290205481565b6104ca6104c5366004612cd9565b6111d9565b60405161023d9190612cf4565b61027c6104e5366004612d6b565b61146c565b61027c6104f8366004612c6c565b6114cb565b6000818152602081815260408083206001600160a01b03861684529091529020545b92915050565b600061051f82611509565b610538611559565b60008261ffff16118015610551575060d88261ffff1611155b6105925760405162461bcd60e51b815260206004820152600d60248201526c496e76616c696420537461636b60981b60448201526064015b60405180910390fd5b60006105a061029a83612dfc565b905060006105b08261029a612e10565b6105ba9084612e27565b905060006105d0678ac7230489e8000083612e10565b6040516323b872dd60e01b8152336004820152306024820152604481018290529091507f00000000000000000000000000000000000000000000000000000000000000006001600160a01b0316906323b872dd906064016020604051808303816000875af1158015610646573d6000803e3d6000fd5b505050506040513d601f19601f8201168201806040525081019061066a9190612e3a565b6106a15760405162461bcd60e51b815260206004820152600860248201526714185e4819985a5b60c21b6044820152606401610589565b60088054820190556106b83361ffff871686611583565b82156106d7576106d7336106d161ffff881660d8612e27565b85611583565b60408051858152602081018590524381830152905161ffff87169133917faf4ea7c0f51d4c33144122655ecd0051aa44b546b9daa750ab0d9144f3ed637e9181900360600190a361072661167a565b5050506107336001600355565b5050565b60606002805461074690612e57565b80601f016020809104026020016040519081016040528092919081815260200182805461077290612e57565b80156107bf5780601f10610794576101008083540402835291602001916107bf565b820191906000526020600020905b8154815290600101906020018083116107a257829003601f168201915b50505050509050919050565b336001600160a01b03861681148015906107ec57506107ea8682610ff7565b155b1561081d5760405163711bec9160e11b81526001600160a01b03808316600483015287166024820152604401610589565b61082a86868686866116d6565b505050505050565b606081518351146108635781518351604051635b05999160e01b815260048101929092526024820152604401610589565b6000835167ffffffffffffffff81111561087f5761087f612809565b6040519080825280602002602001820160405280156108a8578160200160208202803683370190505b50905060005b84518110156108f7576020808202860101516108d2906020808402870101516104fd565b8282815181106108e4576108e4612e91565b60209081029190910101526001016108ae565b509392505050565b61090761173d565b610911600061176a565b565b61091b61173d565b60405163a9059cbb60e01b8152336004820152602481018290527f00000000000000000000000000000000000000000000000000000000000000006001600160a01b03169063a9059cbb906044016020604051808303816000875af1158015610988573d6000803e3d6000fd5b505050506040513d601f19601f820116820180604052508101906107339190612e3a565b60006109b6611559565b61ffff841660006109c88260d8612e27565b9050846109d533846104fd565b101580156109ec5750836109e933836104fd565b10155b610a255760405162461bcd60e51b815260206004820152600a6024820152694c61636b20756e69747360b01b6044820152606401610589565b6001600160a01b0387163303610a705760405162461bcd60e51b815260206004820152601060248201526f21b0b73737ba1035b4b6361039b2b63360811b6044820152606401610589565b610ac6604051806101400160405280600081526020016000815260200160008152602001600081526020016000815260200160008152602001600081526020016000815260200160008152602001600081525090565b85815260208101859052610ada88846104fd565b60c0820152610ae988836104fd565b60e08201526001600160a01b0388166000908152600b6020908152604080832086845290915281205490610b208a86868b8b6117bc565b8051604080860191909152602082015160608087019190915290820151608086015281015160a08501529050610b588a8683866118df565b6040820151825160068054919092010190556060820151602083015160078054919092010190559550610b8e338b878785611a9a565b6040805184518152602080860151908201528482015181830152606080860151908201526080808601519082015260a0808601519082015260c0808601519082015260e08086015190820152610100808601519082015261012080860151908201526101408101849052905161ffff8b16916001600160a01b038d169133917f2c0ba6eda9140ba04ab07a25239250d2664c08a013d3ec03f3ec6f014f21a53991908190036101600190a4610c4161167a565b5050505050610c506001600355565b949350505050565b610733338383611bbd565b6040805160008152602081019091526060908267ffffffffffffffff811115610c8e57610c8e612809565b604051908082528060200260200182016040528015610cc157816020015b6060815260200190600190039081610cac5790505b50915060005b83811015610d4357610d1e30868684818110610ce557610ce5612e91565b9050602002810190610cf79190612eba565b85604051602001610d0a93929190612f08565b604051602081830303815290604052611c53565b838281518110610d3057610d30612e91565b6020908102919091010152600101610cc7565b505092915050565b610d5361173d565b612710811115610d905760405162461bcd60e51b81526020600482015260086024820152674d6178203130302560c01b6044820152606401610589565b600580549082905560408051828152602081018490527f6993bc581306fd40069a7f8d78fd994e52ce66bdacf741f949a3e4bdcf28ca80910160405180910390a15050565b610ddd611559565b60008461ffff16118015610df6575060d88461ffff1611155b8015610e06575060008361ffff16115b8015610e17575060d88361ffff1611155b8015610e285750610e288484611cc9565b610e5f5760405162461bcd60e51b8152602060048201526008602482015267426164206d6f766560c01b6044820152606401610589565b6040516323b872dd60e01b8152336004820152306024820152678ac7230489e8000060448201527f00000000000000000000000000000000000000000000000000000000000000006001600160a01b0316906323b872dd906064016020604051808303816000875af1158015610ed9573d6000803e3d6000fd5b505050506040513d601f19601f82011682018060405250810190610efd9190612e3a565b610f345760405162461bcd60e51b815260206004820152600860248201526714185e4819985a5b60c21b6044820152606401610589565b60088054678ac7230489e800000190558115610f5d57610f5d8461ffff168461ffff1684611df5565b8015610f8a57610f8a610f7561ffff861660d8612e27565b610f8461ffff861660d8612e27565b83611df5565b6040805161ffff8087168252851660208201529081018390526060810182905243608082015233907f377dc7145bd8ab426842504b448652c41dda00abb7f7c1df6bdfa40bd2a16f2c9060a00160405180910390a2610fe761167a565b610ff16001600355565b50505050565b6001600160a01b03918216600090815260016020908152604080832093909416825291909152205460ff1690565b6001600160a01b0382166000908152600b602090815260408083208484529091528120548015806110565750804311155b1561106557600091505061051f565b600060d884116110755783611080565b61108060d885612ea7565b9050600061108f8260d8612e27565b6040516370a0823160e01b81523060048201529091506000906001600160a01b037f000000000000000000000000000000000000000000000000000000000000000016906370a0823190602401602060405180830381865afa1580156110f9573d6000803e3d6000fd5b505050506040513d601f19601f8201168201806040525081019061111d9190612f2f565b9050600061112b8543612ea7565b9050600061113b61043883612dfc565b9050601481111561114a575060145b60006111568a866104fd565b6111629061029a612e10565b61116c8b886104fd565b6111769190612e27565b9050600061118c678ac7230489e8000083612e10565b9050600061119a8483612e10565b905060006127106111ad6109c489612e10565b6111b79190612dfc565b90508082116111c657816111c8565b805b9d9c50505050505050505050505050565b606061ffff821660006111ed8260d8612e27565b6000838152600c602090815260408083208054825181850281018501909352808352949550929390929183018282801561125057602002820191906000526020600020905b81546001600160a01b03168152600190910190602001808311611232575b505050505090506000805b82518110156112cd57600d6000868152602001908152602001600020600084838151811061128b5761128b612e91565b6020908102919091018101516001600160a01b031682528101919091526040016000205460ff16156112c557816112c181612f48565b9250505b60010161125b565b5060008167ffffffffffffffff8111156112e9576112e9612809565b60405190808252806020026020018201604052801561135557816020015b6113426040518060a0016040528060006001600160a01b03168152602001600081526020016000815260200160008152602001600081525090565b8152602001906001900390816113075790505b5090506000805b845181101561145f57600085828151811061137957611379612e91565b60209081029190910181015160008a8152600d835260408082206001600160a01b0384168352909352919091205490915060ff1615611456576040518060a00160405280826001600160a01b031681526020016113d6838b6104fd565b81526020016113e5838a6104fd565b81526001600160a01b0383166000908152600b602090815260408083208d84528252909120549101906114189043612ea7565b8152602001611427838b611025565b81525084848151811061143c5761143c612e91565b6020026020010181905250828061145290612f48565b9350505b5060010161135c565b5090979650505050505050565b336001600160a01b038616811480159061148d575061148b8682610ff7565b155b156114be5760405163711bec9160e11b81526001600160a01b03808316600483015287166024820152604401610589565b61082a8686868686611f44565b6114d361173d565b6001600160a01b0381166114fd57604051631e4fbdf760e01b815260006004820152602401610589565b6115068161176a565b50565b60006001600160e01b03198216636cdb3d1360e11b148061153a57506001600160e01b031982166303a24d0760e21b145b8061051f57506301ffc9a760e01b6001600160e01b031983161461051f565b60026003540361157c57604051633ee5aeb560e01b815260040160405180910390fd5b6002600355565b61159e83838360405180602001604052806000815250611fd2565b6001600160a01b0383166000908152600b6020908152604080832085845290915281205490036115ef576001600160a01b0383166000908152600b6020908152604080832085845290915290204390555b6000828152600d602090815260408083206001600160a01b038716845290915290205460ff16611675576000828152600c602090815260408083208054600180820183559185528385200180546001600160a01b0319166001600160a01b038916908117909155868552600d8452828520908552909252909120805460ff191690911790555b505050565b600654600754600854600954600a546040805195865260208601949094528484019290925260608401526080830152517f6b8aeaa3365d2dfcb9acc94f0a7429b657b4f2008cfafb9b10297011e077c6509181900360a00190a1565b6001600160a01b03841661170057604051632bfa23e760e11b815260006004820152602401610589565b6001600160a01b03851661172957604051626a0d4560e21b815260006004820152602401610589565b611736858585858561202b565b5050505050565b6004546001600160a01b031633146109115760405163118cdaa760e01b8152336004820152602401610589565b600480546001600160a01b038381166001600160a01b0319831681179093556040519116919082907f8be0079c531659141344cd1fd0a4f28419497f9722a3daafe3b4186f6b6457e090600090a35050565b6117e76040518060800160405280600081526020016000815260200160008152602001600081525090565b60006117f58361029a612e10565b6117ff9085612e27565b9050600061180d88886104fd565b9050600061181b89886104fd565b90506000606461182d8361029a612e10565b6118379085612e27565b61184290606e612e10565b61184c9190612dfc565b90508060000361185a575060015b808411156118755760408501839052606085018290526118d2565b86855260208501869052600061188b8580612e10565b905060006118998380612e10565b9050806118a68387612e10565b6118b09190612dfc565b6040880152806118c08386612e10565b6118ca9190612dfc565b606088015250505b5050505095945050505050565b600080836060015161029a6118f49190612e10565b84604001516119039190612e27565b90506000846020015161029a6119199190612e10565b85516119259190612e27565b905060006119338284612e27565b9050806000036119495760009350505050610c50565b60006119558989611025565b9050600061029a83101561197f5761029a6119708484612e10565b61197a9190612dfc565b611981565b815b9050600061271061199483611d4c612e10565b61199e9190612dfc565b90508015611a8c57836119b18783612e10565b6119bb9190612dfc565b96506119c7338861207e565b336000908152600e6020526040812080548992906119e6908490612e27565b9091555060009050846119f98784612e10565b611a039190612dfc565b9050611a0f8c8261207e565b6001600160a01b038c166000908152600e602052604081208054839290611a37908490612e27565b9091555050610100890188905261012089018190526040518181526001600160a01b038d16907fdf7a5d9a98a2f71d704a4e6a4c0422d79ed27521ad9cfd55e985d5fb94cfaffe9060200160405180910390a2505b505050505050949350505050565b604081015115611ab357611ab3848483604001516121d6565b606081015115611acc57611acc848383606001516121d6565b805115611ae257611ae2858483600001516121d6565b602081015115611afb57611afb858383602001516121d6565b611b0584846104fd565b158015611b195750611b1784836104fd565b155b15611b59576000838152600d602090815260408083206001600160a01b03881684528252808320805460ff19169055600b82528083208684529091528120555b611b6385846104fd565b158015611b775750611b7585836104fd565b155b15611736576000838152600d602090815260408083206001600160a01b03891684528252808320805460ff19169055600b82528083208684529091528120555050505050565b6001600160a01b038216611be65760405162ced3e160e81b815260006004820152602401610589565b6001600160a01b03838116600081815260016020908152604080832094871680845294825291829020805460ff191686151590811790915591519182527f17307eab39ab6107e8899845ad3d59bd9653f200f220920489ca2b5937696c31910160405180910390a3505050565b6060600080846001600160a01b031684604051611c709190612f61565b600060405180830381855af49150503d8060008114611cab576040519150601f19603f3d011682016040523d82523d6000602084013e611cb0565b606091505b5091509150611cc085838361223e565b95945050505050565b600080611cd7600185612f7d565b90506000611ce6600185612f7d565b90506000611cf5600684612f9f565b905060006006611d058186612fc0565b611d0f9190612f9f565b90506000611d1e602486612fc0565b90506000611d2d600686612f9f565b905060006006611d3d8188612fc0565b611d479190612f9f565b90506000611d56602488612fc0565b90508060010b8460010b13611d7457611d6f8482612fe1565b611d7e565b611d7e8185612fe1565b8260010b8660010b13611d9a57611d958684612fe1565b611da4565b611da48387612fe1565b8460010b8860010b13611dc057611dbb8886612fe1565b611dca565b611dca8589612fe1565b611dd49190613004565b611dde9190613004565b61ffff166001149850505050505050505092915050565b600060d88411611e055783611e10565b611e1060d885612ea7565b9050600060d88411611e225783611e2d565b611e2d60d885612ea7565b9050611e3a3386856121d6565b611e5533858560405180602001604052806000815250611fd2565b336000818152600b602090815260408083208684528252808320439081905585845281842055600d8252808320938352929052205460ff16611ee4576000818152600c602090815260408083208054600181810183559185528385200180546001600160a01b03191633908117909155858552600d8452828520908552909252909120805460ff191690911790555b611eee33836104fd565b158015611f075750611f053361022e8460d8612e27565b155b15611736576000828152600d602090815260408083203384528252808320805460ff19169055600b82528083208584529091528120555050505050565b6001600160a01b038416611f6e57604051632bfa23e760e11b815260006004820152602401610589565b6001600160a01b038516611f9757604051626a0d4560e21b815260006004820152602401610589565b60408051600180825260208201869052818301908152606082018590526080820190925290611fc9878784848761202b565b50505050505050565b6001600160a01b038416611ffc57604051632bfa23e760e11b815260006004820152602401610589565b6040805160018082526020820186905281830190815260608201859052608082019092529061082a6000878484875b6120378585858561229d565b6001600160a01b03841615611736578251339060010361207057602084810151908401516120698389898585896124b1565b505061082a565b61082a8187878787876125d5565b8015610733576000612710600554836120979190612e10565b6120a19190612dfc565b905060006127106120b461029a85612e10565b6120be9190612dfc565b90506000816120cd8486612ea7565b6120d79190612ea7565b905080600960008282546120eb9190612e27565b9250508190555081600a60008282546121049190612e27565b909155505060405163a9059cbb60e01b81526001600160a01b038681166004830152602482018390527f0000000000000000000000000000000000000000000000000000000000000000169063a9059cbb906044016020604051808303816000875af1158015612178573d6000803e3d6000fd5b505050506040513d601f19601f8201168201806040525081019061219c9190612e3a565b6117365760405162461bcd60e51b815260206004820152600b60248201526a14185e5bdd5d0819985a5b60aa1b6044820152606401610589565b6001600160a01b0383166121ff57604051626a0d4560e21b815260006004820152602401610589565b604080516001808252602082018590528183019081526060820184905260a082019092526000608082018181529192916117369187918590859061202b565b6060826122535761224e826126be565b612296565b815115801561226a57506001600160a01b0384163b155b1561229357604051639996b31560e01b81526001600160a01b0385166004820152602401610589565b50805b9392505050565b80518251146122cc5781518151604051635b05999160e01b815260048101929092526024820152604401610589565b3360005b83518110156123d2576020818102858101820151908501909101516001600160a01b03881615612383576000828152602081815260408083206001600160a01b038c1684529091529020548181101561235c576040516303dee4c560e01b81526001600160a01b038a166004820152602481018290526044810183905260648101849052608401610589565b6000838152602081815260408083206001600160a01b038d16845290915290209082900390555b6001600160a01b038716156123c8576000828152602081815260408083206001600160a01b038b168452909152812080548392906123c2908490612e27565b90915550505b50506001016122d0565b5082516001036124535760208301516000906020840151909150856001600160a01b0316876001600160a01b0316846001600160a01b03167fc3d58168c5ae7397731d063d5bbf3d657854427343f4c083240f7aacaa2d0f628585604051612444929190918252602082015260400190565b60405180910390a45050611736565b836001600160a01b0316856001600160a01b0316826001600160a01b03167f4a39dc06d4c0dbc64b70af90fd698a233a518aa5d07e595d983b8c0526c8f7fb86866040516124a2929190613027565b60405180910390a45050505050565b6001600160a01b0384163b1561082a5760405163f23a6e6160e01b81526001600160a01b0385169063f23a6e61906124f5908990899088908890889060040161304c565b6020604051808303816000875af1925050508015612530575060408051601f3d908101601f1916820190925261252d91810190613091565b60015b612599573d80801561255e576040519150601f19603f3d011682016040523d82523d6000602084013e612563565b606091505b50805160000361259157604051632bfa23e760e11b81526001600160a01b0386166004820152602401610589565b805160208201fd5b6001600160e01b0319811663f23a6e6160e01b14611fc957604051632bfa23e760e11b81526001600160a01b0386166004820152602401610589565b6001600160a01b0384163b1561082a5760405163bc197c8160e01b81526001600160a01b0385169063bc197c819061261990899089908890889088906004016130ae565b6020604051808303816000875af1925050508015612654575060408051601f3d908101601f1916820190925261265191810190613091565b60015b612682573d80801561255e576040519150601f19603f3d011682016040523d82523d6000602084013e612563565b6001600160e01b0319811663bc197c8160e01b14611fc957604051632bfa23e760e11b81526001600160a01b0386166004820152602401610589565b8051156126cd57805160208201fd5b60405163d6bda27560e01b815260040160405180910390fd5b80356001600160a01b03811681146126fd57600080fd5b919050565b6000806040838503121561271557600080fd5b61271e836126e6565b946020939093013593505050565b6001600160e01b03198116811461150657600080fd5b60006020828403121561275457600080fd5b81356122968161272c565b803561ffff811681146126fd57600080fd5b6000806040838503121561278457600080fd5b61271e8361275f565b60006020828403121561279f57600080fd5b5035919050565b60005b838110156127c15781810151838201526020016127a9565b50506000910152565b600081518084526127e28160208601602086016127a6565b601f01601f19169290920160200192915050565b60208152600061229660208301846127ca565b634e487b7160e01b600052604160045260246000fd5b604051601f8201601f1916810167ffffffffffffffff8111828210171561284857612848612809565b604052919050565b600067ffffffffffffffff82111561286a5761286a612809565b5060051b60200190565b600082601f83011261288557600080fd5b8135602061289a61289583612850565b61281f565b8083825260208201915060208460051b8701019350868411156128bc57600080fd5b602086015b848110156128d857803583529183019183016128c1565b509695505050505050565b600082601f8301126128f457600080fd5b813567ffffffffffffffff81111561290e5761290e612809565b612921601f8201601f191660200161281f565b81815284602083860101111561293657600080fd5b816020850160208301376000918101602001919091529392505050565b600080600080600060a0868803121561296b57600080fd5b612974866126e6565b9450612982602087016126e6565b9350604086013567ffffffffffffffff8082111561299f57600080fd5b6129ab89838a01612874565b945060608801359150808211156129c157600080fd5b6129cd89838a01612874565b935060808801359150808211156129e357600080fd5b506129f0888289016128e3565b9150509295509295909350565b60008060408385031215612a1057600080fd5b823567ffffffffffffffff80821115612a2857600080fd5b818501915085601f830112612a3c57600080fd5b81356020612a4c61289583612850565b82815260059290921b84018101918181019089841115612a6b57600080fd5b948201945b83861015612a9057612a81866126e6565b82529482019490820190612a70565b96505086013592505080821115612aa657600080fd5b50612ab385828601612874565b9150509250929050565b60008151808452602080850194506020840160005b83811015612aee57815187529582019590820190600101612ad2565b509495945050505050565b6020815260006122966020830184612abd565b60008060008060808587031215612b2257600080fd5b612b2b856126e6565b9350612b396020860161275f565b93969395505050506040820135916060013590565b801515811461150657600080fd5b60008060408385031215612b6f57600080fd5b612b78836126e6565b91506020830135612b8881612b4e565b809150509250929050565b60008060208385031215612ba657600080fd5b823567ffffffffffffffff80821115612bbe57600080fd5b818501915085601f830112612bd257600080fd5b813581811115612be157600080fd5b8660208260051b8501011115612bf657600080fd5b60209290920196919550909350505050565b600060208083016020845280855180835260408601915060408160051b87010192506020870160005b82811015612c5f57603f19888603018452612c4d8583516127ca565b94509285019290850190600101612c31565b5092979650505050505050565b600060208284031215612c7e57600080fd5b612296826126e6565b60008060008060808587031215612c9d57600080fd5b612b2b8561275f565b60008060408385031215612cb957600080fd5b612cc2836126e6565b9150612cd0602084016126e6565b90509250929050565b600060208284031215612ceb57600080fd5b6122968261275f565b602080825282518282018190526000919060409081850190868401855b82811015612d5e57815180516001600160a01b0316855286810151878601528581015186860152606080820151908601526080908101519085015260a09093019290850190600101612d11565b5091979650505050505050565b600080600080600060a08688031215612d8357600080fd5b612d8c866126e6565b9450612d9a602087016126e6565b93506040860135925060608601359150608086013567ffffffffffffffff811115612dc457600080fd5b6129f0888289016128e3565b634e487b7160e01b600052601260045260246000fd5b634e487b7160e01b600052601160045260246000fd5b600082612e0b57612e0b612dd0565b500490565b808202811582820484141761051f5761051f612de6565b8082018082111561051f5761051f612de6565b600060208284031215612e4c57600080fd5b815161229681612b4e565b600181811c90821680612e6b57607f821691505b602082108103612e8b57634e487b7160e01b600052602260045260246000fd5b50919050565b634e487b7160e01b600052603260045260246000fd5b8181038181111561051f5761051f612de6565b6000808335601e19843603018112612ed157600080fd5b83018035915067ffffffffffffffff821115612eec57600080fd5b602001915036819003821315612f0157600080fd5b9250929050565b828482376000838201600081528351612f258183602088016127a6565b0195945050505050565b600060208284031215612f4157600080fd5b5051919050565b600060018201612f5a57612f5a612de6565b5060010190565b60008251612f738184602087016127a6565b9190910192915050565b61ffff828116828216039080821115612f9857612f98612de6565b5092915050565b600061ffff80841680612fb457612fb4612dd0565b92169190910692915050565b600061ffff80841680612fd557612fd5612dd0565b92169190910492915050565b600182810b9082900b03617fff198112617fff8213171561051f5761051f612de6565b600181810b9083900b01617fff8113617fff198212171561051f5761051f612de6565b60408152600061303a6040830185612abd565b8281036020840152611cc08185612abd565b6001600160a01b03868116825285166020820152604081018490526060810183905260a060808201819052600090613086908301846127ca565b979650505050505050565b6000602082840312156130a357600080fd5b81516122968161272c565b6001600160a01b0386811682528516602082015260a0604082018190526000906130da90830186612abd565b82810360608401526130ec8186612abd565b9050828103608084015261310081856127ca565b9897505050505050505056fea26469706673582212206a44018e7c706ed811a0caad0b5db915d1fbc60e583ded96d0e6ae58719f689864736f6c6343000818003368747470733a2f2f6170692e6b696c6c67616d652e61692f6d657461646174612f7b69647d2e6a736f6e",
  "linkReferences": {},
  "deployedLinkReferences": {}
}