{
  "_format": "hh-sol-artifact-1",
  "contractName": "KILLGame",
  "sourceName": "contracts/KillGame.sol",
  "abi": [
    {
      "inputs": [
        {
          "internalType": "address",
          "name": "_tokenAddress",
          "type": "address"
        }
      ],
      "stateMutability": "nonpayable",
      "type": "constructor"
    },
    {
      "inputs": [
        {
          "internalType": "address",
          "name": "sender",
          "type": "address"
        },
        {
          "internalType": "uint256",
          "name": "balance",
          "type": "uint256"
        },
        {
          "internalType": "uint256",
          "name": "needed",
          "type": "uint256"
        },
        {
          "internalType": "uint256",
          "name": "tokenId",
          "type": "uint256"
        }
      ],
      "name": "ERC1155InsufficientBalance",
      "type": "error"
    },
    {
      "inputs": [
        {
          "internalType": "address",
          "name": "approver",
          "type": "address"
        }
      ],
      "name": "ERC1155InvalidApprover",
      "type": "error"
    },
    {
      "inputs": [
        {
          "internalType": "uint256",
          "name": "idsLength",
          "type": "uint256"
        },
        {
          "internalType": "uint256",
          "name": "valuesLength",
          "type": "uint256"
        }
      ],
      "name": "ERC1155InvalidArrayLength",
      "type": "error"
    },
    {
      "inputs": [
        {
          "internalType": "address",
          "name": "operator",
          "type": "address"
        }
      ],
      "name": "ERC1155InvalidOperator",
      "type": "error"
    },
    {
      "inputs": [
        {
          "internalType": "address",
          "name": "receiver",
          "type": "address"
        }
      ],
      "name": "ERC1155InvalidReceiver",
      "type": "error"
    },
    {
      "inputs": [
        {
          "internalType": "address",
          "name": "sender",
          "type": "address"
        }
      ],
      "name": "ERC1155InvalidSender",
      "type": "error"
    },
    {
      "inputs": [
        {
          "internalType": "address",
          "name": "operator",
          "type": "address"
        },
        {
          "internalType": "address",
          "name": "owner",
          "type": "address"
        }
      ],
      "name": "ERC1155MissingApprovalForAll",
      "type": "error"
    },
    {
      "inputs": [
        {
          "internalType": "address",
          "name": "owner",
          "type": "address"
        }
      ],
      "name": "OwnableInvalidOwner",
      "type": "error"
    },
    {
      "inputs": [
        {
          "internalType": "address",
          "name": "account",
          "type": "address"
        }
      ],
      "name": "OwnableUnauthorizedAccount",
      "type": "error"
    },
    {
      "inputs": [],
      "name": "ReentrancyGuardReentrantCall",
      "type": "error"
    },
    {
      "anonymous": false,
      "inputs": [
        {
          "indexed": true,
          "internalType": "address",
          "name": "account",
          "type": "address"
        },
        {
          "indexed": true,
          "internalType": "address",
          "name": "operator",
          "type": "address"
        },
        {
          "indexed": false,
          "internalType": "bool",
          "name": "approved",
          "type": "bool"
        }
      ],
      "name": "ApprovalForAll",
      "type": "event"
    },
    {
      "anonymous": false,
      "inputs": [
        {
          "indexed": false,
          "internalType": "uint256",
          "name": "totalUnitsKilled",
          "type": "uint256"
        },
        {
          "indexed": false,
          "internalType": "uint256",
          "name": "totalReaperKilled",
          "type": "uint256"
        },
        {
          "indexed": false,
          "internalType": "uint256",
          "name": "killAdded",
          "type": "uint256"
        },
        {
          "indexed": false,
          "internalType": "uint256",
          "name": "killExtracted",
          "type": "uint256"
        },
        {
          "indexed": false,
          "internalType": "uint256",
          "name": "killBurned",
          "type": "uint256"
        }
      ],
      "name": "GlobalStats",
      "type": "event"
    },
    {
      "anonymous": false,
      "inputs": [
        {
          "indexed": true,
          "internalType": "address",
          "name": "attacker",
          "type": "address"
        },
        {
          "indexed": true,
          "internalType": "address",
          "name": "target",
          "type": "address"
        },
        {
          "indexed": true,
          "internalType": "uint16",
          "name": "stackId",
          "type": "uint16"
        },
        {
          "indexed": false,
          "internalType": "uint256",
          "name": "attackerUnitsLost",
          "type": "uint256"
        },
        {
          "indexed": false,
          "internalType": "uint256",
          "name": "attackerReaperLost",
          "type": "uint256"
        },
        {
          "indexed": false,
          "internalType": "uint256",
          "name": "targetUnitsLost",
          "type": "uint256"
        },
        {
          "indexed": false,
          "internalType": "uint256",
          "name": "targetReaperLost",
          "type": "uint256"
        },
        {
          "indexed": false,
          "internalType": "uint256",
          "name": "netBounty",
          "type": "uint256"
        },
        {
          "indexed": false,
          "internalType": "uint256",
          "name": "targetBirthBlock",
          "type": "uint256"
        }
      ],
      "name": "Killed",
      "type": "event"
    },
    {
      "anonymous": false,
      "inputs": [
        {
          "indexed": true,
          "internalType": "address",
          "name": "agent",
          "type": "address"
        },
        {
          "indexed": false,
          "internalType": "uint16",
          "name": "fromStack",
          "type": "uint16"
        },
        {
          "indexed": false,
          "internalType": "uint16",
          "name": "toStack",
          "type": "uint16"
        },
        {
          "indexed": false,
          "internalType": "uint256",
          "name": "units",
          "type": "uint256"
        },
        {
          "indexed": false,
          "internalType": "uint256",
          "name": "reaper",
          "type": "uint256"
        },
        {
          "indexed": false,
          "internalType": "uint256",
          "name": "birthBlock",
          "type": "uint256"
        }
      ],
      "name": "Moved",
      "type": "event"
    },
    {
      "anonymous": false,
      "inputs": [
        {
          "indexed": true,
          "internalType": "address",
          "name": "previousOwner",
          "type": "address"
        },
        {
          "indexed": true,
          "internalType": "address",
          "name": "newOwner",
          "type": "address"
        }
      ],
      "name": "OwnershipTransferred",
      "type": "event"
    },
    {
      "anonymous": false,
      "inputs": [
        {
          "indexed": true,
          "internalType": "address",
          "name": "agent",
          "type": "address"
        },
        {
          "indexed": true,
          "internalType": "uint256",
          "name": "stackId",
          "type": "uint256"
        },
        {
          "indexed": false,
          "internalType": "uint256",
          "name": "units",
          "type": "uint256"
        },
        {
          "indexed": false,
          "internalType": "uint256",
          "name": "birthBlock",
          "type": "uint256"
        }
      ],
      "name": "Spawned",
      "type": "event"
    },
    {
      "anonymous": false,
      "inputs": [
        {
          "indexed": true,
          "internalType": "address",
          "name": "operator",
          "type": "address"
        },
        {
          "indexed": true,
          "internalType": "address",
          "name": "from",
          "type": "address"
        },
        {
          "indexed": true,
          "internalType": "address",
          "name": "to",
          "type": "address"
        },
        {
          "indexed": false,
          "internalType": "uint256[]",
          "name": "ids",
          "type": "uint256[]"
        },
        {
          "indexed": false,
          "internalType": "uint256[]",
          "name": "values",
          "type": "uint256[]"
        }
      ],
      "name": "TransferBatch",
      "type": "event"
    },
    {
      "anonymous": false,
      "inputs": [
        {
          "indexed": true,
          "internalType": "address",
          "name": "operator",
          "type": "address"
        },
        {
          "indexed": true,
          "internalType": "address",
          "name": "from",
          "type": "address"
        },
        {
          "indexed": true,
          "internalType": "address",
          "name": "to",
          "type": "address"
        },
        {
          "indexed": false,
          "internalType": "uint256",
          "name": "id",
          "type": "uint256"
        },
        {
          "indexed": false,
          "internalType": "uint256",
          "name": "value",
          "type": "uint256"
        }
      ],
      "name": "TransferSingle",
      "type": "event"
    },
    {
      "anonymous": false,
      "inputs": [
        {
          "indexed": false,
          "internalType": "string",
          "name": "value",
          "type": "string"
        },
        {
          "indexed": true,
          "internalType": "uint256",
          "name": "id",
          "type": "uint256"
        }
      ],
      "name": "URI",
      "type": "event"
    },
    {
      "inputs": [],
      "name": "BURN_BPS",
      "outputs": [
        {
          "internalType": "uint256",
          "name": "",
          "type": "uint256"
        }
      ],
      "stateMutability": "view",
      "type": "function"
    },
    {
      "inputs": [],
      "name": "SPAWN_COST",
      "outputs": [
        {
          "internalType": "uint256",
          "name": "",
          "type": "uint256"
        }
      ],
      "stateMutability": "view",
      "type": "function"
    },
    {
      "inputs": [],
      "name": "TREASURY_BPS",
      "outputs": [
        {
          "internalType": "uint256",
          "name": "",
          "type": "uint256"
        }
      ],
      "stateMutability": "view",
      "type": "function"
    },
    {
      "inputs": [
        {
          "internalType": "uint256",
          "name": "amt",
          "type": "uint256"
        }
      ],
      "name": "adminWithdraw",
      "outputs": [],
      "stateMutability": "nonpayable",
      "type": "function"
    },
    {
      "inputs": [
        {
          "internalType": "address",
          "name": "",
          "type": "address"
        },
        {
          "internalType": "uint256",
          "name": "",
          "type": "uint256"
        }
      ],
      "name": "agentStacks",
      "outputs": [
        {
          "internalType": "uint256",
          "name": "birthBlock",
          "type": "uint256"
        }
      ],
      "stateMutability": "view",
      "type": "function"
    },
    {
      "inputs": [
        {
          "internalType": "address",
          "name": "account",
          "type": "address"
        },
        {
          "internalType": "uint256",
          "name": "id",
          "type": "uint256"
        }
      ],
      "name": "balanceOf",
      "outputs": [
        {
          "internalType": "uint256",
          "name": "",
          "type": "uint256"
        }
      ],
      "stateMutability": "view",
      "type": "function"
    },
    {
      "inputs": [
        {
          "internalType": "address[]",
          "name": "accounts",
          "type": "address[]"
        },
        {
          "internalType": "uint256[]",
          "name": "ids",
          "type": "uint256[]"
        }
      ],
      "name": "balanceOfBatch",
      "outputs": [
        {
          "internalType": "uint256[]",
          "name": "",
          "type": "uint256[]"
        }
      ],
      "stateMutability": "view",
      "type": "function"
    },
    {
      "inputs": [
        {
          "internalType": "address",
          "name": "agent",
          "type": "address"
        }
      ],
      "name": "getAgentPresence",
      "outputs": [
        {
          "internalType": "uint16[]",
          "name": "stacks",
          "type": "uint16[]"
        }
      ],
      "stateMutability": "view",
      "type": "function"
    },
    {
      "inputs": [
        {
          "internalType": "address",
          "name": "agent",
          "type": "address"
        },
        {
          "internalType": "uint256",
          "name": "id",
          "type": "uint256"
        }
      ],
      "name": "getBirthBlock",
      "outputs": [
        {
          "internalType": "uint256",
          "name": "",
          "type": "uint256"
        }
      ],
      "stateMutability": "view",
      "type": "function"
    },
    {
      "inputs": [
        {
          "internalType": "uint16",
          "name": "stackId",
          "type": "uint16"
        }
      ],
      "name": "getFullStack",
      "outputs": [
        {
          "components": [
            {
              "internalType": "address",
              "name": "occupant",
              "type": "address"
            },
            {
              "internalType": "uint256",
              "name": "units",
              "type": "uint256"
            },
            {
              "internalType": "uint256",
              "name": "reapers",
              "type": "uint256"
            },
            {
              "internalType": "uint256",
              "name": "age",
              "type": "uint256"
            },
            {
              "internalType": "uint256",
              "name": "pendingBounty",
              "type": "uint256"
            }
          ],
          "internalType": "struct KILLGame.StackInfo[]",
          "name": "",
          "type": "tuple[]"
        }
      ],
      "stateMutability": "view",
      "type": "function"
    },
    {
      "inputs": [
        {
          "internalType": "address",
          "name": "agent",
          "type": "address"
        },
        {
          "internalType": "uint256",
          "name": "id",
          "type": "uint256"
        }
      ],
      "name": "getPendingBounty",
      "outputs": [
        {
          "internalType": "uint256",
          "name": "",
          "type": "uint256"
        }
      ],
      "stateMutability": "view",
      "type": "function"
    },
    {
      "inputs": [
        {
          "internalType": "uint16",
          "name": "stackId",
          "type": "uint16"
        },
        {
          "internalType": "bool",
          "name": "b",
          "type": "bool"
        }
      ],
      "name": "getRipeStacks",
      "outputs": [
        {
          "internalType": "address[]",
          "name": "a",
          "type": "address[]"
        },
        {
          "internalType": "uint256[]",
          "name": "ag",
          "type": "uint256[]"
        }
      ],
      "stateMutability": "view",
      "type": "function"
    },
    {
      "inputs": [
        {
          "internalType": "address",
          "name": "account",
          "type": "address"
        },
        {
          "internalType": "address",
          "name": "operator",
          "type": "address"
        }
      ],
      "name": "isApprovedForAll",
      "outputs": [
        {
          "internalType": "bool",
          "name": "",
          "type": "bool"
        }
      ],
      "stateMutability": "view",
      "type": "function"
    },
    {
      "inputs": [
        {
          "internalType": "address",
          "name": "target",
          "type": "address"
        },
        {
          "internalType": "uint16",
          "name": "stackId",
          "type": "uint16"
        },
        {
          "internalType": "uint256",
          "name": "sentUnits",
          "type": "uint256"
        },
        {
          "internalType": "uint256",
          "name": "sentReaper",
          "type": "uint256"
        }
      ],
      "name": "kill",
      "outputs": [
        {
          "internalType": "uint256",
          "name": "netBounty",
          "type": "uint256"
        }
      ],
      "stateMutability": "nonpayable",
      "type": "function"
    },
    {
      "inputs": [],
      "name": "killToken",
      "outputs": [
        {
          "internalType": "contract IERC20",
          "name": "",
          "type": "address"
        }
      ],
      "stateMutability": "view",
      "type": "function"
    },
    {
      "inputs": [
        {
          "internalType": "uint16",
          "name": "fromStack",
          "type": "uint16"
        },
        {
          "internalType": "uint16",
          "name": "toStack",
          "type": "uint16"
        },
        {
          "internalType": "uint256",
          "name": "units",
          "type": "uint256"
        },
        {
          "internalType": "uint256",
          "name": "reaper",
          "type": "uint256"
        }
      ],
      "name": "move",
      "outputs": [],
      "stateMutability": "nonpayable",
      "type": "function"
    },
    {
      "inputs": [],
      "name": "owner",
      "outputs": [
        {
          "internalType": "address",
          "name": "",
          "type": "address"
        }
      ],
      "stateMutability": "view",
      "type": "function"
    },
    {
      "inputs": [],
      "name": "renounceOwnership",
      "outputs": [],
      "stateMutability": "nonpayable",
      "type": "function"
    },
    {
      "inputs": [
        {
          "internalType": "address",
          "name": "from",
          "type": "address"
        },
        {
          "internalType": "address",
          "name": "to",
          "type": "address"
        },
        {
          "internalType": "uint256[]",
          "name": "ids",
          "type": "uint256[]"
        },
        {
          "internalType": "uint256[]",
          "name": "values",
          "type": "uint256[]"
        },
        {
          "internalType": "bytes",
          "name": "data",
          "type": "bytes"
        }
      ],
      "name": "safeBatchTransferFrom",
      "outputs": [],
      "stateMutability": "nonpayable",
      "type": "function"
    },
    {
      "inputs": [
        {
          "internalType": "address",
          "name": "from",
          "type": "address"
        },
        {
          "internalType": "address",
          "name": "to",
          "type": "address"
        },
        {
          "internalType": "uint256",
          "name": "id",
          "type": "uint256"
        },
        {
          "internalType": "uint256",
          "name": "value",
          "type": "uint256"
        },
        {
          "internalType": "bytes",
          "name": "data",
          "type": "bytes"
        }
      ],
      "name": "safeTransferFrom",
      "outputs": [],
      "stateMutability": "nonpayable",
      "type": "function"
    },
    {
      "inputs": [
        {
          "internalType": "address",
          "name": "operator",
          "type": "address"
        },
        {
          "internalType": "bool",
          "name": "approved",
          "type": "bool"
        }
      ],
      "name": "setApprovalForAll",
      "outputs": [],
      "stateMutability": "nonpayable",
      "type": "function"
    },
    {
      "inputs": [
        {
          "internalType": "uint16",
          "name": "stackId",
          "type": "uint16"
        },
        {
          "internalType": "uint256",
          "name": "amount",
          "type": "uint256"
        }
      ],
      "name": "spawn",
      "outputs": [],
      "stateMutability": "nonpayable",
      "type": "function"
    },
    {
      "inputs": [
        {
          "internalType": "bytes4",
          "name": "id",
          "type": "bytes4"
        }
      ],
      "name": "supportsInterface",
      "outputs": [
        {
          "internalType": "bool",
          "name": "",
          "type": "bool"
        }
      ],
      "stateMutability": "view",
      "type": "function"
    },
    {
      "inputs": [],
      "name": "totalKillBurned",
      "outputs": [
        {
          "internalType": "uint256",
          "name": "",
          "type": "uint256"
        }
      ],
      "stateMutability": "view",
      "type": "function"
    },
    {
      "inputs": [],
      "name": "totalKillExtracted",
      "outputs": [
        {
          "internalType": "uint256",
          "name": "",
          "type": "uint256"
        }
      ],
      "stateMutability": "view",
      "type": "function"
    },
    {
      "inputs": [],
      "name": "totalReaperKilled",
      "outputs": [
        {
          "internalType": "uint256",
          "name": "",
          "type": "uint256"
        }
      ],
      "stateMutability": "view",
      "type": "function"
    },
    {
      "inputs": [],
      "name": "totalUnitsKilled",
      "outputs": [
        {
          "internalType": "uint256",
          "name": "",
          "type": "uint256"
        }
      ],
      "stateMutability": "view",
      "type": "function"
    },
    {
      "inputs": [],
      "name": "totalUnitsMinted",
      "outputs": [
        {
          "internalType": "uint256",
          "name": "",
          "type": "uint256"
        }
      ],
      "stateMutability": "view",
      "type": "function"
    },
    {
      "inputs": [
        {
          "internalType": "address",
          "name": "newOwner",
          "type": "address"
        }
      ],
      "name": "transferOwnership",
      "outputs": [],
      "stateMutability": "nonpayable",
      "type": "function"
    },
    {
      "inputs": [],
      "name": "treasuryBalance",
      "outputs": [
        {
          "internalType": "uint256",
          "name": "",
          "type": "uint256"
        }
      ],
      "stateMutability": "view",
      "type": "function"
    },
    {
      "inputs": [
        {
          "internalType": "uint256",
          "name": "",
          "type": "uint256"
        }
      ],
      "name": "uri",
      "outputs": [
        {
          "internalType": "string",
          "name": "",
          "type": "string"
        }
      ],
      "stateMutability": "view",
      "type": "function"
    }
  ],
  "bytecode": "0x60a06040523480156200001157600080fd5b506040516200336838038062003368833981016040819052620000349162000111565b336040518060600160405280602a81526020016200333e602a91396200005a81620000ad565b5060016003556001600160a01b0381166200008f57604051631e4fbdf760e01b81526000600482015260240160405180910390fd5b6200009a81620000bf565b506001600160a01b0316608052620002b6565b6002620000bb8282620001ea565b5050565b600480546001600160a01b038381166001600160a01b0319831681179093556040519116919082907f8be0079c531659141344cd1fd0a4f28419497f9722a3daafe3b4186f6b6457e090600090a35050565b6000602082840312156200012457600080fd5b81516001600160a01b03811681146200013c57600080fd5b9392505050565b634e487b7160e01b600052604160045260246000fd5b600181811c908216806200016e57607f821691505b6020821081036200018f57634e487b7160e01b600052602260045260246000fd5b50919050565b601f821115620001e5576000816000526020600020601f850160051c81016020861015620001c05750805b601f850160051c820191505b81811015620001e157828155600101620001cc565b5050505b505050565b81516001600160401b0381111562000206576200020662000143565b6200021e8162000217845462000159565b8462000195565b602080601f8311600181146200025657600084156200023d5750858301515b600019600386901b1c1916600185901b178555620001e1565b600085815260208120601f198616915b82811015620002875788860151825594840194600190910190840162000266565b5085821015620002a65787850151600019600388901b60f8161c191681555b5050505050600190811b01905550565b608051613057620002e7600039600081816102750152818161057101528181610cf2015261114201526130576000f3fe608060405234801561001057600080fd5b50600436106101e45760003560e01c80637c5b4a371161010f578063c704c3f1116100a2578063edbd5df811610071578063edbd5df814610432578063ef0a13111461045d578063f242432a1461047d578063f2fde38b1461049057600080fd5b8063c704c3f1146103ea578063e74fe237146103f9578063e985e9c51461040c578063ea075ee11461041f57600080fd5b806391fa2a6a116100de57806391fa2a6a14610385578063a22cb46514610398578063a37a9fc0146103ab578063b8011328146103b457600080fd5b80637c5b4a37146103385780638736dbbc1461034b57806388b00adc1461036b5780638da5cb5b1461037457600080fd5b80632ee8174e1161018757806355ebad591161015657806355ebad59146102fd5780635635fdbc1461031e578063715018a614610327578063781298821461032f57600080fd5b80632ee8174e146102c2578063313dab20146102cb5780634c25d197146102d45780634e1273f4146102dd57600080fd5b80630a08f3d0116101c35780630a08f3d0146102475780630e89341c146102505780632bd7cd17146102705780632eb2c2d6146102af57600080fd5b8062fdd58e146101e957806301ffc9a71461020f57806309f6182614610232575b600080fd5b6101fc6101f73660046126b5565b6104a3565b6040519081526020015b60405180910390f35b61022261021d3660046126f5565b6104cb565b6040519015158152602001610206565b610245610240366004612724565b6104d6565b005b6101fc60065481565b61026361025e366004612740565b6107bf565b604051610206919061279f565b6102977f000000000000000000000000000000000000000000000000000000000000000081565b6040516001600160a01b039091168152602001610206565b6102456102bd3660046128fc565b610853565b6101fc60085481565b6101fc60055481565b6101fc61247681565b6102f06102eb3660046129a6565b6108ba565b6040516102069190612aa2565b61031061030b366004612ac3565b610987565b604051610206929190612afa565b6101fc60095481565b610245610cba565b6101fc60075481565b610245610346366004612740565b610cce565b61035e610359366004612b5b565b610d67565b6040516102069190612b76565b6101fc600a5481565b6004546001600160a01b0316610297565b6101fc610393366004612bbe565b610f1a565b6102456103a6366004612c00565b61156a565b6101fc61029a81565b6101fc6103c23660046126b5565b6001600160a01b03919091166000908152600b60209081526040808320938352929052205490565b6101fc678ac7230489e8000081565b610245610407366004612c1c565b611575565b61022261041a366004612c3b565b611739565b6101fc61042d3660046126b5565b611767565b6101fc6104403660046126b5565b600b60209081526000928352604080842090915290825290205481565b61047061046b366004612c6e565b6117ea565b6040516102069190612c89565b61024561048b366004612d00565b611b23565b61024561049e366004612b5b565b611b82565b6000818152602081815260408083206001600160a01b03861684529091529020545b92915050565b60006104c582611bc0565b6104de611c10565b60008261ffff161180156104f7575060d88261ffff1611155b6105385760405162461bcd60e51b815260206004820152600d60248201526c496e76616c696420537461636b60981b60448201526064015b60405180910390fd5b600061054c678ac7230489e8000083612d7b565b6040516323b872dd60e01b8152336004820152306024820152604481018290529091507f00000000000000000000000000000000000000000000000000000000000000006001600160a01b0316906323b872dd906064016020604051808303816000875af11580156105c2573d6000803e3d6000fd5b505050506040513d601f19601f820116820180604052508101906105e69190612d92565b61061d5760405162461bcd60e51b815260206004820152600860248201526714185e4819985a5b60c21b604482015260640161052f565b600061271061062e61247684612d7b565b6106389190612dc5565b905060006106468284612dd9565b9050816005600082825461065a9190612dec565b9250508190555080600a60008282546106739190612dec565b909155505060068054908590600061068b8385612dec565b909155506000905061069f61029a83612dc5565b61029a6006546106af9190612dc5565b6106b99190612dd9565b905060006106c78288612dd9565b905080156106de576106de338961ffff1683611c3a565b81156106fd576106fd336106f761ffff8b1660d8612dec565b84611c3a565b6040805188815243602082015261ffff8a169133917f21427a790373fad598033d2f191dd9fc550d58054a7f361c0af4895c351eeaf2910160405180910390a37f6b8aeaa3365d2dfcb9acc94f0a7429b657b4f2008cfafb9b10297011e077c650600754600854678ac7230489e8000060065461077a9190612d7b565b600954600a54604080519586526020860194909452928401919091526060830152608082015260a00160405180910390a15050505050506107bb6001600355565b5050565b6060600280546107ce90612dff565b80601f01602080910402602001604051908101604052809291908181526020018280546107fa90612dff565b80156108475780601f1061081c57610100808354040283529160200191610847565b820191906000526020600020905b81548152906001019060200180831161082a57829003601f168201915b50505050509050919050565b336001600160a01b038616811480159061087457506108728682611739565b155b156108a55760405163711bec9160e11b81526001600160a01b0380831660048301528716602482015260440161052f565b6108b28686868686611cf2565b505050505050565b606081518351146108eb5781518351604051635b05999160e01b81526004810192909252602482015260440161052f565b6000835167ffffffffffffffff811115610907576109076127b2565b604051908082528060200260200182016040528015610930578160200160208202803683370190505b50905060005b845181101561097f5760208082028601015161095a906020808402870101516104a3565b82828151811061096c5761096c612e39565b6020908102919091010152600101610936565b509392505050565b60608060008361099b578461ffff166109aa565b6109aa61ffff861660d8612dec565b6000818152600c6020908152604080832080548251818502810185019093528083529495509293909291830182828015610a0d57602002820191906000526020600020905b81546001600160a01b031681526001909101906020018083116109ef575b505050505090506000805b8251811015610ab857600d60008581526020019081526020016000206000848381518110610a4857610a48612e39565b6020908102919091018101516001600160a01b031682528101919091526040016000205460ff168015610a9d57506000610a9b848381518110610a8d57610a8d612e39565b6020026020010151866104a3565b115b15610ab05781610aac81612e4f565b9250505b600101610a18565b508067ffffffffffffffff811115610ad257610ad26127b2565b604051908082528060200260200182016040528015610afb578160200160208202803683370190505b5094508067ffffffffffffffff811115610b1757610b176127b2565b604051908082528060200260200182016040528015610b40578160200160208202803683370190505b5093506000805b8351811015610cae57600d60008681526020019081526020016000206000858381518110610b7757610b77612e39565b6020908102919091018101516001600160a01b031682528101919091526040016000205460ff168015610bcc57506000610bca858381518110610bbc57610bbc612e39565b6020026020010151876104a3565b115b15610ca657838181518110610be357610be3612e39565b6020026020010151878381518110610bfd57610bfd612e39565b60200260200101906001600160a01b031690816001600160a01b031681525050600b6000858381518110610c3357610c33612e39565b60200260200101516001600160a01b03166001600160a01b0316815260200190815260200160002060008681526020019081526020016000206000015443610c7b9190612dd9565b868381518110610c8d57610c8d612e39565b602090810291909101015281610ca281612e4f565b9250505b600101610b47565b50505050509250929050565b610cc2611d59565b610ccc6000611d86565b565b610cd6611d59565b60405163a9059cbb60e01b8152336004820152602481018290527f00000000000000000000000000000000000000000000000000000000000000006001600160a01b03169063a9059cbb906044016020604051808303816000875af1158015610d43573d6000803e3d6000fd5b505050506040513d601f19601f820116820180604052508101906107bb9190612d92565b6060600060015b60d88111610e01576000818152600d602090815260408083206001600160a01b038816845290915290205460ff1680610ddc5750600d6000610db18360d8612dec565b8152602080820192909252604090810160009081206001600160a01b038816825290925290205460ff165b15610def5781610deb81612e4f565b9250505b80610df981612e4f565b915050610d6e565b508067ffffffffffffffff811115610e1b57610e1b6127b2565b604051908082528060200260200182016040528015610e44578160200160208202803683370190505b509150600060015b60d88161ffff1611610f125761ffff81166000908152600d602090815260408083206001600160a01b038916845290915290205460ff1680610ec75750600d6000610e9c61ffff841660d8612dec565b8152602080820192909252604090810160009081206001600160a01b038916825290925290205460ff165b15610f005780848381518110610edf57610edf612e39565b61ffff9092166020928302919091019091015281610efc81612e4f565b9250505b80610f0a81612e68565b915050610e4c565b505050919050565b6000610f24611c10565b61ffff84166000610f368260d8612dec565b905084610f4333846104a3565b10158015610f5a575083610f5733836104a3565b10155b610f935760405162461bcd60e51b815260206004820152600a6024820152694c61636b20756e69747360b01b604482015260640161052f565b610fbe6040518060800160405280600081526020016000815260200160008152602001600081525090565b6001600160a01b0388166000908152600b6020908152604080832086845290915281205490610fef8761029a612d7b565b610ff99089612dec565b90506000806110088c886104a3565b905060006110168d886104a3565b90506001600160a01b038d163303611041576110328b83612dd9565b915061103e8a82612dd9565b90505b606461104f8261029a612d7b565b6110599084612dec565b61106490606e612d7b565b61106e9190612dc5565b92508260000361107d57600192505b604086019190915260608501528082111561129657600061109e8c87611767565b6110a88d89611767565b6110b29190612dec565b905060006127106110c561029a84612d7b565b6110cf9190612dc5565b90506110db8183612dd9565b985081600560008282546110ef9190612dd9565b9250508190555080600a60008282546111089190612dec565b9250508190555088600960008282546111219190612dec565b909155505060405163a9059cbb60e01b8152336004820152602481018a90527f00000000000000000000000000000000000000000000000000000000000000006001600160a01b03169063a9059cbb906044016020604051808303816000875af1158015611193573d6000803e3d6000fd5b505050506040513d601f19601f820116820180604052508101906111b79190612d92565b6111f15760405162461bcd60e51b815260206004820152600b60248201526a14185e5bdd5d0819985a5b60aa1b604482015260640161052f565b6000600d60008a815260200190815260200160002060008f6001600160a01b03166001600160a01b0316815260200190815260200160002060006101000a81548160ff0219169083151502179055506000600d600089815260200190815260200160002060008f6001600160a01b03166001600160a01b0316815260200190815260200160002060006101000a81548160ff02191690831515021790555050506113bd565b88845260208401889052604084015160608501516112b48380612d7b565b6112be8580612d7b565b6112c89084612d7b565b6112d29190612dc5565b60408701526112e18380612d7b565b6112eb8580612d7b565b6112f59083612d7b565b6112ff9190612dc5565b60608701526040860151820361135f576000600d60008a815260200190815260200160002060008f6001600160a01b03166001600160a01b0316815260200190815260200160002060006101000a81548160ff0219169083151502179055505b856060015181036113ba576000600d600089815260200190815260200160002060008f6001600160a01b03166001600160a01b0316815260200190815260200160002060006101000a81548160ff0219169083151502179055505b50505b604084015184516113ce9190612dec565b600760008282546113df9190612dec565b9091555050606084015160208501516113f89190612dec565b600860008282546114099190612dec565b9091555050604084015115611427576114278b878660400151611dd8565b606084015115611440576114408b868660600151611dd8565b8351156114565761145633878660000151611dd8565b60208401511561146f5761146f33868660200151611dd8565b83516020808601516040808801516060808a0151835196875294860193909352908401528201526080810188905260a0810184905261ffff8b16906001600160a01b038d169033907fe8cf87740e16519b389a47fd487b7c8330c651cf9af2e1a698676cb488a8cd4e9060c00160405180910390a47f6b8aeaa3365d2dfcb9acc94f0a7429b657b4f2008cfafb9b10297011e077c650600754600854678ac7230489e800006006546115219190612d7b565b600954600a54604080519586526020860194909452928401919091526060830152608082015260a00160405180910390a15050505050506115626001600355565b949350505050565b6107bb338383611e40565b60008461ffff1611801561158e575060d88461ffff1611155b6115c95760405162461bcd60e51b815260206004820152600c60248201526b496e76616c69642046726f6d60a01b604482015260640161052f565b60008361ffff161180156115e2575060d88361ffff1611155b80156115f357506115f38484611ed6565b61162a5760405162461bcd60e51b8152602060048201526008602482015267426164206d6f766560c01b604482015260640161052f565b8115611643576116438461ffff168461ffff1684612002565b80156116705761167061165b61ffff861660d8612dec565b61166a61ffff861660d8612dec565b83612002565b6040805161ffff8087168252851660208201529081018390526060810182905243608082015233907f377dc7145bd8ab426842504b448652c41dda00abb7f7c1df6bdfa40bd2a16f2c9060a00160405180910390a27f6b8aeaa3365d2dfcb9acc94f0a7429b657b4f2008cfafb9b10297011e077c650600754600854678ac7230489e800006006546117029190612d7b565b600954600a54604080519586526020860194909452928401919091526060830152608082015260a00160405180910390a150505050565b6001600160a01b03918216600090815260016020908152604080832093909416825291909152205460ff1690565b6001600160a01b0382166000908152600b602090815260408083208484529091528120548103611799575060006104c5565b6001600160a01b0383166000908152600b60209081526040808320858452909152902054620f4240906117cc9043612dd9565b6005546117d99190612d7b565b6117e39190612dc5565b9392505050565b606061ffff821660006117fe8260d8612dec565b6000838152600c602090815260408083208054825181850281018501909352808352949550929390929183018282801561186157602002820191906000526020600020905b81546001600160a01b03168152600190910190602001808311611843575b505050505090506000805b825181101561193357600d6000868152602001908152602001600020600084838151811061189c5761189c612e39565b6020908102919091018101516001600160a01b031682528101919091526040016000205460ff16806119185750600d600085815260200190815260200160002060008483815181106118f0576118f0612e39565b6020908102919091018101516001600160a01b031682528101919091526040016000205460ff165b1561192b578161192781612e4f565b9250505b60010161186c565b5060008167ffffffffffffffff81111561194f5761194f6127b2565b6040519080825280602002602001820160405280156119bb57816020015b6119a86040518060a0016040528060006001600160a01b03168152602001600081526020016000815260200160008152602001600081525090565b81526020019060019003908161196d5790505b5090506000805b8451811015611b165760008582815181106119df576119df612e39565b60209081029190910181015160008a8152600d835260408082206001600160a01b0384168352909352919091205490915060ff1680611a4057506000878152600d602090815260408083206001600160a01b038516845290915290205460ff165b15611b0d576000611a51828a6104a3565b90506000611a5f838a6104a3565b6001600160a01b0384166000818152600b602090815260408083208f845282529182902054825160a0810184529384529083018690529082018390529192506060810182611aae576000611ab8565b611ab88343612dd9565b8152602001611ac7868d611767565b611ad1878f611767565b611adb9190612dec565b815250878781518110611af057611af0612e39565b60200260200101819052508580611b0690612e4f565b9650505050505b506001016119c2565b5090979650505050505050565b336001600160a01b0386168114801590611b445750611b428682611739565b155b15611b755760405163711bec9160e11b81526001600160a01b0380831660048301528716602482015260440161052f565b6108b2868686868661213e565b611b8a611d59565b6001600160a01b038116611bb457604051631e4fbdf760e01b81526000600482015260240161052f565b611bbd81611d86565b50565b60006001600160e01b03198216636cdb3d1360e11b1480611bf157506001600160e01b031982166303a24d0760e21b145b806104c557506301ffc9a760e01b6001600160e01b03198316146104c5565b600260035403611c3357604051633ee5aeb560e01b815260040160405180910390fd5b6002600355565b611c55838383604051806020016040528060008152506121cc565b6001600160a01b0383166000818152600b602090815260408083208684528252808320439055600d8252808320938352929052205460ff16611ced576000828152600c602090815260408083208054600180820183559185528385200180546001600160a01b0319166001600160a01b038916908117909155868552600d8452828520908552909252909120805460ff191690911790555b505050565b6001600160a01b038416611d1c57604051632bfa23e760e11b81526000600482015260240161052f565b6001600160a01b038516611d4557604051626a0d4560e21b81526000600482015260240161052f565b611d528585858585612225565b5050505050565b6004546001600160a01b03163314610ccc5760405163118cdaa760e01b815233600482015260240161052f565b600480546001600160a01b038381166001600160a01b0319831681179093556040519116919082907f8be0079c531659141344cd1fd0a4f28419497f9722a3daafe3b4186f6b6457e090600090a35050565b6001600160a01b038316611e0157604051626a0d4560e21b81526000600482015260240161052f565b604080516001808252602082018590528183019081526060820184905260a08201909252600060808201818152919291611d5291879185908590612225565b6001600160a01b038216611e695760405162ced3e160e81b81526000600482015260240161052f565b6001600160a01b03838116600081815260016020908152604080832094871680845294825291829020805460ff191686151590811790915591519182527f17307eab39ab6107e8899845ad3d59bd9653f200f220920489ca2b5937696c31910160405180910390a3505050565b600080611ee4600185612e89565b90506000611ef3600185612e89565b90506000611f02600684612eab565b905060006006611f128186612ecc565b611f1c9190612eab565b90506000611f2b602486612ecc565b90506000611f3a600686612eab565b905060006006611f4a8188612ecc565b611f549190612eab565b90506000611f63602488612ecc565b90508060010b8460010b13611f8157611f7c8482612eed565b611f8b565b611f8b8185612eed565b8260010b8660010b13611fa757611fa28684612eed565b611fb1565b611fb18387612eed565b8460010b8860010b13611fcd57611fc88886612eed565b611fd7565b611fd78589612eed565b611fe19190612f10565b611feb9190612f10565b61ffff166001149850505050505050505092915050565b8061200d33856104a3565b10156120505760405162461bcd60e51b8152602060048201526012602482015271496e73756666696369656e7420756e69747360701b604482015260640161052f565b61205b338483611dd8565b612076338383604051806020016040528060008152506121cc565b336000818152600b60209081526040808320868452909152902043905561209d90846104a3565b6000036120c6576000838152600d602090815260408083203384529091529020805460ff191690555b6000828152600d6020908152604080832033845290915290205460ff16611ced576000828152600c602090815260408083208054600181810183559185528385200180546001600160a01b03191633908117909155868552600d8452828520908552909252909120805460ff19169091179055505050565b6001600160a01b03841661216857604051632bfa23e760e11b81526000600482015260240161052f565b6001600160a01b03851661219157604051626a0d4560e21b81526000600482015260240161052f565b604080516001808252602082018690528183019081526060820185905260808201909252906121c38787848487612225565b50505050505050565b6001600160a01b0384166121f657604051632bfa23e760e11b81526000600482015260240161052f565b604080516001808252602082018690528183019081526060820185905260808201909252906108b26000878484875b61223185858585612278565b6001600160a01b03841615611d52578251339060010361226a576020848101519084015161226383898985858961248c565b50506108b2565b6108b28187878787876125b0565b80518251146122a75781518151604051635b05999160e01b81526004810192909252602482015260440161052f565b3360005b83518110156123ad576020818102858101820151908501909101516001600160a01b0388161561235e576000828152602081815260408083206001600160a01b038c16845290915290205481811015612337576040516303dee4c560e01b81526001600160a01b038a16600482015260248101829052604481018390526064810184905260840161052f565b6000838152602081815260408083206001600160a01b038d16845290915290209082900390555b6001600160a01b038716156123a3576000828152602081815260408083206001600160a01b038b1684529091528120805483929061239d908490612dec565b90915550505b50506001016122ab565b50825160010361242e5760208301516000906020840151909150856001600160a01b0316876001600160a01b0316846001600160a01b03167fc3d58168c5ae7397731d063d5bbf3d657854427343f4c083240f7aacaa2d0f62858560405161241f929190918252602082015260400190565b60405180910390a45050611d52565b836001600160a01b0316856001600160a01b0316826001600160a01b03167f4a39dc06d4c0dbc64b70af90fd698a233a518aa5d07e595d983b8c0526c8f7fb868660405161247d929190612f33565b60405180910390a45050505050565b6001600160a01b0384163b156108b25760405163f23a6e6160e01b81526001600160a01b0385169063f23a6e61906124d09089908990889088908890600401612f61565b6020604051808303816000875af192505050801561250b575060408051601f3d908101601f1916820190925261250891810190612fa6565b60015b612574573d808015612539576040519150601f19603f3d011682016040523d82523d6000602084013e61253e565b606091505b50805160000361256c57604051632bfa23e760e11b81526001600160a01b038616600482015260240161052f565b805160208201fd5b6001600160e01b0319811663f23a6e6160e01b146121c357604051632bfa23e760e11b81526001600160a01b038616600482015260240161052f565b6001600160a01b0384163b156108b25760405163bc197c8160e01b81526001600160a01b0385169063bc197c81906125f49089908990889088908890600401612fc3565b6020604051808303816000875af192505050801561262f575060408051601f3d908101601f1916820190925261262c91810190612fa6565b60015b61265d573d808015612539576040519150601f19603f3d011682016040523d82523d6000602084013e61253e565b6001600160e01b0319811663bc197c8160e01b146121c357604051632bfa23e760e11b81526001600160a01b038616600482015260240161052f565b80356001600160a01b03811681146126b057600080fd5b919050565b600080604083850312156126c857600080fd5b6126d183612699565b946020939093013593505050565b6001600160e01b031981168114611bbd57600080fd5b60006020828403121561270757600080fd5b81356117e3816126df565b803561ffff811681146126b057600080fd5b6000806040838503121561273757600080fd5b6126d183612712565b60006020828403121561275257600080fd5b5035919050565b6000815180845260005b8181101561277f57602081850181015186830182015201612763565b506000602082860101526020601f19601f83011685010191505092915050565b6020815260006117e36020830184612759565b634e487b7160e01b600052604160045260246000fd5b604051601f8201601f1916810167ffffffffffffffff811182821017156127f1576127f16127b2565b604052919050565b600067ffffffffffffffff821115612813576128136127b2565b5060051b60200190565b600082601f83011261282e57600080fd5b8135602061284361283e836127f9565b6127c8565b8083825260208201915060208460051b87010193508684111561286557600080fd5b602086015b84811015612881578035835291830191830161286a565b509695505050505050565b600082601f83011261289d57600080fd5b813567ffffffffffffffff8111156128b7576128b76127b2565b6128ca601f8201601f19166020016127c8565b8181528460208386010111156128df57600080fd5b816020850160208301376000918101602001919091529392505050565b600080600080600060a0868803121561291457600080fd5b61291d86612699565b945061292b60208701612699565b9350604086013567ffffffffffffffff8082111561294857600080fd5b61295489838a0161281d565b9450606088013591508082111561296a57600080fd5b61297689838a0161281d565b9350608088013591508082111561298c57600080fd5b506129998882890161288c565b9150509295509295909350565b600080604083850312156129b957600080fd5b823567ffffffffffffffff808211156129d157600080fd5b818501915085601f8301126129e557600080fd5b813560206129f561283e836127f9565b82815260059290921b84018101918181019089841115612a1457600080fd5b948201945b83861015612a3957612a2a86612699565b82529482019490820190612a19565b96505086013592505080821115612a4f57600080fd5b50612a5c8582860161281d565b9150509250929050565b60008151808452602080850194506020840160005b83811015612a9757815187529582019590820190600101612a7b565b509495945050505050565b6020815260006117e36020830184612a66565b8015158114611bbd57600080fd5b60008060408385031215612ad657600080fd5b612adf83612712565b91506020830135612aef81612ab5565b809150509250929050565b604080825283519082018190526000906020906060840190828701845b82811015612b3c5781516001600160a01b031684529284019290840190600101612b17565b5050508381036020850152612b518186612a66565b9695505050505050565b600060208284031215612b6d57600080fd5b6117e382612699565b6020808252825182820181905260009190848201906040850190845b81811015612bb257835161ffff1683529284019291840191600101612b92565b50909695505050505050565b60008060008060808587031215612bd457600080fd5b612bdd85612699565b9350612beb60208601612712565b93969395505050506040820135916060013590565b60008060408385031215612c1357600080fd5b612adf83612699565b60008060008060808587031215612c3257600080fd5b612bdd85612712565b60008060408385031215612c4e57600080fd5b612c5783612699565b9150612c6560208401612699565b90509250929050565b600060208284031215612c8057600080fd5b6117e382612712565b602080825282518282018190526000919060409081850190868401855b82811015612cf357815180516001600160a01b0316855286810151878601528581015186860152606080820151908601526080908101519085015260a09093019290850190600101612ca6565b5091979650505050505050565b600080600080600060a08688031215612d1857600080fd5b612d2186612699565b9450612d2f60208701612699565b93506040860135925060608601359150608086013567ffffffffffffffff811115612d5957600080fd5b6129998882890161288c565b634e487b7160e01b600052601160045260246000fd5b80820281158282048414176104c5576104c5612d65565b600060208284031215612da457600080fd5b81516117e381612ab5565b634e487b7160e01b600052601260045260246000fd5b600082612dd457612dd4612daf565b500490565b818103818111156104c5576104c5612d65565b808201808211156104c5576104c5612d65565b600181811c90821680612e1357607f821691505b602082108103612e3357634e487b7160e01b600052602260045260246000fd5b50919050565b634e487b7160e01b600052603260045260246000fd5b600060018201612e6157612e61612d65565b5060010190565b600061ffff808316818103612e7f57612e7f612d65565b6001019392505050565b61ffff828116828216039080821115612ea457612ea4612d65565b5092915050565b600061ffff80841680612ec057612ec0612daf565b92169190910692915050565b600061ffff80841680612ee157612ee1612daf565b92169190910492915050565b600182810b9082900b03617fff198112617fff821317156104c5576104c5612d65565b600181810b9083900b01617fff8113617fff19821217156104c5576104c5612d65565b604081526000612f466040830185612a66565b8281036020840152612f588185612a66565b95945050505050565b6001600160a01b03868116825285166020820152604081018490526060810183905260a060808201819052600090612f9b90830184612759565b979650505050505050565b600060208284031215612fb857600080fd5b81516117e3816126df565b6001600160a01b0386811682528516602082015260a060408201819052600090612fef90830186612a66565b82810360608401526130018186612a66565b905082810360808401526130158185612759565b9897505050505050505056fea264697066735822122056d9c82f603cbe8f4c385379358eff8bb4a1b03e9a0d8d7c886e5ab589c299fd64736f6c6343000818003368747470733a2f2f6170692e6b696c6c67616d652e61692f6d657461646174612f7b69647d2e6a736f6e",
  "linkReferences": {},
  "deployedLinkReferences": {}
}