{
  "_format": "hh-sol-artifact-1",
  "contractName": "KILLGame",
  "sourceName": "contracts/KillGame.sol",
  "abi": [
    {
      "inputs": [
        {
          "internalType": "address",
          "name": "_tokenAddress",
          "type": "address"
        }
      ],
      "stateMutability": "nonpayable",
      "type": "constructor"
    },
    {
      "inputs": [
        {
          "internalType": "address",
          "name": "sender",
          "type": "address"
        },
        {
          "internalType": "uint256",
          "name": "balance",
          "type": "uint256"
        },
        {
          "internalType": "uint256",
          "name": "needed",
          "type": "uint256"
        },
        {
          "internalType": "uint256",
          "name": "tokenId",
          "type": "uint256"
        }
      ],
      "name": "ERC1155InsufficientBalance",
      "type": "error"
    },
    {
      "inputs": [
        {
          "internalType": "address",
          "name": "approver",
          "type": "address"
        }
      ],
      "name": "ERC1155InvalidApprover",
      "type": "error"
    },
    {
      "inputs": [
        {
          "internalType": "uint256",
          "name": "idsLength",
          "type": "uint256"
        },
        {
          "internalType": "uint256",
          "name": "valuesLength",
          "type": "uint256"
        }
      ],
      "name": "ERC1155InvalidArrayLength",
      "type": "error"
    },
    {
      "inputs": [
        {
          "internalType": "address",
          "name": "operator",
          "type": "address"
        }
      ],
      "name": "ERC1155InvalidOperator",
      "type": "error"
    },
    {
      "inputs": [
        {
          "internalType": "address",
          "name": "receiver",
          "type": "address"
        }
      ],
      "name": "ERC1155InvalidReceiver",
      "type": "error"
    },
    {
      "inputs": [
        {
          "internalType": "address",
          "name": "sender",
          "type": "address"
        }
      ],
      "name": "ERC1155InvalidSender",
      "type": "error"
    },
    {
      "inputs": [
        {
          "internalType": "address",
          "name": "operator",
          "type": "address"
        },
        {
          "internalType": "address",
          "name": "owner",
          "type": "address"
        }
      ],
      "name": "ERC1155MissingApprovalForAll",
      "type": "error"
    },
    {
      "inputs": [
        {
          "internalType": "address",
          "name": "owner",
          "type": "address"
        }
      ],
      "name": "OwnableInvalidOwner",
      "type": "error"
    },
    {
      "inputs": [
        {
          "internalType": "address",
          "name": "account",
          "type": "address"
        }
      ],
      "name": "OwnableUnauthorizedAccount",
      "type": "error"
    },
    {
      "inputs": [],
      "name": "ReentrancyGuardReentrantCall",
      "type": "error"
    },
    {
      "anonymous": false,
      "inputs": [
        {
          "indexed": true,
          "internalType": "address",
          "name": "account",
          "type": "address"
        },
        {
          "indexed": true,
          "internalType": "address",
          "name": "operator",
          "type": "address"
        },
        {
          "indexed": false,
          "internalType": "bool",
          "name": "approved",
          "type": "bool"
        }
      ],
      "name": "ApprovalForAll",
      "type": "event"
    },
    {
      "anonymous": false,
      "inputs": [
        {
          "indexed": true,
          "internalType": "address",
          "name": "defender",
          "type": "address"
        },
        {
          "indexed": false,
          "internalType": "uint256",
          "name": "amount",
          "type": "uint256"
        }
      ],
      "name": "DefenderRewarded",
      "type": "event"
    },
    {
      "anonymous": false,
      "inputs": [
        {
          "indexed": false,
          "internalType": "uint256",
          "name": "totalUnitsKilled",
          "type": "uint256"
        },
        {
          "indexed": false,
          "internalType": "uint256",
          "name": "totalReaperKilled",
          "type": "uint256"
        },
        {
          "indexed": false,
          "internalType": "uint256",
          "name": "killAdded",
          "type": "uint256"
        },
        {
          "indexed": false,
          "internalType": "uint256",
          "name": "killExtracted",
          "type": "uint256"
        },
        {
          "indexed": false,
          "internalType": "uint256",
          "name": "killBurned",
          "type": "uint256"
        }
      ],
      "name": "GlobalStats",
      "type": "event"
    },
    {
      "anonymous": false,
      "inputs": [
        {
          "indexed": true,
          "internalType": "address",
          "name": "attacker",
          "type": "address"
        },
        {
          "indexed": true,
          "internalType": "address",
          "name": "target",
          "type": "address"
        },
        {
          "indexed": true,
          "internalType": "uint16",
          "name": "stackId",
          "type": "uint16"
        },
        {
          "indexed": false,
          "internalType": "uint256",
          "name": "attackerUnitsLost",
          "type": "uint256"
        },
        {
          "indexed": false,
          "internalType": "uint256",
          "name": "attackerReaperLost",
          "type": "uint256"
        },
        {
          "indexed": false,
          "internalType": "uint256",
          "name": "targetUnitsLost",
          "type": "uint256"
        },
        {
          "indexed": false,
          "internalType": "uint256",
          "name": "targetReaperLost",
          "type": "uint256"
        },
        {
          "indexed": false,
          "internalType": "uint256",
          "name": "netBounty",
          "type": "uint256"
        },
        {
          "indexed": false,
          "internalType": "uint256",
          "name": "targetBirthBlock",
          "type": "uint256"
        }
      ],
      "name": "Killed",
      "type": "event"
    },
    {
      "anonymous": false,
      "inputs": [
        {
          "indexed": true,
          "internalType": "address",
          "name": "agent",
          "type": "address"
        },
        {
          "indexed": false,
          "internalType": "uint16",
          "name": "fromStack",
          "type": "uint16"
        },
        {
          "indexed": false,
          "internalType": "uint16",
          "name": "toStack",
          "type": "uint16"
        },
        {
          "indexed": false,
          "internalType": "uint256",
          "name": "units",
          "type": "uint256"
        },
        {
          "indexed": false,
          "internalType": "uint256",
          "name": "reaper",
          "type": "uint256"
        },
        {
          "indexed": false,
          "internalType": "uint256",
          "name": "birthBlock",
          "type": "uint256"
        }
      ],
      "name": "Moved",
      "type": "event"
    },
    {
      "anonymous": false,
      "inputs": [
        {
          "indexed": true,
          "internalType": "address",
          "name": "previousOwner",
          "type": "address"
        },
        {
          "indexed": true,
          "internalType": "address",
          "name": "newOwner",
          "type": "address"
        }
      ],
      "name": "OwnershipTransferred",
      "type": "event"
    },
    {
      "anonymous": false,
      "inputs": [
        {
          "indexed": true,
          "internalType": "address",
          "name": "agent",
          "type": "address"
        },
        {
          "indexed": true,
          "internalType": "uint256",
          "name": "stackId",
          "type": "uint256"
        },
        {
          "indexed": false,
          "internalType": "uint256",
          "name": "units",
          "type": "uint256"
        },
        {
          "indexed": false,
          "internalType": "uint256",
          "name": "birthBlock",
          "type": "uint256"
        }
      ],
      "name": "Spawned",
      "type": "event"
    },
    {
      "anonymous": false,
      "inputs": [
        {
          "indexed": true,
          "internalType": "address",
          "name": "operator",
          "type": "address"
        },
        {
          "indexed": true,
          "internalType": "address",
          "name": "from",
          "type": "address"
        },
        {
          "indexed": true,
          "internalType": "address",
          "name": "to",
          "type": "address"
        },
        {
          "indexed": false,
          "internalType": "uint256[]",
          "name": "ids",
          "type": "uint256[]"
        },
        {
          "indexed": false,
          "internalType": "uint256[]",
          "name": "values",
          "type": "uint256[]"
        }
      ],
      "name": "TransferBatch",
      "type": "event"
    },
    {
      "anonymous": false,
      "inputs": [
        {
          "indexed": true,
          "internalType": "address",
          "name": "operator",
          "type": "address"
        },
        {
          "indexed": true,
          "internalType": "address",
          "name": "from",
          "type": "address"
        },
        {
          "indexed": true,
          "internalType": "address",
          "name": "to",
          "type": "address"
        },
        {
          "indexed": false,
          "internalType": "uint256",
          "name": "id",
          "type": "uint256"
        },
        {
          "indexed": false,
          "internalType": "uint256",
          "name": "value",
          "type": "uint256"
        }
      ],
      "name": "TransferSingle",
      "type": "event"
    },
    {
      "anonymous": false,
      "inputs": [
        {
          "indexed": false,
          "internalType": "uint256",
          "name": "oldBps",
          "type": "uint256"
        },
        {
          "indexed": false,
          "internalType": "uint256",
          "name": "newBps",
          "type": "uint256"
        }
      ],
      "name": "TreasuryBpsUpdated",
      "type": "event"
    },
    {
      "anonymous": false,
      "inputs": [
        {
          "indexed": false,
          "internalType": "string",
          "name": "value",
          "type": "string"
        },
        {
          "indexed": true,
          "internalType": "uint256",
          "name": "id",
          "type": "uint256"
        }
      ],
      "name": "URI",
      "type": "event"
    },
    {
      "inputs": [],
      "name": "BURN_BPS",
      "outputs": [
        {
          "internalType": "uint256",
          "name": "",
          "type": "uint256"
        }
      ],
      "stateMutability": "view",
      "type": "function"
    },
    {
      "inputs": [],
      "name": "BURN_OF_TREASURY_BPS",
      "outputs": [
        {
          "internalType": "uint256",
          "name": "",
          "type": "uint256"
        }
      ],
      "stateMutability": "view",
      "type": "function"
    },
    {
      "inputs": [],
      "name": "MOVE_COST",
      "outputs": [
        {
          "internalType": "uint256",
          "name": "",
          "type": "uint256"
        }
      ],
      "stateMutability": "view",
      "type": "function"
    },
    {
      "inputs": [],
      "name": "REAPER_SPAWN_COST",
      "outputs": [
        {
          "internalType": "uint256",
          "name": "",
          "type": "uint256"
        }
      ],
      "stateMutability": "view",
      "type": "function"
    },
    {
      "inputs": [],
      "name": "SENDER_BPS",
      "outputs": [
        {
          "internalType": "uint256",
          "name": "",
          "type": "uint256"
        }
      ],
      "stateMutability": "view",
      "type": "function"
    },
    {
      "inputs": [],
      "name": "SPAWN_COST",
      "outputs": [
        {
          "internalType": "uint256",
          "name": "",
          "type": "uint256"
        }
      ],
      "stateMutability": "view",
      "type": "function"
    },
    {
      "inputs": [
        {
          "internalType": "uint256",
          "name": "amt",
          "type": "uint256"
        }
      ],
      "name": "adminWithdraw",
      "outputs": [],
      "stateMutability": "nonpayable",
      "type": "function"
    },
    {
      "inputs": [
        {
          "internalType": "address",
          "name": "",
          "type": "address"
        },
        {
          "internalType": "uint256",
          "name": "",
          "type": "uint256"
        }
      ],
      "name": "agentStacks",
      "outputs": [
        {
          "internalType": "uint256",
          "name": "birthBlock",
          "type": "uint256"
        }
      ],
      "stateMutability": "view",
      "type": "function"
    },
    {
      "inputs": [
        {
          "internalType": "address",
          "name": "",
          "type": "address"
        }
      ],
      "name": "agentTotalProfit",
      "outputs": [
        {
          "internalType": "uint256",
          "name": "",
          "type": "uint256"
        }
      ],
      "stateMutability": "view",
      "type": "function"
    },
    {
      "inputs": [
        {
          "internalType": "address",
          "name": "account",
          "type": "address"
        },
        {
          "internalType": "uint256",
          "name": "id",
          "type": "uint256"
        }
      ],
      "name": "balanceOf",
      "outputs": [
        {
          "internalType": "uint256",
          "name": "",
          "type": "uint256"
        }
      ],
      "stateMutability": "view",
      "type": "function"
    },
    {
      "inputs": [
        {
          "internalType": "address[]",
          "name": "accounts",
          "type": "address[]"
        },
        {
          "internalType": "uint256[]",
          "name": "ids",
          "type": "uint256[]"
        }
      ],
      "name": "balanceOfBatch",
      "outputs": [
        {
          "internalType": "uint256[]",
          "name": "",
          "type": "uint256[]"
        }
      ],
      "stateMutability": "view",
      "type": "function"
    },
    {
      "inputs": [
        {
          "internalType": "address",
          "name": "agent",
          "type": "address"
        },
        {
          "internalType": "uint256",
          "name": "id",
          "type": "uint256"
        }
      ],
      "name": "getBirthBlock",
      "outputs": [
        {
          "internalType": "uint256",
          "name": "",
          "type": "uint256"
        }
      ],
      "stateMutability": "view",
      "type": "function"
    },
    {
      "inputs": [
        {
          "internalType": "uint16",
          "name": "stackId",
          "type": "uint16"
        }
      ],
      "name": "getFullStack",
      "outputs": [
        {
          "components": [
            {
              "internalType": "address",
              "name": "occupant",
              "type": "address"
            },
            {
              "internalType": "uint256",
              "name": "units",
              "type": "uint256"
            },
            {
              "internalType": "uint256",
              "name": "reapers",
              "type": "uint256"
            },
            {
              "internalType": "uint256",
              "name": "age",
              "type": "uint256"
            },
            {
              "internalType": "uint256",
              "name": "pendingBounty",
              "type": "uint256"
            }
          ],
          "internalType": "struct KILLGame.StackInfo[]",
          "name": "",
          "type": "tuple[]"
        }
      ],
      "stateMutability": "view",
      "type": "function"
    },
    {
      "inputs": [
        {
          "internalType": "address",
          "name": "agent",
          "type": "address"
        },
        {
          "internalType": "uint256",
          "name": "id",
          "type": "uint256"
        }
      ],
      "name": "getPendingBounty",
      "outputs": [
        {
          "internalType": "uint256",
          "name": "",
          "type": "uint256"
        }
      ],
      "stateMutability": "view",
      "type": "function"
    },
    {
      "inputs": [
        {
          "internalType": "address",
          "name": "account",
          "type": "address"
        },
        {
          "internalType": "address",
          "name": "operator",
          "type": "address"
        }
      ],
      "name": "isApprovedForAll",
      "outputs": [
        {
          "internalType": "bool",
          "name": "",
          "type": "bool"
        }
      ],
      "stateMutability": "view",
      "type": "function"
    },
    {
      "inputs": [
        {
          "internalType": "address",
          "name": "target",
          "type": "address"
        },
        {
          "internalType": "uint16",
          "name": "stackId",
          "type": "uint16"
        },
        {
          "internalType": "uint256",
          "name": "sentUnits",
          "type": "uint256"
        },
        {
          "internalType": "uint256",
          "name": "sentReaper",
          "type": "uint256"
        }
      ],
      "name": "kill",
      "outputs": [
        {
          "internalType": "uint256",
          "name": "attackerBounty",
          "type": "uint256"
        }
      ],
      "stateMutability": "nonpayable",
      "type": "function"
    },
    {
      "inputs": [],
      "name": "killToken",
      "outputs": [
        {
          "internalType": "contract IERC20",
          "name": "",
          "type": "address"
        }
      ],
      "stateMutability": "view",
      "type": "function"
    },
    {
      "inputs": [
        {
          "internalType": "uint16",
          "name": "fromStack",
          "type": "uint16"
        },
        {
          "internalType": "uint16",
          "name": "toStack",
          "type": "uint16"
        },
        {
          "internalType": "uint256",
          "name": "units",
          "type": "uint256"
        },
        {
          "internalType": "uint256",
          "name": "reaper",
          "type": "uint256"
        }
      ],
      "name": "move",
      "outputs": [],
      "stateMutability": "nonpayable",
      "type": "function"
    },
    {
      "inputs": [],
      "name": "owner",
      "outputs": [
        {
          "internalType": "address",
          "name": "",
          "type": "address"
        }
      ],
      "stateMutability": "view",
      "type": "function"
    },
    {
      "inputs": [],
      "name": "renounceOwnership",
      "outputs": [],
      "stateMutability": "nonpayable",
      "type": "function"
    },
    {
      "inputs": [
        {
          "internalType": "address",
          "name": "from",
          "type": "address"
        },
        {
          "internalType": "address",
          "name": "to",
          "type": "address"
        },
        {
          "internalType": "uint256[]",
          "name": "ids",
          "type": "uint256[]"
        },
        {
          "internalType": "uint256[]",
          "name": "values",
          "type": "uint256[]"
        },
        {
          "internalType": "bytes",
          "name": "data",
          "type": "bytes"
        }
      ],
      "name": "safeBatchTransferFrom",
      "outputs": [],
      "stateMutability": "nonpayable",
      "type": "function"
    },
    {
      "inputs": [
        {
          "internalType": "address",
          "name": "from",
          "type": "address"
        },
        {
          "internalType": "address",
          "name": "to",
          "type": "address"
        },
        {
          "internalType": "uint256",
          "name": "id",
          "type": "uint256"
        },
        {
          "internalType": "uint256",
          "name": "value",
          "type": "uint256"
        },
        {
          "internalType": "bytes",
          "name": "data",
          "type": "bytes"
        }
      ],
      "name": "safeTransferFrom",
      "outputs": [],
      "stateMutability": "nonpayable",
      "type": "function"
    },
    {
      "inputs": [
        {
          "internalType": "address",
          "name": "operator",
          "type": "address"
        },
        {
          "internalType": "bool",
          "name": "approved",
          "type": "bool"
        }
      ],
      "name": "setApprovalForAll",
      "outputs": [],
      "stateMutability": "nonpayable",
      "type": "function"
    },
    {
      "inputs": [
        {
          "internalType": "uint256",
          "name": "_newBps",
          "type": "uint256"
        }
      ],
      "name": "setTreasuryBps",
      "outputs": [],
      "stateMutability": "nonpayable",
      "type": "function"
    },
    {
      "inputs": [
        {
          "internalType": "uint16",
          "name": "stackId",
          "type": "uint16"
        },
        {
          "internalType": "uint256",
          "name": "amount",
          "type": "uint256"
        }
      ],
      "name": "spawn",
      "outputs": [],
      "stateMutability": "nonpayable",
      "type": "function"
    },
    {
      "inputs": [
        {
          "internalType": "bytes4",
          "name": "id",
          "type": "bytes4"
        }
      ],
      "name": "supportsInterface",
      "outputs": [
        {
          "internalType": "bool",
          "name": "",
          "type": "bool"
        }
      ],
      "stateMutability": "view",
      "type": "function"
    },
    {
      "inputs": [],
      "name": "totalKillBurned",
      "outputs": [
        {
          "internalType": "uint256",
          "name": "",
          "type": "uint256"
        }
      ],
      "stateMutability": "view",
      "type": "function"
    },
    {
      "inputs": [],
      "name": "totalKillExtracted",
      "outputs": [
        {
          "internalType": "uint256",
          "name": "",
          "type": "uint256"
        }
      ],
      "stateMutability": "view",
      "type": "function"
    },
    {
      "inputs": [],
      "name": "totalReaperKilled",
      "outputs": [
        {
          "internalType": "uint256",
          "name": "",
          "type": "uint256"
        }
      ],
      "stateMutability": "view",
      "type": "function"
    },
    {
      "inputs": [],
      "name": "totalUnitsKilled",
      "outputs": [
        {
          "internalType": "uint256",
          "name": "",
          "type": "uint256"
        }
      ],
      "stateMutability": "view",
      "type": "function"
    },
    {
      "inputs": [],
      "name": "totalUnitsMinted",
      "outputs": [
        {
          "internalType": "uint256",
          "name": "",
          "type": "uint256"
        }
      ],
      "stateMutability": "view",
      "type": "function"
    },
    {
      "inputs": [
        {
          "internalType": "address",
          "name": "newOwner",
          "type": "address"
        }
      ],
      "name": "transferOwnership",
      "outputs": [],
      "stateMutability": "nonpayable",
      "type": "function"
    },
    {
      "inputs": [],
      "name": "treasuryBalance",
      "outputs": [
        {
          "internalType": "uint256",
          "name": "",
          "type": "uint256"
        }
      ],
      "stateMutability": "view",
      "type": "function"
    },
    {
      "inputs": [],
      "name": "treasuryBps",
      "outputs": [
        {
          "internalType": "uint256",
          "name": "",
          "type": "uint256"
        }
      ],
      "stateMutability": "view",
      "type": "function"
    },
    {
      "inputs": [
        {
          "internalType": "uint256",
          "name": "",
          "type": "uint256"
        }
      ],
      "name": "uri",
      "outputs": [
        {
          "internalType": "string",
          "name": "",
          "type": "string"
        }
      ],
      "stateMutability": "view",
      "type": "function"
    }
  ],
  "bytecode": "0x60a06040526109c46005553480156200001757600080fd5b506040516200313c3803806200313c8339810160408190526200003a9162000117565b336040518060600160405280602a815260200162003112602a91396200006081620000b3565b5060016003556001600160a01b0381166200009557604051631e4fbdf760e01b81526000600482015260240160405180910390fd5b620000a081620000c5565b506001600160a01b0316608052620002bc565b6002620000c18282620001f0565b5050565b600480546001600160a01b038381166001600160a01b0319831681179093556040519116919082907f8be0079c531659141344cd1fd0a4f28419497f9722a3daafe3b4186f6b6457e090600090a35050565b6000602082840312156200012a57600080fd5b81516001600160a01b03811681146200014257600080fd5b9392505050565b634e487b7160e01b600052604160045260246000fd5b600181811c908216806200017457607f821691505b6020821081036200019557634e487b7160e01b600052602260045260246000fd5b50919050565b601f821115620001eb576000816000526020600020601f850160051c81016020861015620001c65750805b601f850160051c820191505b81811015620001e757828155600101620001d2565b5050505b505050565b81516001600160401b038111156200020c576200020c62000149565b62000224816200021d84546200015f565b846200019b565b602080601f8311600181146200025c5760008415620002435750858301515b600019600386901b1c1916600185901b178555620001e7565b600085815260208120601f198616915b828110156200028d578886015182559484019460019091019084016200026c565b5085821015620002ac5787850151600019600388901b60f8161c191681555b5050505050600190811b01905550565b608051612e1e620002f4600039600081816102aa015281816105a9015281816109e201528181610fad0152611b580152612e1e6000f3fe608060405234801561001057600080fd5b50600436106102105760003560e01c80637c5b4a3711610125578063c68e8075116100ad578063ea075ee11161007c578063ea075ee114610457578063edbd5df81461046a578063ef0a131114610495578063f242432a146104b5578063f2fde38b146104c857600080fd5b8063c68e807514610411578063c704c3f1146103a6578063e74fe23714610431578063e985e9c51461044457600080fd5b806394456848116100f457806394456848146103a6578063a22cb465146103b5578063a37a9fc01461025e578063b8011328146103c8578063bb6eb359146103fe57600080fd5b80637c5b4a371461036657806388b00adc146103795780638da5cb5b1461038257806391fa2a6a1461039357600080fd5b80632ee8174e116101a85780634e1273f4116101775780634e1273f41461031b5780635635fdbc1461033b57806358510ac814610344578063715018a614610355578063781298821461035d57600080fd5b80632ee8174e146102f7578063313dab20146103005780633b8726e2146103095780634dc10ea11461031257600080fd5b80630a08f3d0116101e45780630a08f3d01461027c5780630e89341c146102855780632bd7cd17146102a55780632eb2c2d6146102e457600080fd5b8062fdd58e1461021557806301ffc9a71461023b578063081e87b91461025e57806309f6182614610267575b600080fd5b610228610223366004612562565b6104db565b6040519081526020015b60405180910390f35b61024e6102493660046125a2565b610503565b6040519015158152602001610232565b61022861029a81565b61027a6102753660046125d1565b61050e565b005b61022860075481565b6102986102933660046125ed565b6107e2565b604051610232919061264c565b6102cc7f000000000000000000000000000000000000000000000000000000000000000081565b6040516001600160a01b039091168152602001610232565b61027a6102f23660046127a9565b610876565b61022860095481565b61022860065481565b610228611d4c81565b61022860055481565b61032e610329366004612853565b6108dd565b604051610232919061294f565b610228600a5481565b6102286901690a1119cec590000081565b61027a6109aa565b61022860085481565b61027a6103743660046125ed565b6109be565b610228600b5481565b6004546001600160a01b03166102cc565b6102286103a1366004612962565b610a57565b610228678ac7230489e8000081565b61027a6103c33660046129b2565b610e32565b6102286103d6366004612562565b6001600160a01b03919091166000908152600c60209081526040808320938352929052205490565b61027a61040c3660046125ed565b610e3d565b61022861041f3660046129e9565b600f6020526000908152604090205481565b61027a61043f366004612a04565b610ec7565b61024e610452366004612a23565b6111df565b610228610465366004612562565b61120d565b610228610478366004612562565b600c60209081526000928352604080842090915290825290205481565b6104a86104a3366004612a56565b6112a0565b6040516102329190612a71565b61027a6104c3366004612ae8565b6115d9565b61027a6104d63660046129e9565b611638565b6000818152602081815260408083206001600160a01b03861684529091529020545b92915050565b60006104fd82611676565b6105166116c6565b60008261ffff1611801561052f575060d88261ffff1611155b6105705760405162461bcd60e51b815260206004820152600d60248201526c496e76616c696420537461636b60981b60448201526064015b60405180910390fd5b6000610584678ac7230489e8000083612b63565b6040516323b872dd60e01b8152336004820152306024820152604481018290529091507f00000000000000000000000000000000000000000000000000000000000000006001600160a01b0316906323b872dd906064016020604051808303816000875af11580156105fa573d6000803e3d6000fd5b505050506040513d601f19601f8201168201806040525081019061061e9190612b7a565b6106555760405162461bcd60e51b815260206004820152600860248201526714185e4819985a5b60c21b6044820152606401610567565b600061271061066661029a84612b63565b6106709190612bad565b9050600061067e8284612bc1565b905080600660008282546106929190612bd4565b9250508190555081600b60008282546106ab9190612bd4565b90915550506007805490859060006106c38385612bd4565b90915550600090506106d761029a83612bad565b61029a6007546106e79190612bad565b6106f19190612bc1565b9050610702338861ffff16886116f0565b8015610721576107213361071b61ffff8a1660d8612bd4565b836116f0565b6040805187815243602082015261ffff89169133917f21427a790373fad598033d2f191dd9fc550d58054a7f361c0af4895c351eeaf2910160405180910390a37f6b8aeaa3365d2dfcb9acc94f0a7429b657b4f2008cfafb9b10297011e077c650600854600954678ac7230489e8000060075461079e9190612b63565b600a54600b54604080519586526020860194909452928401919091526060830152608082015260a00160405180910390a150505050506107de6001600355565b5050565b6060600280546107f190612be7565b80601f016020809104026020016040519081016040528092919081815260200182805461081d90612be7565b801561086a5780601f1061083f5761010080835404028352916020019161086a565b820191906000526020600020905b81548152906001019060200180831161084d57829003601f168201915b50505050509050919050565b336001600160a01b0386168114801590610897575061089586826111df565b155b156108c85760405163711bec9160e11b81526001600160a01b03808316600483015287166024820152604401610567565b6108d586868686866117a8565b505050505050565b6060815183511461090e5781518351604051635b05999160e01b815260048101929092526024820152604401610567565b6000835167ffffffffffffffff81111561092a5761092a61265f565b604051908082528060200260200182016040528015610953578160200160208202803683370190505b50905060005b84518110156109a25760208082028601015161097d906020808402870101516104db565b82828151811061098f5761098f612c21565b6020908102919091010152600101610959565b509392505050565b6109b261180f565b6109bc600061183c565b565b6109c661180f565b60405163a9059cbb60e01b8152336004820152602481018290527f00000000000000000000000000000000000000000000000000000000000000006001600160a01b03169063a9059cbb906044016020604051808303816000875af1158015610a33573d6000803e3d6000fd5b505050506040513d601f19601f820116820180604052508101906107de9190612b7a565b6000610a616116c6565b61ffff84166000610a738260d8612bd4565b905084610a8033846104db565b10158015610a97575083610a9433836104db565b10155b610ad05760405162461bcd60e51b815260206004820152600a6024820152694c61636b20756e69747360b01b6044820152606401610567565b6001600160a01b0387166000908152600c6020908152604080832085845290915281205490610b03338a86868b8b61188e565b9050610b0f89856104db565b816040015103610b44576000848152600e602090815260408083206001600160a01b038d1684529091529020805460ff191690555b610b4e89846104db565b816060015103610b83576000838152600e602090815260408083206001600160a01b038d1684529091529020805460ff191690555b600081604001511180610b9a575060008160600151115b15610be457610bb38985836040015184606001516119ee565b9450610bbf3386611ab5565b336000908152600f602052604081208054879290610bde908490612bd4565b90915550505b8051600090151580610bfa575060008260200151115b15610c8b576901690a1119cec59000008260200151610c199190612b63565b8251610c2e90678ac7230489e8000090612b63565b610c389190612bd4565b90506064610c4782604b612b63565b610c519190612bad565b9050610c5d8a82611ab5565b6001600160a01b038a166000908152600f602052604081208054839290610c85908490612bd4565b90915550505b610c9482611bff565b604082015115610cad57610cad8a868460400151611c53565b606082015115610cc657610cc68a858460600151611c53565b815115610cdc57610cdc33868460000151611c53565b602082015115610cf557610cf533858460200151611c53565b8151602080840151604080860151606080880151835196875294860193909352908401528201526080810187905260a0810184905261ffff8a16906001600160a01b038c169033907fe8cf87740e16519b389a47fd487b7c8330c651cf9af2e1a698676cb488a8cd4e9060c00160405180910390a4896001600160a01b03167fdf7a5d9a98a2f71d704a4e6a4c0422d79ed27521ad9cfd55e985d5fb94cfaffe82604051610da591815260200190565b60405180910390a27f6b8aeaa3365d2dfcb9acc94f0a7429b657b4f2008cfafb9b10297011e077c650600854600954678ac7230489e80000600754610dea9190612b63565b600a54600b54604080519586526020860194909452928401919091526060830152608082015260a00160405180910390a15050505050610e2a6001600355565b949350505050565b6107de338383611cbb565b610e4561180f565b612710811115610e825760405162461bcd60e51b81526020600482015260086024820152674d6178203130302560c01b6044820152606401610567565b600580549082905560408051828152602081018490527f6993bc581306fd40069a7f8d78fd994e52ce66bdacf741f949a3e4bdcf28ca80910160405180910390a15050565b610ecf6116c6565b60008461ffff16118015610ee8575060d88461ffff1611155b610f235760405162461bcd60e51b815260206004820152600c60248201526b496e76616c69642046726f6d60a01b6044820152606401610567565b60008361ffff16118015610f3c575060d88361ffff1611155b8015610f4d5750610f4d8484611d51565b610f845760405162461bcd60e51b8152602060048201526008602482015267426164206d6f766560c01b6044820152606401610567565b6040516323b872dd60e01b8152336004820152306024820152678ac7230489e8000060448201527f00000000000000000000000000000000000000000000000000000000000000006001600160a01b0316906323b872dd906064016020604051808303816000875af1158015610ffe573d6000803e3d6000fd5b505050506040513d601f19601f820116820180604052508101906110229190612b7a565b6110595760405162461bcd60e51b815260206004820152600860248201526714185e4819985a5b60c21b6044820152606401610567565b600061271061107261029a678ac7230489e80000612b63565b61107c9190612bad565b9050600061109282678ac7230489e80000612bc1565b905080600660008282546110a69190612bd4565b9250508190555081600b60008282546110bf9190612bd4565b909155505083156110dd576110dd8661ffff168661ffff1686611e7d565b821561110a5761110a6110f561ffff881660d8612bd4565b61110461ffff881660d8612bd4565b85611e7d565b6040805161ffff8089168252871660208201529081018590526060810184905243608082015233907f377dc7145bd8ab426842504b448652c41dda00abb7f7c1df6bdfa40bd2a16f2c9060a00160405180910390a27f6b8aeaa3365d2dfcb9acc94f0a7429b657b4f2008cfafb9b10297011e077c650600854600954678ac7230489e8000060075461119c9190612b63565b600a54600b54604080519586526020860194909452928401919091526060830152608082015260a00160405180910390a150506111d96001600355565b50505050565b6001600160a01b03918216600090815260016020908152604080832093909416825291909152205460ff1690565b6001600160a01b0382166000908152600c60209081526040808320848452909152812054810361123f575060006104fd565b6005546001600160a01b0384166000908152600c602090815260408083208684529091529020546402540be40091906112789043612bc1565b6006546112859190612b63565b61128f9190612b63565b6112999190612bad565b9392505050565b606061ffff821660006112b48260d8612bd4565b6000838152600d602090815260408083208054825181850281018501909352808352949550929390929183018282801561131757602002820191906000526020600020905b81546001600160a01b031681526001909101906020018083116112f9575b505050505090506000805b82518110156113e957600e6000868152602001908152602001600020600084838151811061135257611352612c21565b6020908102919091018101516001600160a01b031682528101919091526040016000205460ff16806113ce5750600e600085815260200190815260200160002060008483815181106113a6576113a6612c21565b6020908102919091018101516001600160a01b031682528101919091526040016000205460ff165b156113e157816113dd81612c37565b9250505b600101611322565b5060008167ffffffffffffffff8111156114055761140561265f565b60405190808252806020026020018201604052801561147157816020015b61145e6040518060a0016040528060006001600160a01b03168152602001600081526020016000815260200160008152602001600081525090565b8152602001906001900390816114235790505b5090506000805b84518110156115cc57600085828151811061149557611495612c21565b60209081029190910181015160008a8152600e835260408082206001600160a01b0384168352909352919091205490915060ff16806114f657506000878152600e602090815260408083206001600160a01b038516845290915290205460ff165b156115c3576000611507828a6104db565b90506000611515838a6104db565b6001600160a01b0384166000818152600c602090815260408083208f845282529182902054825160a081018452938452908301869052908201839052919250606081018261156457600061156e565b61156e8343612bc1565b815260200161157d868d61120d565b611587878f61120d565b6115919190612bd4565b8152508787815181106115a6576115a6612c21565b602002602001018190525085806115bc90612c37565b9650505050505b50600101611478565b5090979650505050505050565b336001600160a01b03861681148015906115fa57506115f886826111df565b155b1561162b5760405163711bec9160e11b81526001600160a01b03808316600483015287166024820152604401610567565b6108d58686868686611feb565b61164061180f565b6001600160a01b03811661166a57604051631e4fbdf760e01b815260006004820152602401610567565b6116738161183c565b50565b60006001600160e01b03198216636cdb3d1360e11b14806116a757506001600160e01b031982166303a24d0760e21b145b806104fd57506301ffc9a760e01b6001600160e01b03198316146104fd565b6002600354036116e957604051633ee5aeb560e01b815260040160405180910390fd5b6002600355565b61170b83838360405180602001604052806000815250612079565b6001600160a01b0383166000818152600c602090815260408083208684528252808320439055600e8252808320938352929052205460ff166117a3576000828152600d602090815260408083208054600180820183559185528385200180546001600160a01b0319166001600160a01b038916908117909155868552600e8452828520908552909252909120805460ff191690911790555b505050565b6001600160a01b0384166117d257604051632bfa23e760e11b815260006004820152602401610567565b6001600160a01b0385166117fb57604051626a0d4560e21b815260006004820152602401610567565b61180885858585856120d2565b5050505050565b6004546001600160a01b031633146109bc5760405163118cdaa760e01b8152336004820152602401610567565b600480546001600160a01b038381166001600160a01b0319831681179093556040519116919082907f8be0079c531659141344cd1fd0a4f28419497f9722a3daafe3b4186f6b6457e090600090a35050565b6118b96040518060800160405280600081526020016000815260200160008152602001600081525090565b60006118c78361029a612b63565b6118d19085612bd4565b905060006118df88886104db565b905060006118ed89886104db565b9050886001600160a01b03168a6001600160a01b031603611921576119128683612bc1565b915061191e8582612bc1565b90505b600060646119318361029a612b63565b61193b9085612bd4565b61194690606e612b63565b6119509190612bad565b90508060000361195e575060015b80841115611983576040850183905260608501829052600080865260208601526119e0565b8685526020850186905260006119998580612b63565b905060006119a78380612b63565b9050806119b48387612b63565b6119be9190612bad565b6040880152806119ce8386612b63565b6119d89190612bad565b606088015250505b505050509695505050505050565b600080611a00866104658760d8612bd4565b611a0a878761120d565b611a149190612bd4565b90506000611a27876102238860d8612bd4565b611a339061029a612b63565b611a3d88886104db565b611a479190612bd4565b905080600003611a5c57600092505050610e2a565b6000611a6a8561029a612b63565b611a749087612bd4565b9050600082611a838386612b63565b611a8d9190612bad565b9050612710611a9e611d4c83612b63565b611aa89190612bad565b9998505050505050505050565b80156107de57806006541015611b025760405162461bcd60e51b8152602060048201526012602482015271547265617375727920756e646572666c6f7760701b6044820152606401610567565b8060066000828254611b149190612bc1565b9250508190555080600a6000828254611b2d9190612bd4565b909155505060405163a9059cbb60e01b81526001600160a01b038381166004830152602482018390527f0000000000000000000000000000000000000000000000000000000000000000169063a9059cbb906044016020604051808303816000875af1158015611ba1573d6000803e3d6000fd5b505050506040513d601f19601f82011682018060405250810190611bc59190612b7a565b6107de5760405162461bcd60e51b815260206004820152600b60248201526a14185e5bdd5d0819985a5b60aa1b6044820152606401610567565b60408101518151611c109190612bd4565b60086000828254611c219190612bd4565b909155505060608101516020820151611c3a9190612bd4565b60096000828254611c4b9190612bd4565b909155505050565b6001600160a01b038316611c7c57604051626a0d4560e21b815260006004820152602401610567565b604080516001808252602082018590528183019081526060820184905260a08201909252600060808201818152919291611808918791859085906120d2565b6001600160a01b038216611ce45760405162ced3e160e81b815260006004820152602401610567565b6001600160a01b03838116600081815260016020908152604080832094871680845294825291829020805460ff191686151590811790915591519182527f17307eab39ab6107e8899845ad3d59bd9653f200f220920489ca2b5937696c31910160405180910390a3505050565b600080611d5f600185612c50565b90506000611d6e600185612c50565b90506000611d7d600684612c72565b905060006006611d8d8186612c93565b611d979190612c72565b90506000611da6602486612c93565b90506000611db5600686612c72565b905060006006611dc58188612c93565b611dcf9190612c72565b90506000611dde602488612c93565b90508060010b8460010b13611dfc57611df78482612cb4565b611e06565b611e068185612cb4565b8260010b8660010b13611e2257611e1d8684612cb4565b611e2c565b611e2c8387612cb4565b8460010b8860010b13611e4857611e438886612cb4565b611e52565b611e528589612cb4565b611e5c9190612cd7565b611e669190612cd7565b61ffff166001149850505050505050505092915050565b80611e8833856104db565b1015611ecb5760405162461bcd60e51b8152602060048201526012602482015271496e73756666696369656e7420756e69747360701b6044820152606401610567565b611ed6338483611c53565b611ee033846104db565b600003611f19576000838152600e602090815260408083203384528252808320805460ff19169055600c82528083208684529091528120555b611f3433838360405180602001604052806000815250612079565b336000908152600c602090815260408083208584529091528120549003611f7357336000908152600c6020908152604080832085845290915290204390555b6000828152600e6020908152604080832033845290915290205460ff166117a3576000828152600d602090815260408083208054600181810183559185528385200180546001600160a01b03191633908117909155868552600e8452828520908552909252909120805460ff19169091179055505050565b6001600160a01b03841661201557604051632bfa23e760e11b815260006004820152602401610567565b6001600160a01b03851661203e57604051626a0d4560e21b815260006004820152602401610567565b6040805160018082526020820186905281830190815260608201859052608082019092529061207087878484876120d2565b50505050505050565b6001600160a01b0384166120a357604051632bfa23e760e11b815260006004820152602401610567565b604080516001808252602082018690528183019081526060820185905260808201909252906108d56000878484875b6120de85858585612125565b6001600160a01b0384161561180857825133906001036121175760208481015190840151612110838989858589612339565b50506108d5565b6108d581878787878761245d565b80518251146121545781518151604051635b05999160e01b815260048101929092526024820152604401610567565b3360005b835181101561225a576020818102858101820151908501909101516001600160a01b0388161561220b576000828152602081815260408083206001600160a01b038c168452909152902054818110156121e4576040516303dee4c560e01b81526001600160a01b038a166004820152602481018290526044810183905260648101849052608401610567565b6000838152602081815260408083206001600160a01b038d16845290915290209082900390555b6001600160a01b03871615612250576000828152602081815260408083206001600160a01b038b1684529091528120805483929061224a908490612bd4565b90915550505b5050600101612158565b5082516001036122db5760208301516000906020840151909150856001600160a01b0316876001600160a01b0316846001600160a01b03167fc3d58168c5ae7397731d063d5bbf3d657854427343f4c083240f7aacaa2d0f6285856040516122cc929190918252602082015260400190565b60405180910390a45050611808565b836001600160a01b0316856001600160a01b0316826001600160a01b03167f4a39dc06d4c0dbc64b70af90fd698a233a518aa5d07e595d983b8c0526c8f7fb868660405161232a929190612cfa565b60405180910390a45050505050565b6001600160a01b0384163b156108d55760405163f23a6e6160e01b81526001600160a01b0385169063f23a6e619061237d9089908990889088908890600401612d28565b6020604051808303816000875af19250505080156123b8575060408051601f3d908101601f191682019092526123b591810190612d6d565b60015b612421573d8080156123e6576040519150601f19603f3d011682016040523d82523d6000602084013e6123eb565b606091505b50805160000361241957604051632bfa23e760e11b81526001600160a01b0386166004820152602401610567565b805160208201fd5b6001600160e01b0319811663f23a6e6160e01b1461207057604051632bfa23e760e11b81526001600160a01b0386166004820152602401610567565b6001600160a01b0384163b156108d55760405163bc197c8160e01b81526001600160a01b0385169063bc197c81906124a19089908990889088908890600401612d8a565b6020604051808303816000875af19250505080156124dc575060408051601f3d908101601f191682019092526124d991810190612d6d565b60015b61250a573d8080156123e6576040519150601f19603f3d011682016040523d82523d6000602084013e6123eb565b6001600160e01b0319811663bc197c8160e01b1461207057604051632bfa23e760e11b81526001600160a01b0386166004820152602401610567565b80356001600160a01b038116811461255d57600080fd5b919050565b6000806040838503121561257557600080fd5b61257e83612546565b946020939093013593505050565b6001600160e01b03198116811461167357600080fd5b6000602082840312156125b457600080fd5b81356112998161258c565b803561ffff8116811461255d57600080fd5b600080604083850312156125e457600080fd5b61257e836125bf565b6000602082840312156125ff57600080fd5b5035919050565b6000815180845260005b8181101561262c57602081850181015186830182015201612610565b506000602082860101526020601f19601f83011685010191505092915050565b6020815260006112996020830184612606565b634e487b7160e01b600052604160045260246000fd5b604051601f8201601f1916810167ffffffffffffffff8111828210171561269e5761269e61265f565b604052919050565b600067ffffffffffffffff8211156126c0576126c061265f565b5060051b60200190565b600082601f8301126126db57600080fd5b813560206126f06126eb836126a6565b612675565b8083825260208201915060208460051b87010193508684111561271257600080fd5b602086015b8481101561272e5780358352918301918301612717565b509695505050505050565b600082601f83011261274a57600080fd5b813567ffffffffffffffff8111156127645761276461265f565b612777601f8201601f1916602001612675565b81815284602083860101111561278c57600080fd5b816020850160208301376000918101602001919091529392505050565b600080600080600060a086880312156127c157600080fd5b6127ca86612546565b94506127d860208701612546565b9350604086013567ffffffffffffffff808211156127f557600080fd5b61280189838a016126ca565b9450606088013591508082111561281757600080fd5b61282389838a016126ca565b9350608088013591508082111561283957600080fd5b5061284688828901612739565b9150509295509295909350565b6000806040838503121561286657600080fd5b823567ffffffffffffffff8082111561287e57600080fd5b818501915085601f83011261289257600080fd5b813560206128a26126eb836126a6565b82815260059290921b840181019181810190898411156128c157600080fd5b948201945b838610156128e6576128d786612546565b825294820194908201906128c6565b965050860135925050808211156128fc57600080fd5b50612909858286016126ca565b9150509250929050565b60008151808452602080850194506020840160005b8381101561294457815187529582019590820190600101612928565b509495945050505050565b6020815260006112996020830184612913565b6000806000806080858703121561297857600080fd5b61298185612546565b935061298f602086016125bf565b93969395505050506040820135916060013590565b801515811461167357600080fd5b600080604083850312156129c557600080fd5b6129ce83612546565b915060208301356129de816129a4565b809150509250929050565b6000602082840312156129fb57600080fd5b61129982612546565b60008060008060808587031215612a1a57600080fd5b612981856125bf565b60008060408385031215612a3657600080fd5b612a3f83612546565b9150612a4d60208401612546565b90509250929050565b600060208284031215612a6857600080fd5b611299826125bf565b602080825282518282018190526000919060409081850190868401855b82811015612adb57815180516001600160a01b0316855286810151878601528581015186860152606080820151908601526080908101519085015260a09093019290850190600101612a8e565b5091979650505050505050565b600080600080600060a08688031215612b0057600080fd5b612b0986612546565b9450612b1760208701612546565b93506040860135925060608601359150608086013567ffffffffffffffff811115612b4157600080fd5b61284688828901612739565b634e487b7160e01b600052601160045260246000fd5b80820281158282048414176104fd576104fd612b4d565b600060208284031215612b8c57600080fd5b8151611299816129a4565b634e487b7160e01b600052601260045260246000fd5b600082612bbc57612bbc612b97565b500490565b818103818111156104fd576104fd612b4d565b808201808211156104fd576104fd612b4d565b600181811c90821680612bfb57607f821691505b602082108103612c1b57634e487b7160e01b600052602260045260246000fd5b50919050565b634e487b7160e01b600052603260045260246000fd5b600060018201612c4957612c49612b4d565b5060010190565b61ffff828116828216039080821115612c6b57612c6b612b4d565b5092915050565b600061ffff80841680612c8757612c87612b97565b92169190910692915050565b600061ffff80841680612ca857612ca8612b97565b92169190910492915050565b600182810b9082900b03617fff198112617fff821317156104fd576104fd612b4d565b600181810b9083900b01617fff8113617fff19821217156104fd576104fd612b4d565b604081526000612d0d6040830185612913565b8281036020840152612d1f8185612913565b95945050505050565b6001600160a01b03868116825285166020820152604081018490526060810183905260a060808201819052600090612d6290830184612606565b979650505050505050565b600060208284031215612d7f57600080fd5b81516112998161258c565b6001600160a01b0386811682528516602082015260a060408201819052600090612db690830186612913565b8281036060840152612dc88186612913565b90508281036080840152612ddc8185612606565b9897505050505050505056fea26469706673582212206526aa85135f16624d04d53c4a691b1387c951ecf809d029b657c4f571865cd364736f6c6343000818003368747470733a2f2f6170692e6b696c6c67616d652e61692f6d657461646174612f7b69647d2e6a736f6e",
  "linkReferences": {},
  "deployedLinkReferences": {}
}